{
  "_format": "hh-sol-artifact-1",
  "contractName": "GatewayManagerFacet",
  "sourceName": "contracts/gateway/GatewayManagerFacet.sol",
  "abi": [
    {
      "inputs": [
        {
          "internalType": "address",
          "name": "target",
          "type": "address"
        }
      ],
      "name": "AddressEmptyCode",
      "type": "error"
    },
    {
      "inputs": [
        {
          "internalType": "address",
          "name": "account",
          "type": "address"
        }
      ],
      "name": "AddressInsufficientBalance",
      "type": "error"
    },
    {
      "inputs": [],
      "name": "AlreadyRegisteredSubnet",
      "type": "error"
    },
    {
      "inputs": [],
      "name": "CallFailed",
      "type": "error"
    },
    {
      "inputs": [],
      "name": "CannotReleaseZero",
      "type": "error"
    },
    {
      "inputs": [],
      "name": "FailedInnerCall",
      "type": "error"
    },
    {
      "inputs": [],
      "name": "InsufficientFunds",
      "type": "error"
    },
    {
      "inputs": [],
      "name": "InvalidActorAddress",
      "type": "error"
    },
    {
      "inputs": [
        {
          "internalType": "enum InvalidXnetMessageReason",
          "name": "reason",
          "type": "uint8"
        }
      ],
      "name": "InvalidXnetMessage",
      "type": "error"
    },
    {
      "inputs": [
        {
          "internalType": "string",
          "name": "reason",
          "type": "string"
        }
      ],
      "name": "MethodNotAllowed",
      "type": "error"
    },
    {
      "inputs": [],
      "name": "NotEmptySubnetCircSupply",
      "type": "error"
    },
    {
      "inputs": [],
      "name": "NotEnoughBalance",
      "type": "error"
    },
    {
      "inputs": [],
      "name": "NotEnoughFunds",
      "type": "error"
    },
    {
      "inputs": [],
      "name": "NotEnoughFundsToRelease",
      "type": "error"
    },
    {
      "inputs": [],
      "name": "NotRegisteredSubnet",
      "type": "error"
    },
    {
      "inputs": [],
      "name": "ReentrancyError",
      "type": "error"
    },
    {
      "inputs": [
        {
          "internalType": "address",
          "name": "token",
          "type": "address"
        }
      ],
      "name": "SafeERC20FailedOperation",
      "type": "error"
    },
    {
      "anonymous": false,
      "inputs": [
        {
          "indexed": true,
          "internalType": "uint256",
          "name": "epoch",
          "type": "uint256"
        }
      ],
      "name": "NewBottomUpMsgBatch",
      "type": "event"
    },
    {
      "anonymous": false,
      "inputs": [
        {
          "indexed": true,
          "internalType": "address",
          "name": "subnet",
          "type": "address"
        },
        {
          "components": [
            {
              "internalType": "enum IpcMsgKind",
              "name": "kind",
              "type": "uint8"
            },
            {
              "components": [
                {
                  "components": [
                    {
                      "internalType": "uint64",
                      "name": "root",
                      "type": "uint64"
                    },
                    {
                      "internalType": "address[]",
                      "name": "route",
                      "type": "address[]"
                    }
                  ],
                  "internalType": "struct SubnetID",
                  "name": "subnetId",
                  "type": "tuple"
                },
                {
                  "components": [
                    {
                      "internalType": "uint8",
                      "name": "addrType",
                      "type": "uint8"
                    },
                    {
                      "internalType": "bytes",
                      "name": "payload",
                      "type": "bytes"
                    }
                  ],
                  "internalType": "struct FvmAddress",
                  "name": "rawAddress",
                  "type": "tuple"
                }
              ],
              "internalType": "struct IPCAddress",
              "name": "to",
              "type": "tuple"
            },
            {
              "components": [
                {
                  "components": [
                    {
                      "internalType": "uint64",
                      "name": "root",
                      "type": "uint64"
                    },
                    {
                      "internalType": "address[]",
                      "name": "route",
                      "type": "address[]"
                    }
                  ],
                  "internalType": "struct SubnetID",
                  "name": "subnetId",
                  "type": "tuple"
                },
                {
                  "components": [
                    {
                      "internalType": "uint8",
                      "name": "addrType",
                      "type": "uint8"
                    },
                    {
                      "internalType": "bytes",
                      "name": "payload",
                      "type": "bytes"
                    }
                  ],
                  "internalType": "struct FvmAddress",
                  "name": "rawAddress",
                  "type": "tuple"
                }
              ],
              "internalType": "struct IPCAddress",
              "name": "from",
              "type": "tuple"
            },
            {
              "internalType": "uint64",
              "name": "nonce",
              "type": "uint64"
            },
            {
              "internalType": "uint256",
              "name": "value",
              "type": "uint256"
            },
            {
              "internalType": "bytes",
              "name": "message",
              "type": "bytes"
            }
          ],
          "indexed": false,
          "internalType": "struct IpcEnvelope",
          "name": "message",
          "type": "tuple"
        }
      ],
      "name": "NewTopDownMessage",
      "type": "event"
    },
    {
      "inputs": [
        {
          "internalType": "uint256",
          "name": "amount",
          "type": "uint256"
        }
      ],
      "name": "addStake",
      "outputs": [],
      "stateMutability": "payable",
      "type": "function"
    },
    {
      "inputs": [
        {
          "components": [
            {
              "internalType": "uint64",
              "name": "root",
              "type": "uint64"
            },
            {
              "internalType": "address[]",
              "name": "route",
              "type": "address[]"
            }
          ],
          "internalType": "struct SubnetID",
          "name": "subnetId",
          "type": "tuple"
        },
        {
          "components": [
            {
              "internalType": "uint8",
              "name": "addrType",
              "type": "uint8"
            },
            {
              "internalType": "bytes",
              "name": "payload",
              "type": "bytes"
            }
          ],
          "internalType": "struct FvmAddress",
          "name": "to",
          "type": "tuple"
        }
      ],
      "name": "fund",
      "outputs": [],
      "stateMutability": "payable",
      "type": "function"
    },
    {
      "inputs": [
        {
          "components": [
            {
              "internalType": "uint64",
              "name": "root",
              "type": "uint64"
            },
            {
              "internalType": "address[]",
              "name": "route",
              "type": "address[]"
            }
          ],
          "internalType": "struct SubnetID",
          "name": "subnetId",
          "type": "tuple"
        },
        {
          "components": [
            {
              "internalType": "uint8",
              "name": "addrType",
              "type": "uint8"
            },
            {
              "internalType": "bytes",
              "name": "payload",
              "type": "bytes"
            }
          ],
          "internalType": "struct FvmAddress",
          "name": "to",
          "type": "tuple"
        },
        {
          "internalType": "uint256",
          "name": "amount",
          "type": "uint256"
        }
      ],
      "name": "fundWithToken",
      "outputs": [],
      "stateMutability": "nonpayable",
      "type": "function"
    },
    {
      "inputs": [],
      "name": "kill",
      "outputs": [],
      "stateMutability": "nonpayable",
      "type": "function"
    },
    {
      "inputs": [
        {
          "internalType": "uint256",
          "name": "genesisCircSupply",
          "type": "uint256"
        },
        {
          "internalType": "uint256",
          "name": "collateral",
          "type": "uint256"
        }
      ],
      "name": "register",
      "outputs": [],
      "stateMutability": "payable",
      "type": "function"
    },
    {
      "inputs": [
        {
          "components": [
            {
              "internalType": "uint8",
              "name": "addrType",
              "type": "uint8"
            },
            {
              "internalType": "bytes",
              "name": "payload",
              "type": "bytes"
            }
          ],
          "internalType": "struct FvmAddress",
          "name": "to",
          "type": "tuple"
        }
      ],
      "name": "release",
      "outputs": [],
      "stateMutability": "payable",
      "type": "function"
    },
    {
      "inputs": [
        {
          "internalType": "uint256",
          "name": "amount",
          "type": "uint256"
        }
      ],
      "name": "releaseStake",
      "outputs": [],
      "stateMutability": "nonpayable",
      "type": "function"
    }
  ],
  "bytecode": "0x6080806040523461001657612b06908161001c8239f35b600080fdfe6080604081815260048036101561001557600080fd5b600092833560e01c9081630517e1aa14610a915750806318f44b701461084057806341c0e1b51461069757806345f544851461058d5780636b2c1eef1461045d578063d66d6c101461012b5763eb4f16b51461007057600080fd5b6020366003190112610127578035908115610119578251632d9e5f4f60e21b815283818381335afa90811561010f576100b291849187916100e2575b506116df565b506100bc33611bf2565b9390156100d55750506100d090825461151e565b905580f35b51630e991abd60e41b8152fd5b6101029150863d8811610108575b6100fa8183610d98565b810190610f0c565b386100ac565b503d6100f0565b84513d87823e3d90fd5b8251631036b5ad60e31b8152fd5b8280fd5b50919080600319360112610459578235906024359160135490600191600181018091116104465760ff6006541611156103e057806103ae575b83610355575b6101a8956101766112f3565b918673__$3fbe32418a9ca7804328967972fb037388$__938651809a819263aa5106cb60e01b83523390878401611575565b0381865af497881561034b578798610327575b506101c5886115cd565b9061031757828101966001600160401b0397888b51166001600160401b03198254161790556005820195602096878c0151908151918b831161030457899061020d8484611447565b01908c52888c208c5b8381106102ea5750505091835550504360018201556002015583516390ba52cf60e01b81529081018390529495939493829185918290819061025c906024830190610eb4565b03915af49182156102e1575084916102b1575b5061027a9150612a1b565b50600354906102986001600160401b0360801b918360801c1661159d565b60801b16906001600160401b0360801b19161760035580f35b905081813d83116102da575b6102c78183610d98565b810103126101275761027a90513861026f565b503d6102bd565b513d86823e3d90fd5b82516001600160a01b031682820155918a01918401610216565b634e487b7160e01b8d526041885260248dfd5b8551631b538cdf60e11b81528390fd5b6103449198503d8089833e61033c8183610d98565b810190611550565b96386101bb565b85513d89823e3d90fd5b8251632d9e5f4f60e21b81529583878281335afa9687156103a457856101a89861038592899161038d57506116df565b50955061016a565b6101029150873d8911610108576100fa8183610d98565b84513d88823e3d90fd5b82516380875df760e01b815283818881335afa9081156103a4576103da91839188916100e257506116df565b50610164565b602086610442858051906103f382610d7d565b602382527f5375626e657420646f6573206e6f7420616c6c6f77206368696c64207375626e858301526265747360e81b818301525193849363015538b160e01b8552840152602483019061152b565b0390fd5b634e487b7160e01b865260118752602486fd5b5080fd5b50906003196020368201126105895782356001600160401b038111610585578282823603011261058557341561056e578251630c30422f60e11b8152608085820152918591839182916104ce91906104b76084850161149e565b9133602486015284830301604485015288016111c4565b346064830152038173__$c0560e63386df2470ca6214f90e7038fc9$__5af49081156105645790610506918591610542575b506124fc565b34471061053557828080803460635af161051e6128b3565b5015610528578280f35b51633204506f60e01b8152fd5b5163356680b760e01b8152fd5b61055e91503d8087833e6105568183610d98565b81019061110e565b38610500565b82513d86823e3d90fd5b825163bc0f01cf60e01b8152600381860152602490fd5b8480fd5b8380fd5b50346101275760203660031901126101275780357f691bb03ffc16c56fc96b82fd16cd1b3715f0bc3cdc6407005f49bb62058600959160018354146106895760018355811561067b576105df33611bf2565b901561066c57805483811061065c57906105fd84889695949361147b565b90558480518092632d9e5f4f60e21b825281335afa90811561065257849561062f949592610635575b50503390611c8c565b50505580f35b61064b9250803d10610108576100fa8183610d98565b3880610626565b85513d86823e3d90fd5b85516379b33e7960e01b81528390fd5b508351630e991abd60e41b8152fd5b835163c79cad7b60e01b8152fd5b83516329f745a760e01b8152fd5b50346101275782600319360112610127576106b133611bf2565b919015610832576002820154610824576106ce818354930161138d565b6106f48451916390ba52cf60e01b83528280602093849384888401526024830190610eb4565b038173__$3fbe32418a9ca7804328967972fb037388$__5af491821561081a5786926107e7575b506003546001600160401b03600019818360801c16019081116107d45791601f9161079494936001600160401b0360801b9060801b16906001600160401b0360801b1916176003558288525261078f6005868820888155886001820155886002820155886003820155888682015501611421565b61291a565b508280518092632d9e5f4f60e21b825281335afa9081156107c7576107c29385926106355750503390611c8c565b505080f35b50505051903d90823e3d90fd5b634e487b7160e01b885260118552602488fd5b9080925081813d8311610813575b6107ff8183610d98565b8101031261080f5751903861071b565b8580fd5b503d6107f5565b85513d88823e3d90fd5b8251637c67c70160e11b8152fd5b8251630e991abd60e41b8152fd5b50600319908282360112610589578035906001600160401b039283831161080f578481848401943603011261080f5760243593841161080f5784908436030112610585573415610a7a5761089c6108973684610dfd565b6115cd565b5015610a6c576108d36108af3684610dfd565b85805191632cff562160e11b83528280602095869384898401526024830190610eb4565b038173__$3fbe32418a9ca7804328967972fb037388$__5af48015610a625784928991610a25575b5081516380875df760e01b815292839182906001600160a01b03165afa908115610a1b5787916109fe575b505160028110156109eb576109b6575090849161095b8551948593849363266a83ad60e21b855234928101913391860161122f565b038173__$c0560e63386df2470ca6214f90e7038fc9$__5af49081156109aa5761098d92508391610990575b506119b3565b80f35b6109a491503d8085833e6105568183610d98565b38610987565b505051903d90823e3d90fd5b845162461bcd60e51b815291820152601060248201526f155b995e1c1958dd195908185cdcd95d60821b604482015260649150fd5b634e487b7160e01b875260218352602487fd5b610a159150863d8811610108576100fa8183610d98565b38610926565b86513d89823e3d90fd5b925050508181813d8311610a5b575b610a3e8183610d98565b81010312610a575785610a518492610ea0565b386108fb565b8680fd5b503d610a34565b81513d8a823e3d90fd5b8351630e991abd60e41b8152fd5b602490600385519163bc0f01cf60e01b8352820152fd5b849150833461012757600319606036820112610589578435906001600160401b039081831161080f578381848901943603011261080f5760243591821161080f5783908236030112610585576044357f691bb03ffc16c56fc96b82fd16cd1b3715f0bc3cdc6407005f49bb6205860095946001865414610d235750600185558015610d0c57610b236108973685610dfd565b5015610cfc57610b333684610dfd565b8451632cff562160e11b8152888180610b586020958680958401526024830190610eb4565b038173__$3fbe32418a9ca7804328967972fb037388$__5af4908115610cb15789929187918a91610cbb575b5081516380875df760e01b815293849182906001600160a01b03165afa918215610cb1578892610c92575b5081516002811015610c7f57600103610c4a575091610bf1610bd488999389956116df565b865163266a83ad60e21b815295869485948101913391860161122f565b038173__$c0560e63386df2470ca6214f90e7038fc9$__5af4918215610c41575090610c23918491610c2757506119b3565b5580f35b610c3b91503d8086833e6105568183610d98565b85610987565b513d85823e3d90fd5b8860649187519162461bcd60e51b8352820152601060248201526f155b995e1c1958dd195908185cdcd95d60821b6044820152fd5b634e487b7160e01b895260218a52602489fd5b610caa919250863d8811610108576100fa8183610d98565b9089610baf565b86513d8a823e3d90fd5b928094508092508391503d8311610cf5575b610cd78183610d98565b81010312610cf1579085610ceb8a93610ea0565b8b610b84565b8780fd5b503d610ccd565b8351630e991abd60e41b81528790fd5b835163bc0f01cf60e01b8152600381890152602490fd5b6329f745a760e01b81528790fd5b604081019081106001600160401b03821117610d4c57604052565b634e487b7160e01b600052604160045260246000fd5b60c081019081106001600160401b03821117610d4c57604052565b606081019081106001600160401b03821117610d4c57604052565b90601f801991011681019081106001600160401b03821117610d4c57604052565b35906001600160401b0382168203610dcd57565b600080fd5b6001600160401b038111610d4c5760051b60200190565b35906001600160a01b0382168203610dcd57565b9190604083820312610dcd5760405192610e1684610d31565b83610e2082610db9565b815260209182810135906001600160401b038211610dcd57019280601f85011215610dcd578335610e5081610dd2565b94610e5e6040519687610d98565b818652848087019260051b820101928311610dcd5784809101915b838310610e8857505050500152565b8190610e9384610de9565b8152019101908490610e79565b51906001600160a01b0382168203610dcd57565b604082016001600160401b0382511683526020606081809401519460408382015285518094520193019160005b828110610eef575050505090565b83516001600160a01b031685529381019392810192600101610ee1565b90816040910312610dcd5760405190610f2482610d31565b80516002811015610dcd578252610f3d90602001610ea0565b602082015290565b51906001600160401b0382168203610dcd57565b9190604083820312610dcd5760405192610f7284610d31565b83610f7c82610f45565b815260209182810151906001600160401b038211610dcd57019280601f85011215610dcd578351610fac81610dd2565b94610fba6040519687610d98565b818652848087019260051b820101928311610dcd5784809101915b838310610fe457505050500152565b8190610fef84610ea0565b8152019101908490610fd5565b6001600160401b038111610d4c57601f01601f191660200190565b60005b83811061102a5750506000910152565b818101518382015260200161101a565b81601f82011215610dcd57805161105081610ffc565b9261105e6040519485610d98565b81845260208284010111610dcd5761107c9160208085019101611017565b90565b9190604083820312610dcd576040519261109884610d31565b838151916001600160401b0392838111610dcd57846110b8918301610f59565b8252602081015190838211610dcd5701604081850312610dcd57604051936110df85610d31565b815160ff81168103610dcd5785526020820151938411610dcd57602093611106920161103a565b828401520152565b90602082820312610dcd5781516001600160401b0392838211610dcd57019060c082820312610dcd576040519261114484610d62565b82516003811015610dcd5784526020830151818111610dcd578261116991850161107f565b60208501526040830151818111610dcd578261118691850161107f565b604085015261119760608401610f45565b60608501526080830151608085015260a0830151908111610dcd576111bc920161103a565b60a082015290565b803560ff8116809103610dcd5782526020810135601e1982360301811215610dcd570190602082359201916001600160401b038111610dcd578036038313610dcd578060609360406020850152816040850152848401376000828201840152601f01601f1916010190565b94939290916080865260c086016001600160401b03938461124f82610db9565b1660808901526020906020810135601e1982360301811215610dcd570191602083359301958311610dcd578260051b36038613610dcd57604060a08a015282905260e0880194919060005b8281106112cc57505050506001600160a01b0316602086015284820360408601526060916112c7916111c4565b930152565b909192958280600192838060a01b036112e48b610de9565b1681520197019392910161129a565b6040519061130082610d31565b816001600160401b036012541681526040518091826013549283815260208091019360136000527f66de8ffda797e3de9c05e8fc57b3bf0ec28a930d40b0d285d93c06501cf6a090916000905b82821061136a5750505050611366906020930384610d98565b0152565b83546001600160a01b03168752958601958794506001938401939091019061134d565b906040519161139b83610d31565b826001600160401b0382541681526001809201916040519283849282548083526020809301936000526020600020926000905b8282106113e957505050505060209291611366910384610d98565b84546001600160a01b031686528896509485019493830193908301906113ce565b818110611415575050565b6000815560010161140a565b80546000825580611430575050565b6114459160005260206000209081019061140a565b565b90600160401b8111610d4c5781549080835581811061146557505050565b611445926000526020600020918201910161140a565b9190820391821161148857565b634e487b7160e01b600052601160045260246000fd5b60408101906001600160401b03601254168152606060209160406020820152601354809452019160136000527f66de8ffda797e3de9c05e8fc57b3bf0ec28a930d40b0d285d93c06501cf6a090916000905b8282106114fe575050505090565b83546001600160a01b0316855293840193600193840193909101906114f0565b9190820180921161148857565b9060209161154481518092818552858086019101611017565b601f01601f1916010190565b90602082820312610dcd5781516001600160401b038111610dcd5761107c9201610f59565b9061158d602091949394604084526040840190610eb4565b6001600160a01b03909416910152565b9060016001600160401b038093160191821161148857565b90816020910312610dcd57518015158103610dcd5790565b61160b73__$3fbe32418a9ca7804328967972fb037388$__91604051906390ba52cf60e01b8252818060209485938460048401526024830190610eb4565b0381865af49081156116a6576000916116b2575b50600052601f81526116608160406000209361163d6004860161138d565b906040518080958194630c133d1360e31b83528660048401526024830190610eb4565b03915af49182156116a657600092611679575b50501591565b6116989250803d1061169f575b6116908183610d98565b8101906115b5565b3880611673565b503d611686565b6040513d6000823e3d90fd5b90508181813d83116116d8575b6116c98183610d98565b81010312610dcd57513861161f565b503d6116bf565b919082516002811015611910576001036118c9576020928360018060a01b03910151166040938451926370a0823160e01b80855230600486015260249183868481885afa9586156118be5760009661188f575b508751848101916323b872dd60e01b8352338583015230604483015260648201526064815260a081018181106001600160401b0382111761187a5789525161178c91600091829182895af16117856128b3565b9086612a6d565b805190848215159283611861575b50505061184b5782908288518096819382523060048301525afa92831561184057600093611811575b50838311156117d957505061107c92935061147b565b90601360649287519262461bcd60e51b84526004840152820152724e6f2062616c616e636520696e63726561736560681b6044820152fd5b9092508181813d8311611839575b6118298183610d98565b81010312610dcd575191386117c3565b503d61181f565b86513d6000823e3d90fd5b508551635274afe760e01b815260048101849052fd5b61187193508201810191016115b5565b1538848161179a565b84634e487b7160e01b60005260416004526000fd5b9095508381813d83116118b7575b6118a78183610d98565b81010312610dcd57519438611732565b503d61189d565b88513d6000823e3d90fd5b8091925034106118d65790565b60405162461bcd60e51b8152602060048201526012602482015271496e73756666696369656e742066756e647360701b6044820152606490fd5b634e487b7160e01b600052602160045260246000fd5b91908251906040815260808101936001600160401b038351166040830152602080930151946040606084015285518091528360a0840196019060005b818110611996575050509360408381938161107c97980151908281860391015260ff8151168452015193820152019061152b565b82516001600160a01b031688529685019691850191600101611962565b60208082019182515190611a1173__$3fbe32418a9ca7804328967972fb037388$__926040956119f987519263089032d560e01b84528860048501526044840190610eb4565b6003198382030160248401528280600095869361149e565b0381885af4918215611be8578392611bcc575b50611a2e826115cd565b939015611bbb5790839291876003611aac979601938454986001600160401b0395868b169a87611a648d60608d019e8f5261159d565b16906001600160401b0319161790556080880196611a8960028951920191825461151e565b90558b5180809a81946304e384ff60e21b83528660048401526024830190610eb4565b03915af4958615611baf578196611b78575b508851978089528551916003831015611b6457509388979493611b36611b1e8c60c060a097611b5f9b977ffdd39ce2560484814971f663392e78ae37dc62ba184b3370d830371dd271a8b79f9d9a8e015251918c015260e08b0190611926565b9b8401519b601f199c8d8b83030160608c0152611926565b95511660808801525182870152015184830390970160c08501526001600160a01b03169561152b565b0390a2565b634e487b7160e01b81526021600452602490fd5b9095508781813d8311611ba8575b611b908183610d98565b8101031261080f57611ba190610ea0565b9438611abe565b503d611b86565b508851903d90823e3d90fd5b8751630e991abd60e41b8152600490fd5b611be19192503d8085833e61033c8183610d98565b9038611a24565b87513d85823e3d90fd5b6001600160a01b03811615611c7a576000611c2a91611c0f6112f3565b60405163aa5106cb60e01b8152938492839260048401611575565b038173__$3fbe32418a9ca7804328967972fb037388$__5af480156116a657611c5b91600091611c5f575b506115cd565b9091565b611c7491503d806000833e61033c8183610d98565b38611c55565b6040516370e4510960e01b8152600490fd5b9291906000809460609080516002811015611dc557611d1457505050814710611d025783918291829182916001600160a01b03165af1611cca6128b3565b5060405192602084018481106001600160401b03821117611cee5760405283529190565b634e487b7160e01b82526041600452602482fd5b60405163569d45cf60e11b8152600490fd5b8096939195949296516002811015611db157600114611d335750505050565b602090810151604080516001600160a01b03948516938101938452808201959095528452949650929450849316918390611d6c83610d7d565b611da460246040518093611d94602083019763a9059cbb60e01b895251809285850190611017565b8101036004810184520182610d98565b51925af19061107c6128b3565b634e487b7160e01b85526021600452602485fd5b634e487b7160e01b88526021600452602488fd5b60138114611e5957601354906001600160401b038211610d4c57611dfd8282611447565b6000908152602081207f66de8ffda797e3de9c05e8fc57b3bf0ec28a930d40b0d285d93c06501cf6a09080545b848410611e38575050505050565b600191820180546001600160a01b0390921684860155939091019290611e2a565b50565b8054821015611e7857600052600c602060002091020190600090565b634e487b7160e01b600052603260045260246000fd5b90600182811c92168015611ebe575b6020831014611ea857565b634e487b7160e01b600052602260045260246000fd5b91607f1691611e9d565b8054600160401b811015610d4c57611ee7906001928382018155611e5c565b9190916123445782519060038210156119105760ff199160ff83855416911617835580830160209182860151948551926001600160401b039586855116916001600160401b031992838254161790558560028401950151805190888211610d4c578790611f548389611447565b01600096875287872086885b84811061232957505050505085600384019801519760ff89511682825416179055856004840198015197885188811161225b57611f9d8254611e8e565b99601f9a8b81116122fd575b5088908b831160011461229e57611fd8929189918361210a575b50508160011b916000199060031b1c19161790565b90555b6005830160408a01519081519089825116858254161790558760068601910151908151918a831161228a5789906120128484611447565b0190885288882087895b84811061226f57505050505086600785019101519160ff83511690825416179055856008840191015180519088821161225b576120598354611e8e565b8a811161222f575b5087908a83116001146121c35782600b959360a0979593612097938b9261210a5750508160011b916000199060031b1c19161790565b90555b60098201908860608c015116908254161790556080890151600a820155019601519283519485116121af576120cf8754611e8e565b868111612179575b5080958511600114612115575050928291612106949261210a5750508160011b916000199060031b1c19161790565b9055565b015190503880611fc3565b8683528083209195919391928591601f19831691905b8883831061215f5750505010612146575b505050811b019055565b015160001960f88460031b161c1916905538808061213c565b85870151885590960195948501948793509081019061212b565b6121a0908885528285208880890160051c820192858a106121a6575b0160051c019061140a565b386120d7565b92508192612195565b634e487b7160e01b83526041600452602483fd5b8388528888208793929091601f1984168a5b8c82821061221957505091600b979593918560a09a98969410612200575b505050811b01905561209a565b015160001960f88460031b161c191690553880806121f3565b8385015186558b979095019493840193016121d5565b612255908489528989208c80860160051c8201928c87106121a6570160051c019061140a565b38612061565b634e487b7160e01b87526041600452602487fd5b83516001600160a01b031683820155928b019289910161201c565b634e487b7160e01b89526041600452602489fd5b8389528989208893929091601f1984168b5b8d8282106122e757505084116122ce575b505050811b019055611fdb565b015160001960f88460031b161c191690553880806122c1565b8385015186558c979095019493840193016122b0565b61232390848a528a8a208d80860160051c8201928d87106121a6570160051c019061140a565b38611fa9565b83516001600160a01b031683820155928a0192889101611f60565b634e487b7160e01b600052600060045260246000fd5b6040519061236782610d31565b6060602083600081520152565b6040519061238182610d31565b8161238a61235a565b8152602061239661235a565b910152565b8051821015611e785760209160051b010190565b906040519182600082546123c281611e8e565b9081845260209460019160018116908160001461243057506001146123f1575b50505061144592500383610d98565b600090815285812095935091905b81831061241857505061144593508201013880806123e2565b855488840185015294850194879450918301916123ff565b9250505061144594925060ff191682840152151560051b8201013880806123e2565b906040519161246083610d31565b60208361246c8361138d565b815261110660036040519461248086610d31565b60ff6002820154168652016123af565b61249a8154611e8e565b90816124a4575050565b81601f600093116001146124b6575055565b9080839182526124d5601f60208420940160051c84016001850161140a565b5555565b600361144591600081556124ef60018201611421565b6000600282015501612490565b600154906001600160401b0390821561289d578282431604600181018091116114885783810293818504149015171561148857600354928261254581861680606086015261159d565b166001600160401b03198095161760035560009281845260209460238652604092838620906002820180541561285e57505060030195865460035460c01c1460001461284f5786549361259785610dd2565b956125a482519788610d98565b858752601f196125b387610dd2565b0183895b8281106128085750505081519860608a018a8110878211176127f45783526125dd6112f3565b8a52838a0196438852838b01988952895b81811061274c5750437f4ecfe3c1ed32ef0a63d3801d51eb20214db90b14dc5fd1ca58a9de54f16f46a68b80a2898255806126d3575b509061262f91611ec8565b8451875260238252862096519183835116908854161787558060018801920151805193841161225b57819061266785859a999a611447565b0191875280872090875b8481106126b85750505050505160028301556003815151939201915b83811061269a5750505050565b806126b26126ab600193855161239b565b5185611ec8565b0161268d565b83516001600160a01b03168382015592810192600101612671565b600c9080600c0290600c82040361273857828b52858b20908101905b8181106126fd575050612624565b808c84925561270e600182016124d9565b61271a600582016124d9565b8c60098201558c600a820155612732600b8201612490565b016126ef565b634e487b7160e01b8b52601160045260248bfd5b6127568184611e5c565b508a519086519061276682610d62565b60ff81541660038110156127e05792826127c4600b8796948f8e60019a976127d999526127948b8401612452565b908601528d6127a560058401612452565b908601526009820154166060850152600a8101546080850152016123af565b60a08201526127d3838361239b565b5261239b565b50016125ee565b634e487b7160e01b8f52602160045260248ffd5b634e487b7160e01b8a52604160045260248afd5b845161281381610d62565b8b815261281e612374565b8382015261282a612374565b868201528b60608201528b6080820152606060a082015282828c0101520184906125b7565b50505050905061144591611ec8565b9291945092611445975060039596506012850361287f575b50505501611ec8565b601254169084541617835561289660018401611dd9565b3880612876565b634e487b7160e01b600052601260045260246000fd5b3d156128de573d906128c482610ffc565b916128d26040519384610d98565b82523d6000602084013e565b606090565b602454811015611e785760246000527f7cd332d19b93bcabe3cce7ca0c18a052f57e5fd03b4758a09f30f5ddc4b22ec40190600090565b6000818152602560205260408120549091908015612a165760001990808201818111612a0257602454908382019182116129ee578181036129a3575b505050602454801561298f5781019061296e826128e3565b909182549160031b1b19169055602455815260256020526040812055600190565b634e487b7160e01b84526031600452602484fd5b6129d86129b26129c1936128e3565b90549060031b1c9283926128e3565b819391549060031b91821b91600019901b19161790565b9055845260256020526040842055388080612956565b634e487b7160e01b86526011600452602486fd5b634e487b7160e01b85526011600452602485fd5b505090565b600081815260256020526040812054612a6857602454600160401b811015611cee579082612a546129c1846001604096016024556128e3565b905560245492815260256020522055600190565b905090565b90612a945750805115612a8257805190602001fd5b604051630a12f52160e11b8152600490fd5b81511580612ac7575b612aa5575090565b604051639996b31560e01b81526001600160a01b039091166004820152602490fd5b50803b15612a9d56fea264697066735822122070ad91aba774a149397d45edaa3b64c97854582a52c892e1a8bc8e400dcdc81a64736f6c63430008170033",
  "linkReferences": {
    "contracts/lib/CrossMsgHelper.sol": {
      "CrossMsgHelper": [
        {
          "length": 20,
          "start": 1268
        },
        {
          "length": 20,
          "start": 2427
        },
        {
          "length": 20,
          "start": 3089
        }
      ]
    },
    "contracts/lib/SubnetIDHelper.sol": {
      "SubnetIDHelper": [
        {
          "length": 20,
          "start": 406
        },
        {
          "length": 20,
          "start": 1812
        },
        {
          "length": 20,
          "start": 2291
        },
        {
          "length": 20,
          "start": 2936
        },
        {
          "length": 20,
          "start": 5614
        },
        {
          "length": 20,
          "start": 6622
        },
        {
          "length": 20,
          "start": 7242
        }
      ]
    }
  },
  "deployedLinkReferences": {
    "contracts/lib/CrossMsgHelper.sol": {
      "CrossMsgHelper": [
        {
          "length": 20,
          "start": 1240
        },
        {
          "length": 20,
          "start": 2399
        },
        {
          "length": 20,
          "start": 3061
        }
      ]
    },
    "contracts/lib/SubnetIDHelper.sol": {
      "SubnetIDHelper": [
        {
          "length": 20,
          "start": 378
        },
        {
          "length": 20,
          "start": 1784
        },
        {
          "length": 20,
          "start": 2263
        },
        {
          "length": 20,
          "start": 2908
        },
        {
          "length": 20,
          "start": 5586
        },
        {
          "length": 20,
          "start": 6594
        },
        {
          "length": 20,
          "start": 7214
        }
      ]
    }
  }
}