{"abi":[{"type":"function","name":"addBootstrapNode","inputs":[{"name":"netAddress","type":"string","internalType":"string"}],"outputs":[],"stateMutability":"nonpayable"},{"type":"function","name":"claim","inputs":[],"outputs":[],"stateMutability":"nonpayable"},{"type":"function","name":"confirmNextChange","inputs":[],"outputs":[],"stateMutability":"nonpayable"},{"type":"function","name":"join","inputs":[{"name":"publicKey","type":"bytes","internalType":"bytes"},{"name":"amount","type":"uint256","internalType":"uint256"},{"name":"storageCommitment","type":"uint256","internalType":"uint256"}],"outputs":[],"stateMutability":"payable"},{"type":"function","name":"kill","inputs":[],"outputs":[],"stateMutability":"nonpayable"},{"type":"function","name":"leave","inputs":[],"outputs":[],"stateMutability":"nonpayable"},{"type":"function","name":"pause","inputs":[],"outputs":[],"stateMutability":"nonpayable"},{"type":"function","name":"paused","inputs":[],"outputs":[{"name":"","type":"bool","internalType":"bool"}],"stateMutability":"view"},{"type":"function","name":"preFund","inputs":[{"name":"amount","type":"uint256","internalType":"uint256"}],"outputs":[],"stateMutability":"payable"},{"type":"function","name":"preRelease","inputs":[{"name":"amount","type":"uint256","internalType":"uint256"}],"outputs":[],"stateMutability":"nonpayable"},{"type":"function","name":"setFederatedPower","inputs":[{"name":"validators","type":"address[]","internalType":"address[]"},{"name":"publicKeys","type":"bytes[]","internalType":"bytes[]"},{"name":"powers","type":"uint256[]","internalType":"uint256[]"}],"outputs":[],"stateMutability":"nonpayable"},{"type":"function","name":"setValidatorGater","inputs":[{"name":"gater","type":"address","internalType":"address"}],"outputs":[],"stateMutability":"nonpayable"},{"type":"function","name":"stake","inputs":[{"name":"amount","type":"uint256","internalType":"uint256"}],"outputs":[],"stateMutability":"payable"},{"type":"function","name":"stakeStorage","inputs":[{"name":"amount","type":"uint256","internalType":"uint256"}],"outputs":[],"stateMutability":"payable"},{"type":"function","name":"submitCheckpoint","inputs":[{"name":"checkpoint","type":"tuple","internalType":"struct BottomUpCheckpoint","components":[{"name":"subnetID","type":"tuple","internalType":"struct SubnetID","components":[{"name":"root","type":"uint64","internalType":"uint64"},{"name":"route","type":"address[]","internalType":"address[]"}]},{"name":"blockHeight","type":"uint256","internalType":"uint256"},{"name":"blockHash","type":"bytes32","internalType":"bytes32"},{"name":"nextConfigurationNumber","type":"uint64","internalType":"uint64"},{"name":"msgs","type":"tuple[]","internalType":"struct IpcEnvelope[]","components":[{"name":"kind","type":"uint8","internalType":"enum IpcMsgKind"},{"name":"to","type":"tuple","internalType":"struct IPCAddress","components":[{"name":"subnetId","type":"tuple","internalType":"struct SubnetID","components":[{"name":"root","type":"uint64","internalType":"uint64"},{"name":"route","type":"address[]","internalType":"address[]"}]},{"name":"rawAddress","type":"tuple","internalType":"struct FvmAddress","components":[{"name":"addrType","type":"uint8","internalType":"uint8"},{"name":"payload","type":"bytes","internalType":"bytes"}]}]},{"name":"from","type":"tuple","internalType":"struct IPCAddress","components":[{"name":"subnetId","type":"tuple","internalType":"struct SubnetID","components":[{"name":"root","type":"uint64","internalType":"uint64"},{"name":"route","type":"address[]","internalType":"address[]"}]},{"name":"rawAddress","type":"tuple","internalType":"struct FvmAddress","components":[{"name":"addrType","type":"uint8","internalType":"uint8"},{"name":"payload","type":"bytes","internalType":"bytes"}]}]},{"name":"nonce","type":"uint64","internalType":"uint64"},{"name":"value","type":"uint256","internalType":"uint256"},{"name":"message","type":"bytes","internalType":"bytes"}]}]},{"name":"signatories","type":"address[]","internalType":"address[]"},{"name":"signatures","type":"bytes[]","internalType":"bytes[]"}],"outputs":[],"stateMutability":"nonpayable"},{"type":"function","name":"unpause","inputs":[],"outputs":[],"stateMutability":"nonpayable"},{"type":"function","name":"unstake","inputs":[{"name":"amount","type":"uint256","internalType":"uint256"}],"outputs":[],"stateMutability":"nonpayable"},{"type":"function","name":"unstakeStorage","inputs":[{"name":"amount","type":"uint256","internalType":"uint256"}],"outputs":[],"stateMutability":"nonpayable"},{"type":"function","name":"validateActiveQuorumSignatures","inputs":[{"name":"signatories","type":"address[]","internalType":"address[]"},{"name":"hash","type":"bytes32","internalType":"bytes32"},{"name":"signatures","type":"bytes[]","internalType":"bytes[]"}],"outputs":[],"stateMutability":"view"},{"type":"event","name":"ActiveValidatorCollateralUpdated","inputs":[{"name":"validator","type":"address","indexed":false,"internalType":"address"},{"name":"newPower","type":"uint256","indexed":false,"internalType":"uint256"}],"anonymous":false},{"type":"event","name":"ActiveValidatorLeft","inputs":[{"name":"validator","type":"address","indexed":false,"internalType":"address"}],"anonymous":false},{"type":"event","name":"ActiveValidatorReplaced","inputs":[{"name":"oldValidator","type":"address","indexed":false,"internalType":"address"},{"name":"newValidator","type":"address","indexed":false,"internalType":"address"}],"anonymous":false},{"type":"event","name":"CollateralClaimed","inputs":[{"name":"validator","type":"address","indexed":false,"internalType":"address"},{"name":"amount","type":"uint256","indexed":false,"internalType":"uint256"}],"anonymous":false},{"type":"event","name":"ConfigurationNumberConfirmed","inputs":[{"name":"number","type":"uint64","indexed":false,"internalType":"uint64"}],"anonymous":false},{"type":"event","name":"NewActiveValidator","inputs":[{"name":"validator","type":"address","indexed":false,"internalType":"address"},{"name":"power","type":"uint256","indexed":false,"internalType":"uint256"}],"anonymous":false},{"type":"event","name":"NewCollateralRelease","inputs":[{"name":"validator","type":"address","indexed":false,"internalType":"address"},{"name":"amount","type":"uint256","indexed":false,"internalType":"uint256"},{"name":"releaseBlock","type":"uint256","indexed":false,"internalType":"uint256"}],"anonymous":false},{"type":"event","name":"NewStakingChangeRequest","inputs":[{"name":"op","type":"uint8","indexed":false,"internalType":"enum StakingOperation"},{"name":"validator","type":"address","indexed":false,"internalType":"address"},{"name":"payload","type":"bytes","indexed":false,"internalType":"bytes"},{"name":"configurationNumber","type":"uint64","indexed":false,"internalType":"uint64"}],"anonymous":false},{"type":"event","name":"NewWaitingValidator","inputs":[{"name":"validator","type":"address","indexed":false,"internalType":"address"},{"name":"power","type":"uint256","indexed":false,"internalType":"uint256"}],"anonymous":false},{"type":"event","name":"Paused","inputs":[{"name":"account","type":"address","indexed":false,"internalType":"address"}],"anonymous":false},{"type":"event","name":"SubnetBootstrapped","inputs":[{"name":"","type":"tuple[]","indexed":false,"internalType":"struct Validator[]","components":[{"name":"weight","type":"uint256","internalType":"uint256"},{"name":"addr","type":"address","internalType":"address"},{"name":"metadata","type":"bytes","internalType":"bytes"},{"name":"storageAmount","type":"uint256","internalType":"uint256"}]}],"anonymous":false},{"type":"event","name":"Unpaused","inputs":[{"name":"account","type":"address","indexed":false,"internalType":"address"}],"anonymous":false},{"type":"event","name":"WaitingValidatorCollateralUpdated","inputs":[{"name":"validator","type":"address","indexed":false,"internalType":"address"},{"name":"newPower","type":"uint256","indexed":false,"internalType":"uint256"}],"anonymous":false},{"type":"event","name":"WaitingValidatorLeft","inputs":[{"name":"validator","type":"address","indexed":false,"internalType":"address"}],"anonymous":false},{"type":"error","name":"AddressEmptyCode","inputs":[{"name":"target","type":"address","internalType":"address"}]},{"type":"error","name":"AddressInsufficientBalance","inputs":[{"name":"account","type":"address","internalType":"address"}]},{"type":"error","name":"AddressShouldBeValidator","inputs":[]},{"type":"error","name":"BottomUpCheckpointAlreadySubmitted","inputs":[]},{"type":"error","name":"CannotConfirmFutureChanges","inputs":[]},{"type":"error","name":"CannotReleaseZero","inputs":[]},{"type":"error","name":"CannotSubmitFutureCheckpoint","inputs":[]},{"type":"error","name":"CollateralIsZero","inputs":[]},{"type":"error","name":"DuplicatedGenesisValidator","inputs":[]},{"type":"error","name":"EmptyAddress","inputs":[]},{"type":"error","name":"EnforcedPause","inputs":[]},{"type":"error","name":"ExpectedPause","inputs":[]},{"type":"error","name":"FailedInnerCall","inputs":[]},{"type":"error","name":"InvalidCheckpointEpoch","inputs":[]},{"type":"error","name":"InvalidFederationPayload","inputs":[]},{"type":"error","name":"InvalidPublicKeyLength","inputs":[]},{"type":"error","name":"InvalidSignatureErr","inputs":[{"name":"","type":"uint8","internalType":"uint8"}]},{"type":"error","name":"MaxMsgsPerBatchExceeded","inputs":[]},{"type":"error","name":"MethodNotAllowed","inputs":[{"name":"reason","type":"string","internalType":"string"}]},{"type":"error","name":"NoCollateralToWithdraw","inputs":[]},{"type":"error","name":"NotAllValidatorsHaveLeft","inputs":[]},{"type":"error","name":"NotEnoughBalance","inputs":[]},{"type":"error","name":"NotEnoughCollateral","inputs":[]},{"type":"error","name":"NotEnoughCollateralForStorageAmount","inputs":[]},{"type":"error","name":"NotEnoughFunds","inputs":[]},{"type":"error","name":"NotEnoughGenesisValidators","inputs":[]},{"type":"error","name":"NotEnoughStorageCommitment","inputs":[]},{"type":"error","name":"NotOwner","inputs":[]},{"type":"error","name":"NotOwnerOfPublicKey","inputs":[]},{"type":"error","name":"NotValidator","inputs":[{"name":"","type":"address","internalType":"address"}]},{"type":"error","name":"PQDoesNotContainAddress","inputs":[]},{"type":"error","name":"PQEmpty","inputs":[]},{"type":"error","name":"ReentrancyError","inputs":[]},{"type":"error","name":"SafeERC20FailedOperation","inputs":[{"name":"token","type":"address","internalType":"address"}]},{"type":"error","name":"SubnetAlreadyBootstrapped","inputs":[]},{"type":"error","name":"SubnetAlreadyKilled","inputs":[]},{"type":"error","name":"SubnetNotBootstrapped","inputs":[]},{"type":"error","name":"WithdrawExceedingCollateral","inputs":[]}],"bytecode":{"object":"0x60808060405234601557615fa2908161001b8239f35b600080fdfe60a0604052600436101561001257600080fd5b60006080526080513560e01c806310fd426114611e5c5780631ddee554146119e95780632e17de78146118065780633f4ba83a1461177c57806341c0e1b5146116c15780634d9013a1146116005780634e71d92d1461143d5780634f9a27e8146113e85780635c975abb146113b757806366783c9b1461129b578063724274941461120757806379979f5714610a8c5780638456cb5914610a13578063a694fc3a146108e2578063c7ebdaef14610891578063cc2dc2b914610812578063d66d9e1914610794578063da5d09ee1461014f5763dcda8973146100f357600080fd5b34610149576020366003190112610149576004356001600160a01b0381169081900361014957610121612d37565b610129613e87565b6bffffffffffffffffffffffff60a01b6021541617602155608051608051f35b60805180fd5b34610149576060366003190112610149576004356001600160401b0381116101495761017f903690600401612096565b6024356001600160401b0381116101495761019e903690600401612096565b6044356001600160401b038111610149576101bd903690600401612096565b6101c8959195612d37565b6101d0613e87565b600b5460019060ff166101e2816125b3565b0361076457808503610751578285036107515760055460f81c156104f25761020f81878785989698614f6f565b608051600093905b81811061022d5750505050505050505b60805180f35b61024161023b82898961489b565b90614955565b6001600160a01b0361025c6102578486896148b6565b612882565b166001600160a01b03909116036104df5780866102cb8561029c84610294818f988f9061025761028e918f8e906148b6565b9761489b565b9390976148b6565b356102b76040519687936040602086015260608501916125ee565b90604083015203601f198101855284612023565b608051506001600160401b03601554169260405191886102ea84612008565b6104385760038352602083019082825260018060a01b0316928360408201526080515085608051526016602052604060805120918151610329816129a4565b610332816129a4565b60ff801985541691161783556001830190518051906001600160401b0382116104c7576103698261036385546121c0565b85612211565b6020906001601f8411146104595791806103a09260029695946080519261044e575b50508160011b916000199060031b1c19161790565b90555b60400151910180546001600160a01b0319166001600160a01b03929092169190911790556001600160401b036103d885614180565b166001600160401b03196015541617601555604051908860805150610438576001946104298392600080516020615f0d8339815191529560038552602085015260806040850152608084019061297f565b9060608301520390a101610217565b634e487b7160e01b600052602160045260246000fd5b01519050388061038b565b90601f1983169184608051528160805120926080515b8181106104af575091600193918560029897969410610496575b505050811b0190556103a3565b015160001960f88460031b161c19169055388080610489565b9293602060018192878601518155019501930161046f565b634e487b7160e01b6080515260416004526024608051fd5b634be9251d60e11b608051526004608051fd5b946001600160401b036006949394541685111561073e5761051586828785614f6f565b6080515b85811061062c575050600580546001600160f81b0316600160f81b17905550506040517f429d165d6b6555ff1fd586b9aeb68cb9499a92aa606cf0e2b9a5edf27b12202a9350915081905061056d81613511565b0390a1608051546105bb6105958261058361228f565b6005546001600160a01b031690614bdd565b6105b56105a0612258565b6080519060018060a01b036005541690614bdd565b90612332565b9060018060a01b036005541690813b1561014957604460405180948193630d66d6c160e41b835260048301526080516024830152608051945af1801561061f57610606575b50610227565b60805161061291612023565b6080516101495780610600565b6040513d608051823e3d90fd5b61063a61023b82878761489b565b6001600160a01b03610650610257848a886148b6565b166001600160a01b03909116036104df576106776106726102578389876148b6565b614dd8565b61072b57806106a061068f6102576001948a886148b6565b61069a83898961489b565b9161311b565b6106c36106b1610257838a886148b6565b6106bc838b876148b6565b3590614d8e565b6107256106d4610257838a886148b6565b6107136106e2848c886148b6565b35916106ef858b8b61489b565b9091604051946106fe86611fed565b8552878060a01b03166020850152369161205f565b6040820152608051606082015261326e565b01610519565b630472b35360e41b608051526004608051fd5b63031480b160e51b608051526004608051fd5b637e65935960e01b608051526004608051fd5b61079061076f613684565b60405163015538b160e01b815260206004820152918291602483019061297f565b0390fd5b3461014957608051366003190112610149576001600080516020615f4d83398151915254146107ff576001600080516020615f4d833981519152556107d7612d0d565b6107df612d37565b6107e7612b28565b608051600080516020615f4d83398151915281905580f35b6329f745a760e01b608051526004608051fd5b34610149576060366003190112610149576004356001600160401b0381116101495736602382011215610149576108539036906024816004013591016120f1565b604435906001600160401b038211610149573660238301121561014957610887610227923690602481600401359101612145565b90602435906129ae565b3461014957608051366003190112610149576000196001600160401b0360155416016001600160401b0381116108ca576102279061419e565b634e487b7160e01b6080515260116004526024608051fd5b6020366003190112610149576004356108f9612d0d565b610901612d37565b6109096136f3565b8015610a0057336000908152600d60205260409020600201541561098c57336000908152600d6020526040902061094f90600201546109488382612332565b9033613adf565b6109608161095b612258565b612d57565b5060055460f81c61097d5761097590336133e7565b6102276135a5565b6109879033612f2c565b610227565b6040516107909061099e606082612023565b602e81527f4d6574686f64206e6f7420616c6c6f7765642069662076616c696461746f722060208201526d1a185cc81b9bdd081a9bda5b995960921b604082015260405191829163015538b160e01b835260206004840152602483019061297f565b635a78c58160e11b608051526004608051fd5b346101495760805136600319011261014957610a2d613e87565b610a35612d0d565b600160ff19600080516020615f2d833981519152541617600080516020615f2d833981519152557f62e78cea01bee320cd4e420270b5ea74000d11b0c9f74754ebdbfc544b05a2586020604051338152a160805180f35b34610149576060366003190112610149576004356001600160401b038111610149578060040160a06003198336030112610149576024356001600160401b03811161014957610adf903690600401612096565b90604435916001600160401b03831161014957610b55610b4d92610b0a610b5b953690600401612096565b949091610b15612d0d565b610b1e88613fd1565b6040516020810190610b4281610b348c85612678565b03601f198101835282612023565b5190209436916120f1565b933691612145565b916129ae565b60248201358060805152601d60205260406080512092610b7b83806127dd565b6001600160401b03610b8c826127f2565b166001600160401b0319865416178555610bae60018601916020810190612806565b91906001600160401b0383116104c757610bc8838361284e565b90608051526020608051206080515b8381106111ec575050505081600285015560448101356003850155610c2d608460056064840196610c07886127f2565b6001600160401b036004830191166001600160401b031982541617905501920184612806565b91600160401b83116104c7578054838255808410611171575b508192919060805152602060805120906080519360be1981360301915b848610610ce357600187905560055489906001600160a01b031689813b1561014957604051809263fba0fa4d60e01b82528180610ca66080519560048301612678565b0391608051905af1801561061f57610cca575b610227610cc5836127f2565b61419e565b608051610cd691612023565b6080516101495781610cb9565b8035838112156101495782018035600381101561014957610d03816125b3565b60ff80198754169116178555610d1c60208201826127dd565b610d2681806127dd565b610d2f816127f2565b6001600160401b036001890191166001600160401b0319825416179055610d5e60028801916020810190612806565b91906001600160401b0383116104c757610d78838361284e565b90608051526020608051206080515b8381106111565750505050610da4600387019160208101906127dd565b90813560ff81168091036101495760ff19825416179055610dcd6004870191602081019061292a565b906001600160401b0382116104c757610dea8261036385546121c0565b60805190601f83116001146110eb57918091610e1d936080519261105a5750508160011b916000199060031b1c19161790565b90555b610e2d60408201826127dd565b610e3781806127dd565b610e40816127f2565b6001600160401b036005890191166001600160401b0319825416179055610e6f60068801916020810190612806565b91906001600160401b0383116104c757610e89838361284e565b90608051526020608051206080515b8381106110d05750505050610eb5600787019160208101906127dd565b90813560ff81168091036101495760ff19825416179055610ede6008870191602081019061292a565b906001600160401b0382116104c757610efb8261036385546121c0565b60805190601f831160011461106557918091610f2e936080519261105a5750508160011b916000199060031b1c19161790565b90555b610f3d606082016127f2565b6001600160401b036009870191166001600160401b03198254161790556080810135600a860155610f76600b86019160a081019061292a565b906001600160401b0382116104c757610f938261036385546121c0565b60805190601f8311600114610fe85792610fce8360209460019794600c9760805192610fdd5750508160011b916000199060031b1c19161790565b90555b01940195019492610c63565b01359050388061038b565b601f198316918460805152602060805120926080515b81811061104257509360019693600c969388938360209810611028575b505050811b019055610fd1565b0135600019600384901b60f8161c191690558f808061101b565b91936020600181928787013581550195019201610ffe565b013590508e8061038b565b601f198316918460805152602060805120926080515b8181106110b8575090846001959493921061109e575b505050811b019055610f31565b0135600019600384901b60f8161c191690558d8080611091565b9193602060018192878701358155019501920161107b565b60019060206110de85612882565b9401938184015501610e98565b601f198316918460805152602060805120926080515b81811061113e5750908460019594939210611124575b505050811b019055610e20565b0135600019600384901b60f8161c191690558d8080611117565b91936020600181928787013581550195019201611101565b600190602061116485612882565b9401938184015501610d87565b80600c0290600c8204036108ca5783600c02600c810485036108ca57826080515260206080512091820191015b8181106111ab5750610c46565b600c9060805181556111bf600182016128e5565b6111cb600582016128e5565b60805160098201819055600a8201556111e6600b8201612896565b0161119e565b60019060206111fa85612882565b9401938184015501610bd7565b60203660031901126101495761121b612d0d565b611223612d37565b60055460f81c73__$903f19875093401f8d119fd5a50910a076$__803b1561014957604051916303ab60fb60e61b835260043560048401523460248401521515604483015281606481608051935af4801561061f576112825760805180f35b60805161128e91612023565b6080516101495780610227565b34610149576020366003190112610149576004356001600080516020615f4d83398151915254146107ff576001600080516020615f4d8339815191525580156113a45760055460f81c611391576112fb816112f461228f565b3390613d6f565b50503360805152601f60205280604060805120541061137e5761133e903360805152601f6020526040608051206113338282546122c6565b9055608051546122c6565b608051553360805152601f602052604060805120541561137057608051600080516020615f4d83398151915281905580f35b61137933613ef5565b6107e7565b63569d45cf60e11b608051526004608051fd5b631b39f2f360e11b608051526004608051fd5b631036b5ad60e31b608051526004608051fd5b346101495760805136600319011261014957602060ff600080516020615f2d83398151915254166040519015158152f35b34610149576020366003190112610149576001600080516020615f4d83398151915254146107ff576001600080516020615f4d8339815191525561142a612d0d565b611432612d37565b6107e760043561233f565b3461014957608051366003190112610149576001600080516020615f4d83398151915254146107ff576001600080516020615f4d83398151915255611480612d0d565b33600090815260186020526040902080549061ffff82169182156115ed5760805160018301939092909160101c61ffff16825b8061ffff83161061156a575b50815463ffffffff191660109190911b63ffff0000161761ffff92909216918217905590915015611552575b60408051338152602081018390527f197c586353eaed0a1c53e6e540445b94befab8f932c8115d112115ecbeeed5149190a18061153a57608051600080516020615f4d83398151915281905580f35b61154c9033611547612258565b613d6f565b506107e7565b608051336000908152601860205260409020556114eb565b9290936020906040600061ffff881681528884522060405161158b81611fbc565b60018254928383520154938491015243106115e45760016115b061ffff938493612332565b828816600090815260208a9052604090206080518082559083015596600019909401929092169491909201909116906114b3565b949193506114bf565b6364b0557f60e01b608051526004608051fd5b60203660031901126101495760043580156113a45760055460f81c6113915761162b8161095b61228f565b503360805152601f6020526040608051205415611676575b61166d903360805152601f602052604060805120611662828254612332565b905560805154612332565b60805190815580f35b60205490600160401b8210156104c7576116ba61169c83600161166d95016020556122e9565b81546001600160a01b0360039290921b91821b19163390911b179055565b9050611643565b3461014957608051366003190112610149576116db612d37565b61ffff6116f1816011541682600e541690613edf565b16611769576005548060f81c15611756576006805468ff00000000000000001916600160401b1790556001600160a01b0316803b1561014957604051906341c0e1b560e01b82528160048160805193608051905af1801561061f576112825760805180f35b63dfd06d8f60e01b608051526004608051fd5b636b62255160e11b608051526004608051fd5b346101495760805136600319011261014957611796613e87565b600080516020615f2d8339815191525460ff8116156117f35760ff1916600080516020615f2d833981519152557f5db9ee0a495bf2e6ff9c91a7834c1ba4fdd244a5e8aa4e537bd38aeae4b073aa6020604051338152a160805180f35b638dfc202b60e01b608051526004608051fd5b34610149576020366003190112610149576004356001600080516020615f4d83398151915254146107ff576001600080516020615f4d8339815191525561184b612d0d565b611853612d37565b80156119d657336000908152600d6020526040902060020154156119bf576118796136f3565b336000908152600d6020526040902060020154604051631886157b60e01b815233600482015260208160248173__$58801a7a4e78cbbcd9d24532392b6c9267$__5af490811561061f5760805191611988575b5082821115611976576118df83836122c6565b906118ec6019548261283b565b901515918261196c575b505061195957806109488361190a936122c6565b60055460f81c61194f57806119226119359233614a06565b61192c8133614a82565b33611547612258565b5050608051600080516020615f4d83398151915281905580f35b6113799033613b96565b63164fc4b360e11b608051526004608051fd5b10905083806118f6565b62d11df360e61b608051526004608051fd5b90506020813d6020116119b7575b816119a360209383612023565b810103126119b25751836118cc565b600080fd5b3d9150611996565b633b4f6e2b60e21b60805152336004526024608051fd5b63c79cad7b60e01b608051526004608051fd5b6060366003190112610149576004356001600160401b0381116101495736602382011215610149578060040135906001600160401b038211610149576024810190602483369201011161014957602435604435916001600080516020615f4d83398151915254146107ff576001600080516020615f4d83398151915255611a6e612d0d565b611a76612d37565b60055460f81c611e4f575b8115610a0057336000908152600d6020526040902060020154611dd75760418403611dc457336001600160a01b03611ab98684614955565b16036104df57611ac98233613960565b611ad58261095b612258565b5060055460f81c611b6757611af59293611aef913361311b565b336133e7565b73__$26f40b5d0ea586b7f80823d45b7ee0265b$__90813b1561014957604051632477197560e21b8152608051336004830152602482019290925291829060449082905af4801561061f57611b4e575b506107e76135a5565b608051611b5a91612023565b6080516101495780611b45565b611b7236858361205f565b93608051506001600160401b0360155416604051611b8f81612008565b60028152602081019687526040810133815260805150826080515260166020526040608051209151611bc0816129a4565b611bc9816129a4565b60ff801984541691161782556001820197519788516001600160401b0381116104c757611c0081611bfa84546121c0565b84612211565b60206001601f831114611d405791611c4c82600080516020615f0d833981519152999897969593600295611cce9d9e60805192611d355750508160011b916000199060031b1c19161790565b90555b51910180546001600160a01b0319166001600160a01b03929092169190911790556001600160401b03611c8182614180565b166001600160401b03196015541617601555611cbf6040519384936080515060805150600285523360208601526080604086015260808501916125ee565b9060608301520390a133612f2c565b73__$26f40b5d0ea586b7f80823d45b7ee0265b$__90813b1561014957604051638ddb52fb60e01b8152608051336004830152602482019290925291829060449082905af4801561061f57611d2357506107e7565b608051611d2f91612023565b8061154c565b015190508e8061038b565b601f1982169a836080515281608051209b6080515b818110611dac575092611cce9b9c6002959360019383600080516020615f0d8339815191529d9c9b9a999710611d93575b505050811b019055611c4f565b015160001960f88460031b161c191690558d8080611d86565b838301518e556001909d019c60209384019301611d55565b6318dca5e960e21b608051526004608051fd5b60405161079090611de9606082612023565b603281527f4d6574686f64206e6f7420616c6c6f7765642069662076616c696461746f72206020820152711a185cc8185b1c9958591e481a9bda5b995960721b604082015260405191829163015538b160e01b835260206004840152602483019061297f565b611e576136f3565b611a81565b34610149576020366003190112610149576004356001600160401b038111610149573660238201121561014957611e9d90369060248160040135910161205f565b611ea5612d0d565b336000908152600f602052604090205461ffff16156119bf57805115611fa9573360805152601a60205260406080512081516001600160401b0381116104c757611ef381611bfa84546121c0565b6020926001601f831114611f4357611f259293829160805192611f385750508160011b916000199060031b1c19161790565b90555b611f31336148c6565b5060805180f35b01519050848061038b565b601f1982169383608051528060805120916080515b868110611f915750836001959610611f78575b505050811b019055611f28565b015160001960f88460031b161c19169055838080611f6b565b91926020600181928685015181550194019201611f58565b637138356f60e01b608051526004608051fd5b604081019081106001600160401b03821117611fd757604052565b634e487b7160e01b600052604160045260246000fd5b608081019081106001600160401b03821117611fd757604052565b606081019081106001600160401b03821117611fd757604052565b90601f801991011681019081106001600160401b03821117611fd757604052565b6001600160401b038111611fd757601f01601f191660200190565b92919261206b82612044565b916120796040519384612023565b8294818452818301116119b2578281602093846000960137010152565b9181601f840112156119b2578235916001600160401b0383116119b2576020808501948460051b0101116119b257565b6001600160401b038111611fd75760051b60200190565b35906001600160a01b03821682036119b257565b9291906120fd816120c6565b9361210b6040519586612023565b602085838152019160051b81019283116119b257905b82821061212d57505050565b6020809161213a846120dd565b815201910190612121565b929192612151826120c6565b9361215f6040519586612023565b602085848152019260051b8201918183116119b25780935b838510612185575050505050565b84356001600160401b0381116119b257820183601f820112156119b2576020916121b5858385809535910161205f565b815201940193612177565b90600182811c921680156121f0575b60208310146121da57565b634e487b7160e01b600052602260045260246000fd5b91607f16916121cf565b818110612205575050565b600081556001016121fa565b9190601f811161222057505050565b61224c926000526020600020906020601f840160051c8301931061224e575b601f0160051c01906121fa565b565b909150819061223f565b6040519061226582611fbc565b8160085460ff81169060028210156104385790825260081c6001600160a01b031660209190910152565b6040519061229c82611fbc565b8160075460ff81169060028210156104385790825260081c6001600160a01b031660209190910152565b919082039182116122d357565b634e487b7160e01b600052601160045260246000fd5b60205481101561230457602060005260206000200190600090565b634e487b7160e01b600052603260045260246000fd5b80548210156123045760005260206000200190600090565b919082018092116122d357565b6123476136f3565b60009080156124db57604051631886157b60e01b815233600482015260208160248173__$58801a7a4e78cbbcd9d24532392b6c9267$__5af49081156124d057839161249e575b50801561248b5781101561247c5760055460f81c1561241b5773__$26f40b5d0ea586b7f80823d45b7ee0265b$__803b156124175760405163071bfc3160e11b815233600482015260248101929092528290829060449082905af4801561240c576123f7575050565b612402828092612023565b6124095750565b80fd5b6040513d84823e3d90fd5b8280fd5b73__$26f40b5d0ea586b7f80823d45b7ee0265b$__803b1561241757604051637964e08160e11b81523360048201526024810192909252829082908180604481015b03915af4801561240c5761246f575050565b8161247991612023565b50565b631871c2dd60e01b8252600482fd5b633b4f6e2b60e21b835233600452602483fd5b90506020813d6020116124c8575b816124b960209383612023565b8101031261241757513861238e565b3d91506124ac565b6040513d85823e3d90fd5b63c79cad7b60e01b8252600482fd5b9035603e19823603018112156119b2570190565b35906001600160401b03821682036119b257565b9035601e19823603018112156119b25701602081359101916001600160401b0382116119b2578160051b360383136119b257565b90606061256f60408301936001600160401b03612562826124fe565b1684526020810190612512565b604060208501529384905291019160005b81811061258d5750505090565b909192602080600192838060a01b036125a5886120dd565b168152019401929101612580565b6003111561043857565b9035601e19823603018112156119b25701602081359101916001600160401b0382116119b25781360383136119b257565b908060209392818452848401376000828201840152601f01601f1916010190565b61263861262d61261f83806124ea565b604085526040850190612546565b9160208101906124ea565b91602081830391015281359160ff83168093036119b25761266560409161267594845260208101906125bd565b91909281602082015201916125ee565b90565b602081526126d661269d61268c84806124ea565b60a0602085015260c0840190612546565b9260208101356040840152604081013560608401526001600160401b036126c6606083016124fe565b1660808401526080810190612512565b909160a0601f1982860301910152808352602083019060208160051b850101938360009160be1982360301905b848410612714575050505050505090565b90919293949596601f198282030187528735838112156119b257840180359160038310156119b2576127ce6020928392856127506001976125b3565b81526127c0612791612777612767878601866124ea565b60c08886015260c085019061260f565b61278460408601866124ea565b848203604086015261260f565b926001600160401b036127a6606083016124fe565b1660608401526080810135608084015260a08101906125bd565b9160a08185039101526125ee565b99019701959401929190612703565b903590603e19813603018212156119b2570190565b356001600160401b03811681036119b25790565b903590601e19813603018212156119b257018035906001600160401b0382116119b257602001918160051b360383136119b257565b818102929181159184041417156122d357565b90600160401b8111611fd75781549080835581811061286c57505050565b61224c92600052602060002091820191016121fa565b356001600160a01b03811681036119b25790565b6128a081546121c0565b90816128aa575050565b81601f600093116001146128bc575055565b818352602083206128d891601f0160051c8101906001016121fa565b8082528160208120915555565b600361224c9160008155600181018054600082558061290e575b50506000600282015501612896565b612923916000526020600020908101906121fa565b38806128ff565b903590601e19813603018212156119b257018035906001600160401b0382116119b2576020019181360383136119b257565b60005b83811061296f5750506000910152565b818101518382015260200161295f565b906020916129988151809281855285808601910161295c565b601f01601f1916010190565b6006111561043857565b9091928151936129bd856120c6565b946129cb6040519687612023565b808652601f196129da826120c6565b0136602088013760005b818110612a9257505060009361ffff600e5416936001955b61ffff8716868111612a3e5760009081526010602052604090205461ffff91600191612a3591906105b5906001600160a01b0316614dd8565b970116956129fc565b50612a689650606491939550612a61909792949760ff60055460e01c169061283b565b0491614799565b9015612a715750565b80612a7d60ff926129a4565b63282ef1c160e01b6000521660045260246000fd5b612aca6001600160a01b03612aa78388614785565b51166001600160a01b03166000908152600f602052604090205461ffff16151590565b15612aff57600190612aee6001600160a01b03612ae78389614785565b5116614dd8565b612af8828a614785565b52016129e4565b6001600160a01b0390612b129086614785565b5116633b4f6e2b60e21b60005260045260246000fd5b60055460009060f81c612d00575b336000908152600d6020526040902060020154604051631886157b60e01b81523360048201529060208260248173__$58801a7a4e78cbbcd9d24532392b6c9267$__5af49182156124d0578392612ccc575b5080158015612cc4575b61248b57612ba08133613a3d565b612ba933614eb4565b50338352601a6020528260408120612bc181546121c0565b80612c82575b50505060055460f81c15612c2557612bdf9033613b96565b73__$26f40b5d0ea586b7f80823d45b7ee0265b$__803b156124175760405163071bfc3160e11b815233600482015260248101929092528290829081806044810161245d565b612c4c90612c5693338152601f602052604081205480612c5b575b50506119228133614a06565b50506014546122c6565b601455565b612c7d91338152601f602052612c728282546122c6565b905561192c33613ef5565b612c40565b601f8111600114612c985750555b823880612bc7565b81835260208320612cb491601f0160051c8101906001016121fa565b8082528160208120915555612c90565b508115612b92565b9091506020813d602011612cf8575b81612ce860209383612023565b8101031261241757519038612b88565b3d9150612cdb565b612d086136f3565b612b36565b60ff600080516020615f2d8339815191525416612d2657565b63d93c066560e01b60005260046000fd5b60ff60065460401c16612d4657565b63248c8efb60e11b60005260046000fd5b90815191600283101561043857600092600103612ee5576020908101516040516370a0823160e01b8152306004820152926001600160a01b039091169183602481855afa928315612eda578493612ea1575b50602491612de8602092604051906323b872dd60e01b858301523386830152306044830152606482015260648152612de2608482612023565b826150af565b6040516370a0823160e01b815230600482015292839182905afa928315612e95578093612e5e575b505080821115612e2357612675916122c6565b60405162461bcd60e51b81526020600482015260136024820152724e6f2062616c616e636520696e63726561736560681b6044820152606490fd5b909192506020823d602011612e8d575b81612e7b60209383612023565b81010312612409575051903880612e10565b3d9150612e6e565b604051903d90823e3d90fd5b9092506020813d602011612ed2575b81612ebd60209383612023565b81010312612ece5751916024612da9565b8380fd5b3d9150612eb0565b6040513d86823e3d90fd5b508091503410612ef25790565b60405162461bcd60e51b8152602060048201526012602482015271496e73756666696369656e742066756e647360701b6044820152606490fd5b91906040519281602085015260208452612f47604085612023565b6001600160401b036015541660405194612f6086612008565b6000865260208601958187526040810160018060a01b03851697888252604060008681526016602052209251612f95816129a4565b612f9e816129a4565b60ff801985541691161783556001830190518051906001600160401b038211611fd757612fcf8261036385546121c0565b602090601f83116001146130b057918061300492600296959460009261044e5750508160011b916000199060031b1c19161790565b90555b51910180546001600160a01b0319166001600160a01b03929092169190911790556001600160401b0361303983614180565b166001600160401b03196015541617601555604051956000600681101561309c579261308e88938493600080516020615f0d8339815191529661224c9a9b52602085015260806040850152608084019061297f565b9060608301520390a1614991565b634e487b7160e01b81526021600452602490fd5b90601f1983169184600052816000209260005b8181106131035750916001939185600298979694106130ea575b505050811b019055613007565b015160001960f88460031b161c191690553880806130dd565b929360206001819287860151815501950193016130c3565b6001600160a01b03166000908152600d6020526040902090929190600301906001600160401b038111611fd75761315681611bfa84546121c0565b6000601f821160011461318b578190613187939495600092610fdd5750508160011b916000199060031b1c19161790565b9055565b601f198216948382526020822091805b8781106131d35750836001959697106131b9575b505050811b019055565b0135600019600384901b60f8161c191690553880806131af565b9092602060018192868601358155019401910161319b565b600092918154916131fb836121c0565b8083529260018116908115613251575060011461321757505050565b60009081526020812093945091925b838310613237575060209250010190565b600181602092949394548385870101520191019190613226565b915050602093945060ff929192191683830152151560051b010190565b601e54600160401b811015611fd75760018101601e556000601e548210156133d357601e905260021b7f50bb669a95c7b50b7e8a6f09454034b2b14cf2b85c730dca9a539ca82cb6e350019060008151835560208201516001840180546001600160a01b0319166001600160a01b039290921691909117905560408201518051600285019290916001600160401b0383116133bf576133178361331186546121c0565b86612211565b602091601f84116001146133575792806060959361334d93600398969261044e5750508160011b916000199060031b1c19161790565b90555b0151910155565b9190601f198416858452828420935b8181106133a7575092600192859260039896606098961061338f575b505050811b019055613350565b015160001983891b60f8161c19169055388080613382565b92936020600181928786015181550195019301613366565b634e487b7160e01b82526041600452602482fd5b634e487b7160e01b81526032600452602490fd5b906133fc906133f68184614991565b826149b4565b60055460f81c1561340a5750565b601e5460009080825b8281106134b3575b505050156134265750565b8061349b6134a2600161344e61224c9560018060a01b0316600052600d602052604060002090565b015492600361346f8260018060a01b0316600052600d602052604060002090565b01906040519461347e86611fed565b85526001600160a01b0316602085015260405192839182906131eb565b0382612023565b60408201526000606082015261326e565b6000828210156133d357601e90527f50bb669a95c7b50b7e8a6f09454034b2b14cf2b85c730dca9a539ca82cb6e351600282901b01546001600160a01b0386811691161461350357600101613413565b50505050600138808061341b565b6020810160208252601e54809152604082019060408160051b84010192601e6000526020600020926000915b83831061354c57505050505090565b909192939460206004600192603f1985820301865288548152838060a01b03848a015416838201526080604082015261358b6080820160028b016131eb565b90606060038b01549101529701930193019193929061353d565b600c546002548110156135b55750565b61ffff600e54166001600160401b036006541611156135d15750565b600580546001600160f81b0316600160f81b1790556040517f429d165d6b6555ff1fd586b9aeb68cb9499a92aa606cf0e2b9a5edf27b12202a908061361581613511565b0390a160009081549061363961362d8361058361228f565b6105b583610583612258565b6005546001600160a01b03169290833b15613680578492916044916040519586948593630d66d6c160e41b8552600485015260248401525af1801561240c5761246f575050565b8480fd5b60405190613693608083612023565b6045825264185c1c195960da1b6060837f4d6574686f64206e6f7420616c6c6f776564206966207065726d697373696f6e60208201527f656420697320656e61626c656420616e64207375626e657420626f6f7473747260408201520152565b60ff600b5416613702816125b3565b61076457565b6040519061371582611fbc565b6009546001600160401b03168252604051600a805480835260009182528491839160208301917fc65a7bb8d6351c1cf70c95a316cc6a92839c986682d98bc35f958f4883f9d2a891905b81811061377c5750505060209291613778910384612023565b0152565b82546001600160a01b031684528694506020909301926001928301920161375f565b6020818303126119b2578051906001600160401b0382116119b25701906040828203126119b257604051916137d283611fbc565b80516001600160401b03811681036119b25783526020810151906001600160401b0382116119b257019080601f830112156119b257815190613813826120c6565b926138216040519485612023565b82845260208085019360051b8201019182116119b257602001915b81831061384e57505050602082015290565b82516001600160a01b03811681036119b25781526020928301920161383c565b9092919260408252602060808301916001600160401b0381511660408501520151604060608401528051809252602060a0840191019160005b8181106138c2575050602091509360018060a01b0316910152565b83516001600160a01b03168352602093840193909201916001016138a7565b919493929060808352602060c08401916001600160401b038151166080860152015190604060a08501528151809152602060e0850192019060005b818110613941575050506001600160a01b039095166020830152604082015260600152565b82516001600160a01b031684526020938401939092019160010161391c565b60215460009291906001600160a01b031615613a385761399f9083613983613708565b6040518094819263aa5106cb60e01b835230906004840161386e565b038173__$3fbe32418a9ca7804328967972fb037388$__5af4918215612eda578492613a14575b506021546001600160a01b031691823b156136805791849291838093613a02604051978896879586946307fa355f60e51b8652600486016138e1565b03925af1801561240c5761246f575050565b613a319192503d8086833e613a298183612023565b81019061379e565b90386139c6565b505050565b60215460009291906001600160a01b031615613a3857613a609083613983613708565b038173__$3fbe32418a9ca7804328967972fb037388$__5af4918215612eda578492613ac3575b506021546001600160a01b031691823b156136805791849391848094613a02604051978896879586946307fa355f60e51b8652600486016138e1565b613ad89192503d8086833e613a298183612023565b9038613a87565b6021546000939291906001600160a01b031615613b9057613b039084613983613708565b038173__$3fbe32418a9ca7804328967972fb037388$__5af4918215613b85578592613b69575b506021546001600160a01b031691823b15613b6557908580949392613a02604051978896879586946307fa355f60e51b8652600486016138e1565b8580fd5b613b7e9192503d8087833e613a298183612023565b9038613b2a565b6040513d87823e3d90fd5b50505050565b906040519181602084015260208352613bb0604084612023565b6001600160401b03601554169260405190613bca82612008565b6001825260208201918183526040810160018060a01b03851693848252604060008981526016602052209251613bff816129a4565b613c08816129a4565b60ff801985541691161783556001830190518051906001600160401b038211611fd757613c398261036385546121c0565b602090601f8311600114613d04579180613c6e92600296959460009261044e5750508160011b916000199060031b1c19161790565b90555b51910180546001600160a01b0319166001600160a01b03929092169190911790556001600160401b03613ca386614180565b166001600160401b03196015541617601555604051906006600110156104385761224c95613cf68392600080516020615f0d8339815191529560018552602085015260806040850152608084019061297f565b9060608301520390a1614a06565b90601f1983169184600052816000209260005b818110613d57575091600193918560029897969410613d3e575b505050811b019055613c71565b015160001960f88460031b161c19169055388080613d31565b92936020600181928786015181550195019301613d17565b92919060006060855195600287101561043857600096613dd357505050814710613dc45783918291829182916001600160a01b03165af1613dae614b1a565b5060405192613dbe602085612023565b83529190565b63569d45cf60e11b8452600484fd5b8096939195949296516002811015613e7357600114613df25750505050565b602090810151604080516001600160a01b03948516938101938452808201959095528452949650929450849316918390613e2d606084612023565b613e6660246040518093613e55602083019763a9059cbb60e01b89525180928585019061295c565b81010301601f198101835282612023565b51925af190612675614b1a565b634e487b7160e01b85526021600452602485fd5b7f806e0cbb9fce296bbc336a48f42bf1dbc69722d18d90d6fe705b7582c2bb4bd5546001600160a01b03163303613eba57565b6330cd747160e01b60005260046000fd5b61ffff60019116019061ffff82116122d357565b9061ffff8091169116019061ffff82116122d357565b60205460005b818110613f0757505050565b613f10816122e9565b905460039190911b1c6001600160a01b0390811690841614613f3457600101613efb565b600019820192509082116122d357613f69613f51613f8d936122e9565b905460039190911b1c6001600160a01b0316916122e9565b81546001600160a01b0393841660039290921b91821b9390911b1916919091179055565b6020548015613fbb5760001901613fa3816122e9565b81549060018060a01b039060031b1b19169055602055565b634e487b7160e01b600052603160045260246000fd5b6001600160401b0360055460a01c16906080810182613ff08284612806565b9050116140985760015460035460208401359180831115614087578115614071576001600160401b038291160490600182018092116122d3576140329161283b565b908181116140605714613a385761404891612806565b90501461224c5763fae4eadb60e01b60005260046000fd5b63dd88982f60e01b60005260046000fd5b634e487b7160e01b600052601260045260246000fd5b63d6bb62dd60e01b60005260046000fd5b63351c700760e01b60005260046000fd5b91909182811461417b576140bd83546121c0565b6001600160401b038111611fd7576140d981611bfa84546121c0565b600093601f821160011461411657613187929394829160009261410b5750508160011b916000199060031b1c19161790565b01549050388061038b565b845260208085208386529085209094601f198316815b8181106141635750958360019596971061414a57505050811b019055565b015460001960f88460031b161c191690553880806131af565b9192600180602092868b01548155019401920161412c565b509050565b6001600160401b036001911601906001600160401b0382116122d357565b6015546001600160401b03808316929190811683106141c85763040aaa0560e11b60005260046000fd5b6001600160401b038160401c168310613a38576005546001600160a01b03169060401c6001600160401b03165b836001600160401b038216111561426d5750507f246f00b61ce672242f33bb680a47147cd54d3dfd04dbb76956ba42f88087bf6391614235602092614180565b601580546fffffffffffffffff00000000000000001916604092831b6fffffffffffffffff00000000000000001617905551908152a1565b61428a816001600160401b03166000526016602052604060002090565b9060018060a01b0360028301541660ff8354166142a6816129a4565b6002810361431a57506001600160a01b03166000908152600d602052604090206001600160401b0392600192916142e2918401906003016140a9565b60006002614303836001600160401b03166000526016602052604060002090565b828155614311858201612896565b015501166141f5565b614323816129a4565b600381036144c4575061434a6001929361434360405180958193016131eb565b0383612023565b8151820191604081602085019403126119b25760208101516001600160401b0381116119b25781019083603f830112156119b25760208201519161438d83612044565b9461439b6040519687612023565b838652604082850101116119b2576040926143bc918460208801910161295c565b01519160036143dd8360018060a01b0316600052600d602052604060002090565b01908051906001600160401b038211611fd7576143fe8261036385546121c0565b602090601f831160011461444c579261444083600197946001600160401b039997946144479760009261044e5750508160011b916000199060031b1c19161790565b9055614d8e565b6142e2565b90601f1983169184600052816000209260005b8181106144ac5750936001600160401b0398969361444796936001999693838b9510614493575b505050811b019055614d8e565b015160001960f88460031b161c19169055388080614486565b9293602060018192878601518155019501930161445f565b9260016144dd60209261349b60405180948193016131eb565b81815181830193849160009401010312612409575051926144fd816129a4565b6001810361462a5750606081614534857f083b080788e20bd0930c2bca2ae4fbc51a59ced08c1b5992271f8cb439498a6394614a82565b61454060175443612332565b60405161454c81611fbc565b81815261ffff6145ae8160208401938a8552600161457c8860018060a01b03166000526018602052604060002090565b956040614593885486811696879160101c16613edf565b87600091168152838901602052209251835551910155613ecb565b1661ffff198254161790556040519182528560208301526040820152a1823b156119b257604051916345f5448560e01b8352600483015260008260248183875af190811561461e576001600160401b039260019261460d575b506142e2565b600061461891612023565b38614607565b6040513d6000823e3d90fd5b614633816129a4565b80614698575082614643916149b4565b6146558284614650612258565b614bdd565b91833b156119b25760009060246040518095819363eb4f16b560e01b83526004830152875af190811561461e576001600160401b039260019261460d57506142e2565b9192916146a4816129a4565b60048103614718575091614710828460056147066146ea600197836146e36001600160401b039b60018060a01b0316600052600d602052604060002090565b0154612332565b6001600160a01b039093166000908152600d6020526040902090565b0155601454612332565b6014556142e2565b909290600590614727816129a4565b03614740576144476001926001600160401b0394614b4a565b60405162461bcd60e51b815260206004820152601960248201527f556e6b6e6f776e207374616b696e67206f7065726174696f6e000000000000006044820152606490fd5b80518210156123045760209160051b010190565b8451929460009490841561488c5782518514801590614881575b61487257939291906000945b8486106147e25750505050505010156147da57600090600590565b600190600090565b9091929394956147fc6147f58884614785565b5184614e78565b50600481101561043857614861576001600160a01b0361481c8987614785565b51166001600160a01b03909116036148515761484560019161483e8988614785565b5190612332565b960194939291906147bf565b5050505050505050600090600390565b505050505050505050600090600490565b50505050505050600090600190565b5083518514156147b3565b50505050505050600090600290565b90821015612304576148b29160051b81019061292a565b9091565b91908110156123045760051b0190565b80600052601c6020526040600020541560001461493257601b54600160401b811015611fd757614919614902826001859401601b55601b61231a565b819391549060031b91821b91600019901b19161790565b9055601b5490600052601c602052604060002055600190565b50600090565b1561493f57565b634e487b7160e01b600052600160045260246000fd5b9061496260418214614938565b806001116119b25761497d913691600019019060010161205f565b80516020909101206001600160a01b031690565b60018060a01b0316600052600d6020526131876002604060002001918254612332565b9061224c916149fc60018060a01b0382169283600052600d6020526149e181600160406000200154612332565b93600052600d60205283600160406000200155600c54612332565b600c55600b61511d565b6001600160a01b03166000818152600d60205260409020600201549091808210614a4757614a33916122c6565b90600052600d602052600260406000200155565b63ac69360360e01b60005260046000fd5b6005600091828155826001820155826002820155614a7860038201612896565b8260048201550155565b90614aed614af59260018060a01b0381169081600052600d602052614aaf846001604060002001546122c6565b9180600052600d60205260026040600020015483159081614b11575b5015614afa57600052600d602052614ae66040600020614a58565b600b61533b565b600c546122c6565b600c55565b600052600d60205281600160406000200155614ae6565b90501538614acb565b3d15614b45573d90614b2b82612044565b91614b396040519384612023565b82523d6000602084013e565b606090565b614b56826014546122c6565b6014556001600160a01b03166000818152600d6020526040902060058101546004909101549192811580614bd5575b613b9057614b92916122c6565b9081159081614bcc575b5015614bb85750600052600d60205261224c6040600020614a58565b90600052600d602052600560406000200155565b90501538614b9c565b508215614b85565b600091815191600283101561043857600092614bfa575050505090565b809491929394516002811015613e7357600114614c19575b5050505090565b602090810151604051636eb1769f60e11b81523060048201526001600160a01b03858116602483015295965093941692919082604481865afa8015613b85578590614d58575b614c699250612332565b60405163095ea7b360e01b602082019081526001600160a01b0385166024830152604480830193909352918152919084908190614ca7606486612023565b84519082855af1614cb6614b1a565b81614d29575b5080614d1f575b15614cd5575b50505038808080614c12565b60405163095ea7b360e01b60208201526001600160a01b03909316602484015260448084018590528352614d1792614d1290612de2606482612023565b6150af565b388080614cc9565b50803b1515614cc3565b8051801592508215614d3e575b505038614cbc565b614d519250602080918301019101615097565b3880614d36565b50906020813d602011614d86575b81614d7360209383612023565b810103126136805790614c699151614c5f565b3d9150614d66565b6001600160a01b0381166000908152600d60205260409020805490839055909190808203614dbb57505050565b811115614dcd5761224c91600b61511d565b61224c91600b61533b565b600160ff600b5416614de9816125b3565b03614e09576001600160a01b03166000908152600d602052604090205490565b6001600160a01b03166000908152600d602052604090206001015490565b600291600160ff835416614e3a816125b3565b03614e5a576001600160a01b031660009081529101602052604090205490565b6001600160a01b031660009081529101602052604090206001015490565b8151919060418303614ea957614ea292506020820151906060604084015193015160001a906155a0565b9192909190565b505060009160029190565b6000818152601c60205260409020548015614f685760001981018181116122d357601b546000198101919082116122d357818103614f2e575b505050601b548015613fbb5760001901614f0881601b61231a565b8154906000199060031b1b19169055601b55600052601c60205260006040812055600190565b614f50614f3f61490293601b61231a565b90549060031b1c928392601b61231a565b9055600052601c602052604060002055388080614eed565b5050600090565b602154929391926001600160a01b031615613b9057614fae916000614f92613708565b6040518095819263aa5106cb60e01b835230906004840161386e565b038173__$3fbe32418a9ca7804328967972fb037388$__5af492831561461e5760009361507a575b506021546001600160a01b03169060005b858110614ff75750505050505050565b6150086106726102578389886148b6565b906150176102578289886148b6565b61502282858b6148b6565b3592853b156119b25760009161504d60405195869384936307fa355f60e51b85528c600486016138e1565b038183885af191821561461e57600192615069575b5001614fe7565b600061507491612023565b38615062565b6150909193503d806000833e613a298183612023565b9138614fd6565b908160209103126119b2575180151581036119b25790565b6000806150d89260018060a01b03169360208151910182865af16150d1614b1a565b9083615de5565b8051908115159182615102575b50506150ee5750565b635274afe760e01b60005260045260246000fd5b6151159250602080918301019101615097565b1538806150e5565b6001600160a01b038216600090815260048201602052604090205490929190600384019061ffff166152fa5761ffff845460081c1661ffff825416106152ce57806151698585936156a3565b9290921061522c5750506001600160a01b0381166000908152600784016020526040902054600684019061ffff166151eb57817f19fe3ca603e87854a0747cc10abf06bac64d61bac73d6d15f2fd3ca448f15264946151c79261588c565b604080516001600160a01b039092168252602082019290925290819081015b0390a1565b807fda148fac2e1063174be7bc0895576bdaba90fd14e575463fa26a967cb895cadd9461521b846151c794615a0c565b906152268582614e27565b92615cfb565b819293509084826152617ffaeb8de771b867cf357f6b459a7002b62ec45d544a8078a3ecd91200cc826d759761529b956156e8565b6001600160a01b03861660009081526007830160205260409020546006830191615296918891859161ffff166152be57615629565b61588c565b604080516001600160a01b039283168152929091166020830152819081016151e6565b6152c98383876157ea565b615629565b817f2e8038f5812f763c6ef0c5427cb5a05ce6d7064af2ba7d1d270bc02660b019fd946151c792615629565b807f143db27bc2036653dc6f962ff9d0b803163d4af50c256ca9e6927b3d6dcd01979461532a846151c794615a0c565b906153358582614e27565b92615a58565b6001600160a01b0382166000908152600782016020526040902054600682019392919061ffff16615516576001600160a01b038216600090815260048201602052604090205460038201949061ffff1615615505578315615474576153b56153a38487615a0c565b6153ad8585614e27565b908488615aef565b61ffff8154161561546d576153ca82866156a3565b9290916153d782826156a3565b909410615429575050604080516001600160a01b0390941684526020840194909452507f143db27bc2036653dc6f962ff9d0b803163d4af50c256ca9e6927b3d6dcd01979350909182915081016151e6565b83955082945061529661529b948389615463827ffaeb8de771b867cf357f6b459a7002b62ec45d544a8078a3ecd91200cc826d759c6156e8565b6152c98286615945565b5050505050565b91819350806154a76020927f4a4c5d1a281180eea1e99d8177fa4798b9f7e019d5c57e7d8d73c6a22199aa5b94886158a3565b6040516001600160a01b039091168152a161ffff8154166154c757505050565b6151c781837f2e8038f5812f763c6ef0c5427cb5a05ce6d7064af2ba7d1d270bc02660b019fd956154fb826152c9966156a3565b9681969194615945565b632a55ca5360e01b60005260046000fd5b821561555d57836151c79161554c847fda148fac2e1063174be7bc0895576bdaba90fd14e575463fa26a967cb895cadd97615a0c565b906155578582614e27565b92615d59565b602092508161558d917f3168ba660eed6ef1dc2258b2247cc05fd0f2f350d39e6ad2e2ebc76a8000b40b956157ea565b6040516001600160a01b039091168152a1565b91907f7fffffffffffffffffffffffffffffff5d576e7357a4501ddfe92f46681b20a0841161561d579160209360809260ff60009560405194855216868401526040830152606082015282805260015afa1561461e576000516001600160a01b038116156156115790600090600090565b50600090600190600090565b50505060009160039190565b909161224c9261569d61564061ffff855416613ecb565b6001600160a01b03841660008181526001870160209081526040808320805461ffff871661ffff19918216811790925581855260028b01909352922080546001600160a01b03191690931790925586549091161785559282614e27565b92615aef565b6002909291926156b281615b53565b60016000520160205261267560018060a01b03604060002054168093614e27565b61ffff6000199116019061ffff82116122d357565b6156f181615b53565b61572161ffff8254166157048184615b70565b61ffff615710826156d3565b1661ffff1984541617835582615cb3565b6002810192600160005283602052615747604060002060018060a01b0390541684614e27565b926001946157556001615a41565b61ffff855416905b61ffff81168281116157df57828110156157b557508061577f61578792613ecb565b908588615e46565b9790975b8711156157ab5761579d908887615c13565b6157a687615a41565b61575d565b5050505092505050565b6000908152602084905260409020549097906157da906001600160a01b031685614e27565b61578b565b505050505092505050565b90916157f69082615a0c565b61ffff825416615807818385615c13565b61ffff615813826156d3565b1661ffff198454161783556158288184615cb3565b61ffff821614613a385761224c926002830161ffff831660005280602052615869615861604060002060018060a01b0390541684614e27565b848487615cfb565b61ffff8316600052602052615557604060002060018060a01b0390541682614e27565b909161224c9261522661564061ffff855416613ecb565b90916158af9082615a0c565b61ffff8254166158c0818385615c13565b61ffff6158cc826156d3565b1661ffff198454161783556158e18184615cb3565b61ffff821614613a385761224c926002830161ffff83166000528060205261592261591a604060002060018060a01b0390541684614e27565b848487615aef565b61ffff8316600052602052615335604060002060018060a01b0390541682614e27565b61594e81615b53565b61596161ffff8254166157048184615b70565b6002810192600160005283602052615987604060002060018060a01b0390541684614e27565b92600194600261ffff855416905b61ffff81168281116157df57828110156159e25750806159b76159bf92613ecb565b908588615ead565b9790975b8710156157ab576159d5908887615c13565b61fffe8760011b16615995565b600090815260208490526040902054909790615a07906001600160a01b031685614e27565b6159c3565b600191828060a01b03166000520160205261ffff60406000205416908115615a3057565b63f2755e3760e01b60005260046000fd5b60011b906201fffe61fffe8316921682036122d357565b919390615a6485615a41565b61ffff845416905b61ffff81168281116157ab5782811015615ac3575080615a8e615a9692613ecb565b908487615e46565b9690965b861115615aba57615aac908786615c13565b615ab586615a41565b615a6c565b50505092505050565b6000908152600286016020526040902054909690615aea906001600160a01b031684614e27565b615a9a565b9092915b600161ffff821611615b055750505050565b600181901c617fff1660008181526002840160205260409020549091908490615b37906001600160a01b031687614e27565b1115615b4d57615b48908284615c13565b615af3565b50613b90565b5461ffff1615615b5f57565b6340d9b01160e01b60005260046000fd5b90615b9361ffff835416615b878160011115614938565b61ffff83161115614938565b600160008181526002840160208181526040808420805461ffff90971680865282862080546001600160a01b03998a168089529a89018652848820805461ffff1990811690941790559098168087529286208054909116871790559290915284546001600160a01b03199081169096179094559190528054909216179055565b919061ffff90615c3882855416615c2e818585161115614938565b8385161115614938565b811660008181526002850160208181526040808420805497871680865282862080546001600160a01b039a8b168089526001909c01865284882080549a199a8b1690931790925598168086529185208054909716861790965591905284546001600160a01b0319908116909617909455528054909216179055565b61ffff9091166000908152600282016020908152604080832080546001600160a01b031981169091556001600160a01b03168352600193909301905220805461ffff19169055565b9092915b600161ffff821611615d115750505050565b600181901c617fff1660008181526002840160205260409020549091908490615d43906001600160a01b031687614e27565b1015615b4d57615d54908284615c13565b615cff565b91939061fffe8560011b1661ffff845416905b61ffff81168281116157ab5782811015615db9575080615d8e615d9692613ecb565b908487615ead565b9690965b861015615aba57615dac908786615c13565b61fffe8660011b16615d6c565b6000908152600286016020526040902054909690615de0906001600160a01b031684614e27565b615d9a565b90615e0b5750805115615dfa57805190602001fd5b630a12f52160e11b60005260046000fd5b81511580615e3d575b615e1c575090565b639996b31560e01b60009081526001600160a01b0391909116600452602490fd5b50803b15615e14565b6002615e979195949395019161ffff861660005282602052615e76604060002060018060a01b0390541682614e27565b9261ffff8516600052602052604060002060018060a01b0390541690614e27565b9384821115615ea65750509190565b9350919050565b6002615efe9195949295019461ffff841660005285602052615edd604060002060018060a01b0390541682614e27565b9561ffff8416600052602052604060002060018060a01b0390541690614e27565b90818510615ea6575050919056fe1c593a2b803c3f9038e8b6743ba79fbc4276d2770979a01d2768ed12bea3243fc451c9429c27db68f286ab8a68f311f1dccab703ba9423aed29cd397ae63f863691bb03ffc16c56fc96b82fd16cd1b3715f0bc3cdc6407005f49bb6205860095a264697066735822122031c1706e2a9757af236390046de013515977f069e564ba8d8b6ff71f76806d1664736f6c634300081a0033","linkReferences":{"contracts/lib/LibStorageStaking.sol":{"LibStorageStaking":[{"start":6930,"length":20},{"start":7403,"length":20},{"start":9156,"length":20},{"start":9272,"length":20},{"start":11260,"length":20}],"LibStorageStakingGetters":[{"start":6338,"length":20},{"start":9094,"length":20},{"start":11136,"length":20}],"LibStorageStakingOps":[{"start":4678,"length":20}]},"contracts/lib/SubnetIDHelper.sol":{"SubnetIDHelper":[{"start":14782,"length":20},{"start":14975,"length":20},{"start":15138,"length":20},{"start":20429,"length":20}]}}},"methodIdentifiers":{"addBootstrapNode(string)":"10fd4261","claim()":"4e71d92d","confirmNextChange()":"c7ebdaef","join(bytes,uint256,uint256)":"1ddee554","kill()":"41c0e1b5","leave()":"d66d9e19","pause()":"8456cb59","paused()":"5c975abb","preFund(uint256)":"4d9013a1","preRelease(uint256)":"66783c9b","setFederatedPower(address[],bytes[],uint256[])":"da5d09ee","setValidatorGater(address)":"dcda8973","stake(uint256)":"a694fc3a","stakeStorage(uint256)":"72427494","submitCheckpoint(((uint64,address[]),uint256,bytes32,uint64,(uint8,((uint64,address[]),(uint8,bytes)),((uint64,address[]),(uint8,bytes)),uint64,uint256,bytes)[]),address[],bytes[])":"79979f57","unpause()":"3f4ba83a","unstake(uint256)":"2e17de78","unstakeStorage(uint256)":"4f9a27e8","validateActiveQuorumSignatures(address[],bytes32,bytes[])":"cc2dc2b9"},"id":145}