{"abi":[{"type":"function","name":"addCheckpointSignature","inputs":[{"name":"height","type":"uint256","internalType":"uint256"},{"name":"membershipProof","type":"bytes32[]","internalType":"bytes32[]"},{"name":"weight","type":"uint256","internalType":"uint256"},{"name":"signature","type":"bytes","internalType":"bytes"}],"outputs":[],"stateMutability":"nonpayable"},{"type":"function","name":"commitCheckpoint","inputs":[{"name":"checkpoint","type":"tuple","internalType":"struct BottomUpCheckpoint","components":[{"name":"subnetID","type":"tuple","internalType":"struct SubnetID","components":[{"name":"root","type":"uint64","internalType":"uint64"},{"name":"route","type":"address[]","internalType":"address[]"}]},{"name":"blockHeight","type":"uint256","internalType":"uint256"},{"name":"blockHash","type":"bytes32","internalType":"bytes32"},{"name":"nextConfigurationNumber","type":"uint64","internalType":"uint64"},{"name":"msgs","type":"tuple[]","internalType":"struct IpcEnvelope[]","components":[{"name":"kind","type":"uint8","internalType":"enum IpcMsgKind"},{"name":"to","type":"tuple","internalType":"struct IPCAddress","components":[{"name":"subnetId","type":"tuple","internalType":"struct SubnetID","components":[{"name":"root","type":"uint64","internalType":"uint64"},{"name":"route","type":"address[]","internalType":"address[]"}]},{"name":"rawAddress","type":"tuple","internalType":"struct FvmAddress","components":[{"name":"addrType","type":"uint8","internalType":"uint8"},{"name":"payload","type":"bytes","internalType":"bytes"}]}]},{"name":"from","type":"tuple","internalType":"struct IPCAddress","components":[{"name":"subnetId","type":"tuple","internalType":"struct SubnetID","components":[{"name":"root","type":"uint64","internalType":"uint64"},{"name":"route","type":"address[]","internalType":"address[]"}]},{"name":"rawAddress","type":"tuple","internalType":"struct FvmAddress","components":[{"name":"addrType","type":"uint8","internalType":"uint8"},{"name":"payload","type":"bytes","internalType":"bytes"}]}]},{"name":"nonce","type":"uint64","internalType":"uint64"},{"name":"value","type":"uint256","internalType":"uint256"},{"name":"message","type":"bytes","internalType":"bytes"}]}]}],"outputs":[],"stateMutability":"nonpayable"},{"type":"function","name":"createBottomUpCheckpoint","inputs":[{"name":"checkpoint","type":"tuple","internalType":"struct BottomUpCheckpoint","components":[{"name":"subnetID","type":"tuple","internalType":"struct SubnetID","components":[{"name":"root","type":"uint64","internalType":"uint64"},{"name":"route","type":"address[]","internalType":"address[]"}]},{"name":"blockHeight","type":"uint256","internalType":"uint256"},{"name":"blockHash","type":"bytes32","internalType":"bytes32"},{"name":"nextConfigurationNumber","type":"uint64","internalType":"uint64"},{"name":"msgs","type":"tuple[]","internalType":"struct IpcEnvelope[]","components":[{"name":"kind","type":"uint8","internalType":"enum IpcMsgKind"},{"name":"to","type":"tuple","internalType":"struct IPCAddress","components":[{"name":"subnetId","type":"tuple","internalType":"struct SubnetID","components":[{"name":"root","type":"uint64","internalType":"uint64"},{"name":"route","type":"address[]","internalType":"address[]"}]},{"name":"rawAddress","type":"tuple","internalType":"struct FvmAddress","components":[{"name":"addrType","type":"uint8","internalType":"uint8"},{"name":"payload","type":"bytes","internalType":"bytes"}]}]},{"name":"from","type":"tuple","internalType":"struct IPCAddress","components":[{"name":"subnetId","type":"tuple","internalType":"struct SubnetID","components":[{"name":"root","type":"uint64","internalType":"uint64"},{"name":"route","type":"address[]","internalType":"address[]"}]},{"name":"rawAddress","type":"tuple","internalType":"struct FvmAddress","components":[{"name":"addrType","type":"uint8","internalType":"uint8"},{"name":"payload","type":"bytes","internalType":"bytes"}]}]},{"name":"nonce","type":"uint64","internalType":"uint64"},{"name":"value","type":"uint256","internalType":"uint256"},{"name":"message","type":"bytes","internalType":"bytes"}]}]},{"name":"membershipRootHash","type":"bytes32","internalType":"bytes32"},{"name":"membershipWeight","type":"uint256","internalType":"uint256"}],"outputs":[],"stateMutability":"nonpayable"},{"type":"function","name":"pruneBottomUpCheckpoints","inputs":[{"name":"newRetentionHeight","type":"uint256","internalType":"uint256"}],"outputs":[],"stateMutability":"nonpayable"},{"type":"event","name":"NewBottomUpMsgBatch","inputs":[{"name":"epoch","type":"uint256","indexed":true,"internalType":"uint256"}],"anonymous":false},{"type":"event","name":"NewTopDownMessage","inputs":[{"name":"subnet","type":"address","indexed":true,"internalType":"address"},{"name":"message","type":"tuple","indexed":false,"internalType":"struct IpcEnvelope","components":[{"name":"kind","type":"uint8","internalType":"enum IpcMsgKind"},{"name":"to","type":"tuple","internalType":"struct IPCAddress","components":[{"name":"subnetId","type":"tuple","internalType":"struct SubnetID","components":[{"name":"root","type":"uint64","internalType":"uint64"},{"name":"route","type":"address[]","internalType":"address[]"}]},{"name":"rawAddress","type":"tuple","internalType":"struct FvmAddress","components":[{"name":"addrType","type":"uint8","internalType":"uint8"},{"name":"payload","type":"bytes","internalType":"bytes"}]}]},{"name":"from","type":"tuple","internalType":"struct IPCAddress","components":[{"name":"subnetId","type":"tuple","internalType":"struct SubnetID","components":[{"name":"root","type":"uint64","internalType":"uint64"},{"name":"route","type":"address[]","internalType":"address[]"}]},{"name":"rawAddress","type":"tuple","internalType":"struct FvmAddress","components":[{"name":"addrType","type":"uint8","internalType":"uint8"},{"name":"payload","type":"bytes","internalType":"bytes"}]}]},{"name":"nonce","type":"uint64","internalType":"uint64"},{"name":"value","type":"uint256","internalType":"uint256"},{"name":"message","type":"bytes","internalType":"bytes"}]}],"anonymous":false},{"type":"event","name":"QuorumReached","inputs":[{"name":"objKind","type":"uint8","indexed":false,"internalType":"enum QuorumObjKind"},{"name":"height","type":"uint256","indexed":false,"internalType":"uint256"},{"name":"objHash","type":"bytes32","indexed":false,"internalType":"bytes32"},{"name":"quorumWeight","type":"uint256","indexed":false,"internalType":"uint256"}],"anonymous":false},{"type":"event","name":"QuorumWeightUpdated","inputs":[{"name":"objKind","type":"uint8","indexed":false,"internalType":"enum QuorumObjKind"},{"name":"height","type":"uint256","indexed":false,"internalType":"uint256"},{"name":"objHash","type":"bytes32","indexed":false,"internalType":"bytes32"},{"name":"newWeight","type":"uint256","indexed":false,"internalType":"uint256"}],"anonymous":false},{"type":"error","name":"CannotSendCrossMsgToItself","inputs":[]},{"type":"error","name":"CheckpointAlreadyExists","inputs":[]},{"type":"error","name":"CheckpointNotCreated","inputs":[]},{"type":"error","name":"FailedAddIncompleteQuorum","inputs":[]},{"type":"error","name":"FailedAddSignatory","inputs":[]},{"type":"error","name":"FailedRemoveIncompleteQuorum","inputs":[]},{"type":"error","name":"InvalidActorAddress","inputs":[]},{"type":"error","name":"InvalidCheckpointSource","inputs":[]},{"type":"error","name":"InvalidRetentionHeight","inputs":[]},{"type":"error","name":"InvalidSignature","inputs":[]},{"type":"error","name":"InvalidSubnet","inputs":[]},{"type":"error","name":"InvalidXnetMessage","inputs":[{"name":"reason","type":"uint8","internalType":"enum InvalidXnetMessageReason"}]},{"type":"error","name":"MaxMsgsPerBatchExceeded","inputs":[]},{"type":"error","name":"MethodNotAllowed","inputs":[{"name":"reason","type":"string","internalType":"string"}]},{"type":"error","name":"NotAuthorized","inputs":[{"name":"","type":"address","internalType":"address"}]},{"type":"error","name":"NotEnoughSubnetCircSupply","inputs":[]},{"type":"error","name":"NotRegisteredSubnet","inputs":[]},{"type":"error","name":"NotSystemActor","inputs":[]},{"type":"error","name":"QuorumAlreadyProcessed","inputs":[]},{"type":"error","name":"SignatureReplay","inputs":[]},{"type":"error","name":"SubnetNotFound","inputs":[]},{"type":"error","name":"ZeroMembershipWeight","inputs":[]}],"bytecode":{"object":"0x60808060405234601557613b06908161001b8239f35b600080fdfe6080604052600436101561001257600080fd5b60003560e01c806353b4e7bf14610a14578063ac81837914610806578063dc749b05146103aa5763fba0fa4d1461004857600080fd5b34610302576020366003190112610302576004356001600160401b038111610302578060040160a060031983360301126103025761008f3661008a83806114f2565b6112a9565b906100cc602073__$3fbe32418a9ca7804328967972fb037388$__9360405180938192632cff562160e11b8352846004840152602483019061151b565b0381865af490811561030f57600091610370575b50336001600160a01b039091160361035f57331561034e576101276000610105611c20565b6040518093819263aa5106cb60e01b835260406004840152604483019061151b565b3360248301520381865af4801561030f5761014a9160009161032b575b50611e45565b93901561031b576101a360206101916101673661008a87806114f2565b95600488019660405180958194829363c836244d60e01b845260406004850152604484019061151b565b8281036003190160248401528a611580565b03915af490811561030f576000916102d0575b50156102bf576084016101c98183611603565b905060035460c01c106102ae576101e1908492611603565b9060009160009460be1983360301935b8287101561022a5760008760051b85013590868212156102275750600191608061021f928701013590611638565b9601956101f1565b80fd5b919290600286019081549380851061029d5784039384116102875761025b936102539255611cb6565b9236916113e5565b80519060005b82811061026a57005b8061028161027a60019385611706565b51866123d9565b01610261565b634e487b7160e01b600052601160045260246000fd5b631d36ca1560e21b60005260046000fd5b63351c700760e01b60005260046000fd5b6303b5db8360e11b60005260046000fd5b90506020813d602011610307575b816102eb60209383610ebf565b81010312610302576102fc90611573565b386101b6565b600080fd5b3d91506102de565b6040513d6000823e3d90fd5b6208ed5b60e31b60005260046000fd5b61034891503d806000833e6103408183610ebf565b810190611de4565b38610144565b6370e4510960e01b60005260046000fd5b637f39132760e11b60005260046000fd5b90506020813d6020116103a2575b8161038b60209383610ebf565b810103126103025761039c90611507565b386100e0565b3d915061037e565b34610302576060366003190112610302576004356001600160401b03811161030257806004019060a0600319823603011261030257604435916103eb611674565b60248201358060005260236020526002604060002001546107f5576040519360208501936020855261043161042085806110fe565b60a0604089015260e088019061116e565b9183606088015260448201359586608089015260648301976001600160401b0361045a8a611112565b1660a0820152608484019481610470878a611126565b603f939193198383030160c0840152808252602082019060208160051b840101928560009160be1982360301905b848410610728575050505050506104be925003601f198101835282610ebf565b5190209060ff6004541690600c548610610717578015610706576064916104e491610f59565b04906104ef85611ff9565b156106f55760405160049161050382610e6e565b8152602081019260243584526040820190815260608201906000825260808301946000865288600052600d602052604060002093518455516001840155516002830155516003820155019051151560ff801983541691161790556000956040519461056d86610e6e565b35906001600160401b0382116106f1576105906105a592600436918601016112a9565b86526020860194855260408601968752611112565b916060850192835235906001600160401b0382116106ed5701366023820112156106e9576105dd9036906024600482013591016113e5565b92608081019384528251865260236020526040862094516003860155516001600160401b0380825116166001600160401b0319865416178555602060018601910151908151916001600160401b0383116106d5576020906106418484999899610fa9565b0190875260208720875b8381106106b857505050506001600160401b039051166001600160401b036004840191166001600160401b0319825416179055516002820155815151916005849201915b83811061069a578480f35b806106b26106ab6001938551611706565b5185611bdd565b0161068f565b82516001600160a01b03168183015560209092019160010161064b565b634e487b7160e01b88526041600452602488fd5b8580fd5b8680fd5b8780fd5b630cbd1cd360e11b60005260046000fd5b634e8ac6e560e01b60005260046000fd5b630108e13760e21b60005260046000fd5b9193959092949650601f198282030187528735838112156103025784018035916003831015610302576107e36020928392856107656001976111db565b81526107d56107a661078c61077c878601866110fe565b60c08886015260c0850190611245565b61079960408601866110fe565b8482036040860152611245565b926001600160401b036107bb60608301611112565b1660608401526080810135608084015260a08101906111f3565b9160a0818503910152611224565b9901970194019188969795939161049e565b63b8a1eae160e01b60005260046000fd5b3461030257602036600319011261030257600435610822611674565b600c545b81811061099f5750600c548082111561098e575b8181106108475750600c55005b8060005260106020526040600020604051808260208294549384815201906000526020600020926000905b80821061097257505061088792500382610ebf565b80519060005b8281106109055750505080600052600d60205260006004604082208281558260018201558260028201558260038201550155806000526010602052604060002080549060008155816108e4575b505060010161083a565b6000526020600020908101905b818110156108da57600081556001016108f1565b600190846000526011602052610942604080600020848060a01b0361092a8588611706565b511690600091868060a01b0316825260205220611017565b84600052601060205261096b6040600020838060a01b036109638487611706565b51169061218c565b500161088d565b9160019193506020829186548152019401920184929391610872565b636819a3a960e01b60005260046000fd5b8060019160005260236020526109df60056040600020600081556109c4858201610f83565b60006002820155600060038201556000600482015501611089565b806000526024602052610a0e6003604060002060008155610a01858201610f83565b6000600282015501611089565b01610826565b34610302576080366003190112610302576004356024356001600160401b038111610302573660238201121561030257806004013590610a5382610ee0565b91610a616040519384610ebf565b8083526024602084019160051b8301019136831161030257602401905b828210610e5e57505050604435906064356001600160401b03811161030257610aab903690600401610f12565b91600c5484106107175783600052602360205260026040600020015415610e4d5783600052600d602052604060002093610ae6848654611e09565b506004819792971015610e3757610e2657816000526010602052610b2860406000209660018060a01b0316809760019160005201602052604060002054151590565b610e1557604051602081019087825284604082015260408152610b4c606082610ebf565b5190206040516020810191825260208152610b68604082610ebf565b51902094600182015495966000975b8651891015610bbe57610b8a8988611706565b5190600082821015610bad5750600052602052600160406000205b980197610b77565b604091600193825260205220610ba5565b8703610e0157836000526010602052610bdb81604060002061206b565b15610df05760409084600052601160205281600020600091825260205220908051906001600160401b038211610dda57610c158354610fdd565b601f8111610d9d575b50602090601f8311600114610d3657610c50929160009183610d2b575b50508160011b916000199060031b1c19161790565b90555b610c6260038201938454611638565b8084556002820154811015610c7357005b600482018054909160ff8216610ced575060ff19166001179055610c96826120c2565b15610cdc57610cd77fc08568b61a3224ac0d48121f065552f2f645d3777d353bd87291108bc36514949360ff600b541692549054906040519485948561164f565b0390a1005b6344a7b48760e11b60005260046000fd5b90507f103355808c87614c31e835c1a86487b17b1e54cf36e0ac4469c8d1e892239cbc9450610cd7915060ff600b541692546040519485948561164f565b015190508780610c3b565b90601f1983169184600052816000209260005b818110610d855750908460019594939210610d6c575b505050811b019055610c53565b015160001960f88460031b161c19169055868080610d5f565b92936020600181928786015181550195019301610d49565b610dca90846000526020600020601f850160051c81019160208610610dd0575b601f0160051c0190610f6c565b86610c1e565b9091508190610dbd565b634e487b7160e01b600052604160045260246000fd5b633363140f60e01b60005260046000fd5b634a0bfec160e01b60005260045260246000fd5b635a3fd0d960e11b60005260046000fd5b638baa579f60e01b60005260046000fd5b634e487b7160e01b600052602160045260246000fd5b6358cdd2e760e01b60005260046000fd5b8135815260209182019101610a7e565b60a081019081106001600160401b03821117610dda57604052565b604081019081106001600160401b03821117610dda57604052565b60c081019081106001600160401b03821117610dda57604052565b90601f801991011681019081106001600160401b03821117610dda57604052565b6001600160401b038111610dda5760051b60200190565b6001600160401b038111610dda57601f01601f191660200190565b81601f8201121561030257803590610f2982610ef7565b92610f376040519485610ebf565b8284526020838301011161030257816000926020809301838601378301015290565b8181029291811591840414171561028757565b818110610f77575050565b60008155600101610f6c565b80546000825580610f92575050565b610fa791600052602060002090810190610f6c565b565b90600160401b8111610dda57815490808355818110610fc757505050565b610fa79260005260206000209182019101610f6c565b90600182811c9216801561100d575b6020831014610ff757565b634e487b7160e01b600052602260045260246000fd5b91607f1691610fec565b6110218154610fdd565b908161102b575050565b81601f6000931160011461103d575055565b8183526020832061105991601f0160051c810190600101610f6c565b8082528160208120915555565b6003610fa7916000815561107c60018201610f83565b6000600282015501611017565b8054906000815581611099575050565b81600c0291600c830403610287576000526020600020908101905b8181106110bf575050565b806000600c92556110d260018201611066565b6110de60058201611066565b600060098201556000600a8201556110f8600b8201611017565b016110b4565b9035603e1982360301811215610302570190565b35906001600160401b038216820361030257565b9035601e19823603018112156103025701602081359101916001600160401b038211610302578160051b3603831361030257565b35906001600160a01b038216820361030257565b90606061119760408301936001600160401b0361118a82611112565b1684526020810190611126565b604060208501529384905291019160005b8181106111b55750505090565b909192602080600192838060a01b036111cd8861115a565b1681520194019291016111a8565b60031115610e3757565b359060ff8216820361030257565b9035601e19823603018112156103025701602081359101916001600160401b03821161030257813603831361030257565b908060209392818452848401376000828201840152601f01601f1916010190565b60406112966112a69361127561126a61125e86806110fe565b8584528584019061116e565b9460208101906110fe565b90602081860391015260ff611289826111e5565b16845260208101906111f3565b9190928160208201520191611224565b90565b9190604083820312610302576040516112c181610e89565b80936112cc81611112565b82526020810135906001600160401b03821161030257019180601f840112156103025782356112fa81610ee0565b936113086040519586610ebf565b81855260208086019260051b82010192831161030257602001905b8282106113335750505060200152565b602080916113408461115a565b815201910190611323565b9190604083820312610302576040519061136482610e89565b819380356001600160401b03811161030257826113829183016112a9565b83526020810135906001600160401b03821161030257019160408383031261030257604051926113b184610e89565b6113ba816111e5565b84526020810135926001600160401b038411610302576020936113dd9201610f12565b828401520152565b929190926113f284610ee0565b936114006040519586610ebf565b602085828152019060051b8201918383116103025780915b838310611426575050505050565b82356001600160401b03811161030257820160c081870312610302576040519161144f83610ea4565b8135600381101561030257835260208201356001600160401b038111610302578761147b91840161134b565b602084015260408201356001600160401b038111610302578761149f91840161134b565b60408401526114b060608301611112565b60608401526080820135608084015260a0820135926001600160401b038411610302576114e288602095869501610f12565b60a0820152815201920191611418565b903590603e1981360301821215610302570190565b51906001600160a01b038216820361030257565b602060608160408501936001600160401b03815116865201519360408382015284518094520192019060005b8181106115545750505090565b82516001600160a01b0316845260209384019390920191600101611547565b5190811515820361030257565b6060600160408401926001600160401b0381541685520192604060208201528354809352019160005260206000209060005b8181106115bf5750505090565b82546001600160a01b03168452602090930192600192830192016115b2565b6115f36112a69260408352604083019061151b565b9060208183039101526012611580565b903590601e198136030182121561030257018035906001600160401b03821161030257602001918160051b3603831361030257565b9190820180921161028757565b60021115610e3757565b90949392606092608083019661166481611645565b8352602083015260408201520152565b604051635d3f8a6960e01b815233600482015260208160248173__$32813765d87f0bbc231ef494a6a627f37b$__5af490811561030f576000916116cc575b50156116bb57565b63f0d97f3b60e01b60005260046000fd5b90506020813d6020116116fe575b816116e760209383610ebf565b81010312610302576116f890611573565b386116b3565b3d91506116da565b805182101561171a5760209160051b010190565b634e487b7160e01b600052603260045260246000fd5b805482101561171a57600052600c602060002091020190600090565b919091825161175a816111db565b611763816111db565b60ff80198354169116178155602083015180516001600160401b038151166001600160401b036001850191166001600160401b0319825416179055602060028401910151908151916001600160401b038311610dda576020906117c68484610fa9565b0190600052602060002060005b838110611bc057505050506020600383019101519060ff82511660ff198254161790556020600483019101518051906001600160401b038211610dda5761181a8354610fdd565b601f8111611b8e575b50602090601f8311600114611b27576118549291600091836119cc5750508160011b916000199060031b1c19161790565b90555b60408301518051805160058401805467ffffffffffffffff19166001600160401b039283161790556020909101518051916006850191908311610dda576020906118a18484610fa9565b0190600052602060002060005b838110611b0a57505050506020600783019101519060ff82511660ff198254161790556020600883019101518051906001600160401b038211610dda576118f58354610fdd565b601f8111611ad8575b50602090601f8311600114611a6b578260a09593600b9593611936936000926119cc5750508160011b916000199060031b1c19161790565b90555b6001600160401b036060860151166001600160401b036009830191166001600160401b03198254161790556080850151600a820155019201519182516001600160401b038111610dda5761198d8254610fdd565b601f8111611a39575b506020601f82116001146119d75781906119c89394956000926119cc5750508160011b916000199060031b1c19161790565b9055565b015190503880610c3b565b601f1982169083600052806000209160005b818110611a2157509583600195969710611a08575b505050811b019055565b015160001960f88460031b161c191690553880806119fe565b9192602060018192868b0151815501940192016119e9565b611a6590836000526020600020601f840160051c81019160208510610dd057601f0160051c0190610f6c565b38611996565b90601f1983169184600052816000209260005b818110611ac0575092600192859260a09896600b989610611aa7575b505050811b019055611939565b015160001960f88460031b161c19169055388080611a9a565b92936020600181928786015181550195019301611a7e565b611b0490846000526020600020601f850160051c81019160208610610dd057601f0160051c0190610f6c565b386118fe565b82516001600160a01b0316818301556020909201916001016118ae565b90601f1983169184600052816000209260005b818110611b765750908460019594939210611b5d575b505050811b019055611857565b015160001960f88460031b161c19169055388080611b50565b92936020600181928786015181550195019301611b3a565b611bba90846000526020600020601f850160051c81019160208610610dd057601f0160051c0190610f6c565b38611823565b82516001600160a01b0316818301556020909201916001016117d3565b8054600160401b811015610dda57611bfa91600182018155611730565b919091611c0a57610fa79161174c565b634e487b7160e01b600052600060045260246000fd5b60405190611c2d82610e89565b6012546001600160401b031682526040516013805480835260009182528491839160208301917f66de8ffda797e3de9c05e8fc57b3bf0ec28a930d40b0d285d93c06501cf6a09091905b818110611c945750505060209291611c90910384610ebf565b0152565b82546001600160a01b0316845286945060209093019260019283019201611c77565b90604051611cc381610e89565b600181936001600160401b0381541683520190604051809283916020825491828152019160005260206000209060005b818110611d0c5750505060209291611c90910384610ebf565b82546001600160a01b0316845286945060209093019260019283019201611cf3565b51906001600160401b038216820361030257565b919060408382031261030257604051611d5a81610e89565b8093611d6581611d2e565b82526020810151906001600160401b03821161030257019180601f84011215610302578251611d9381610ee0565b93611da16040519586610ebf565b81855260208086019260051b82010192831161030257602001905b828210611dcc5750505060200152565b60208091611dd984611507565b815201910190611dbc565b906020828203126103025781516001600160401b038111610302576112a69201611d42565b8151919060418303611e3a57611e3392506020820151906060604084015193015160001a90611f58565b9192909190565b505060009160029190565b611e81602073__$3fbe32418a9ca7804328967972fb037388$__92604051809381926390ba52cf60e01b8352846004840152602483019061151b565b0381855af490811561030f57600091611f26575b5060005260208052611ed76020604060002092611eb460048501611cb6565b906040518080958194630c133d1360e31b8352866004840152602483019061151b565b03915af490811561030f57600091611eee57501591565b90506020813d602011611f1e575b81611f0960209383610ebf565b8101031261030257611f1a90611573565b1591565b3d9150611efc565b90506020813d602011611f50575b81611f4160209383610ebf565b81010312610302575138611e95565b3d9150611f34565b91907f7fffffffffffffffffffffffffffffff5d576e7357a4501ddfe92f46681b20a08411611fd5579160209360809260ff60009560405194855216868401526040830152606082015282805260015afa1561030f576000516001600160a01b03811615611fc95790600090600090565b50600090600190600090565b50505060009160039190565b805482101561171a5760005260206000200190600090565b80600052600f6020526040600020541560001461206557600e54600160401b811015610dda5761204c612035826001859401600e55600e611fe1565b819391549060031b91821b91600019901b19161790565b9055600e5490600052600f602052604060002055600190565b50600090565b60008281526001820160205260409020546120bb57805490600160401b821015610dda57826120a4612035846001809601855584611fe1565b905580549260005201602052604060002055600190565b5050600090565b6000818152600f602052604090205480156120bb57600019810181811161028757600e5460001981019190821161028757818103612152575b505050600e54801561213c576000190161211681600e611fe1565b8154906000199060031b1b19169055600e55600052600f60205260006040812055600190565b634e487b7160e01b600052603160045260246000fd5b61217461216361203593600e611fe1565b90549060031b1c928392600e611fe1565b9055600052600f6020526040600020553880806120fb565b906001820191816000528260205260406000205480151560001461224057600019810181811161028757825460001981019190821161028757818103612209575b5050508054801561213c5760001901906121e78282611fe1565b8154906000199060031b1b191690555560005260205260006040812055600190565b6122296122196120359386611fe1565b90549060031b1c92839286611fe1565b9055600052836020526040600020553880806121cd565b50505050600090565b6040519061225682610e89565b60006020838281520152565b90816020910312610302575160028110156103025790565b60005b83811061228d5750506000910152565b818101518382015260200161227d565b906020916122b68151809281855285808601910161227a565b601f01601f1916010190565b604060206112a693816122dc85518584528584019061151b565b940151908281860391015260ff8151168452015191816020820152019061229d565b6112a691815161230d816111db565b815260a061233f61232d602085015160c0602086015260c08501906122c2565b604085015184820360408601526122c2565b926001600160401b0360608201511660608401526080810151608084015201519060a081840391015261229d565b6115f36112a6926040835260408301906122fe565b6001600160401b036001911601906001600160401b03821161028757565b9081604091031261030257604051906123b882610e89565b805160028110156103025782526123d190602001611507565b602082015290565b60208201908151519061241e602073__$3fbe32418a9ca7804328967972fb037388$__9360405180938192630c133d1360e31b8352846004840152602483019061151b565b0381865af490811561030f57600091612857575b5061282957604051600061244582610e89565b808252602082015260405163855f7e4560e01b81526020818061246b896004830161236d565b038173__$c0560e63386df2470ca6214f90e7038fc9$__5af490811561030f576000916127fa575b5061249d81611645565b600181036127185750506124b090611e45565b901561271257600381016001600160401b03815460401c166001600160401b03606087015116036126de57612528600461254993836124fd6001600160401b036020965460401c16612382565b67ffffffffffffffff60401b82549160401b169067ffffffffffffffff60401b191617905501611cb6565b60405180938192632cff562160e11b8352846004840152602483019061151b565b0381855af490811561030f5760009161269f575b50604080516380875df760e01b815291829060049082906001600160a01b03165afa91821561030f576125b692602092600091612670575b50935b515190604051808095819463c836244d60e01b8352600483016115de565b03915af490811561030f57600091612636575b50156125f1576125d99082612caa565b90156125e857610fa791612b6b565b610fa791612afd565b50610fa790604051602081019060208252612621816126136040820186612c69565b03601f198101835282610ebf565b5190206000526022602052604060002061174c565b90506020813d602011612668575b8161265160209383610ebf565b810103126103025761266290611573565b386125c9565b3d9150612644565b612692915060403d604011612698575b61268a8183610ebf565b8101906123a0565b38612595565b503d612680565b90506020813d6020116126d6575b816126ba60209383610ebf565b810103126103025760406126cf600492611507565b915061255d565b3d91506126ad565b50505050610fa7906040519063bc0f01cf60e01b6020830152600260248301526024825261270d604483610ebf565b612968565b50505050565b9093915061272581611645565b15612737575b6125b691602091612598565b91506001600160401b0360035460401c166001600160401b03606085015116036127cd5760206125b6916127a461277b6001600160401b0360035460401c16612382565b67ffffffffffffffff60401b6003549160401b169067ffffffffffffffff60401b191617600355565b6127ac612249565b506040516127b981610e89565b60008152600083820152939150915061272b565b5050610fa7906040519063bc0f01cf60e01b6020830152600260248301526024825261270d604483610ebf565b61281c915060203d602011612822575b6128148183610ebf565b810190612262565b38612493565b503d61280a565b505050610fa7906040519063bc0f01cf60e01b6020830152600160248301526024825261270d604483610ebf565b90506020813d602011612889575b8161287260209383610ebf565b810103126103025761288390611573565b38612432565b3d9150612865565b81601f820112156103025780516128a781610ef7565b926128b56040519485610ebf565b81845260208284010111610302576112a6916020808501910161227a565b919060408382031261030257604051906128ec82610e89565b819380516001600160401b038111610302578261290a918301611d42565b83526020810151906001600160401b038211610302570191604083830312610302576040519261293984610e89565b805160ff811681036103025784526020810151926001600160401b038411610302576020936113dd9201612891565b9061297282612da6565b612af95760028251612983816111db565b61298c816111db565b14612af957604051634dbefc2d60e11b815260606004820152916129b49060648401906122fe565b90826129d660009382936001602485015260031984830301604485015261229d565b038173__$c0560e63386df2470ca6214f90e7038fc9$__5af490811561030f57600091612a0b575b50612a0890612dd0565b50565b3d8083833e612a1a8183610ebf565b810190602081830312612af1578051906001600160401b038211612af557019160c0838303126102275760405192612a5184610ea4565b80516003811015612af157845260208101516001600160401b038111612af15783612a7d9183016128d3565b602085015260408101516001600160401b038111612af15783612aa19183016128d3565b6040850152612ab260608201611d2e565b60608501526080810151608085015260a0810151916001600160401b038311610227575091612ae691612a08949301612891565b60a0820152906129fe565b8280fd5b8380fd5b5050565b90612b0782612da6565b612af95760028251612b18816111db565b612b21816111db565b14612af957604051634dbefc2d60e11b81526060600482015291612b499060648401906122fe565b90826129d660009382936002602485015260031984830301604485015261229d565b90612b7582612da6565b612af95760028251612b86816111db565b612b8f816111db565b14612af957604051634dbefc2d60e11b81526060600482015291612bb79060648401906122fe565b90826129d6600093829385602485015260031984830301604485015261229d565b91909180519060408452602060808501926001600160401b038151166040870152015191604060608601528251809152602060a0860193019060005b818110612c4a5750505060206112a69394816040930151908281860391015260ff8151168452015191816020820152019061229d565b82516001600160a01b0316855260209485019490920191600101612c14565b6112a6918151612c78816111db565b815260a061233f612c98602085015160c0602086015260c0850190612bd8565b60408501518482036040860152612bd8565b600091908291612d0c6040518092612cdb60208301956307ee9e3160e31b8752606060248501526084840190612c69565b908051612ce781611645565b6044840152602001516001600160a01b0316606483015203601f198101835282610ebf565b519073__$c0560e63386df2470ca6214f90e7038fc9$__5af4903d15612d9e573d91612d3783610ef7565b92612d456040519485610ebf565b83523d6000602085013e5b8281612d5b57509190565b9250508151820160408382031261030257612d7860208401611573565b926040810151916001600160401b038311610302576112a6926020809201920101612891565b606091612d50565b8051612db1816111db565b612dba816111db565b15612dc85760a00151511590565b608001511590565b6020818101805151604051630c133d1360e31b81526004810184905273__$3fbe32418a9ca7804328967972fb037388$__938180612e11602482018661151b565b0381875af490811561030f57600091613547575b506135315760405163c836244d60e01b815260208180612e4885600483016115de565b0381875af490811561030f576000916134f7575b506134e65760408481015151905163855f7e4560e01b81529060208280612e86896004830161236d565b038173__$c0560e63386df2470ca6214f90e7038fc9$__5af491821561030f576000926134c5575b5060405192631ccc893360e11b84526040600485015260008480612eea612ed8604483018661151b565b8281036003190160248401528661151b565b0381895af493841561030f57612f20946020916000916134aa575b506040518096819263c836244d60e01b8352600483016115de565b0381895af493841561030f5760009461346e575b50600090612f4184611645565b600184036133635750506040516308c7427760e11b8152602060048201529060008280612f71602482018561151b565b0381895af491821561030f57612fa792602091600091613348575b506040518094819263c836244d60e01b8352600483016115de565b0381895af491821561030f5760009261330c575b5081613285575b505b6131e9575b612fd281611645565b159081156131e1575b50612ff557505080612fee60809261378c565b0151151590565b6001600160401b0360035460401c166001600160401b038114610287576130649161304860016000930167ffffffffffffffff60401b6003549160401b169067ffffffffffffffff60401b191617600355565b51516040518093819263089032d560e01b8352600483016115de565b0381855af490811561030f576000916131c6575b5061308281611e45565b9190156131b5576130f692826003602094016001600160401b036130ae818354168060608b0152612382565b166001600160401b03198254161790556130d2600260808801519201918254611638565b905560405180809581946304e384ff60e21b8352866004840152602483019061151b565b03915af490811561030f57600091613156575b5060405160208082526001600160a01b03909216927ffdd39ce2560484814971f663392e78ae37dc62ba184b3370d830371dd271a8b792829161314e91830190612c69565b0390a2600090565b90506020813d6020116131ad575b8161317160209383610ebf565b810103126103025761314e6131a67ffdd39ce2560484814971f663392e78ae37dc62ba184b3370d830371dd271a8b792611507565b9150613109565b3d9150613164565b630e991abd60e41b60005260046000fd5b6131db91503d806000833e6103408183610ebf565b38613078565b905038612fdb565b84516131f4816111db565b6131fd816111db565b612fc95760405163015538b160e01b815260206004820152604f60248201527f70726f7061676174696f6e206f6620605472616e7366657260206d657373616760448201527f6573206e6f742073757070706f7274656420666f72207375626e65747320776960648201526e746820455243323020737570706c7960881b608482015260a490fd5b6132ae915060209060405180938192632cff562160e11b8352846004840152602483019061151b565b0381885af4801561030f576000906132d1575b6132cb9150613581565b38612fc2565b506020813d602011613304575b816132eb60209383610ebf565b81010312610302576132ff6132cb91611507565b6132c1565b3d91506132de565b9091506020813d602011613340575b8161332860209383610ebf565b810103126103025761333990611573565b9038612fbb565b3d915061331b565b61335d91503d806000833e6103408183610ebf565b38612f8c565b90915061336f83611645565b81831561337e575b5050612fc4565b60405163089032d560e01b8152918290819061339d90600483016115de565b0381895af49081156134635782916020916133da9491613449575b5060405180948192632cff562160e11b8352846004840152602483019061151b565b0381895af490811561343d5780916133ff575b506133f89150613581565b3881613377565b90506020823d602011613435575b8161341a60209383610ebf565b81010312610227575061342f6133f891611507565b386133ed565b3d915061340d565b604051903d90823e3d90fd5b61345d91503d8085833e6103408183610ebf565b386133b8565b6040513d84823e3d90fd5b9093506020813d6020116134a2575b8161348a60209383610ebf565b810103126103025761349b90611573565b9238612f34565b3d915061347d565b6134bf91503d806000833e6103408183610ebf565b38612f05565b6134df91925060203d602011612822576128148183610ebf565b9038612eae565b632f3335ff60e21b60005260046000fd5b90506020813d602011613529575b8161351260209383610ebf565b810103126103025761352390611573565b38612e5c565b3d9150613505565b63bc0f01cf60e01b600052600160045260246000fd5b90506020813d602011613579575b8161356260209383610ebf565b810103126103025761357390611573565b38612e25565b3d9150613555565b604080516380875df760e01b815291829060049082906001600160a01b03165afa90811561030f576000916135cc575b50516135bc81611645565b806135c8600192611645565b1490565b6135e5915060403d6040116126985761268a8183610ebf565b386135b1565b60138114612a0857601354906001600160401b038211610dda5761360f8282610fa9565b6000908152602081207f66de8ffda797e3de9c05e8fc57b3bf0ec28a930d40b0d285d93c06501cf6a09080545b84841061364a575050505050565b600191820180546001600160a01b039092168486015593909101929061363c565b6040519061367882610e89565b6060602083600081520152565b6040519061369282610e89565b8161369b61366b565b815260206136a761366b565b910152565b90604051918260008254926136c084610fdd565b808452936001811690811561372c57506001146136e5575b50610fa792500383610ebf565b90506000929192526020600020906000915b818310613710575050906020610fa792820101386136d8565b60209193508060019154838589010152019101909184926136f7565b905060209250610fa794915060ff191682840152151560051b820101386136d8565b906040519161375c83610e89565b60208361376883611cb6565b81526113dd60036040519461377c86610e89565b60ff6002820154168652016136ac565b6001548015613aba57806001600160401b034316049060018201809211610287576137b691610f59565b6001600160401b036137d18160035416806060860152612382565b166001600160401b0319600354161760035580600052602460205260406000209060028201805415613a7357505060030190815460035460c01c14600014613a6a57815461381e81610ee0565b9161382c6040519384610ebf565b818352601f1961383b83610ee0565b0160005b818110613a1d57505060405193606085018581106001600160401b03821117610dda5760405261386d611c20565b855260208501924384526040860194855260005b818110613986575050906138c391437f4ecfe3c1ed32ef0a63d3801d51eb20214db90b14dc5fd1ca58a9de54f16f46a6600080a26138be81611089565b611bdd565b80516000526024602052604060002092516001600160401b0380825116166001600160401b0319855416178455602060018501910151908151916001600160401b038311610dda5760209061391b8484989798610fa9565b0190600052602060002060005b838110613969575050505051600282015581515191600360009201915b8381106139525750505050565b806139636106ab6001938551611706565b01613945565b82516001600160a01b031681830155602090920191600101613928565b80613a168161399760019487611730565b50895190613a01600b604051926139ad84610ea4565b60ff8154166139bb816111db565b84526139c889820161374e565b60208501526139d96005820161374e565b60408501526001600160401b036009820154166060850152600a8101546080850152016136ac565b60a0820152613a108383611706565b52611706565b5001613881565b602090604051613a2c81610ea4565b60008152613a38613685565b83820152613a44613685565b60408201526000606082015260006080820152606060a08201528282880101520161383f565b610fa791611bdd565b91600391610fa7949360128303613a8c575b5501611bdd565b6001600160401b038060125416166001600160401b0319845416178355613ab5600184016135eb565b613a85565b634e487b7160e01b600052601260045260246000fdfea264697066735822122009dd3240fc5e125cb0b471708d1a6cf7690f82e1f180db5b348b5f081e452bf464736f6c634300081a0033","linkReferences":{"contracts/lib/AccountHelper.sol":{"AccountHelper":[{"start":5802,"length":20}]},"contracts/lib/CrossMsgHelper.sol":{"CrossMsgHelper":[{"start":9354,"length":20},{"start":10741,"length":20},{"start":11563,"length":20},{"start":11941,"length":20}]},"contracts/lib/SubnetIDHelper.sol":{"SubnetIDHelper":[{"start":178,"length":20},{"start":7783,"length":20},{"start":9220,"length":20},{"start":11785,"length":20}]}}},"methodIdentifiers":{"addCheckpointSignature(uint256,bytes32[],uint256,bytes)":"53b4e7bf","commitCheckpoint(((uint64,address[]),uint256,bytes32,uint64,(uint8,((uint64,address[]),(uint8,bytes)),((uint64,address[]),(uint8,bytes)),uint64,uint256,bytes)[]))":"fba0fa4d","createBottomUpCheckpoint(((uint64,address[]),uint256,bytes32,uint64,(uint8,((uint64,address[]),(uint8,bytes)),((uint64,address[]),(uint8,bytes)),uint64,uint256,bytes)[]),bytes32,uint256)":"dc749b05","pruneBottomUpCheckpoints(uint256)":"ac818379"},"id":14}