{"abi":[{"type":"function","name":"addCheckpointSignature","inputs":[{"name":"height","type":"uint256","internalType":"uint256"},{"name":"membershipProof","type":"bytes32[]","internalType":"bytes32[]"},{"name":"weight","type":"uint256","internalType":"uint256"},{"name":"signature","type":"bytes","internalType":"bytes"}],"outputs":[],"stateMutability":"nonpayable"},{"type":"function","name":"commitCheckpoint","inputs":[{"name":"checkpoint","type":"tuple","internalType":"struct BottomUpCheckpoint","components":[{"name":"subnetID","type":"tuple","internalType":"struct SubnetID","components":[{"name":"root","type":"uint64","internalType":"uint64"},{"name":"route","type":"address[]","internalType":"address[]"}]},{"name":"blockHeight","type":"uint256","internalType":"uint256"},{"name":"blockHash","type":"bytes32","internalType":"bytes32"},{"name":"nextConfigurationNumber","type":"uint64","internalType":"uint64"},{"name":"msgs","type":"tuple[]","internalType":"struct IpcEnvelope[]","components":[{"name":"kind","type":"uint8","internalType":"enum IpcMsgKind"},{"name":"to","type":"tuple","internalType":"struct IPCAddress","components":[{"name":"subnetId","type":"tuple","internalType":"struct SubnetID","components":[{"name":"root","type":"uint64","internalType":"uint64"},{"name":"route","type":"address[]","internalType":"address[]"}]},{"name":"rawAddress","type":"tuple","internalType":"struct FvmAddress","components":[{"name":"addrType","type":"uint8","internalType":"uint8"},{"name":"payload","type":"bytes","internalType":"bytes"}]}]},{"name":"from","type":"tuple","internalType":"struct IPCAddress","components":[{"name":"subnetId","type":"tuple","internalType":"struct SubnetID","components":[{"name":"root","type":"uint64","internalType":"uint64"},{"name":"route","type":"address[]","internalType":"address[]"}]},{"name":"rawAddress","type":"tuple","internalType":"struct FvmAddress","components":[{"name":"addrType","type":"uint8","internalType":"uint8"},{"name":"payload","type":"bytes","internalType":"bytes"}]}]},{"name":"nonce","type":"uint64","internalType":"uint64"},{"name":"value","type":"uint256","internalType":"uint256"},{"name":"message","type":"bytes","internalType":"bytes"}]}]}],"outputs":[],"stateMutability":"nonpayable"},{"type":"function","name":"createBottomUpCheckpoint","inputs":[{"name":"checkpoint","type":"tuple","internalType":"struct BottomUpCheckpoint","components":[{"name":"subnetID","type":"tuple","internalType":"struct SubnetID","components":[{"name":"root","type":"uint64","internalType":"uint64"},{"name":"route","type":"address[]","internalType":"address[]"}]},{"name":"blockHeight","type":"uint256","internalType":"uint256"},{"name":"blockHash","type":"bytes32","internalType":"bytes32"},{"name":"nextConfigurationNumber","type":"uint64","internalType":"uint64"},{"name":"msgs","type":"tuple[]","internalType":"struct IpcEnvelope[]","components":[{"name":"kind","type":"uint8","internalType":"enum IpcMsgKind"},{"name":"to","type":"tuple","internalType":"struct IPCAddress","components":[{"name":"subnetId","type":"tuple","internalType":"struct SubnetID","components":[{"name":"root","type":"uint64","internalType":"uint64"},{"name":"route","type":"address[]","internalType":"address[]"}]},{"name":"rawAddress","type":"tuple","internalType":"struct FvmAddress","components":[{"name":"addrType","type":"uint8","internalType":"uint8"},{"name":"payload","type":"bytes","internalType":"bytes"}]}]},{"name":"from","type":"tuple","internalType":"struct IPCAddress","components":[{"name":"subnetId","type":"tuple","internalType":"struct SubnetID","components":[{"name":"root","type":"uint64","internalType":"uint64"},{"name":"route","type":"address[]","internalType":"address[]"}]},{"name":"rawAddress","type":"tuple","internalType":"struct FvmAddress","components":[{"name":"addrType","type":"uint8","internalType":"uint8"},{"name":"payload","type":"bytes","internalType":"bytes"}]}]},{"name":"nonce","type":"uint64","internalType":"uint64"},{"name":"value","type":"uint256","internalType":"uint256"},{"name":"message","type":"bytes","internalType":"bytes"}]}]},{"name":"membershipRootHash","type":"bytes32","internalType":"bytes32"},{"name":"membershipWeight","type":"uint256","internalType":"uint256"}],"outputs":[],"stateMutability":"nonpayable"},{"type":"function","name":"pruneBottomUpCheckpoints","inputs":[{"name":"newRetentionHeight","type":"uint256","internalType":"uint256"}],"outputs":[],"stateMutability":"nonpayable"},{"type":"event","name":"NewBottomUpMsgBatch","inputs":[{"name":"epoch","type":"uint256","indexed":true,"internalType":"uint256"}],"anonymous":false},{"type":"event","name":"NewTopDownMessage","inputs":[{"name":"subnet","type":"address","indexed":true,"internalType":"address"},{"name":"message","type":"tuple","indexed":false,"internalType":"struct IpcEnvelope","components":[{"name":"kind","type":"uint8","internalType":"enum IpcMsgKind"},{"name":"to","type":"tuple","internalType":"struct IPCAddress","components":[{"name":"subnetId","type":"tuple","internalType":"struct SubnetID","components":[{"name":"root","type":"uint64","internalType":"uint64"},{"name":"route","type":"address[]","internalType":"address[]"}]},{"name":"rawAddress","type":"tuple","internalType":"struct FvmAddress","components":[{"name":"addrType","type":"uint8","internalType":"uint8"},{"name":"payload","type":"bytes","internalType":"bytes"}]}]},{"name":"from","type":"tuple","internalType":"struct IPCAddress","components":[{"name":"subnetId","type":"tuple","internalType":"struct SubnetID","components":[{"name":"root","type":"uint64","internalType":"uint64"},{"name":"route","type":"address[]","internalType":"address[]"}]},{"name":"rawAddress","type":"tuple","internalType":"struct FvmAddress","components":[{"name":"addrType","type":"uint8","internalType":"uint8"},{"name":"payload","type":"bytes","internalType":"bytes"}]}]},{"name":"nonce","type":"uint64","internalType":"uint64"},{"name":"value","type":"uint256","internalType":"uint256"},{"name":"message","type":"bytes","internalType":"bytes"}]}],"anonymous":false},{"type":"event","name":"QuorumReached","inputs":[{"name":"objKind","type":"uint8","indexed":false,"internalType":"enum QuorumObjKind"},{"name":"height","type":"uint256","indexed":false,"internalType":"uint256"},{"name":"objHash","type":"bytes32","indexed":false,"internalType":"bytes32"},{"name":"quorumWeight","type":"uint256","indexed":false,"internalType":"uint256"}],"anonymous":false},{"type":"event","name":"QuorumWeightUpdated","inputs":[{"name":"objKind","type":"uint8","indexed":false,"internalType":"enum QuorumObjKind"},{"name":"height","type":"uint256","indexed":false,"internalType":"uint256"},{"name":"objHash","type":"bytes32","indexed":false,"internalType":"bytes32"},{"name":"newWeight","type":"uint256","indexed":false,"internalType":"uint256"}],"anonymous":false},{"type":"error","name":"CannotSendCrossMsgToItself","inputs":[]},{"type":"error","name":"CheckpointAlreadyExists","inputs":[]},{"type":"error","name":"CheckpointNotCreated","inputs":[]},{"type":"error","name":"FailedAddIncompleteQuorum","inputs":[]},{"type":"error","name":"FailedAddSignatory","inputs":[]},{"type":"error","name":"FailedRemoveIncompleteQuorum","inputs":[]},{"type":"error","name":"InvalidActorAddress","inputs":[]},{"type":"error","name":"InvalidCheckpointSource","inputs":[]},{"type":"error","name":"InvalidRetentionHeight","inputs":[]},{"type":"error","name":"InvalidSignature","inputs":[]},{"type":"error","name":"InvalidSubnet","inputs":[]},{"type":"error","name":"InvalidXnetMessage","inputs":[{"name":"reason","type":"uint8","internalType":"enum InvalidXnetMessageReason"}]},{"type":"error","name":"MaxMsgsPerBatchExceeded","inputs":[]},{"type":"error","name":"MethodNotAllowed","inputs":[{"name":"reason","type":"string","internalType":"string"}]},{"type":"error","name":"NotAuthorized","inputs":[{"name":"","type":"address","internalType":"address"}]},{"type":"error","name":"NotEnoughSubnetCircSupply","inputs":[]},{"type":"error","name":"NotRegisteredSubnet","inputs":[]},{"type":"error","name":"NotSystemActor","inputs":[]},{"type":"error","name":"QuorumAlreadyProcessed","inputs":[]},{"type":"error","name":"SignatureReplay","inputs":[]},{"type":"error","name":"SubnetNotFound","inputs":[]},{"type":"error","name":"ZeroMembershipWeight","inputs":[]}],"bytecode":{"object":"0x6080604052348015600f57600080fd5b506149788061001f6000396000f3fe608060405234801561001057600080fd5b506004361061004c5760003560e01c806353b4e7bf14610051578063ac81837914610066578063dc749b0514610079578063fba0fa4d1461008c575b600080fd5b61006461005f3660046135a9565b61009f565b005b61006461007436600461367c565b6100f1565b6100646100873660046136ad565b6101c4565b61006461009a3660046136fa565b610264565b6100aa600b85610419565b6000848152602360205260409020600201541515806100dc576040516358cdd2e760e01b815260040160405180910390fd5b6100ea600b86868686610442565b5050505050565b6100f96106e2565b600c545b818110156101b557600081815260236020526040812080546001600160401b031916815590818161013160018301826131d2565b5050600060028301819055600383018190556004830180546001600160401b03191690556101639060058401906131f0565b5050600081815260246020526040812080546001600160401b031916815590818161019160018301826131d2565b505060028201600090556003820160006101ab91906131f0565b50506001016100fd565b506101c1600b82610774565b50565b6101cc6106e2565b6101eb8360200135600090815260236020526040902060020154151590565b156102095760405163b8a1eae160e01b815260040160405180910390fd5b61024e6000600b018460200135856040516020016102279190613972565b60408051601f1981840301815291905280516020909101206004548690869060ff166108db565b61025f61025a84613d90565b6109cc565b505050565b3361026f8280613e3b565b61027890613e5b565b604051632cff562160e11b815273__$3fbe32418a9ca7804328967972fb037388$__916359feac42916102ae9190600401613ed2565b602060405180830381865af41580156102cb573d6000803e3d6000fd5b505050506040513d601f19601f820116820180604052508101906102ef9190613ee5565b6001600160a01b03161461031657604051637f39132760e11b815260040160405180910390fd5b60008061032233610c2a565b9150915081610343576040516208ed5b60e31b815260040160405180910390fd5b61034d8380613e3b565b61035690613e5b565b60405163c836244d60e01b815273__$3fbe32418a9ca7804328967972fb037388$__9163c836244d91610390919060048087019101613f67565b602060405180830381865af41580156103ad573d6000803e3d6000fd5b505050506040513d601f19601f820116820180604052508101906103d19190613fa5565b6103ee576040516303b5db8360e11b815260040160405180910390fd5b6104036103fe6080850185613fc0565b610d65565b61025f6104136080850185613fc0565b83610d9b565b816001015481101561043e57604051630108e13760e21b815260040160405180910390fd5b5050565b60008481526002860160205260408120805490919081906104639085610ebd565b509092509050600081600381111561047d5761047d613867565b1461049b57604051638baa579f60e01b815260040160405180910390fd5b600087815260058901602052604090206104b59083610f0a565b156104d357604051635a3fd0d960e11b815260040160405180910390fd5b604080516001600160a01b038416602082015290810186905260009060600160408051601f1981840301815282825280516020918201209083015201604051602081830303815290604052805190602001209050600061053888866001015484610f31565b90508061056857604051634a0bfec160e01b81526001600160a01b03851660048201526024015b60405180910390fd5b600089815260058b01602052604081206105829086610f47565b9050806105a257604051633363140f60e01b815260040160405180910390fd5b60008a815260068c01602090815260408083206001600160a01b038916845290915290206105d08882614084565b50878660030160008282546105e59190614158565b909155505060028601546003870154106106d557600486015460ff1661068d5760048601805460ff1916600117905561062160038c018b610f5c565b905080610641576040516344a7b48760e11b815260040160405180910390fd5b8a54865460038801546040517fc08568b61a3224ac0d48121f065552f2f645d3777d353bd87291108bc3651494936106809360ff909116928f9261417b565b60405180910390a16106d5565b8a54865460038801546040517f103355808c87614c31e835c1a86487b17b1e54cf36e0ac4469c8d1e892239cbc936106cc9360ff909116928f9261417b565b60405180910390a15b5050505050505050505050565b604051635d3f8a6960e01b815233600482015273__$32813765d87f0bbc231ef494a6a627f37b$__90635d3f8a6990602401602060405180830381865af4158015610731573d6000803e3d6000fd5b505050506040513d601f19601f820116820180604052508101906107559190613fa5565b6107725760405163f0d97f3b60e01b815260040160405180910390fd5b565b600182015480821161079957604051636819a3a960e01b815260040160405180910390fd5b805b828110156108d157600081815260058501602052604081206107bc90610f68565b805190915060005b818110156108725786600601600085815260200190815260200160002060008483815181106107f5576107f56141a4565b60200260200101516001600160a01b03166001600160a01b0316815260200190815260200160002060006108299190613211565b61086983828151811061083e5761083e6141a4565b6020026020010151886005016000878152602001908152602001600020610f7c90919063ffffffff16565b506001016107c4565b50600083815260028088016020908152604080842084815560018101859055928301849055600383018490556004909201805460ff1916905560058901905281209081816108c082826131d2565b50505050826001019250505061079b565b5050600190910155565b856001015485101561090057604051630108e13760e21b815260040160405180910390fd5b8160000361092157604051634e8ac6e560e01b815260040160405180910390fd5b600061092d8383610f91565b9050600061093e6003890188610fa9565b90508061095e57604051630cbd1cd360e11b815260040160405180910390fd5b506040805160a08101825295865260208087019586528682019283526000606088018181526080890182815299825260029a8b0190925291909120955186559351600186015551958401959095555051600382015590516004909101805460ff191691151591909117905550565b60208181015160009081526023825260408082209084015160038201558351805182546001600160401b0319166001600160401b039091161782558084015180519394929391928492610a25926001850192019061324b565b50505060608301516004820180546001600160401b0319166001600160401b039092169190911790556020830151600282015560808301515160005b818110156100ea578260050185608001518281518110610a8357610a836141a4565b6020908102919091018101518254600181810185556000948552929093208151600c909402018054919390929091839160ff1990911690836002811115610acc57610acc613867565b0217905550602082810151805180516001850180546001600160401b0319166001600160401b03909216919091178155818401518051939491938492610b1992600289019291019061324b565b505050602082810151805160028401805460ff191660ff909216919091178155918101519091906003840190610b4f9082614084565b505050506040830151805180516005850180546001600160401b0319166001600160401b03909216919091178155602080830151805194955091938492610b9d92600689019291019061324b565b505050602082810151805160028401805460ff191660ff909216919091178155918101519091906003840190610bd39082614084565b5050505060608301516009830180546001600160401b0319166001600160401b03909216919091179055506080820151600a82015560a0820151600b820190610c1c9082614084565b505050806001019050610a61565b600080806001600160a01b038416610c55576040516370e4510960e01b815260040160405180910390fd5b6040805180820182526012830180546001600160401b03168252601384018054845160208281028201810190965281815260009580860193919290830182828015610cc957602002820191906000526020600020905b81546001600160a01b03168152600190910190602001808311610cab575b50505091909252505060405163aa5106cb60e01b815273__$3fbe32418a9ca7804328967972fb037388$__9263aa5106cb9250610d0a9189906004016141ba565b600060405180830381865af4158015610d27573d6000803e3d6000fd5b505050506040513d6000823e601f3d908101601f19168201604052610d4f919081019061429d565b9050610d5a81610fb5565b935093505050915091565b600354600090600160c01b90046001600160401b031682111561025f5760405163351c700760e01b815260040160405180910390fd5b600082815b81811015610de457858582818110610dba57610dba6141a4565b9050602002810190610dcc91906142d1565b610dda906080013584614158565b9250600101610da0565b5060028301548290811115610e0c57604051631d36ca1560e21b815260040160405180910390fd5b80846002016000828254610e2091906142e7565b90915550506040805180820182526004860180546001600160401b031682526005870180548451602082810282018101909652818152610eb59580860193919290830182828015610e9a57602002820191906000526020600020905b81546001600160a01b03168152600190910190602001808311610e7c575b505050505081525050878790610eb091906142fa565b611149565b505050505050565b60008060008351604103610ef75760208401516040850151606086015160001a610ee988828585611187565b955095509550505050610f03565b50508151600091506002905b9250925092565b6001600160a01b038116600090815260018301602052604081205415155b90505b92915050565b600082610f3e8584611256565b14949350505050565b6000610f28836001600160a01b038416611299565b6000610f2883836112e8565b60606000610f75836113db565b9392505050565b6000610f28836001600160a01b0384166112e8565b60006064610f9f8385614307565b610f28919061431e565b6000610f288383611299565b6040516390ba52cf60e01b815260009081908190602090829073__$3fbe32418a9ca7804328967972fb037388$__906390ba52cf90610ff8908990600401613ed2565b602060405180830381865af4158015611015573d6000803e3d6000fd5b505050506040513d601f19601f820116820180604052508101906110399190614340565b81526020808201929092526040908101600020815180830183526004820180546001600160401b0316825260058301805485518188028101880190965280865293975091949093858201939092918301828280156110c057602002820191906000526020600020905b81546001600160a01b031681526001909101906020018083116110a2575b505050919092525050604051630c133d1360e31b815273__$3fbe32418a9ca7804328967972fb037388$__92636099e89892506110ff91600401613ed2565b602060405180830381865af415801561111c573d6000803e3d6000fd5b505050506040513d601f19601f820116820180604052508101906111409190613fa5565b15925050915091565b805160005b81811015611181576111798484838151811061116c5761116c6141a4565b6020026020010151611437565b60010161114e565b50505050565b600080807f7fffffffffffffffffffffffffffffff5d576e7357a4501ddfe92f46681b20a08411156111c2575060009150600390508261124c565b604080516000808252602082018084528a905260ff891692820192909252606081018790526080810186905260019060a0016020604051602081039080840390855afa158015611216573d6000803e3d6000fd5b5050604051601f1901519150506001600160a01b0381166112425750600092506001915082905061124c565b9250600091508190505b9450945094915050565b600081815b8451811015611291576112878286838151811061127a5761127a6141a4565b6020026020010151611aee565b915060010161125b565b509392505050565b60008181526001830160205260408120546112e057508154600181810184556000848152602080822090930184905584548482528286019093526040902091909155610f2b565b506000610f2b565b600081815260018301602052604081205480156113d157600061130c6001836142e7565b8554909150600090611320906001906142e7565b9050808214611385576000866000018281548110611340576113406141a4565b9060005260206000200154905080876000018481548110611363576113636141a4565b6000918252602080832090910192909255918252600188019052604090208390555b855486908061139657611396614359565b600190038181906000526020600020016000905590558560010160008681526020019081526020016000206000905560019350505050610f2b565b6000915050610f2b565b60608160000180548060200260200160405190810160405280929190818152602001828054801561142b57602002820191906000526020600020905b815481526020019060010190808311611417575b50505050509050919050565b602081015151604051630c133d1360e31b815260009173__$3fbe32418a9ca7804328967972fb037388$__91636099e8989161147591600401613ed2565b602060405180830381865af4158015611492573d6000803e3d6000fd5b505050506040513d601f19601f820116820180604052508101906114b69190613fa5565b156115125761025f82600163bc0f01cf60e01b60016040516024016114db919061436f565b60408051601f198184030181529190526020810180516001600160e01b03166001600160e01b031990931692909217909152611b1d565b604080518082019091526000808252602082015260405163855f7e4560e01b815260009073__$c0560e63386df2470ca6214f90e7038fc9$__9063855f7e45906115659087906012880190600401614499565b602060405180830381865af4158015611582573d6000803e3d6000fd5b505050506040513d601f19601f820116820180604052508101906115a691906144b9565b905060018160018111156115bc576115bc613867565b036117c6576000806115cd87610fb5565b91509150816115df5750505050505050565b60608601516003820154600160401b90046001600160401b0390811691161461162b5761162286600163bc0f01cf60e01b60026040516024016114db919061436f565b50505050505050565b60018160030160088282829054906101000a90046001600160401b031661165291906144d6565b82546101009290920a6001600160401b0381810219909316918316021790915560408051808201825260048501805490931681526005850180548351602080830282018101909552818152929550838601938301828280156116dd57602002820191906000526020600020905b81546001600160a01b031681526001909101906020018083116116bf575b505050919092525050604051632cff562160e11b815273__$3fbe32418a9ca7804328967972fb037388$__926359feac42925061171c91600401613ed2565b602060405180830381865af4158015611739573d6000803e3d6000fd5b505050506040513d601f19601f8201168201806040525081019061175d9190613ee5565b6001600160a01b03166380875df76040518163ffffffff1660e01b81526004016040805180830381865afa158015611799573d6000803e3d6000fd5b505050506040513d601f19601f820116820180604052508101906117bd91906144f5565b9350505061189b565b60008160018111156117da576117da613867565b0361189b5760608401516003840154600160401b90046001600160401b03908116911614611822576100ea84600163bc0f01cf60e01b60026040516024016114db919061436f565b60018360030160088282829054906101000a90046001600160401b031661184991906144d6565b92506101000a8154816001600160401b0302191690836001600160401b031602179055506118986040805180820182526000808252602091820181905282518084019093528083529082015290565b91505b60208401515160405163c836244d60e01b815273__$3fbe32418a9ca7804328967972fb037388$__9163c836244d916118dc91906012880190600401613f67565b602060405180830381865af41580156118f9573d6000803e3d6000fd5b505050506040513d601f19601f8201168201806040525081019061191d9190613fa5565b611aba57600061192c85611bd8565b60008181526022860160205260409020865181549293508792829060ff1916600183600281111561195f5761195f613867565b0217905550602082810151805180516001850180546001600160401b0319166001600160401b039092169190911781558184015180519394919384926119ac92600289019291019061324b565b505050602082810151805160028401805460ff191660ff9092169190911781559181015190919060038401906119e29082614084565b505050506040830151805180516005850180546001600160401b0319166001600160401b03909216919091178155602080830151805194955091938492611a3092600689019291019061324b565b505050602082810151805160028401805460ff191660ff909216919091178155918101519091906003840190611a669082614084565b5050505060608301516009830180546001600160401b0319166001600160401b03909216919091179055506080820151600a82015560a0820151600b820190611aaf9082614084565b505050505050505050565b600080611ac78685611c08565b915091508115611ae257611add86600083611b1d565b611622565b61162286600283611b1d565b6000818310611b0a576000828152602084905260409020610f28565b6000838152602083905260409020610f28565b611b2683611cef565b15611b3057505050565b600283516002811115611b4557611b45613867565b03611b4f57505050565b604051634dbefc2d60e11b81526111819073__$c0560e63386df2470ca6214f90e7038fc9$__90639b7df85a90611b8e90879087908790600401614538565b600060405180830381865af4158015611bab573d6000803e3d6000fd5b505050506040513d6000823e601f3d908101601f19168201604052611bd39190810190614662565b611d1d565b600081604051602001611beb919061483e565b604051602081830303815290604052805190602001209050919050565b6000606073__$c0560e63386df2470ca6214f90e7038fc9$__6001600160a01b0316633f74f18860e01b8585604051602401611c45929190614851565b60408051601f198184030181529181526020820180516001600160e01b03166001600160e01b0319909416939093179092529051611c839190614893565b600060405180830381855af49150503d8060008114611cbe576040519150601f19603f3d011682016040523d82523d6000602084013e611cc3565b606091505b5090925090508115611ce85780806020019051810190611ce391906148a5565b915091505b9250929050565b60008082516002811115611d0557611d05613867565b03611d135750608001511590565b5060a00151511590565b602081015151604051630c133d1360e31b8152600091829173__$3fbe32418a9ca7804328967972fb037388$__90636099e89890611d5f908490600401613ed2565b602060405180830381865af4158015611d7c573d6000803e3d6000fd5b505050506040513d601f19601f82011682018060405250810190611da09190613fa5565b15611dc157600160405163bc0f01cf60e01b815260040161055f919061436f565b60405163c836244d60e01b815273__$3fbe32418a9ca7804328967972fb037388$__9063c836244d90611dfd9084906012870190600401613f67565b602060405180830381865af4158015611e1a573d6000803e3d6000fd5b505050506040513d601f19601f82011682018060405250810190611e3e9190613fa5565b15611e5c57604051632f3335ff60e21b815260040160405180910390fd5b60408085015151905163855f7e4560e01b815260009073__$c0560e63386df2470ca6214f90e7038fc9$__9063855f7e4590611ea19089906012890190600401614499565b602060405180830381865af4158015611ebe573d6000803e3d6000fd5b505050506040513d601f19601f82011682018060405250810190611ee291906144b9565b604051631ccc893360e11b815290915060009073__$3fbe32418a9ca7804328967972fb037388$__90633999126690611f2190879087906004016148f2565b600060405180830381865af4158015611f3e573d6000803e3d6000fd5b505050506040513d6000823e601f3d908101601f19168201604052611f66919081019061429d565b60405163c836244d60e01b815273__$3fbe32418a9ca7804328967972fb037388$__9163c836244d91611fa1919060128a0190600401613f67565b602060405180830381865af4158015611fbe573d6000803e3d6000fd5b505050506040513d601f19601f82011682018060405250810190611fe29190613fa5565b905060006001836001811115611ffa57611ffa613867565b03612193576040516308c7427760e11b815273__$3fbe32418a9ca7804328967972fb037388$__9063118e84ee90612036908790600401613ed2565b600060405180830381865af4158015612053573d6000803e3d6000fd5b505050506040513d6000823e601f3d908101601f1916820160405261207b919081019061429d565b60405163c836244d60e01b815273__$3fbe32418a9ca7804328967972fb037388$__9163c836244d916120b6919060128b0190600401613f67565b602060405180830381865af41580156120d3573d6000803e3d6000fd5b505050506040513d601f19601f820116820180604052508101906120f79190613fa5565b801561218c5750604051632cff562160e11b815261218c9060019073__$3fbe32418a9ca7804328967972fb037388$__906359feac429061213c908990600401613ed2565b602060405180830381865af4158015612159573d6000803e3d6000fd5b505050506040513d601f19601f8201168201806040525081019061217d9190613ee5565b6001600160a01b0316906123af565b905061226d565b60008360018111156121a7576121a7613867565b0361226d5760405163089032d560e01b815261226a9060019073__$3fbe32418a9ca7804328967972fb037388$__9063089032d5906121ef908a9060128d0190600401613f67565b600060405180830381865af415801561220c573d6000803e3d6000fd5b505050506040513d6000823e601f3d908101601f19168201604052612234919081019061429d565b604051632cff562160e11b815273__$3fbe32418a9ca7804328967972fb037388$__916359feac429161213c9190600401613ed2565b90505b80156123145760008851600281111561228857612288613867565b036123145760405163015538b160e01b815260206004820152604f60248201527f70726f7061676174696f6e206f6620605472616e7366657260206d657373616760448201527f6573206e6f742073757070706f7274656420666f72207375626e65747320776960648201526e746820455243323020737570706c7960881b608482015260a40161055f565b600083600181111561232857612328613867565b14806123315750815b156123935760038601805460089061235890600160401b90046001600160401b0316614917565b91906101000a8154816001600160401b0302191690836001600160401b031602179055506123858861243e565b506000979650505050505050565b61239c88612617565b5050506080909401511515949350505050565b60008160018111156123c3576123c3613867565b836001600160a01b03166380875df76040518163ffffffff1660e01b81526004016040805180830381865afa158015612400573d6000803e3d6000fd5b505050506040513d601f19601f8201168201806040525081019061242491906144f5565b51600181111561243657612436613867565b149392505050565b60208101515160405163089032d560e01b8152600091829173__$3fbe32418a9ca7804328967972fb037388$__9163089032d5916124829190601290600401613f67565b600060405180830381865af415801561249f573d6000803e3d6000fd5b505050506040513d6000823e601f3d908101601f191682016040526124c7919081019061429d565b90506000806124d583610fb5565b91509150816124f757604051630e991abd60e41b815260040160405180910390fd5b60038101546001600160401b0316606086018190526125178160016144d6565b6003830180546001600160401b0319166001600160401b03929092169190911790556080860151600283018054600090612552908490614158565b90915550506040516304e384ff60e21b815273__$3fbe32418a9ca7804328967972fb037388$__9063138e13fc9061258e908790600401613ed2565b602060405180830381865af41580156125ab573d6000803e3d6000fd5b505050506040513d601f19601f820116820180604052508101906125cf9190613ee5565b6001600160a01b03167ffdd39ce2560484814971f663392e78ae37dc62ba184b3370d830371dd271a8b787604051612607919061483e565b60405180910390a2505050505050565b600080612628438360010154612f79565b6003830180546001600160401b0316606086018190529192506001916000906126529084906144d6565b92506101000a8154816001600160401b0302191690836001600160401b031602179055506000806126958360009081526024602052604090206002810154151591565b91509150816128795760128401805482546001600160401b0319166001600160401b0390911617825560138501805483916126d5916001840191906132b0565b505050600280820184905560038201805460018181018355600092835260209092208851600c90920201805489949193849260ff1990921691849081111561271f5761271f613867565b0217905550602082810151805180516001850180546001600160401b0319166001600160401b0390921691909117815581840151805193949193849261276c92600289019291019061324b565b505050602082810151805160028401805460ff191660ff9092169190911781559181015190919060038401906127a29082614084565b505050506040830151805180516005850180546001600160401b0319166001600160401b039092169190911781556020808301518051949550919384926127f092600689019291019061324b565b505050602082810151805160028401805460ff191660ff9092169190911781559181015190919060038401906128269082614084565b5050505060608301516009830180546001600160401b0319166001600160401b03909216919091179055506080820151600a82015560a0820151600b82019061286f9082614084565b5050505050505050565b60038481015490820154600160c01b9091046001600160401b03169003612f3a576040805160a0810182526012860180546001600160401b0316606083019081526013880180548551602082810282018101909752818152439660009695869594909360808701939283018282801561291b57602002820191906000526020600020905b81546001600160a01b031681526001909101906020018083116128fd575b505050505081525050815260200183815260200184600301805490506001600160401b0381111561294e5761294e613457565b60405190808252806020026020018201604052801561298757816020015b6129746132f0565b81526020019060019003908161296c5790505b509052600384015490915060005b81811015612d5d578460030181815481106129b2576129b26141a4565b600091825260209091206040805160c08101909152600c909202018054829060ff1660028111156129e5576129e5613867565b60028111156129f6576129f6613867565b8152604080516080810182526001840180546001600160401b0316828401908152600286018054855160208281028201810190975281815296860196949593948694869360608701939091830182828015612a7a57602002820191906000526020600020905b81546001600160a01b03168152600190910190602001808311612a5c575b5050509190925250505081526040805180820190915260028301805460ff16825260038401805460209485019484019190612ab490614009565b80601f0160208091040260200160405190810160405280929190818152602001828054612ae090614009565b8015612b2d5780601f10612b0257610100808354040283529160200191612b2d565b820191906000526020600020905b815481529060010190602001808311612b1057829003601f168201915b505050919092525050509052508152604080516080810182526005840180546001600160401b0316828401908152600686018054855160208281028201810190975281815296860196949593948694869360608701939091830182828015612bbe57602002820191906000526020600020905b81546001600160a01b03168152600190910190602001808311612ba0575b5050509190925250505081526040805180820190915260028301805460ff16825260038401805460209485019484019190612bf890614009565b80601f0160208091040260200160405190810160405280929190818152602001828054612c2490614009565b8015612c715780601f10612c4657610100808354040283529160200191612c71565b820191906000526020600020905b815481529060010190602001808311612c5457829003601f168201915b50505091909252505050905250815260098201546001600160401b03166020820152600a8201546040820152600b82018054606090920191612cb290614009565b80601f0160208091040260200160405190810160405280929190818152602001828054612cde90614009565b8015612d2b5780601f10612d0057610100808354040283529160200191612d2b565b820191906000526020600020905b815481529060010190602001808311612d0e57829003601f168201915b50505050508152505083604001518281518110612d4a57612d4a6141a4565b6020908102919091010152600101612995565b5060405183907f4ecfe3c1ed32ef0a63d3801d51eb20214db90b14dc5fd1ca58a9de54f16f46a690600090a2612d976003850160006131f0565b60038401805460018181018355600092835260209092208a51600c9092020180548b93919291839160ff191690836002811115612dd657612dd6613867565b0217905550602082810151805180516001850180546001600160401b0319166001600160401b03909216919091178155818401518051939491938492612e2392600289019291019061324b565b505050602082810151805160028401805460ff191660ff909216919091178155918101519091906003840190612e599082614084565b505050506040830151805180516005850180546001600160401b0319166001600160401b03909216919091178155602080830151805194955091938492612ea792600689019291019061324b565b505050602082810151805160028401805460ff191660ff909216919091178155918101519091906003840190612edd9082614084565b5050505060608301516009830180546001600160401b0319166001600160401b03909216919091179055506080820151600a82015560a0820151600b820190612f269082614084565b505050612f3282612fa4565b5050506100ea565b60038101805460018181018355600092835260209092208751600c9092020180548893919291839160ff19169083600281111561271f5761271f613867565b600081612f8f816001600160401b03861661431e565b612f9a906001614158565b610f289190614307565b602081810151600090815260248252604081208351805182546001600160401b0319166001600160401b039091161782558084015180519394929391928492612ff3926001850192019061324b565b5050506020830151600282015560408301515160005b818110156100ea57826003018560400151828151811061302b5761302b6141a4565b6020908102919091018101518254600181810185556000948552929093208151600c909402018054919390929091839160ff199091169083600281111561307457613074613867565b0217905550602082810151805180516001850180546001600160401b0319166001600160401b039092169190911781558184015180519394919384926130c192600289019291019061324b565b505050602082810151805160028401805460ff191660ff9092169190911781559181015190919060038401906130f79082614084565b505050506040830151805180516005850180546001600160401b0319166001600160401b0390921691909117815560208083015180519495509193849261314592600689019291019061324b565b505050602082810151805160028401805460ff191660ff90921691909117815591810151909190600384019061317b9082614084565b5050505060608301516009830180546001600160401b0319166001600160401b03909216919091179055506080820151600a82015560a0820151600b8201906131c49082614084565b505050806001019050613009565b50805460008255906000526020600020908101906101c19190613331565b50805460008255600c02906000526020600020908101906101c19190613346565b50805461321d90614009565b6000825580601f1061322d575050565b601f0160209004906000526020600020908101906101c19190613331565b8280548282559060005260206000209081019282156132a0579160200282015b828111156132a057825182546001600160a01b0319166001600160a01b0390911617825560209092019160019091019061326b565b506132ac929150613331565b5090565b8280548282559060005260206000209081019282156132a05760005260206000209182015b828111156132a05782548255916001019190600101906132d5565b6040805160c08101909152806000815260200161330b613412565b8152602001613318613412565b8152600060208201819052604082015260609081015290565b5b808211156132ac5760008155600101613332565b808211156132ac57805460ff191681556001810180546001600160401b031916815560009081818161337b60028701826131d2565b505060028201805460ff1916815560006133986003850182613211565b505050506005820180546001600160401b0319168155600081816133bf60068701826131d2565b505060028201805460ff1916815560006133dc6003850182613211565b505050506009820180546001600160401b03191690556000600a830181905561340990600b840190613211565b50600c01613346565b60408051608081018252600091810191825260608082015290819081526020016134526040518060400160405280600060ff168152602001606081525090565b905290565b634e487b7160e01b600052604160045260246000fd5b604080519081016001600160401b038111828210171561348f5761348f613457565b60405290565b60405160c081016001600160401b038111828210171561348f5761348f613457565b60405160a081016001600160401b038111828210171561348f5761348f613457565b604051601f8201601f191681016001600160401b038111828210171561350157613501613457565b604052919050565b60006001600160401b0382111561352257613522613457565b5060051b60200190565b60006001600160401b0382111561354557613545613457565b50601f01601f191660200190565b600082601f83011261356457600080fd5b81356135776135728261352c565b6134d9565b81815284602083860101111561358c57600080fd5b816020850160208301376000918101602001919091529392505050565b600080600080608085870312156135bf57600080fd5b8435935060208501356001600160401b038111156135dc57600080fd5b8501601f810187136135ed57600080fd5b80356135fb61357282613509565b8082825260208201915060208360051b85010192508983111561361d57600080fd5b6020840193505b8284101561363f578335825260209384019390910190613624565b95505050506040850135915060608501356001600160401b0381111561366457600080fd5b61367087828801613553565b91505092959194509250565b60006020828403121561368e57600080fd5b5035919050565b600060a082840312156136a757600080fd5b50919050565b6000806000606084860312156136c257600080fd5b83356001600160401b038111156136d857600080fd5b6136e486828701613695565b9660208601359650604090950135949350505050565b60006020828403121561370c57600080fd5b81356001600160401b0381111561372257600080fd5b61372e84828501613695565b949350505050565b60008235603e1983360301811261374c57600080fd5b90910192915050565b6001600160401b03811681146101c157600080fd5b803561377581613755565b919050565b6000808335601e1984360301811261379157600080fd5b83016020810192503590506001600160401b038111156137b057600080fd5b8060051b3603821315611ce857600080fd5b6001600160a01b03811681146101c157600080fd5b60006040830182356137e881613755565b6001600160401b03168452613800602084018461377a565b604060208701529182905290600090606086015b81831015613845578335613827816137c2565b6001600160a01b031681526020938401936001939093019201613814565b9695505050505050565b600381106101c157600080fd5b80356137758161384f565b634e487b7160e01b600052602160045260246000fd5b600381106101c1576101c1613867565b60ff811681146101c157600080fd5b6000808335601e198436030181126138b357600080fd5b83016020810192503590506001600160401b038111156138d257600080fd5b803603821315611ce857600080fd5b81835281816020850137506000828201602090810191909152601f909101601f19169091010190565b60006139168283613736565b6040845261392760408501826137d7565b90506139366020840184613736565b848203602086015280356139498161388d565b60ff16825261395b602082018261389c565b9150604060208401526138456040840183836138e1565b6020815260006139828384613736565b60a0602084015261399660c08401826137d7565b60208501356040858101919091528501356060808601919091529091508401356139bf81613755565b6001600160401b0381166080850152506139dc608085018561377a565b848303601f190160a0860152808352602080840190600583901b8501018360003682900360be19015b85821015613ae557878403601f190185528235818112613a2457600080fd5b87018035613a318161384f565b613a3a8161387d565b8552613a496020820182613736565b60c06020870152613a5d60c087018261390a565b9050613a6c6040830183613736565b8682036040880152613a7e828261390a565b9150506060820135613a8f81613755565b6001600160401b0316606087015260808281013590870152613ab460a083018361389c565b925086820360a0880152613ac98284836138e1565b9650505050602083019250602085019450600182019150613a05565b50919998505050505050505050565b600060408284031215613b0657600080fd5b613b0e61346d565b90508135613b1b81613755565b815260208201356001600160401b03811115613b3657600080fd5b8201601f81018413613b4757600080fd5b8035613b5561357282613509565b8082825260208201915060208360051b850101925086831115613b7757600080fd5b6020840193505b82841015613ba2578335613b91816137c2565b825260209384019390910190613b7e565b60208501525091949350505050565b600060408284031215613bc357600080fd5b613bcb61346d565b905081356001600160401b03811115613be357600080fd5b613bef84828501613af4565b82525060208201356001600160401b03811115613c0b57600080fd5b820160408185031215613c1d57600080fd5b613c2561346d565b8135613c308161388d565b815260208201356001600160401b03811115613c4b57600080fd5b613c5786828501613553565b602083015250806020840152505092915050565b6000613c7961357284613509565b838152905060208101600584901b830185811115613c9657600080fd5b835b81811015613d865780356001600160401b03811115613cb657600080fd5b850160c08189031215613cc857600080fd5b613cd0613495565b613cd98261385c565b815260208201356001600160401b03811115613cf457600080fd5b613d008a828501613bb1565b60208301525060408201356001600160401b03811115613d1f57600080fd5b613d2b8a828501613bb1565b604083015250613d3d6060830161376a565b60608201526080828101359082015260a08201356001600160401b03811115613d6557600080fd5b613d718a828501613553565b60a08301525084525060209283019201613c98565b5050509392505050565b600060a08236031215613da257600080fd5b613daa6134b7565b82356001600160401b03811115613dc057600080fd5b613dcc36828601613af4565b82525060208381013590820152604080840135908201526060830135613df181613755565b606082015260808301356001600160401b03811115613e0f57600080fd5b830136601f820112613e2057600080fd5b613e2f36823560208401613c6b565b60808301525092915050565b60008235603e19833603018112613e5157600080fd5b9190910192915050565b6000610f2b3683613af4565b6000604083016001600160401b038351168452602083015160406020860152818151808452606087019150602083019350600092505b80831015613ec85783516001600160a01b031682526020938401936001939093019290910190613e9d565b5095945050505050565b602081526000610f286020830184613e67565b600060208284031215613ef757600080fd5b8151610f75816137c2565b6000604083016001600160401b03835416845260018301604060208601528181548084526060870191508260005260206000209350600092505b80831015613ec85783546001600160a01b031682526001938401939290920191602090910190613f3c565b604081526000613f7a6040830185613e67565b8281036020840152613f8c8185613f02565b95945050505050565b8051801515811461377557600080fd5b600060208284031215613fb757600080fd5b610f2882613f95565b6000808335601e19843603018112613fd757600080fd5b8301803591506001600160401b03821115613ff157600080fd5b6020019150600581901b3603821315611ce857600080fd5b600181811c9082168061401d57607f821691505b6020821081036136a757634e487b7160e01b600052602260045260246000fd5b601f82111561025f57806000526020600020601f840160051c810160208510156140645750805b601f840160051c820191505b818110156100ea5760008155600101614070565b81516001600160401b0381111561409d5761409d613457565b6140b1816140ab8454614009565b8461403d565b6020601f8211600181146140e557600083156140cd5750848201515b600019600385901b1c1916600184901b1784556100ea565b600084815260208120601f198516915b8281101561411557878501518255602094850194600190920191016140f5565b50848210156141335786840151600019600387901b60f8161c191681555b50505050600190811b01905550565b634e487b7160e01b600052601160045260246000fd5b80820180821115610f2b57610f2b614142565b600281106101c1576101c1613867565b608081016141888661416b565b9481526020810193909352604083019190915260609091015290565b634e487b7160e01b600052603260045260246000fd5b6040815260006141cd6040830185613e67565b905060018060a01b03831660208301529392505050565b805161377581613755565b60006040828403121561420157600080fd5b61420961346d565b9050815161421681613755565b815260208201516001600160401b0381111561423157600080fd5b8201601f8101841361424257600080fd5b805161425061357282613509565b8082825260208201915060208360051b85010192508683111561427257600080fd5b6020840193505b82841015613ba257835161428c816137c2565b825260209384019390910190614279565b6000602082840312156142af57600080fd5b81516001600160401b038111156142c557600080fd5b61372e848285016141ef565b6000823560be19833603018112613e5157600080fd5b81810381811115610f2b57610f2b614142565b6000610f28368484613c6b565b8082028115828204841417610f2b57610f2b614142565b60008261433b57634e487b7160e01b600052601260045260246000fd5b500490565b60006020828403121561435257600080fd5b5051919050565b634e487b7160e01b600052603160045260246000fd5b602081016005831061438357614383613867565b91905290565b60005b838110156143a457818101518382015260200161438c565b50506000910152565b600081518084526143c5816020860160208601614389565b601f01601f19169290920160200192915050565b60008151604084526143ee6040850182613e67565b90506020830151848203602086015260ff81511682526020810151905060406020830152613f8c60408301826143ad565b6000815161442c8161387d565b80845250602082015160c0602085015261444960c08501826143d9565b90506040830151848203604086015261446282826143d9565b9150506001600160401b0360608401511660608501526080830151608085015260a083015184820360a0860152613f8c82826143ad565b604081526000613f7a604083018561441f565b600281106101c157600080fd5b6000602082840312156144cb57600080fd5b8151610f75816144ac565b6001600160401b038181168382160190811115610f2b57610f2b614142565b6000604082840312801561450857600080fd5b5061451161346d565b825161451c816144ac565b8152602083015161452c816137c2565b60208201529392505050565b60608152600061454b606083018661441f565b6145548561387d565b846020840152828103604084015261384581856143ad565b80516137758161384f565b600082601f83011261458857600080fd5b81516145966135728261352c565b8181528460208386010111156145ab57600080fd5b61372e826020830160208701614389565b6000604082840312156145ce57600080fd5b6145d661346d565b905081516001600160401b038111156145ee57600080fd5b6145fa848285016141ef565b82525060208201516001600160401b0381111561461657600080fd5b82016040818503121561462857600080fd5b61463061346d565b815161463b8161388d565b815260208201516001600160401b0381111561465657600080fd5b613c5786828501614577565b60006020828403121561467457600080fd5b81516001600160401b0381111561468a57600080fd5b820160c0818503121561469c57600080fd5b6146a4613495565b6146ad8261456c565b815260208201516001600160401b038111156146c857600080fd5b6146d4868285016145bc565b60208301525060408201516001600160401b038111156146f357600080fd5b6146ff868285016145bc565b604083015250614711606083016141e4565b60608201526080828101519082015260a08201516001600160401b0381111561473957600080fd5b61474586828501614577565b60a083015250949350505050565b60ff8151168252600060208201516040602085015261372e60408501826143ad565b6000815160408452608084016001600160401b038251166040860152602082015191506040606086015280825180835260a087019150602084019350600092505b808310156147e15783516001600160a01b0316825260209384019360019390930192909101906147b6565b506020850151925085810360208701526138458184614753565b600081516148088161387d565b80845250602082015160c0602085015261482560c0850182614775565b9050604083015184820360408601526144628282614775565b602081526000610f2860208301846147fb565b60608152600061486460608301856147fb565b905082516148718161416b565b60208381019190915292909201516001600160a01b0316604090910152919050565b60008251613e51818460208701614389565b600080604083850312156148b857600080fd5b6148c183613f95565b915060208301516001600160401b038111156148dc57600080fd5b6148e885828601614577565b9150509250929050565b6040815260006149056040830185613e67565b8281036020840152613f8c8185613e67565b60006001600160401b0382166001600160401b03810361493957614939614142565b6001019291505056fea2646970667358221220245dc5f1a559a67d876a40625b03c99dc88273be6ddaa47d51163cc552e3b50b64736f6c634300081a0033","linkReferences":{"contracts/lib/AccountHelper.sol":{"AccountHelper":[{"start":1814,"length":20}]},"contracts/lib/CrossMsgHelper.sol":{"CrossMsgHelper":[{"start":5463,"length":20},{"start":7041,"length":20},{"start":7213,"length":20},{"start":7827,"length":20}]},"contracts/lib/SubnetIDHelper.sol":{"SubnetIDHelper":[{"start":678,"length":20},{"start":900,"length":20},{"start":3328,"length":20},{"start":4079,"length":20},{"start":4343,"length":20},{"start":5230,"length":20},{"start":5908,"length":20},{"start":6351,"length":20},{"start":7510,"length":20},{"start":7663,"length":20},{"start":7958,"length":20},{"start":8084,"length":20},{"start":8237,"length":20},{"start":8361,"length":20},{"start":8499,"length":20},{"start":8673,"length":20},{"start":8802,"length":20},{"start":9335,"length":20},{"start":9605,"length":20}]}}},"methodIdentifiers":{"addCheckpointSignature(uint256,bytes32[],uint256,bytes)":"53b4e7bf","commitCheckpoint(((uint64,address[]),uint256,bytes32,uint64,(uint8,((uint64,address[]),(uint8,bytes)),((uint64,address[]),(uint8,bytes)),uint64,uint256,bytes)[]))":"fba0fa4d","createBottomUpCheckpoint(((uint64,address[]),uint256,bytes32,uint64,(uint8,((uint64,address[]),(uint8,bytes)),((uint64,address[]),(uint8,bytes)),uint64,uint256,bytes)[]),bytes32,uint256)":"dc749b05","pruneBottomUpCheckpoints(uint256)":"ac818379"},"id":14}