{
  "_format": "hh-sol-artifact-1",
  "contractName": "LibStorageStakingGetters",
  "sourceName": "contracts/lib/LibStorageStaking.sol",
  "abi": [
    {
      "inputs": [],
      "name": "getTotalConfirmedStorage",
      "outputs": [
        {
          "internalType": "uint256",
          "name": "totalStorage",
          "type": "uint256"
        }
      ],
      "stateMutability": "view",
      "type": "function"
    },
    {
      "inputs": [
        {
          "internalType": "address",
          "name": "validator",
          "type": "address"
        }
      ],
      "name": "hasStorage",
      "outputs": [
        {
          "internalType": "bool",
          "name": "",
          "type": "bool"
        }
      ],
      "stateMutability": "view",
      "type": "function"
    },
    {
      "inputs": [
        {
          "internalType": "address",
          "name": "validator",
          "type": "address"
        }
      ],
      "name": "totalValidatorStorage",
      "outputs": [
        {
          "internalType": "uint256",
          "name": "",
          "type": "uint256"
        }
      ],
      "stateMutability": "view",
      "type": "function"
    }
  ],
  "bytecode": "0x6080806040523461001a5761011c9081610020823930815050f35b600080fdfe60806040526004361015601157600080fd5b6000803560e01c80631886157b14609e5780638a8c9ff9146054576395b7215e14603a57600080fd5b806003193601126051576020601454604051908152f35b80fd5b506020366003190112605157600435906001600160a01b03821682036051576020600460928460018060a01b0316600052600d602052604060002090565b01541515604051908152f35b506020366003190112605157600435906001600160a01b03821682036051576020600460dc8460018060a01b0316600052600d602052604060002090565b0154604051908152f3fea2646970667358221220ed566c33922d3f4fbcfc39767ef0ed66796cd7fc80f5cf1a016965c6880dc91c64736f6c63430008170033",
  "linkReferences": {},
  "deployedLinkReferences": {}
}