{"abi":[{"type":"function","name":"DELEGATED","inputs":[],"outputs":[{"name":"","type":"uint8","internalType":"uint8"}],"stateMutability":"view"},{"type":"function","name":"EAM_ACTOR","inputs":[],"outputs":[{"name":"","type":"uint64","internalType":"uint64"}],"stateMutability":"view"},{"type":"function","name":"PAYLOAD_HASH_LEN","inputs":[],"outputs":[{"name":"","type":"uint8","internalType":"uint8"}],"stateMutability":"view"},{"type":"function","name":"SECP256K1","inputs":[],"outputs":[{"name":"","type":"uint8","internalType":"uint8"}],"stateMutability":"view"},{"type":"error","name":"NotDelegatedEvmAddress","inputs":[]}],"bytecode":{"object":"0x60d7610038600b82828239805160001a607314602b57634e487b7160e01b600052600060045260246000fd5b30600052607381538281f3fe730000000000000000000000000000000000000000301460806040526004361060515760003560e01c80635279ff991460565780639c6e06c014607b578063ab528f21146093578063cf8e4a6e14609a575b600080fd5b605d600a81565b60405167ffffffffffffffff90911681526020015b60405180910390f35b6082600481565b60405160ff90911681526020016072565b6082600181565b608260148156fea264697066735822122022b129a668927d487f6279114c53b298a9582afe8f23c97ad15fc6d7ac18891c64736f6c634300081a0033","linkReferences":{}},"methodIdentifiers":{"DELEGATED()":"9c6e06c0","EAM_ACTOR()":"5279ff99","PAYLOAD_HASH_LEN()":"cf8e4a6e","SECP256K1()":"ab528f21"},"id":26}