{"abi":[{"type":"function","name":"getGateway","inputs":[],"outputs":[{"name":"","type":"address","internalType":"address"}],"stateMutability":"view"},{"type":"function","name":"getSubnetActorCheckpointerFacet","inputs":[],"outputs":[{"name":"","type":"address","internalType":"address"}],"stateMutability":"view"},{"type":"function","name":"getSubnetActorCheckpointerSelectors","inputs":[],"outputs":[{"name":"","type":"bytes4[]","internalType":"bytes4[]"}],"stateMutability":"view"},{"type":"function","name":"getSubnetActorGetterFacet","inputs":[],"outputs":[{"name":"","type":"address","internalType":"address"}],"stateMutability":"view"},{"type":"function","name":"getSubnetActorGetterSelectors","inputs":[],"outputs":[{"name":"","type":"bytes4[]","internalType":"bytes4[]"}],"stateMutability":"view"},{"type":"function","name":"getSubnetActorManagerFacet","inputs":[],"outputs":[{"name":"","type":"address","internalType":"address"}],"stateMutability":"view"},{"type":"function","name":"getSubnetActorManagerSelectors","inputs":[],"outputs":[{"name":"","type":"bytes4[]","internalType":"bytes4[]"}],"stateMutability":"view"},{"type":"function","name":"getSubnetActorPauserFacet","inputs":[],"outputs":[{"name":"","type":"address","internalType":"address"}],"stateMutability":"view"},{"type":"function","name":"getSubnetActorPauserSelectors","inputs":[],"outputs":[{"name":"","type":"bytes4[]","internalType":"bytes4[]"}],"stateMutability":"view"},{"type":"function","name":"getSubnetActorRewarderFacet","inputs":[],"outputs":[{"name":"","type":"address","internalType":"address"}],"stateMutability":"view"},{"type":"function","name":"getSubnetActorRewarderSelectors","inputs":[],"outputs":[{"name":"","type":"bytes4[]","internalType":"bytes4[]"}],"stateMutability":"view"},{"type":"function","name":"getSubnetDeployedByNonce","inputs":[{"name":"owner","type":"address","internalType":"address"},{"name":"nonce","type":"uint64","internalType":"uint64"}],"outputs":[{"name":"subnet","type":"address","internalType":"address"}],"stateMutability":"view"},{"type":"function","name":"getUserLastNonce","inputs":[{"name":"user","type":"address","internalType":"address"}],"outputs":[{"name":"nonce","type":"uint64","internalType":"uint64"}],"stateMutability":"view"},{"type":"function","name":"latestSubnetDeployed","inputs":[{"name":"owner","type":"address","internalType":"address"}],"outputs":[{"name":"subnet","type":"address","internalType":"address"}],"stateMutability":"view"},{"type":"function","name":"updateReferenceSubnetContract","inputs":[{"name":"newGetterFacet","type":"address","internalType":"address"},{"name":"newManagerFacet","type":"address","internalType":"address"},{"name":"newSubnetGetterSelectors","type":"bytes4[]","internalType":"bytes4[]"},{"name":"newSubnetManagerSelectors","type":"bytes4[]","internalType":"bytes4[]"}],"outputs":[],"stateMutability":"nonpayable"},{"type":"error","name":"CannotFindSubnet","inputs":[]},{"type":"error","name":"FacetCannotBeZero","inputs":[]},{"type":"error","name":"NotOwner","inputs":[]}],"bytecode":{"object":"0x6080604052348015600f57600080fd5b506109418061001f6000396000f3fe608060405234801561001057600080fd5b50600436106100f55760003560e01c8063540b5ad611610097578063967ba53711610066578063967ba537146101d45780639836b75f146101dc578063a372bf30146101ef578063a46d044d1461020057600080fd5b8063540b5ad6146101a257806354a4eddb146101b357806362c9d7fb146101bb57806389bba299146101cc57600080fd5b80631163dca5116100d35780631163dca5146101655780631b0766c31461017857806342bf3cc1146101805780634d7115141461019157600080fd5b8063030f6051146100fa5780630be061111461012b5780630f5849d114610150575b600080fd5b61010d610108366004610776565b610215565b60405167ffffffffffffffff90911681526020015b60405180910390f35b6001546001600160a01b03165b6040516001600160a01b039091168152602001610122565b61015861025e565b6040516101229190610798565b610138610173366004610776565b6102e6565b61015861037f565b6000546001600160a01b0316610138565b6005546001600160a01b0316610138565b6003546001600160a01b0316610138565b6101586103e6565b6004546001600160a01b0316610138565b61015861044d565b6101586104b4565b6101386101ea3660046107e5565b61051b565b6002546001600160a01b0316610138565b61021361020e366004610875565b61059d565b005b6001600160a01b03811660009081526012602052604081205467ffffffffffffffff16908190036102595760405163276e74a760e11b815260040160405180910390fd5b919050565b60606000600a018054806020026020016040519081016040528092919081815260200182805480156102dc57602002820191906000526020600020906000905b82829054906101000a900460e01b6001600160e01b0319168152602001906004019060208260030104928301926001038202915080841161029e5790505b5050505050905090565b6001600160a01b03811660009081526012602052604081205467ffffffffffffffff168082036103295760405163276e74a760e11b815260040160405180910390fd5b6001600160a01b03808416600090815260116020908152604080832067ffffffffffffffff86168452909152902054169150816103795760405163276e74a760e11b815260040160405180910390fd5b50919050565b606060006009018054806020026020016040519081016040528092919081815260200182805480156102dc576000918252602091829020805460e01b6001600160e01b031916845290820283019290916004910180841161029e5790505050505050905090565b60606000600b018054806020026020016040519081016040528092919081815260200182805480156102dc576000918252602091829020805460e01b6001600160e01b031916845290820283019290916004910180841161029e5790505050505050905090565b60606000600d018054806020026020016040519081016040528092919081815260200182805480156102dc576000918252602091829020805460e01b6001600160e01b031916845290820283019290916004910180841161029e5790505050505050905090565b60606000600c018054806020026020016040519081016040528092919081815260200182805480156102dc576000918252602091829020805460e01b6001600160e01b031916845290820283019290916004910180841161029e5790505050505050905090565b60008167ffffffffffffffff166000036105485760405163276e74a760e11b815260040160405180910390fd5b506001600160a01b03808316600090815260116020908152604080832067ffffffffffffffff8616845290915290205416806105975760405163276e74a760e11b815260040160405180910390fd5b92915050565b6105a5610645565b6001600160a01b0386166105cc576040516307a0435160e51b815260040160405180910390fd5b6001600160a01b0385166105f3576040516307a0435160e51b815260040160405180910390fd5b600180546001600160a01b038089166001600160a01b031992831617909255600280549288169290911691909117905561062f60098585610694565b5061063c600a8383610694565b50505050505050565b7f806e0cbb9fce296bbc336a48f42bf1dbc69722d18d90d6fe705b7582c2bb4bd2600301546001600160a01b03163314610692576040516330cd747160e01b815260040160405180910390fd5b565b8280548282559060005260206000209060070160089004810192821561073a5791602002820160005b838211156107085783356001600160e01b03191683826101000a81548163ffffffff021916908360e01c021790555092602001926004016020816003010492830192600103026106bd565b80156107385782816101000a81549063ffffffff0219169055600401602081600301049283019260010302610708565b505b5061074692915061074a565b5090565b5b80821115610746576000815560010161074b565b80356001600160a01b038116811461025957600080fd5b60006020828403121561078857600080fd5b6107918261075f565b9392505050565b602080825282518282018190526000918401906040840190835b818110156107da5783516001600160e01b0319168352602093840193909201916001016107b2565b509095945050505050565b600080604083850312156107f857600080fd5b6108018361075f565b9150602083013567ffffffffffffffff8116811461081e57600080fd5b809150509250929050565b60008083601f84011261083b57600080fd5b50813567ffffffffffffffff81111561085357600080fd5b6020830191508360208260051b850101111561086e57600080fd5b9250929050565b6000806000806000806080878903121561088e57600080fd5b6108978761075f565b95506108a56020880161075f565b9450604087013567ffffffffffffffff8111156108c157600080fd5b6108cd89828a01610829565b909550935050606087013567ffffffffffffffff8111156108ed57600080fd5b6108f989828a01610829565b979a969950949750929593949250505056fea2646970667358221220f069ecaf7816fc20fd67825174f8e12b0479dff95f2ffd02720e4639986ed8ba64736f6c634300081a0033","linkReferences":{}},"methodIdentifiers":{"getGateway()":"42bf3cc1","getSubnetActorCheckpointerFacet()":"62c9d7fb","getSubnetActorCheckpointerSelectors()":"967ba537","getSubnetActorGetterFacet()":"0be06111","getSubnetActorGetterSelectors()":"1b0766c3","getSubnetActorManagerFacet()":"a372bf30","getSubnetActorManagerSelectors()":"0f5849d1","getSubnetActorPauserFacet()":"4d711514","getSubnetActorPauserSelectors()":"89bba299","getSubnetActorRewarderFacet()":"540b5ad6","getSubnetActorRewarderSelectors()":"54a4eddb","getSubnetDeployedByNonce(address,uint64)":"9836b75f","getUserLastNonce(address)":"030f6051","latestSubnetDeployed(address)":"1163dca5","updateReferenceSubnetContract(address,address,bytes4[],bytes4[])":"a46d044d"},"id":54}