{
  "_format": "hh-sol-artifact-1",
  "contractName": "AccountHelper",
  "sourceName": "contracts/lib/AccountHelper.sol",
  "abi": [
    {
      "inputs": [
        {
          "internalType": "address",
          "name": "_address",
          "type": "address"
        }
      ],
      "name": "isSystemActor",
      "outputs": [
        {
          "internalType": "bool",
          "name": "",
          "type": "bool"
        }
      ],
      "stateMutability": "pure",
      "type": "function"
    }
  ],
  "bytecode": "0x60808060405234601857608e908161001e823930815050f35b600080fdfe6080806040526004361015601257600080fd5b60003560e01c635d3f8a6914602657600080fd5b60203660031901126053576004356001600160a01b038116919082900360535760209160ff60981b148152f35b600080fdfea2646970667358221220b1e456304f38da787aa3b761ab58b0756afb695be8fbcb194db35bc03d4b155764736f6c63430008170033",
  "linkReferences": {},
  "deployedLinkReferences": {}
}