{"abi":[{"type":"function","name":"applyFinalityChanges","inputs":[],"outputs":[{"name":"","type":"uint64","internalType":"uint64"}],"stateMutability":"nonpayable"},{"type":"function","name":"commitParentFinality","inputs":[{"name":"finality","type":"tuple","internalType":"struct ParentFinality","components":[{"name":"height","type":"uint256","internalType":"uint256"},{"name":"blockHash","type":"bytes32","internalType":"bytes32"}]}],"outputs":[{"name":"hasCommittedBefore","type":"bool","internalType":"bool"},{"name":"previousFinality","type":"tuple","internalType":"struct ParentFinality","components":[{"name":"height","type":"uint256","internalType":"uint256"},{"name":"blockHash","type":"bytes32","internalType":"bytes32"}]}],"stateMutability":"nonpayable"},{"type":"function","name":"getTrackerConfigurationNumbers","inputs":[],"outputs":[{"name":"","type":"uint64","internalType":"uint64"},{"name":"","type":"uint64","internalType":"uint64"}],"stateMutability":"view"},{"type":"function","name":"storeValidatorChanges","inputs":[{"name":"changeRequests","type":"tuple[]","internalType":"struct StakingChangeRequest[]","components":[{"name":"change","type":"tuple","internalType":"struct StakingChange","components":[{"name":"op","type":"uint8","internalType":"enum StakingOperation"},{"name":"payload","type":"bytes","internalType":"bytes"},{"name":"validator","type":"address","internalType":"address"}]},{"name":"configurationNumber","type":"uint64","internalType":"uint64"}]}],"outputs":[],"stateMutability":"nonpayable"},{"type":"event","name":"ActiveValidatorCollateralUpdated","inputs":[{"name":"validator","type":"address","indexed":false,"internalType":"address"},{"name":"newPower","type":"uint256","indexed":false,"internalType":"uint256"}],"anonymous":false},{"type":"event","name":"ActiveValidatorLeft","inputs":[{"name":"validator","type":"address","indexed":false,"internalType":"address"}],"anonymous":false},{"type":"event","name":"ActiveValidatorReplaced","inputs":[{"name":"oldValidator","type":"address","indexed":false,"internalType":"address"},{"name":"newValidator","type":"address","indexed":false,"internalType":"address"}],"anonymous":false},{"type":"event","name":"MembershipUpdated","inputs":[{"name":"","type":"tuple","indexed":false,"internalType":"struct Membership","components":[{"name":"validators","type":"tuple[]","internalType":"struct Validator[]","components":[{"name":"weight","type":"uint256","internalType":"uint256"},{"name":"addr","type":"address","internalType":"address"},{"name":"metadata","type":"bytes","internalType":"bytes"},{"name":"storageAmount","type":"uint256","internalType":"uint256"}]},{"name":"configurationNumber","type":"uint64","internalType":"uint64"}]}],"anonymous":false},{"type":"event","name":"NewActiveValidator","inputs":[{"name":"validator","type":"address","indexed":false,"internalType":"address"},{"name":"power","type":"uint256","indexed":false,"internalType":"uint256"}],"anonymous":false},{"type":"event","name":"NewWaitingValidator","inputs":[{"name":"validator","type":"address","indexed":false,"internalType":"address"},{"name":"power","type":"uint256","indexed":false,"internalType":"uint256"}],"anonymous":false},{"type":"event","name":"WaitingValidatorCollateralUpdated","inputs":[{"name":"validator","type":"address","indexed":false,"internalType":"address"},{"name":"newPower","type":"uint256","indexed":false,"internalType":"uint256"}],"anonymous":false},{"type":"event","name":"WaitingValidatorLeft","inputs":[{"name":"validator","type":"address","indexed":false,"internalType":"address"}],"anonymous":false},{"type":"error","name":"AddressShouldBeValidator","inputs":[]},{"type":"error","name":"CannotConfirmFutureChanges","inputs":[]},{"type":"error","name":"InvalidConfigurationNumber","inputs":[]},{"type":"error","name":"NotSystemActor","inputs":[]},{"type":"error","name":"OldConfigurationNumber","inputs":[]},{"type":"error","name":"PQDoesNotContainAddress","inputs":[]},{"type":"error","name":"PQEmpty","inputs":[]},{"type":"error","name":"ParentFinalityAlreadyCommitted","inputs":[]}],"bytecode":{"object":"0x6080604052348015600f57600080fd5b506127798061001f6000396000f3fe608060405234801561001057600080fd5b506004361061004c5760003560e01c80630df144611461005157806311196974146100765780638fbe0b7c146100ad578063e49a547d146100d7575b600080fd5b6100596100ec565b6040516001600160401b0390911681526020015b60405180910390f35b61008961008436600461205a565b610354565b6040805192151583528151602080850191909152909101519082015260600161006d565b601e54604080516001600160401b038084168252600160401b90930490921660208301520161006d565b6100ea6100e5366004612075565b610389565b005b60006100f66103a1565b601e54600090610111906001906001600160401b0316612100565b601e54909150600160401b90046001600160401b031661013282600161211f565b6001600160401b03160361014857600091505090565b610153601482610433565b600061015f601461077b565b80519091506000816001600160401b0381111561017e5761017e61213e565b6040519080825280602002602001820160405280156101e357816020015b6101d060405180608001604052806000815260200160006001600160a01b0316815260200160608152602001600081525090565b81526020019060019003908161019c5790505b50905060005b8281101561032457600084828151811061020557610205612154565b6020908102919091018101516001600160a01b038116600090815260169092526040822080546001820154929450909291610240919061216a565b90506040518060800160405280828152602001846001600160a01b031681526020018360030180546102719061217d565b80601f016020809104026020016040519081016040528092919081815260200182805461029d9061217d565b80156102ea5780601f106102bf576101008083540402835291602001916102ea565b820191906000526020600020905b8154815290600101906020018083116102cd57829003601f168201915b50505050508152602001600081525085858151811061030b5761030b612154565b60200260200101819052508360010193505050506101e9565b5061034b6040518060400160405280838152602001866001600160401b0316815250610850565b50919250505090565b60408051808201909152600080825260208201819052906103736103a1565b61037c83610c5e565b8051151594909350915050565b6103916103a1565b61039d60148383610ce2565b5050565b604051635d3f8a6960e01b815233600482015273__$32813765d87f0bbc231ef494a6a627f37b$__90635d3f8a6990602401602060405180830381865af41580156103f0573d6000803e3d6000fd5b505050506040513d601f19601f8201168201806040525081019061041491906121b7565b6104315760405163f0d97f3b60e01b815260040160405180910390fd5b565b600a8201546001600160401b03908116908216106104645760405163040aaa0560e11b815260040160405180910390fd5b600a8201546001600160401b03600160401b90910481169082161015610488575050565b600a820154600160401b90046001600160401b0316805b826001600160401b0316816001600160401b0316116107365760006104c7600a860183610d32565b60028181015482549293506001600160a01b03169160ff1660058111156104f0576104f06121d9565b03610525576001600160a01b0381166000908152600287016020526040902060030161051f6001840182612236565b5061071f565b6003825460ff16600581111561053d5761053d6121d9565b03610624576000808360010180546105549061217d565b80601f01602080910402602001604051908101604052809291908181526020018280546105809061217d565b80156105cd5780601f106105a2576101008083540402835291602001916105cd565b820191906000526020600020905b8154815290600101906020018083116105b057829003601f168201915b50505050508060200190518101906105e59190612339565b6001600160a01b038516600090815260028b0160205260409020919350915060030161061183826123f5565b5061061d888483610d53565b505061071f565b60008260010180546106359061217d565b80601f01602080910402602001604051908101604052809291908181526020018280546106619061217d565b80156106ae5780601f10610683576101008083540402835291602001916106ae565b820191906000526020600020905b81548152906001019060200180831161069157829003601f168201915b50505050508060200190518101906106c691906124ab565b90506001835460ff1660058111156106e0576106e06121d9565b036106f5576106f0878383610da3565b61071d565b6000835460ff16600581111561070d5761070d6121d9565b0361071d5761071d878383610e98565b505b61072c600a870184610f0b565b505060010161049f565b5061074282600161211f565b600a90930180546001600160401b0394909416600160401b026fffffffffffffffff000000000000000019909416939093179092555050565b6060600061078e836003015461ffff1690565b90508061ffff166001600160401b038111156107ac576107ac61213e565b6040519080825280602002602001820160405280156107d5578160200160208202803683370190505b50915060015b8161ffff168161ffff16116108495761ffff811660009081526005850160205260409020546001600160a01b0316836108156001846124c4565b61ffff168151811061082957610829612154565b6001600160a01b03909216602092830291909101909101526001016107db565b5050919050565b7f28dc92982ddd607ed165d68a2b331220b7255c947b2c12f2b539a121770821f98160405161087f9190612589565b60405180910390a16008546000906001600160401b031615610a3a57600a81015460208301516001600160401b039182169116036108bb575050565b600a81015460208301516001600160401b03918216911610156108f157604051633746be2560e11b815260040160405180910390fd5b60408051600783018054606060208202840181018552938301818152610a31948794939284929184919060009085015b82821015610a0f57600084815260209081902060408051608081018252600486029092018054835260018101546001600160a01b031693830193909352600283018054929392918401916109749061217d565b80601f01602080910402602001604051908101604052809291908181526020018280546109a09061217d565b80156109ed5780601f106109c2576101008083540402835291602001916109ed565b820191906000526020600020905b8154815290600101906020018083116109d057829003601f168201915b5050505050815260200160038201548152505081526020019060010190610921565b50505090825250600191909101546001600160401b0316602090910152610f52565b15610a3a575050565b6007810180546009830190610a529082908490611f32565b506001918201549101805467ffffffffffffffff19166001600160401b03909216919091179055815151600782015460005b82811015610bbd5781811015610b2b578451805182908110610aa857610aa8612154565b6020026020010151846007016000018281548110610ac857610ac8612154565b6000918252602091829020835160049290920201908155908201516001820180546001600160a01b0319166001600160a01b0390921691909117905560408201516002820190610b1890826123f5565b5060608201518160030155905050610bb5565b8451805160078601919083908110610b4557610b45612154565b60209081029190910181015182546001808201855560009485529383902082516004909202019081559181015192820180546001600160a01b0319166001600160a01b039094169390931790925560408201516002820190610ba790826123f5565b506060820151816003015550505b600101610a84565b50602084015160088401805467ffffffffffffffff19166001600160401b0390921691909117905581811115610c5857815b81811015610c565760078401805480610c0a57610c0a6125c4565b6000828152602081206004600019909301928302018181556001810180546001600160a01b031916905590610c426002830182611fcf565b506000600391909101559055600101610bef565b505b50505050565b60408051808201909152600080825260208201819052805483358110610c975760405163153ad84160e11b815260040160405180910390fd5b60009081526021820160208181526040808420815180830183528154815260019182015481850152883580875294845291909420838155969091013595909201949094559290555090565b806000819003610cf25750505050565b60005b81811015610c5657610d2a85858584818110610d1357610d13612154565b9050602002810190610d2591906125da565b611012565b600101610cf5565b6001600160401b038116600090815260018301602052604090205b92915050565b6001600160a01b03821660009081526002840160205260409020805490829055818103610d805750505050565b81811015610d9857610d938484846110eb565b610c58565b610c58848484611338565b6001600160a01b0382166000908152600284016020526040812060010154610dcc9083906125fa565b6001600160a01b038416600090815260028087016020526040909120015490915081158015610df9575080155b15610e4c576001600160a01b03841660009081526002808701602052604082208281556001810183905590810182905590610e376003830182611fcf565b50600060048201819055600590910155610e6d565b6001600160a01b038416600090815260028601602052604090206001018290555b610e78858584611338565b82856001016000828254610e8c91906125fa565b90915550505050505050565b6001600160a01b0382166000908152600284016020526040812060010154610ec190839061216a565b6001600160a01b038416600090815260028601602052604081206001908101839055860180549293508492909190610efa90849061216a565b90915550610c5890508484836110eb565b6001600160401b0381166000908152600180840160205260408220805460ff191681559190610f3c90830182611fcf565b5060020180546001600160a01b03191690555050565b600081602001516001600160401b031683602001516001600160401b031614610f7d57506000610d4d565b610f86826115e8565b610f8f846115e8565b14610f9c57506000610d4d565b81515183515114610faf57506000610d4d565b8251604051600091610fc39160200161260d565b60408051601f198184030181529082905280516020918201208551909350600092610fee920161260d565b60408051601f19818403018152919052805160209091012091909114949350505050565b60006110a36110218380612620565b611032906060810190604001612636565b61103c8480612620565b61104a90602081019061265f565b6110548580612620565b611062906020810190612680565b8080601f01602080910402602001604051908101604052809392919081815260200183838082843760009201919091525050600a8901949392915050611636565b90506110b560408301602084016126c6565b6001600160401b0316816001600160401b0316146110e657604051631aba532960e21b815260040160405180910390fd5b505050565b6110f8600384018361172d565b156111535761110b600384018484611756565b604080516001600160a01b0384168152602081018390527f143db27bc2036653dc6f962ff9d0b803163d4af50c256ca9e6927b3d6dcd019791015b60405180910390a1505050565b825461ffff610100909104166000611170600386015461ffff1690565b90508061ffff168261ffff1611156111da5761119060038601868661177e565b604080516001600160a01b0386168152602081018590527f2e8038f5812f763c6ef0c5427cb5a05ce6d7064af2ba7d1d270bc02660b019fd91015b60405180910390a15050505050565b6000806111ea6003880188611804565b915091508481101561128c576112036003880188611846565b611210600688018761172d565b15611223576112236006880188886118a4565b61123160038801888861177e565b61123f60068801888461193c565b604080516001600160a01b038085168252881660208201527ffaeb8de771b867cf357f6b459a7002b62ec45d544a8078a3ecd91200cc826d7591015b60405180910390a150505050505050565b611299600688018761172d565b156112eb576112ac6006880188886119c2565b604080516001600160a01b0388168152602081018790527fda148fac2e1063174be7bc0895576bdaba90fd14e575463fa26a967cb895cadd910161127b565b6112f960068801888861193c565b604080516001600160a01b0388168152602081018790527f19fe3ca603e87854a0747cc10abf06bac64d61bac73d6d15f2fd3ca448f15264910161127b565b611345600684018361172d565b156113e65780600003611399576113606006840184846118a4565b6040516001600160a01b03831681527f3168ba660eed6ef1dc2258b2247cc05fd0f2f350d39e6ad2e2ebc76a8000b40b90602001611146565b6113a76006840184846119dc565b604080516001600160a01b0384168152602081018390527fda148fac2e1063174be7bc0895576bdaba90fd14e575463fa26a967cb895cadd9101611146565b6113f3600384018361172d565b61141057604051632a55ca5360e01b815260040160405180910390fd5b806000036114df57611426600384018484611a04565b6040516001600160a01b03831681527f4a4c5d1a281180eea1e99d8177fa4798b9f7e019d5c57e7d8d73c6a22199aa5b9060200160405180910390a1600683015461ffff16156110e6576000806114806006860186611804565b90925090506114926006860186611a94565b6114a060038601868461177e565b604080516001600160a01b0384168152602081018390527f2e8038f5812f763c6ef0c5427cb5a05ce6d7064af2ba7d1d270bc02660b019fd91016111cb565b6114ed600384018484611af2565b600683015461ffff1660000361150257505050565b6000806115126003860186611804565b90925090506000806115276006880188611804565b91509150808310156115a9576115406003880188611846565b61154d6006880188611a94565b61155b60038801888461177e565b61156960068801888661193c565b604080516001600160a01b038087168252841660208201527ffaeb8de771b867cf357f6b459a7002b62ec45d544a8078a3ecd91200cc826d75910161127b565b604080516001600160a01b0388168152602081018790527f143db27bc2036653dc6f962ff9d0b803163d4af50c256ca9e6927b3d6dcd0197910161127b565b80515160009081805b8281101561162e57845180518290811061160d5761160d612154565b60200260200101516000015182611624919061216a565b91506001016115f1565b509392505050565b835460408051606081019091526001600160401b039091169080846005811115611662576116626121d9565b815260208082018590526001600160a01b0387166040928301526001600160401b03841660009081526001808a01909252919091208251815491929091839160ff19909116908360058111156116ba576116ba6121d9565b0217905550602082015160018201906116d390826123f5565b5060409190910151600290910180546001600160a01b0319166001600160a01b0390921691909117905561170881600161211f565b855467ffffffffffffffff19166001600160401b039190911617909455509192915050565b6001600160a01b038116600090815260018301602052604081205461ffff1615155b9392505050565b60006117628483611b0c565b905060006117708484611b4c565b9050610c5685858484611baf565b82546000906117929061ffff1660016126ef565b6001600160a01b03831660008181526001870160209081526040808320805461ffff871661ffff19918216811790925581855260028b0190935290832080546001600160a01b03191690941790935587541690911786559091506117f68484611b4c565b9050610c5685858484611c49565b60008061181084611c8d565b600160009081526002850160205260408120546001600160a01b0316906118378583611b4c565b919350909150505b9250929050565b61184f82611c8d565b815461ffff1661186183600183611cb6565b61186c6001826124c4565b835461ffff191661ffff919091161783556118878382611d6b565b600061189584846001611db0565b9050610c588484600184611baf565b60006118b08483611b0c565b845490915061ffff166118c4858383611cb6565b6118cf6001826124c4565b855461ffff191661ffff919091161785556118ea8582611d6b565b8161ffff168161ffff1603611900575050505050565b600061190d868685611db0565b905061191b86868584611de2565b611926868685611db0565b905061193486868584611e26565b505050505050565b82546000906119509061ffff1660016126ef565b6001600160a01b03831660008181526001870160209081526040808320805461ffff871661ffff19918216811790925581855260028b0190935290832080546001600160a01b03191690941790935587541690911786559091506119b48484611b4c565b9050610c5685858484611de2565b60006119ce8483611b0c565b905060006119b48484611b4c565b60006119e88483611b0c565b905060006119f68484611b4c565b9050610c5685858484611e26565b6000611a108483611b0c565b845490915061ffff16611a24858383611cb6565b611a2f6001826124c4565b855461ffff191661ffff91909116178555611a4a8582611d6b565b8161ffff168161ffff1603611a60575050505050565b6000611a6d868685611db0565b9050611a7b86868584611c49565b611a86868685611db0565b905061193486868584611baf565b611a9d82611c8d565b815461ffff16611aaf83600183611cb6565b611aba6001826124c4565b835461ffff191661ffff91909116178355611ad58382611d6b565b6000611ae384846001611db0565b9050610c588484600184611e26565b6000611afe8483611b0c565b905060006117f68484611b4c565b6001600160a01b038116600090815260018301602052604081205461ffff1690819003610d4d5760405163f2755e3760e01b815260040160405180910390fd5b60006001835460ff166002811115611b6657611b666121d9565b03611b8c57506001600160a01b0381166000908152600283016020526040902054610d4d565b506001600160a01b03166000908152600291909101602052604090206001015490565b6000611bbc836002612709565b855490915060009061ffff165b8061ffff168361ffff1611611c40578061ffff168361ffff161015611c0857611bfe878785611bf98160016126ef565b611eae565b9093509150611c16565b611c13878785611db0565b91505b83821015611c4057611c29878487611cb6565b829450846002611c399190612709565b9250611bc9565b50505050505050565b6000805b60018461ffff16111561193457617fff600185901c169150611c70868684611db0565b90508083101561193457611c85868386611cb6565b819350611c4d565b805461ffff16600003611cb3576040516340d9b01160e01b815260040160405180910390fd5b50565b825461ffff9081169083161115611ccf57611ccf61272d565b825461ffff9081169082161115611ce857611ce861272d565b61ffff9182166000818152600285016020818152604080842080549690971680855281852080546001600160a01b039889168088526001909b018552838720805461ffff19908116909417905590971680865291852080549091168617905591905283546001600160a01b03199081169096179093555281549092169091179055565b61ffff166000908152600282016020908152604080832080546001600160a01b031981169091556001600160a01b031683526001909301905220805461ffff19169055565b61ffff811660009081526002840160205260408120546001600160a01b0316611dd98482611b4c565b95945050505050565b6000805b60018461ffff16111561193457617fff600185901c169150611e09868684611db0565b90508083111561193457611e1e868386611cb6565b819350611de6565b83546201fffe600184901b169060009061ffff165b8061ffff168361ffff1611611c40578061ffff168361ffff161015611e7a57611e70878785611e6b8160016126ef565b611ef0565b9093509150611e88565b611e85878785611db0565b91505b83821115611c4057611e9b878487611cb6565b9193506201fffe600185901b1691611e3b565b60008080611ebd878787611db0565b90506000611ecc888887611db0565b9050818110611ee057508492509050611ee7565b8493509150505b94509492505050565b60008080611eff878787611db0565b90506000611f0e888887611db0565b905081811115611f24578493509150611ee79050565b509396939550929350505050565b828054828255906000526020600020906004028101928215611fbf5760005260206000209160040282015b82811115611fbf578254825560018084015490830180546001600160a01b0319166001600160a01b039092169190911790558282600280820190611fa390840182612236565b5060038201548160030155505091600401919060040190611f5d565b50611fcb929150612009565b5090565b508054611fdb9061217d565b6000825580601f10611feb575050565b601f016020900490600052602060002090810190611cb39190612045565b80821115611fcb5760008082556001820180546001600160a01b03191690556120356002830182611fcf565b5060006003820155600401612009565b5b80821115611fcb5760008155600101612046565b6000604082840312801561206d57600080fd5b509092915050565b6000806020838503121561208857600080fd5b82356001600160401b0381111561209e57600080fd5b8301601f810185136120af57600080fd5b80356001600160401b038111156120c557600080fd5b8560208260051b84010111156120da57600080fd5b6020919091019590945092505050565b634e487b7160e01b600052601160045260246000fd5b6001600160401b038281168282160390811115610d4d57610d4d6120ea565b6001600160401b038181168382160190811115610d4d57610d4d6120ea565b634e487b7160e01b600052604160045260246000fd5b634e487b7160e01b600052603260045260246000fd5b80820180821115610d4d57610d4d6120ea565b600181811c9082168061219157607f821691505b6020821081036121b157634e487b7160e01b600052602260045260246000fd5b50919050565b6000602082840312156121c957600080fd5b8151801515811461174f57600080fd5b634e487b7160e01b600052602160045260246000fd5b601f8211156110e657806000526020600020601f840160051c810160208510156122165750805b601f840160051c820191505b81811015610c565760008155600101612222565b818103612241575050565b61224b825461217d565b6001600160401b038111156122625761226261213e565b61227681612270845461217d565b846121ef565b6000601f8211600181146122ad57600083156122925750848201545b600184901b600019600386901b1c198216175b855550610c56565b600085815260209020601f19841690600086815260209020845b838110156122e757828601548255600195860195909101906020016122c7565b50858310156123055781850154600019600388901b60f8161c191681555b5050505050600190811b01905550565b60005b83811015612330578181015183820152602001612318565b50506000910152565b6000806040838503121561234c57600080fd5b82516001600160401b0381111561236257600080fd5b8301601f8101851361237357600080fd5b80516001600160401b0381111561238c5761238c61213e565b604051601f8201601f19908116603f011681016001600160401b03811182821017156123ba576123ba61213e565b6040528181528282016020018710156123d257600080fd5b6123e3826020830160208601612315565b60209590950151949694955050505050565b81516001600160401b0381111561240e5761240e61213e565b61241c81612270845461217d565b6020601f82116001811461244e5760008315612292575081850151600184901b600019600386901b1c198216176122a5565b600084815260208120601f198516915b8281101561247e578785015182556020948501946001909201910161245e565b508482101561249c5786840151600019600387901b60f8161c191681555b50505050600190811b01905550565b6000602082840312156124bd57600080fd5b5051919050565b61ffff8281168282160390811115610d4d57610d4d6120ea565b600082825180855260208501945060208160051b8301016020850160005b8381101561257d57601f1985840301885281518051845260018060a01b036020820151166020850152604081015160806040860152805180608087015261254a8160a0880160208501612315565b6060830151606087015260a0601f19601f83011687010195505050506020820191506020880197506001810190506124fc565b50909695505050505050565b6020815260008251604060208401526125a560608401826124de565b90506001600160401b0360208501511660408401528091505092915050565b634e487b7160e01b600052603160045260246000fd5b60008235603e198336030181126125f057600080fd5b9190910192915050565b81810381811115610d4d57610d4d6120ea565b60208152600061174f60208301846124de565b60008235605e198336030181126125f057600080fd5b60006020828403121561264857600080fd5b81356001600160a01b038116811461174f57600080fd5b60006020828403121561267157600080fd5b81356006811061174f57600080fd5b6000808335601e1984360301811261269757600080fd5b8301803591506001600160401b038211156126b157600080fd5b60200191503681900382131561183f57600080fd5b6000602082840312156126d857600080fd5b81356001600160401b038116811461174f57600080fd5b61ffff8181168382160190811115610d4d57610d4d6120ea565b61ffff8181168382160290811690818114612726576127266120ea565b5092915050565b634e487b7160e01b600052600160045260246000fdfea26469706673582212207710178ef0b7e8adef815109de21a6c491ac131489b295f0f6559b5b7e386a8264736f6c634300081a0033","linkReferences":{"contracts/lib/AccountHelper.sol":{"AccountHelper":[{"start":981,"length":20}]}}},"methodIdentifiers":{"applyFinalityChanges()":"0df14461","commitParentFinality((uint256,bytes32))":"11196974","getTrackerConfigurationNumbers()":"8fbe0b7c","storeValidatorChanges(((uint8,bytes,address),uint64)[])":"e49a547d"},"id":15}