{"abi":[{"type":"function","name":"newSubnetActor","inputs":[{"name":"_params","type":"tuple","internalType":"struct SubnetActorDiamond.ConstructorParams","components":[{"name":"minActivationCollateral","type":"uint256","internalType":"uint256"},{"name":"minValidators","type":"uint64","internalType":"uint64"},{"name":"bottomUpCheckPeriod","type":"uint64","internalType":"uint64"},{"name":"ipcGatewayAddr","type":"address","internalType":"address"},{"name":"activeValidatorsLimit","type":"uint16","internalType":"uint16"},{"name":"majorityPercentage","type":"uint8","internalType":"uint8"},{"name":"consensus","type":"uint8","internalType":"enum ConsensusType"},{"name":"powerScale","type":"int8","internalType":"int8"},{"name":"permissionMode","type":"uint8","internalType":"enum PermissionMode"},{"name":"supplySource","type":"tuple","internalType":"struct Asset","components":[{"name":"kind","type":"uint8","internalType":"enum AssetKind"},{"name":"tokenAddress","type":"address","internalType":"address"}]},{"name":"collateralSource","type":"tuple","internalType":"struct Asset","components":[{"name":"kind","type":"uint8","internalType":"enum AssetKind"},{"name":"tokenAddress","type":"address","internalType":"address"}]},{"name":"parentId","type":"tuple","internalType":"struct SubnetID","components":[{"name":"root","type":"uint64","internalType":"uint64"},{"name":"route","type":"address[]","internalType":"address[]"}]},{"name":"validatorGater","type":"address","internalType":"address"},{"name":"tokenPerStorage","type":"uint256","internalType":"uint256"},{"name":"lockingDuration","type":"uint256","internalType":"uint256"}]}],"outputs":[{"name":"subnetAddr","type":"address","internalType":"address"}],"stateMutability":"nonpayable"},{"type":"event","name":"SubnetDeployed","inputs":[{"name":"subnetAddr","type":"address","indexed":false,"internalType":"address"}],"anonymous":false},{"type":"error","name":"NotOwner","inputs":[]},{"type":"error","name":"ReentrancyError","inputs":[]},{"type":"error","name":"WrongGateway","inputs":[]}],"bytecode":{"object":"0x608080604052346015576127df908161001b8239f35b600080fdfe6080604052600436101561001257600080fd5b60003560e01c63c7939ffd1461002757600080fd5b3461098b57602036600319011261098b576004356001600160401b03811161098b5780360361022060031982011261098b5760017f691bb03ffc16c56fc96b82fd16cd1b3715f0bc3cdc6407005f49bb620586009554146110865760017f691bb03ffc16c56fc96b82fd16cd1b3715f0bc3cdc6407005f49bb620586009555606482019081356001600160a01b0381169081900361098b576000546001600160a01b031603611075576100d86111ed565b604051610120926100e984836110b2565b60088252601f19840160005b818110611049575050600154604051906001600160a01b031661011782611097565b815260006020820152604051600954808252816020810160096000526020600020926000905b806007830110610fa457610193945491818110610b02575b818110610ae3575b818110610ac4575b818110610aa5575b818110610a86575b818110610a67575b818110610a4a575b10610a35575b5003826110b2565b60408201526101a1836110f3565b526101ab826110f3565b50600254604051906001600160a01b03166101c582611097565b815260006020820152604051600a548082528160208101600a6000526020600020926000905b806007830110610eff57610239945491818110610b0257818110610ae357818110610ac457818110610aa557818110610a8657818110610a6757818110610a4a5710610a35575003826110b2565b604082015261024783611116565b5261025182611116565b50600354604051906001600160a01b031661026b82611097565b815260006020820152604051600b548082528160208101600b6000526020600020926000905b806007830110610e5a576102df945491818110610b0257818110610ae357818110610ac457818110610aa557818110610a8657818110610a6757818110610a4a5710610a35575003826110b2565b60408201526102ed83611126565b526102f782611126565b50600454604051906001600160a01b031661031182611097565b815260006020820152604051600c548082528160208101600c6000526020600020926000905b806007830110610db557610385945491818110610b0257818110610ae357818110610ac457818110610aa557818110610a8657818110610a6757818110610a4a5710610a35575003826110b2565b604082015261039383611136565b5261039d82611136565b50600554604051906001600160a01b03166103b782611097565b815260006020820152604051600d548082528160208101600d6000526020600020926000905b806007830110610d105761042b945491818110610b0257818110610ae357818110610ac457818110610aa557818110610a8657818110610a6757818110610a4a5710610a35575003826110b2565b604082015261043983611146565b5261044382611146565b50600654604051906001600160a01b031661045d82611097565b815260006020820152604051600e548082528160208101600e6000526020600020926000905b806007830110610c6b576104d1945491818110610b0257818110610ae357818110610ac457818110610aa557818110610a8657818110610a6757818110610a4a5710610a35575003826110b2565b60408201526104df83611156565b526104e982611156565b50600754604051906001600160a01b031661050382611097565b815260006020820152604051600f548082528160208101600f6000526020600020926000905b806007830110610bc657610577945491818110610b0257818110610ae357818110610ac457818110610aa557818110610a8657818110610a6757818110610a4a5710610a35575003826110b2565b604082015261058583611166565b5261058f82611166565b50600854604051906001600160a01b03166105a982611097565b815260006020820152604051601054808252816020810160106000526020600020926000905b806007830110610b215761061d945491818110610b0257818110610ae357818110610ac457818110610aa557818110610a8657818110610a6757818110610a4a5710610a35575003826110b2565b604082015261062b83611176565b5261063582611176565b506040519261156291828501928584106001600160401b03851117610a1f576112488639606083016060845284518091526080840190602060808260051b8701019601916000905b82821061099057505050508284036020840152866004013584526001600160401b036106ab60248901611187565b1660208501526001600160401b036106c560448901611187565b1660408501526001600160a01b03906106dd9061119b565b166060840152608486013561ffff811680910361098b57608084015260a486013560ff811680910361098b5760a084015260c486013594600186101561098b5760009560c085015260e487013580870b8091036109835760e08501526101048701356003811015610983579081610756610768936110d3565b610100860152840161012488016111b9565b61077a610160840161016488016111b9565b6101a48601359060421901811215610987578501916102206101a08201526102608101926001600160401b036107b260048301611187565b166102208301526024810135602219368390030181121561098357016004810135966024909101936001600160401b038811610983578760051b3603851361098357879060406102408501525261028082019386975b808910610959575050849596506102046102009160018060a01b036108306101c4830161119b565b166101c08501526101e48101356101e08501520135910152604033910152039082f0801561094c5760018060a01b0316338252601260205260408220918254926001600160401b038416936001600160401b038514610938576001600160401b0360016020960116906001600160401b0319161790553381526011835260408120338252601284526001600160401b036040832054168252835260408120826bffffffffffffffffffffffff60a01b8254161790557f0431ea4d93af299b92f2c606ddcaf4b31cb0013c5ed1fdea837b8a912347c96583604051848152a17f691bb03ffc16c56fc96b82fd16cd1b3715f0bc3cdc6407005f49bb620586009555604051908152f35b634e487b7160e01b83526011600452602483fd5b50604051903d90823e3d90fd5b909460019060209081906001600160a01b036109748a61119b565b16815201960198019790610808565b8680fd5b8480fd5b600080fd5b90919296607f198782030182528751602060806040606085019360018060a01b038151168652838101516109c3816110d3565b84870152015193606060408201528451809452019201906000905b8082106109fc5750505060208060019299019201920190929161067d565b82516001600160e01b0319168452602093840193909201916001909101906109de565b634e487b7160e01b600052604160045260246000fd5b6001600160e01b03191681526020013861018b565b602083811b6001600160e01b031916855290930192600101610185565b604083901b6001600160e01b031916845260209093019260010161017d565b606083901b6001600160e01b0319168452602090930192600101610175565b608083901b6001600160e01b031916845260209093019260010161016d565b60a083901b6001600160e01b0319168452602090930192600101610165565b60c083901b6001600160e01b031916845260209093019260010161015d565b60e083901b6001600160e01b0319168452602090930192600101610155565b916008919350610100600191865463ffffffff60e01b8160e01b16825263ffffffff60e01b8160c01b16602083015263ffffffff60e01b8160a01b16604083015263ffffffff60e01b8160801b16606083015263ffffffff60e01b8160601b16608083015263ffffffff60e01b8160401b1660a083015263ffffffff60e01b8160201b1660c083015263ffffffff60e01b1660e08201520194019201849293916105cf565b916008919350610100600191865463ffffffff60e01b8160e01b16825263ffffffff60e01b8160c01b16602083015263ffffffff60e01b8160a01b16604083015263ffffffff60e01b8160801b16606083015263ffffffff60e01b8160601b16608083015263ffffffff60e01b8160401b1660a083015263ffffffff60e01b8160201b1660c083015263ffffffff60e01b1660e0820152019401920184929391610529565b916008919350610100600191865463ffffffff60e01b8160e01b16825263ffffffff60e01b8160c01b16602083015263ffffffff60e01b8160a01b16604083015263ffffffff60e01b8160801b16606083015263ffffffff60e01b8160601b16608083015263ffffffff60e01b8160401b1660a083015263ffffffff60e01b8160201b1660c083015263ffffffff60e01b1660e0820152019401920184929391610483565b916008919350610100600191865463ffffffff60e01b8160e01b16825263ffffffff60e01b8160c01b16602083015263ffffffff60e01b8160a01b16604083015263ffffffff60e01b8160801b16606083015263ffffffff60e01b8160601b16608083015263ffffffff60e01b8160401b1660a083015263ffffffff60e01b8160201b1660c083015263ffffffff60e01b1660e08201520194019201849293916103dd565b916008919350610100600191865463ffffffff60e01b8160e01b16825263ffffffff60e01b8160c01b16602083015263ffffffff60e01b8160a01b16604083015263ffffffff60e01b8160801b16606083015263ffffffff60e01b8160601b16608083015263ffffffff60e01b8160401b1660a083015263ffffffff60e01b8160201b1660c083015263ffffffff60e01b1660e0820152019401920184929391610337565b916008919350610100600191865463ffffffff60e01b8160e01b16825263ffffffff60e01b8160c01b16602083015263ffffffff60e01b8160a01b16604083015263ffffffff60e01b8160801b16606083015263ffffffff60e01b8160601b16608083015263ffffffff60e01b8160401b1660a083015263ffffffff60e01b8160201b1660c083015263ffffffff60e01b1660e0820152019401920184929391610291565b916008919350610100600191865463ffffffff60e01b8160e01b16825263ffffffff60e01b8160c01b16602083015263ffffffff60e01b8160a01b16604083015263ffffffff60e01b8160801b16606083015263ffffffff60e01b8160601b16608083015263ffffffff60e01b8160401b1660a083015263ffffffff60e01b8160201b1660c083015263ffffffff60e01b1660e08201520194019201849293916101eb565b916008919350610100600191865463ffffffff60e01b8160e01b16825263ffffffff60e01b8160c01b16602083015263ffffffff60e01b8160a01b16604083015263ffffffff60e01b8160801b16606083015263ffffffff60e01b8160601b16608083015263ffffffff60e01b8160401b1660a083015263ffffffff60e01b8160201b1660c083015263ffffffff60e01b1660e082015201940192018492939161013d565b60209060405161105881611097565b6000815260008382015260606040820152828287010152016100f5565b633bed049960e01b60005260046000fd5b6329f745a760e01b60005260046000fd5b606081019081106001600160401b03821117610a1f57604052565b90601f801991011681019081106001600160401b03821117610a1f57604052565b600311156110dd57565b634e487b7160e01b600052602160045260246000fd5b8051156111005760200190565b634e487b7160e01b600052603260045260246000fd5b8051600110156111005760400190565b8051600210156111005760600190565b8051600310156111005760800190565b8051600410156111005760a00190565b8051600510156111005760c00190565b8051600610156111005760e00190565b805160071015611100576101000190565b35906001600160401b038216820361098b57565b35906001600160a01b038216820361098b57565b600211156110dd57565b803590600282101561098b57816111d16020936111af565b83526001600160a01b03906111e790830161119b565b16910152565b60ff601354166111fc816111af565b15611245577f806e0cbb9fce296bbc336a48f42bf1dbc69722d18d90d6fe705b7582c2bb4bd5546001600160a01b0316330361123457565b6330cd747160e01b60005260046000fd5b56fe60806040523461102f57611562803803809161001c82608061115d565b6080396060811261102f576080516001600160401b03811161102f5760800181608001601f8201121561102f57805161005481611180565b91610062604051938461115d565b818352602083016020819360051b8301019185608001831161102f5760208101915b83831061104a57505060a051949150506001600160401b03841161102f576102208482031261102f57604051936101e085016001600160401b0381118682101761103457604052608081015185526100de60a082016111ab565b60208601526100ef60c082016111ab565b604086015261010060e08201611197565b606086015261010081015161ffff8116810361102f57608086015261012081015160ff8116810361102f5760a0860152610140810151600181101561102f5760c0860152610160810151600081900b810361102f5760e0860152610180810151600381101561102f57610100860152610180608083016101a083016111bf565b610120860152610197608083016101e083016111bf565b610140860152610220810151916001600160401b03831161102f57610200926101c8916080019083608001016111fa565b6101608601526101db6102408201611197565b6101808601526102608101516101a086015201608001516101c084015261020260c0611197565b60608401519092906001600160a01b03161561101e5760408401516001600160401b03161561100d57600161010085015161023c8161129c565b6102458161129c565b141580611004575b610ff35760ff60a08501511660338110908115610fe8575b50610fd757601260e085015160000b13610fc657610120840151928351936002851015610fb057600160009514610ee8575b507f806e0cbb9fce296bbc336a48f42bf1dbc69722d18d90d6fe705b7582c2bb4bd580546001600160a01b039283166001600160a01b0319821681179092556040805193909116835260208301919091527f8be0079c531659141344cd1fd0a4f28419497f9722a3daafe3b4186f6b6457e091a160209160405161031b848261115d565b848152601f19840136858301378251855b8181106108ec5750506040519260608401906060855251809152608084019060808160051b860101939187905b87838310610898578a8a827f8faa70878671ccd212d20771b795c50af8fd3ff6cf27f4bde57e5d4de0aeb6738b8061039e8d8d87878501528382036040850152611365565b0390a16301ffc9a760e01b82527f806e0cbb9fce296bbc336a48f42bf1dbc69722d18d90d6fe705b7582c2bb4bd480825260408084208054600160ff1991821681179092556307e4c70760e21b865283855282862080548216831790556348e2b09360e01b8652928452908420805490921681179091556101008401516104248161129c565b61042d8161129c565b14610890575b6101608301518051600980546001600160401b0319166001600160401b0392831617905590820151805191821161087c5768010000000000000000821161087c578290600a5483600a55808410610852575b5001600a8452828420845b838110610837575050505060018060a01b0360608401511660055460c0850151600181101561082357855160025560018060401b0360208701511660018060401b0319600654161760065560018060401b0360408701511660035560ff60e01b60a087015160e01b169160e087015160e81b60ff60e81b169360ff60e81b199160016aff00ff000000000000000160a01b03191617169060ff60f01b9060f01b1617171760055560405161054381611142565b6009546001600160401b03168152604051600a805480835290855283852090829085820190875b87828210610804575050506105819250038261115d565b828201526105c18373__$3fbe32418a9ca7804328967972fb037388$__926040518093819263aa5106cb60e01b83526040600484015260448301906112a6565b3060248301520381855af49081156107f95790839185916107aa575b506106049260405180809581946390ba52cf60e01b835286600484015260248301906112a6565b03915af490811561079f57839161076e575b506004556101008301516106298161129c565b6106328161129c565b600b546101c0850151601755600560a11b600160a01b600160e01b0319600554161760055560ff62ffff00608087015160081b1692169062ffffff19161717600b556801000000000000000160018060801b03196015541617601555610120830151805190600282101561075a5760ff6007549184610100600160a81b0391015160081b1692169060018060a81b0319161717600755610140830151805192600284101561074657506008805492909101516001600160a81b031990921660ff939093169290921790821b610100600160a81b031617905561018001516001600160a01b03168061072c575b60405160e190816114418239f35b602180546001600160a01b0319169190911790558061071e565b634e487b7160e01b81526021600452602490fd5b634e487b7160e01b84526021600452602484fd5b90508181813d8311610798575b610785818361115d565b81010312610794575184610616565b8280fd5b503d61077b565b6040513d85823e3d90fd5b9150503d8085833e6107bc818361115d565b81019083818303126107f5578051906001600160401b0382116107f157849261060494926107ea92016111fa565b90926105dd565b8580fd5b8480fd5b6040513d86823e3d90fd5b85546001600160a01b031684526001958601958795509301920161056a565b634e487b7160e01b85526021600452602485fd5b82516001600160a01b03168282015591840191600101610490565b600a8652828620908482015b818301811061086e575050610485565b87815586945060010161085e565b634e487b7160e01b84526041600452602484fd5b818352610433565b806108de60019394959698607f198b8203018652606060408b51878060a01b038151168452858101516108ca8161129c565b868501520151918160408201520190611327565b970192019201909291610359565b60406108f882876112fd565b5101516001600160a01b0361090d83886112fd565b515116815115610ed6578761092284896112fd565b51015161092e8161129c565b6109378161129c565b80610b4557508015610b1d5761ffff6000805160206115228339815191525416906109a3606061096a604051918261115d565b602181527f6469616d6f6e644375743a2041646420666163657420686173206e6f20636f648b820152606560f81b604082015282611401565b8251928a925b8484106109bf5750505050506001905b0161032c565b6001600160e01b03196109d285846112fd565b5116808d526000805160206115428339815191528c5260408d20549091906001600160a01b0316610b095790610a6d8d61ffff8e946040805193610a1585611142565b89855291831687850181815287845260008051602061154283398151915290985291209251835496516001600160b01b03199097166001600160a01b0391909116179590911660a01b61ffff60a01b16949094179055565b6000805160206115228339815191525468010000000000000000811015610af55790610aaf826001610acc9401600080516020611522833981519152556113a6565b90919063ffffffff83549160031b9260e01c831b921b1916179055565b61ffff8114610ae157600193840193016109a9565b634e487b7160e01b8c52601160045260248cfd5b634e487b7160e01b8e52604160045260248efd5b63ebbf5d0760e01b8d52600482905260248dfd5b5086610b416040519283926302b8da0760e21b845260048401526024830190611327565b0390fd5b610b4e8161129c565b60018103610ca757508015610c8357610baf6060610b6f604051918261115d565b602881527f4c69624469616d6f6e644375743a205265706c616365206661636574206861738a82015267206e6f20636f646560c01b604082015282611401565b815191895b838110610bc757505050506001906109b9565b6001600160e01b0319610bda82846112fd565b5116808c526000805160206115428339815191528b5260408c20546001600160a01b0316308114610c6f57848114610c5b5715610c49578b526000805160206115428339815191528a5260408b2080546001600160a01b0319166001600160a01b038516179055600101610bb4565b637479f93960e01b8c5260045260248bfd5b631ac6ce8d60e11b8d52600482905260248dfd5b632901806d60e11b8d52600482905260248dfd5b5086610b4160405192839263cd98a96f60e01b845260048401526024830190611327565b610cb08161129c565b60028103610eb95750600080516020611522833981519152549080610ea75750815191895b838110610ce857505050506001906109b9565b6001600160e01b0319610cfb82846112fd565b5116808c526000805160206115428339815191528b5260408c209360405194610d2386611142565b546001600160a01b03811680875260a09190911c61ffff168d87015215610e935784516001600160a01b03163014610e7f578015610e6b578c9060001901948c8661ffff828401511603610df0575b505050600080516020611522833981519152548015610ddc57600192919060001901610d9d816113a6565b63ffffffff82549160031b1b19169055600080516020611522833981519152558c526000805160206115428339815191528b528b604081205501610cd5565b634e487b7160e01b8d52603160045260248dfd5b610e63926000805160206115428339815191528261ffff604094610e138c6113a6565b90549060031b1c60e01b96610e3088610aaf8585850151166113a6565b01516001600160e01b03199096168452919052919020805461ffff60a01b19169190921660a01b61ffff60a01b16179055565b8b388c610d72565b634e487b7160e01b8d52601160045260248dfd5b630df5fd6160e31b8d52600482905260248dfd5b637a08a22d60e01b8d52600482905260248dfd5b63d091bc8160e01b8a52600452602489fd5b633ff4d20f60e11b8a526024908a90610ed18161129c565b600452fd5b63e767f91f60e01b8952600452602488fd5b60200180516001600160a01b031615610f6b57516040516370a0823160e01b81526004810186905290602090829060249082906001600160a01b03165afa8015610f60571561029757602090813d8311610f59575b610f47818361115d565b81010312610f555738610297565b8380fd5b503d610f3d565b6040513d87823e3d90fd5b60405162461bcd60e51b815260206004820152601560248201527f496e76616c6964204552433230206164647265737300000000000000000000006044820152606490fd5b634e487b7160e01b600052602160045260246000fd5b6378b177e560e11b60005260046000fd5b6375c3b42760e01b60005260046000fd5b606491501138610265565b6368f7a67560e11b60005260046000fd5b5083511561024d565b63312f8e0560e01b60005260046000fd5b638b3ddc3360e01b60005260046000fd5b600080fd5b634e487b7160e01b600052604160045260246000fd5b82516001600160401b03811161102f578201606081890381011261102f5760405190606082016001600160401b038111838210176110345760405261109160208201611197565b82526040810151600381101561102f57602083015260608101516001600160401b03811161102f57602091010188608001601f8201121561102f5780516110d781611180565b916110e5604051938461115d565b81835260208084019260051b820101908b608001821161102f57602001915b818310611121575050506040820152815260209283019201610084565b82516001600160e01b03198116810361102f57815260209283019201611104565b604081019081106001600160401b0382111761103457604052565b601f909101601f19168101906001600160401b0382119082101761103457604052565b6001600160401b0381116110345760051b60200190565b51906001600160a01b038216820361102f57565b51906001600160401b038216820361102f57565b919082604091031261102f576040516111d781611142565b8092805190600282101561102f5760206111f5918193855201611197565b910152565b919060408382031261102f5760405161121281611142565b809361121d816111ab565b82526020810151906001600160401b03821161102f57019180601f8401121561102f57825161124b81611180565b93611259604051958661115d565b81855260208086019260051b82010192831161102f57602001905b8282106112845750505060200152565b6020809161129184611197565b815201910190611274565b60031115610fb057565b6020606081604085019360018060401b03815116865201519360408382015284518094520192019060005b8181106112de5750505090565b82516001600160a01b03168452602093840193909201916001016112d1565b80518210156113115760209160051b010190565b634e487b7160e01b600052603260045260246000fd5b906020808351928381520192019060005b8181106113455750505090565b82516001600160e01b031916845260209384019390920191600101611338565b919082519283825260005b848110611391575050826000602080949584010152601f8019910116010190565b80602080928401015182828601015201611370565b906000805160206115228339815191525482101561131157600080516020611522833981519152600052600382901c7fb65beca8b6fa788bcb1528c2ab5f4dc6bc98e5896550baa013d8330fab0b86f4019160021b601c1690565b803b1561140c575050565b6040805163919834b960e01b81526001600160a01b0390921660048301526024820152908190610b4190604483019061136556fe60806040523615608757600080356001600160e01b0319168082527f806e0cbb9fce296bbc336a48f42bf1dbc69722d18d90d6fe705b7582c2bb4bd26020526040909120546001600160a01b031690811560735760008083368280378136915af43d6000803e15606e573d6000f35b3d6000fd5b630a82dd7360e31b60005260045260246000fd5b6005546001600160a01b03163303609a57005b63e7e601db60e01b60005260046000fdfea2646970667358221220b517ad116dc2f7bff11200db0e40476156d65502ccefbe074bb781f62c6a96f364736f6c634300081a0033806e0cbb9fce296bbc336a48f42bf1dbc69722d18d90d6fe705b7582c2bb4bd3806e0cbb9fce296bbc336a48f42bf1dbc69722d18d90d6fe705b7582c2bb4bd2a26469706673582212207098a833c738a71f7abc979ee6f763c69160d6c773139dd285edd8b6878e90b464736f6c634300081a0033","linkReferences":{"contracts/lib/SubnetIDHelper.sol":{"SubnetIDHelper":[{"start":6126,"length":20}]}}},"methodIdentifiers":{"newSubnetActor((uint256,uint64,uint64,address,uint16,uint8,uint8,int8,uint8,(uint8,address),(uint8,address),(uint64,address[]),address,uint256,uint256))":"c7939ffd"},"id":53}