{"abi":[{"type":"function","name":"propagate","inputs":[{"name":"msgCid","type":"bytes32","internalType":"bytes32"}],"outputs":[],"stateMutability":"payable"},{"type":"function","name":"sendContractXnetMessage","inputs":[{"name":"envelope","type":"tuple","internalType":"struct IpcEnvelope","components":[{"name":"kind","type":"uint8","internalType":"enum IpcMsgKind"},{"name":"to","type":"tuple","internalType":"struct IPCAddress","components":[{"name":"subnetId","type":"tuple","internalType":"struct SubnetID","components":[{"name":"root","type":"uint64","internalType":"uint64"},{"name":"route","type":"address[]","internalType":"address[]"}]},{"name":"rawAddress","type":"tuple","internalType":"struct FvmAddress","components":[{"name":"addrType","type":"uint8","internalType":"uint8"},{"name":"payload","type":"bytes","internalType":"bytes"}]}]},{"name":"from","type":"tuple","internalType":"struct IPCAddress","components":[{"name":"subnetId","type":"tuple","internalType":"struct SubnetID","components":[{"name":"root","type":"uint64","internalType":"uint64"},{"name":"route","type":"address[]","internalType":"address[]"}]},{"name":"rawAddress","type":"tuple","internalType":"struct FvmAddress","components":[{"name":"addrType","type":"uint8","internalType":"uint8"},{"name":"payload","type":"bytes","internalType":"bytes"}]}]},{"name":"nonce","type":"uint64","internalType":"uint64"},{"name":"value","type":"uint256","internalType":"uint256"},{"name":"message","type":"bytes","internalType":"bytes"}]}],"outputs":[{"name":"committed","type":"tuple","internalType":"struct IpcEnvelope","components":[{"name":"kind","type":"uint8","internalType":"enum IpcMsgKind"},{"name":"to","type":"tuple","internalType":"struct IPCAddress","components":[{"name":"subnetId","type":"tuple","internalType":"struct SubnetID","components":[{"name":"root","type":"uint64","internalType":"uint64"},{"name":"route","type":"address[]","internalType":"address[]"}]},{"name":"rawAddress","type":"tuple","internalType":"struct FvmAddress","components":[{"name":"addrType","type":"uint8","internalType":"uint8"},{"name":"payload","type":"bytes","internalType":"bytes"}]}]},{"name":"from","type":"tuple","internalType":"struct IPCAddress","components":[{"name":"subnetId","type":"tuple","internalType":"struct SubnetID","components":[{"name":"root","type":"uint64","internalType":"uint64"},{"name":"route","type":"address[]","internalType":"address[]"}]},{"name":"rawAddress","type":"tuple","internalType":"struct FvmAddress","components":[{"name":"addrType","type":"uint8","internalType":"uint8"},{"name":"payload","type":"bytes","internalType":"bytes"}]}]},{"name":"nonce","type":"uint64","internalType":"uint64"},{"name":"value","type":"uint256","internalType":"uint256"},{"name":"message","type":"bytes","internalType":"bytes"}]}],"stateMutability":"payable"},{"type":"event","name":"NewBottomUpMsgBatch","inputs":[{"name":"epoch","type":"uint256","indexed":true,"internalType":"uint256"}],"anonymous":false},{"type":"event","name":"NewTopDownMessage","inputs":[{"name":"subnet","type":"address","indexed":true,"internalType":"address"},{"name":"message","type":"tuple","indexed":false,"internalType":"struct IpcEnvelope","components":[{"name":"kind","type":"uint8","internalType":"enum IpcMsgKind"},{"name":"to","type":"tuple","internalType":"struct IPCAddress","components":[{"name":"subnetId","type":"tuple","internalType":"struct SubnetID","components":[{"name":"root","type":"uint64","internalType":"uint64"},{"name":"route","type":"address[]","internalType":"address[]"}]},{"name":"rawAddress","type":"tuple","internalType":"struct FvmAddress","components":[{"name":"addrType","type":"uint8","internalType":"uint8"},{"name":"payload","type":"bytes","internalType":"bytes"}]}]},{"name":"from","type":"tuple","internalType":"struct IPCAddress","components":[{"name":"subnetId","type":"tuple","internalType":"struct SubnetID","components":[{"name":"root","type":"uint64","internalType":"uint64"},{"name":"route","type":"address[]","internalType":"address[]"}]},{"name":"rawAddress","type":"tuple","internalType":"struct FvmAddress","components":[{"name":"addrType","type":"uint8","internalType":"uint8"},{"name":"payload","type":"bytes","internalType":"bytes"}]}]},{"name":"nonce","type":"uint64","internalType":"uint64"},{"name":"value","type":"uint256","internalType":"uint256"},{"name":"message","type":"bytes","internalType":"bytes"}]}],"anonymous":false},{"type":"error","name":"CallFailed","inputs":[]},{"type":"error","name":"CannotSendCrossMsgToItself","inputs":[]},{"type":"error","name":"InsufficientFunds","inputs":[]},{"type":"error","name":"InvalidXnetMessage","inputs":[{"name":"reason","type":"uint8","internalType":"enum InvalidXnetMessageReason"}]},{"type":"error","name":"MethodNotAllowed","inputs":[{"name":"reason","type":"string","internalType":"string"}]},{"type":"error","name":"NotRegisteredSubnet","inputs":[]}],"bytecode":{"object":"0x6080604052348015600f57600080fd5b50612e368061001f6000396000f3fe6080604052600436106100295760003560e01c806325bf0db61461002e5780633eeb723f14610043575b600080fd5b61004161003c366004612197565b61006c565b005b6100566100513660046121b0565b610527565b6040516100639190612314565b60405180910390f35b60065462010000900460ff166100b857604051806060016040528060368152602001612d916036913960405163015538b160e01b81526004016100af91906123a2565b60405180910390fd5b600081815260226020526040808220815160c081019092528054909291610445918490829060ff1660028111156100f1576100f16121ea565b6002811115610102576101026121ea565b8152604080516080810182526001840180546001600160401b031682840190815260028601805485516020828102820181019097528181529686019694959394869486936060870193909183018282801561018657602002820191906000526020600020905b81546001600160a01b03168152600190910190602001808311610168575b5050509190925250505081526040805180820190915260028301805460ff168252600384018054602094850194840191906101c0906123b5565b80601f01602080910402602001604051908101604052809291908181526020018280546101ec906123b5565b80156102395780601f1061020e57610100808354040283529160200191610239565b820191906000526020600020905b81548152906001019060200180831161021c57829003601f168201915b505050919092525050509052508152604080516080810182526005840180546001600160401b03168284019081526006860180548551602082810282018101909752818152968601969495939486948693606087019390918301828280156102ca57602002820191906000526020600020905b81546001600160a01b031681526001909101906020018083116102ac575b5050509190925250505081526040805180820190915260028301805460ff16825260038401805460209485019484019190610304906123b5565b80601f0160208091040260200160405190810160405280929190818152602001828054610330906123b5565b801561037d5780601f106103525761010080835404028352916020019161037d565b820191906000526020600020905b81548152906001019060200180831161036057829003601f168201915b50505091909252505050905250815260098201546001600160401b03166020820152600a8201546040820152600b820180546060909201916103be906123b5565b80601f01602080910402602001604051908101604052809291908181526020018280546103ea906123b5565b80156104375780601f1061040c57610100808354040283529160200191610437565b820191906000526020600020905b81548152906001019060200180831161041a57829003601f168201915b505050505081525050610754565b600a8301546000858152602260205260408120805460ff191681556001810180546001600160401b031916815593945091928181816104876002870182611f0f565b505060028201805460ff1916815560006104a46003850182611f30565b505050506005820180546001600160401b0319168155600081816104cb6006870182611f0f565b505060028201805460ff1916815560006104e86003850182611f30565b505050506009820180546001600160401b03191690556000600a830181905561051590600b840190611f30565b50506105218183610deb565b50505050565b61052f611f6a565b600654610100900460ff16610571576040518060600160405280603a8152602001612dc7603a913960405163015538b160e01b81526004016100af91906123a2565b333b61059357600060405163bc0f01cf60e01b81526004016100af91906123e9565b348260800135146105ba57600360405163bc0f01cf60e01b81526004016100af91906123e9565b60016105c96020840184612403565b60028111156105da576105da6121ea565b146105fb57600460405163bc0f01cf60e01b81526004016100af91906123e9565b61060860a0830183612424565b810190610615919061254e565b506040805160c0810190915260018152602080820190610637908501856125e8565b610640906126b5565b815260408051608081018252601280546001600160401b031682840190815260138054855160208281028201810190975281815296860196949586959394936060870193909290918301828280156106c157602002820191906000526020600020905b81546001600160a01b031681526001909101906020018083116106a3575b50505050508152505081526020016106d833610e00565b90528152600060208201523460408201526060016106f960a0850185612424565b8080601f01602080910402602001604051908101604052809392919081815260200183838082843760009201829052509390945250929350915061073e905082610754565b905061074e826080015182610deb565b50919050565b602081015151604051630c133d1360e31b8152600091829173__$3fbe32418a9ca7804328967972fb037388$__90636099e89890610796908490600401612838565b602060405180830381865af41580156107b3573d6000803e3d6000fd5b505050506040513d601f19601f820116820180604052508101906107d7919061284b565b156107f857600160405163bc0f01cf60e01b81526004016100af91906123e9565b60405163c836244d60e01b815273__$3fbe32418a9ca7804328967972fb037388$__9063c836244d9061083490849060128701906004016128d2565b602060405180830381865af4158015610851573d6000803e3d6000fd5b505050506040513d601f19601f82011682018060405250810190610875919061284b565b1561089357604051632f3335ff60e21b815260040160405180910390fd5b60408085015151905163855f7e4560e01b815260009073__$c0560e63386df2470ca6214f90e7038fc9$__9063855f7e45906108d8908990601289019060040161293d565b602060405180830381865af41580156108f5573d6000803e3d6000fd5b505050506040513d601f19601f8201168201806040525081019061091991906129e5565b604051631ccc893360e11b815290915060009073__$3fbe32418a9ca7804328967972fb037388$__906339991266906109589087908790600401612a02565b600060405180830381865af4158015610975573d6000803e3d6000fd5b505050506040513d6000823e601f3d908101601f1916820160405261099d9190810190612a27565b60405163c836244d60e01b815273__$3fbe32418a9ca7804328967972fb037388$__9163c836244d916109d8919060128a01906004016128d2565b602060405180830381865af41580156109f5573d6000803e3d6000fd5b505050506040513d601f19601f82011682018060405250810190610a19919061284b565b905060006001836001811115610a3157610a316121ea565b03610bca576040516308c7427760e11b815273__$3fbe32418a9ca7804328967972fb037388$__9063118e84ee90610a6d908790600401612838565b600060405180830381865af4158015610a8a573d6000803e3d6000fd5b505050506040513d6000823e601f3d908101601f19168201604052610ab29190810190612a27565b60405163c836244d60e01b815273__$3fbe32418a9ca7804328967972fb037388$__9163c836244d91610aed919060128b01906004016128d2565b602060405180830381865af4158015610b0a573d6000803e3d6000fd5b505050506040513d601f19601f82011682018060405250810190610b2e919061284b565b8015610bc35750604051632cff562160e11b8152610bc39060019073__$3fbe32418a9ca7804328967972fb037388$__906359feac4290610b73908990600401612838565b602060405180830381865af4158015610b90573d6000803e3d6000fd5b505050506040513d601f19601f82011682018060405250810190610bb49190612b0f565b6001600160a01b031690610eae565b9050610ca4565b6000836001811115610bde57610bde6121ea565b03610ca45760405163089032d560e01b8152610ca19060019073__$3fbe32418a9ca7804328967972fb037388$__9063089032d590610c26908a9060128d01906004016128d2565b600060405180830381865af4158015610c43573d6000803e3d6000fd5b505050506040513d6000823e601f3d908101601f19168201604052610c6b9190810190612a27565b604051632cff562160e11b815273__$3fbe32418a9ca7804328967972fb037388$__916359feac4291610b739190600401612838565b90505b8015610d4b57600088516002811115610cbf57610cbf6121ea565b03610d4b5760405163015538b160e01b815260206004820152604f60248201527f70726f7061676174696f6e206f6620605472616e7366657260206d657373616760448201527f6573206e6f742073757070706f7274656420666f72207375626e65747320776960648201526e746820455243323020737570706c7960881b608482015260a4016100af565b6000836001811115610d5f57610d5f6121ea565b1480610d685750815b15610dcf57600386018054600890610d94906801000000000000000090046001600160401b0316612b42565b91906101000a8154816001600160401b0302191690836001600160401b03160217905550610dc188610f3f565b506000979650505050505050565b610dd888611118565b5050506080909401511515949350505050565b8015610dfc57610dfc606383611a81565b5050565b60408051808201909152600081526060602082015260006040518060600160405280600a6001600160401b0316815260200160146001600160801b0316815260200184604051602001610e6b919060609190911b6bffffffffffffffffffffffff1916815260140190565b60408051601f19818403018152918152915251610e8b9190602001612b6d565b60408051601f198184030181528282019091526004825260208201529392505050565b6000816001811115610ec257610ec26121ea565b836001600160a01b03166380875df76040518163ffffffff1660e01b81526004016040805180830381865afa158015610eff573d6000803e3d6000fd5b505050506040513d601f19601f82011682018060405250810190610f239190612bae565b516001811115610f3557610f356121ea565b1490505b92915050565b60208101515160405163089032d560e01b8152600091829173__$3fbe32418a9ca7804328967972fb037388$__9163089032d591610f8391906012906004016128d2565b600060405180830381865af4158015610fa0573d6000803e3d6000fd5b505050506040513d6000823e601f3d908101601f19168201604052610fc89190810190612a27565b9050600080610fd683611b1b565b9150915081610ff857604051630e991abd60e41b815260040160405180910390fd5b60038101546001600160401b031660608601819052611018816001612bf1565b6003830180546001600160401b0319166001600160401b03929092169190911790556080860151600283018054600090611053908490612c10565b90915550506040516304e384ff60e21b815273__$3fbe32418a9ca7804328967972fb037388$__9063138e13fc9061108f908790600401612838565b602060405180830381865af41580156110ac573d6000803e3d6000fd5b505050506040513d601f19601f820116820180604052508101906110d09190612b0f565b6001600160a01b03167ffdd39ce2560484814971f663392e78ae37dc62ba184b3370d830371dd271a8b7876040516111089190612314565b60405180910390a2505050505050565b600080611129438360010154611caf565b6003830180546001600160401b031660608601819052919250600191600090611153908490612bf1565b92506101000a8154816001600160401b0302191690836001600160401b031602179055506000806111968360009081526024602052604090206002810154151591565b915091508161137a5760128401805482546001600160401b0319166001600160401b0390911617825560138501805483916111d691600184019190611fab565b505050600280820184905560038201805460018181018355600092835260209092208851600c90920201805489949193849260ff19909216918490811115611220576112206121ea565b0217905550602082810151805180516001850180546001600160401b0319166001600160401b0390921691909117815581840151805193949193849261126d926002890192910190611ffb565b505050602082810151805160028401805460ff191660ff9092169190911781559181015190919060038401906112a39082612c6a565b505050506040830151805180516005850180546001600160401b0319166001600160401b039092169190911781556020808301518051949550919384926112f1926006890192910190611ffb565b505050602082810151805160028401805460ff191660ff9092169190911781559181015190919060038401906113279082612c6a565b5050505060608301516009830180546001600160401b0319166001600160401b03909216919091179055506080820151600a82015560a0820151600b8201906113709082612c6a565b5050505050505050565b60038481015490820154600160c01b9091046001600160401b03169003611a3b576040805160a0810182526012860180546001600160401b0316606083019081526013880180548551602082810282018101909752818152439660009695869594909360808701939283018282801561141c57602002820191906000526020600020905b81546001600160a01b031681526001909101906020018083116113fe575b505050505081525050815260200183815260200184600301805490506001600160401b0381111561144f5761144f612471565b60405190808252806020026020018201604052801561148857816020015b611475611f6a565b81526020019060019003908161146d5790505b509052600384015490915060005b8181101561185e578460030181815481106114b3576114b3612d28565b600091825260209091206040805160c08101909152600c909202018054829060ff1660028111156114e6576114e66121ea565b60028111156114f7576114f76121ea565b8152604080516080810182526001840180546001600160401b031682840190815260028601805485516020828102820181019097528181529686019694959394869486936060870193909183018282801561157b57602002820191906000526020600020905b81546001600160a01b0316815260019091019060200180831161155d575b5050509190925250505081526040805180820190915260028301805460ff168252600384018054602094850194840191906115b5906123b5565b80601f01602080910402602001604051908101604052809291908181526020018280546115e1906123b5565b801561162e5780601f106116035761010080835404028352916020019161162e565b820191906000526020600020905b81548152906001019060200180831161161157829003601f168201915b505050919092525050509052508152604080516080810182526005840180546001600160401b03168284019081526006860180548551602082810282018101909752818152968601969495939486948693606087019390918301828280156116bf57602002820191906000526020600020905b81546001600160a01b031681526001909101906020018083116116a1575b5050509190925250505081526040805180820190915260028301805460ff168252600384018054602094850194840191906116f9906123b5565b80601f0160208091040260200160405190810160405280929190818152602001828054611725906123b5565b80156117725780601f1061174757610100808354040283529160200191611772565b820191906000526020600020905b81548152906001019060200180831161175557829003601f168201915b50505091909252505050905250815260098201546001600160401b03166020820152600a8201546040820152600b820180546060909201916117b3906123b5565b80601f01602080910402602001604051908101604052809291908181526020018280546117df906123b5565b801561182c5780601f106118015761010080835404028352916020019161182c565b820191906000526020600020905b81548152906001019060200180831161180f57829003601f168201915b5050505050815250508360400151828151811061184b5761184b612d28565b6020908102919091010152600101611496565b5060405183907f4ecfe3c1ed32ef0a63d3801d51eb20214db90b14dc5fd1ca58a9de54f16f46a690600090a2611898600385016000612050565b60038401805460018181018355600092835260209092208a51600c9092020180548b93919291839160ff1916908360028111156118d7576118d76121ea565b0217905550602082810151805180516001850180546001600160401b0319166001600160401b03909216919091178155818401518051939491938492611924926002890192910190611ffb565b505050602082810151805160028401805460ff191660ff90921691909117815591810151909190600384019061195a9082612c6a565b505050506040830151805180516005850180546001600160401b0319166001600160401b039092169190911781556020808301518051949550919384926119a8926006890192910190611ffb565b505050602082810151805160028401805460ff191660ff9092169190911781559181015190919060038401906119de9082612c6a565b5050505060608301516009830180546001600160401b0319166001600160401b03909216919091179055506080820151600a82015560a0820151600b820190611a279082612c6a565b505050611a3382611ce1565b505050611a7a565b60038101805460018181018355600092835260209092208751600c9092020180548893919291839160ff191690836002811115611220576112206121ea565b5050505050565b80471015611aa25760405163356680b760e01b815260040160405180910390fd5b6000826001600160a01b03168260405160006040518083038185875af1925050503d8060008114611aef576040519150601f19603f3d011682016040523d82523d6000602084013e611af4565b606091505b5050905080611b1657604051633204506f60e01b815260040160405180910390fd5b505050565b6040516390ba52cf60e01b815260009081908190602090829073__$3fbe32418a9ca7804328967972fb037388$__906390ba52cf90611b5e908990600401612838565b602060405180830381865af4158015611b7b573d6000803e3d6000fd5b505050506040513d601f19601f82011682018060405250810190611b9f9190612d3e565b81526020808201929092526040908101600020815180830183526004820180546001600160401b031682526005830180548551818802810188019096528086529397509194909385820193909291830182828015611c2657602002820191906000526020600020905b81546001600160a01b03168152600190910190602001808311611c08575b505050919092525050604051630c133d1360e31b815273__$3fbe32418a9ca7804328967972fb037388$__92636099e8989250611c6591600401612838565b602060405180830381865af4158015611c82573d6000803e3d6000fd5b505050506040513d601f19601f82011682018060405250810190611ca6919061284b565b15925050915091565b600081611cc5816001600160401b038616612d57565b611cd0906001612c10565b611cda9190612d79565b9392505050565b602081810151600090815260248252604081208351805182546001600160401b0319166001600160401b039091161782558084015180519394929391928492611d309260018501920190611ffb565b5050506020830151600282015560408301515160005b81811015611a7a578260030185604001518281518110611d6857611d68612d28565b6020908102919091018101518254600181810185556000948552929093208151600c909402018054919390929091839160ff1990911690836002811115611db157611db16121ea565b0217905550602082810151805180516001850180546001600160401b0319166001600160401b03909216919091178155818401518051939491938492611dfe926002890192910190611ffb565b505050602082810151805160028401805460ff191660ff909216919091178155918101519091906003840190611e349082612c6a565b505050506040830151805180516005850180546001600160401b0319166001600160401b03909216919091178155602080830151805194955091938492611e82926006890192910190611ffb565b505050602082810151805160028401805460ff191660ff909216919091178155918101519091906003840190611eb89082612c6a565b5050505060608301516009830180546001600160401b0319166001600160401b03909216919091179055506080820151600a82015560a0820151600b820190611f019082612c6a565b505050806001019050611d46565b5080546000825590600052602060002090810190611f2d9190612071565b50565b508054611f3c906123b5565b6000825580601f10611f4c575050565b601f016020900490600052602060002090810190611f2d9190612071565b6040805160c081019091528060008152602001611f85612086565b8152602001611f92612086565b8152600060208201819052604082015260609081015290565b828054828255906000526020600020908101928215611feb5760005260206000209182015b82811115611feb578254825591600101919060010190611fd0565b50611ff7929150612071565b5090565b828054828255906000526020600020908101928215611feb579160200282015b82811115611feb57825182546001600160a01b0319166001600160a01b0390911617825560209092019160019091019061201b565b50805460008255600c0290600052602060002090810190611f2d91906120cb565b5b80821115611ff75760008155600101612072565b60408051608081018252600091810191825260608082015290819081526020016120c66040518060400160405280600060ff168152602001606081525090565b905290565b80821115611ff757805460ff191681556001810180546001600160401b03191681556000908181816121006002870182611f0f565b505060028201805460ff19168155600061211d6003850182611f30565b505050506005820180546001600160401b0319168155600081816121446006870182611f0f565b505060028201805460ff1916815560006121616003850182611f30565b505050506009820180546001600160401b03191690556000600a830181905561218e90600b840190611f30565b50600c016120cb565b6000602082840312156121a957600080fd5b5035919050565b6000602082840312156121c257600080fd5b81356001600160401b038111156121d857600080fd5b820160c08185031215611cda57600080fd5b634e487b7160e01b600052602160045260246000fd5b60038110612210576122106121ea565b9052565b6000815180845260005b8181101561223a5760208185018101518683018201520161221e565b506000602082860101526020601f19601f83011685010191505092915050565b60ff8151168252600060208201516040602085015261227c6040850182612214565b949350505050565b6000815160408452608084016001600160401b038251166040860152602082015191506040606086015280825180835260a087019150602084019350600092505b808310156122f05783516001600160a01b0316825260209384019360019390930192909101906122c5565b5060208501519250858103602087015261230a818461225a565b9695505050505050565b60208152612326602082018351612200565b6000602083015160c0604084015261234160e0840182612284565b90506040840151601f1984830301606085015261235e8282612284565b9150506001600160401b036060850151166080840152608084015160a084015260a0840151601f198483030160c08501526123998282612214565b95945050505050565b602081526000611cda6020830184612214565b600181811c908216806123c957607f821691505b60208210810361074e57634e487b7160e01b600052602260045260246000fd5b60208101600583106123fd576123fd6121ea565b91905290565b60006020828403121561241557600080fd5b813560038110611cda57600080fd5b6000808335601e1984360301811261243b57600080fd5b8301803591506001600160401b0382111561245557600080fd5b60200191503681900382131561246a57600080fd5b9250929050565b634e487b7160e01b600052604160045260246000fd5b604080519081016001600160401b03811182821017156124a9576124a9612471565b60405290565b604051601f8201601f191681016001600160401b03811182821017156124d7576124d7612471565b604052919050565b600082601f8301126124f057600080fd5b81356001600160401b0381111561250957612509612471565b61251c601f8201601f19166020016124af565b81815284602083860101111561253157600080fd5b816020850160208301376000918101602001919091529392505050565b60006020828403121561256057600080fd5b81356001600160401b0381111561257657600080fd5b82016040818503121561258857600080fd5b612590612487565b81356001600160401b038111156125a657600080fd5b6125b2868285016124df565b82525060208201356001600160401b038111156125ce57600080fd5b6125da868285016124df565b602083015250949350505050565b60008235603e198336030181126125fe57600080fd5b9190910192915050565b6001600160401b0381168114611f2d57600080fd5b60006001600160401b0382111561263657612636612471565b5060051b60200190565b6001600160a01b0381168114611f2d57600080fd5b60006040828403121561266757600080fd5b61266f612487565b9050813560ff8116811461268257600080fd5b815260208201356001600160401b0381111561269d57600080fd5b6126a9848285016124df565b60208301525092915050565b6000604082360312156126c757600080fd5b6126cf612487565b82356001600160401b038111156126e557600080fd5b830160403682900312156126f857600080fd5b612700612487565b813561270b81612608565b815260208201356001600160401b0381111561272657600080fd5b919091019036601f83011261273a57600080fd5b813561274d6127488261261d565b6124af565b8082825260208201915060208360051b86010192503683111561276f57600080fd5b6020850194505b8285101561279a57843561278981612640565b825260209485019490910190612776565b806020850152505050808352505060208301356001600160401b038111156127c157600080fd5b6126a936828601612655565b6000604083016001600160401b038351168452602083015160406020860152818151808452606087019150602083019350600092505b8083101561282e5783516001600160a01b031682526020938401936001939093019290910190612803565b5095945050505050565b602081526000611cda60208301846127cd565b60006020828403121561285d57600080fd5b81518015158114611cda57600080fd5b6000604083016001600160401b03835416845260018301604060208601528181548084526060870191508260005260206000209350600092505b8083101561282e5783546001600160a01b0316825260019384019392909201916020909101906128a7565b6040815260006128e560408301856127cd565b8281036020840152612399818561286d565b600081516040845261290c60408501826127cd565b90506020830151848203602086015260ff815116825260208101519050604060208301526123996040830182612214565b6040815261294f604082018451612200565b6000602084015160c0606084015261296b6101008401826128f7565b90506040850151603f1984830301608085015261298882826128f7565b9150506001600160401b0360608601511660a0840152608085015160c084015260a0850151603f198483030160e08501526129c38282612214565b9150508281036020840152612399818561286d565b60028110611f2d57600080fd5b6000602082840312156129f757600080fd5b8151611cda816129d8565b604081526000612a1560408301856127cd565b828103602084015261239981856127cd565b600060208284031215612a3957600080fd5b81516001600160401b03811115612a4f57600080fd5b820160408185031215612a6157600080fd5b612a69612487565b8151612a7481612608565b815260208201516001600160401b03811115612a8f57600080fd5b80830192505084601f830112612aa457600080fd5b8151612ab26127488261261d565b8082825260208201915060208360051b860101925087831115612ad457600080fd5b6020850194505b82851015612aff578451612aee81612640565b825260209485019490910190612adb565b6020840152509095945050505050565b600060208284031215612b2157600080fd5b8151611cda81612640565b634e487b7160e01b600052601160045260246000fd5b60006001600160401b0382166001600160401b038103612b6457612b64612b2c565b60010192915050565b602081526001600160401b0382511660208201526001600160801b0360208301511660408201526000604083015160608084015261227c6080840182612214565b60006040828403128015612bc157600080fd5b50612bca612487565b8251612bd5816129d8565b81526020830151612be581612640565b60208201529392505050565b6001600160401b038181168382160190811115610f3957610f39612b2c565b80820180821115610f3957610f39612b2c565b601f821115611b1657806000526020600020601f840160051c81016020851015612c4a5750805b601f840160051c820191505b81811015611a7a5760008155600101612c56565b81516001600160401b03811115612c8357612c83612471565b612c9781612c9184546123b5565b84612c23565b6020601f821160018114612ccb5760008315612cb35750848201515b600019600385901b1c1916600184901b178455611a7a565b600084815260208120601f198516915b82811015612cfb5787850151825560209485019460019092019101612cdb565b5084821015612d195786840151600019600387901b60f8161c191681555b50505050600190811b01905550565b634e487b7160e01b600052603260045260246000fd5b600060208284031215612d5057600080fd5b5051919050565b600082612d7457634e487b7160e01b600052601260045260246000fd5b500490565b8082028115828204841417610f3957610f39612b2c56fe537570706f727420666f72206d756c74692d6c6576656c2063726f73732d6e6574206d657373616765732069732064697361626c6564537570706f727420666f722067656e6572616c2d707572706f73652063726f73732d6e6574206d657373616765732069732064697361626c6564a2646970667358221220cb8e3353b0507488954faabc56a31b499165398613c440ccf2f53683684a38c464736f6c634300081a0033","linkReferences":{"contracts/lib/CrossMsgHelper.sol":{"CrossMsgHelper":[{"start":2250,"length":20}]},"contracts/lib/SubnetIDHelper.sol":{"SubnetIDHelper":[{"start":1933,"length":20},{"start":2086,"length":20},{"start":2381,"length":20},{"start":2507,"length":20},{"start":2660,"length":20},{"start":2784,"length":20},{"start":2922,"length":20},{"start":3096,"length":20},{"start":3225,"length":20},{"start":3960,"length":20},{"start":4230,"length":20},{"start":6997,"length":20},{"start":7261,"length":20}]}}},"methodIdentifiers":{"propagate(bytes32)":"25bf0db6","sendContractXnetMessage((uint8,((uint64,address[]),(uint8,bytes)),((uint64,address[]),(uint8,bytes)),uint64,uint256,bytes))":"3eeb723f"},"id":13}