{"abi":[{"type":"function","name":"propagate","inputs":[{"name":"msgCid","type":"bytes32","internalType":"bytes32"}],"outputs":[],"stateMutability":"payable"},{"type":"function","name":"sendContractXnetMessage","inputs":[{"name":"envelope","type":"tuple","internalType":"struct IpcEnvelope","components":[{"name":"kind","type":"uint8","internalType":"enum IpcMsgKind"},{"name":"to","type":"tuple","internalType":"struct IPCAddress","components":[{"name":"subnetId","type":"tuple","internalType":"struct SubnetID","components":[{"name":"root","type":"uint64","internalType":"uint64"},{"name":"route","type":"address[]","internalType":"address[]"}]},{"name":"rawAddress","type":"tuple","internalType":"struct FvmAddress","components":[{"name":"addrType","type":"uint8","internalType":"uint8"},{"name":"payload","type":"bytes","internalType":"bytes"}]}]},{"name":"from","type":"tuple","internalType":"struct IPCAddress","components":[{"name":"subnetId","type":"tuple","internalType":"struct SubnetID","components":[{"name":"root","type":"uint64","internalType":"uint64"},{"name":"route","type":"address[]","internalType":"address[]"}]},{"name":"rawAddress","type":"tuple","internalType":"struct FvmAddress","components":[{"name":"addrType","type":"uint8","internalType":"uint8"},{"name":"payload","type":"bytes","internalType":"bytes"}]}]},{"name":"nonce","type":"uint64","internalType":"uint64"},{"name":"value","type":"uint256","internalType":"uint256"},{"name":"message","type":"bytes","internalType":"bytes"}]}],"outputs":[{"name":"committed","type":"tuple","internalType":"struct IpcEnvelope","components":[{"name":"kind","type":"uint8","internalType":"enum IpcMsgKind"},{"name":"to","type":"tuple","internalType":"struct IPCAddress","components":[{"name":"subnetId","type":"tuple","internalType":"struct SubnetID","components":[{"name":"root","type":"uint64","internalType":"uint64"},{"name":"route","type":"address[]","internalType":"address[]"}]},{"name":"rawAddress","type":"tuple","internalType":"struct FvmAddress","components":[{"name":"addrType","type":"uint8","internalType":"uint8"},{"name":"payload","type":"bytes","internalType":"bytes"}]}]},{"name":"from","type":"tuple","internalType":"struct IPCAddress","components":[{"name":"subnetId","type":"tuple","internalType":"struct SubnetID","components":[{"name":"root","type":"uint64","internalType":"uint64"},{"name":"route","type":"address[]","internalType":"address[]"}]},{"name":"rawAddress","type":"tuple","internalType":"struct FvmAddress","components":[{"name":"addrType","type":"uint8","internalType":"uint8"},{"name":"payload","type":"bytes","internalType":"bytes"}]}]},{"name":"nonce","type":"uint64","internalType":"uint64"},{"name":"value","type":"uint256","internalType":"uint256"},{"name":"message","type":"bytes","internalType":"bytes"}]}],"stateMutability":"payable"},{"type":"event","name":"NewBottomUpMsgBatch","inputs":[{"name":"epoch","type":"uint256","indexed":true,"internalType":"uint256"}],"anonymous":false},{"type":"event","name":"NewTopDownMessage","inputs":[{"name":"subnet","type":"address","indexed":true,"internalType":"address"},{"name":"message","type":"tuple","indexed":false,"internalType":"struct IpcEnvelope","components":[{"name":"kind","type":"uint8","internalType":"enum IpcMsgKind"},{"name":"to","type":"tuple","internalType":"struct IPCAddress","components":[{"name":"subnetId","type":"tuple","internalType":"struct SubnetID","components":[{"name":"root","type":"uint64","internalType":"uint64"},{"name":"route","type":"address[]","internalType":"address[]"}]},{"name":"rawAddress","type":"tuple","internalType":"struct FvmAddress","components":[{"name":"addrType","type":"uint8","internalType":"uint8"},{"name":"payload","type":"bytes","internalType":"bytes"}]}]},{"name":"from","type":"tuple","internalType":"struct IPCAddress","components":[{"name":"subnetId","type":"tuple","internalType":"struct SubnetID","components":[{"name":"root","type":"uint64","internalType":"uint64"},{"name":"route","type":"address[]","internalType":"address[]"}]},{"name":"rawAddress","type":"tuple","internalType":"struct FvmAddress","components":[{"name":"addrType","type":"uint8","internalType":"uint8"},{"name":"payload","type":"bytes","internalType":"bytes"}]}]},{"name":"nonce","type":"uint64","internalType":"uint64"},{"name":"value","type":"uint256","internalType":"uint256"},{"name":"message","type":"bytes","internalType":"bytes"}]}],"anonymous":false},{"type":"error","name":"CallFailed","inputs":[]},{"type":"error","name":"CannotSendCrossMsgToItself","inputs":[]},{"type":"error","name":"InsufficientFunds","inputs":[]},{"type":"error","name":"InvalidXnetMessage","inputs":[{"name":"reason","type":"uint8","internalType":"enum InvalidXnetMessageReason"}]},{"type":"error","name":"MethodNotAllowed","inputs":[{"name":"reason","type":"string","internalType":"string"}]},{"type":"error","name":"NotRegisteredSubnet","inputs":[]}],"bytecode":{"object":"0x608080604052346015576121c6908161001b8239f35b600080fdfe6080604052600436101561001257600080fd5b60003560e01c806325bf0db6146104aa57633eeb723f1461003257600080fd5b60203660031901126103f3576004356001600160401b0381116103f3578060040181360360c06003198201126103f35761006a610b95565b5060ff60065460081c161561042457333b1561040e57346084840135036103f85781359260038410156103f3576001600094036103e05760a481016100af8185610bd6565b810193906020818603126103a8578035906001600160401b0382116103ac57016040818603126103a857604051906100e6826106fc565b80356001600160401b0381116103a45786610102918301610c3f565b82526020810135906001600160401b0382116103a4576001600160401b039660209261012e9201610c3f565b910152610139610b59565b506101c66040513360601b602082015260148152610158603482610763565b6101b8604051916101688361072d565b600a83526fffffffffffffffffffffffffffffffff602084016014815260408501928352604051998a956020808801525116604086015251166060840152516060608084015260a08301906105ab565b03601f198101865285610763565b604051936101d3856106fc565b600485526020850152604051936101e9856106fc565b6101f161079f565b85526020850152602483013590604219018112156103dc57610214920193610bd6565b916040519361022285610748565b60018552604060031982360301126103dc5760405190610241826106fc565b60048101356001600160401b0381116103ac576004908201016040813603126103ac5760405190610271826106fc565b80356001600160401b03811681036103d85782526020810135906001600160401b0382116103d8570136601f820112156103a45780356102b081610c5a565b916102be6040519384610763565b81835260208084019260051b820101903682116103d457602001915b8183106103b0575050506020820152825260248101356001600160401b0381116103ac5760049101016040813603126103a8576040519061031a826106fc565b803560ff811681036103a457825260208101356001600160401b0381116103a457926103a0989261035761037f9693610394999896369101610c3f565b6020820152602082015260208801526040870152606086015260808501923484523691610c08565b60a084015261038d83610e7e565b90516117bb565b60405191829182610680565b0390f35b8880fd5b8680fd5b8780fd5b82356001600160a01b03811681036103d0578152602092830192016102da565b8c80fd5b8b80fd5b8980fd5b8580fd5b63bc0f01cf60e01b845260048052602484fd5b600080fd5b63bc0f01cf60e01b600052600360045260246000fd5b63bc0f01cf60e01b600052600060045260246000fd5b6104a6604051610435606082610763565b603a81527f537570706f727420666f722067656e6572616c2d707572706f73652063726f7360208201527f732d6e6574206d657373616765732069732064697361626c6564000000000000604082015260405191829163015538b160e01b83526020600484015260248301906105ab565b0390fd5b60203660031901126103f35760043560ff60065460101c161561050d578061050b916000526022602052604060002090600a6104ed6104e8846109d1565b610e7e565b9201549060005260226020526105066040600020610b23565b6117bb565b005b6104a660405161051e606082610763565b603681527f537570706f727420666f72206d756c74692d6c6576656c2063726f73732d6e656020820152751d081b595cdcd859d95cc81a5cc8191a5cd8589b195960521b604082015260405191829163015538b160e01b83526020600484015260248301906105ab565b9060038210156105955752565b634e487b7160e01b600052602160045260246000fd5b919082519283825260005b8481106105d7575050826000602080949584010152601f8019910116010190565b806020809284010151828286010152016105b6565b91909180519060408452602060808501926001600160401b038151166040870152015191604060608601528251809152602060a0860193019060005b81811061066157505050602061065e9394816040930151908281860391015260ff815116845201519181602082015201906105ab565b90565b82516001600160a01b0316855260209485019490920191600101610628565b9061065e9160208152610697602082018351610588565b60a06106cb6106b5602085015160c0604086015260e08501906105ec565b6040850151848203601f190160608601526105ec565b926001600160401b03606082015116608084015260808101518284015201519060c0601f19828503019101526105ab565b604081019081106001600160401b0382111761071757604052565b634e487b7160e01b600052604160045260246000fd5b606081019081106001600160401b0382111761071757604052565b60c081019081106001600160401b0382111761071757604052565b90601f801991011681019081106001600160401b0382111761071757604052565b6001600160401b03811161071757601f01601f191660200190565b604051906107ac826106fc565b6012546001600160401b031682526040516013805480835260009182528491839160208301917f66de8ffda797e3de9c05e8fc57b3bf0ec28a930d40b0d285d93c06501cf6a09091905b818110610813575050506020929161080f910384610763565b0152565b82546001600160a01b03168452869450602090930192600192830192016107f6565b90604051610842816106fc565b600181936001600160401b0381541683520190604051809283916020825491828152019160005260206000209060005b81811061088b575050506020929161080f910384610763565b82546001600160a01b0316845286945060209093019260019283019201610872565b90600182811c921680156108dd575b60208310146108c757565b634e487b7160e01b600052602260045260246000fd5b91607f16916108bc565b90604051918260008254926108fb846108ad565b80845293600181169081156109695750600114610922575b5061092092500383610763565b565b90506000929192526020600020906000915b81831061094d5750509060206109209282010138610913565b6020919350806001915483858901015201910190918492610934565b90506020925061092094915060ff191682840152151560051b82010138610913565b9060405191610999836106fc565b6020836109a583610835565b81526109c96003604051946109b9866106fc565b60ff6002820154168652016108e7565b828401520152565b906040516109de81610748565b809260ff81541690600382101561059557600b610a3f9160a0938552610a066001820161098b565b6020860152610a176005820161098b565b60408601526001600160401b036009820154166060860152600a8101546080860152016108e7565b910152565b818110610a4f575050565b60008155600101610a44565b90600160401b811161071757815490808355818110610a7957505050565b6109209260005260206000209182019101610a44565b610a9981546108ad565b9081610aa3575050565b81601f60009311600114610ab5575055565b81835260208320610ad191601f0160051c810190600101610a44565b8082528160208120915555565b600361092091600081556001810180546000825580610b07575b50506000600282015501610a8f565b610b1c91600052602060002090810190610a44565b3880610af8565b600b6109209160008155610b3960018201610ade565b610b4560058201610ade565b600060098201556000600a82015501610a8f565b60405190610b66826106fc565b6060602083600081520152565b60405190610b80826106fc565b81610b89610b59565b81526020610a3f610b59565b60405190610ba282610748565b606060a08360008152610bb3610b73565b6020820152610bc0610b73565b6040820152600083820152600060808201520152565b903590601e19813603018212156103f357018035906001600160401b0382116103f3576020019181360383136103f357565b929192610c1482610784565b91610c226040519384610763565b8294818452818301116103f3578281602093846000960137010152565b9080601f830112156103f35781602061065e93359101610c08565b6001600160401b0381116107175760051b60200190565b908160209103126103f3575180151581036103f35790565b602060608160408501936001600160401b03815116865201519360408382015284518094520192019060005b818110610cc25750505090565b82516001600160a01b0316845260209384019390920191600101610cb5565b90610cf490604083526040830190610c89565b906020818303910152604081016001600160401b036012541682526060600160120192604060208201528354809352019160005260206000209060005b818110610d3e5750505090565b82546001600160a01b0316845260209093019260019283019201610d31565b6040602061065e9381610d77855185845285840190610c89565b940151908281860391015260ff815116845201519181602082015201906105ab565b51906001600160a01b03821682036103f357565b6020818303126103f3578051906001600160401b0382116103f35701906040828203126103f35760405191610de1836106fc565b80516001600160401b03811681036103f35783526020810151906001600160401b0382116103f357019080601f830112156103f3578151610e2181610c5a565b92610e2f6040519485610763565b81845260208085019260051b8201019283116103f357602001905b828210610e5c57505050602082015290565b60208091610e6984610d99565b815201910190610e4a565b6002111561059557565b602081018051519073__$3fbe32418a9ca7804328967972fb037388$__90604051630c133d1360e31b81526020600482015260208180610ec16024820188610c89565b0381865af49081156113945760009161179c575b506117865760405163c836244d60e01b815260208180610ef88760048301610ce1565b0381865af490811561139457600091611767575b50611756576040840180515193610f696040519263855f7e4560e01b845260406004850152610f3f604485018951610588565b610f56855160c06064870152610104860190610d5d565b9051848203604319016084860152610d5d565b9460608701926001600160401b0384511660a482015280610fa560808a0198895160c484015260a08b01516043198483030160e48501526105ab565b600319828203016024830152606060408201916001600160401b03601254168152604060208201526013548093520190601360005260206000209060005b8181106117345750505090808260209350038173__$c0560e63386df2470ca6214f90e7038fc9$__5af4908115611394576000916116f5575b509060405192631ccc893360e11b845260406004850152600084806110596110476044830186610c89565b82810360031901602484015286610c89565b03818a5af49384156113945761108f946020916000916116da575b506040518096819263c836244d60e01b835260048301610ce1565b03818a5af4938415611394576000946116b9575b506000906110b084610e74565b600184036115ab5750506040516308c7427760e11b81526020600482015290600082806110e06024820185610c89565b03818a5af49182156113945761111692602091600091611590575b506040518094819263c836244d60e01b835260048301610ce1565b03818a5af49182156113945760009261156f575b50816114e8575b505b611455575b61114181610e74565b1590811561144d575b50611162575050509061115c90611eac565b51151590565b600354916001600160401b038360401c16906001600160401b0382146113a0576111cb9367ffffffffffffffff60401b60016000940160401b169067ffffffffffffffff60401b19161760035551516040518094819263089032d560e01b835260048301610ce1565b0381865af491821561139457600092611428575b506040516390ba52cf60e01b815260206004820181905281806112056024820187610c89565b0381875af4908115611394576000916113f6575b5060005260208052604060002093611259602061123860048801610835565b60405180938192630c133d1360e31b83528460048401526024830190610c89565b0381885af4908115611394576000916113c7575b506113b6576002916001600160401b036112916003880192828454168091526118d2565b166001600160401b03198254161790555193019182549384018094116113a0576112db936020935560405180809581946304e384ff60e21b83528660048401526024830190610c89565b03915af490811561139457600091611335575b506040516001600160a01b03909116917ffdd39ce2560484814971f663392e78ae37dc62ba184b3370d830371dd271a8b79190819061132d9082610680565b0390a2600090565b90506020813d60201161138c575b8161135060209383610763565b810103126103f35761132d6113857ffdd39ce2560484814971f663392e78ae37dc62ba184b3370d830371dd271a8b792610d99565b91506112ee565b3d9150611343565b6040513d6000823e3d90fd5b634e487b7160e01b600052601160045260246000fd5b630e991abd60e41b60005260046000fd5b6113e9915060203d6020116113ef575b6113e18183610763565b810190610c71565b3861126d565b503d6113d7565b90506020813d602011611420575b8161141160209383610763565b810103126103f3575138611219565b3d9150611404565b6114469192503d806000833e61143e8183610763565b810190610dad565b90386111df565b90503861114a565b86516003811015610595576111385760405163015538b160e01b815260206004820152604f60248201527f70726f7061676174696f6e206f6620605472616e7366657260206d657373616760448201527f6573206e6f742073757070706f7274656420666f72207375626e65747320776960648201526e746820455243323020737570706c7960881b608482015260a490fd5b611511915060209060405180938192632cff562160e11b83528460048401526024830190610c89565b0381895af4801561139457600090611534575b61152e915061182b565b38611131565b506020813d602011611567575b8161154e60209383610763565b810103126103f35761156261152e91610d99565b611524565b3d9150611541565b61158991925060203d6020116113ef576113e18183610763565b903861112a565b6115a591503d806000833e61143e8183610763565b386110fb565b9091506115b783610e74565b8183156115c6575b5050611133565b60405163089032d560e01b815291829081906115e59060048301610ce1565b03818a5af49081156116ae5782916020916116229491611694575b5060405180948192632cff562160e11b83528460048401526024830190610c89565b03818a5af4908115611688578091611647575b50611640915061182b565b38816115bf565b90506020823d602011611680575b8161166260209383610763565b8101031261167d575061167761164091610d99565b38611635565b80fd5b3d9150611655565b604051903d90823e3d90fd5b6116a891503d8085833e61143e8183610763565b38611600565b6040513d84823e3d90fd5b6116d391945060203d6020116113ef576113e18183610763565b92386110a3565b6116ef91503d806000833e61143e8183610763565b38611074565b6020813d60201161172c575b8161170e60209383610763565b81010312611728575190600282101561167d57503861101c565b5080fd5b3d9150611701565b82546001600160a01b0316845285945060209093019260019283019201610fe3565b632f3335ff60e21b60005260046000fd5b611780915060203d6020116113ef576113e18183610763565b38610f0c565b63bc0f01cf60e01b600052600160045260246000fd5b6117b5915060203d6020116113ef576113e18183610763565b38610ed5565b906117c35750565b80471061181a5760008080809360635af13d15611815573d6117e481610784565b906117f26040519283610763565b8152600060203d92013e5b1561180457565b633204506f60e01b60005260046000fd5b6117fd565b63356680b760e01b60005260046000fd5b604080516380875df760e01b815291829060049082906001600160a01b03165afa90811561139457600091611876575b505161186681610e74565b80611872600192610e74565b1490565b6040813d6040116118ca575b8161188f60409383610763565b8101031261172857604051916118a4836106fc565b815190600282101561167d575082526118bf90602001610d99565b60208201523861185b565b3d9150611882565b6001600160401b036001911601906001600160401b0382116113a057565b6013811461197057601354906001600160401b038211610717576119148282610a5b565b6000908152602081207f66de8ffda797e3de9c05e8fc57b3bf0ec28a930d40b0d285d93c06501cf6a09080545b84841061194f575050505050565b600191820180546001600160a01b0390921684860155939091019290611941565b50565b805482101561198f57600052600c602060002091020190600090565b634e487b7160e01b600052603260045260246000fd5b9190918054600160401b811015610717576119c591600182018155611973565b929092611e825780519260038410156105955760009360ff80198354169116178155602082015180516001600160401b038151166001600160401b036001850191166001600160401b0319825416179055602060028401910151908151916001600160401b038311611dbe57602090611a3e8484610a5b565b0190875260208720875b838110611e6557505050506020600383019101519060ff82511660ff198254161790556020600483019101518051906001600160401b038211611d8d57611a8f83546108ad565b601f8111611e35575b50602090601f8311600114611dd257611ac99291889183611c3c575b50508160011b916000199060031b1c19161790565b90555b60408201518051805160058401805467ffffffffffffffff19166001600160401b039283161790556020909101518051916006850191908311611dbe57602090611b168484610a5b565b0190875260208720875b838110611da157505050506020600783019101519060ff82511660ff198254161790556020600883019101518051906001600160401b038211611d8d57611b6783546108ad565b601f8111611d5d575b50602090601f8311600114611cf4578260a09593600b9593611ba7938b92611c3c5750508160011b916000199060031b1c19161790565b90555b6001600160401b036060850151166001600160401b036009830191166001600160401b03198254161790556080840151600a82015501910151928351906001600160401b038211611ce057611bff83546108ad565b601f8111611ca5575b50602090601f8311600114611c475790611c3893949583611c3c5750508160011b916000199060031b1c19161790565b9055565b015190503880611ab4565b90601f198316848352818320925b818110611c8d57509583600195969710611c74575b505050811b019055565b015160001960f88460031b161c19169055388080611c6a565b9192602060018192868b015181550194019201611c55565b611cd09084835260208320601f850160051c81019160208610611cd6575b601f0160051c0190610a44565b38611c08565b9091508190611cc3565b634e487b7160e01b81526041600452602490fd5b8388528188209190601f198416895b818110611d45575092600192859260a09896600b989610611d2c575b505050811b019055611baa565b015160001960f88460031b161c19169055388080611d1f565b92936020600181928786015181550195019301611d03565b611d879084895260208920601f850160051c81019160208610611cd657601f0160051c0190610a44565b38611b70565b634e487b7160e01b87526041600452602487fd5b82516001600160a01b031681830155602090920191600101611b20565b634e487b7160e01b88526041600452602488fd5b8388528188209190601f198416895b818110611e1d5750908460019594939210611e04575b505050811b019055611acc565b015160001960f88460031b161c19169055388080611df7565b92936020600181928786015181550195019301611de1565b611e5f9084895260208920601f850160051c81019160208610611cd657601f0160051c0190610a44565b38611a98565b82516001600160a01b031681830155602090920191600101611a48565b634e487b7160e01b600052600060045260246000fd5b805182101561198f5760209160051b010190565b600154801561217a57806001600160401b03431604600181018091116113a0578181029181830414901517156113a0576001600160401b03611ef781600354168060608601526118d2565b166001600160401b031960035416176003558060005260246020526040600020906002820180541561213357505060030190815460035460c01c1460001461212a578154611f4481610c5a565b91611f526040519384610763565b818352601f19611f6183610c5a565b0160005b81811061211357505060405193611f7b8561072d565b611f8361079f565b855260208501924384526040860194855260005b8181106120df5750437f4ecfe3c1ed32ef0a63d3801d51eb20214db90b14dc5fd1ca58a9de54f16f46a6600080a260008255806120a4575b5090611fda916119a5565b80516000526024602052604060002092516001600160401b0380825116166001600160401b0319855416178455602060018501910151908151916001600160401b038311610717576020906120328484989798610a5b565b0190600052602060002060005b838110612087575050505051600282015581515191600360009201915b8381106120695750505050565b8061208161207a6001938551611e98565b51856119a5565b0161205c565b82516001600160a01b03168183015560209092019160010161203f565b80600c0290600c8204036113a057816000526020600020908101905b8181106120cd5750611fcf565b806120d9600c92610b23565b016120c0565b8061210c816120f060019487611973565b506120fc8a51916109d1565b6121068383611e98565b52611e98565b5001611f97565b60209061211e610b95565b82828801015201611f65565b610920916119a5565b9160039161092094936012830361214c575b55016119a5565b6001600160401b038060125416166001600160401b0319845416178355612175600184016118f0565b612145565b634e487b7160e01b600052601260045260246000fdfea2646970667358221220812ecc9ca92d67a38462a88898fb3f93cad10dc6e8f97d5faad69639a074d44f64736f6c634300081a0033","linkReferences":{"contracts/lib/CrossMsgHelper.sol":{"CrossMsgHelper":[{"start":4115,"length":20}]},"contracts/lib/SubnetIDHelper.sol":{"SubnetIDHelper":[{"start":3747,"length":20}]}}},"methodIdentifiers":{"propagate(bytes32)":"25bf0db6","sendContractXnetMessage((uint8,((uint64,address[]),(uint8,bytes)),((uint64,address[]),(uint8,bytes)),uint64,uint256,bytes))":"3eeb723f"},"id":13}