{"abi":[{"type":"function","name":"appliedTopDownNonce","inputs":[],"outputs":[{"name":"","type":"uint64","internalType":"uint64"}],"stateMutability":"view"},{"type":"function","name":"bottomUpCheckPeriod","inputs":[],"outputs":[{"name":"","type":"uint256","internalType":"uint256"}],"stateMutability":"view"},{"type":"function","name":"bottomUpCheckpoint","inputs":[{"name":"e","type":"uint256","internalType":"uint256"}],"outputs":[{"name":"","type":"tuple","internalType":"struct BottomUpCheckpoint","components":[{"name":"subnetID","type":"tuple","internalType":"struct SubnetID","components":[{"name":"root","type":"uint64","internalType":"uint64"},{"name":"route","type":"address[]","internalType":"address[]"}]},{"name":"blockHeight","type":"uint256","internalType":"uint256"},{"name":"blockHash","type":"bytes32","internalType":"bytes32"},{"name":"nextConfigurationNumber","type":"uint64","internalType":"uint64"},{"name":"msgs","type":"tuple[]","internalType":"struct IpcEnvelope[]","components":[{"name":"kind","type":"uint8","internalType":"enum IpcMsgKind"},{"name":"to","type":"tuple","internalType":"struct IPCAddress","components":[{"name":"subnetId","type":"tuple","internalType":"struct SubnetID","components":[{"name":"root","type":"uint64","internalType":"uint64"},{"name":"route","type":"address[]","internalType":"address[]"}]},{"name":"rawAddress","type":"tuple","internalType":"struct FvmAddress","components":[{"name":"addrType","type":"uint8","internalType":"uint8"},{"name":"payload","type":"bytes","internalType":"bytes"}]}]},{"name":"from","type":"tuple","internalType":"struct IPCAddress","components":[{"name":"subnetId","type":"tuple","internalType":"struct SubnetID","components":[{"name":"root","type":"uint64","internalType":"uint64"},{"name":"route","type":"address[]","internalType":"address[]"}]},{"name":"rawAddress","type":"tuple","internalType":"struct FvmAddress","components":[{"name":"addrType","type":"uint8","internalType":"uint8"},{"name":"payload","type":"bytes","internalType":"bytes"}]}]},{"name":"nonce","type":"uint64","internalType":"uint64"},{"name":"value","type":"uint256","internalType":"uint256"},{"name":"message","type":"bytes","internalType":"bytes"}]}]}],"stateMutability":"view"},{"type":"function","name":"bottomUpMsgBatch","inputs":[{"name":"e","type":"uint256","internalType":"uint256"}],"outputs":[{"name":"","type":"tuple","internalType":"struct BottomUpMsgBatch","components":[{"name":"subnetID","type":"tuple","internalType":"struct SubnetID","components":[{"name":"root","type":"uint64","internalType":"uint64"},{"name":"route","type":"address[]","internalType":"address[]"}]},{"name":"blockHeight","type":"uint256","internalType":"uint256"},{"name":"msgs","type":"tuple[]","internalType":"struct IpcEnvelope[]","components":[{"name":"kind","type":"uint8","internalType":"enum IpcMsgKind"},{"name":"to","type":"tuple","internalType":"struct IPCAddress","components":[{"name":"subnetId","type":"tuple","internalType":"struct SubnetID","components":[{"name":"root","type":"uint64","internalType":"uint64"},{"name":"route","type":"address[]","internalType":"address[]"}]},{"name":"rawAddress","type":"tuple","internalType":"struct FvmAddress","components":[{"name":"addrType","type":"uint8","internalType":"uint8"},{"name":"payload","type":"bytes","internalType":"bytes"}]}]},{"name":"from","type":"tuple","internalType":"struct IPCAddress","components":[{"name":"subnetId","type":"tuple","internalType":"struct SubnetID","components":[{"name":"root","type":"uint64","internalType":"uint64"},{"name":"route","type":"address[]","internalType":"address[]"}]},{"name":"rawAddress","type":"tuple","internalType":"struct FvmAddress","components":[{"name":"addrType","type":"uint8","internalType":"uint8"},{"name":"payload","type":"bytes","internalType":"bytes"}]}]},{"name":"nonce","type":"uint64","internalType":"uint64"},{"name":"value","type":"uint256","internalType":"uint256"},{"name":"message","type":"bytes","internalType":"bytes"}]}]}],"stateMutability":"view"},{"type":"function","name":"bottomUpNonce","inputs":[],"outputs":[{"name":"","type":"uint64","internalType":"uint64"}],"stateMutability":"view"},{"type":"function","name":"getAppliedBottomUpNonce","inputs":[{"name":"subnetId","type":"tuple","internalType":"struct SubnetID","components":[{"name":"root","type":"uint64","internalType":"uint64"},{"name":"route","type":"address[]","internalType":"address[]"}]}],"outputs":[{"name":"","type":"bool","internalType":"bool"},{"name":"","type":"uint64","internalType":"uint64"}],"stateMutability":"view"},{"type":"function","name":"getCheckpointCurrentWeight","inputs":[{"name":"h","type":"uint256","internalType":"uint256"}],"outputs":[{"name":"","type":"uint256","internalType":"uint256"}],"stateMutability":"view"},{"type":"function","name":"getCheckpointInfo","inputs":[{"name":"h","type":"uint256","internalType":"uint256"}],"outputs":[{"name":"","type":"tuple","internalType":"struct QuorumInfo","components":[{"name":"hash","type":"bytes32","internalType":"bytes32"},{"name":"rootHash","type":"bytes32","internalType":"bytes32"},{"name":"threshold","type":"uint256","internalType":"uint256"},{"name":"currentWeight","type":"uint256","internalType":"uint256"},{"name":"reached","type":"bool","internalType":"bool"}]}],"stateMutability":"view"},{"type":"function","name":"getCheckpointRetentionHeight","inputs":[],"outputs":[{"name":"","type":"uint256","internalType":"uint256"}],"stateMutability":"view"},{"type":"function","name":"getCheckpointSignatureBundle","inputs":[{"name":"h","type":"uint256","internalType":"uint256"}],"outputs":[{"name":"ch","type":"tuple","internalType":"struct BottomUpCheckpoint","components":[{"name":"subnetID","type":"tuple","internalType":"struct SubnetID","components":[{"name":"root","type":"uint64","internalType":"uint64"},{"name":"route","type":"address[]","internalType":"address[]"}]},{"name":"blockHeight","type":"uint256","internalType":"uint256"},{"name":"blockHash","type":"bytes32","internalType":"bytes32"},{"name":"nextConfigurationNumber","type":"uint64","internalType":"uint64"},{"name":"msgs","type":"tuple[]","internalType":"struct IpcEnvelope[]","components":[{"name":"kind","type":"uint8","internalType":"enum IpcMsgKind"},{"name":"to","type":"tuple","internalType":"struct IPCAddress","components":[{"name":"subnetId","type":"tuple","internalType":"struct SubnetID","components":[{"name":"root","type":"uint64","internalType":"uint64"},{"name":"route","type":"address[]","internalType":"address[]"}]},{"name":"rawAddress","type":"tuple","internalType":"struct FvmAddress","components":[{"name":"addrType","type":"uint8","internalType":"uint8"},{"name":"payload","type":"bytes","internalType":"bytes"}]}]},{"name":"from","type":"tuple","internalType":"struct IPCAddress","components":[{"name":"subnetId","type":"tuple","internalType":"struct SubnetID","components":[{"name":"root","type":"uint64","internalType":"uint64"},{"name":"route","type":"address[]","internalType":"address[]"}]},{"name":"rawAddress","type":"tuple","internalType":"struct FvmAddress","components":[{"name":"addrType","type":"uint8","internalType":"uint8"},{"name":"payload","type":"bytes","internalType":"bytes"}]}]},{"name":"nonce","type":"uint64","internalType":"uint64"},{"name":"value","type":"uint256","internalType":"uint256"},{"name":"message","type":"bytes","internalType":"bytes"}]}]},{"name":"info","type":"tuple","internalType":"struct QuorumInfo","components":[{"name":"hash","type":"bytes32","internalType":"bytes32"},{"name":"rootHash","type":"bytes32","internalType":"bytes32"},{"name":"threshold","type":"uint256","internalType":"uint256"},{"name":"currentWeight","type":"uint256","internalType":"uint256"},{"name":"reached","type":"bool","internalType":"bool"}]},{"name":"signatories","type":"address[]","internalType":"address[]"},{"name":"signatures","type":"bytes[]","internalType":"bytes[]"}],"stateMutability":"view"},{"type":"function","name":"getCommitSha","inputs":[],"outputs":[{"name":"","type":"bytes32","internalType":"bytes32"}],"stateMutability":"view"},{"type":"function","name":"getCurrentBottomUpCheckpoint","inputs":[],"outputs":[{"name":"exists","type":"bool","internalType":"bool"},{"name":"epoch","type":"uint256","internalType":"uint256"},{"name":"checkpoint","type":"tuple","internalType":"struct BottomUpCheckpoint","components":[{"name":"subnetID","type":"tuple","internalType":"struct SubnetID","components":[{"name":"root","type":"uint64","internalType":"uint64"},{"name":"route","type":"address[]","internalType":"address[]"}]},{"name":"blockHeight","type":"uint256","internalType":"uint256"},{"name":"blockHash","type":"bytes32","internalType":"bytes32"},{"name":"nextConfigurationNumber","type":"uint64","internalType":"uint64"},{"name":"msgs","type":"tuple[]","internalType":"struct IpcEnvelope[]","components":[{"name":"kind","type":"uint8","internalType":"enum IpcMsgKind"},{"name":"to","type":"tuple","internalType":"struct IPCAddress","components":[{"name":"subnetId","type":"tuple","internalType":"struct SubnetID","components":[{"name":"root","type":"uint64","internalType":"uint64"},{"name":"route","type":"address[]","internalType":"address[]"}]},{"name":"rawAddress","type":"tuple","internalType":"struct FvmAddress","components":[{"name":"addrType","type":"uint8","internalType":"uint8"},{"name":"payload","type":"bytes","internalType":"bytes"}]}]},{"name":"from","type":"tuple","internalType":"struct IPCAddress","components":[{"name":"subnetId","type":"tuple","internalType":"struct SubnetID","components":[{"name":"root","type":"uint64","internalType":"uint64"},{"name":"route","type":"address[]","internalType":"address[]"}]},{"name":"rawAddress","type":"tuple","internalType":"struct FvmAddress","components":[{"name":"addrType","type":"uint8","internalType":"uint8"},{"name":"payload","type":"bytes","internalType":"bytes"}]}]},{"name":"nonce","type":"uint64","internalType":"uint64"},{"name":"value","type":"uint256","internalType":"uint256"},{"name":"message","type":"bytes","internalType":"bytes"}]}]}],"stateMutability":"view"},{"type":"function","name":"getCurrentConfigurationNumber","inputs":[],"outputs":[{"name":"","type":"uint64","internalType":"uint64"}],"stateMutability":"view"},{"type":"function","name":"getCurrentMembership","inputs":[],"outputs":[{"name":"","type":"tuple","internalType":"struct Membership","components":[{"name":"validators","type":"tuple[]","internalType":"struct Validator[]","components":[{"name":"weight","type":"uint256","internalType":"uint256"},{"name":"addr","type":"address","internalType":"address"},{"name":"metadata","type":"bytes","internalType":"bytes"},{"name":"storageAmount","type":"uint256","internalType":"uint256"}]},{"name":"configurationNumber","type":"uint64","internalType":"uint64"}]}],"stateMutability":"view"},{"type":"function","name":"getIncompleteCheckpointHeights","inputs":[],"outputs":[{"name":"","type":"uint256[]","internalType":"uint256[]"}],"stateMutability":"view"},{"type":"function","name":"getIncompleteCheckpoints","inputs":[],"outputs":[{"name":"","type":"tuple[]","internalType":"struct BottomUpCheckpoint[]","components":[{"name":"subnetID","type":"tuple","internalType":"struct SubnetID","components":[{"name":"root","type":"uint64","internalType":"uint64"},{"name":"route","type":"address[]","internalType":"address[]"}]},{"name":"blockHeight","type":"uint256","internalType":"uint256"},{"name":"blockHash","type":"bytes32","internalType":"bytes32"},{"name":"nextConfigurationNumber","type":"uint64","internalType":"uint64"},{"name":"msgs","type":"tuple[]","internalType":"struct IpcEnvelope[]","components":[{"name":"kind","type":"uint8","internalType":"enum IpcMsgKind"},{"name":"to","type":"tuple","internalType":"struct IPCAddress","components":[{"name":"subnetId","type":"tuple","internalType":"struct SubnetID","components":[{"name":"root","type":"uint64","internalType":"uint64"},{"name":"route","type":"address[]","internalType":"address[]"}]},{"name":"rawAddress","type":"tuple","internalType":"struct FvmAddress","components":[{"name":"addrType","type":"uint8","internalType":"uint8"},{"name":"payload","type":"bytes","internalType":"bytes"}]}]},{"name":"from","type":"tuple","internalType":"struct IPCAddress","components":[{"name":"subnetId","type":"tuple","internalType":"struct SubnetID","components":[{"name":"root","type":"uint64","internalType":"uint64"},{"name":"route","type":"address[]","internalType":"address[]"}]},{"name":"rawAddress","type":"tuple","internalType":"struct FvmAddress","components":[{"name":"addrType","type":"uint8","internalType":"uint8"},{"name":"payload","type":"bytes","internalType":"bytes"}]}]},{"name":"nonce","type":"uint64","internalType":"uint64"},{"name":"value","type":"uint256","internalType":"uint256"},{"name":"message","type":"bytes","internalType":"bytes"}]}]}],"stateMutability":"view"},{"type":"function","name":"getLastConfigurationNumber","inputs":[],"outputs":[{"name":"","type":"uint64","internalType":"uint64"}],"stateMutability":"view"},{"type":"function","name":"getLastMembership","inputs":[],"outputs":[{"name":"","type":"tuple","internalType":"struct Membership","components":[{"name":"validators","type":"tuple[]","internalType":"struct Validator[]","components":[{"name":"weight","type":"uint256","internalType":"uint256"},{"name":"addr","type":"address","internalType":"address"},{"name":"metadata","type":"bytes","internalType":"bytes"},{"name":"storageAmount","type":"uint256","internalType":"uint256"}]},{"name":"configurationNumber","type":"uint64","internalType":"uint64"}]}],"stateMutability":"view"},{"type":"function","name":"getLatestParentFinality","inputs":[],"outputs":[{"name":"","type":"tuple","internalType":"struct ParentFinality","components":[{"name":"height","type":"uint256","internalType":"uint256"},{"name":"blockHash","type":"bytes32","internalType":"bytes32"}]}],"stateMutability":"view"},{"type":"function","name":"getNetworkName","inputs":[],"outputs":[{"name":"","type":"tuple","internalType":"struct SubnetID","components":[{"name":"root","type":"uint64","internalType":"uint64"},{"name":"route","type":"address[]","internalType":"address[]"}]}],"stateMutability":"view"},{"type":"function","name":"getParentFinality","inputs":[{"name":"blockNumber","type":"uint256","internalType":"uint256"}],"outputs":[{"name":"","type":"tuple","internalType":"struct ParentFinality","components":[{"name":"height","type":"uint256","internalType":"uint256"},{"name":"blockHash","type":"bytes32","internalType":"bytes32"}]}],"stateMutability":"view"},{"type":"function","name":"getQuorumThreshold","inputs":[{"name":"totalWeight","type":"uint256","internalType":"uint256"}],"outputs":[{"name":"","type":"uint256","internalType":"uint256"}],"stateMutability":"view"},{"type":"function","name":"getSubnet","inputs":[{"name":"subnetId","type":"tuple","internalType":"struct SubnetID","components":[{"name":"root","type":"uint64","internalType":"uint64"},{"name":"route","type":"address[]","internalType":"address[]"}]}],"outputs":[{"name":"","type":"bool","internalType":"bool"},{"name":"","type":"tuple","internalType":"struct Subnet","components":[{"name":"stake","type":"uint256","internalType":"uint256"},{"name":"genesisEpoch","type":"uint256","internalType":"uint256"},{"name":"circSupply","type":"uint256","internalType":"uint256"},{"name":"topDownNonce","type":"uint64","internalType":"uint64"},{"name":"appliedBottomUpNonce","type":"uint64","internalType":"uint64"},{"name":"id","type":"tuple","internalType":"struct SubnetID","components":[{"name":"root","type":"uint64","internalType":"uint64"},{"name":"route","type":"address[]","internalType":"address[]"}]}]}],"stateMutability":"view"},{"type":"function","name":"getSubnetKeys","inputs":[],"outputs":[{"name":"","type":"bytes32[]","internalType":"bytes32[]"}],"stateMutability":"view"},{"type":"function","name":"getSubnetTopDownMsgsLength","inputs":[{"name":"subnetId","type":"tuple","internalType":"struct SubnetID","components":[{"name":"root","type":"uint64","internalType":"uint64"},{"name":"route","type":"address[]","internalType":"address[]"}]}],"outputs":[{"name":"","type":"uint256","internalType":"uint256"}],"stateMutability":"view"},{"type":"function","name":"getTopDownNonce","inputs":[{"name":"subnetId","type":"tuple","internalType":"struct SubnetID","components":[{"name":"root","type":"uint64","internalType":"uint64"},{"name":"route","type":"address[]","internalType":"address[]"}]}],"outputs":[{"name":"","type":"bool","internalType":"bool"},{"name":"","type":"uint64","internalType":"uint64"}],"stateMutability":"view"},{"type":"function","name":"getValidatorConfigurationNumbers","inputs":[],"outputs":[{"name":"","type":"uint64","internalType":"uint64"},{"name":"","type":"uint64","internalType":"uint64"}],"stateMutability":"view"},{"type":"function","name":"listSubnets","inputs":[],"outputs":[{"name":"","type":"tuple[]","internalType":"struct Subnet[]","components":[{"name":"stake","type":"uint256","internalType":"uint256"},{"name":"genesisEpoch","type":"uint256","internalType":"uint256"},{"name":"circSupply","type":"uint256","internalType":"uint256"},{"name":"topDownNonce","type":"uint64","internalType":"uint64"},{"name":"appliedBottomUpNonce","type":"uint64","internalType":"uint64"},{"name":"id","type":"tuple","internalType":"struct SubnetID","components":[{"name":"root","type":"uint64","internalType":"uint64"},{"name":"route","type":"address[]","internalType":"address[]"}]}]}],"stateMutability":"view"},{"type":"function","name":"majorityPercentage","inputs":[],"outputs":[{"name":"","type":"uint64","internalType":"uint64"}],"stateMutability":"view"},{"type":"function","name":"maxMsgsPerBottomUpBatch","inputs":[],"outputs":[{"name":"","type":"uint64","internalType":"uint64"}],"stateMutability":"view"},{"type":"function","name":"postbox","inputs":[{"name":"id","type":"bytes32","internalType":"bytes32"}],"outputs":[{"name":"storableMsg","type":"tuple","internalType":"struct IpcEnvelope","components":[{"name":"kind","type":"uint8","internalType":"enum IpcMsgKind"},{"name":"to","type":"tuple","internalType":"struct IPCAddress","components":[{"name":"subnetId","type":"tuple","internalType":"struct SubnetID","components":[{"name":"root","type":"uint64","internalType":"uint64"},{"name":"route","type":"address[]","internalType":"address[]"}]},{"name":"rawAddress","type":"tuple","internalType":"struct FvmAddress","components":[{"name":"addrType","type":"uint8","internalType":"uint8"},{"name":"payload","type":"bytes","internalType":"bytes"}]}]},{"name":"from","type":"tuple","internalType":"struct IPCAddress","components":[{"name":"subnetId","type":"tuple","internalType":"struct SubnetID","components":[{"name":"root","type":"uint64","internalType":"uint64"},{"name":"route","type":"address[]","internalType":"address[]"}]},{"name":"rawAddress","type":"tuple","internalType":"struct FvmAddress","components":[{"name":"addrType","type":"uint8","internalType":"uint8"},{"name":"payload","type":"bytes","internalType":"bytes"}]}]},{"name":"nonce","type":"uint64","internalType":"uint64"},{"name":"value","type":"uint256","internalType":"uint256"},{"name":"message","type":"bytes","internalType":"bytes"}]}],"stateMutability":"view"},{"type":"function","name":"subnets","inputs":[{"name":"h","type":"bytes32","internalType":"bytes32"}],"outputs":[{"name":"subnet","type":"tuple","internalType":"struct Subnet","components":[{"name":"stake","type":"uint256","internalType":"uint256"},{"name":"genesisEpoch","type":"uint256","internalType":"uint256"},{"name":"circSupply","type":"uint256","internalType":"uint256"},{"name":"topDownNonce","type":"uint64","internalType":"uint64"},{"name":"appliedBottomUpNonce","type":"uint64","internalType":"uint64"},{"name":"id","type":"tuple","internalType":"struct SubnetID","components":[{"name":"root","type":"uint64","internalType":"uint64"},{"name":"route","type":"address[]","internalType":"address[]"}]}]}],"stateMutability":"view"},{"type":"function","name":"totalSubnets","inputs":[],"outputs":[{"name":"","type":"uint64","internalType":"uint64"}],"stateMutability":"view"}],"bytecode":{"object":"0x6080604052348015600f57600080fd5b50613aa18061001f6000396000f3fe608060405234801561001057600080fd5b50600436106101fb5760003560e01c80637edeac921161011a578063ac12d763116100ad578063ca41d5ce1161007c578063ca41d5ce14610565578063d6c5c39714610588578063dd81b5cf1461059f578063f3229131146105bf578063fa34a400146105c757600080fd5b8063ac12d76314610476578063b1ba49b014610510578063b3ab3f7414610521578063c66c66a11461054457600080fd5b806397042766116100e9578063970427661461042e5780639d3070b514610443578063a2b6715814610456578063a517218f1461046e57600080fd5b80637edeac92146103ce5780638789f83b146103e15780638cfd78e7146103f957806394074b031461041957600080fd5b806341b6a2e811610192578063544dddff11610161578063544dddff14610388578063599c7bd1146103995780635d029685146103a45780636ad21bb0146103b957600080fd5b806341b6a2e81461035457806342398a9a14610365578063444ead51146103785780634aa8f8a51461038057600080fd5b806306c46853116101ce57806306c46853146102e55780632da5794a146102ed5780633594c3c11461030d57806338d669321461032257600080fd5b806302e30f9a146102005780630338150f1461022957806305aff0b31461029857806306572c1a146102c4575b600080fd5b61021361020e366004612e70565b6105ef565b6040516102209190612f55565b60405180910390f35b60408051808201825260008082526020918201819052825180840184528181528201819052805483518085018552828152830182905281526021825282902082518084019093528054835260010154908201525b60408051825181526020928301519281019290925201610220565b600354600160c01b90046001600160401b03165b6040516001600160401b039091168152602001610220565b6102d76102d2366004612e70565b6106d2565b604051908152602001610220565b6001546102d7565b6103006102fb366004612e70565b6106ec565b6040516102209190613165565b610315610b9e565b6040516102209190613178565b6103356103303660046131bb565b610baa565b6040805192151583526001600160401b03909116602083015201610220565b6003546001600160401b03166102ac565b6103356103733660046131bb565b610bf6565b6005546102d7565b600c546102d7565b6008546001600160401b03166102ac565b60045460ff166102ac565b6103ac610c37565b60405161022091906131f5565b6103c1610dba565b604051610220919061325a565b61027d6103dc366004612e70565b610f09565b600354600160401b90046001600160401b03166102ac565b61040c610407366004612e70565b610f53565b604051610220919061330f565b6104216112e2565b6040516102209190613322565b610436611377565b6040516102209190613335565b6102d7610451366004613527565b6118f8565b600354600160801b90046001600160401b03166102ac565b610315611919565b610503610484366004612e70565b6040805160a081018252600080825260208201819052918101829052606081018290526080810191909152506000908152600d6020908152604091829020825160a081018452815481526001820154928101929092526002810154928201929092526003820154606082015260049091015460ff161515608082015290565b604051610220919061355b565b600a546001600160401b03166102ac565b6102d761052f366004612e70565b6000908152600d602052604090206003015490565b6105576105523660046131bb565b611925565b604051610220929190613596565b610578610573366004612e70565b611a0e565b60405161022094939291906135b1565b610590611f72565b604051610220939291906136a6565b6105b26105ad366004612e70565b611f91565b60405161022091906136c7565b6103c1612427565b6105cf612554565b604080516001600160401b03938416815292909116602083015201610220565b6105f7612d49565b60008281526020808052604091829020825160c0810184528154815260018201548184015260028201548185015260038201546001600160401b038082166060840152600160401b909104811660808301528451808601865260048401805490921681526005840180548751818802810188019098528088529396949560a088019592948582019392918301828280156106ba57602002820191906000526020600020905b81546001600160a01b0316815260019091019060200180831161069c575b5050509190925250505090525092915050565b905090565b6004546000906106e690839060ff1661257d565b92915050565b6106f4612db4565b600082815260236020908152604091829020825160e08101845281546001600160401b031660a082019081526001830180548651818702810187019097528087529295939486949293869360c0870193909290919083018282801561078257602002820191906000526020600020905b81546001600160a01b03168152600190910190602001808311610764575b505050505081525050815260200160028201548152602001600382015481526020016004820160009054906101000a90046001600160401b03166001600160401b03166001600160401b0316815260200160058201805480602002602001604051908101604052809291908181526020016000905b82821015610b90576000848152602090206040805160c08101909152600c84029091018054829060ff16600281111561083257610832612f68565b600281111561084357610843612f68565b8152604080516080810182526001840180546001600160401b03168284019081526002860180548551602082810282018101909752818152968601969495939486948693606087019390918301828280156108c757602002820191906000526020600020905b81546001600160a01b031681526001909101906020018083116108a9575b5050509190925250505081526040805180820190915260028301805460ff168252600384018054602094850194840191906109019061370a565b80601f016020809104026020016040519081016040528092919081815260200182805461092d9061370a565b801561097a5780601f1061094f5761010080835404028352916020019161097a565b820191906000526020600020905b81548152906001019060200180831161095d57829003601f168201915b505050919092525050509052508152604080516080810182526005840180546001600160401b0316828401908152600686018054855160208281028201810190975281815296860196949593948694869360608701939091830182828015610a0b57602002820191906000526020600020905b81546001600160a01b031681526001909101906020018083116109ed575b5050509190925250505081526040805180820190915260028301805460ff16825260038401805460209485019484019190610a459061370a565b80601f0160208091040260200160405190810160405280929190818152602001828054610a719061370a565b8015610abe5780601f10610a9357610100808354040283529160200191610abe565b820191906000526020600020905b815481529060010190602001808311610aa157829003601f168201915b50505091909252505050905250815260098201546001600160401b03166020820152600a8201546040820152600b82018054606090920191610aff9061370a565b80601f0160208091040260200160405190810160405280929190818152602001828054610b2b9061370a565b8015610b785780601f10610b4d57610100808354040283529160200191610b78565b820191906000526020600020905b815481529060010190602001808311610b5b57829003601f168201915b505050505081525050815260200190600101906107f7565b505050915250909392505050565b60606106cd602561259c565b6000808080610bc0610bbb86613744565b6125a9565b9150915081610bd6575060009485945092505050565b60030154600195600160401b9091046001600160401b0316945092505050565b6000808080610c07610bbb86613744565b9150915081610c1d575060009485945092505050565b600301546001956001600160401b03909116945092505050565b60606000610c45602561273d565b90506000816001600160401b03811115610c6157610c6161338e565b604051908082528060200260200182016040528015610c9a57816020015b610c87612d49565b815260200190600190039081610c7f5790505b50905060005b82811015610db3576000610cb5602583612747565b60008181526020808052604091829020825160c0810184528154815260018201548184015260028201548185015260038201546001600160401b038082166060840152600160401b909104811660808301528451808601865260048401805490921681526005840180548751818802810188019098528088529798509296939560a088019591949293858301939192909190830182828015610d8057602002820191906000526020600020905b81546001600160a01b03168152600190910190602001808311610d62575b50505050508152505081525050838381518110610d9f57610d9f613750565b602090810291909101015250600101610ca0565b5092915050565b60408051808201909152606081526000602082015260408051600780546060602082028401810185529383018181529293919284929091849160009085015b82821015610ee757600084815260209081902060408051608081018252600486029092018054835260018101546001600160a01b03169383019390935260028301805492939291840191610e4c9061370a565b80601f0160208091040260200160405190810160405280929190818152602001828054610e789061370a565b8015610ec55780601f10610e9a57610100808354040283529160200191610ec5565b820191906000526020600020905b815481529060010190602001808311610ea857829003601f168201915b5050505050815260200160038201548152505081526020019060010190610df9565b50505090825250600191909101546001600160401b0316602090910152919050565b6040805180820182526000808252602080830182905283518085018552828152810182905284825260218152908390208351808501909452805484526001015490830152906106e6565b610f5b612def565b60008281526022602052604090819020815160c081019092528054829060ff166002811115610f8c57610f8c612f68565b6002811115610f9d57610f9d612f68565b8152604080516080810182526001840180546001600160401b031682840190815260028601805485516020828102820181019097528181529686019694959394869486936060870193909183018282801561102157602002820191906000526020600020905b81546001600160a01b03168152600190910190602001808311611003575b5050509190925250505081526040805180820190915260028301805460ff1682526003840180546020948501948401919061105b9061370a565b80601f01602080910402602001604051908101604052809291908181526020018280546110879061370a565b80156110d45780601f106110a9576101008083540402835291602001916110d4565b820191906000526020600020905b8154815290600101906020018083116110b757829003601f168201915b505050919092525050509052508152604080516080810182526005840180546001600160401b031682840190815260068601805485516020828102820181019097528181529686019694959394869486936060870193909183018282801561116557602002820191906000526020600020905b81546001600160a01b03168152600190910190602001808311611147575b5050509190925250505081526040805180820190915260028301805460ff1682526003840180546020948501948401919061119f9061370a565b80601f01602080910402602001604051908101604052809291908181526020018280546111cb9061370a565b80156112185780601f106111ed57610100808354040283529160200191611218565b820191906000526020600020905b8154815290600101906020018083116111fb57829003601f168201915b50505091909252505050905250815260098201546001600160401b03166020820152600a8201546040820152600b820180546060909201916112599061370a565b80601f01602080910402602001604051908101604052809291908181526020018280546112859061370a565b80156112d25780601f106112a7576101008083540402835291602001916112d2565b820191906000526020600020905b8154815290600101906020018083116112b557829003601f168201915b5050505050815250509050919050565b604080518082019091526000815260606020820152604080518082018252601280546001600160401b0316825260138054845160208281028201810190965281815293949293838601939092919083018282801561136957602002820191906000526020600020905b81546001600160a01b0316815260019091019060200180831161134b575b505050505081525050905090565b60606000611385600e61259c565b80519091506000816001600160401b038111156113a4576113a461338e565b6040519080825280602002602001820160405280156113dd57816020015b6113ca612db4565b8152602001906001900390816113c25790505b50905060005b82816001600160401b031610156118f0576000602301600085836001600160401b03168151811061141657611416613750565b6020908102919091018101518252818101929092526040908101600020815160e08101835281546001600160401b031660a082019081526001830180548551818802810188019096528086529295939486949293869360c087019391908301828280156114ac57602002820191906000526020600020905b81546001600160a01b0316815260019091019060200180831161148e575b505050505081525050815260200160028201548152602001600382015481526020016004820160009054906101000a90046001600160401b03166001600160401b03166001600160401b0316815260200160058201805480602002602001604051908101604052809291908181526020016000905b828210156118ba576000848152602090206040805160c08101909152600c84029091018054829060ff16600281111561155c5761155c612f68565b600281111561156d5761156d612f68565b8152604080516080810182526001840180546001600160401b03168284019081526002860180548551602082810282018101909752818152968601969495939486948693606087019390918301828280156115f157602002820191906000526020600020905b81546001600160a01b031681526001909101906020018083116115d3575b5050509190925250505081526040805180820190915260028301805460ff1682526003840180546020948501948401919061162b9061370a565b80601f01602080910402602001604051908101604052809291908181526020018280546116579061370a565b80156116a45780601f10611679576101008083540402835291602001916116a4565b820191906000526020600020905b81548152906001019060200180831161168757829003601f168201915b505050919092525050509052508152604080516080810182526005840180546001600160401b031682840190815260068601805485516020828102820181019097528181529686019694959394869486936060870193909183018282801561173557602002820191906000526020600020905b81546001600160a01b03168152600190910190602001808311611717575b5050509190925250505081526040805180820190915260028301805460ff1682526003840180546020948501948401919061176f9061370a565b80601f016020809104026020016040519081016040528092919081815260200182805461179b9061370a565b80156117e85780601f106117bd576101008083540402835291602001916117e8565b820191906000526020600020905b8154815290600101906020018083116117cb57829003601f168201915b50505091909252505050905250815260098201546001600160401b03166020820152600a8201546040820152600b820180546060909201916118299061370a565b80601f01602080910402602001604051908101604052809291908181526020018280546118559061370a565b80156118a25780601f10611877576101008083540402835291602001916118a2565b820191906000526020600020905b81548152906001019060200180831161188557829003601f168201915b50505050508152505081526020019060010190611521565b505050508152505082826001600160401b0316815181106118dd576118dd613750565b60209081029190910101526001016113e3565b509392505050565b600080611904836125a9565b600301546001600160401b0316949350505050565b60606106cd600e61259c565b600061192f612d49565b61193b610bbb84613744565b6040805160c08101825282548152600183015460208083019190915260028401548284015260038401546001600160401b038082166060850152600160401b909104811660808401528351808501855260048601805490921681526005860180548651818602810186019097528087529495879560a08801959394938581019391908301828280156119f657602002820191906000526020600020905b81546001600160a01b031681526001909101906020018083116119d8575b50505050508152505081525050905091509150915091565b611a16612db4565b6040805160a081018252600080825260208201819052918101829052606081018290526080810191909152600083815260236020908152604091829020825160e08101845281546001600160401b031660a082019081526001830180548651818702810187019097528087526060968796949594869493869360c087019392830182828015611ace57602002820191906000526020600020905b81546001600160a01b03168152600190910190602001808311611ab0575b505050505081525050815260200160028201548152602001600382015481526020016004820160009054906101000a90046001600160401b03166001600160401b03166001600160401b0316815260200160058201805480602002602001604051908101604052809291908181526020016000905b82821015611edc576000848152602090206040805160c08101909152600c84029091018054829060ff166002811115611b7e57611b7e612f68565b6002811115611b8f57611b8f612f68565b8152604080516080810182526001840180546001600160401b0316828401908152600286018054855160208281028201810190975281815296860196949593948694869360608701939091830182828015611c1357602002820191906000526020600020905b81546001600160a01b03168152600190910190602001808311611bf5575b5050509190925250505081526040805180820190915260028301805460ff16825260038401805460209485019484019190611c4d9061370a565b80601f0160208091040260200160405190810160405280929190818152602001828054611c799061370a565b8015611cc65780601f10611c9b57610100808354040283529160200191611cc6565b820191906000526020600020905b815481529060010190602001808311611ca957829003601f168201915b505050919092525050509052508152604080516080810182526005840180546001600160401b0316828401908152600686018054855160208281028201810190975281815296860196949593948694869360608701939091830182828015611d5757602002820191906000526020600020905b81546001600160a01b03168152600190910190602001808311611d39575b5050509190925250505081526040805180820190915260028301805460ff16825260038401805460209485019484019190611d919061370a565b80601f0160208091040260200160405190810160405280929190818152602001828054611dbd9061370a565b8015611e0a5780601f10611ddf57610100808354040283529160200191611e0a565b820191906000526020600020905b815481529060010190602001808311611ded57829003601f168201915b50505091909252505050905250815260098201546001600160401b03166020820152600a8201546040820152600b82018054606090920191611e4b9061370a565b80601f0160208091040260200160405190810160405280929190818152602001828054611e779061370a565b8015611ec45780601f10611e9957610100808354040283529160200191611ec4565b820191906000526020600020905b815481529060010190602001808311611ea757829003601f168201915b50505050508152505081526020019060010190611b43565b505050915250506040516308a6ad2560e01b8152600b60048201526024810187905290945073__$db39cccfacfa8911c9932245eb4be30a3e$__906308a6ad2590604401600060405180830381865af4158015611f3d573d6000803e3d6000fd5b505050506040513d6000823e601f3d908101601f19168201604052611f6591908101906138bc565b9597919650949350915050565b600080611f7d612db4565b611f85612753565b91959094509092509050565b611fc46040805160a081019091526000606080830191825260808301528190815260200160008152602001606081525090565b600082815260246020908152604091829020825160a08101845281546001600160401b031660608201908152600183018054865181870281018701909752808752929593948694929386936080870193909290919083018282801561205257602002820191906000526020600020905b81546001600160a01b03168152600190910190602001808311612034575b50505050508152505081526020016002820154815260200160038201805480602002602001604051908101604052809291908181526020016000905b82821015610b90576000848152602090206040805160c08101909152600c84029091018054829060ff1660028111156120c9576120c9612f68565b60028111156120da576120da612f68565b8152604080516080810182526001840180546001600160401b031682840190815260028601805485516020828102820181019097528181529686019694959394869486936060870193909183018282801561215e57602002820191906000526020600020905b81546001600160a01b03168152600190910190602001808311612140575b5050509190925250505081526040805180820190915260028301805460ff168252600384018054602094850194840191906121989061370a565b80601f01602080910402602001604051908101604052809291908181526020018280546121c49061370a565b80156122115780601f106121e657610100808354040283529160200191612211565b820191906000526020600020905b8154815290600101906020018083116121f457829003601f168201915b505050919092525050509052508152604080516080810182526005840180546001600160401b03168284019081526006860180548551602082810282018101909752818152968601969495939486948693606087019390918301828280156122a257602002820191906000526020600020905b81546001600160a01b03168152600190910190602001808311612284575b5050509190925250505081526040805180820190915260028301805460ff168252600384018054602094850194840191906122dc9061370a565b80601f01602080910402602001604051908101604052809291908181526020018280546123089061370a565b80156123555780601f1061232a57610100808354040283529160200191612355565b820191906000526020600020905b81548152906001019060200180831161233857829003601f168201915b50505091909252505050905250815260098201546001600160401b03166020820152600a8201546040820152600b820180546060909201916123969061370a565b80601f01602080910402602001604051908101604052809291908181526020018280546123c29061370a565b801561240f5780601f106123e45761010080835404028352916020019161240f565b820191906000526020600020905b8154815290600101906020018083116123f257829003601f168201915b5050505050815250508152602001906001019061208e565b60408051808201909152606081526000602082015260408051600980546060602082028401810185529383018181529293919284929091849160009085015b82821015610ee757600084815260209081902060408051608081018252600486029092018054835260018101546001600160a01b031693830193909352600283018054929392918401916124b99061370a565b80601f01602080910402602001604051908101604052809291908181526020018280546124e59061370a565b80156125325780601f1061250757610100808354040283529160200191612532565b820191906000526020600020905b81548152906001019060200180831161251557829003601f168201915b5050505050815260200160038201548152505081526020019060010190612466565b6000806125756015546001600160401b0380821692600160401b9092041690565b915091509091565b6000606461258b838561398c565b61259591906139a3565b9392505050565b6060600061259583612c98565b6040516390ba52cf60e01b815260009081908190602090829073__$3fbe32418a9ca7804328967972fb037388$__906390ba52cf906125ec9089906004016139c5565b602060405180830381865af4158015612609573d6000803e3d6000fd5b505050506040513d601f19601f8201168201806040525081019061262d9190613a24565b81526020808201929092526040908101600020815180830183526004820180546001600160401b0316825260058301805485518188028101880190965280865293975091949093858201939092918301828280156126b457602002820191906000526020600020905b81546001600160a01b03168152600190910190602001808311612696575b505050919092525050604051630c133d1360e31b815273__$3fbe32418a9ca7804328967972fb037388$__92636099e89892506126f3916004016139c5565b602060405180830381865af4158015612710573d6000803e3d6000fd5b505050506040513d601f19601f820116820180604052508101906127349190613a3d565b15925050915091565b60006106e6825490565b60006125958383612cf4565b60008061275e612db4565b600061276e438260010154612d1e565b6000818152602383016020908152604091829020825160e08101845281546001600160401b031660a082019081526001830180548651818702810187019097528087529699509195929486949193869360c08701939091908301828280156127ff57602002820191906000526020600020905b81546001600160a01b031681526001909101906020018083116127e1575b505050505081525050815260200160028201548152602001600382015481526020016004820160009054906101000a90046001600160401b03166001600160401b03166001600160401b0316815260200160058201805480602002602001604051908101604052809291908181526020016000905b82821015612c0d576000848152602090206040805160c08101909152600c84029091018054829060ff1660028111156128af576128af612f68565b60028111156128c0576128c0612f68565b8152604080516080810182526001840180546001600160401b031682840190815260028601805485516020828102820181019097528181529686019694959394869486936060870193909183018282801561294457602002820191906000526020600020905b81546001600160a01b03168152600190910190602001808311612926575b5050509190925250505081526040805180820190915260028301805460ff1682526003840180546020948501948401919061297e9061370a565b80601f01602080910402602001604051908101604052809291908181526020018280546129aa9061370a565b80156129f75780601f106129cc576101008083540402835291602001916129f7565b820191906000526020600020905b8154815290600101906020018083116129da57829003601f168201915b505050919092525050509052508152604080516080810182526005840180546001600160401b0316828401908152600686018054855160208281028201810190975281815296860196949593948694869360608701939091830182828015612a8857602002820191906000526020600020905b81546001600160a01b03168152600190910190602001808311612a6a575b5050509190925250505081526040805180820190915260028301805460ff16825260038401805460209485019484019190612ac29061370a565b80601f0160208091040260200160405190810160405280929190818152602001828054612aee9061370a565b8015612b3b5780601f10612b1057610100808354040283529160200191612b3b565b820191906000526020600020905b815481529060010190602001808311612b1e57829003601f168201915b50505091909252505050905250815260098201546001600160401b03166020820152600a8201546040820152600b82018054606090920191612b7c9061370a565b80601f0160208091040260200160405190810160405280929190818152602001828054612ba89061370a565b8015612bf55780601f10612bca57610100808354040283529160200191612bf5565b820191906000526020600020905b815481529060010190602001808311612bd857829003601f168201915b50505050508152505081526020019060010190612874565b505050915250508051604051630c133d1360e31b815291935073__$3fbe32418a9ca7804328967972fb037388$__91636099e89891612c4e916004016139c5565b602060405180830381865af4158015612c6b573d6000803e3d6000fd5b505050506040513d601f19601f82011682018060405250810190612c8f9190613a3d565b15935050909192565b606081600001805480602002602001604051908101604052809291908181526020018280548015612ce857602002820191906000526020600020905b815481526020019060010190808311612cd4575b50505050509050919050565b6000826000018281548110612d0b57612d0b613750565b9060005260206000200154905092915050565b600081612d34816001600160401b0386166139a3565b612d3f906001613a58565b612595919061398c565b6040518060c0016040528060008152602001600081526020016000815260200160006001600160401b0316815260200160006001600160401b03168152602001612daf604051806040016040528060006001600160401b03168152602001606081525090565b905290565b6040805160e081018252600060a08201818152606060c084018190529083526020830182905292820181905282820152608081019190915290565b6040805160c081019091528060008152602001612e0a612e30565b8152602001612e17612e30565b8152600060208201819052604082015260609081015290565b6040805160808101825260009181019182526060808201529081908152602001612daf6040518060400160405280600060ff168152602001606081525090565b600060208284031215612e8257600080fd5b5035919050565b6000604083016001600160401b038351168452602083015160406020860152818151808452606087019150602083019350600092505b80831015612eea5783516001600160a01b031682526020938401936001939093019290910190612ebf565b5095945050505050565b8051825260208101516020830152604081015160408301526001600160401b0360608201511660608301526001600160401b036080820151166080830152600060a082015160c060a0850152612f4d60c0850182612e89565b949350505050565b6020815260006125956020830184612ef4565b634e487b7160e01b600052602160045260246000fd5b60005b83811015612f99578181015183820152602001612f81565b50506000910152565b60008151808452612fba816020860160208601612f7e565b601f01601f19169290920160200192915050565b6000815160408452612fe36040850182612e89565b90506020830151848203602086015260ff815116825260208101519050604060208301526130146040830182612fa2565b95945050505050565b600081516003811061303f57634e487b7160e01b600052602160045260246000fd5b80845250602082015160c0602085015261305c60c0850182612fce565b9050604083015184820360408601526130758282612fce565b915050606083015161309260608601826001600160401b03169052565b506080830151608085015260a083015184820360a08601526130148282612fa2565b600082825180855260208501945060208160051b8301016020850160005b8381101561310457601f198584030188526130ee83835161301d565b60209889019890935091909101906001016130d2565b50909695505050505050565b6000815160a0845261312560a0850182612e89565b905060208301516020850152604083015160408501526001600160401b0360608401511660608501526080830151848203608086015261301482826130b4565b6020815260006125956020830184613110565b602080825282518282018190526000918401906040840190835b818110156131b0578351835260209384019390920191600101613192565b509095945050505050565b6000602082840312156131cd57600080fd5b81356001600160401b038111156131e357600080fd5b82016040818503121561259557600080fd5b6000602082016020835280845180835260408501915060408160051b86010192506020860160005b8281101561324e57603f19878603018452613239858351612ef4565b9450602093840193919091019060010161321d565b50929695505050505050565b6020815260006060820183516040602085015281815180845260808601915060808160051b870101935060208301925060005b818110156132f257607f1987860301835283518051865260018060a01b0360208201511660208701526040810151608060408801526132cf6080880182612fa2565b60609283015197909201969096529450602093840193929092019160010161328d565b5050505060208401516001600160401b03811660408501526118f0565b602081526000612595602083018461301d565b6020815260006125956020830184612e89565b6000602082016020835280845180835260408501915060408160051b86010192506020860160005b8281101561324e57603f19878603018452613379858351613110565b9450602093840193919091019060010161335d565b634e487b7160e01b600052604160045260246000fd5b604080519081016001600160401b03811182821017156133c6576133c661338e565b60405290565b60405160a081016001600160401b03811182821017156133c6576133c661338e565b604051601f8201601f191681016001600160401b03811182821017156134165761341661338e565b604052919050565b60006001600160401b038211156134375761343761338e565b5060051b60200190565b6001600160a01b038116811461345657600080fd5b50565b60006040828403121561346b57600080fd5b6134736133a4565b905081356001600160401b038116811461348c57600080fd5b815260208201356001600160401b038111156134a757600080fd5b8201601f810184136134b857600080fd5b80356134cb6134c68261341e565b6133ee565b8082825260208201915060208360051b8501019250868311156134ed57600080fd5b6020840193505b8284101561351857833561350781613441565b8252602093840193909101906134f4565b60208501525091949350505050565b60006020828403121561353957600080fd5b81356001600160401b0381111561354f57600080fd5b612f4d84828501613459565b60a081016106e68284805182526020810151602083015260408101516040830152606081015160608301526080810151151560808301525050565b8215158152604060208201526000612f4d6040830184612ef4565b610100815260006135c6610100830187613110565b6136006020840187805182526020810151602083015260408101516040830152606081015160608301526080810151151560808301525050565b82810360c08401528451808252602080870192019060005b8181101561363f5783516001600160a01b0316835260209384019390920191600101613618565b505083810360e0850152845180825260208083019350600582901b8301810190870160005b8381101561369657601f19858403018652613680838351612fa2565b6020968701969093509190910190600101613664565b50909a9950505050505050505050565b83151581528260208201526060604082015260006130146060830184613110565b6020815260008251606060208401526136e36080840182612e89565b9050602084015160408401526040840151601f1984830301606085015261301482826130b4565b600181811c9082168061371e57607f821691505b60208210810361373e57634e487b7160e01b600052602260045260246000fd5b50919050565b60006106e63683613459565b634e487b7160e01b600052603260045260246000fd5b8051801515811461377657600080fd5b919050565b600082601f83011261378c57600080fd5b815161379a6134c68261341e565b8082825260208201915060208360051b8601019250858311156137bc57600080fd5b602085015b83811015612eea5780516137d481613441565b8352602092830192016137c1565b600082601f8301126137f357600080fd5b81516138016134c68261341e565b8082825260208201915060208360051b86010192508583111561382357600080fd5b602085015b83811015612eea5780516001600160401b0381111561384657600080fd5b8601603f8101881361385757600080fd5b60208101516001600160401b038111156138735761387361338e565b613886601f8201601f19166020016133ee565b8181526040838301018a101561389b57600080fd5b6138ac826020830160408601612f7e565b8552505060209283019201613828565b600080600083850360e08112156138d257600080fd5b60a08112156138e057600080fd5b506138e96133cc565b8451815260208086015190820152604080860151908201526060808601519082015261391760808601613766565b608082015260a08501519093506001600160401b0381111561393857600080fd5b6139448682870161377b565b92505060c08401516001600160401b0381111561396057600080fd5b61396c868287016137e2565b9150509250925092565b634e487b7160e01b600052601160045260246000fd5b80820281158282048414176106e6576106e6613976565b6000826139c057634e487b7160e01b600052601260045260246000fd5b500490565b602080825282516001600160401b031682820152828101516040808401528051606084018190526000929190910190829060808501908015612eea5783516001600160a01b031682526020938401936001939093019290910190612ebf565b600060208284031215613a3657600080fd5b5051919050565b600060208284031215613a4f57600080fd5b61259582613766565b808201808211156106e6576106e661397656fea2646970667358221220c10f0f9e71aa01087d0701aab14aef4f833151ac527b52c76231a68b1f972f6764736f6c634300081a0033","linkReferences":{"contracts/lib/LibQuorum.sol":{"LibQuorum":[{"start":7970,"length":20}]},"contracts/lib/SubnetIDHelper.sol":{"SubnetIDHelper":[{"start":9699,"length":20},{"start":9963,"length":20},{"start":11335,"length":20}]}}},"methodIdentifiers":{"appliedTopDownNonce()":"8789f83b","bottomUpCheckPeriod()":"06c46853","bottomUpCheckpoint(uint256)":"2da5794a","bottomUpMsgBatch(uint256)":"dd81b5cf","bottomUpNonce()":"41b6a2e8","getAppliedBottomUpNonce((uint64,address[]))":"38d66932","getCheckpointCurrentWeight(uint256)":"b3ab3f74","getCheckpointInfo(uint256)":"ac12d763","getCheckpointRetentionHeight()":"4aa8f8a5","getCheckpointSignatureBundle(uint256)":"ca41d5ce","getCommitSha()":"444ead51","getCurrentBottomUpCheckpoint()":"d6c5c397","getCurrentConfigurationNumber()":"544dddff","getCurrentMembership()":"6ad21bb0","getIncompleteCheckpointHeights()":"a517218f","getIncompleteCheckpoints()":"97042766","getLastConfigurationNumber()":"b1ba49b0","getLastMembership()":"f3229131","getLatestParentFinality()":"0338150f","getNetworkName()":"94074b03","getParentFinality(uint256)":"7edeac92","getQuorumThreshold(uint256)":"06572c1a","getSubnet((uint64,address[]))":"c66c66a1","getSubnetKeys()":"3594c3c1","getSubnetTopDownMsgsLength((uint64,address[]))":"9d3070b5","getTopDownNonce((uint64,address[]))":"42398a9a","getValidatorConfigurationNumbers()":"fa34a400","listSubnets()":"5d029685","majorityPercentage()":"599c7bd1","maxMsgsPerBottomUpBatch()":"05aff0b3","postbox(bytes32)":"8cfd78e7","subnets(bytes32)":"02e30f9a","totalSubnets()":"a2b67158"},"id":11}