{"abi":[{"type":"function","name":"appliedTopDownNonce","inputs":[],"outputs":[{"name":"","type":"uint64","internalType":"uint64"}],"stateMutability":"view"},{"type":"function","name":"bottomUpCheckPeriod","inputs":[],"outputs":[{"name":"","type":"uint256","internalType":"uint256"}],"stateMutability":"view"},{"type":"function","name":"bottomUpCheckpoint","inputs":[{"name":"e","type":"uint256","internalType":"uint256"}],"outputs":[{"name":"","type":"tuple","internalType":"struct BottomUpCheckpoint","components":[{"name":"subnetID","type":"tuple","internalType":"struct SubnetID","components":[{"name":"root","type":"uint64","internalType":"uint64"},{"name":"route","type":"address[]","internalType":"address[]"}]},{"name":"blockHeight","type":"uint256","internalType":"uint256"},{"name":"blockHash","type":"bytes32","internalType":"bytes32"},{"name":"nextConfigurationNumber","type":"uint64","internalType":"uint64"},{"name":"msgs","type":"tuple[]","internalType":"struct IpcEnvelope[]","components":[{"name":"kind","type":"uint8","internalType":"enum IpcMsgKind"},{"name":"to","type":"tuple","internalType":"struct IPCAddress","components":[{"name":"subnetId","type":"tuple","internalType":"struct SubnetID","components":[{"name":"root","type":"uint64","internalType":"uint64"},{"name":"route","type":"address[]","internalType":"address[]"}]},{"name":"rawAddress","type":"tuple","internalType":"struct FvmAddress","components":[{"name":"addrType","type":"uint8","internalType":"uint8"},{"name":"payload","type":"bytes","internalType":"bytes"}]}]},{"name":"from","type":"tuple","internalType":"struct IPCAddress","components":[{"name":"subnetId","type":"tuple","internalType":"struct SubnetID","components":[{"name":"root","type":"uint64","internalType":"uint64"},{"name":"route","type":"address[]","internalType":"address[]"}]},{"name":"rawAddress","type":"tuple","internalType":"struct FvmAddress","components":[{"name":"addrType","type":"uint8","internalType":"uint8"},{"name":"payload","type":"bytes","internalType":"bytes"}]}]},{"name":"nonce","type":"uint64","internalType":"uint64"},{"name":"value","type":"uint256","internalType":"uint256"},{"name":"message","type":"bytes","internalType":"bytes"}]}]}],"stateMutability":"view"},{"type":"function","name":"bottomUpMsgBatch","inputs":[{"name":"e","type":"uint256","internalType":"uint256"}],"outputs":[{"name":"","type":"tuple","internalType":"struct BottomUpMsgBatch","components":[{"name":"subnetID","type":"tuple","internalType":"struct SubnetID","components":[{"name":"root","type":"uint64","internalType":"uint64"},{"name":"route","type":"address[]","internalType":"address[]"}]},{"name":"blockHeight","type":"uint256","internalType":"uint256"},{"name":"msgs","type":"tuple[]","internalType":"struct IpcEnvelope[]","components":[{"name":"kind","type":"uint8","internalType":"enum IpcMsgKind"},{"name":"to","type":"tuple","internalType":"struct IPCAddress","components":[{"name":"subnetId","type":"tuple","internalType":"struct SubnetID","components":[{"name":"root","type":"uint64","internalType":"uint64"},{"name":"route","type":"address[]","internalType":"address[]"}]},{"name":"rawAddress","type":"tuple","internalType":"struct FvmAddress","components":[{"name":"addrType","type":"uint8","internalType":"uint8"},{"name":"payload","type":"bytes","internalType":"bytes"}]}]},{"name":"from","type":"tuple","internalType":"struct IPCAddress","components":[{"name":"subnetId","type":"tuple","internalType":"struct SubnetID","components":[{"name":"root","type":"uint64","internalType":"uint64"},{"name":"route","type":"address[]","internalType":"address[]"}]},{"name":"rawAddress","type":"tuple","internalType":"struct FvmAddress","components":[{"name":"addrType","type":"uint8","internalType":"uint8"},{"name":"payload","type":"bytes","internalType":"bytes"}]}]},{"name":"nonce","type":"uint64","internalType":"uint64"},{"name":"value","type":"uint256","internalType":"uint256"},{"name":"message","type":"bytes","internalType":"bytes"}]}]}],"stateMutability":"view"},{"type":"function","name":"bottomUpNonce","inputs":[],"outputs":[{"name":"","type":"uint64","internalType":"uint64"}],"stateMutability":"view"},{"type":"function","name":"getAppliedBottomUpNonce","inputs":[{"name":"subnetId","type":"tuple","internalType":"struct SubnetID","components":[{"name":"root","type":"uint64","internalType":"uint64"},{"name":"route","type":"address[]","internalType":"address[]"}]}],"outputs":[{"name":"","type":"bool","internalType":"bool"},{"name":"","type":"uint64","internalType":"uint64"}],"stateMutability":"view"},{"type":"function","name":"getCheckpointCurrentWeight","inputs":[{"name":"h","type":"uint256","internalType":"uint256"}],"outputs":[{"name":"","type":"uint256","internalType":"uint256"}],"stateMutability":"view"},{"type":"function","name":"getCheckpointInfo","inputs":[{"name":"h","type":"uint256","internalType":"uint256"}],"outputs":[{"name":"","type":"tuple","internalType":"struct QuorumInfo","components":[{"name":"hash","type":"bytes32","internalType":"bytes32"},{"name":"rootHash","type":"bytes32","internalType":"bytes32"},{"name":"threshold","type":"uint256","internalType":"uint256"},{"name":"currentWeight","type":"uint256","internalType":"uint256"},{"name":"reached","type":"bool","internalType":"bool"}]}],"stateMutability":"view"},{"type":"function","name":"getCheckpointRetentionHeight","inputs":[],"outputs":[{"name":"","type":"uint256","internalType":"uint256"}],"stateMutability":"view"},{"type":"function","name":"getCheckpointSignatureBundle","inputs":[{"name":"h","type":"uint256","internalType":"uint256"}],"outputs":[{"name":"ch","type":"tuple","internalType":"struct BottomUpCheckpoint","components":[{"name":"subnetID","type":"tuple","internalType":"struct SubnetID","components":[{"name":"root","type":"uint64","internalType":"uint64"},{"name":"route","type":"address[]","internalType":"address[]"}]},{"name":"blockHeight","type":"uint256","internalType":"uint256"},{"name":"blockHash","type":"bytes32","internalType":"bytes32"},{"name":"nextConfigurationNumber","type":"uint64","internalType":"uint64"},{"name":"msgs","type":"tuple[]","internalType":"struct IpcEnvelope[]","components":[{"name":"kind","type":"uint8","internalType":"enum IpcMsgKind"},{"name":"to","type":"tuple","internalType":"struct IPCAddress","components":[{"name":"subnetId","type":"tuple","internalType":"struct SubnetID","components":[{"name":"root","type":"uint64","internalType":"uint64"},{"name":"route","type":"address[]","internalType":"address[]"}]},{"name":"rawAddress","type":"tuple","internalType":"struct FvmAddress","components":[{"name":"addrType","type":"uint8","internalType":"uint8"},{"name":"payload","type":"bytes","internalType":"bytes"}]}]},{"name":"from","type":"tuple","internalType":"struct IPCAddress","components":[{"name":"subnetId","type":"tuple","internalType":"struct SubnetID","components":[{"name":"root","type":"uint64","internalType":"uint64"},{"name":"route","type":"address[]","internalType":"address[]"}]},{"name":"rawAddress","type":"tuple","internalType":"struct FvmAddress","components":[{"name":"addrType","type":"uint8","internalType":"uint8"},{"name":"payload","type":"bytes","internalType":"bytes"}]}]},{"name":"nonce","type":"uint64","internalType":"uint64"},{"name":"value","type":"uint256","internalType":"uint256"},{"name":"message","type":"bytes","internalType":"bytes"}]}]},{"name":"info","type":"tuple","internalType":"struct QuorumInfo","components":[{"name":"hash","type":"bytes32","internalType":"bytes32"},{"name":"rootHash","type":"bytes32","internalType":"bytes32"},{"name":"threshold","type":"uint256","internalType":"uint256"},{"name":"currentWeight","type":"uint256","internalType":"uint256"},{"name":"reached","type":"bool","internalType":"bool"}]},{"name":"signatories","type":"address[]","internalType":"address[]"},{"name":"signatures","type":"bytes[]","internalType":"bytes[]"}],"stateMutability":"view"},{"type":"function","name":"getCommitSha","inputs":[],"outputs":[{"name":"","type":"bytes32","internalType":"bytes32"}],"stateMutability":"view"},{"type":"function","name":"getCurrentBottomUpCheckpoint","inputs":[],"outputs":[{"name":"exists","type":"bool","internalType":"bool"},{"name":"epoch","type":"uint256","internalType":"uint256"},{"name":"checkpoint","type":"tuple","internalType":"struct BottomUpCheckpoint","components":[{"name":"subnetID","type":"tuple","internalType":"struct SubnetID","components":[{"name":"root","type":"uint64","internalType":"uint64"},{"name":"route","type":"address[]","internalType":"address[]"}]},{"name":"blockHeight","type":"uint256","internalType":"uint256"},{"name":"blockHash","type":"bytes32","internalType":"bytes32"},{"name":"nextConfigurationNumber","type":"uint64","internalType":"uint64"},{"name":"msgs","type":"tuple[]","internalType":"struct IpcEnvelope[]","components":[{"name":"kind","type":"uint8","internalType":"enum IpcMsgKind"},{"name":"to","type":"tuple","internalType":"struct IPCAddress","components":[{"name":"subnetId","type":"tuple","internalType":"struct SubnetID","components":[{"name":"root","type":"uint64","internalType":"uint64"},{"name":"route","type":"address[]","internalType":"address[]"}]},{"name":"rawAddress","type":"tuple","internalType":"struct FvmAddress","components":[{"name":"addrType","type":"uint8","internalType":"uint8"},{"name":"payload","type":"bytes","internalType":"bytes"}]}]},{"name":"from","type":"tuple","internalType":"struct IPCAddress","components":[{"name":"subnetId","type":"tuple","internalType":"struct SubnetID","components":[{"name":"root","type":"uint64","internalType":"uint64"},{"name":"route","type":"address[]","internalType":"address[]"}]},{"name":"rawAddress","type":"tuple","internalType":"struct FvmAddress","components":[{"name":"addrType","type":"uint8","internalType":"uint8"},{"name":"payload","type":"bytes","internalType":"bytes"}]}]},{"name":"nonce","type":"uint64","internalType":"uint64"},{"name":"value","type":"uint256","internalType":"uint256"},{"name":"message","type":"bytes","internalType":"bytes"}]}]}],"stateMutability":"view"},{"type":"function","name":"getCurrentConfigurationNumber","inputs":[],"outputs":[{"name":"","type":"uint64","internalType":"uint64"}],"stateMutability":"view"},{"type":"function","name":"getCurrentMembership","inputs":[],"outputs":[{"name":"","type":"tuple","internalType":"struct Membership","components":[{"name":"validators","type":"tuple[]","internalType":"struct Validator[]","components":[{"name":"weight","type":"uint256","internalType":"uint256"},{"name":"addr","type":"address","internalType":"address"},{"name":"metadata","type":"bytes","internalType":"bytes"},{"name":"storageAmount","type":"uint256","internalType":"uint256"}]},{"name":"configurationNumber","type":"uint64","internalType":"uint64"}]}],"stateMutability":"view"},{"type":"function","name":"getIncompleteCheckpointHeights","inputs":[],"outputs":[{"name":"","type":"uint256[]","internalType":"uint256[]"}],"stateMutability":"view"},{"type":"function","name":"getIncompleteCheckpoints","inputs":[],"outputs":[{"name":"","type":"tuple[]","internalType":"struct BottomUpCheckpoint[]","components":[{"name":"subnetID","type":"tuple","internalType":"struct SubnetID","components":[{"name":"root","type":"uint64","internalType":"uint64"},{"name":"route","type":"address[]","internalType":"address[]"}]},{"name":"blockHeight","type":"uint256","internalType":"uint256"},{"name":"blockHash","type":"bytes32","internalType":"bytes32"},{"name":"nextConfigurationNumber","type":"uint64","internalType":"uint64"},{"name":"msgs","type":"tuple[]","internalType":"struct IpcEnvelope[]","components":[{"name":"kind","type":"uint8","internalType":"enum IpcMsgKind"},{"name":"to","type":"tuple","internalType":"struct IPCAddress","components":[{"name":"subnetId","type":"tuple","internalType":"struct SubnetID","components":[{"name":"root","type":"uint64","internalType":"uint64"},{"name":"route","type":"address[]","internalType":"address[]"}]},{"name":"rawAddress","type":"tuple","internalType":"struct FvmAddress","components":[{"name":"addrType","type":"uint8","internalType":"uint8"},{"name":"payload","type":"bytes","internalType":"bytes"}]}]},{"name":"from","type":"tuple","internalType":"struct IPCAddress","components":[{"name":"subnetId","type":"tuple","internalType":"struct SubnetID","components":[{"name":"root","type":"uint64","internalType":"uint64"},{"name":"route","type":"address[]","internalType":"address[]"}]},{"name":"rawAddress","type":"tuple","internalType":"struct FvmAddress","components":[{"name":"addrType","type":"uint8","internalType":"uint8"},{"name":"payload","type":"bytes","internalType":"bytes"}]}]},{"name":"nonce","type":"uint64","internalType":"uint64"},{"name":"value","type":"uint256","internalType":"uint256"},{"name":"message","type":"bytes","internalType":"bytes"}]}]}],"stateMutability":"view"},{"type":"function","name":"getLastConfigurationNumber","inputs":[],"outputs":[{"name":"","type":"uint64","internalType":"uint64"}],"stateMutability":"view"},{"type":"function","name":"getLastMembership","inputs":[],"outputs":[{"name":"","type":"tuple","internalType":"struct Membership","components":[{"name":"validators","type":"tuple[]","internalType":"struct Validator[]","components":[{"name":"weight","type":"uint256","internalType":"uint256"},{"name":"addr","type":"address","internalType":"address"},{"name":"metadata","type":"bytes","internalType":"bytes"},{"name":"storageAmount","type":"uint256","internalType":"uint256"}]},{"name":"configurationNumber","type":"uint64","internalType":"uint64"}]}],"stateMutability":"view"},{"type":"function","name":"getLatestParentFinality","inputs":[],"outputs":[{"name":"","type":"tuple","internalType":"struct ParentFinality","components":[{"name":"height","type":"uint256","internalType":"uint256"},{"name":"blockHash","type":"bytes32","internalType":"bytes32"}]}],"stateMutability":"view"},{"type":"function","name":"getNetworkName","inputs":[],"outputs":[{"name":"","type":"tuple","internalType":"struct SubnetID","components":[{"name":"root","type":"uint64","internalType":"uint64"},{"name":"route","type":"address[]","internalType":"address[]"}]}],"stateMutability":"view"},{"type":"function","name":"getParentFinality","inputs":[{"name":"blockNumber","type":"uint256","internalType":"uint256"}],"outputs":[{"name":"","type":"tuple","internalType":"struct ParentFinality","components":[{"name":"height","type":"uint256","internalType":"uint256"},{"name":"blockHash","type":"bytes32","internalType":"bytes32"}]}],"stateMutability":"view"},{"type":"function","name":"getQuorumThreshold","inputs":[{"name":"totalWeight","type":"uint256","internalType":"uint256"}],"outputs":[{"name":"","type":"uint256","internalType":"uint256"}],"stateMutability":"view"},{"type":"function","name":"getSubnet","inputs":[{"name":"subnetId","type":"tuple","internalType":"struct SubnetID","components":[{"name":"root","type":"uint64","internalType":"uint64"},{"name":"route","type":"address[]","internalType":"address[]"}]}],"outputs":[{"name":"","type":"bool","internalType":"bool"},{"name":"","type":"tuple","internalType":"struct Subnet","components":[{"name":"stake","type":"uint256","internalType":"uint256"},{"name":"genesisEpoch","type":"uint256","internalType":"uint256"},{"name":"circSupply","type":"uint256","internalType":"uint256"},{"name":"topDownNonce","type":"uint64","internalType":"uint64"},{"name":"appliedBottomUpNonce","type":"uint64","internalType":"uint64"},{"name":"id","type":"tuple","internalType":"struct SubnetID","components":[{"name":"root","type":"uint64","internalType":"uint64"},{"name":"route","type":"address[]","internalType":"address[]"}]}]}],"stateMutability":"view"},{"type":"function","name":"getSubnetKeys","inputs":[],"outputs":[{"name":"","type":"bytes32[]","internalType":"bytes32[]"}],"stateMutability":"view"},{"type":"function","name":"getSubnetTopDownMsgsLength","inputs":[{"name":"subnetId","type":"tuple","internalType":"struct SubnetID","components":[{"name":"root","type":"uint64","internalType":"uint64"},{"name":"route","type":"address[]","internalType":"address[]"}]}],"outputs":[{"name":"","type":"uint256","internalType":"uint256"}],"stateMutability":"view"},{"type":"function","name":"getTopDownNonce","inputs":[{"name":"subnetId","type":"tuple","internalType":"struct SubnetID","components":[{"name":"root","type":"uint64","internalType":"uint64"},{"name":"route","type":"address[]","internalType":"address[]"}]}],"outputs":[{"name":"","type":"bool","internalType":"bool"},{"name":"","type":"uint64","internalType":"uint64"}],"stateMutability":"view"},{"type":"function","name":"getValidatorConfigurationNumbers","inputs":[],"outputs":[{"name":"","type":"uint64","internalType":"uint64"},{"name":"","type":"uint64","internalType":"uint64"}],"stateMutability":"view"},{"type":"function","name":"listSubnets","inputs":[],"outputs":[{"name":"","type":"tuple[]","internalType":"struct Subnet[]","components":[{"name":"stake","type":"uint256","internalType":"uint256"},{"name":"genesisEpoch","type":"uint256","internalType":"uint256"},{"name":"circSupply","type":"uint256","internalType":"uint256"},{"name":"topDownNonce","type":"uint64","internalType":"uint64"},{"name":"appliedBottomUpNonce","type":"uint64","internalType":"uint64"},{"name":"id","type":"tuple","internalType":"struct SubnetID","components":[{"name":"root","type":"uint64","internalType":"uint64"},{"name":"route","type":"address[]","internalType":"address[]"}]}]}],"stateMutability":"view"},{"type":"function","name":"majorityPercentage","inputs":[],"outputs":[{"name":"","type":"uint64","internalType":"uint64"}],"stateMutability":"view"},{"type":"function","name":"maxMsgsPerBottomUpBatch","inputs":[],"outputs":[{"name":"","type":"uint64","internalType":"uint64"}],"stateMutability":"view"},{"type":"function","name":"postbox","inputs":[{"name":"id","type":"bytes32","internalType":"bytes32"}],"outputs":[{"name":"storableMsg","type":"tuple","internalType":"struct IpcEnvelope","components":[{"name":"kind","type":"uint8","internalType":"enum IpcMsgKind"},{"name":"to","type":"tuple","internalType":"struct IPCAddress","components":[{"name":"subnetId","type":"tuple","internalType":"struct SubnetID","components":[{"name":"root","type":"uint64","internalType":"uint64"},{"name":"route","type":"address[]","internalType":"address[]"}]},{"name":"rawAddress","type":"tuple","internalType":"struct FvmAddress","components":[{"name":"addrType","type":"uint8","internalType":"uint8"},{"name":"payload","type":"bytes","internalType":"bytes"}]}]},{"name":"from","type":"tuple","internalType":"struct IPCAddress","components":[{"name":"subnetId","type":"tuple","internalType":"struct SubnetID","components":[{"name":"root","type":"uint64","internalType":"uint64"},{"name":"route","type":"address[]","internalType":"address[]"}]},{"name":"rawAddress","type":"tuple","internalType":"struct FvmAddress","components":[{"name":"addrType","type":"uint8","internalType":"uint8"},{"name":"payload","type":"bytes","internalType":"bytes"}]}]},{"name":"nonce","type":"uint64","internalType":"uint64"},{"name":"value","type":"uint256","internalType":"uint256"},{"name":"message","type":"bytes","internalType":"bytes"}]}],"stateMutability":"view"},{"type":"function","name":"subnets","inputs":[{"name":"h","type":"bytes32","internalType":"bytes32"}],"outputs":[{"name":"subnet","type":"tuple","internalType":"struct Subnet","components":[{"name":"stake","type":"uint256","internalType":"uint256"},{"name":"genesisEpoch","type":"uint256","internalType":"uint256"},{"name":"circSupply","type":"uint256","internalType":"uint256"},{"name":"topDownNonce","type":"uint64","internalType":"uint64"},{"name":"appliedBottomUpNonce","type":"uint64","internalType":"uint64"},{"name":"id","type":"tuple","internalType":"struct SubnetID","components":[{"name":"root","type":"uint64","internalType":"uint64"},{"name":"route","type":"address[]","internalType":"address[]"}]}]}],"stateMutability":"view"},{"type":"function","name":"totalSubnets","inputs":[],"outputs":[{"name":"","type":"uint64","internalType":"uint64"}],"stateMutability":"view"}],"bytecode":{"object":"0x60808060405234601557611dea908161001b8239f35b600080fdfe6080604052600436101561001257600080fd5b60003560e01c806302e30f9a146112615780630338150f1461123057806305aff0b31461120f57806306572c1a146111e057806306c46853146111c25780632da5794a1461116a5780633594c3c1146110cc57806338d66932146110b657806341b6a2e81461108f57806342398a9a1461105c578063444ead511461103e5780634aa8f8a514611020578063544dddff14610ff9578063599c7bd114610fd85780635d02968514610eb15780636ad21bb014610dc85780637edeac9214610d835780638789f83b14610d595780638cfd78e714610cdc57806394074b0314610c3a5780639704276614610acf5780639d3070b514610a83578063a2b6715814610a59578063a517218f146109fb578063ac12d76314610959578063b1ba49b014610932578063b3ab3f7414610903578063c66c66a1146108b0578063ca41d5ce146104ec578063d6c5c3971461035e578063dd81b5cf146102a9578063f3229131146101bc5763fa34a4001461018757600080fd5b346101b75760003660031901126101b75760406015546001600160401b038251918181168352831c166020820152f35b600080fd5b346101b75760003660031901126101b7576101d5611b4b565b506040516101e281611652565b600954906101ef826116a9565b916101fd6040519384611688565b808352600960009081527f6e1540171b6c0c960b71a7020d9f60077f6af931a8bbf590da0223dacf75c7af602085015b83831061025a57858552600a546001600160401b03166020860152604051806102568782611542565b0390f35b6004602060019260405161026d8161166d565b85548152848060a01b0385870154168382015261028c600287016118e6565b60408201526003860154606082015281520192019201919061022d565b346101b75760203660031901126101b7576060604080516102c981611637565b6102d1611774565b815260006020820152015260043560005260246020526103456040600020610256604051916102ff83611637565b610308816117cb565b835261032260036002830154926020860193845201611a6a565b6040840190815260405194859460208652516060602087015260808601906112a9565b9151604085015251838203601f19016060850152611465565b346101b75760003660031901126101b7576103776118b2565b506103806118b2565b5060015480156104d657806001600160401b0343160490600182018092116104c0576103ab91611bbf565b80600052602360205261042960406000206104066005604051926103ce846115eb565b6103d7816117cb565b845260028101546020850152600381015460408501526001600160401b03600482015416606085015201611a6a565b60808201526020815160405180948192630c133d1360e31b835260048301611bd2565b038173__$3fbe32418a9ca7804328967972fb037388$__5af49182156104b457600092610475575b506102569060405193849315845260208401526060604084015260608301906114be565b9091506020813d6020116104ac575b8161049160209383611688565b810103126101b7576104a561025691611bb2565b9190610451565b3d9150610484565b6040513d6000823e3d90fd5b634e487b7160e01b600052601160045260246000fd5b634e487b7160e01b600052601260045260246000fd5b346101b75760203660031901126101b7576004356105086118b2565b50610511611b87565b5080600052602360205260406000209061056b600560405193610533856115eb565b61053c816117cb565b855260028101546020860152600381015460408601526001600160401b03600482015416606086015201611a6a565b6080830152604051906308a6ad2560e01b8252600b6004830152602482015260008160448173__$db39cccfacfa8911c9932245eb4be30a3e$__5af49081156104b4576000809181936106b4575b50906105da93929161060f60405195869561010087526101008701906114be565b916020860190608080918051845260208101516020850152604081015160408501526060810151606085015201511515910152565b83810360c08501526020808351928381520192019060005b8181106106925750505082810360e0840152815180825260208201916020808360051b8301019401926000915b8383106106615786860387f35b919395509193602080610680600193601f19868203018752895161137e565b97019301930190928695949293610654565b82516001600160a01b0316845286955060209384019390920191600101610627565b925090503d8082843e6106c78184611688565b820182810360e081126108ac5760a01361087c57604051906106e8826115eb565b8351825260208401516020830152604084015160408301526060840151606083015261071660808501611bb2565b608083015260a08401516001600160401b0381116108785784019381601f86011215610878578451610747816116a9565b956107556040519788611688565b81875260208088019260051b820101908482116108a857602001915b8183106108845750505060c0810151906001600160401b038211610880570181601f82011215610878578051916107a7836116a9565b946107b56040519687611688565b83865260208087019460051b8401019282841161087c5760208101945b8486106107e857505050505050919091846105b9565b85516001600160401b03811161087857820184603f820112156108785760208101516001600160401b0381116108645760405191610830601f8301601f191660200184611688565b818352604081830101871061086057916108556020949285946040868501910161135b565b8152019501946107d2565b8580fd5b634e487b7160e01b85526041600452602485fd5b8380fd5b5080fd5b8480fd5b82516001600160a01b03811681036108a457815260209283019201610771565b8780fd5b8680fd5b8280fd5b346101b7576108e46108dc6108d76108c73661150f565b6108cf61178e565b5036906116c0565b611c31565b919091611847565b9061025660405192839215158352604060208401526040830190611301565b346101b75760203660031901126101b757600435600052600d6020526020600360406000200154604051908152f35b346101b75760003660031901126101b75760206001600160401b03600a5416604051908152f35b346101b75760203660031901126101b757610972611b87565b50600435600052600d60205260a0604060002060ff600460405192610996846115eb565b80548452600181015460208501526002810154604085015260038101546060850152015416151560808201526109f96040518092608080918051845260208101516020850152604081015160408501526060810151606085015201511515910152565bf35b346101b75760003660031901126101b757610a14611d69565b60405180916020820160208352815180915260206040840192019060005b818110610a40575050500390f35b8251845285945060209384019390920191600101610a32565b346101b75760003660031901126101b75760206001600160401b0360035460801c16604051908152f35b346101b75760203660031901126101b7576004356001600160401b0381116101b7576001600160401b036003610ac26108d760209436906004016116c0565b9050015416604051908152f35b346101b75760003660031901126101b757610ae8611d69565b805190610af4826116a9565b91610b026040519384611688565b808352601f19610b11826116a9565b0160005b818110610c2357505060005b6001600160401b03811682811015610bbb576001600160401b0391610bb382610b4c60019488611b21565b5160005260236020526040600020610b9d600560405192610b6c846115eb565b610b75816117cb565b8452600281015460208501526003810154604085015288600482015416606085015201611a6a565b6080820152610bac828a611b21565b5287611b21565b500116610b21565b846040518091602082016020835281518091526040830190602060408260051b8601019301916000905b828210610bf457505050500390f35b91936001919395506020610c138192603f198a820301865288516114be565b9601920192018594939192610be5565b602090610c2e6118b2565b82828801015201610b15565b346101b75760003660031901126101b757610c53611774565b50604051610c6081611652565b6001600160401b0360125416815260405190816020601354918281520190601360005260206000209060005b818110610cbd576102568587610ca481880382611688565b60208201526040519182916020835260208301906112a9565b82546001600160a01b0316845260209093019260019283019201610c8c565b346101b75760203660031901126101b757606060a0604051610cfd8161161c565b60008152610d09611b65565b6020820152610d16611b65565b60408201526000838201526000608082015201526004356000526022602052610256610d4560406000206119fc565b6040519182916020835260208301906113df565b346101b75760003660031901126101b75760206001600160401b0360035460401c16604051908152f35b346101b75760203660031901126101b757610d9c611899565b50610256610dab600435611d36565b604051918291829190916020806040830194805184520151910152565b346101b75760003660031901126101b757610de1611b4b565b50604051610dee81611652565b60075490610dfb826116a9565b91610e096040519384611688565b808352600760009081527fa66cc928b5edb82af9bd49922954155ab7b0942694bea4ce44661d9a8736c688602085015b838310610e62578585526008546001600160401b03166020860152604051806102568782611542565b60046020600192604051610e758161166d565b85548152848060a01b03858701541683820152610e94600287016118e6565b604082015260038601546060820152815201920192019190610e39565b346101b75760003660031901126101b757602554610ece816116a9565b90610edc6040519283611688565b808252601f19610eeb826116a9565b0160005b818110610fc157505060005b81811015610f5957600190610f3d60406000837f401968ff42a154441da5f6c4c935ac46b8671f0e062baaa62a7545ba53bb6e4c015481526020805220611847565b610f478286611b21565b52610f528185611b21565b5001610efb565b826040518091602082016020835281518091526040830190602060408260051b8601019301916000905b828210610f9257505050500390f35b91936001919395506020610fb18192603f198a82030186528851611301565b9601920192018594939192610f83565b602090610fcc61178e565b82828701015201610eef565b346101b75760003660031901126101b757602060ff60045416604051908152f35b346101b75760003660031901126101b75760206001600160401b0360085416604051908152f35b346101b75760003660031901126101b7576020600c54604051908152f35b346101b75760003660031901126101b7576020600554604051908152f35b346101b75761107261106d3661150f565b611af8565b6040805192151583526001600160401b0391909116602083015290f35b346101b75760003660031901126101b75760206001600160401b0360035416604051908152f35b346101b7576110726110c73661150f565b611ac3565b346101b75760003660031901126101b75760405160255490818152602081018092602560005260206000209060005b8181106111545750505081611111910382611688565b6040519182916020830190602084525180915260408301919060005b81811061113b575050500390f35b825184528594506020938401939092019160010161112d565b82548452602090930192600192830192016110fb565b346101b75760203660031901126101b7576111836118b2565b50600435600052602360205261025660406000206111a96005604051926103ce846115eb565b60808201526040519182916020835260208301906114be565b346101b75760003660031901126101b7576020600154604051908152f35b346101b75760203660031901126101b7576020606461120660ff60045416600435611bbf565b04604051908152f35b346101b75760003660031901126101b757602060035460c01c604051908152f35b346101b75760003660031901126101b757611249611899565b50611252611899565b50610256610dab600054611d36565b346101b75760203660031901126101b75761127a61178e565b50600435600052602080526102566112956040600020611847565b604051918291602083526020830190611301565b602060608160408501936001600160401b03815116865201519360408382015284518094520192019060005b8181106112e25750505090565b82516001600160a01b03168452602093840193909201916001016112d5565b9060c060a0611358938051845260208101516020850152604081015160408501526001600160401b0360608201511660608501526001600160401b0360808201511660808501520151918160a082015201906112a9565b90565b60005b83811061136e5750506000910152565b818101518382015260200161135e565b906020916113978151809281855285808601910161135b565b601f01601f1916010190565b6040602061135893816113bd8551858452858401906112a9565b940151908281860391015260ff8151168452015191816020820152019061137e565b805191600383101561144f5761135892815260a061142161140f602085015160c0602086015260c08501906113a3565b604085015184820360408601526113a3565b926001600160401b0360608201511660608401526080810151608084015201519060a081840391015261137e565b634e487b7160e01b600052602160045260246000fd5b9080602083519182815201916020808360051b8301019401926000915b83831061149157505050505090565b90919293946020806114af600193601f1986820301875289516113df565b97019301930191939290611482565b6113589160806114d7835160a0845260a08401906112a9565b9260208101516020840152604081015160408401526001600160401b0360608201511660608401520151906080818403910152611465565b60206003198201126101b757600435906001600160401b0382116101b75760409082900360031901126101b75760040190565b6020815260608101918051926040602084015283518091526080830190602060808260051b8601019501916000905b82821061159257505050506001600160401b03602060409201511691015290565b90919295602080600192607f1989820301855289519081518152848060a01b038383015116838201526060806115d7604085015160806040860152608085019061137e565b930151910152980192019201909291611571565b60a081019081106001600160401b0382111761160657604052565b634e487b7160e01b600052604160045260246000fd5b60c081019081106001600160401b0382111761160657604052565b606081019081106001600160401b0382111761160657604052565b604081019081106001600160401b0382111761160657604052565b608081019081106001600160401b0382111761160657604052565b90601f801991011681019081106001600160401b0382111761160657604052565b6001600160401b0381116116065760051b60200190565b91906040838203126101b7576040516116d881611652565b809380356001600160401b03811681036101b75782526020810135906001600160401b0382116101b757019180601f840112156101b75782359061171b826116a9565b936117296040519586611688565b82855260208086019360051b8201019182116101b757602001915b8183106117545750505060200152565b82356001600160a01b03811681036101b757815260209283019201611744565b6040519061178182611652565b6060602083600081520152565b6040519061179b8261161c565b81600081526000602082015260006040820152600060608201526000608082015260a06117c6611774565b910152565b906040516117d881611652565b600181936001600160401b0381541683520190604051809283916020825491828152019160005260206000209060005b8181106118255750505060209291611821910384611688565b0152565b82546001600160a01b0316845286945060209093019260019283019201611808565b906040516118548161161c565b60a06117c6600483958054855260018101546020860152600281015460408601526001600160401b036003820154818116606088015260401c166080860152016117cb565b604051906118a682611652565b60006020838281520152565b604051906118bf826115eb565b60606080836118cc611774565b815260006020820152600060408201526000838201520152565b906040519160008154918260011c926001811680156119ac575b60208510811461199857848752869392918115611976575060011461192f575b5061192d92500383611688565b565b90506000929192526020600020906000915b81831061195a57505090602061192d9282010138611920565b6020919350806001915483858901015201910190918492611941565b90506020925061192d94915060ff191682840152151560051b82010138611920565b634e487b7160e01b84526022600452602484fd5b93607f1693611900565b90604051916119c483611652565b6020836119d0836117cb565b81526119f46003604051946119e486611652565b60ff6002820154168652016118e6565b828401520152565b90604051611a098161161c565b809260ff81541690600382101561144f57600b6117c69160a0938552611a31600182016119b6565b6020860152611a42600582016119b6565b60408601526001600160401b036009820154166060860152600a8101546080860152016118e6565b908154611a76816116a9565b92611a846040519485611688565b818452602084019060005260206000206000915b838310611aa55750505050565b600c6020600192611ab5856119fc565b815201920192019190611a98565b6108d7611ad19136906116c0565b9015611aef5760036001600160401b0391015460401c169060019190565b50600090600090565b6108d7611b069136906116c0565b9015611aef5760036001600160401b03910154169060019190565b8051821015611b355760209160051b010190565b634e487b7160e01b600052603260045260246000fd5b60405190611b5882611652565b6000602083606081520152565b60405190611b7282611652565b81611b7b611774565b815260206117c6611774565b60405190611b94826115eb565b60006080838281528260208201528260408201528260608201520152565b519081151582036101b757565b818102929181159184041417156104c057565b9060208252602060808160608501936001600160401b038151168287015201519360408082015284518094520192019060005b818110611c125750505090565b82516001600160a01b0316845260209384019390920191600101611c05565b611c66602073__$3fbe32418a9ca7804328967972fb037388$__92604051809381926390ba52cf60e01b835260048301611bd2565b0381855af49081156104b457600091611d04575b5060005260208052611cb56020604060002092611c99600485016117cb565b906040518080958194630c133d1360e31b835260048301611bd2565b03915af49081156104b457600091611ccc57501591565b90506020813d602011611cfc575b81611ce760209383611688565b810103126101b757611cf890611bb2565b1591565b3d9150611cda565b90506020813d602011611d2e575b81611d1f60209383611688565b810103126101b7575138611c7a565b3d9150611d12565b611d3e611899565b5060005260216020526040600020600160405191611d5b83611652565b805483520154602082015290565b60405190600e548083528260208101600e60005260206000209260005b818110611d9b57505061192d92500383611688565b8454835260019485019487945060209093019201611d8656fea2646970667358221220fb6e09b3471ed667c08380fe2431f352a5148523409c13c017633211fa24326c64736f6c634300081a0033","linkReferences":{"contracts/lib/LibQuorum.sol":{"LibQuorum":[{"start":1453,"length":20}]},"contracts/lib/SubnetIDHelper.sol":{"SubnetIDHelper":[{"start":1096,"length":20},{"start":7251,"length":20}]}}},"methodIdentifiers":{"appliedTopDownNonce()":"8789f83b","bottomUpCheckPeriod()":"06c46853","bottomUpCheckpoint(uint256)":"2da5794a","bottomUpMsgBatch(uint256)":"dd81b5cf","bottomUpNonce()":"41b6a2e8","getAppliedBottomUpNonce((uint64,address[]))":"38d66932","getCheckpointCurrentWeight(uint256)":"b3ab3f74","getCheckpointInfo(uint256)":"ac12d763","getCheckpointRetentionHeight()":"4aa8f8a5","getCheckpointSignatureBundle(uint256)":"ca41d5ce","getCommitSha()":"444ead51","getCurrentBottomUpCheckpoint()":"d6c5c397","getCurrentConfigurationNumber()":"544dddff","getCurrentMembership()":"6ad21bb0","getIncompleteCheckpointHeights()":"a517218f","getIncompleteCheckpoints()":"97042766","getLastConfigurationNumber()":"b1ba49b0","getLastMembership()":"f3229131","getLatestParentFinality()":"0338150f","getNetworkName()":"94074b03","getParentFinality(uint256)":"7edeac92","getQuorumThreshold(uint256)":"06572c1a","getSubnet((uint64,address[]))":"c66c66a1","getSubnetKeys()":"3594c3c1","getSubnetTopDownMsgsLength((uint64,address[]))":"9d3070b5","getTopDownNonce((uint64,address[]))":"42398a9a","getValidatorConfigurationNumbers()":"fa34a400","listSubnets()":"5d029685","majorityPercentage()":"599c7bd1","maxMsgsPerBottomUpBatch()":"05aff0b3","postbox(bytes32)":"8cfd78e7","subnets(bytes32)":"02e30f9a","totalSubnets()":"a2b67158"},"id":11}