{"abi":[{"type":"function","name":"addStake","inputs":[{"name":"amount","type":"uint256","internalType":"uint256"}],"outputs":[],"stateMutability":"payable"},{"type":"function","name":"fund","inputs":[{"name":"subnetId","type":"tuple","internalType":"struct SubnetID","components":[{"name":"root","type":"uint64","internalType":"uint64"},{"name":"route","type":"address[]","internalType":"address[]"}]},{"name":"to","type":"tuple","internalType":"struct FvmAddress","components":[{"name":"addrType","type":"uint8","internalType":"uint8"},{"name":"payload","type":"bytes","internalType":"bytes"}]}],"outputs":[],"stateMutability":"payable"},{"type":"function","name":"fundWithToken","inputs":[{"name":"subnetId","type":"tuple","internalType":"struct SubnetID","components":[{"name":"root","type":"uint64","internalType":"uint64"},{"name":"route","type":"address[]","internalType":"address[]"}]},{"name":"to","type":"tuple","internalType":"struct FvmAddress","components":[{"name":"addrType","type":"uint8","internalType":"uint8"},{"name":"payload","type":"bytes","internalType":"bytes"}]},{"name":"amount","type":"uint256","internalType":"uint256"}],"outputs":[],"stateMutability":"nonpayable"},{"type":"function","name":"kill","inputs":[],"outputs":[],"stateMutability":"nonpayable"},{"type":"function","name":"register","inputs":[{"name":"genesisCircSupply","type":"uint256","internalType":"uint256"},{"name":"collateral","type":"uint256","internalType":"uint256"}],"outputs":[],"stateMutability":"payable"},{"type":"function","name":"release","inputs":[{"name":"to","type":"tuple","internalType":"struct FvmAddress","components":[{"name":"addrType","type":"uint8","internalType":"uint8"},{"name":"payload","type":"bytes","internalType":"bytes"}]}],"outputs":[],"stateMutability":"payable"},{"type":"function","name":"releaseStake","inputs":[{"name":"amount","type":"uint256","internalType":"uint256"}],"outputs":[],"stateMutability":"nonpayable"},{"type":"event","name":"NewBottomUpMsgBatch","inputs":[{"name":"epoch","type":"uint256","indexed":true,"internalType":"uint256"}],"anonymous":false},{"type":"event","name":"NewTopDownMessage","inputs":[{"name":"subnet","type":"address","indexed":true,"internalType":"address"},{"name":"message","type":"tuple","indexed":false,"internalType":"struct IpcEnvelope","components":[{"name":"kind","type":"uint8","internalType":"enum IpcMsgKind"},{"name":"to","type":"tuple","internalType":"struct IPCAddress","components":[{"name":"subnetId","type":"tuple","internalType":"struct SubnetID","components":[{"name":"root","type":"uint64","internalType":"uint64"},{"name":"route","type":"address[]","internalType":"address[]"}]},{"name":"rawAddress","type":"tuple","internalType":"struct FvmAddress","components":[{"name":"addrType","type":"uint8","internalType":"uint8"},{"name":"payload","type":"bytes","internalType":"bytes"}]}]},{"name":"from","type":"tuple","internalType":"struct IPCAddress","components":[{"name":"subnetId","type":"tuple","internalType":"struct SubnetID","components":[{"name":"root","type":"uint64","internalType":"uint64"},{"name":"route","type":"address[]","internalType":"address[]"}]},{"name":"rawAddress","type":"tuple","internalType":"struct FvmAddress","components":[{"name":"addrType","type":"uint8","internalType":"uint8"},{"name":"payload","type":"bytes","internalType":"bytes"}]}]},{"name":"nonce","type":"uint64","internalType":"uint64"},{"name":"value","type":"uint256","internalType":"uint256"},{"name":"message","type":"bytes","internalType":"bytes"}]}],"anonymous":false},{"type":"error","name":"AddressEmptyCode","inputs":[{"name":"target","type":"address","internalType":"address"}]},{"type":"error","name":"AddressInsufficientBalance","inputs":[{"name":"account","type":"address","internalType":"address"}]},{"type":"error","name":"AlreadyRegisteredSubnet","inputs":[]},{"type":"error","name":"CallFailed","inputs":[]},{"type":"error","name":"CannotReleaseZero","inputs":[]},{"type":"error","name":"FailedInnerCall","inputs":[]},{"type":"error","name":"InsufficientFunds","inputs":[]},{"type":"error","name":"InvalidActorAddress","inputs":[]},{"type":"error","name":"InvalidXnetMessage","inputs":[{"name":"reason","type":"uint8","internalType":"enum InvalidXnetMessageReason"}]},{"type":"error","name":"MethodNotAllowed","inputs":[{"name":"reason","type":"string","internalType":"string"}]},{"type":"error","name":"NotEmptySubnetCircSupply","inputs":[]},{"type":"error","name":"NotEnoughBalance","inputs":[]},{"type":"error","name":"NotEnoughFunds","inputs":[]},{"type":"error","name":"NotEnoughFundsToRelease","inputs":[]},{"type":"error","name":"NotRegisteredSubnet","inputs":[]},{"type":"error","name":"ReentrancyError","inputs":[]},{"type":"error","name":"SafeERC20FailedOperation","inputs":[{"name":"token","type":"address","internalType":"address"}]}],"bytecode":{"object":"0x608080604052346015576129e1908161001b8239f35b600080fdfe6080604052600436101561001257600080fd5b60003560e01c80630517e1aa14610a7757806318f44b701461084157806341c0e1b5146106bb57806345f54485146105bb5780636b2c1eef14610492578063d66d6c10146101315763eb4f16b51461006957600080fd5b602036600319011261012c57600435801561011b5760408051632d9e5f4f60e21b81529081600481335afa90811561010f576100af9183916000916100e0575b506115d5565b506100b933611aa4565b9190156100cf576100cb908254611418565b9055005b630e991abd60e41b60005260046000fd5b610102915060403d604011610108575b6100fa8183610cba565b810190610e28565b386100a9565b503d6100f0565b6040513d6000823e3d90fd5b631036b5ad60e31b60005260046000fd5b600080fd5b604036600319011261012c57600435602435906013546001810180911161047c5760ff60065416111561041057806103bb575b81610361575b6101ab9061017661122e565b90600073__$3fbe32418a9ca7804328967972fb037388$__926040518095819263aa5106cb60e01b835233906004840161146f565b0381855af492831561010f5760009361033e575b506101c9836114cd565b9061032d576001600160401b038451166001600160401b036004830191166001600160401b0319825416179055600581019460208501518051906001600160401b0382116103175760209061021e838a611379565b019660005260206000209660005b8281106102fa57838555436001860155600285018690556040516390ba52cf60e01b81526020600482018190528189818061026a602482018f610dd0565b03915af4801561010f576000906102c6575b610285906128cf565b5060035467ffffffffffffffff60801b6102ab608083901c6001600160401b0316611497565b60801b1667ffffffffffffffff60801b199190911617600355005b506020813d6020116102f2575b816102e060209383610cba565b8101031261012c57610285905161027c565b3d91506102d3565b81516001600160a01b0316818a015560209091019060010161022c565b634e487b7160e01b600052604160045260246000fd5b631b538cdf60e11b60005260046000fd5b61035a91933d8091833e6103528183610cba565b81019061144a565b91846101bf565b60408051632d9e5f4f60e21b8152919082600481335afa801561010f5783610394916101ab9460009161039c57506115d5565b50905061016a565b6103b5915060403d604011610108576100fa8183610cba565b866100a9565b604080516380875df760e01b81529081600481335afa90811561010f576103eb9183916000916103f157506115d5565b50610164565b61040a915060403d604011610108576100fa8183610cba565b856100a9565b610478604051610421606082610cba565b602381527f5375626e657420646f6573206e6f7420616c6c6f77206368696c64207375626e60208201526265747360e81b604082015260405191829163015538b160e01b8352602060048401526024830190611425565b0390fd5b634e487b7160e01b600052601160045260246000fd5b602036600319011261012c576004356001600160401b03811161012c576040600319823603011261012c5734156105a55760006105089160405180938192630c30422f60e11b8352608060048401526104ed608484016113ba565b336024850152838103600319016044850152906004016110ff565b346064830152038173__$c0560e63386df2470ca6214f90e7038fc9$__5af4801561010f5761053f91600091610582575b506123e1565b3447106105715760008080803460635af161055861279f565b501561056057005b633204506f60e01b60005260046000fd5b63356680b760e01b60005260046000fd5b61059f91503d806000833e6105978183610cba565b810190611037565b82610539565b63bc0f01cf60e01b600052600360045260246000fd5b3461012c57602036600319011261012c57600435600160008051602061298c83398151915254146106aa57600160008051602061298c8339815191525580156106995761060733611aa4565b90156100cf5780548281106106885782610620916113ad565b905560408051632d9e5f4f60e21b8152919082600481335afa801561010f5761065392600091610669575b503390611b3d565b5050600060008051602061298c83398151915255005b610682915060403d604011610108576100fa8183610cba565b8361064b565b6379b33e7960e01b60005260046000fd5b63c79cad7b60e01b60005260046000fd5b6329f745a760e01b60005260046000fd5b3461012c57600036600319011261012c576106d533611aa4565b90156100cf5760028101546108305761071860206106f76004845494016112c4565b604051809381926390ba52cf60e01b83528460048401526024830190610dd0565b038173__$3fbe32418a9ca7804328967972fb037388$__5af490811561010f576000916107fb575b50600354906000196001600160401b038360801c1601916001600160401b03831161047c576107c8926001600160401b0360801b9060801b16906001600160401b0360801b19161760035580600052602080526107c360056040600020600081556000600182015560006002820155600060038201556000600482015501611353565b6127e7565b5060408051632d9e5f4f60e21b8152919082600481335afa801561010f576107f99260009161066957503390611b3d565b005b906020823d602011610828575b8161081560209383610cba565b8101031261082557505182610740565b80fd5b3d9150610808565b637c67c70160e11b60005260046000fd5b604036600319011261012c576004356001600160401b03811161012c5760408160040191600319903603011261012c576024356001600160401b03811161012c576040600319823603011261012c5734156105a5576108a86108a33684610d1a565b6114cd565b50156100cf576108de60206108bd3685610d1a565b60405180938192632cff562160e11b83528460048401526024830190610dd0565b038173__$3fbe32418a9ca7804328967972fb037388$__5af490811561010f57600091610a38575b50604080516380875df760e01b815291829060049082906001600160a01b03165afa90811561010f57600091610a19575b5051916002831015610a03576000926109cb57610973918391604051938492839263266a83ad60e21b845234916004019033906004860161116a565b038173__$c0560e63386df2470ca6214f90e7038fc9$__5af480156109c0576109a39183916109a6575b50611893565b80f35b6109ba91503d8085833e6105978183610cba565b8361099d565b6040513d84823e3d90fd5b60405162461bcd60e51b815260206004820152601060248201526f155b995e1c1958dd195908185cdcd95d60821b6044820152606490fd5b634e487b7160e01b600052602160045260246000fd5b610a32915060403d604011610108576100fa8183610cba565b83610937565b90506020813d602011610a6f575b81610a5360209383610cba565b8101031261012c576040610a68600492610dbc565b9150610906565b3d9150610a46565b3461012c57606036600319011261012c576004356001600160401b03811161012c5760408160040191600319903603011261012c576024356001600160401b03811161012c576040600319823603011261012c57604435600160008051602061298c83398151915254146106aa57600160008051602061298c8339815191525580156105a557610b0a6108a33685610d1a565b50156100cf57610b41926020610b203683610d1a565b60405180968192632cff562160e11b83528460048401526024830190610dd0565b038173__$3fbe32418a9ca7804328967972fb037388$__5af493841561010f57600094610c45575b50604080516380875df760e01b815294859060049082906001600160a01b03165afa93841561010f57600094610c24575b508351936002851015610a03576001600095036109cb578492610bbc916115d5565b92610be1604051948593849363266a83ad60e21b85526004019033906004860161116a565b038173__$c0560e63386df2470ca6214f90e7038fc9$__5af480156109c057610c109183916109a65750611893565b8060008051602061298c8339815191525580f35b610c3e91945060403d604011610108576100fa8183610cba565b9284610b9a565b93506020843d602011610c7c575b81610c6060209383610cba565b8101031261012c576040610c75600495610dbc565b9450610b69565b3d9150610c53565b604081019081106001600160401b0382111761031757604052565b60c081019081106001600160401b0382111761031757604052565b90601f801991011681019081106001600160401b0382111761031757604052565b35906001600160401b038216820361012c57565b6001600160401b0381116103175760051b60200190565b35906001600160a01b038216820361012c57565b919060408382031261012c57604051610d3281610c84565b8093610d3d81610cdb565b82526020810135906001600160401b03821161012c57019180601f8401121561012c578235610d6b81610cef565b93610d796040519586610cba565b81855260208086019260051b82010192831161012c57602001905b828210610da45750505060200152565b60208091610db184610d06565b815201910190610d94565b51906001600160a01b038216820361012c57565b602060608160408501936001600160401b03815116865201519360408382015284518094520192019060005b818110610e095750505090565b82516001600160a01b0316845260209384019390920191600101610dfc565b9081604091031261012c5760405190610e4082610c84565b8051600281101561012c578252610e5990602001610dbc565b602082015290565b51906001600160401b038216820361012c57565b919060408382031261012c57604051610e8d81610c84565b8093610e9881610e61565b82526020810151906001600160401b03821161012c57019180601f8401121561012c578251610ec681610cef565b93610ed46040519586610cba565b81855260208086019260051b82010192831161012c57602001905b828210610eff5750505060200152565b60208091610f0c84610dbc565b815201910190610eef565b6001600160401b03811161031757601f01601f191660200190565b60005b838110610f455750506000910152565b8181015183820152602001610f35565b81601f8201121561012c578051610f6b81610f17565b92610f796040519485610cba565b8184526020828401011161012c57610f979160208085019101610f32565b90565b919060408382031261012c5760405190610fb382610c84565b819380516001600160401b03811161012c5782610fd1918301610e75565b83526020810151906001600160401b03821161012c57019160408383031261012c576040519261100084610c84565b805160ff8116810361012c5784526020810151926001600160401b03841161012c5760209361102f9201610f55565b828401520152565b60208183031261012c578051906001600160401b03821161012c570160c08183031261012c576040519161106a83610c9f565b8151600381101561012c57835260208201516001600160401b03811161012c5781611096918401610f9a565b602084015260408201516001600160401b03811161012c57816110ba918401610f9a565b60408401526110cb60608301610e61565b60608401526080820151608084015260a08201516001600160401b03811161012c576110f79201610f55565b60a082015290565b803560ff811680910361012c5782526020810135601e198236030181121561012c570190602082359201916001600160401b03811161012c57803603831361012c578060609360406020850152816040850152848401376000828201840152601f01601f1916010190565b94939290916080865260c08601926001600160401b0361118982610cdb565b1660808801526020810135601e198236030181121561012c5701602081359101936001600160401b03821161012c578160051b3603851361012c578190604060a08a01525260e08701939060005b818110611208575050506001600160a01b031660208601528482036040860152606091611203916110ff565b930152565b909194602080600192838060a01b036112208a610d06565b1681520196019291016111d7565b6040519061123b82610c84565b6012546001600160401b031682526040516013805480835260009182528491839160208301917f66de8ffda797e3de9c05e8fc57b3bf0ec28a930d40b0d285d93c06501cf6a09091905b8181106112a2575050506020929161129e910384610cba565b0152565b82546001600160a01b0316845286945060209093019260019283019201611285565b906040516112d181610c84565b600181936001600160401b0381541683520190604051809283916020825491828152019160005260206000209060005b81811061131a575050506020929161129e910384610cba565b82546001600160a01b0316845286945060209093019260019283019201611301565b818110611347575050565b6000815560010161133c565b80546000825580611362575050565b6113779160005260206000209081019061133c565b565b90600160401b81116103175781549080835581811061139757505050565b611377926000526020600020918201910161133c565b9190820391821161047c57565b606060408201916001600160401b03601254168152604060208201526013548093520190601360005260206000209060005b8181106113f95750505090565b82546001600160a01b03168452602090930192600192830192016113ec565b9190820180921161047c57565b9060209161143e81518092818552858086019101610f32565b601f01601f1916010190565b9060208282031261012c5781516001600160401b03811161012c57610f979201610e75565b90611487602091949394604084526040840190610dd0565b6001600160a01b03909416910152565b6001600160401b036001911601906001600160401b03821161047c57565b9081602091031261012c5751801515810361012c5790565b611509602073__$3fbe32418a9ca7804328967972fb037388$__92604051809381926390ba52cf60e01b83528460048401526024830190610dd0565b0381855af490811561010f576000916115a3575b506000526020805261155f602060406000209261153c600485016112c4565b906040518080958194630c133d1360e31b83528660048401526024830190610dd0565b03915af490811561010f5760009161157657501591565b611598915060203d60201161159c575b6115908183610cba565b8101906114b5565b1591565b503d611586565b90506020813d6020116115cd575b816115be60209383610cba565b8101031261012c57513861151d565b3d91506115b1565b908151916002831015610a03576000926001036117bb576020908101516040516370a0823160e01b8152306004820152926001600160a01b039091169183602481855afa9283156117b0579084918294611775575b5090806116789260405160208101916323b872dd60e01b8352336024830152306044830152606482015260648152611663608482610cba565b519082865af161167161279f565b908361292a565b805190811515918261175a575b5050611748576020602491604051928380926370a0823160e01b82523060048301525afa92831561173c578093611705575b5050808211156116ca57610f97916113ad565b60405162461bcd60e51b81526020600482015260136024820152724e6f2062616c616e636520696e63726561736560681b6044820152606490fd5b909192506020823d602011611734575b8161172260209383610cba565b810103126108255750519038806116b7565b3d9150611715565b604051903d90823e3d90fd5b635274afe760e01b8352600452602482fd5b61176d92506020809183010191016114b5565b153880611685565b915092506020813d6020116117a8575b8161179260209383610cba565b810103126117a457519183908161162a565b8380fd5b3d9150611785565b6040513d86823e3d90fd5b5080915034106117c85790565b60405162461bcd60e51b8152602060048201526012602482015271496e73756666696369656e742066756e647360701b6044820152606490fd5b91909180519060408452602060808501926001600160401b038151166040870152015191604060608601528251809152602060a0860193019060005b818110611874575050506020610f979394816040930151908281860391015260ff81511684520151918160208201520190611425565b82516001600160a01b031685526020948501949092019160010161183e565b6118ee90602081018051519060006118dd73__$3fbe32418a9ca7804328967972fb037388$__93604051968792839263089032d560e01b8452604060048501526044840190610dd0565b8281036003190160248401526113ba565b0381855af493841561010f57600094611a87575b5061190c846114cd565b9190156100cf57602061198c9560038401946001600160401b03865416956001600160401b0361194260608a0198808a52611497565b166001600160401b03198254161790556080870194611968600287519201918254611418565b905560405180809981946304e384ff60e21b83528660048401526024830190610dd0565b03915af494851561010f57600095611a4b575b5060405192602084528451916003831015610a03577ffdd39ce2560484814971f663392e78ae37dc62ba184b3370d830371dd271a8b79585946001600160401b03611a1a611a0460a095611a469860208b01525160c060408b015260e08a0190611802565b6040850151898203601f190160608b0152611802565b945116608087015251828601520151838203601f190160c08501526001600160a01b0390961695611425565b0390a2565b9094506020813d602011611a7f575b81611a6760209383610cba565b8101031261012c57611a7890610dbc565b933861199f565b3d9150611a5a565b611a9d9194503d806000833e6103528183610cba565b9238611902565b6001600160a01b03811615611b2c576000611adc91611ac161122e565b60405163aa5106cb60e01b815293849283926004840161146f565b038173__$3fbe32418a9ca7804328967972fb037388$__5af4801561010f57611b0d91600091611b11575b506114cd565b9091565b611b2691503d806000833e6103528183610cba565b38611b07565b6370e4510960e01b60005260046000fd5b929190600060608551956002871015610a0357600096611ba157505050814710611b925783918291829182916001600160a01b03165af1611b7c61279f565b5060405192611b8c602085610cba565b83529190565b63569d45cf60e11b8452600484fd5b809693929695949195516002811015611c4457600114611bc15750505050565b602090810151604080516001600160a01b039586169381019384528082019490945283529496509294508493909116918390611bfe606084610cba565b611c3760246040518093611c26602083019763a9059cbb60e01b895251809285850190610f32565b81010301601f198101835282610cba565b51925af190610f9761279f565b634e487b7160e01b85526021600452602485fd5b60138114611cd857601354906001600160401b03821161031757611c7c8282611379565b6000908152602081207f66de8ffda797e3de9c05e8fc57b3bf0ec28a930d40b0d285d93c06501cf6a09080545b848410611cb7575050505050565b600191820180546001600160a01b0390921684860155939091019290611ca9565b50565b8054821015611cf757600052600c602060002091020190600090565b634e487b7160e01b600052603260045260246000fd5b90600182811c92168015611d3d575b6020831014611d2757565b634e487b7160e01b600052602260045260246000fd5b91607f1691611d1c565b9190918054600160401b81101561031757611d6791600182018155611cdb565b929092612224578051926003841015610a035760009360ff80198354169116178155602082015180516001600160401b038151166001600160401b036001850191166001600160401b0319825416179055602060028401910151908151916001600160401b03831161216057602090611de08484611379565b0190875260208720875b83811061220757505050506020600383019101519060ff82511660ff198254161790556020600483019101518051906001600160401b03821161212f57611e318354611d0d565b601f81116121d7575b50602090601f831160011461217457611e6b9291889183611fde575b50508160011b916000199060031b1c19161790565b90555b60408201518051805160058401805467ffffffffffffffff19166001600160401b03928316179055602090910151805191600685019190831161216057602090611eb88484611379565b0190875260208720875b83811061214357505050506020600783019101519060ff82511660ff198254161790556020600883019101518051906001600160401b03821161212f57611f098354611d0d565b601f81116120ff575b50602090601f8311600114612096578260a09593600b9593611f49938b92611fde5750508160011b916000199060031b1c19161790565b90555b6001600160401b036060850151166001600160401b036009830191166001600160401b03198254161790556080840151600a82015501910151928351906001600160401b03821161208257611fa18354611d0d565b601f8111612047575b50602090601f8311600114611fe95790611fda93949583611fde5750508160011b916000199060031b1c19161790565b9055565b015190503880611e56565b90601f198316848352818320925b81811061202f57509583600195969710612016575b505050811b019055565b015160001960f88460031b161c1916905538808061200c565b9192602060018192868b015181550194019201611ff7565b6120729084835260208320601f850160051c81019160208610612078575b601f0160051c019061133c565b38611faa565b9091508190612065565b634e487b7160e01b81526041600452602490fd5b8388528188209190601f198416895b8181106120e7575092600192859260a09896600b9896106120ce575b505050811b019055611f4c565b015160001960f88460031b161c191690553880806120c1565b929360206001819287860151815501950193016120a5565b6121299084895260208920601f850160051c8101916020861061207857601f0160051c019061133c565b38611f12565b634e487b7160e01b87526041600452602487fd5b82516001600160a01b031681830155602090920191600101611ec2565b634e487b7160e01b88526041600452602488fd5b8388528188209190601f198416895b8181106121bf57509084600195949392106121a6575b505050811b019055611e6e565b015160001960f88460031b161c19169055388080612199565b92936020600181928786015181550195019301612183565b6122019084895260208920601f850160051c8101916020861061207857601f0160051c019061133c565b38611e3a565b82516001600160a01b031681830155602090920191600101611dea565b634e487b7160e01b600052600060045260246000fd5b6040519061224782610c84565b6060602083600081520152565b6040519061226182610c84565b8161226a61223a565b8152602061227661223a565b910152565b8051821015611cf75760209160051b010190565b90604051918260008254926122a384611d0d565b808452936001811690811561230f57506001146122c8575b5061137792500383610cba565b90506000929192526020600020906000915b8183106122f357505090602061137792820101386122bb565b60209193508060019154838589010152019101909184926122da565b90506020925061137794915060ff191682840152151560051b820101386122bb565b906040519161233f83610c84565b60208361234b836112c4565b815261102f60036040519461235f86610c84565b60ff60028201541686520161228f565b6123798154611d0d565b9081612383575050565b81601f60009311600114612395575055565b818352602083206123b191601f0160051c81019060010161133c565b8082528160208120915555565b600361137791600081556123d460018201611353565b600060028201550161236f565b600154801561278957806001600160401b034316046001810180911161047c5781810291818304149015171561047c576001600160401b0361242c8160035416806060860152611497565b166001600160401b031960035416176003558060005260246020526040600020906002820180541561274257505060030190815460035460c01c1460001461273957815461247981610cef565b916124876040519384610cba565b818352601f1961249683610cef565b0160005b8181106126ec57505060405193606085018581106001600160401b03821117610317576040526124c861122e565b855260208501924384526040860194855260005b8181106126515750437f4ecfe3c1ed32ef0a63d3801d51eb20214db90b14dc5fd1ca58a9de54f16f46a6600080a260008255806125e9575b509061251f91611d47565b80516000526024602052604060002092516001600160401b0380825116166001600160401b0319855416178455602060018501910151908151916001600160401b038311610317576020906125778484989798611379565b0190600052602060002060005b8381106125cc575050505051600282015581515191600360009201915b8381106125ae5750505050565b806125c66125bf600193855161227b565b5185611d47565b016125a1565b82516001600160a01b031681830155602090920191600101612584565b80600c0290600c82040361047c57816000526020600020908101905b8181106126125750612514565b806000600c9255612625600182016123be565b612631600582016123be565b600060098201556000600a82015561264b600b820161236f565b01612605565b61265b8184611cdb565b50908651916040519261266d84610c9f565b60ff825416906003821015610a0357846126d0600b6126e595879560019952612697898201612331565b60208501526126a860058201612331565b60408501526001600160401b036009820154166060850152600a81015460808501520161228f565b60a08201526126df838361227b565b5261227b565b50016124dc565b6020906040516126fb81610c9f565b60008152612707612254565b83820152612713612254565b60408201526000606082015260006080820152606060a08201528282880101520161249a565b61137791611d47565b9160039161137794936012830361275b575b5501611d47565b6001600160401b038060125416166001600160401b031984541617835561278460018401611c58565b612754565b634e487b7160e01b600052601260045260246000fd5b3d156127ca573d906127b082610f17565b916127be6040519384610cba565b82523d6000602084013e565b606090565b8054821015611cf75760005260206000200190600090565b60008181526026602052604090205480156128c857600019810181811161047c5760255460001981019190821161047c57818103612877575b5050506025548015612861576000190161283b8160256127cf565b8154906000199060031b1b19169055602555600052602660205260006040812055600190565b634e487b7160e01b600052603160045260246000fd5b6128b06128886128999360256127cf565b90549060031b1c92839260256127cf565b819391549060031b91821b91600019901b19161790565b90556000526026602052604060002055388080612820565b5050600090565b8060005260266020526040600020541560001461292457602554600160401b8110156103175761290b61289982600185940160255560256127cf565b9055602554906000526026602052604060002055600190565b50600090565b90612950575080511561293f57805190602001fd5b630a12f52160e11b60005260046000fd5b81511580612982575b612961575090565b639996b31560e01b60009081526001600160a01b0391909116600452602490fd5b50803b1561295956fe691bb03ffc16c56fc96b82fd16cd1b3715f0bc3cdc6407005f49bb6205860095a2646970667358221220f553b828a2189ca9ecafe8f1d021bceb11d8b5ffc85d89659cb50d22abd727af64736f6c634300081a0033","linkReferences":{"contracts/lib/CrossMsgHelper.sol":{"CrossMsgHelper":[{"start":1325,"length":20},{"start":2450,"length":20},{"start":3072,"length":20}]},"contracts/lib/SubnetIDHelper.sol":{"SubnetIDHelper":[{"start":406,"length":20},{"start":1847,"length":20},{"start":2301,"length":20},{"start":2912,"length":20},{"start":5359,"length":20},{"start":6337,"length":20},{"start":6907,"length":20}]}}},"methodIdentifiers":{"addStake(uint256)":"eb4f16b5","fund((uint64,address[]),(uint8,bytes))":"18f44b70","fundWithToken((uint64,address[]),(uint8,bytes),uint256)":"0517e1aa","kill()":"41c0e1b5","register(uint256,uint256)":"d66d6c10","release((uint8,bytes))":"6b2c1eef","releaseStake(uint256)":"45f54485"},"id":12}