{"abi":[{"type":"function","name":"isSystemActor","inputs":[{"name":"_address","type":"address","internalType":"address"}],"outputs":[{"name":"","type":"bool","internalType":"bool"}],"stateMutability":"pure"}],"bytecode":{"object":"0x60cd610038600b82828239805160001a607314602b57634e487b7160e01b600052600060045260246000fd5b30600052607381538281f3fe730000000000000000000000000000000000000000301460806040526004361060335760003560e01c80635d3f8a69146038575b600080fd5b605560433660046069565b6001600160a01b031660ff60981b1490565b604051901515815260200160405180910390f35b600060208284031215607a57600080fd5b81356001600160a01b0381168114609057600080fd5b939250505056fea2646970667358221220953d7dc7fc6c9a49ae8ce10f362b2fe13498dee6e9ed161b263946fd8adf162e64736f6c634300081a0033","linkReferences":{}},"methodIdentifiers":{"isSystemActor(address)":"5d3f8a69"},"id":23}