{"abi":[{"type":"function","name":"isSystemActor","inputs":[{"name":"_address","type":"address","internalType":"address"}],"outputs":[{"name":"","type":"bool","internalType":"bool"}],"stateMutability":"pure"}],"bytecode":{"object":"0x60808060405234601757608e9081601d823930815050f35b600080fdfe6080806040526004361015601257600080fd5b60003560e01c635d3f8a6914602657600080fd5b60203660031901126053576004356001600160a01b038116919082900360535760209160ff60981b148152f35b600080fdfea264697066735822122058ee85c393ffe5eeddde8a97cb32c1b344fbf1177f96119c8eb4f490674b4c5e64736f6c634300081a0033","linkReferences":{}},"methodIdentifiers":{"isSystemActor(address)":"5d3f8a69"},"id":23}