{"abi":[{"type":"function","name":"applyCrossMessages","inputs":[{"name":"crossMsgs","type":"tuple[]","internalType":"struct IpcEnvelope[]","components":[{"name":"kind","type":"uint8","internalType":"enum IpcMsgKind"},{"name":"to","type":"tuple","internalType":"struct IPCAddress","components":[{"name":"subnetId","type":"tuple","internalType":"struct SubnetID","components":[{"name":"root","type":"uint64","internalType":"uint64"},{"name":"route","type":"address[]","internalType":"address[]"}]},{"name":"rawAddress","type":"tuple","internalType":"struct FvmAddress","components":[{"name":"addrType","type":"uint8","internalType":"uint8"},{"name":"payload","type":"bytes","internalType":"bytes"}]}]},{"name":"from","type":"tuple","internalType":"struct IPCAddress","components":[{"name":"subnetId","type":"tuple","internalType":"struct SubnetID","components":[{"name":"root","type":"uint64","internalType":"uint64"},{"name":"route","type":"address[]","internalType":"address[]"}]},{"name":"rawAddress","type":"tuple","internalType":"struct FvmAddress","components":[{"name":"addrType","type":"uint8","internalType":"uint8"},{"name":"payload","type":"bytes","internalType":"bytes"}]}]},{"name":"nonce","type":"uint64","internalType":"uint64"},{"name":"value","type":"uint256","internalType":"uint256"},{"name":"message","type":"bytes","internalType":"bytes"}]}],"outputs":[],"stateMutability":"nonpayable"},{"type":"event","name":"NewBottomUpMsgBatch","inputs":[{"name":"epoch","type":"uint256","indexed":true,"internalType":"uint256"}],"anonymous":false},{"type":"event","name":"NewTopDownMessage","inputs":[{"name":"subnet","type":"address","indexed":true,"internalType":"address"},{"name":"message","type":"tuple","indexed":false,"internalType":"struct IpcEnvelope","components":[{"name":"kind","type":"uint8","internalType":"enum IpcMsgKind"},{"name":"to","type":"tuple","internalType":"struct IPCAddress","components":[{"name":"subnetId","type":"tuple","internalType":"struct SubnetID","components":[{"name":"root","type":"uint64","internalType":"uint64"},{"name":"route","type":"address[]","internalType":"address[]"}]},{"name":"rawAddress","type":"tuple","internalType":"struct FvmAddress","components":[{"name":"addrType","type":"uint8","internalType":"uint8"},{"name":"payload","type":"bytes","internalType":"bytes"}]}]},{"name":"from","type":"tuple","internalType":"struct IPCAddress","components":[{"name":"subnetId","type":"tuple","internalType":"struct SubnetID","components":[{"name":"root","type":"uint64","internalType":"uint64"},{"name":"route","type":"address[]","internalType":"address[]"}]},{"name":"rawAddress","type":"tuple","internalType":"struct FvmAddress","components":[{"name":"addrType","type":"uint8","internalType":"uint8"},{"name":"payload","type":"bytes","internalType":"bytes"}]}]},{"name":"nonce","type":"uint64","internalType":"uint64"},{"name":"value","type":"uint256","internalType":"uint256"},{"name":"message","type":"bytes","internalType":"bytes"}]}],"anonymous":false},{"type":"error","name":"CannotSendCrossMsgToItself","inputs":[]},{"type":"error","name":"InvalidXnetMessage","inputs":[{"name":"reason","type":"uint8","internalType":"enum InvalidXnetMessageReason"}]},{"type":"error","name":"MethodNotAllowed","inputs":[{"name":"reason","type":"string","internalType":"string"}]},{"type":"error","name":"NotRegisteredSubnet","inputs":[]},{"type":"error","name":"NotSystemActor","inputs":[]}],"bytecode":{"object":"0x60808060405234601557612926908161001b8239f35b600080fdfe608080604052600436101561001357600080fd5b60003560e01c63dd8319ee1461002857600080fd5b3461035757602036600319011261035757600435906001600160401b0382116103575736602383011215610357578160040135906001600160401b0382116103575760248260051b8401019036821161035757635d3f8a6960e01b815233600482015260208160248173__$32813765d87f0bbc231ef494a6a627f37b$__5af49081156102e957600091610325575b5015610314576040516100c981610395565b6012546001600160401b0316815260405160138054808352600091825260208301917f66de8ffda797e3de9c05e8fc57b3bf0ec28a930d40b0d285d93c06501cf6a09091905b8181106102f557505050918161012d600093610154969503826103b0565b6020820152604051809481926308c7427760e11b8352602060048401526024830190610556565b038173__$3fbe32418a9ca7804328967972fb037388$__5af49182156102e9576000926102c4575b5061018683610461565b9261019460405194856103b0565b8352602083019060009460248101925b8284106101dc5750505050815191835b8381106101bf578480f35b806101d66101cf6001938561076a565b5185610f0b565b016101b4565b83356001600160401b0381116102c057820160c060231982360301126102c0576040519161020983610364565b602482013560038110156102bc57835260448201356001600160401b0381116102bc5761023c9060243691850101610624565b602084015260648201356001600160401b0381116102bc576102649060243691850101610624565b6040840152610275608483016105ae565b606084015260a4820135608084015260c4820135926001600160401b0384116102bc576102ac6020949360248695369201016105dd565b60a08201528152019301926101a4565b8980fd5b8780fd5b6102e29192503d806000833e6102da81836103b0565b81019061052e565b903861017c565b6040513d6000823e3d90fd5b82546001600160a01b031684526020909301926001928301920161010f565b63f0d97f3b60e01b60005260046000fd5b90506020813d60201161035c575b81610340602093836103b0565b81010312610357576103519061075d565b386100b7565b600080fd5b3d9150610333565b60c081019081106001600160401b0382111761037f57604052565b634e487b7160e01b600052604160045260246000fd5b604081019081106001600160401b0382111761037f57604052565b90601f801991011681019081106001600160401b0382111761037f57604052565b906040516103de81610395565b600181936001600160401b0381541683520190604051809283916020825491828152019160005260206000209060005b81811061042b57505050602092916104279103846103b0565b0152565b82546001600160a01b031684528694506020909301926001928301920161040e565b51906001600160401b038216820361035757565b6001600160401b03811161037f5760051b60200190565b51906001600160a01b038216820361035757565b9190604083820312610357576040516104a481610395565b80936104af8161044d565b82526020810151906001600160401b03821161035757019180601f840112156103575782516104dd81610461565b936104eb60405195866103b0565b81855260208086019260051b82010192831161035757602001905b8282106105165750505060200152565b6020809161052384610478565b815201910190610506565b906020828203126103575781516001600160401b03811161035757610553920161048c565b90565b602060608160408501936001600160401b03815116865201519360408382015284518094520192019060005b81811061058f5750505090565b82516001600160a01b0316845260209384019390920191600101610582565b35906001600160401b038216820361035757565b6001600160401b03811161037f57601f01601f191660200190565b81601f82011215610357578035906105f4826105c2565b9261060260405194856103b0565b8284526020838301011161035757816000926020809301838601378301015290565b9190604083820312610357576040519061063d82610395565b819380356001600160401b038111610357578101604081840312610357576040519061066882610395565b610671816105ae565b82526020810135906001600160401b038211610357570183601f8201121561035757803561069e81610461565b916106ac60405193846103b0565b81835260208084019260051b8201019086821161035757602001915b81831061073d57505050602082015283526020810135906001600160401b038211610357570191604083830312610357576040519261070684610395565b803560ff811681036103575784526020810135926001600160401b0384116103575760209361073592016105dd565b828401520152565b82356001600160a01b0381168103610357578152602092830192016106c8565b5190811515820361035757565b805182101561077e5760209160051b010190565b634e487b7160e01b600052603260045260246000fd5b604051906107a182610395565b60006020838281520152565b90816020910312610357575160028110156103575790565b600311156107cf57565b634e487b7160e01b600052602160045260246000fd5b60005b8381106107f85750506000910152565b81810151838201526020016107e8565b90602091610821815180928185528580860191016107e5565b601f01601f1916010190565b604060206105539381610847855185845285840190610556565b940151908281860391015260ff81511684520151918160208201520190610808565b610553918151610878816107c5565b815260a06108aa610898602085015160c0602086015260c085019061082d565b6040850151848203604086015261082d565b926001600160401b0360608201511660608401526080810151608084015201519060a0818403910152610808565b6060600160408401926001600160401b0381541685520192604060208201528354809352019160005260206000209060005b8181106109175750505090565b82546001600160a01b031684526020909301926001928301920161090a565b61094b61055392604083526040830190610869565b90602081830391015260126108d8565b600211156107cf57565b6001600160401b036001911601906001600160401b03821161098357565b634e487b7160e01b600052601160045260246000fd5b9081604091031261035757604051906109b182610395565b805160028110156103575782526109ca90602001610478565b602082015290565b61094b61055392604083526040830190610556565b8181106109f2575050565b600081556001016109e7565b90600160401b811161037f57815490808355818110610a1c57505050565b610a3292600052602060002091820191016109e7565b565b90600182811c92168015610a64575b6020831014610a4e57565b634e487b7160e01b600052602260045260246000fd5b91607f1691610a43565b9190918251610a7c816107c5565b610a85816107c5565b60ff80198354169116178155602083015180516001600160401b038151166001600160401b036001850191166001600160401b0319825416179055602060028401910151908151916001600160401b03831161037f57602090610ae884846109fe565b0190600052602060002060005b838110610eee57505050506020600383019101519060ff82511660ff198254161790556020600483019101518051906001600160401b03821161037f57610b3c8354610a34565b601f8111610ebc575b50602090601f8311600114610e5557610b77929160009183610cef575b50508160011b916000199060031b1c19161790565b90555b60408301518051805160058401805467ffffffffffffffff19166001600160401b03928316179055602090910151805191600685019190831161037f57602090610bc484846109fe565b0190600052602060002060005b838110610e3857505050506020600783019101519060ff82511660ff198254161790556020600883019101518051906001600160401b03821161037f57610c188354610a34565b601f8111610e06575b50602090601f8311600114610d99578260a09593600b9593610c5993600092610cef5750508160011b916000199060031b1c19161790565b90555b6001600160401b036060860151166001600160401b036009830191166001600160401b03198254161790556080850151600a820155019201519182516001600160401b03811161037f57610cb08254610a34565b601f8111610d5c575b506020601f8211600114610cfa578190610ceb939495600092610cef5750508160011b916000199060031b1c19161790565b9055565b015190503880610b62565b601f1982169083600052806000209160005b818110610d4457509583600195969710610d2b575b505050811b019055565b015160001960f88460031b161c19169055388080610d21565b9192602060018192868b015181550194019201610d0c565b610d8990836000526020600020601f840160051c81019160208510610d8f575b601f0160051c01906109e7565b38610cb9565b9091508190610d7c565b90601f1983169184600052816000209260005b818110610dee575092600192859260a09896600b989610610dd5575b505050811b019055610c5c565b015160001960f88460031b161c19169055388080610dc8565b92936020600181928786015181550195019301610dac565b610e3290846000526020600020601f850160051c81019160208610610d8f57601f0160051c01906109e7565b38610c21565b82516001600160a01b031681830155602090920191600101610bd1565b90601f1983169184600052816000209260005b818110610ea45750908460019594939210610e8b575b505050811b019055610b7a565b015160001960f88460031b161c19169055388080610e7e565b92936020600181928786015181550195019301610e68565b610ee890846000526020600020601f850160051c81019160208610610d8f57601f0160051c01906109e7565b38610b45565b82516001600160a01b031681830155602090920191600101610af5565b602082019081515190610f50602073__$3fbe32418a9ca7804328967972fb037388$__9360405180938192630c133d1360e31b83528460048401526024830190610556565b0381865af49081156102e957600091611389575b5061135b576040516000610f7782610395565b808252602082015260405163855f7e4560e01b815260208180610f9d8960048301610936565b038173__$c0560e63386df2470ca6214f90e7038fc9$__5af49081156102e95760009161132c575b50610fcf8161095b565b6001810361124a575050610fe29061170d565b901561124457600381016001600160401b03815460401c166001600160401b03606087015116036112105761105a600461107b938361102f6001600160401b036020965460401c16610965565b67ffffffffffffffff60401b82549160401b169067ffffffffffffffff60401b1916179055016103d1565b60405180938192632cff562160e11b83528460048401526024830190610556565b0381855af49081156102e9576000916111d1575b50604080516380875df760e01b815291829060049082906001600160a01b03165afa9182156102e9576110e8926020926000916111a2575b50935b515190604051808095819463c836244d60e01b8352600483016109d2565b03915af49081156102e957600091611168575b50156111235761110b90826118f2565b901561111a57610a32916116a0565b610a3291611632565b50610a32906040516020810190602082526111538161114560408201866118b1565b03601f1981018352826103b0565b51902060005260226020526040600020610a6e565b90506020813d60201161119a575b81611183602093836103b0565b81010312610357576111949061075d565b386110fb565b3d9150611176565b6111c4915060403d6040116111ca575b6111bc81836103b0565b810190610999565b386110c7565b503d6111b2565b90506020813d602011611208575b816111ec602093836103b0565b81010312610357576040611201600492610478565b915061108f565b3d91506111df565b50505050610a32906040519063bc0f01cf60e01b6020830152600260248301526024825261123f6044836103b0565b61149a565b50505050565b909391506112578161095b565b15611269575b6110e8916020916110ca565b91506001600160401b0360035460401c166001600160401b03606085015116036112ff5760206110e8916112d66112ad6001600160401b0360035460401c16610965565b67ffffffffffffffff60401b6003549160401b169067ffffffffffffffff60401b191617600355565b6112de610794565b506040516112eb81610395565b60008152600083820152939150915061125d565b5050610a32906040519063bc0f01cf60e01b6020830152600260248301526024825261123f6044836103b0565b61134e915060203d602011611354575b61134681836103b0565b8101906107ad565b38610fc5565b503d61133c565b505050610a32906040519063bc0f01cf60e01b6020830152600160248301526024825261123f6044836103b0565b90506020813d6020116113bb575b816113a4602093836103b0565b81010312610357576113b59061075d565b38610f64565b3d9150611397565b81601f820112156103575780516113d9816105c2565b926113e760405194856103b0565b818452602082840101116103575761055391602080850191016107e5565b9190604083820312610357576040519061141e82610395565b819380516001600160401b038111610357578261143c91830161048c565b83526020810151906001600160401b038211610357570191604083830312610357576040519261146b84610395565b805160ff811681036103575784526020810151926001600160401b0384116103575760209361073592016113c3565b906114a4826119ee565b61162e57600282516114b5816107c5565b6114be816107c5565b1461162e57604051634dbefc2d60e11b815260606004820152916114e6906064840190610869565b9082611508600093829360016024850152600319848303016044850152610808565b038173__$c0560e63386df2470ca6214f90e7038fc9$__5af49081156102e95760009161153d575b5061153a90611a18565b50565b3d8083833e61154c81836103b0565b810190602081830312611626578051906001600160401b03821161162a57019160c083830312611623576040519261158384610364565b8051600381101561162657845260208101516001600160401b03811161162657836115af918301611405565b602085015260408101516001600160401b03811161162657836115d3918301611405565b60408501526115e46060820161044d565b60608501526080810151608085015260a0810151916001600160401b0383116116235750916116189161153a9493016113c3565b60a082015290611530565b80fd5b8280fd5b8380fd5b5050565b9061163c826119ee565b61162e576002825161164d816107c5565b611656816107c5565b1461162e57604051634dbefc2d60e11b8152606060048201529161167e906064840190610869565b9082611508600093829360026024850152600319848303016044850152610808565b906116aa826119ee565b61162e57600282516116bb816107c5565b6116c4816107c5565b1461162e57604051634dbefc2d60e11b815260606004820152916116ec906064840190610869565b90826115086000938293856024850152600319848303016044850152610808565b611749602073__$3fbe32418a9ca7804328967972fb037388$__92604051809381926390ba52cf60e01b83528460048401526024830190610556565b0381855af49081156102e9576000916117ee575b506000526020805261179f602060406000209261177c600485016103d1565b906040518080958194630c133d1360e31b83528660048401526024830190610556565b03915af49081156102e9576000916117b657501591565b90506020813d6020116117e6575b816117d1602093836103b0565b81010312610357576117e29061075d565b1591565b3d91506117c4565b90506020813d602011611818575b81611809602093836103b0565b8101031261035757513861175d565b3d91506117fc565b91909180519060408452602060808501926001600160401b038151166040870152015191604060608601528251809152602060a0860193019060005b8181106118925750505060206105539394816040930151908281860391015260ff81511684520151918160208201520190610808565b82516001600160a01b031685526020948501949092019160010161185c565b6105539181516118c0816107c5565b815260a06108aa6118e0602085015160c0602086015260c0850190611820565b60408501518482036040860152611820565b600091908291611954604051809261192360208301956307ee9e3160e31b87526060602485015260848401906118b1565b90805161192f8161095b565b6044840152602001516001600160a01b0316606483015203601f1981018352826103b0565b519073__$c0560e63386df2470ca6214f90e7038fc9$__5af4903d156119e6573d9161197f836105c2565b9261198d60405194856103b0565b83523d6000602085013e5b82816119a357509190565b92505081518201604083820312610357576119c06020840161075d565b926040810151916001600160401b038311610357576105539260208092019201016113c3565b606091611998565b80516119f9816107c5565b611a02816107c5565b15611a105760a00151511590565b608001511590565b6020810180515173__$3fbe32418a9ca7804328967972fb037388$__90604051630c133d1360e31b81526020600482015260208180611a5a6024820186610556565b0381865af49081156102e957600091612193575b5061217d5760405163c836244d60e01b815260208180611a9185600483016109d2565b0381865af49081156102e957600091612143575b506121325760408481015151905163855f7e4560e01b81529060208280611acf8960048301610936565b038173__$c0560e63386df2470ca6214f90e7038fc9$__5af49182156102e957600092612111575b5060405192631ccc893360e11b84526040600485015260008480611b33611b216044830186610556565b82810360031901602484015286610556565b0381885af49384156102e957611b69946020916000916120f6575b506040518096819263c836244d60e01b8352600483016109d2565b0381885af49384156102e9576000946120ba575b50600090611b8a8461095b565b60018403611faf5750506040516308c7427760e11b8152602060048201529060008280611bba6024820185610556565b0381885af49182156102e957611bf092602091600091611f94575b506040518094819263c836244d60e01b8352600483016109d2565b0381885af49182156102e957600092611f58575b5081611ed1575b505b611e35575b611c1b8161095b565b15908115611e2d575b50611c3e57505080611c376080926124cb565b0151151590565b6001600160401b0360035460401c166001600160401b03811461098357611cad92611c9160016000930167ffffffffffffffff60401b6003549160401b169067ffffffffffffffff60401b191617600355565b51516040518094819263089032d560e01b8352600483016109d2565b0381845af49182156102e957600092611e10575b50611ccb8261170d565b929015611dff57600383016001600160401b03611cf081835416806060890152610965565b166001600160401b031982541617905560026080850151930191825493840180941161098357611d40936020935560405180809581946304e384ff60e21b83528660048401526024830190610556565b03915af49081156102e957600091611da0575b5060405160208082526001600160a01b03909216927ffdd39ce2560484814971f663392e78ae37dc62ba184b3370d830371dd271a8b7928291611d98918301906118b1565b0390a2600090565b90506020813d602011611df7575b81611dbb602093836103b0565b8101031261035757611d98611df07ffdd39ce2560484814971f663392e78ae37dc62ba184b3370d830371dd271a8b792610478565b9150611d53565b3d9150611dae565b630e991abd60e41b60005260046000fd5b611e269192503d806000833e6102da81836103b0565b9038611cc1565b905038611c24565b8451611e40816107c5565b611e49816107c5565b611c125760405163015538b160e01b815260206004820152604f60248201527f70726f7061676174696f6e206f6620605472616e7366657260206d657373616760448201527f6573206e6f742073757070706f7274656420666f72207375626e65747320776960648201526e746820455243323020737570706c7960881b608482015260a490fd5b611efa915060209060405180938192632cff562160e11b83528460048401526024830190610556565b0381875af480156102e957600090611f1d575b611f1791506121cd565b38611c0b565b506020813d602011611f50575b81611f37602093836103b0565b8101031261035757611f4b611f1791610478565b611f0d565b3d9150611f2a565b9091506020813d602011611f8c575b81611f74602093836103b0565b8101031261035757611f859061075d565b9038611c04565b3d9150611f67565b611fa991503d806000833e6102da81836103b0565b38611bd5565b909150611fbb8361095b565b818315611fca575b5050611c0d565b60405163089032d560e01b81529182908190611fe990600483016109d2565b0381885af49081156120af5782916020916120269491612095575b5060405180948192632cff562160e11b83528460048401526024830190610556565b0381885af490811561208957809161204b575b5061204491506121cd565b3881611fc3565b90506020823d602011612081575b81612066602093836103b0565b81010312611623575061207b61204491610478565b38612039565b3d9150612059565b604051903d90823e3d90fd5b6120a991503d8085833e6102da81836103b0565b38612004565b6040513d84823e3d90fd5b9093506020813d6020116120ee575b816120d6602093836103b0565b81010312610357576120e79061075d565b9238611b7d565b3d91506120c9565b61210b91503d806000833e6102da81836103b0565b38611b4e565b61212b91925060203d6020116113545761134681836103b0565b9038611af7565b632f3335ff60e21b60005260046000fd5b90506020813d602011612175575b8161215e602093836103b0565b810103126103575761216f9061075d565b38611aa5565b3d9150612151565b63bc0f01cf60e01b600052600160045260246000fd5b90506020813d6020116121c5575b816121ae602093836103b0565b81010312610357576121bf9061075d565b38611a6e565b3d91506121a1565b604080516380875df760e01b815291829060049082906001600160a01b03165afa9081156102e957600091612218575b50516122088161095b565b8061221460019261095b565b1490565b612231915060403d6040116111ca576111bc81836103b0565b386121fd565b6013811461153a57601354906001600160401b03821161037f5761225b82826109fe565b6000908152602081207f66de8ffda797e3de9c05e8fc57b3bf0ec28a930d40b0d285d93c06501cf6a09080545b848410612296575050505050565b600191820180546001600160a01b0390921684860155939091019290612288565b805482101561077e57600052600c602060002091020190600090565b8054600160401b81101561037f576122f0916001820181556122b7565b91909161230057610a3291610a6e565b634e487b7160e01b600052600060045260246000fd5b6040519061232382610395565b6060602083600081520152565b6040519061233d82610395565b81612346612316565b81526020612352612316565b910152565b906040519182600082549261236b84610a34565b80845293600181169081156123d75750600114612390575b50610a32925003836103b0565b90506000929192526020600020906000915b8183106123bb575050906020610a329282010138612383565b60209193508060019154838589010152019101909184926123a2565b905060209250610a3294915060ff191682840152151560051b82010138612383565b906040519161240783610395565b602083612413836103d1565b815261073560036040519461242786610395565b60ff600282015416865201612357565b6124418154610a34565b908161244b575050565b81601f6000931160011461245d575055565b8183526020832061247991601f0160051c8101906001016109e7565b8082528160208120915555565b6003610a32916000815560018101805460008255806124af575b50506000600282015501612437565b6124c4916000526020600020908101906109e7565b38806124a0565b60015480156128da57806001600160401b034316046001810180911161098357818102918183041490151715610983576001600160401b036125168160035416806060860152610965565b166001600160401b031960035416176003558060005260246020526040600020906002820180541561289357505060030190815460035460c01c1460001461288a57815461256381610461565b9161257160405193846103b0565b818352601f1961258083610461565b0160005b81811061283d57505060405193606085018581106001600160401b0382111761037f576040526040516125b681610395565b6001600160401b03601254168152604051808160206013549283815201601360005260206000209260005b81811061281b5750506125f6925003826103b0565b6020820152855260208501924384526040860194855260005b8181106127845750437f4ecfe3c1ed32ef0a63d3801d51eb20214db90b14dc5fd1ca58a9de54f16f46a6600080a2600082558061271c575b5090612652916122d3565b80516000526024602052604060002092516001600160401b0380825116166001600160401b0319855416178455602060018501910151908151916001600160401b03831161037f576020906126aa84849897986109fe565b0190600052602060002060005b8381106126ff575050505051600282015581515191600360009201915b8381106126e15750505050565b806126f96126f2600193855161076a565b51856122d3565b016126d4565b82516001600160a01b0316818301556020909201916001016126b7565b80600c0290600c82040361098357816000526020600020908101905b8181106127455750612647565b806000600c925561275860018201612486565b61276460058201612486565b600060098201556000600a82015561277e600b8201612437565b01612738565b8061281481612795600194876122b7565b508951906127ff600b604051926127ab84610364565b60ff8154166127b9816107c5565b84526127c68982016123f9565b60208501526127d7600582016123f9565b60408501526001600160401b036009820154166060850152600a810154608085015201612357565b60a082015261280e838361076a565b5261076a565b500161260f565b84546001600160a01b03168352600194850194869450602090930192016125e1565b60209060405161284c81610364565b60008152612858612330565b83820152612864612330565b60408201526000606082015260006080820152606060a082015282828801015201612584565b610a32916122d3565b91600391610a329493601283036128ac575b55016122d3565b6001600160401b038060125416166001600160401b03198454161783556128d560018401612237565b6128a5565b634e487b7160e01b600052601260045260246000fdfea2646970667358221220fff3e00d0142e2af0c7d0d23a14ab1085f288a3fd023ff284afc713ce42fbf9864736f6c634300081a0033","linkReferences":{"contracts/lib/AccountHelper.sol":{"AccountHelper":[{"start":174,"length":20}]},"contracts/lib/CrossMsgHelper.sol":{"CrossMsgHelper":[{"start":4028,"length":20},{"start":5415,"length":20},{"start":6515,"length":20},{"start":6894,"length":20}]},"contracts/lib/SubnetIDHelper.sol":{"SubnetIDHelper":[{"start":371,"length":20},{"start":3894,"length":20},{"start":5935,"length":20},{"start":6716,"length":20}]}}},"methodIdentifiers":{"applyCrossMessages((uint8,((uint64,address[]),(uint8,bytes)),((uint64,address[]),(uint8,bytes)),uint64,uint256,bytes)[])":"dd8319ee"},"id":16}