{"abi":[{"type":"function","name":"applyCrossMessages","inputs":[{"name":"crossMsgs","type":"tuple[]","internalType":"struct IpcEnvelope[]","components":[{"name":"kind","type":"uint8","internalType":"enum IpcMsgKind"},{"name":"to","type":"tuple","internalType":"struct IPCAddress","components":[{"name":"subnetId","type":"tuple","internalType":"struct SubnetID","components":[{"name":"root","type":"uint64","internalType":"uint64"},{"name":"route","type":"address[]","internalType":"address[]"}]},{"name":"rawAddress","type":"tuple","internalType":"struct FvmAddress","components":[{"name":"addrType","type":"uint8","internalType":"uint8"},{"name":"payload","type":"bytes","internalType":"bytes"}]}]},{"name":"from","type":"tuple","internalType":"struct IPCAddress","components":[{"name":"subnetId","type":"tuple","internalType":"struct SubnetID","components":[{"name":"root","type":"uint64","internalType":"uint64"},{"name":"route","type":"address[]","internalType":"address[]"}]},{"name":"rawAddress","type":"tuple","internalType":"struct FvmAddress","components":[{"name":"addrType","type":"uint8","internalType":"uint8"},{"name":"payload","type":"bytes","internalType":"bytes"}]}]},{"name":"nonce","type":"uint64","internalType":"uint64"},{"name":"value","type":"uint256","internalType":"uint256"},{"name":"message","type":"bytes","internalType":"bytes"}]}],"outputs":[],"stateMutability":"nonpayable"},{"type":"event","name":"NewBottomUpMsgBatch","inputs":[{"name":"epoch","type":"uint256","indexed":true,"internalType":"uint256"}],"anonymous":false},{"type":"event","name":"NewTopDownMessage","inputs":[{"name":"subnet","type":"address","indexed":true,"internalType":"address"},{"name":"message","type":"tuple","indexed":false,"internalType":"struct IpcEnvelope","components":[{"name":"kind","type":"uint8","internalType":"enum IpcMsgKind"},{"name":"to","type":"tuple","internalType":"struct IPCAddress","components":[{"name":"subnetId","type":"tuple","internalType":"struct SubnetID","components":[{"name":"root","type":"uint64","internalType":"uint64"},{"name":"route","type":"address[]","internalType":"address[]"}]},{"name":"rawAddress","type":"tuple","internalType":"struct FvmAddress","components":[{"name":"addrType","type":"uint8","internalType":"uint8"},{"name":"payload","type":"bytes","internalType":"bytes"}]}]},{"name":"from","type":"tuple","internalType":"struct IPCAddress","components":[{"name":"subnetId","type":"tuple","internalType":"struct SubnetID","components":[{"name":"root","type":"uint64","internalType":"uint64"},{"name":"route","type":"address[]","internalType":"address[]"}]},{"name":"rawAddress","type":"tuple","internalType":"struct FvmAddress","components":[{"name":"addrType","type":"uint8","internalType":"uint8"},{"name":"payload","type":"bytes","internalType":"bytes"}]}]},{"name":"nonce","type":"uint64","internalType":"uint64"},{"name":"value","type":"uint256","internalType":"uint256"},{"name":"message","type":"bytes","internalType":"bytes"}]}],"anonymous":false},{"type":"error","name":"CannotSendCrossMsgToItself","inputs":[]},{"type":"error","name":"InvalidXnetMessage","inputs":[{"name":"reason","type":"uint8","internalType":"enum InvalidXnetMessageReason"}]},{"type":"error","name":"MethodNotAllowed","inputs":[{"name":"reason","type":"string","internalType":"string"}]},{"type":"error","name":"NotRegisteredSubnet","inputs":[]},{"type":"error","name":"NotSystemActor","inputs":[]}],"bytecode":{"object":"0x6080604052348015600f57600080fd5b506132ed8061001f6000396000f3fe608060405234801561001057600080fd5b506004361061002b5760003560e01c8063dd8319ee14610030575b600080fd5b61004361003e3660046123c7565b610045565b005b61004d610155565b604080518082018252601280546001600160401b0316825260138054845160208281028201810190965281815261015195808601939192908301828280156100be57602002820191906000526020600020905b81546001600160a01b031681526001909101906020018083116100a0575b5050509190925250506040516308c7427760e11b815273__$3fbe32418a9ca7804328967972fb037388$__9263118e84ee92506100fd916004016124a7565b600060405180830381865af415801561011a573d6000803e3d6000fd5b505050506040513d6000823e601f3d908101601f191682016040526101429190810190612669565b61014c83856128be565b6101e7565b5050565b604051635d3f8a6960e01b815233600482015273__$32813765d87f0bbc231ef494a6a627f37b$__90635d3f8a6990602401602060405180830381865af41580156101a4573d6000803e3d6000fd5b505050506040513d601f19601f820116820180604052508101906101c891906129f4565b6101e55760405163f0d97f3b60e01b815260040160405180910390fd5b565b805160005b8181101561021f576102178484838151811061020a5761020a612a0f565b6020026020010151610225565b6001016101ec565b50505050565b602081015151604051630c133d1360e31b815260009173__$3fbe32418a9ca7804328967972fb037388$__91636099e89891610263916004016124a7565b602060405180830381865af4158015610280573d6000803e3d6000fd5b505050506040513d601f19601f820116820180604052508101906102a491906129f4565b156103055761030082600163bc0f01cf60e01b60016040516024016102c99190612a3b565b60408051601f198184030181529190526020810180516001600160e01b03166001600160e01b0319909316929092179091526108e4565b505050565b604080518082019091526000808252602082015260405163855f7e4560e01b815260009073__$c0560e63386df2470ca6214f90e7038fc9$__9063855f7e45906103589087906012880190600401612be3565b602060405180830381865af4158015610375573d6000803e3d6000fd5b505050506040513d601f19601f820116820180604052508101906103999190612c15565b905060018160018111156103af576103af612a25565b036105b9576000806103c08761099f565b91509150816103d25750505050505050565b60608601516003820154600160401b90046001600160401b0390811691161461041e5761041586600163bc0f01cf60e01b60026040516024016102c99190612a3b565b50505050505050565b60018160030160088282829054906101000a90046001600160401b03166104459190612c48565b82546101009290920a6001600160401b0381810219909316918316021790915560408051808201825260048501805490931681526005850180548351602080830282018101909552818152929550838601938301828280156104d057602002820191906000526020600020905b81546001600160a01b031681526001909101906020018083116104b2575b505050919092525050604051632cff562160e11b815273__$3fbe32418a9ca7804328967972fb037388$__926359feac42925061050f916004016124a7565b602060405180830381865af415801561052c573d6000803e3d6000fd5b505050506040513d601f19601f820116820180604052508101906105509190612c67565b6001600160a01b03166380875df76040518163ffffffff1660e01b81526004016040805180830381865afa15801561058c573d6000803e3d6000fd5b505050506040513d601f19601f820116820180604052508101906105b09190612c84565b93505050610695565b60008160018111156105cd576105cd612a25565b036106955760608401516003840154600160401b90046001600160401b0390811691161461061c5761061584600163bc0f01cf60e01b60026040516024016102c99190612a3b565b5050505050565b60018360030160088282829054906101000a90046001600160401b03166106439190612c48565b92506101000a8154816001600160401b0302191690836001600160401b031602179055506106926040805180820182526000808252602091820181905282518084019093528083529082015290565b91505b60208401515160405163c836244d60e01b815273__$3fbe32418a9ca7804328967972fb037388$__9163c836244d916106d691906012880190600401612cc7565b602060405180830381865af41580156106f3573d6000803e3d6000fd5b505050506040513d601f19601f8201168201806040525081019061071791906129f4565b6108b457600061072685610b33565b60008181526022860160205260409020865181549293508792829060ff1916600183600281111561075957610759612a25565b0217905550602082810151805180516001850180546001600160401b0319166001600160401b039092169190911781558184015180519394919384926107a692600289019291019061213f565b505050602082810151805160028401805460ff191660ff9092169190911781559181015190919060038401906107dc9082612d5b565b505050506040830151805180516005850180546001600160401b0319166001600160401b0390921691909117815560208083015180519495509193849261082a92600689019291019061213f565b505050602082810151805160028401805460ff191660ff9092169190911781559181015190919060038401906108609082612d5b565b5050505060608301516009830180546001600160401b0319166001600160401b03909216919091179055506080820151600a82015560a0820151600b8201906108a99082612d5b565b505050505050505050565b6000806108c18685610b63565b9150915081156108dc576108d7866000836108e4565b610415565b610415866002835b6108ed83610c4a565b156108f757505050565b60028351600281111561090c5761090c612a25565b0361091657505050565b604051634dbefc2d60e11b815261021f9073__$c0560e63386df2470ca6214f90e7038fc9$__90639b7df85a9061095590879087908790600401612e19565b600060405180830381865af4158015610972573d6000803e3d6000fd5b505050506040513d6000823e601f3d908101601f1916820160405261099a9190810190612f61565b610c78565b6040516390ba52cf60e01b815260009081908190602090829073__$3fbe32418a9ca7804328967972fb037388$__906390ba52cf906109e29089906004016124a7565b602060405180830381865af41580156109ff573d6000803e3d6000fd5b505050506040513d601f19601f82011682018060405250810190610a239190613052565b81526020808201929092526040908101600020815180830183526004820180546001600160401b031682526005830180548551818802810188019096528086529397509194909385820193909291830182828015610aaa57602002820191906000526020600020905b81546001600160a01b03168152600190910190602001808311610a8c575b505050919092525050604051630c133d1360e31b815273__$3fbe32418a9ca7804328967972fb037388$__92636099e8989250610ae9916004016124a7565b602060405180830381865af4158015610b06573d6000803e3d6000fd5b505050506040513d601f19601f82011682018060405250810190610b2a91906129f4565b15925050915091565b600081604051602001610b469190613156565b604051602081830303815290604052805190602001209050919050565b6000606073__$c0560e63386df2470ca6214f90e7038fc9$__6001600160a01b0316633f74f18860e01b8585604051602401610ba0929190613169565b60408051601f198184030181529181526020820180516001600160e01b03166001600160e01b0319909416939093179092529051610bde91906131b2565b600060405180830381855af49150503d8060008114610c19576040519150601f19603f3d011682016040523d82523d6000602084013e610c1e565b606091505b5090925090508115610c435780806020019051810190610c3e91906131ce565b915091505b9250929050565b60008082516002811115610c6057610c60612a25565b03610c6e5750608001511590565b5060a00151511590565b602081015151604051630c133d1360e31b8152600091829173__$3fbe32418a9ca7804328967972fb037388$__90636099e89890610cba9084906004016124a7565b602060405180830381865af4158015610cd7573d6000803e3d6000fd5b505050506040513d601f19601f82011682018060405250810190610cfb91906129f4565b15610d2557600160405163bc0f01cf60e01b8152600401610d1c9190612a3b565b60405180910390fd5b60405163c836244d60e01b815273__$3fbe32418a9ca7804328967972fb037388$__9063c836244d90610d619084906012870190600401612cc7565b602060405180830381865af4158015610d7e573d6000803e3d6000fd5b505050506040513d601f19601f82011682018060405250810190610da291906129f4565b15610dc057604051632f3335ff60e21b815260040160405180910390fd5b60408085015151905163855f7e4560e01b815260009073__$c0560e63386df2470ca6214f90e7038fc9$__9063855f7e4590610e059089906012890190600401612be3565b602060405180830381865af4158015610e22573d6000803e3d6000fd5b505050506040513d601f19601f82011682018060405250810190610e469190612c15565b604051631ccc893360e11b815290915060009073__$3fbe32418a9ca7804328967972fb037388$__90633999126690610e85908790879060040161321b565b600060405180830381865af4158015610ea2573d6000803e3d6000fd5b505050506040513d6000823e601f3d908101601f19168201604052610eca9190810190612669565b60405163c836244d60e01b815273__$3fbe32418a9ca7804328967972fb037388$__9163c836244d91610f05919060128a0190600401612cc7565b602060405180830381865af4158015610f22573d6000803e3d6000fd5b505050506040513d601f19601f82011682018060405250810190610f4691906129f4565b905060006001836001811115610f5e57610f5e612a25565b036110f7576040516308c7427760e11b815273__$3fbe32418a9ca7804328967972fb037388$__9063118e84ee90610f9a9087906004016124a7565b600060405180830381865af4158015610fb7573d6000803e3d6000fd5b505050506040513d6000823e601f3d908101601f19168201604052610fdf9190810190612669565b60405163c836244d60e01b815273__$3fbe32418a9ca7804328967972fb037388$__9163c836244d9161101a919060128b0190600401612cc7565b602060405180830381865af4158015611037573d6000803e3d6000fd5b505050506040513d601f19601f8201168201806040525081019061105b91906129f4565b80156110f05750604051632cff562160e11b81526110f09060019073__$3fbe32418a9ca7804328967972fb037388$__906359feac42906110a09089906004016124a7565b602060405180830381865af41580156110bd573d6000803e3d6000fd5b505050506040513d601f19601f820116820180604052508101906110e19190612c67565b6001600160a01b031690611313565b90506111d1565b600083600181111561110b5761110b612a25565b036111d15760405163089032d560e01b81526111ce9060019073__$3fbe32418a9ca7804328967972fb037388$__9063089032d590611153908a9060128d0190600401612cc7565b600060405180830381865af4158015611170573d6000803e3d6000fd5b505050506040513d6000823e601f3d908101601f191682016040526111989190810190612669565b604051632cff562160e11b815273__$3fbe32418a9ca7804328967972fb037388$__916359feac42916110a091906004016124a7565b90505b8015611278576000885160028111156111ec576111ec612a25565b036112785760405163015538b160e01b815260206004820152604f60248201527f70726f7061676174696f6e206f6620605472616e7366657260206d657373616760448201527f6573206e6f742073757070706f7274656420666f72207375626e65747320776960648201526e746820455243323020737570706c7960881b608482015260a401610d1c565b600083600181111561128c5761128c612a25565b14806112955750815b156112f7576003860180546008906112bc90600160401b90046001600160401b0316613240565b91906101000a8154816001600160401b0302191690836001600160401b031602179055506112e9886113a4565b506000979650505050505050565b6113008861157d565b5050506080909401511515949350505050565b600081600181111561132757611327612a25565b836001600160a01b03166380875df76040518163ffffffff1660e01b81526004016040805180830381865afa158015611364573d6000803e3d6000fd5b505050506040513d601f19601f820116820180604052508101906113889190612c84565b51600181111561139a5761139a612a25565b1490505b92915050565b60208101515160405163089032d560e01b8152600091829173__$3fbe32418a9ca7804328967972fb037388$__9163089032d5916113e89190601290600401612cc7565b600060405180830381865af4158015611405573d6000803e3d6000fd5b505050506040513d6000823e601f3d908101601f1916820160405261142d9190810190612669565b905060008061143b8361099f565b915091508161145d57604051630e991abd60e41b815260040160405180910390fd5b60038101546001600160401b03166060860181905261147d816001612c48565b6003830180546001600160401b0319166001600160401b039290921691909117905560808601516002830180546000906114b890849061326b565b90915550506040516304e384ff60e21b815273__$3fbe32418a9ca7804328967972fb037388$__9063138e13fc906114f49087906004016124a7565b602060405180830381865af4158015611511573d6000803e3d6000fd5b505050506040513d601f19601f820116820180604052508101906115359190612c67565b6001600160a01b03167ffdd39ce2560484814971f663392e78ae37dc62ba184b3370d830371dd271a8b78760405161156d9190613156565b60405180910390a2505050505050565b60008061158e438360010154611edf565b6003830180546001600160401b0316606086018190529192506001916000906115b8908490612c48565b92506101000a8154816001600160401b0302191690836001600160401b031602179055506000806115fb8360009081526024602052604090206002810154151591565b91509150816117df5760128401805482546001600160401b0319166001600160401b03909116178255601385018054839161163b916001840191906121a4565b505050600280820184905560038201805460018181018355600092835260209092208851600c90920201805489949193849260ff1990921691849081111561168557611685612a25565b0217905550602082810151805180516001850180546001600160401b0319166001600160401b039092169190911781558184015180519394919384926116d292600289019291019061213f565b505050602082810151805160028401805460ff191660ff9092169190911781559181015190919060038401906117089082612d5b565b505050506040830151805180516005850180546001600160401b0319166001600160401b0390921691909117815560208083015180519495509193849261175692600689019291019061213f565b505050602082810151805160028401805460ff191660ff90921691909117815591810151909190600384019061178c9082612d5b565b5050505060608301516009830180546001600160401b0319166001600160401b03909216919091179055506080820151600a82015560a0820151600b8201906117d59082612d5b565b5050505050505050565b60038481015490820154600160c01b9091046001600160401b03169003611ea0576040805160a0810182526012860180546001600160401b0316606083019081526013880180548551602082810282018101909752818152439660009695869594909360808701939283018282801561188157602002820191906000526020600020905b81546001600160a01b03168152600190910190602001808311611863575b505050505081525050815260200183815260200184600301805490506001600160401b038111156118b4576118b46124ba565b6040519080825280602002602001820160405280156118ed57816020015b6118da6121e4565b8152602001906001900390816118d25790505b509052600384015490915060005b81811015611cc35784600301818154811061191857611918612a0f565b600091825260209091206040805160c08101909152600c909202018054829060ff16600281111561194b5761194b612a25565b600281111561195c5761195c612a25565b8152604080516080810182526001840180546001600160401b03168284019081526002860180548551602082810282018101909752818152968601969495939486948693606087019390918301828280156119e057602002820191906000526020600020905b81546001600160a01b031681526001909101906020018083116119c2575b5050509190925250505081526040805180820190915260028301805460ff16825260038401805460209485019484019190611a1a90612cda565b80601f0160208091040260200160405190810160405280929190818152602001828054611a4690612cda565b8015611a935780601f10611a6857610100808354040283529160200191611a93565b820191906000526020600020905b815481529060010190602001808311611a7657829003601f168201915b505050919092525050509052508152604080516080810182526005840180546001600160401b0316828401908152600686018054855160208281028201810190975281815296860196949593948694869360608701939091830182828015611b2457602002820191906000526020600020905b81546001600160a01b03168152600190910190602001808311611b06575b5050509190925250505081526040805180820190915260028301805460ff16825260038401805460209485019484019190611b5e90612cda565b80601f0160208091040260200160405190810160405280929190818152602001828054611b8a90612cda565b8015611bd75780601f10611bac57610100808354040283529160200191611bd7565b820191906000526020600020905b815481529060010190602001808311611bba57829003601f168201915b50505091909252505050905250815260098201546001600160401b03166020820152600a8201546040820152600b82018054606090920191611c1890612cda565b80601f0160208091040260200160405190810160405280929190818152602001828054611c4490612cda565b8015611c915780601f10611c6657610100808354040283529160200191611c91565b820191906000526020600020905b815481529060010190602001808311611c7457829003601f168201915b50505050508152505083604001518281518110611cb057611cb0612a0f565b60209081029190910101526001016118fb565b5060405183907f4ecfe3c1ed32ef0a63d3801d51eb20214db90b14dc5fd1ca58a9de54f16f46a690600090a2611cfd600385016000612225565b60038401805460018181018355600092835260209092208a51600c9092020180548b93919291839160ff191690836002811115611d3c57611d3c612a25565b0217905550602082810151805180516001850180546001600160401b0319166001600160401b03909216919091178155818401518051939491938492611d8992600289019291019061213f565b505050602082810151805160028401805460ff191660ff909216919091178155918101519091906003840190611dbf9082612d5b565b505050506040830151805180516005850180546001600160401b0319166001600160401b03909216919091178155602080830151805194955091938492611e0d92600689019291019061213f565b505050602082810151805160028401805460ff191660ff909216919091178155918101519091906003840190611e439082612d5b565b5050505060608301516009830180546001600160401b0319166001600160401b03909216919091179055506080820151600a82015560a0820151600b820190611e8c9082612d5b565b505050611e9882611f11565b505050610615565b60038101805460018181018355600092835260209092208751600c9092020180548893919291839160ff19169083600281111561168557611685612a25565b600081611ef5816001600160401b03861661327e565b611f0090600161326b565b611f0a91906132a0565b9392505050565b602081810151600090815260248252604081208351805182546001600160401b0319166001600160401b039091161782558084015180519394929391928492611f60926001850192019061213f565b5050506020830151600282015560408301515160005b81811015610615578260030185604001518281518110611f9857611f98612a0f565b6020908102919091018101518254600181810185556000948552929093208151600c909402018054919390929091839160ff1990911690836002811115611fe157611fe1612a25565b0217905550602082810151805180516001850180546001600160401b0319166001600160401b0390921691909117815581840151805193949193849261202e92600289019291019061213f565b505050602082810151805160028401805460ff191660ff9092169190911781559181015190919060038401906120649082612d5b565b505050506040830151805180516005850180546001600160401b0319166001600160401b039092169190911781556020808301518051949550919384926120b292600689019291019061213f565b505050602082810151805160028401805460ff191660ff9092169190911781559181015190919060038401906120e89082612d5b565b5050505060608301516009830180546001600160401b0319166001600160401b03909216919091179055506080820151600a82015560a0820151600b8201906121319082612d5b565b505050806001019050611f76565b828054828255906000526020600020908101928215612194579160200282015b8281111561219457825182546001600160a01b0319166001600160a01b0390911617825560209092019160019091019061215f565b506121a0929150612249565b5090565b8280548282559060005260206000209081019282156121945760005260206000209182015b828111156121945782548255916001019190600101906121c9565b6040805160c0810190915280600081526020016121ff61225e565b815260200161220c61225e565b8152600060208201819052604082015260609081015290565b50805460008255600c029060005260206000209081019061224691906122a3565b50565b5b808211156121a0576000815560010161224a565b604080516080810182526000918101918252606080820152908190815260200161229e6040518060400160405280600060ff168152602001606081525090565b905290565b808211156121a057805460ff191681556001810180546001600160401b03191681556000908181816122d8600287018261236f565b505060028201805460ff1916815560006122f5600385018261238d565b505050506005820180546001600160401b03191681556000818161231c600687018261236f565b505060028201805460ff191681556000612339600385018261238d565b505050506009820180546001600160401b03191690556000600a830181905561236690600b84019061238d565b50600c016122a3565b50805460008255906000526020600020908101906122469190612249565b50805461239990612cda565b6000825580601f106123a9575050565b601f0160209004906000526020600020908101906122469190612249565b600080602083850312156123da57600080fd5b82356001600160401b038111156123f057600080fd5b8301601f8101851361240157600080fd5b80356001600160401b0381111561241757600080fd5b8560208260051b840101111561242c57600080fd5b6020919091019590945092505050565b6000604083016001600160401b038351168452602083015160406020860152818151808452606087019150602083019350600092505b8083101561249d5783516001600160a01b031682526020938401936001939093019290910190612472565b5095945050505050565b602081526000611f0a602083018461243c565b634e487b7160e01b600052604160045260246000fd5b604080519081016001600160401b03811182821017156124f2576124f26124ba565b60405290565b60405160c081016001600160401b03811182821017156124f2576124f26124ba565b604051601f8201601f191681016001600160401b0381118282101715612542576125426124ba565b604052919050565b6001600160401b038116811461224657600080fd5b805161256a8161254a565b919050565b60006001600160401b03821115612588576125886124ba565b5060051b60200190565b6001600160a01b038116811461224657600080fd5b6000604082840312156125b957600080fd5b6125c16124d0565b905081516125ce8161254a565b815260208201516001600160401b038111156125e957600080fd5b8201601f810184136125fa57600080fd5b805161260d6126088261256f565b61251a565b8082825260208201915060208360051b85010192508683111561262f57600080fd5b6020840193505b8284101561265a57835161264981612592565b825260209384019390910190612636565b60208501525091949350505050565b60006020828403121561267b57600080fd5b81516001600160401b0381111561269157600080fd5b61269d848285016125a7565b949350505050565b6003811061224657600080fd5b803561256a816126a5565b803561256a8161254a565b60ff8116811461224657600080fd5b60006001600160401b038211156126f0576126f06124ba565b50601f01601f191660200190565b600082601f83011261270f57600080fd5b813561271d612608826126d7565b81815284602083860101111561273257600080fd5b816020850160208301376000918101602001919091529392505050565b60006040828403121561276157600080fd5b6127696124d0565b90508135612776816126c8565b815260208201356001600160401b0381111561279157600080fd5b61279d848285016126fe565b60208301525092915050565b6000604082840312156127bb57600080fd5b6127c36124d0565b905081356001600160401b038111156127db57600080fd5b8201604081850312156127ed57600080fd5b6127f56124d0565b81356128008161254a565b815260208201356001600160401b0381111561281b57600080fd5b80830192505084601f83011261283057600080fd5b813561283e6126088261256f565b8082825260208201915060208360051b86010192508783111561286057600080fd5b6020850194505b8285101561288b57843561287a81612592565b825260209485019490910190612867565b806020850152505050808352505060208201356001600160401b038111156128b257600080fd5b61279d8482850161274f565b60006128cc6126088461256f565b8381526020810190600585901b8401368111156128e857600080fd5b845b818110156129d95780356001600160401b0381111561290857600080fd5b860160c036829003121561291b57600080fd5b6129236124f8565b61292c826126b2565b815260208201356001600160401b0381111561294757600080fd5b612953368285016127a9565b60208301525060408201356001600160401b0381111561297257600080fd5b61297e368285016127a9565b604083015250612990606083016126bd565b60608201526080828101359082015260a08201356001600160401b038111156129b857600080fd5b6129c4368285016126fe565b60a083015250855250602093840193016128ea565b509095945050505050565b8051801515811461256a57600080fd5b600060208284031215612a0657600080fd5b611f0a826129e4565b634e487b7160e01b600052603260045260246000fd5b634e487b7160e01b600052602160045260246000fd5b6020810160058310612a4f57612a4f612a25565b91905290565b6003811061224657612246612a25565b60005b83811015612a80578181015183820152602001612a68565b50506000910152565b60008151808452612aa1816020860160208601612a65565b601f01601f19169290920160200192915050565b6000815160408452612aca604085018261243c565b90506020830151848203602086015260ff81511682526020810151905060406020830152612afb6040830182612a89565b95945050505050565b60008151612b1181612a55565b80845250602082015160c06020850152612b2e60c0850182612ab5565b905060408301518482036040860152612b478282612ab5565b9150506001600160401b0360608401511660608501526080830151608085015260a083015184820360a0860152612afb8282612a89565b6000604083016001600160401b03835416845260018301604060208601528181548084526060870191508260005260206000209350600092505b8083101561249d5783546001600160a01b031682526001938401939290920191602090910190612bb8565b604081526000612bf66040830185612b04565b8281036020840152612afb8185612b7e565b6002811061224657600080fd5b600060208284031215612c2757600080fd5b8151611f0a81612c08565b634e487b7160e01b600052601160045260246000fd5b6001600160401b03818116838216019081111561139e5761139e612c32565b600060208284031215612c7957600080fd5b8151611f0a81612592565b60006040828403128015612c9757600080fd5b50612ca06124d0565b8251612cab81612c08565b81526020830151612cbb81612592565b60208201529392505050565b604081526000612bf6604083018561243c565b600181811c90821680612cee57607f821691505b602082108103612d0e57634e487b7160e01b600052602260045260246000fd5b50919050565b601f82111561030057806000526020600020601f840160051c81016020851015612d3b5750805b601f840160051c820191505b818110156106155760008155600101612d47565b81516001600160401b03811115612d7457612d746124ba565b612d8881612d828454612cda565b84612d14565b6020601f821160018114612dbc5760008315612da45750848201515b600019600385901b1c1916600184901b178455610615565b600084815260208120601f198516915b82811015612dec5787850151825560209485019460019092019101612dcc565b5084821015612e0a5786840151600019600387901b60f8161c191681555b50505050600190811b01905550565b606081526000612e2c6060830186612b04565b612e3585612a55565b8460208401528281036040840152612e4d8185612a89565b9695505050505050565b805161256a816126a5565b600082601f830112612e7357600080fd5b8151612e81612608826126d7565b818152846020838601011115612e9657600080fd5b61269d826020830160208701612a65565b600060408284031215612eb957600080fd5b612ec16124d0565b905081516001600160401b03811115612ed957600080fd5b612ee5848285016125a7565b82525060208201516001600160401b03811115612f0157600080fd5b820160408185031215612f1357600080fd5b612f1b6124d0565b8151612f26816126c8565b815260208201516001600160401b03811115612f4157600080fd5b612f4d86828501612e62565b602083015250806020840152505092915050565b600060208284031215612f7357600080fd5b81516001600160401b03811115612f8957600080fd5b820160c08185031215612f9b57600080fd5b612fa36124f8565b612fac82612e57565b815260208201516001600160401b03811115612fc757600080fd5b612fd386828501612ea7565b60208301525060408201516001600160401b03811115612ff257600080fd5b612ffe86828501612ea7565b6040830152506130106060830161255f565b60608201526080828101519082015260a08201516001600160401b0381111561303857600080fd5b61304486828501612e62565b60a083015250949350505050565b60006020828403121561306457600080fd5b5051919050565b60ff8151168252600060208201516040602085015261269d6040850182612a89565b6000815160408452608084016001600160401b038251166040860152602082015191506040606086015280825180835260a087019150602084019350600092505b808310156130f95783516001600160a01b0316825260209384019360019390930192909101906130ce565b50602085015192508581036020870152612e4d818461306b565b6000815161312081612a55565b80845250602082015160c0602085015261313d60c085018261308d565b905060408301518482036040860152612b47828261308d565b602081526000611f0a6020830184613113565b60608152600061317c6060830185613113565b905082516002811061319057613190612a25565b60208381019190915292909201516001600160a01b0316604090910152919050565b600082516131c4818460208701612a65565b9190910192915050565b600080604083850312156131e157600080fd5b6131ea836129e4565b915060208301516001600160401b0381111561320557600080fd5b61321185828601612e62565b9150509250929050565b60408152600061322e604083018561243c565b8281036020840152612afb818561243c565b60006001600160401b0382166001600160401b03810361326257613262612c32565b60010192915050565b8082018082111561139e5761139e612c32565b60008261329b57634e487b7160e01b600052601260045260246000fd5b500490565b808202811582820484141761139e5761139e612c3256fea26469706673582212203cbae8189313b084fea75c51c699d3f1c9815acfa6df520486d6c658c710155164736f6c634300081a0033","linkReferences":{"contracts/lib/AccountHelper.sol":{"AccountHelper":[{"start":393,"length":20}]},"contracts/lib/CrossMsgHelper.sol":{"CrossMsgHelper":[{"start":842,"length":20},{"start":2376,"length":20},{"start":2952,"length":20},{"start":3575,"length":20}]},"contracts/lib/SubnetIDHelper.sol":{"SubnetIDHelper":[{"start":245,"length":20},{"start":604,"length":20},{"start":1287,"length":20},{"start":1737,"length":20},{"start":2521,"length":20},{"start":2785,"length":20},{"start":3249,"length":20},{"start":3411,"length":20},{"start":3706,"length":20},{"start":3832,"length":20},{"start":3985,"length":20},{"start":4109,"length":20},{"start":4247,"length":20},{"start":4421,"length":20},{"start":4550,"length":20},{"start":5085,"length":20},{"start":5355,"length":20}]}}},"methodIdentifiers":{"applyCrossMessages((uint8,((uint64,address[]),(uint8,bytes)),((uint64,address[]),(uint8,bytes)),uint64,uint256,bytes)[])":"dd8319ee"},"id":16}