{"abi":[{"type":"function","name":"diamondCut","inputs":[{"name":"_diamondCut","type":"tuple[]","internalType":"struct IDiamond.FacetCut[]","components":[{"name":"facetAddress","type":"address","internalType":"address"},{"name":"action","type":"uint8","internalType":"enum IDiamond.FacetCutAction"},{"name":"functionSelectors","type":"bytes4[]","internalType":"bytes4[]"}]},{"name":"_init","type":"address","internalType":"address"},{"name":"_calldata","type":"bytes","internalType":"bytes"}],"outputs":[],"stateMutability":"nonpayable"},{"type":"event","name":"DiamondCut","inputs":[{"name":"_diamondCut","type":"tuple[]","indexed":false,"internalType":"struct IDiamond.FacetCut[]","components":[{"name":"facetAddress","type":"address","internalType":"address"},{"name":"action","type":"uint8","internalType":"enum IDiamond.FacetCutAction"},{"name":"functionSelectors","type":"bytes4[]","internalType":"bytes4[]"}]},{"name":"_init","type":"address","indexed":false,"internalType":"address"},{"name":"_calldata","type":"bytes","indexed":false,"internalType":"bytes"}],"anonymous":false},{"type":"error","name":"CannotAddFunctionToDiamondThatAlreadyExists","inputs":[{"name":"_selector","type":"bytes4","internalType":"bytes4"}]},{"type":"error","name":"CannotAddSelectorsToZeroAddress","inputs":[{"name":"_selectors","type":"bytes4[]","internalType":"bytes4[]"}]},{"type":"error","name":"CannotRemoveFunctionThatDoesNotExist","inputs":[{"name":"_selector","type":"bytes4","internalType":"bytes4"}]},{"type":"error","name":"CannotRemoveImmutableFunction","inputs":[{"name":"_selector","type":"bytes4","internalType":"bytes4"}]},{"type":"error","name":"CannotReplaceFunctionThatDoesNotExists","inputs":[{"name":"_selector","type":"bytes4","internalType":"bytes4"}]},{"type":"error","name":"CannotReplaceFunctionWithTheSameFunctionFromTheSameFacet","inputs":[{"name":"_selector","type":"bytes4","internalType":"bytes4"}]},{"type":"error","name":"CannotReplaceFunctionsFromFacetWithZeroAddress","inputs":[{"name":"_selectors","type":"bytes4[]","internalType":"bytes4[]"}]},{"type":"error","name":"CannotReplaceImmutableFunction","inputs":[{"name":"_selector","type":"bytes4","internalType":"bytes4"}]},{"type":"error","name":"IncorrectFacetCutAction","inputs":[{"name":"_action","type":"uint8","internalType":"enum IDiamond.FacetCutAction"}]},{"type":"error","name":"InitializationFunctionReverted","inputs":[{"name":"_initializationContractAddress","type":"address","internalType":"address"},{"name":"_calldata","type":"bytes","internalType":"bytes"}]},{"type":"error","name":"NoBytecodeAtAddress","inputs":[{"name":"_contractAddress","type":"address","internalType":"address"},{"name":"_message","type":"string","internalType":"string"}]},{"type":"error","name":"NoSelectorsProvidedForFacetForCut","inputs":[{"name":"_facetAddress","type":"address","internalType":"address"}]},{"type":"error","name":"NotOwner","inputs":[]},{"type":"error","name":"RemoveFacetAddressMustBeZeroAddress","inputs":[{"name":"_facetAddress","type":"address","internalType":"address"}]}],"bytecode":{"object":"0x6080604052348015600f57600080fd5b50610f638061001f6000396000f3fe608060405234801561001057600080fd5b506004361061002b5760003560e01c80631f931c1c14610030575b600080fd5b61004361003e366004610961565b610045565b005b61004d61009e565b61009761005a8587610aae565b8484848080601f0160208091040260200160405190810160405280939291908181526020018383808284376000920191909152506100db92505050565b5050505050565b600080516020610f0e833981519152600301546001600160a01b031633146100d9576040516330cd747160e01b815260040160405180910390fd5b565b825160005b818110156102285760008582815181106100fc576100fc610bf2565b6020026020010151604001519050600086838151811061011e5761011e610bf2565b6020026020010151600001519050815160000361015e5760405163e767f91f60e01b81526001600160a01b03821660048201526024015b60405180910390fd5b600087848151811061017257610172610bf2565b60200260200101516020015190506000600281111561019357610193610c08565b8160028111156101a5576101a5610c08565b036101b9576101b48284610274565b61021a565b60018160028111156101cd576101cd610c08565b036101dc576101b48284610427565b60028160028111156101f0576101f0610c08565b036101ff576101b4828461058d565b80604051633ff4d20f60e11b81526004016101559190610c40565b8360010193505050506100e0565b507f8faa70878671ccd212d20771b795c50af8fd3ff6cf27f4bde57e5d4de0aeb67384848460405161025c93929190610ca4565b60405180910390a161026e8383610809565b50505050565b6001600160a01b03821661029d57806040516302b8da0760e21b81526004016101559190610d9c565b7f806e0cbb9fce296bbc336a48f42bf1dbc69722d18d90d6fe705b7582c2bb4bd35460408051606081019091526021808252600080516020610f0e83398151915292916102f491869190610ec560208301396108cf565b825160005b8181101561041f57600085828151811061031557610315610bf2565b6020908102919091018101516001600160e01b031981166000908152918790526040909120549091506001600160a01b03168015610368578160405163ebbf5d0760e01b81526004016101559190610dde565b6040805180820182526001600160a01b03808b16825261ffff80891660208085019182526001600160e01b0319881660009081528c8252958620945185549251909316600160a01b026001600160b01b0319909216929093169190911717909155600180890180549182018155835291206008820401805460e085901c60046007909416939093026101000a92830263ffffffff909302191691909117905561041085610e09565b945082600101925050506102f9565b505050505050565b600080516020610f0e8339815191526001600160a01b03831661045f578160405163cd98a96f60e01b81526004016101559190610d9c565b61048183604051806060016040528060288152602001610ee6602891396108cf565b815160005b818110156100975760008482815181106104a2576104a2610bf2565b6020908102919091018101516001600160e01b031981166000908152918690526040909120549091506001600160a01b03163081036104f65781604051632901806d60e11b81526004016101559190610dde565b866001600160a01b0316816001600160a01b03160361052a5781604051631ac6ce8d60e11b81526004016101559190610dde565b6001600160a01b0381166105535781604051637479f93960e01b81526004016101559190610dde565b506001600160e01b031916600090815260208490526040902080546001600160a01b0319166001600160a01b038716179055600101610486565b7f806e0cbb9fce296bbc336a48f42bf1dbc69722d18d90d6fe705b7582c2bb4bd354600080516020610f0e833981519152906001600160a01b038416156105f25760405163d091bc8160e01b81526001600160a01b0385166004820152602401610155565b825160005b8181101561041f57600085828151811061061357610613610bf2565b6020908102919091018101516001600160e01b0319811660009081528783526040908190208151808301909252546001600160a01b038116808352600160a01b90910461ffff1693820193909352909250906106845781604051637a08a22d60e01b81526004016101559190610dde565b8051306001600160a01b03909116036106b25781604051630df5fd6160e31b81526004016101559190610dde565b6106bb85610e2a565b945084816020015161ffff16146107985760008660010186815481106106e3576106e3610bf2565b90600052602060002090600891828204019190066004029054906101000a900460e01b90508087600101836020015161ffff168154811061072657610726610bf2565b600091825260208083206008830401805463ffffffff60079094166004026101000a938402191660e09590951c92909202939093179055838201516001600160e01b03199390931681529088905260409020805461ffff60a01b1916600160a01b61ffff909316929092029190911790555b856001018054806107ab576107ab610e41565b60008281526020808220600860001990940193840401805463ffffffff600460078716026101000a0219169055919092556001600160e01b0319909316815291869052506040902080546001600160b01b03191690556001016105f7565b6001600160a01b03821661081b575050565b61083d82604051806060016040528060258152602001610ea0602591396108cf565b600080836001600160a01b0316836040516108589190610e57565b600060405180830381855af49150503d8060008114610893576040519150601f19603f3d011682016040523d82523d6000602084013e610898565b606091505b50915091508161026e578051156108b25780518082602001fd5b838360405163192105d760e01b8152600401610155929190610e73565b813b60008190036108f757828260405163919834b960e01b8152600401610155929190610e73565b505050565b80356001600160a01b038116811461091357600080fd5b919050565b60008083601f84011261092a57600080fd5b50813567ffffffffffffffff81111561094257600080fd5b60208301915083602082850101111561095a57600080fd5b9250929050565b60008060008060006060868803121561097957600080fd5b853567ffffffffffffffff81111561099057600080fd5b8601601f810188136109a157600080fd5b803567ffffffffffffffff8111156109b857600080fd5b8860208260051b84010111156109cd57600080fd5b6020918201965094506109e19087016108fc565b9250604086013567ffffffffffffffff8111156109fd57600080fd5b610a0988828901610918565b969995985093965092949392505050565b634e487b7160e01b600052604160045260246000fd5b6040516060810167ffffffffffffffff81118282101715610a5357610a53610a1a565b60405290565b604051601f8201601f1916810167ffffffffffffffff81118282101715610a8257610a82610a1a565b604052919050565b600067ffffffffffffffff821115610aa457610aa4610a1a565b5060051b60200190565b6000610ac1610abc84610a8a565b610a59565b8381526020810190600585901b840136811115610add57600080fd5b845b81811015610be757803567ffffffffffffffff811115610afe57600080fd5b86016060368290031215610b1157600080fd5b610b19610a30565b610b22826108fc565b8152602082013560038110610b3657600080fd5b6020820152604082013567ffffffffffffffff811115610b5557600080fd5b919091019036601f830112610b6957600080fd5b8135610b77610abc82610a8a565b8082825260208201915060208360051b860101925036831115610b9957600080fd5b6020850194505b82851015610bd15784356001600160e01b031981168114610bc057600080fd5b825260209485019490910190610ba0565b6040840152505085525060209384019301610adf565b509095945050505050565b634e487b7160e01b600052603260045260246000fd5b634e487b7160e01b600052602160045260246000fd5b60038110610c3c57634e487b7160e01b600052602160045260246000fd5b9052565b60208101610c4e8284610c1e565b92915050565b60005b83811015610c6f578181015183820152602001610c57565b50506000910152565b60008151808452610c90816020860160208601610c54565b601f01601f19169290920160200192915050565b6000606082016060835280865180835260808501915060808160051b86010192506020880160005b82811015610d6d57868503607f19018452815180516001600160a01b031686526020808201516060880191610d0390890182610c1e565b506040820151915060606040880152808251808352608089019150602084019350600092505b80831015610d555783516001600160e01b03191682526020938401936001939093019290910190610d29565b50965050506020938401939190910190600101610ccc565b5050506001600160a01b0386166020850152508281036040840152610d928185610c78565b9695505050505050565b602080825282518282018190526000918401906040840190835b81811015610be75783516001600160e01b031916835260209384019390920191600101610db6565b6001600160e01b031991909116815260200190565b634e487b7160e01b600052601160045260246000fd5b600061ffff821661ffff8103610e2157610e21610df3565b60010192915050565b600081610e3957610e39610df3565b506000190190565b634e487b7160e01b600052603160045260246000fd5b60008251610e69818460208701610c54565b9190910192915050565b6001600160a01b0383168152604060208201819052600090610e9790830184610c78565b94935050505056fe6469616d6f6e644375743a205f696e6974206164647265737320686173206e6f20636f64656469616d6f6e644375743a2041646420666163657420686173206e6f20636f64654c69624469616d6f6e644375743a205265706c61636520666163657420686173206e6f20636f6465806e0cbb9fce296bbc336a48f42bf1dbc69722d18d90d6fe705b7582c2bb4bd2a26469706673582212201e38b77f5b63e3321604746cdc406d23a0248a782178e025f2ce4d22cc9554e464736f6c634300081a0033","linkReferences":{}},"methodIdentifiers":{"diamondCut((address,uint8,bytes4[])[],address,bytes)":"1f931c1c"},"id":5}