{"abi":[{"type":"constructor","inputs":[{"name":"_subnetActor","type":"address","internalType":"contract SubnetActorDiamond"}],"stateMutability":"nonpayable"},{"type":"receive","stateMutability":"payable"},{"type":"function","name":"getRandomValidator","inputs":[{"name":"id","type":"uint8","internalType":"uint8"}],"outputs":[{"name":"","type":"address","internalType":"address"}],"stateMutability":"view"},{"type":"function","name":"getRandomValidatorFromSetOrZero","inputs":[{"name":"seed","type":"uint8","internalType":"uint8"}],"outputs":[{"name":"","type":"address","internalType":"address"}],"stateMutability":"view"},{"type":"function","name":"ghost_stakedSum","inputs":[],"outputs":[{"name":"","type":"uint256","internalType":"uint256"}],"stateMutability":"view"},{"type":"function","name":"ghost_unstakedSum","inputs":[],"outputs":[{"name":"","type":"uint256","internalType":"uint256"}],"stateMutability":"view"},{"type":"function","name":"ghost_validators_staked","inputs":[{"name":"","type":"address","internalType":"address"}],"outputs":[{"name":"","type":"uint256","internalType":"uint256"}],"stateMutability":"view"},{"type":"function","name":"ghost_validators_unstaked","inputs":[{"name":"","type":"address","internalType":"address"}],"outputs":[{"name":"","type":"uint256","internalType":"uint256"}],"stateMutability":"view"},{"type":"function","name":"join","inputs":[{"name":"id","type":"uint8","internalType":"uint8"},{"name":"amount","type":"uint256","internalType":"uint256"}],"outputs":[],"stateMutability":"nonpayable"},{"type":"function","name":"joinedValidators","inputs":[],"outputs":[{"name":"","type":"address[]","internalType":"address[]"}],"stateMutability":"view"},{"type":"function","name":"joinedValidatorsNumber","inputs":[],"outputs":[{"name":"","type":"uint256","internalType":"uint256"}],"stateMutability":"view"},{"type":"function","name":"leave","inputs":[{"name":"id","type":"uint8","internalType":"uint8"}],"outputs":[{"name":"","type":"address","internalType":"address"}],"stateMutability":"nonpayable"},{"type":"function","name":"stake","inputs":[{"name":"id","type":"uint8","internalType":"uint8"},{"name":"amount","type":"uint256","internalType":"uint256"}],"outputs":[],"stateMutability":"nonpayable"},{"type":"function","name":"unstake","inputs":[{"name":"id","type":"uint8","internalType":"uint8"},{"name":"amount","type":"uint256","internalType":"uint256"}],"outputs":[],"stateMutability":"nonpayable"}],"bytecode":{"object":"0x608080604052346100f857600090602081611172803803809161002282856100fd565b8339810103126100f457516001600160a01b038116908190036100f457600f80546001600160a01b03199081168317909155601080549091169091179055737109709ecfa91a80626ff3989d68f67f5b1dd12d3b156100f15760405163c88a5e6d60e01b81523060048201526a6b31bffa03c1c535c000006024820152818160448183737109709ecfa91a80626ff3989d68f67f5b1dd12d5af180156100e6576100d6575b60405161103b90816101378239f35b816100e0916100fd565b386100c7565b6040513d84823e3d90fd5b80fd5b5080fd5b600080fd5b601f909101601f19168101906001600160401b0382119082101761012057604052565b634e487b7160e01b600052604160045260246000fdfe608080604052600436101561001d575b50361561001b57600080fd5b005b600090813560e01c9081630a52ee96146105b0575080632cb540251461058c578063a0758127146104eb578063a64efe5d146104c7578063a7818a481461048a578063b00053cf1461046c578063b4545b9e146102fb578063bc5683e1146102d7578063bd0fa1b1146102ae578063c2da051214610271578063dd752e55146100e25763f2a2870b0361000f57346100df5760203660031901126100df5760206100cd6100c86105cc565b610a6c565b6040516001600160a01b039091168152f35b80fd5b50346100df5760403660031901126100df576100fc6105cc565b61011061010a602435610bd5565b91610817565b61011a8282610c65565b737109709ecfa91a80626ff3989d68f67f5b1dd12d3b156102345760405163ca669fa760e01b81526001600160a01b0390911660048201819052908390818160248183737109709ecfa91a80626ff3989d68f67f5b1dd12d5af180156102385761025c575b50600f546001600160a01b0316803b156102435781849160246040518094819363534a7e1d60e11b83528160048401525af1801561023857610247575b50600f546001600160a01b0316803b156102435781809160046040518094819363c7ebdaef60e01b83525af180156102385761021f575b505061020182601554610619565b6015558252601360205261021a60408320918254610619565b905580f35b81610229916105e1565b6102345782386101f3565b8280fd5b6040513d84823e3d90fd5b5080fd5b81610251916105e1565b6102345782386101bc565b81610266916105e1565b61023457823861017f565b50346100df5760203660031901126100df576004356001600160a01b03811690819003610243578160409160209352601483522054604051908152f35b50346100df5760403660031901126100df576102d46102cb6105cc565b60243590610893565b80f35b50346100df57806003193601126100df5760206102f2610dd0565b51604051908152f35b50346100df5760403660031901126100df576103156105cc565b61032361010a602435610bd5565b737109709ecfa91a80626ff3989d68f67f5b1dd12d3b156102345760405163ca669fa760e01b81526001600160a01b039091166004820181905290838160248183737109709ecfa91a80626ff3989d68f67f5b1dd12d5af180156104615761044d575b50600f5483906001600160a01b0316803b15610243578180916024604051809481936305c2fbcf60e31b83528960048401525af1801561023857610438575b50600f546001600160a01b0316803b156102435781809160046040518094819363c7ebdaef60e01b83525af1801561023857610423575b505061040a82601654610619565b6016558252601460205261021a60408320918254610619565b8161042d916105e1565b6102345782386103fc565b81610442916105e1565b6102345782386103c5565b8361045a919492946105e1565b9138610386565b6040513d86823e3d90fd5b50346100df57806003193601126100df576020601554604051908152f35b50346100df5760203660031901126100df576004356001600160a01b03811690819003610243578160409160209352601383522054604051908152f35b50346100df5760203660031901126100df5760206100cd6104e66105cc565b610817565b50346100df57806003193601126100df57604051601154808252602082018091601185526020852090855b818110610576575050508261052c9103836105e1565b604051928392602084019060208552518091526040840192915b818110610554575050500390f35b82516001600160a01b0316845285945060209384019390920191600101610546565b8254845260209093019260019283019201610516565b50346100df5760203660031901126100df5760206100cd6105ab6105cc565b61063c565b9050346102435781600319360112610243576020906016548152f35b6004359060ff821682036105dc57565b600080fd5b90601f8019910116810190811067ffffffffffffffff82111761060357604052565b634e487b7160e01b600052604160045260246000fd5b9190820180921161062657565b634e487b7160e01b600052601160045260246000fd5b610647600091610a6c565b906001600160a01b038216801561081257601054604051630acbdfbf60e11b8152600481018390529290602090849060249082906001600160a01b03165afa9283156108055781936107d1575b50737109709ecfa91a80626ff3989d68f67f5b1dd12d3b156100df5760405163ca669fa760e01b815260048101839052818160248183737109709ecfa91a80626ff3989d68f67f5b1dd12d5af18015610238576107c1575b50600f549091906001600160a01b0316803b156102345782809160046040518094819363d66d9e1960e01b83525af180156107a1579083916107ac575b5050600f546001600160a01b0316803b156102345782809160046040518094819363c7ebdaef60e01b83525af180156107a15761078c575b5091604081928461077461078696610cef565b50815260146020522055601654610619565b60165590565b6107978380926105e1565b6102435738610761565b6040513d85823e3d90fd5b816107b6916105e1565b610243578138610729565b816107cb916105e1565b386106ec565b9092506020813d6020116107fd575b816107ed602093836105e1565b8101031261023457519138610694565b3d91506107e0565b50604051903d90823e3d90fd5b505090565b60c860ff821610156108435761082c90610a6c565b6001600160a01b0381161561083e5790565b503390565b61084c90610b02565b5061082c565b919082519283825260005b84811061087e575050826000602080949584010152601f8019910116010190565b8060208092840101518282860101520161085d565b6000929160ff821615610a46576108ac6108b291610bd5565b91610b02565b6108be83839493610c65565b737109709ecfa91a80626ff3989d68f67f5b1dd12d3b15610a425760405163ca669fa760e01b81526001600160a01b039093166004840181905292858160248183737109709ecfa91a80626ff3989d68f67f5b1dd12d5af18015610a3757610a23575b50600f548591906001600160a01b0316803b156102345761096383918593604051948580948193630777b95560e21b8352606060048401526064830190610852565b8260248301526001604483015203925af1801561023857610a0e575b50600f546001600160a01b0316803b1561024357819060046040518094819363c7ebdaef60e01b83525af18015610a03576109ea575b506109e060406109e794956109cc84601554610619565b601555848152601360205220918254610619565b9055610fa5565b50565b6109f58580926105e1565b6109ff57386109b5565b8380fd5b6040513d87823e3d90fd5b81610a18916105e1565b6109ff57833861097f565b85610a30919692966105e1565b9338610921565b6040513d88823e3d90fd5b8480fd5b50509050565b8115610a56570690565b634e487b7160e01b600052601260045260246000fd5b6011548015610ac157610a8a9060ff610a83610dd0565b9316610a4c565b908051821015610aab5760059190911b01602001516001600160a01b031690565b634e487b7160e01b600052603260045260246000fd5b5050600090565b67ffffffffffffffff811161060357601f01601f191660200190565b908151811015610aab570160200190565b9190820391821161062657565b604051610b106080826105e1565b6041815260603660208301378091815160011015610aab5760f81b6001600160f81b03191660001a6021820153805160001981019390841161062657610b6e610b5885610ac8565b94610b6660405196876105e1565b808652610ac8565b602085019390601f190136853760015b8351811015610bc0576001600160f81b0319610b9a8286610ae4565b511690600019810181811161062657610bb960019360001a9189610ae4565b5301610b7e565b5093519092206001600160a01b031692919050565b6801a055690d9db800006000610bea92610e1d565b906000806040610c3e610c528251610c0284826105e1565b600c81526b109bdd5b990814995cdd5b1d60a21b602082015283519283916020830195632d839cb360e21b875260248401526064830190610852565b88604483015203601f1981018352826105e1565b51906a636f6e736f6c652e6c6f675afa50565b600080809381935af13d15610cd2573d610c7e81610ac8565b90610c8c60405192836105e1565b8152600060203d92013e5b15610c9e57565b60405162461bcd60e51b815260206004820152600c60248201526b1c185e4a0a4819985a5b195960a21b6044820152606490fd5b610c97565b8054821015610aab5760005260206000200190600090565b6000818152601260205260409020548015610ac15760001981018181116106265760115460001981019190821161062657818103610d7f575b5050506011548015610d695760001901610d43816011610cd7565b8154906000199060031b1b19169055601155600052601260205260006040812055600190565b634e487b7160e01b600052603160045260246000fd5b610db8610d90610da1936011610cd7565b90549060031b1c9283926011610cd7565b819391549060031b91821b91600019901b19161790565b90556000526012602052604060002055388080610d28565b604051906011548083528260208101601160005260206000209260005b818110610e04575050610e02925003836105e1565b565b8454835260019485019487945060209093019201610ded565b600090838311610f3a5782811091821580610f30575b610f2857610e418486610af5565b926001840180941161062657600383111580610f1f575b610f105760031983101580610f06575b610ef25785831115610ea957505090610e8484610e8993610af5565b610a4c565b90811561081257610e9a9250610619565b60001981019081116106265790565b959492919095610eba575b50505050565b83949550610e8490610ecc9394610af5565b90811561081257610edd9250610af5565b60018101809111610626579038808080610eb4565b50509050610f039291501990610af5565b90565b5082198411610e68565b5050919050610f039250610619565b50828411610e58565b509250505090565b5084821115610e33565b60405162461bcd60e51b815260206004820152603e60248201527f5374645574696c7320626f756e642875696e743235362c75696e743235362c7560448201527f696e74323536293a204d6178206973206c657373207468616e206d696e2e00006064820152608490fd5b80600052601260205260406000205415600014610fff576011546801000000000000000081101561060357610fe6610da18260018594016011556011610cd7565b9055601154906000526012602052604060002055600190565b5060009056fea264697066735822122079042d2a90e38574ba79945bcc054fb57d14c41ab14f3a278e23450dfb704fb764736f6c634300081a0033","linkReferences":{}},"methodIdentifiers":{"getRandomValidator(uint8)":"a64efe5d","getRandomValidatorFromSetOrZero(uint8)":"f2a2870b","ghost_stakedSum()":"b00053cf","ghost_unstakedSum()":"0a52ee96","ghost_validators_staked(address)":"a7818a48","ghost_validators_unstaked(address)":"c2da0512","join(uint8,uint256)":"bd0fa1b1","joinedValidators()":"a0758127","joinedValidatorsNumber()":"bc5683e1","leave(uint8)":"2cb54025","stake(uint8,uint256)":"dd752e55","unstake(uint8,uint256)":"b4545b9e"},"id":121}