{"abi":[{"type":"function","name":"claim","inputs":[],"outputs":[],"stateMutability":"nonpayable"},{"type":"event","name":"CollateralClaimed","inputs":[{"name":"validator","type":"address","indexed":false,"internalType":"address"},{"name":"amount","type":"uint256","indexed":false,"internalType":"uint256"}],"anonymous":false},{"type":"event","name":"Paused","inputs":[{"name":"account","type":"address","indexed":false,"internalType":"address"}],"anonymous":false},{"type":"event","name":"Unpaused","inputs":[{"name":"account","type":"address","indexed":false,"internalType":"address"}],"anonymous":false},{"type":"error","name":"EnforcedPause","inputs":[]},{"type":"error","name":"ExpectedPause","inputs":[]},{"type":"error","name":"NoCollateralToWithdraw","inputs":[]},{"type":"error","name":"NotEnoughBalance","inputs":[]},{"type":"error","name":"ReentrancyError","inputs":[]}],"bytecode":{"object":"0x6080604052348015600f57600080fd5b5061058a8061001f6000396000f3fe608060405234801561001057600080fd5b506004361061002b5760003560e01c80634e71d92d14610030575b600080fd5b61003861003a565b005b7f691bb03ffc16c56fc96b82fd16cd1b3715f0bc3cdc6407005f49bb620586009580546000190161007e576040516329f745a760e01b815260040160405180910390fd5b6001815561008a610103565b600061009533610148565b905080156100fc5760408051808201909152600880546100f99233928592829060ff1660018111156100c9576100c96104b6565b60018111156100da576100da6104b6565b8152905461010090046001600160a01b031660209091015291906101a1565b50505b5060009055565b7fc451c9429c27db68f286ab8a68f311f1dccab703ba9423aed29cd397ae63f8635460ff16156101465760405163d93c066560e01b815260040160405180910390fd5b565b600080610156601784610213565b604080516001600160a01b0386168152602081018390529193507f197c586353eaed0a1c53e6e540445b94befab8f932c8115d112115ecbeeed514910160405180910390a150919050565b6000606081855160018111156101b9576101b96104b6565b036101e1576101c8848461027a565b604080516020810190915260008152909250905061020b565b6001855160018111156101f6576101f66104b6565b0361020b576102068585856102fa565b915091505b935093915050565b6001600160a01b038116600090815260018301602052604081208190819061023a906103c2565b915091508061ffff16600003610270576001600160a01b03841660009081526001860160205260409020805463ffffffff191690555b5090505b92915050565b60008147101561029d5760405163569d45cf60e11b815260040160405180910390fd5b6000836001600160a01b03168360405160006040518083038185875af1925050503d80600081146102ea576040519150601f19603f3d011682016040523d82523d6000602084013e6102ef565b606091505b509095945050505050565b6000606084602001516001600160a01b031663a9059cbb60e01b858560405160200161033b9291906001600160a01b03929092168252602082015260400190565b60408051601f198184030181529082905261035992916020016104fc565b60408051601f198184030181529082905261037391610520565b6000604051808303816000865af19150503d80600081146103b0576040519150601f19603f3d011682016040523d82523d6000602084013e6103b5565b606091505b5091509150935093915050565b8054600090819061ffff168082036103ed576040516364b0557f60e01b815260040160405180910390fd5b835462010000900461ffff168160005b8361ffff168361ffff16101561048b5761ffff83166000908152600180890160209081526040928390208351808501909452805480855292015490830152431015610448575061048b565b60208101516104579083610533565b61ffff8516600090815260018a81016020526040822082815581019190915590940193600019939093019291506103fd9050565b865463ffffffff19166201000061ffff9485160261ffff191617928216929092179095559492505050565b634e487b7160e01b600052602160045260246000fd5b6000815160005b818110156104ed57602081850181015186830152016104d3565b50600093019283525090919050565b6001600160e01b031983168152600061051860048301846104cc565b949350505050565b600061052c82846104cc565b9392505050565b8082018082111561027457634e487b7160e01b600052601160045260246000fdfea26469706673582212207bb89ecb301c009f5ece2fb749709615f3063c89df898bb4faeef0bedf22915e64736f6c634300081a0033","linkReferences":{}},"methodIdentifiers":{"claim()":"4e71d92d"},"id":52}