{"abi":[{"type":"function","name":"applyType","inputs":[{"name":"message","type":"tuple","internalType":"struct IpcEnvelope","components":[{"name":"kind","type":"IpcMsgKind","internalType":"enum IpcMsgKind"},{"name":"to","type":"tuple","internalType":"struct IPCAddress","components":[{"name":"subnetId","type":"tuple","internalType":"struct SubnetID","components":[{"name":"root","type":"uint64","internalType":"uint64"},{"name":"route","type":"address[]","internalType":"address[]"}]},{"name":"rawAddress","type":"tuple","internalType":"struct FvmAddress","components":[{"name":"addrType","type":"uint8","internalType":"uint8"},{"name":"payload","type":"bytes","internalType":"bytes"}]}]},{"name":"from","type":"tuple","internalType":"struct IPCAddress","components":[{"name":"subnetId","type":"tuple","internalType":"struct SubnetID","components":[{"name":"root","type":"uint64","internalType":"uint64"},{"name":"route","type":"address[]","internalType":"address[]"}]},{"name":"rawAddress","type":"tuple","internalType":"struct FvmAddress","components":[{"name":"addrType","type":"uint8","internalType":"uint8"},{"name":"payload","type":"bytes","internalType":"bytes"}]}]},{"name":"nonce","type":"uint64","internalType":"uint64"},{"name":"value","type":"uint256","internalType":"uint256"},{"name":"message","type":"bytes","internalType":"bytes"}]},{"name":"currentSubnet","type":"tuple","internalType":"struct SubnetID","components":[{"name":"root","type":"uint64","internalType":"uint64"},{"name":"route","type":"address[]","internalType":"address[]"}]}],"outputs":[{"name":"","type":"IPCMsgType","internalType":"enum IPCMsgType"}],"stateMutability":"pure"},{"type":"function","name":"createCallMsg","inputs":[{"name":"from","type":"tuple","internalType":"struct IPCAddress","components":[{"name":"subnetId","type":"tuple","internalType":"struct SubnetID","components":[{"name":"root","type":"uint64","internalType":"uint64"},{"name":"route","type":"address[]","internalType":"address[]"}]},{"name":"rawAddress","type":"tuple","internalType":"struct FvmAddress","components":[{"name":"addrType","type":"uint8","internalType":"uint8"},{"name":"payload","type":"bytes","internalType":"bytes"}]}]},{"name":"to","type":"tuple","internalType":"struct IPCAddress","components":[{"name":"subnetId","type":"tuple","internalType":"struct SubnetID","components":[{"name":"root","type":"uint64","internalType":"uint64"},{"name":"route","type":"address[]","internalType":"address[]"}]},{"name":"rawAddress","type":"tuple","internalType":"struct FvmAddress","components":[{"name":"addrType","type":"uint8","internalType":"uint8"},{"name":"payload","type":"bytes","internalType":"bytes"}]}]},{"name":"value","type":"uint256","internalType":"uint256"},{"name":"method","type":"bytes4","internalType":"bytes4"},{"name":"params","type":"bytes","internalType":"bytes"}],"outputs":[{"name":"","type":"tuple","internalType":"struct IpcEnvelope","components":[{"name":"kind","type":"IpcMsgKind","internalType":"enum IpcMsgKind"},{"name":"to","type":"tuple","internalType":"struct IPCAddress","components":[{"name":"subnetId","type":"tuple","internalType":"struct SubnetID","components":[{"name":"root","type":"uint64","internalType":"uint64"},{"name":"route","type":"address[]","internalType":"address[]"}]},{"name":"rawAddress","type":"tuple","internalType":"struct FvmAddress","components":[{"name":"addrType","type":"uint8","internalType":"uint8"},{"name":"payload","type":"bytes","internalType":"bytes"}]}]},{"name":"from","type":"tuple","internalType":"struct IPCAddress","components":[{"name":"subnetId","type":"tuple","internalType":"struct SubnetID","components":[{"name":"root","type":"uint64","internalType":"uint64"},{"name":"route","type":"address[]","internalType":"address[]"}]},{"name":"rawAddress","type":"tuple","internalType":"struct FvmAddress","components":[{"name":"addrType","type":"uint8","internalType":"uint8"},{"name":"payload","type":"bytes","internalType":"bytes"}]}]},{"name":"nonce","type":"uint64","internalType":"uint64"},{"name":"value","type":"uint256","internalType":"uint256"},{"name":"message","type":"bytes","internalType":"bytes"}]}],"stateMutability":"pure"},{"type":"function","name":"createFundMsg","inputs":[{"name":"subnet","type":"tuple","internalType":"struct SubnetID","components":[{"name":"root","type":"uint64","internalType":"uint64"},{"name":"route","type":"address[]","internalType":"address[]"}]},{"name":"signer","type":"address","internalType":"address"},{"name":"to","type":"tuple","internalType":"struct FvmAddress","components":[{"name":"addrType","type":"uint8","internalType":"uint8"},{"name":"payload","type":"bytes","internalType":"bytes"}]},{"name":"value","type":"uint256","internalType":"uint256"}],"outputs":[{"name":"","type":"tuple","internalType":"struct IpcEnvelope","components":[{"name":"kind","type":"IpcMsgKind","internalType":"enum IpcMsgKind"},{"name":"to","type":"tuple","internalType":"struct IPCAddress","components":[{"name":"subnetId","type":"tuple","internalType":"struct SubnetID","components":[{"name":"root","type":"uint64","internalType":"uint64"},{"name":"route","type":"address[]","internalType":"address[]"}]},{"name":"rawAddress","type":"tuple","internalType":"struct FvmAddress","components":[{"name":"addrType","type":"uint8","internalType":"uint8"},{"name":"payload","type":"bytes","internalType":"bytes"}]}]},{"name":"from","type":"tuple","internalType":"struct IPCAddress","components":[{"name":"subnetId","type":"tuple","internalType":"struct SubnetID","components":[{"name":"root","type":"uint64","internalType":"uint64"},{"name":"route","type":"address[]","internalType":"address[]"}]},{"name":"rawAddress","type":"tuple","internalType":"struct FvmAddress","components":[{"name":"addrType","type":"uint8","internalType":"uint8"},{"name":"payload","type":"bytes","internalType":"bytes"}]}]},{"name":"nonce","type":"uint64","internalType":"uint64"},{"name":"value","type":"uint256","internalType":"uint256"},{"name":"message","type":"bytes","internalType":"bytes"}]}],"stateMutability":"pure"},{"type":"function","name":"createReleaseMsg","inputs":[{"name":"subnet","type":"tuple","internalType":"struct SubnetID","components":[{"name":"root","type":"uint64","internalType":"uint64"},{"name":"route","type":"address[]","internalType":"address[]"}]},{"name":"signer","type":"address","internalType":"address"},{"name":"to","type":"tuple","internalType":"struct FvmAddress","components":[{"name":"addrType","type":"uint8","internalType":"uint8"},{"name":"payload","type":"bytes","internalType":"bytes"}]},{"name":"value","type":"uint256","internalType":"uint256"}],"outputs":[{"name":"","type":"tuple","internalType":"struct IpcEnvelope","components":[{"name":"kind","type":"IpcMsgKind","internalType":"enum IpcMsgKind"},{"name":"to","type":"tuple","internalType":"struct IPCAddress","components":[{"name":"subnetId","type":"tuple","internalType":"struct SubnetID","components":[{"name":"root","type":"uint64","internalType":"uint64"},{"name":"route","type":"address[]","internalType":"address[]"}]},{"name":"rawAddress","type":"tuple","internalType":"struct FvmAddress","components":[{"name":"addrType","type":"uint8","internalType":"uint8"},{"name":"payload","type":"bytes","internalType":"bytes"}]}]},{"name":"from","type":"tuple","internalType":"struct IPCAddress","components":[{"name":"subnetId","type":"tuple","internalType":"struct SubnetID","components":[{"name":"root","type":"uint64","internalType":"uint64"},{"name":"route","type":"address[]","internalType":"address[]"}]},{"name":"rawAddress","type":"tuple","internalType":"struct FvmAddress","components":[{"name":"addrType","type":"uint8","internalType":"uint8"},{"name":"payload","type":"bytes","internalType":"bytes"}]}]},{"name":"nonce","type":"uint64","internalType":"uint64"},{"name":"value","type":"uint256","internalType":"uint256"},{"name":"message","type":"bytes","internalType":"bytes"}]}],"stateMutability":"pure"},{"type":"function","name":"createResultMsg","inputs":[{"name":"crossMsg","type":"tuple","internalType":"struct IpcEnvelope","components":[{"name":"kind","type":"IpcMsgKind","internalType":"enum IpcMsgKind"},{"name":"to","type":"tuple","internalType":"struct IPCAddress","components":[{"name":"subnetId","type":"tuple","internalType":"struct SubnetID","components":[{"name":"root","type":"uint64","internalType":"uint64"},{"name":"route","type":"address[]","internalType":"address[]"}]},{"name":"rawAddress","type":"tuple","internalType":"struct FvmAddress","components":[{"name":"addrType","type":"uint8","internalType":"uint8"},{"name":"payload","type":"bytes","internalType":"bytes"}]}]},{"name":"from","type":"tuple","internalType":"struct IPCAddress","components":[{"name":"subnetId","type":"tuple","internalType":"struct SubnetID","components":[{"name":"root","type":"uint64","internalType":"uint64"},{"name":"route","type":"address[]","internalType":"address[]"}]},{"name":"rawAddress","type":"tuple","internalType":"struct FvmAddress","components":[{"name":"addrType","type":"uint8","internalType":"uint8"},{"name":"payload","type":"bytes","internalType":"bytes"}]}]},{"name":"nonce","type":"uint64","internalType":"uint64"},{"name":"value","type":"uint256","internalType":"uint256"},{"name":"message","type":"bytes","internalType":"bytes"}]},{"name":"outcome","type":"OutcomeType","internalType":"enum OutcomeType"},{"name":"ret","type":"bytes","internalType":"bytes"}],"outputs":[{"name":"","type":"tuple","internalType":"struct IpcEnvelope","components":[{"name":"kind","type":"IpcMsgKind","internalType":"enum IpcMsgKind"},{"name":"to","type":"tuple","internalType":"struct IPCAddress","components":[{"name":"subnetId","type":"tuple","internalType":"struct SubnetID","components":[{"name":"root","type":"uint64","internalType":"uint64"},{"name":"route","type":"address[]","internalType":"address[]"}]},{"name":"rawAddress","type":"tuple","internalType":"struct FvmAddress","components":[{"name":"addrType","type":"uint8","internalType":"uint8"},{"name":"payload","type":"bytes","internalType":"bytes"}]}]},{"name":"from","type":"tuple","internalType":"struct IPCAddress","components":[{"name":"subnetId","type":"tuple","internalType":"struct SubnetID","components":[{"name":"root","type":"uint64","internalType":"uint64"},{"name":"route","type":"address[]","internalType":"address[]"}]},{"name":"rawAddress","type":"tuple","internalType":"struct FvmAddress","components":[{"name":"addrType","type":"uint8","internalType":"uint8"},{"name":"payload","type":"bytes","internalType":"bytes"}]}]},{"name":"nonce","type":"uint64","internalType":"uint64"},{"name":"value","type":"uint256","internalType":"uint256"},{"name":"message","type":"bytes","internalType":"bytes"}]}],"stateMutability":"pure"},{"type":"function","name":"createTransferMsg","inputs":[{"name":"from","type":"tuple","internalType":"struct IPCAddress","components":[{"name":"subnetId","type":"tuple","internalType":"struct SubnetID","components":[{"name":"root","type":"uint64","internalType":"uint64"},{"name":"route","type":"address[]","internalType":"address[]"}]},{"name":"rawAddress","type":"tuple","internalType":"struct FvmAddress","components":[{"name":"addrType","type":"uint8","internalType":"uint8"},{"name":"payload","type":"bytes","internalType":"bytes"}]}]},{"name":"to","type":"tuple","internalType":"struct IPCAddress","components":[{"name":"subnetId","type":"tuple","internalType":"struct SubnetID","components":[{"name":"root","type":"uint64","internalType":"uint64"},{"name":"route","type":"address[]","internalType":"address[]"}]},{"name":"rawAddress","type":"tuple","internalType":"struct FvmAddress","components":[{"name":"addrType","type":"uint8","internalType":"uint8"},{"name":"payload","type":"bytes","internalType":"bytes"}]}]},{"name":"value","type":"uint256","internalType":"uint256"}],"outputs":[{"name":"","type":"tuple","internalType":"struct IpcEnvelope","components":[{"name":"kind","type":"IpcMsgKind","internalType":"enum IpcMsgKind"},{"name":"to","type":"tuple","internalType":"struct IPCAddress","components":[{"name":"subnetId","type":"tuple","internalType":"struct SubnetID","components":[{"name":"root","type":"uint64","internalType":"uint64"},{"name":"route","type":"address[]","internalType":"address[]"}]},{"name":"rawAddress","type":"tuple","internalType":"struct FvmAddress","components":[{"name":"addrType","type":"uint8","internalType":"uint8"},{"name":"payload","type":"bytes","internalType":"bytes"}]}]},{"name":"from","type":"tuple","internalType":"struct IPCAddress","components":[{"name":"subnetId","type":"tuple","internalType":"struct SubnetID","components":[{"name":"root","type":"uint64","internalType":"uint64"},{"name":"route","type":"address[]","internalType":"address[]"}]},{"name":"rawAddress","type":"tuple","internalType":"struct FvmAddress","components":[{"name":"addrType","type":"uint8","internalType":"uint8"},{"name":"payload","type":"bytes","internalType":"bytes"}]}]},{"name":"nonce","type":"uint64","internalType":"uint64"},{"name":"value","type":"uint256","internalType":"uint256"},{"name":"message","type":"bytes","internalType":"bytes"}]}],"stateMutability":"pure"},{"type":"function","name":"isSorted","inputs":[{"name":"crossMsgs","type":"tuple[]","internalType":"struct IpcEnvelope[]","components":[{"name":"kind","type":"IpcMsgKind","internalType":"enum IpcMsgKind"},{"name":"to","type":"tuple","internalType":"struct IPCAddress","components":[{"name":"subnetId","type":"tuple","internalType":"struct SubnetID","components":[{"name":"root","type":"uint64","internalType":"uint64"},{"name":"route","type":"address[]","internalType":"address[]"}]},{"name":"rawAddress","type":"tuple","internalType":"struct FvmAddress","components":[{"name":"addrType","type":"uint8","internalType":"uint8"},{"name":"payload","type":"bytes","internalType":"bytes"}]}]},{"name":"from","type":"tuple","internalType":"struct IPCAddress","components":[{"name":"subnetId","type":"tuple","internalType":"struct SubnetID","components":[{"name":"root","type":"uint64","internalType":"uint64"},{"name":"route","type":"address[]","internalType":"address[]"}]},{"name":"rawAddress","type":"tuple","internalType":"struct FvmAddress","components":[{"name":"addrType","type":"uint8","internalType":"uint8"},{"name":"payload","type":"bytes","internalType":"bytes"}]}]},{"name":"nonce","type":"uint64","internalType":"uint64"},{"name":"value","type":"uint256","internalType":"uint256"},{"name":"message","type":"bytes","internalType":"bytes"}]}],"outputs":[{"name":"","type":"bool","internalType":"bool"}],"stateMutability":"pure"},{"type":"function","name":"toHash","inputs":[{"name":"crossMsgs","type":"tuple[]","internalType":"struct IpcEnvelope[]","components":[{"name":"kind","type":"IpcMsgKind","internalType":"enum IpcMsgKind"},{"name":"to","type":"tuple","internalType":"struct IPCAddress","components":[{"name":"subnetId","type":"tuple","internalType":"struct SubnetID","components":[{"name":"root","type":"uint64","internalType":"uint64"},{"name":"route","type":"address[]","internalType":"address[]"}]},{"name":"rawAddress","type":"tuple","internalType":"struct FvmAddress","components":[{"name":"addrType","type":"uint8","internalType":"uint8"},{"name":"payload","type":"bytes","internalType":"bytes"}]}]},{"name":"from","type":"tuple","internalType":"struct IPCAddress","components":[{"name":"subnetId","type":"tuple","internalType":"struct SubnetID","components":[{"name":"root","type":"uint64","internalType":"uint64"},{"name":"route","type":"address[]","internalType":"address[]"}]},{"name":"rawAddress","type":"tuple","internalType":"struct FvmAddress","components":[{"name":"addrType","type":"uint8","internalType":"uint8"},{"name":"payload","type":"bytes","internalType":"bytes"}]}]},{"name":"nonce","type":"uint64","internalType":"uint64"},{"name":"value","type":"uint256","internalType":"uint256"},{"name":"message","type":"bytes","internalType":"bytes"}]}],"outputs":[{"name":"","type":"bytes32","internalType":"bytes32"}],"stateMutability":"pure"},{"type":"error","name":"CannotExecuteEmptyEnvelope","inputs":[]},{"type":"error","name":"NotDelegatedEvmAddress","inputs":[]},{"type":"error","name":"NotEnoughBalance","inputs":[]}],"bytecode":{"object":"0x6121c4610039600b82828239805160001a607314602c57634e487b7160e01b600052600060045260246000fd5b30600052607381538281f3fe730000000000000000000000000000000000000000301460806040526004361061009d5760003560e01c806399aa0eb41161007057806399aa0eb41461012c5780639b7df85a1461013f5780639b814ea014610152578063dd1fcec714610165578063f43cec671461018857600080fd5b80631860845e146100a25780633f74f188146100cb5780635404605f146100f9578063855f7e451461010c575b600080fd5b6100b56100b0366004610f9e565b6101a9565b6040516100c29190611146565b60405180910390f35b8180156100d757600080fd5b506100eb6100e6366004611293565b610289565b6040516100c2929190611319565b6100b561010736600461158d565b6103f1565b61011f61011a3660046115fe565b61043a565b6040516100c29190611665565b6100b561013a366004610f9e565b61063f565b6100b561014d366004611697565b610700565b6100b5610160366004611710565b6107f9565b6101786101733660046117cb565b610895565b60405190151581526020016100c2565b61019b610196366004611909565b610915565b6040519081526020016100c2565b6101b1610ee8565b6102806040518060400160405280876101c9906119be565b81526020016101d787610945565b8152506040518060400160405280886101ef906119be565b6040516308c7427760e11b815273__$3fbe32418a9ca7804328967972fb037388$__9163118e84ee9161022591906004016119ca565b600060405180830381865af4158015610242573d6000803e3d6000fd5b505050506040513d6000823e601f3d908101601f1916820160405261026a91908101906119dd565b815260200161027887611ac5565b9052846103f1565b95945050505050565b6000606061029e61029985611ad1565b6109f3565b156102bc57604051630c2f41e760e41b815260040160405180910390fd5b60006102fb6102ed6102d16020880188611add565b6102df906020810190611add565b6102e890611ac5565b610a21565b6001600160a01b0316610af6565b9050600061030c6020870187611afd565b600281111561031d5761031d61101f565b0361033b5761033184826080880135610b34565b92509250506103ea565b600161034a6020870187611afd565b600281111561035b5761035b61101f565b1480610384575060026103716020870187611afd565b60028111156103825761038261101f565b145b156103d557610331818660405160240161039e9190611cbd565b60408051601f198184030181529190526020810180516001600160e01b0316632a52428160e21b1790528691906080890135610ba6565b50506040805160208101909152600080825291505b9250929050565b6103f9610ee8565b506040805160c0810182526000808252602080830195909552818301959095526060810185905260808101929092528051928301905291815260a082015290565b60008061044a6020850185611add565b6104549080611add565b61045d906119be565b9050600061046e6040860186611add565b6104789080611add565b610481906119be565b9050600061048e856119be565b604051631ccc893360e11b815273__$3fbe32418a9ca7804328967972fb037388$__916339991266916104c691908790600401611d83565b600060405180830381865af41580156104e3573d6000803e3d6000fd5b505050506040513d6000823e601f3d908101601f1916820160405261050b91908101906119dd565b604051631ccc893360e11b815290915060009073__$3fbe32418a9ca7804328967972fb037388$__9063399912669061054a9086908890600401611d83565b600060405180830381865af4158015610567573d6000803e3d6000fd5b505050506040513d6000823e601f3d908101601f1916820160405261058f91908101906119dd565b60405163c836244d60e01b815290915073__$3fbe32418a9ca7804328967972fb037388$__9063c836244d906105cb9085908590600401611d83565b602060405180830381865af41580156105e8573d6000803e3d6000fd5b505050506040513d601f19601f8201168201806040525081019061060c9190611da8565b15610630578060200151518360200151511115610630576001945050505050610639565b60009450505050505b92915050565b610647610ee8565b61028060405180604001604052808761065f906119be565b6040516308c7427760e11b815273__$3fbe32418a9ca7804328967972fb037388$__9163118e84ee9161069591906004016119ca565b600060405180830381865af41580156106b2573d6000803e3d6000fd5b505050506040513d6000823e601f3d908101601f191682016040526106da91908101906119dd565b81526020016106e887610945565b81525060405180604001604052808861026a906119be565b610708610ee8565b600060405180606001604052806107278761072290611ad1565b610c2b565b815260200185600281111561073e5761073e61101f565b81526020018490529050608085013560008560028111156107615761076161101f565b0361076a575060005b6040805160c08101909152806002815260200161078a6040890189611add565b61079390611dca565b81526020018780602001906107a89190611add565b6107b190611dca565b815260200160006001600160401b03168152602001828152602001836040516020016107dd9190611dd6565b60408051601f1981840301815291905290529695505050505050565b610801610ee8565b6040805180820182526001600160e01b03198516606082015281516044818303018152606482018352815260208101849052815160c0810190925290806001815260200187815260200188815260200160006001600160401b03168152602001868152602001826040516020016108789190611e10565b60408051601f198184030181529190529052979650505050505050565b60008082815b818110156109095760008686838181106108b7576108b7611e49565b90506020028101906108c99190611e5f565b6108da906080810190606001611e75565b6001600160401b031690508084106108ff5781156108ff576000945050505050610639565b925060010161089b565b50600195945050505050565b6000816040516020016109289190611fb4565b604051602081830303815290604052805190602001209050919050565b60408051808201909152600081526060602082015260006040518060600160405280600a6001600160401b0316815260200160146001600160801b03168152602001846040516020016109b0919060609190911b6bffffffffffffffffffffffff1916815260140190565b60408051601f198184030181529181529152516109d09190602001612019565b60408051601f198184030181528282019091526004825260208201529392505050565b60008082516002811115610a0957610a0961101f565b03610a175750608001511590565b5060a00151511590565b805160009060ff16600414610a495760405163c5f8961f60e01b815260040160405180910390fd5b60008260200151806020019051810190610a63919061205a565b80519091506001600160401b0316600a14610a915760405163c5f8961f60e01b815260040160405180910390fd5b80602001516001600160801b0316601414610abf5760405163c5f8961f60e01b815260040160405180910390fd5b806040015151601414610ae55760405163c5f8961f60e01b815260040160405180910390fd5b6040810151601401515b9392505050565b6000806000610b0484610c3e565b9150915081610b1557509192915050565b600080610b2183610c7a565b9150915081610280575093949350505050565b600060608185516001811115610b4c57610b4c61101f565b03610b7457610b5b8484610ce4565b6040805160208101909152600081529092509050610b9e565b600185516001811115610b8957610b8961101f565b03610b9e57610b99858585610d64565b915091505b935093915050565b6000606082600003610bc757610bbe85856000610e2c565b91509150610c22565b600086516001811115610bdc57610bdc61101f565b03610bf657610bec858585610e2c565b9092509050610c22565b600186516001811115610c0b57610c0b61101f565b03610c2257610c1c86868686610ea7565b90925090505b94509492505050565b6000816040516020016109289190612138565b60008073ffffffffffffffffffffffff0000000000000000831660ff60981b8103610c7457600192506001600160401b03841691505b50915091565b600080826000526016600a602060006002607f60991b015afa9150600051806001600160a01b031691508060a01c61ffff16905061040a8114610cc05760009250600091505b50811580610ccf57503d601614155b15610cdf57506000928392509050565b915091565b600081471015610d075760405163569d45cf60e11b815260040160405180910390fd5b6000836001600160a01b03168360405160006040518083038185875af1925050503d8060008114610d54576040519150601f19603f3d011682016040523d82523d6000602084013e610d59565b606091505b509095945050505050565b6000606084602001516001600160a01b031663a9059cbb60e01b8585604051602001610da59291906001600160a01b03929092168252602082015260400190565b60408051601f1981840301815290829052610dc3929160200161214b565b60408051601f1981840301815290829052610ddd9161217c565b6000604051808303816000865af19150503d8060008114610e1a576040519150601f19603f3d011682016040523d82523d6000602084013e610e1f565b606091505b5091509150935093915050565b6000606082471015610e515760405163569d45cf60e11b815260040160405180910390fd5b846001600160a01b03168385604051610e6a919061217c565b60006040518083038185875af1925050503d8060008114610e1a576040519150601f19603f3d011682016040523d82523d6000602084013e610e1f565b60006060610eb6868685610d64565b90925090508115610ed357610ecd85856000610e2c565b90925090505b81610c225780511561009d5780518082602001fd5b6040805160c081019091528060008152602001610f03610f29565b8152602001610f10610f29565b8152600060208201819052604082015260609081015290565b6040805160808101825260009181019182526060808201529081908152602001610f696040518060400160405280600060ff168152602001606081525090565b905290565b600060408284031215610f8057600080fd5b50919050565b6001600160a01b0381168114610f9b57600080fd5b50565b60008060008060808587031215610fb457600080fd5b84356001600160401b03811115610fca57600080fd5b610fd687828801610f6e565b9450506020850135610fe781610f86565b925060408501356001600160401b0381111561100257600080fd5b61100e87828801610f6e565b949793965093946060013593505050565b634e487b7160e01b600052602160045260246000fd5b60038110610f9b57610f9b61101f565b6000604083016001600160401b038351168452602083015160406020860152818151808452606087019150602083019350600092505b808310156110a65783516001600160a01b03168252602093840193600193909301929091019061107b565b5095945050505050565b60005b838110156110cb5781810151838201526020016110b3565b50506000910152565b600081518084526110ec8160208601602086016110b0565b601f01601f19169290920160200192915050565b60008151604084526111156040850182611045565b90506020830151848203602086015260ff8151168252602081015190506040602083015261028060408301826110d4565b602081526000825161115781611035565b80602084015250602083015160c0604084015261117760e0840182611100565b90506040840151601f198483030160608501526111948282611100565b9150506001600160401b036060850151166080840152608084015160a084015260a0840151601f198483030160c085015261028082826110d4565b600060c08284031215610f8057600080fd5b634e487b7160e01b600052604160045260246000fd5b604080519081016001600160401b0381118282101715611219576112196111e1565b60405290565b60405160c081016001600160401b0381118282101715611219576112196111e1565b604051606081016001600160401b0381118282101715611219576112196111e1565b604051601f8201601f191681016001600160401b038111828210171561128b5761128b6111e1565b604052919050565b60008082840360608112156112a757600080fd5b83356001600160401b038111156112bd57600080fd5b6112c9868287016111cf565b9350506040601f19820112156112de57600080fd5b506112e76111f7565b6020840135600281106112f957600080fd5b8152604084013561130981610f86565b6020820152919491935090915050565b821515815260406020820152600061133460408301846110d4565b949350505050565b6001600160401b0381168114610f9b57600080fd5b803561135c8161133c565b919050565b60006001600160401b0382111561137a5761137a6111e1565b5060051b60200190565b60006040828403121561139657600080fd5b61139e6111f7565b905081356113ab8161133c565b815260208201356001600160401b038111156113c657600080fd5b8201601f810184136113d757600080fd5b80356113ea6113e582611361565b611263565b8082825260208201915060208360051b85010192508683111561140c57600080fd5b6020840193505b8284101561143757833561142681610f86565b825260209384019390910190611413565b60208501525091949350505050565b803560ff8116811461135c57600080fd5b60006001600160401b03821115611470576114706111e1565b50601f01601f191660200190565b600082601f83011261148f57600080fd5b813561149d6113e582611457565b8181528460208386010111156114b257600080fd5b816020850160208301376000918101602001919091529392505050565b6000604082840312156114e157600080fd5b6114e96111f7565b90506114f482611446565b815260208201356001600160401b0381111561150f57600080fd5b61151b8482850161147e565b60208301525092915050565b60006040828403121561153957600080fd5b6115416111f7565b905081356001600160401b0381111561155957600080fd5b61156584828501611384565b82525060208201356001600160401b0381111561158157600080fd5b61151b848285016114cf565b6000806000606084860312156115a257600080fd5b83356001600160401b038111156115b857600080fd5b6115c486828701611527565b93505060208401356001600160401b038111156115e057600080fd5b6115ec86828701611527565b93969395505050506040919091013590565b6000806040838503121561161157600080fd5b82356001600160401b0381111561162757600080fd5b611633858286016111cf565b92505060208301356001600160401b0381111561164f57600080fd5b61165b85828601610f6e565b9150509250929050565b60208101600283106116795761167961101f565b91905290565b60038110610f9b57600080fd5b803561135c8161167f565b6000806000606084860312156116ac57600080fd5b83356001600160401b038111156116c257600080fd5b6116ce868287016111cf565b93505060208401356116df8161167f565b915060408401356001600160401b038111156116fa57600080fd5b6117068682870161147e565b9150509250925092565b600080600080600060a0868803121561172857600080fd5b85356001600160401b0381111561173e57600080fd5b61174a88828901611527565b95505060208601356001600160401b0381111561176657600080fd5b61177288828901611527565b9450506040860135925060608601356001600160e01b03198116811461179757600080fd5b915060808601356001600160401b038111156117b257600080fd5b6117be8882890161147e565b9150509295509295909350565b600080602083850312156117de57600080fd5b82356001600160401b038111156117f457600080fd5b8301601f8101851361180557600080fd5b80356001600160401b0381111561181b57600080fd5b8560208260051b840101111561183057600080fd5b6020919091019590945092505050565b600060c0828403121561185257600080fd5b61185a61121f565b90506118658261168c565b815260208201356001600160401b0381111561188057600080fd5b61188c84828501611527565b60208301525060408201356001600160401b038111156118ab57600080fd5b6118b784828501611527565b6040830152506118c960608301611351565b60608201526080828101359082015260a08201356001600160401b038111156118f157600080fd5b6118fd8482850161147e565b60a08301525092915050565b60006020828403121561191b57600080fd5b81356001600160401b0381111561193157600080fd5b8201601f8101841361194257600080fd5b80356119506113e582611361565b8082825260208201915060208360051b85010192508683111561197257600080fd5b602084015b838110156119b35780356001600160401b0381111561199557600080fd5b6119a489602083890101611840565b84525060209283019201611977565b509695505050505050565b60006106393683611384565b602081526000610aef6020830184611045565b6000602082840312156119ef57600080fd5b81516001600160401b03811115611a0557600080fd5b820160408185031215611a1757600080fd5b611a1f6111f7565b8151611a2a8161133c565b815260208201516001600160401b03811115611a4557600080fd5b80830192505084601f830112611a5a57600080fd5b8151611a686113e582611361565b8082825260208201915060208360051b860101925087831115611a8a57600080fd5b6020850194505b82851015611ab5578451611aa481610f86565b825260209485019490910190611a91565b6020840152509095945050505050565b600061063936836114cf565b60006106393683611840565b60008235603e19833603018112611af357600080fd5b9190910192915050565b600060208284031215611b0f57600080fd5b8135610aef8161167f565b60008235603e19833603018112611b3057600080fd5b90910192915050565b6000808335601e19843603018112611b5057600080fd5b83016020810192503590506001600160401b03811115611b6f57600080fd5b8036038213156103ea57600080fd5b81835281816020850137506000828201602090810191909152601f909101601f19169091010190565b60ff611bb282611446565b1682526000611bc46020830183611b39565b60406020860152610280604086018284611b7e565b6000611be58283611b1a565b60408452608084018135611bf88161133c565b6001600160401b03166040860152602082013536839003601e19018112611c1e57600080fd5b6020920191820191356001600160401b03811115611c3b57600080fd5b8060051b3603831315611c4d57600080fd5b604060608701529081905260009060a086015b81831015611c91578335611c7381610f86565b6001600160a01b031681526020938401936001939093019201611c60565b611c9e6020870187611b1a565b93508681036020880152611cb28185611ba7565b979650505050505050565b6020815260008235611cce8161167f565b611cd781611035565b80602084015250611ceb6020840184611b1a565b60c06040840152611cff60e0840182611bd9565b9050611d0e6040850185611b1a565b838203601f19016060850152611d248282611bd9565b9150506060840135611d358161133c565b6001600160401b0381166080850152506000608085013590508060a085015250611d6260a0850185611b39565b848303601f190160c0860152611d79838284611b7e565b9695505050505050565b604081526000611d966040830185611045565b82810360208401526102808185611045565b600060208284031215611dba57600080fd5b81518015158114610aef57600080fd5b60006106393683611527565b602081528151602082015260006020830151611df181611035565b80604084015250604083015160608084015261133460808401826110d4565b602081526000825160406020840152611e2c60608401826110d4565b90506020840151601f1984830301604085015261028082826110d4565b634e487b7160e01b600052603260045260246000fd5b6000823560be19833603018112611af357600080fd5b600060208284031215611e8757600080fd5b8135610aef8161133c565b60ff8151168252600060208201516040602085015261133460408501826110d4565b6000815160408452608084016001600160401b038251166040860152602082015191506040606086015280825180835260a087019150602084019350600092505b80831015611f205783516001600160a01b031682526020938401936001939093019290910190611ef5565b50602085015192508581036020870152611d798184611e92565b60008151611f4781611035565b80845250602082015160c06020850152611f6460c0850182611eb4565b905060408301518482036040860152611f7d8282611eb4565b9150506001600160401b0360608401511660608501526080830151608085015260a083015184820360a086015261028082826110d4565b6000602082016020835280845180835260408501915060408160051b86010192506020860160005b8281101561200d57603f19878603018452611ff8858351611f3a565b94506020938401939190910190600101611fdc565b50929695505050505050565b602081526001600160401b0382511660208201526001600160801b0360208301511660408201526000604083015160608084015261133460808401826110d4565b60006020828403121561206c57600080fd5b81516001600160401b0381111561208257600080fd5b82016060818503121561209457600080fd5b61209c611241565b81516120a78161133c565b815260208201516001600160801b03811681146120c357600080fd5b602082015260408201516001600160401b038111156120e157600080fd5b80830192505084601f8301126120f657600080fd5b81516121046113e582611457565b81815286602083860101111561211957600080fd5b61212a8260208301602087016110b0565b604083015250949350505050565b602081526000610aef6020830184611f3a565b6001600160e01b031983168152815160009061216e8160048501602087016110b0565b919091016004019392505050565b60008251611af38184602087016110b056fea2646970667358221220bbe04c9592a142b0aea62d5d76a7f3a5867bc1c7d9548fc89ce7962ff13b5afc64736f6c634300081a0033","linkReferences":{"contracts/lib/SubnetIDHelper.sol":{"SubnetIDHelper":[{"start":567,"length":20},{"start":1238,"length":20},{"start":1369,"length":20},{"start":1498,"length":20},{"start":1703,"length":20}]}}},"methodIdentifiers":{"applyType(IpcEnvelope,SubnetID)":"855f7e45","createCallMsg(IPCAddress,IPCAddress,uint256,bytes4,bytes)":"9b814ea0","createFundMsg(SubnetID,address,FvmAddress,uint256)":"99aa0eb4","createReleaseMsg(SubnetID,address,FvmAddress,uint256)":"1860845e","createResultMsg(IpcEnvelope,OutcomeType,bytes)":"9b7df85a","createTransferMsg(IPCAddress,IPCAddress,uint256)":"5404605f","execute(IpcEnvelope,Asset)":"3f74f188","isSorted(IpcEnvelope[])":"dd1fcec7","toHash(IpcEnvelope[])":"f43cec67"},"id":25}