{"abi":[{"type":"function","name":"activeValidatorsLimit","inputs":[],"outputs":[{"name":"","type":"uint16","internalType":"uint16"}],"stateMutability":"view"},{"type":"function","name":"bootstrapped","inputs":[],"outputs":[{"name":"","type":"bool","internalType":"bool"}],"stateMutability":"view"},{"type":"function","name":"bottomUpCheckPeriod","inputs":[],"outputs":[{"name":"","type":"uint256","internalType":"uint256"}],"stateMutability":"view"},{"type":"function","name":"bottomUpCheckpointAtEpoch","inputs":[{"name":"epoch","type":"uint256","internalType":"uint256"}],"outputs":[{"name":"exists","type":"bool","internalType":"bool"},{"name":"checkpoint","type":"tuple","internalType":"struct BottomUpCheckpoint","components":[{"name":"subnetID","type":"tuple","internalType":"struct SubnetID","components":[{"name":"root","type":"uint64","internalType":"uint64"},{"name":"route","type":"address[]","internalType":"address[]"}]},{"name":"blockHeight","type":"uint256","internalType":"uint256"},{"name":"blockHash","type":"bytes32","internalType":"bytes32"},{"name":"nextConfigurationNumber","type":"uint64","internalType":"uint64"},{"name":"msgs","type":"tuple[]","internalType":"struct IpcEnvelope[]","components":[{"name":"kind","type":"uint8","internalType":"enum IpcMsgKind"},{"name":"to","type":"tuple","internalType":"struct IPCAddress","components":[{"name":"subnetId","type":"tuple","internalType":"struct SubnetID","components":[{"name":"root","type":"uint64","internalType":"uint64"},{"name":"route","type":"address[]","internalType":"address[]"}]},{"name":"rawAddress","type":"tuple","internalType":"struct FvmAddress","components":[{"name":"addrType","type":"uint8","internalType":"uint8"},{"name":"payload","type":"bytes","internalType":"bytes"}]}]},{"name":"from","type":"tuple","internalType":"struct IPCAddress","components":[{"name":"subnetId","type":"tuple","internalType":"struct SubnetID","components":[{"name":"root","type":"uint64","internalType":"uint64"},{"name":"route","type":"address[]","internalType":"address[]"}]},{"name":"rawAddress","type":"tuple","internalType":"struct FvmAddress","components":[{"name":"addrType","type":"uint8","internalType":"uint8"},{"name":"payload","type":"bytes","internalType":"bytes"}]}]},{"name":"nonce","type":"uint64","internalType":"uint64"},{"name":"value","type":"uint256","internalType":"uint256"},{"name":"message","type":"bytes","internalType":"bytes"}]}]}],"stateMutability":"view"},{"type":"function","name":"bottomUpCheckpointHashAtEpoch","inputs":[{"name":"epoch","type":"uint256","internalType":"uint256"}],"outputs":[{"name":"","type":"bool","internalType":"bool"},{"name":"","type":"bytes32","internalType":"bytes32"}],"stateMutability":"view"},{"type":"function","name":"collateralSource","inputs":[],"outputs":[{"name":"supply","type":"tuple","internalType":"struct Asset","components":[{"name":"kind","type":"uint8","internalType":"enum AssetKind"},{"name":"tokenAddress","type":"address","internalType":"address"}]}],"stateMutability":"view"},{"type":"function","name":"consensus","inputs":[],"outputs":[{"name":"","type":"uint8","internalType":"enum ConsensusType"}],"stateMutability":"view"},{"type":"function","name":"crossMsgsHash","inputs":[{"name":"messages","type":"tuple[]","internalType":"struct IpcEnvelope[]","components":[{"name":"kind","type":"uint8","internalType":"enum IpcMsgKind"},{"name":"to","type":"tuple","internalType":"struct IPCAddress","components":[{"name":"subnetId","type":"tuple","internalType":"struct SubnetID","components":[{"name":"root","type":"uint64","internalType":"uint64"},{"name":"route","type":"address[]","internalType":"address[]"}]},{"name":"rawAddress","type":"tuple","internalType":"struct FvmAddress","components":[{"name":"addrType","type":"uint8","internalType":"uint8"},{"name":"payload","type":"bytes","internalType":"bytes"}]}]},{"name":"from","type":"tuple","internalType":"struct IPCAddress","components":[{"name":"subnetId","type":"tuple","internalType":"struct SubnetID","components":[{"name":"root","type":"uint64","internalType":"uint64"},{"name":"route","type":"address[]","internalType":"address[]"}]},{"name":"rawAddress","type":"tuple","internalType":"struct FvmAddress","components":[{"name":"addrType","type":"uint8","internalType":"uint8"},{"name":"payload","type":"bytes","internalType":"bytes"}]}]},{"name":"nonce","type":"uint64","internalType":"uint64"},{"name":"value","type":"uint256","internalType":"uint256"},{"name":"message","type":"bytes","internalType":"bytes"}]}],"outputs":[{"name":"","type":"bytes32","internalType":"bytes32"}],"stateMutability":"pure"},{"type":"function","name":"genesisBalances","inputs":[],"outputs":[{"name":"","type":"address[]","internalType":"address[]"},{"name":"","type":"uint256[]","internalType":"uint256[]"}],"stateMutability":"view"},{"type":"function","name":"genesisCircSupply","inputs":[],"outputs":[{"name":"","type":"uint256","internalType":"uint256"}],"stateMutability":"view"},{"type":"function","name":"genesisValidators","inputs":[],"outputs":[{"name":"","type":"tuple[]","internalType":"struct Validator[]","components":[{"name":"weight","type":"uint256","internalType":"uint256"},{"name":"addr","type":"address","internalType":"address"},{"name":"metadata","type":"bytes","internalType":"bytes"},{"name":"storageAmount","type":"uint256","internalType":"uint256"}]}],"stateMutability":"view"},{"type":"function","name":"getActiveValidatorsNumber","inputs":[],"outputs":[{"name":"","type":"uint16","internalType":"uint16"}],"stateMutability":"view"},{"type":"function","name":"getBootstrapNodes","inputs":[],"outputs":[{"name":"","type":"string[]","internalType":"string[]"}],"stateMutability":"view"},{"type":"function","name":"getConfigurationNumbers","inputs":[],"outputs":[{"name":"","type":"uint64","internalType":"uint64"},{"name":"","type":"uint64","internalType":"uint64"}],"stateMutability":"view"},{"type":"function","name":"getParent","inputs":[],"outputs":[{"name":"","type":"tuple","internalType":"struct SubnetID","components":[{"name":"root","type":"uint64","internalType":"uint64"},{"name":"route","type":"address[]","internalType":"address[]"}]}],"stateMutability":"view"},{"type":"function","name":"getPower","inputs":[{"name":"validator","type":"address","internalType":"address"}],"outputs":[{"name":"","type":"uint256","internalType":"uint256"}],"stateMutability":"view"},{"type":"function","name":"getTotalCollateral","inputs":[],"outputs":[{"name":"","type":"uint256","internalType":"uint256"}],"stateMutability":"view"},{"type":"function","name":"getTotalConfirmedCollateral","inputs":[],"outputs":[{"name":"","type":"uint256","internalType":"uint256"}],"stateMutability":"view"},{"type":"function","name":"getTotalConfirmedStorage","inputs":[],"outputs":[{"name":"","type":"uint256","internalType":"uint256"}],"stateMutability":"view"},{"type":"function","name":"getTotalValidatorCollateral","inputs":[{"name":"validator","type":"address","internalType":"address"}],"outputs":[{"name":"","type":"uint256","internalType":"uint256"}],"stateMutability":"view"},{"type":"function","name":"getTotalValidatorStorage","inputs":[{"name":"validator","type":"address","internalType":"address"}],"outputs":[{"name":"","type":"uint256","internalType":"uint256"}],"stateMutability":"view"},{"type":"function","name":"getTotalValidatorsNumber","inputs":[],"outputs":[{"name":"","type":"uint16","internalType":"uint16"}],"stateMutability":"view"},{"type":"function","name":"getValidator","inputs":[{"name":"validatorAddress","type":"address","internalType":"address"}],"outputs":[{"name":"validator","type":"tuple","internalType":"struct ValidatorInfo","components":[{"name":"federatedPower","type":"uint256","internalType":"uint256"},{"name":"confirmedCollateral","type":"uint256","internalType":"uint256"},{"name":"totalCollateral","type":"uint256","internalType":"uint256"},{"name":"metadata","type":"bytes","internalType":"bytes"},{"name":"totalStorage","type":"uint256","internalType":"uint256"},{"name":"confirmedStorage","type":"uint256","internalType":"uint256"}]}],"stateMutability":"view"},{"type":"function","name":"ipcGatewayAddr","inputs":[],"outputs":[{"name":"","type":"address","internalType":"address"}],"stateMutability":"view"},{"type":"function","name":"isActiveValidator","inputs":[{"name":"validator","type":"address","internalType":"address"}],"outputs":[{"name":"","type":"bool","internalType":"bool"}],"stateMutability":"view"},{"type":"function","name":"isWaitingValidator","inputs":[{"name":"validator","type":"address","internalType":"address"}],"outputs":[{"name":"","type":"bool","internalType":"bool"}],"stateMutability":"view"},{"type":"function","name":"killed","inputs":[],"outputs":[{"name":"","type":"bool","internalType":"bool"}],"stateMutability":"view"},{"type":"function","name":"lastBottomUpCheckpointHeight","inputs":[],"outputs":[{"name":"","type":"uint256","internalType":"uint256"}],"stateMutability":"view"},{"type":"function","name":"majorityPercentage","inputs":[],"outputs":[{"name":"","type":"uint8","internalType":"uint8"}],"stateMutability":"view"},{"type":"function","name":"minActivationCollateral","inputs":[],"outputs":[{"name":"","type":"uint256","internalType":"uint256"}],"stateMutability":"view"},{"type":"function","name":"minValidators","inputs":[],"outputs":[{"name":"","type":"uint64","internalType":"uint64"}],"stateMutability":"view"},{"type":"function","name":"permissionMode","inputs":[],"outputs":[{"name":"","type":"uint8","internalType":"enum PermissionMode"}],"stateMutability":"view"},{"type":"function","name":"powerScale","inputs":[],"outputs":[{"name":"","type":"int8","internalType":"int8"}],"stateMutability":"view"},{"type":"function","name":"supplySource","inputs":[],"outputs":[{"name":"supply","type":"tuple","internalType":"struct Asset","components":[{"name":"kind","type":"uint8","internalType":"enum AssetKind"},{"name":"tokenAddress","type":"address","internalType":"address"}]}],"stateMutability":"view"},{"type":"function","name":"tokensPerStorageRatio","inputs":[],"outputs":[{"name":"supply","type":"uint256","internalType":"uint256"}],"stateMutability":"view"}],"bytecode":{"object":"0x6080604052348015600f57600080fd5b50611d818061001f6000396000f3fe608060405234801561001057600080fd5b50600436106102115760003560e01c806383873aeb11610125578063b6797d3c116100ad578063d081be031161007c578063d081be0314610485578063d6eb59101461027e578063d92e8f1214610498578063e02d971b146104ad578063f0cf6c96146104c057600080fd5b8063b6797d3c1461043f578063c5ab224114610447578063c7cda76214610462578063cfca28241461046a57600080fd5b806395b7215e116100f457806395b7215e146103f75780639754b29e146103ff5780639e33bd0214610414578063ad81e4d61461041c578063b42c905b1461043757600080fd5b806383873aeb146103ac5780638ef3f761146103bf578063903e6930146103d9578063948628a9146103ef57600080fd5b806340550a1c116101a8578063599c7bd111610177578063599c7bd1146103485780635dd9147c1461036757806372d0a0e01461037a57806380875df71461038257806380f760211461039757600080fd5b806340550a1c146102e25780634b0694e2146102f55780634b27aa721461031f57806352d182d11461034057600080fd5b8063332a5ac9116101e4578063332a5ac91461027e5780633354c3e11461028657806335142c8c146102a657806338a210b3146102b857600080fd5b806306c46853146102165780631597bf7e1461022d5780631904bb2e146102405780631f3a0e4114610260575b600080fd5b6003545b6040519081526020015b60405180910390f35b61021a61023b3660046113e7565b6104d3565b61025361024e3660046113e7565b6104f6565b6040516102249190611448565b600654600160401b900460ff165b6040519015158152602001610224565b61021a610630565b600b54610100900461ffff165b60405161ffff9091168152602001610224565b600554600160f81b900460ff1661026e565b601554604080516001600160401b038084168252600160401b909304909216602083015201610224565b61026e6102f03660046113e7565b61063f565b6103086103033660046114a2565b61064a565b604080519215158352602083019190915201610224565b61033261032d3660046114a2565b610690565b6040516102249291906116b7565b610293610bf6565b600554600160e01b900460ff1660405160ff9091168152602001610224565b61021a6103753660046113e7565b610c00565b60015461021a565b61038a610c0b565b60405161022491906116da565b61039f610c71565b604051610224919061170d565b61021a6103ba3660046113e7565b610d06565b600554600160f01b900460ff166040516102249190611720565b6103e1610d85565b60405161022492919061173a565b60005461021a565b61021a610ecd565b610407610f3c565b60405161022491906117c5565b60025461021a565b600554604051600160e81b90910460000b8152602001610224565b60195461021a565b61038a6110bb565b6006546040516001600160401b039091168152602001610224565b6102936110f3565b6005546040516001600160a01b039091168152602001610224565b61026e6104933660046113e7565b6110fd565b6104a0611108565b604051610224919061182a565b61021a6104bb3660046118b7565b611226565b600b5460ff16604051610224919061192c565b6001600160a01b0381166000908152600d60205260408120600201545b92915050565b61052f6040518060c001604052806000815260200160008152602001600081526020016060815260200160008152602001600081525090565b6000600b016002016000836001600160a01b03166001600160a01b031681526020019081526020016000206040518060c001604052908160008201548152602001600182015481526020016002820154815260200160038201805461059390611939565b80601f01602080910402602001604051908101604052809291908181526020018280546105bf90611939565b801561060c5780601f106105e15761010080835404028352916020019161060c565b820191906000526020600020905b8154815290600101906020018083116105ef57829003601f168201915b50505050508152602001600482015481526020016005820154815250509050919050565b600061063a611259565b905090565b60006104f082611268565b60008060008061065985610690565b91509150818160405160200161066f9190611973565b60405160208183030381529060405280519060200120935093505050915091565b60006106d06040805160e081018252600060a08201818152606060c084018190529083526020830182905292820181905282820152608081019190915290565b6000838152601d6020908152604091829020825160e08101845281546001600160401b031660a082019081526001830180548651818702810187019097528087529295939486949293869360c0870193909290919083018282801561075e57602002820191906000526020600020905b81546001600160a01b03168152600190910190602001808311610740575b505050505081525050815260200160028201548152602001600382015481526020016004820160009054906101000a90046001600160401b03166001600160401b03166001600160401b0316815260200160058201805480602002602001604051908101604052809291908181526020016000905b82821015610b6c576000848152602090206040805160c08101909152600c84029091018054829060ff16600281111561080e5761080e611526565b600281111561081f5761081f611526565b8152604080516080810182526001840180546001600160401b03168284019081526002860180548551602082810282018101909752818152968601969495939486948693606087019390918301828280156108a357602002820191906000526020600020905b81546001600160a01b03168152600190910190602001808311610885575b5050509190925250505081526040805180820190915260028301805460ff168252600384018054602094850194840191906108dd90611939565b80601f016020809104026020016040519081016040528092919081815260200182805461090990611939565b80156109565780601f1061092b57610100808354040283529160200191610956565b820191906000526020600020905b81548152906001019060200180831161093957829003601f168201915b505050919092525050509052508152604080516080810182526005840180546001600160401b03168284019081526006860180548551602082810282018101909752818152968601969495939486948693606087019390918301828280156109e757602002820191906000526020600020905b81546001600160a01b031681526001909101906020018083116109c9575b5050509190925250505081526040805180820190915260028301805460ff16825260038401805460209485019484019190610a2190611939565b80601f0160208091040260200160405190810160405280929190818152602001828054610a4d90611939565b8015610a9a5780601f10610a6f57610100808354040283529160200191610a9a565b820191906000526020600020905b815481529060010190602001808311610a7d57829003601f168201915b50505091909252505050905250815260098201546001600160401b03166020820152600a8201546040820152600b82018054606090920191610adb90611939565b80601f0160208091040260200160405190810160405280929190818152602001828054610b0790611939565b8015610b545780601f10610b2957610100808354040283529160200191610b54565b820191906000526020600020905b815481529060010190602001808311610b3757829003601f168201915b505050505081525050815260200190600101906107d3565b505050915250508051604051630c133d1360e31b815291925073__$3fbe32418a9ca7804328967972fb037388$__91636099e89891610bad91600401611986565b602060405180830381865af4158015610bca573d6000803e3d6000fd5b505050506040513d601f19601f82011682018060405250810190610bee91906119e5565b159150915091565b600061063a61127d565b60006104f082611299565b60408051808201909152600080825260208201526040805180820190915260078054829060ff166001811115610c4357610c43611526565b6001811115610c5457610c54611526565b8152905461010090046001600160a01b0316602090910152919050565b604080518082019091526000815260606020820152604080518082018252600980546001600160401b03168252600a80548451602082810282018101909652818152939492938386019390929190830182828015610cf857602002820191906000526020600020905b81546001600160a01b03168152600190910190602001808311610cda575b505050505081525050905090565b604051631886157b60e01b81526001600160a01b038216600482015260009073__$58801a7a4e78cbbcd9d24532392b6c9267$__90631886157b90602401602060405180830381865af4158015610d61573d6000803e3d6000fd5b505050506040513d601f19601f820116820180604052508101906104f09190611a07565b60205460609081906000816001600160401b03811115610da757610da7611a20565b604051908082528060200260200182016040528015610dd0578160200160208202803683370190505b5090506000826001600160401b03811115610ded57610ded611a20565b604051908082528060200260200182016040528015610e16578160200160208202803683370190505b50905060005b83811015610ec2576000806020018281548110610e3b57610e3b611a36565b9060005260206000200160009054906101000a90046001600160a01b0316905080848381518110610e6e57610e6e611a36565b6001600160a01b039283166020918202929092018101919091529082166000908152601f90915260409020548351849084908110610eae57610eae611a36565b602090810291909101015250600101610e1c565b509094909350915050565b600073__$58801a7a4e78cbbcd9d24532392b6c9267$__6395b7215e6040518163ffffffff1660e01b8152600401602060405180830381865af4158015610f18573d6000803e3d6000fd5b505050506040513d601f19601f8201168201806040525081019061063a9190611a07565b60606000610f4a601b6112a7565b90506000816001600160401b03811115610f6657610f66611a20565b604051908082528060200260200182016040528015610f9957816020015b6060815260200190600190039081610f845790505b50905081600003610faa5792915050565b6000610fb6601b6112b1565b905060005b838110156110b2576000601a016000838381518110610fdc57610fdc611a36565b60200260200101516001600160a01b03166001600160a01b03168152602001908152602001600020805461100f90611939565b80601f016020809104026020016040519081016040528092919081815260200182805461103b90611939565b80156110885780601f1061105d57610100808354040283529160200191611088565b820191906000526020600020905b81548152906001019060200180831161106b57829003601f168201915b505050505083828151811061109f5761109f611a36565b6020908102919091010152600101610fbb565b50909392505050565b60408051808201909152600080825260208201526040805180820190915260088054829060ff166001811115610c4357610c43611526565b600061063a6112be565b60006104f0826112cb565b60606000601e01805480602002602001604051908101604052809291908181526020016000905b8282101561121d57600084815260209081902060408051608081018252600486029092018054835260018101546001600160a01b0316938301939093526002830180549293929184019161118290611939565b80601f01602080910402602001604051908101604052809291908181526020018280546111ae90611939565b80156111fb5780601f106111d0576101008083540402835291602001916111fb565b820191906000526020600020905b8154815290600101906020018083116111de57829003601f168201915b505050505081526020016003820154815250508152602001906001019061112f565b50505050905090565b6000828260405160200161123b929190611c0f565b60405160208183030381529060405280519060200120905092915050565b600c5460009081905b91505090565b600080611276600e846112d5565b9392505050565b600e5460115460009182916112629161ffff9081169116611d23565b600080611276600b846112fb565b60006104f0825490565b606060006112768361135e565b600080611262600b6113ba565b6000806112766011845b6001600160a01b038116600090815260018301602052604081205461ffff161515611276565b60006001835460ff16600281111561131557611315611526565b0361133b57506001600160a01b03811660009081526002830160205260409020546104f0565b506001600160a01b03166000908152600291909101602052604090206001015490565b6060816000018054806020026020016040519081016040528092919081815260200182805480156113ae57602002820191906000526020600020905b81548152602001906001019080831161139a575b50505050509050919050565b60006104f0826003015461ffff1690565b80356001600160a01b03811681146113e257600080fd5b919050565b6000602082840312156113f957600080fd5b611276826113cb565b6000815180845260005b818110156114285760208185018101518683018201520161140c565b506000602082860101526020601f19601f83011685010191505092915050565b602081528151602082015260208201516040820152604082015160608201526000606083015160c0608084015261148260e0840182611402565b9050608084015160a084015260a084015160c08401528091505092915050565b6000602082840312156114b457600080fd5b5035919050565b6000604083016001600160401b038351168452602083015160406020860152818151808452606087019150602083019350600092505b8083101561151c5783516001600160a01b0316825260209384019360019390930192909101906114f1565b5095945050505050565b634e487b7160e01b600052602160045260246000fd5b6003811061154c5761154c611526565b50565b600081516040845261156460408501826114bb565b90506020830151848203602086015260ff815116825260208101519050604060208301526115956040830182611402565b95945050505050565b6000815160a084526115b360a08501826114bb565b905060208301516020850152604083015160408501526001600160401b0360608401511660608501526080830151848203608086015281815180845260208401915060208160051b85010160208401935060005b828110156116ab57858203601f19018452845180516116258161153c565b80845250602081015160c0602085015261164260c085018261154f565b90506040820151848203604086015261165b828261154f565b9150506001600160401b0360608301511660608501526080820151608085015260a0820151915083810360a08501526116948183611402565b602097880197969096019593505050600101611607565b50979650505050505050565b82151581526040602082015260006116d2604083018461159e565b949350505050565b81516040820190600281106116f1576116f1611526565b82526020928301516001600160a01b0316929091019190915290565b60208152600061127660208301846114bb565b602081016001831061173457611734611526565b91905290565b6040808252835190820181905260009060208501906060840190835b8181101561177d5783516001600160a01b0316835260209384019390920191600101611756565b50508381036020808601919091528551808352918101925085019060005b818110156117b957825184526020938401939092019160010161179b565b50919695505050505050565b6000602082016020835280845180835260408501915060408160051b86010192506020860160005b8281101561181e57603f19878603018452611809858351611402565b945060209384019391909101906001016117ed565b50929695505050505050565b6000602082016020835280845180835260408501915060408160051b86010192506020860160005b8281101561181e57603f1987860301845281518051865260018060a01b0360208201511660208701526040810151608060408801526118946080880182611402565b606092830151979092019690965294506020938401939190910190600101611852565b600080602083850312156118ca57600080fd5b82356001600160401b038111156118e057600080fd5b8301601f810185136118f157600080fd5b80356001600160401b0381111561190757600080fd5b8560208260051b840101111561191c57600080fd5b6020919091019590945092505050565b602081016117348361153c565b600181811c9082168061194d57607f821691505b60208210810361196d57634e487b7160e01b600052602260045260246000fd5b50919050565b602081526000611276602083018461159e565b602080825282516001600160401b03168282015282810151604080840152805160608401819052600092919091019082906080850190801561151c5783516001600160a01b0316825260209384019360019390930192909101906114f1565b6000602082840312156119f757600080fd5b8151801515811461127657600080fd5b600060208284031215611a1957600080fd5b5051919050565b634e487b7160e01b600052604160045260246000fd5b634e487b7160e01b600052603260045260246000fd5b60008235603e19833603018112611a6257600080fd5b90910192915050565b80356001600160401b03811681146113e257600080fd5b6000808335601e19843603018112611a9957600080fd5b83016020810192503590506001600160401b03811115611ab857600080fd5b803603821315611ac757600080fd5b9250929050565b81835281816020850137506000828201602090810191909152601f909101601f19169091010190565b6000813560ff8116808214611b0b57600080fd5b845250611b1b6020830183611a82565b60406020860152611595604086018284611ace565b6000611b3c8283611a4c565b60408452608084016001600160401b03611b5583611a6b565b1660408601526020820135601e19833603018112611b7257600080fd5b6020920191820191356001600160401b03811115611b8f57600080fd5b8060051b3603831315611ba157600080fd5b604060608701529081905260009060a086015b81831015611be3576001600160a01b03611bcd856113cb565b1681526020938401936001939093019201611bb4565b611bf06020870187611a4c565b93508681036020880152611c048185611af7565b979650505050505050565b6020808252810182905260006040600584901b83018101908301858360be1936839003015b87821015611d1657868503603f190184528235818112611c5357600080fd5b8901803560038110611c6457600080fd5b611c6d8161153c565b8652611c7c6020820182611a4c565b60c06020880152611c9060c0880182611b30565b9050611c9f6040830183611a4c565b8782036040890152611cb18282611b30565b9150506001600160401b03611cc860608401611a6b565b16606088015260808281013590880152611ce560a0830183611a82565b925087820360a0890152611cfa828483611ace565b9750505050602083019250602084019350600182019150611c34565b5092979650505050505050565b61ffff81811683821601908111156104f057634e487b7160e01b600052601160045260246000fdfea264697066735822122017f9f04d8e0ffe88688a88368578084513d85f5d93afbf2edfe9dd41dd1b952264736f6c634300081a0033","linkReferences":{"contracts/lib/LibStorageStaking.sol":{"LibStorageStakingGetters":[{"start":3398,"length":20},{"start":3824,"length":20}]},"contracts/lib/SubnetIDHelper.sol":{"SubnetIDHelper":[{"start":2982,"length":20}]}}},"methodIdentifiers":{"activeValidatorsLimit()":"3354c3e1","bootstrapped()":"35142c8c","bottomUpCheckPeriod()":"06c46853","bottomUpCheckpointAtEpoch(uint256)":"4b27aa72","bottomUpCheckpointHashAtEpoch(uint256)":"4b0694e2","collateralSource()":"b6797d3c","consensus()":"8ef3f761","crossMsgsHash((uint8,((uint64,address[]),(uint8,bytes)),((uint64,address[]),(uint8,bytes)),uint64,uint256,bytes)[])":"e02d971b","genesisBalances()":"903e6930","genesisCircSupply()":"948628a9","genesisValidators()":"d92e8f12","getActiveValidatorsNumber()":"c7cda762","getBootstrapNodes()":"9754b29e","getConfigurationNumbers()":"38a210b3","getParent()":"80f76021","getPower(address)":"5dd9147c","getTotalCollateral()":"d6eb5910","getTotalConfirmedCollateral()":"332a5ac9","getTotalConfirmedStorage()":"95b7215e","getTotalValidatorCollateral(address)":"1597bf7e","getTotalValidatorStorage(address)":"83873aeb","getTotalValidatorsNumber()":"52d182d1","getValidator(address)":"1904bb2e","ipcGatewayAddr()":"cfca2824","isActiveValidator(address)":"40550a1c","isWaitingValidator(address)":"d081be03","killed()":"1f3a0e41","lastBottomUpCheckpointHeight()":"72d0a0e0","majorityPercentage()":"599c7bd1","minActivationCollateral()":"9e33bd02","minValidators()":"c5ab2241","permissionMode()":"f0cf6c96","powerScale()":"ad81e4d6","supplySource()":"80875df7","tokensPerStorageRatio()":"b42c905b"},"id":49}