{"abi":[{"type":"function","name":"activeValidatorsLimit","inputs":[],"outputs":[{"name":"","type":"uint16","internalType":"uint16"}],"stateMutability":"view"},{"type":"function","name":"bootstrapped","inputs":[],"outputs":[{"name":"","type":"bool","internalType":"bool"}],"stateMutability":"view"},{"type":"function","name":"bottomUpCheckPeriod","inputs":[],"outputs":[{"name":"","type":"uint256","internalType":"uint256"}],"stateMutability":"view"},{"type":"function","name":"bottomUpCheckpointAtEpoch","inputs":[{"name":"epoch","type":"uint256","internalType":"uint256"}],"outputs":[{"name":"exists","type":"bool","internalType":"bool"},{"name":"checkpoint","type":"tuple","internalType":"struct BottomUpCheckpoint","components":[{"name":"subnetID","type":"tuple","internalType":"struct SubnetID","components":[{"name":"root","type":"uint64","internalType":"uint64"},{"name":"route","type":"address[]","internalType":"address[]"}]},{"name":"blockHeight","type":"uint256","internalType":"uint256"},{"name":"blockHash","type":"bytes32","internalType":"bytes32"},{"name":"nextConfigurationNumber","type":"uint64","internalType":"uint64"},{"name":"msgs","type":"tuple[]","internalType":"struct IpcEnvelope[]","components":[{"name":"kind","type":"uint8","internalType":"enum IpcMsgKind"},{"name":"to","type":"tuple","internalType":"struct IPCAddress","components":[{"name":"subnetId","type":"tuple","internalType":"struct SubnetID","components":[{"name":"root","type":"uint64","internalType":"uint64"},{"name":"route","type":"address[]","internalType":"address[]"}]},{"name":"rawAddress","type":"tuple","internalType":"struct FvmAddress","components":[{"name":"addrType","type":"uint8","internalType":"uint8"},{"name":"payload","type":"bytes","internalType":"bytes"}]}]},{"name":"from","type":"tuple","internalType":"struct IPCAddress","components":[{"name":"subnetId","type":"tuple","internalType":"struct SubnetID","components":[{"name":"root","type":"uint64","internalType":"uint64"},{"name":"route","type":"address[]","internalType":"address[]"}]},{"name":"rawAddress","type":"tuple","internalType":"struct FvmAddress","components":[{"name":"addrType","type":"uint8","internalType":"uint8"},{"name":"payload","type":"bytes","internalType":"bytes"}]}]},{"name":"nonce","type":"uint64","internalType":"uint64"},{"name":"value","type":"uint256","internalType":"uint256"},{"name":"message","type":"bytes","internalType":"bytes"}]}]}],"stateMutability":"view"},{"type":"function","name":"bottomUpCheckpointHashAtEpoch","inputs":[{"name":"epoch","type":"uint256","internalType":"uint256"}],"outputs":[{"name":"","type":"bool","internalType":"bool"},{"name":"","type":"bytes32","internalType":"bytes32"}],"stateMutability":"view"},{"type":"function","name":"collateralSource","inputs":[],"outputs":[{"name":"supply","type":"tuple","internalType":"struct Asset","components":[{"name":"kind","type":"uint8","internalType":"enum AssetKind"},{"name":"tokenAddress","type":"address","internalType":"address"}]}],"stateMutability":"view"},{"type":"function","name":"consensus","inputs":[],"outputs":[{"name":"","type":"uint8","internalType":"enum ConsensusType"}],"stateMutability":"view"},{"type":"function","name":"crossMsgsHash","inputs":[{"name":"messages","type":"tuple[]","internalType":"struct IpcEnvelope[]","components":[{"name":"kind","type":"uint8","internalType":"enum IpcMsgKind"},{"name":"to","type":"tuple","internalType":"struct IPCAddress","components":[{"name":"subnetId","type":"tuple","internalType":"struct SubnetID","components":[{"name":"root","type":"uint64","internalType":"uint64"},{"name":"route","type":"address[]","internalType":"address[]"}]},{"name":"rawAddress","type":"tuple","internalType":"struct FvmAddress","components":[{"name":"addrType","type":"uint8","internalType":"uint8"},{"name":"payload","type":"bytes","internalType":"bytes"}]}]},{"name":"from","type":"tuple","internalType":"struct IPCAddress","components":[{"name":"subnetId","type":"tuple","internalType":"struct SubnetID","components":[{"name":"root","type":"uint64","internalType":"uint64"},{"name":"route","type":"address[]","internalType":"address[]"}]},{"name":"rawAddress","type":"tuple","internalType":"struct FvmAddress","components":[{"name":"addrType","type":"uint8","internalType":"uint8"},{"name":"payload","type":"bytes","internalType":"bytes"}]}]},{"name":"nonce","type":"uint64","internalType":"uint64"},{"name":"value","type":"uint256","internalType":"uint256"},{"name":"message","type":"bytes","internalType":"bytes"}]}],"outputs":[{"name":"","type":"bytes32","internalType":"bytes32"}],"stateMutability":"pure"},{"type":"function","name":"genesisBalances","inputs":[],"outputs":[{"name":"","type":"address[]","internalType":"address[]"},{"name":"","type":"uint256[]","internalType":"uint256[]"}],"stateMutability":"view"},{"type":"function","name":"genesisCircSupply","inputs":[],"outputs":[{"name":"","type":"uint256","internalType":"uint256"}],"stateMutability":"view"},{"type":"function","name":"genesisValidators","inputs":[],"outputs":[{"name":"","type":"tuple[]","internalType":"struct Validator[]","components":[{"name":"weight","type":"uint256","internalType":"uint256"},{"name":"addr","type":"address","internalType":"address"},{"name":"metadata","type":"bytes","internalType":"bytes"},{"name":"storageAmount","type":"uint256","internalType":"uint256"}]}],"stateMutability":"view"},{"type":"function","name":"getActiveValidatorsNumber","inputs":[],"outputs":[{"name":"","type":"uint16","internalType":"uint16"}],"stateMutability":"view"},{"type":"function","name":"getBootstrapNodes","inputs":[],"outputs":[{"name":"","type":"string[]","internalType":"string[]"}],"stateMutability":"view"},{"type":"function","name":"getConfigurationNumbers","inputs":[],"outputs":[{"name":"","type":"uint64","internalType":"uint64"},{"name":"","type":"uint64","internalType":"uint64"}],"stateMutability":"view"},{"type":"function","name":"getParent","inputs":[],"outputs":[{"name":"","type":"tuple","internalType":"struct SubnetID","components":[{"name":"root","type":"uint64","internalType":"uint64"},{"name":"route","type":"address[]","internalType":"address[]"}]}],"stateMutability":"view"},{"type":"function","name":"getPower","inputs":[{"name":"validator","type":"address","internalType":"address"}],"outputs":[{"name":"","type":"uint256","internalType":"uint256"}],"stateMutability":"view"},{"type":"function","name":"getTotalCollateral","inputs":[],"outputs":[{"name":"","type":"uint256","internalType":"uint256"}],"stateMutability":"view"},{"type":"function","name":"getTotalConfirmedCollateral","inputs":[],"outputs":[{"name":"","type":"uint256","internalType":"uint256"}],"stateMutability":"view"},{"type":"function","name":"getTotalConfirmedStorage","inputs":[],"outputs":[{"name":"","type":"uint256","internalType":"uint256"}],"stateMutability":"view"},{"type":"function","name":"getTotalValidatorCollateral","inputs":[{"name":"validator","type":"address","internalType":"address"}],"outputs":[{"name":"","type":"uint256","internalType":"uint256"}],"stateMutability":"view"},{"type":"function","name":"getTotalValidatorStorage","inputs":[{"name":"validator","type":"address","internalType":"address"}],"outputs":[{"name":"","type":"uint256","internalType":"uint256"}],"stateMutability":"view"},{"type":"function","name":"getTotalValidatorsNumber","inputs":[],"outputs":[{"name":"","type":"uint16","internalType":"uint16"}],"stateMutability":"view"},{"type":"function","name":"getValidator","inputs":[{"name":"validatorAddress","type":"address","internalType":"address"}],"outputs":[{"name":"validator","type":"tuple","internalType":"struct ValidatorInfo","components":[{"name":"federatedPower","type":"uint256","internalType":"uint256"},{"name":"confirmedCollateral","type":"uint256","internalType":"uint256"},{"name":"totalCollateral","type":"uint256","internalType":"uint256"},{"name":"metadata","type":"bytes","internalType":"bytes"},{"name":"totalStorage","type":"uint256","internalType":"uint256"},{"name":"confirmedStorage","type":"uint256","internalType":"uint256"}]}],"stateMutability":"view"},{"type":"function","name":"ipcGatewayAddr","inputs":[],"outputs":[{"name":"","type":"address","internalType":"address"}],"stateMutability":"view"},{"type":"function","name":"isActiveValidator","inputs":[{"name":"validator","type":"address","internalType":"address"}],"outputs":[{"name":"","type":"bool","internalType":"bool"}],"stateMutability":"view"},{"type":"function","name":"isWaitingValidator","inputs":[{"name":"validator","type":"address","internalType":"address"}],"outputs":[{"name":"","type":"bool","internalType":"bool"}],"stateMutability":"view"},{"type":"function","name":"killed","inputs":[],"outputs":[{"name":"","type":"bool","internalType":"bool"}],"stateMutability":"view"},{"type":"function","name":"lastBottomUpCheckpointHeight","inputs":[],"outputs":[{"name":"","type":"uint256","internalType":"uint256"}],"stateMutability":"view"},{"type":"function","name":"majorityPercentage","inputs":[],"outputs":[{"name":"","type":"uint8","internalType":"uint8"}],"stateMutability":"view"},{"type":"function","name":"minActivationCollateral","inputs":[],"outputs":[{"name":"","type":"uint256","internalType":"uint256"}],"stateMutability":"view"},{"type":"function","name":"minValidators","inputs":[],"outputs":[{"name":"","type":"uint64","internalType":"uint64"}],"stateMutability":"view"},{"type":"function","name":"permissionMode","inputs":[],"outputs":[{"name":"","type":"uint8","internalType":"enum PermissionMode"}],"stateMutability":"view"},{"type":"function","name":"powerScale","inputs":[],"outputs":[{"name":"","type":"int8","internalType":"int8"}],"stateMutability":"view"},{"type":"function","name":"supplySource","inputs":[],"outputs":[{"name":"supply","type":"tuple","internalType":"struct Asset","components":[{"name":"kind","type":"uint8","internalType":"enum AssetKind"},{"name":"tokenAddress","type":"address","internalType":"address"}]}],"stateMutability":"view"},{"type":"function","name":"tokensPerStorageRatio","inputs":[],"outputs":[{"name":"supply","type":"uint256","internalType":"uint256"}],"stateMutability":"view"}],"bytecode":{"object":"0x608080604052346015576117bb908161001b8239f35b600080fdfe608080604052600436101561001357600080fd5b60003560e01c90816306c4685314610e07575080631597bf7e14610dc35780631904bb2e14610cc35780631f3a0e4114610c9d578063332a5ac9146104c55780633354c3e114610c7857806335142c8c14610c5557806338a210b314610c2557806340550a1c14610be65780634b0694e214610b8e5780634b27aa7214610b5357806352d182d114610b05578063599c7bd114610ae15780635dd9147c14610a6f57806372d0a0e014610a5157806380875df7146109f257806380f760211461095057806383873aeb146108e55780638ef3f761146108b8578063903e693014610785578063948628a91461076757806395b7215e146106d45780639754b29e146106545780639e33bd0214610636578063ad81e4d614610612578063b42c905b146105f4578063b6797d3c1461057b578063c5ab224114610554578063c7cda76214610532578063cfca282414610509578063d081be03146104ca578063d6eb5910146104c5578063d92e8f1214610344578063e02d971b146101cf5763f0cf6c96146101a057600080fd5b346101ca5760003660031901126101ca57602060ff600b5416604051906101c681610efd565b8152f35b600080fd5b346101ca5760203660031901126101ca576004356001600160401b0381116101ca57366023820112156101ca578060040135906001600160401b0382116101ca578160051b36602482840101116101ca57916040519160208301938260408501602087525260608085019185010192602483019260009060e219813603015b838310610277576020898961026c818b03601f1981018352826110c0565b519020604051908152f35b909192939495605f198882030186528635828112156101ca578301906024820180359060038210156101ca5760019360209361032861033693856102bb8897610efd565b835260c46102fc6102e26102d26044880185611618565b60c08a88015260c0870190611692565b6102ef6064880185611618565b8682036040880152611692565b946001600160401b036103116084830161162c565b16606086015260a481013560808601520190611640565b9160a0818503910152611671565b98019601949301919061024e565b346101ca5760003660031901126101ca57601e5461036181611226565b9061036f60405192836110c0565b808252602082018091601e6000527f50bb669a95c7b50b7e8a6f09454034b2b14cf2b85c730dca9a539ca82cb6e350916000905b82821061043f57848660405191829160208301906020845251809152604083019060408160051b85010192916000905b8282106103e257505050500390f35b919360019193955060208091603f1989820301855287519081518152848060a01b038383015116838201526060806104296040850151608060408601526080850190610e38565b93015191015296019201920185949391926103d3565b604051608081018181106001600160401b038211176104af5760019260049260209260405287548152848060a01b038589015416838201526040516104928161048b8160028d016110e1565b03826110c0565b6040820152600388015460608201528152019401910190926103a3565b634e487b7160e01b600052604160045260246000fd5b610e79565b346101ca5760203660031901126101ca576104e3610e22565b60018060a01b03166000526012602052602061ffff604060002054161515604051908152f35b346101ca5760003660031901126101ca576005546040516001600160a01b039091168152602090f35b346101ca5760003660031901126101ca57602061ffff600e5416604051908152f35b346101ca5760003660031901126101ca5760206001600160401b0360065416604051908152f35b346101ca5760003660031901126101ca576105946114bc565b506040516105a18161108a565b6008549060ff82169160028310156105de5791815260089190911c6001600160a01b031660208201526040519081906105da9082611047565b0390f35b634e487b7160e01b600052602160045260246000fd5b346101ca5760003660031901126101ca576020601954604051908152f35b346101ca5760003660031901126101ca57602060055460e81c60000b604051908152f35b346101ca5760003660031901126101ca576020600254604051908152f35b346101ca5760003660031901126101ca5761066d6114ff565b6040518091602082016020835281518091526040830190602060408260051b8601019301916000905b8282106106a557505050500390f35b919360019193955060206106c48192603f198a82030186528851610e38565b9601920192018594939192610696565b346101ca5760003660031901126101ca57604051634adb90af60e11b815260208160048173__$58801a7a4e78cbbcd9d24532392b6c9267$__5af4801561075b57600090610728575b602090604051908152f35b506020813d602011610753575b81610742602093836110c0565b810103126101ca576020905161071d565b3d9150610735565b6040513d6000823e3d90fd5b346101ca5760003660031901126101ca576020600054604051908152f35b346101ca5760003660031901126101ca576020546107a281611226565b906107b060405192836110c0565b808252601f196107bf82611226565b013660208401376107cf81611226565b6107dc60405191826110c0565b8181526107e882611226565b6020820190601f190136823760005b8381101561086057602060009081527fc97bfaf2f8ee708c303a06d134f5ecd8389ae0432af62dc132a24118292866bb820154600192916040916001600160a01b031680610845858b6114d5565b528152601f602052205461085982866114d5565b52016107f7565b509061087e9392506020604051948594604086526040860190610e97565b9184830382860152519182815201919060005b81811061089f575050500390f35b8251845285945060209384019390920191600101610891565b346101ca5760003660031901126101ca5760ff60055460f01c1660405160018210156105de576020918152f35b346101ca5760203660031901126101ca576108fe610e22565b604051631886157b60e01b81526001600160a01b03909116600482015260208160248173__$58801a7a4e78cbbcd9d24532392b6c9267$__5af4801561075b5760009061072857602090604051908152f35b346101ca5760003660031901126101ca57610969611190565b506040516109768161108a565b6001600160401b0360095416815260405190816020600a54918281520190600a60005260206000209060005b8181106109d3576105da85876109ba818803826110c0565b6020820152604051918291602083526020830190610ed4565b82546001600160a01b03168452602090930192600192830192016109a2565b346101ca5760003660031901126101ca57610a0b6114bc565b50604051610a188161108a565b6007549060ff82169160028310156105de5791815260089190911c6001600160a01b031660208201526040519081906105da9082611047565b346101ca5760003660031901126101ca576020600154604051908152f35b346101ca5760203660031901126101ca576020610a8a610e22565b600160ff600b5416610a9b81610efd565b03610ac1576001600160a01b03166000908152600d60205260409020545b604051908152f35b6001600160a01b03166000908152600d6020526040902060010154610ab9565b346101ca5760003660031901126101ca57602060ff60055460e01c16604051908152f35b346101ca5760003660031901126101ca5761ffff6011541661ffff600e54160161ffff8111610b3d5760209061ffff60405191168152f35b634e487b7160e01b600052601160045260246000fd5b346101ca5760203660031901126101ca57610b6f60043561128d565b906105da60405192839215158352604060208401526040830190610f43565b346101ca5760203660031901126101ca576040610bac60043561128d565b8251610bd581610bc760208201946020865287830190610f43565b03601f1981018352826110c0565b519020825191151582526020820152f35b346101ca5760203660031901126101ca57610bff610e22565b60018060a01b0316600052600f602052602061ffff604060002054161515604051908152f35b346101ca5760003660031901126101ca5760406015546001600160401b038251918181168352831c166020820152f35b346101ca5760003660031901126101ca57602060055460f81c6040519015158152f35b346101ca5760003660031901126101ca57602061ffff600b5460081c16604051908152f35b346101ca5760003660031901126101ca57602060ff60065460401c166040519015158152f35b346101ca5760203660031901126101ca57610d24610cdf610e22565b600060a0604051610cef8161106f565b828152826020820152826040820152606080820152826080820152015260018060a01b0316600052600d602052604060002090565b604051610d308161106f565b8154815260018201549160208201928352600281015460408301908152610db2604051610d648161048b81600388016110e1565b6060850190815260056004850154946080870195865201549260a08601938452604051968796602088525160208801525160408701525160608601525160c0608086015260e0850190610e38565b915160a08401525160c08301520390f35b346101ca5760203660031901126101ca5760206002610dfd610de3610e22565b6001600160a01b03166000908152600d6020526040902090565b0154604051908152f35b346101ca5760003660031901126101ca576020906003548152f35b600435906001600160a01b03821682036101ca57565b919082519283825260005b848110610e64575050826000602080949584010152601f8019910116010190565b80602080928401015182828601015201610e43565b346101ca5760003660031901126101ca576020600c54604051908152f35b906020808351928381520192019060005b818110610eb55750505090565b82516001600160a01b0316845260209384019390920191600101610ea8565b9060406020610efa936001600160401b0381511684520151918160208201520190610e97565b90565b600311156105de57565b60406020610efa9381610f21855185845285840190610ed4565b940151908281860391015260ff81511684520151918160208201520190610e38565b6080610f58825160a0855260a0850190610ed4565b9160208101516020850152604081015160408501526001600160401b0360608201511660608501520151916080818303910152815180825260208201916020808360051b8301019401926000915b838310610fb557505050505090565b9091929394602080611038600193601f198682030187528951908151610fda81610efd565b815260a061100a610ff88685015160c08886015260c0850190610f07565b60408501518482036040860152610f07565b926001600160401b0360608201511660608401526080810151608084015201519060a0818403910152610e38565b97019301930191939290610fa6565b815160408201939260028210156105de579082526020908101516001600160a01b0316910152565b60c081019081106001600160401b038211176104af57604052565b604081019081106001600160401b038211176104af57604052565b60a081019081106001600160401b038211176104af57604052565b90601f801991011681019081106001600160401b038211176104af57604052565b600092918154918260011c92600181168015611186575b60208510811461117057848452908115611153575060011461111957505050565b60009081526020812093945091925b838310611139575060209250010190565b600181602092949394548385870101520191019190611128565b915050602093945060ff929192191683830152151560051b010190565b634e487b7160e01b600052602260045260246000fd5b93607f16936110f8565b6040519061119d8261108a565b6060602083600081520152565b906040516111b78161108a565b600181936001600160401b0381541683520190604051809283916020825491828152019160005260206000209060005b81811061120457505050602092916112009103846110c0565b0152565b82546001600160a01b03168452869450602090930192600192830192016111e7565b6001600160401b0381116104af5760051b60200190565b906040519161124b8361108a565b602083611257836111aa565b815260036112856040519461126b8661108a565b60ff600282015416865261048b60405180948193016110e1565b828401520152565b6060608060405161129d816110a5565b6112a5611190565b815260006020820152600060408201526000838201520152600052601d6020526040600020906005604051926112da846110a5565b6112e3816111aa565b845260028101546020850152600381015460408501526001600160401b03600482015416606085015201805461131881611226565b9161132660405193846110c0565b818352602083019060005260206000206000915b8383106114355750505050608083015281516040518091630c133d1360e31b825260206004830152602060648301916001600160401b03815116602485015201519060406044840152815180915260206084840192019060005b818110611413575050509080602092038173__$3fbe32418a9ca7804328967972fb037388$__5af490811561075b576000916113d1575b50159190565b6020813d60201161140b575b816113ea602093836110c0565b8101031261140757519081151582036114045750386113cb565b80fd5b5080fd5b3d91506113dd565b82516001600160a01b0316845285945060209384019390920191600101611394565b600c60206001926040516114488161106f565b60ff86541661145681610efd565b815261146385870161123d565b838201526114736005870161123d565b60408201526001600160401b036009870154166060820152600a86015460808201526040516114a98161048b81600b8b016110e1565b60a082015281520192019201919061133a565b604051906114c98261108a565b60006020838281520152565b80518210156114e95760209160051b010190565b634e487b7160e01b600052603260045260246000fd5b6060601b5461150d81611226565b9161151b60405193846110c0565b818352601f1961152a83611226565b019060005b8281106116085750505080156116045760405160208183815201601b600052817f3ad8aa4f87544323a9d1e5dd902f40c356527a7955687113db5f9a85ad579dc19160005b8581106115ea5750611588925003826110c0565b60005b8281106115985750505090565b6001906001600160a01b036115ad82856114d5565b5116600052601a60205261048b6115ce6040600020604051928380926110e1565b6115d882876114d5565b526115e381866114d5565b500161158b565b915060016020819285548152019301910191839192611574565b5090565b808260208093880101520161152f565b9035603e19823603018112156101ca570190565b35906001600160401b03821682036101ca57565b9035601e19823603018112156101ca5701602081359101916001600160401b0382116101ca5781360383136101ca57565b908060209392818452848401376000828201840152601f01601f1916010190565b61169c8180611618565b906040835260808301916001600160401b036116b78261162c565b1660408501526020810135601e19823603018112156101ca5701602081359101926001600160401b0382116101ca578160051b360384136101ca578190604060608701525260a0840192906000905b80821061175b5750505080602061171e920190611618565b91602081830391015281359160ff83168093036101ca5761174b604091610efa9484526020810190611640565b9190928160208201520191611671565b90919384359060018060a01b0382168092036101ca5760208160019382935201950192019061170656fea2646970667358221220575bf05bed1de6818fdcc170e87bd98bcffb6e4195e291f4bde3e4d1aea9ce7864736f6c634300081a0033","linkReferences":{"contracts/lib/LibStorageStaking.sol":{"LibStorageStakingGetters":[{"start":1813,"length":20},{"start":2366,"length":20}]},"contracts/lib/SubnetIDHelper.sol":{"SubnetIDHelper":[{"start":5058,"length":20}]}}},"methodIdentifiers":{"activeValidatorsLimit()":"3354c3e1","bootstrapped()":"35142c8c","bottomUpCheckPeriod()":"06c46853","bottomUpCheckpointAtEpoch(uint256)":"4b27aa72","bottomUpCheckpointHashAtEpoch(uint256)":"4b0694e2","collateralSource()":"b6797d3c","consensus()":"8ef3f761","crossMsgsHash((uint8,((uint64,address[]),(uint8,bytes)),((uint64,address[]),(uint8,bytes)),uint64,uint256,bytes)[])":"e02d971b","genesisBalances()":"903e6930","genesisCircSupply()":"948628a9","genesisValidators()":"d92e8f12","getActiveValidatorsNumber()":"c7cda762","getBootstrapNodes()":"9754b29e","getConfigurationNumbers()":"38a210b3","getParent()":"80f76021","getPower(address)":"5dd9147c","getTotalCollateral()":"d6eb5910","getTotalConfirmedCollateral()":"332a5ac9","getTotalConfirmedStorage()":"95b7215e","getTotalValidatorCollateral(address)":"1597bf7e","getTotalValidatorStorage(address)":"83873aeb","getTotalValidatorsNumber()":"52d182d1","getValidator(address)":"1904bb2e","ipcGatewayAddr()":"cfca2824","isActiveValidator(address)":"40550a1c","isWaitingValidator(address)":"d081be03","killed()":"1f3a0e41","lastBottomUpCheckpointHeight()":"72d0a0e0","majorityPercentage()":"599c7bd1","minActivationCollateral()":"9e33bd02","minValidators()":"c5ab2241","permissionMode()":"f0cf6c96","powerScale()":"ad81e4d6","supplySource()":"80875df7","tokensPerStorageRatio()":"b42c905b"},"id":49}