{"abi":[{"type":"function","name":"addBootstrapNode","inputs":[{"name":"netAddress","type":"string","internalType":"string"}],"outputs":[],"stateMutability":"nonpayable"},{"type":"function","name":"join","inputs":[{"name":"publicKey","type":"bytes","internalType":"bytes"},{"name":"amount","type":"uint256","internalType":"uint256"},{"name":"storageCommitment","type":"uint256","internalType":"uint256"}],"outputs":[],"stateMutability":"payable"},{"type":"function","name":"kill","inputs":[],"outputs":[],"stateMutability":"nonpayable"},{"type":"function","name":"leave","inputs":[],"outputs":[],"stateMutability":"nonpayable"},{"type":"function","name":"preFund","inputs":[{"name":"amount","type":"uint256","internalType":"uint256"}],"outputs":[],"stateMutability":"payable"},{"type":"function","name":"preRelease","inputs":[{"name":"amount","type":"uint256","internalType":"uint256"}],"outputs":[],"stateMutability":"nonpayable"},{"type":"function","name":"setFederatedPower","inputs":[{"name":"validators","type":"address[]","internalType":"address[]"},{"name":"publicKeys","type":"bytes[]","internalType":"bytes[]"},{"name":"powers","type":"uint256[]","internalType":"uint256[]"}],"outputs":[],"stateMutability":"nonpayable"},{"type":"function","name":"setValidatorGater","inputs":[{"name":"gater","type":"address","internalType":"address"}],"outputs":[],"stateMutability":"nonpayable"},{"type":"function","name":"stake","inputs":[{"name":"amount","type":"uint256","internalType":"uint256"}],"outputs":[],"stateMutability":"payable"},{"type":"function","name":"stakeStorage","inputs":[{"name":"amount","type":"uint256","internalType":"uint256"}],"outputs":[],"stateMutability":"payable"},{"type":"function","name":"unstake","inputs":[{"name":"amount","type":"uint256","internalType":"uint256"}],"outputs":[],"stateMutability":"nonpayable"},{"type":"function","name":"unstakeStorage","inputs":[{"name":"amount","type":"uint256","internalType":"uint256"}],"outputs":[],"stateMutability":"nonpayable"},{"type":"event","name":"ActiveValidatorCollateralUpdated","inputs":[{"name":"validator","type":"address","indexed":false,"internalType":"address"},{"name":"newPower","type":"uint256","indexed":false,"internalType":"uint256"}],"anonymous":false},{"type":"event","name":"ActiveValidatorLeft","inputs":[{"name":"validator","type":"address","indexed":false,"internalType":"address"}],"anonymous":false},{"type":"event","name":"ActiveValidatorReplaced","inputs":[{"name":"oldValidator","type":"address","indexed":false,"internalType":"address"},{"name":"newValidator","type":"address","indexed":false,"internalType":"address"}],"anonymous":false},{"type":"event","name":"NewActiveValidator","inputs":[{"name":"validator","type":"address","indexed":false,"internalType":"address"},{"name":"power","type":"uint256","indexed":false,"internalType":"uint256"}],"anonymous":false},{"type":"event","name":"NewStakingChangeRequest","inputs":[{"name":"op","type":"uint8","indexed":false,"internalType":"enum StakingOperation"},{"name":"validator","type":"address","indexed":false,"internalType":"address"},{"name":"payload","type":"bytes","indexed":false,"internalType":"bytes"},{"name":"configurationNumber","type":"uint64","indexed":false,"internalType":"uint64"}],"anonymous":false},{"type":"event","name":"NewWaitingValidator","inputs":[{"name":"validator","type":"address","indexed":false,"internalType":"address"},{"name":"power","type":"uint256","indexed":false,"internalType":"uint256"}],"anonymous":false},{"type":"event","name":"Paused","inputs":[{"name":"account","type":"address","indexed":false,"internalType":"address"}],"anonymous":false},{"type":"event","name":"SubnetBootstrapped","inputs":[{"name":"","type":"tuple[]","indexed":false,"internalType":"struct Validator[]","components":[{"name":"weight","type":"uint256","internalType":"uint256"},{"name":"addr","type":"address","internalType":"address"},{"name":"metadata","type":"bytes","internalType":"bytes"},{"name":"storageAmount","type":"uint256","internalType":"uint256"}]}],"anonymous":false},{"type":"event","name":"Unpaused","inputs":[{"name":"account","type":"address","indexed":false,"internalType":"address"}],"anonymous":false},{"type":"event","name":"WaitingValidatorCollateralUpdated","inputs":[{"name":"validator","type":"address","indexed":false,"internalType":"address"},{"name":"newPower","type":"uint256","indexed":false,"internalType":"uint256"}],"anonymous":false},{"type":"event","name":"WaitingValidatorLeft","inputs":[{"name":"validator","type":"address","indexed":false,"internalType":"address"}],"anonymous":false},{"type":"error","name":"AddressEmptyCode","inputs":[{"name":"target","type":"address","internalType":"address"}]},{"type":"error","name":"AddressInsufficientBalance","inputs":[{"name":"account","type":"address","internalType":"address"}]},{"type":"error","name":"AddressShouldBeValidator","inputs":[]},{"type":"error","name":"CannotReleaseZero","inputs":[]},{"type":"error","name":"CollateralIsZero","inputs":[]},{"type":"error","name":"DuplicatedGenesisValidator","inputs":[]},{"type":"error","name":"EmptyAddress","inputs":[]},{"type":"error","name":"EnforcedPause","inputs":[]},{"type":"error","name":"ExpectedPause","inputs":[]},{"type":"error","name":"FailedInnerCall","inputs":[]},{"type":"error","name":"InvalidFederationPayload","inputs":[]},{"type":"error","name":"InvalidPublicKeyLength","inputs":[]},{"type":"error","name":"MethodNotAllowed","inputs":[{"name":"reason","type":"string","internalType":"string"}]},{"type":"error","name":"NotAllValidatorsHaveLeft","inputs":[]},{"type":"error","name":"NotEnoughBalance","inputs":[]},{"type":"error","name":"NotEnoughCollateral","inputs":[]},{"type":"error","name":"NotEnoughCollateralForStorageAmount","inputs":[]},{"type":"error","name":"NotEnoughFunds","inputs":[]},{"type":"error","name":"NotEnoughGenesisValidators","inputs":[]},{"type":"error","name":"NotEnoughStorageCommitment","inputs":[]},{"type":"error","name":"NotOwner","inputs":[]},{"type":"error","name":"NotOwnerOfPublicKey","inputs":[]},{"type":"error","name":"NotValidator","inputs":[{"name":"","type":"address","internalType":"address"}]},{"type":"error","name":"PQDoesNotContainAddress","inputs":[]},{"type":"error","name":"PQEmpty","inputs":[]},{"type":"error","name":"ReentrancyError","inputs":[]},{"type":"error","name":"SafeERC20FailedOperation","inputs":[{"name":"token","type":"address","internalType":"address"}]},{"type":"error","name":"SubnetAlreadyBootstrapped","inputs":[]},{"type":"error","name":"SubnetAlreadyKilled","inputs":[]},{"type":"error","name":"SubnetNotBootstrapped","inputs":[]},{"type":"error","name":"WithdrawExceedingCollateral","inputs":[]}],"bytecode":{"object":"0x60808060405234601557614941908161001b8239f35b600080fdfe6080604052600436101561001257600080fd5b6000803560e01c806310fd42611461141c5780631ddee55414610f795780632e17de7814610d8a57806341c0e1b514610cc15780634d9013a114610bf95780634f9a27e814610ba357806366783c9b14610a975780637242749414610a1a578063a694fc3a146108ed578063d66d9e1914610878578063da5d09ee146100f95763dcda8973146100a157600080fd5b346100f65760203660031901126100f6576004356001600160a01b038116908190036100f2576100cf611bf7565b6100d7612fc3565b6bffffffffffffffffffffffff60a01b602154161760215580f35b5080fd5b80fd5b50346100f65760603660031901126100f6576004356001600160401b0381116100f25761012a903690600401611651565b906024356001600160401b0381116108745761014a903690600401611651565b6044356001600160401b03811161087057610169903690600401611651565b919094610174611bf7565b61017c612fc3565b60ff600b5416600381101561085c5760010361082c5782810361081d5781810361081d5760055460f81c156104a0576101b7838783886132b8565b865b8181106101ca575050505050505080f35b6101de6101d8828588613007565b906130fb565b6001600160a01b036101f96101f484868b613048565b613058565b166001600160a01b0390911603610491578061021c6101f461026493858a613048565b610227828689613007565b61023584898d979497613048565b35610250604051968793604060208601526060850191613137565b90604083015203601f1981018552846115de565b6001600160401b03601554169260405161027d816115c3565b60038152602081019082825260018060a01b0384166040820152858d52601660205260408d20918151600681101561047d5760ff80198554169116178355518051906001600160401b038211610469578e906102e9836102e06001880154611681565b600188016116d2565b602091601f84116001146103fd576002949361031c939092836103f2575b50508160011b916000199060031b1c19161790565b60018401555b60400151910180546001600160a01b0319166001600160a01b0392909216919091179055600184016001600160401b0381116103de576001600160401b03166001600160401b03196015541617601555604051906006600310156103c8576001946103b9839260008051602061484c8339815191529560038552888060a01b031660208501526080604085015260808401906119b1565b9060608301520390a1016101b9565b634e487b7160e01b600052602160045260246000fd5b634e487b7160e01b8c52601160045260248cfd5b015190503880610307565b9190601f198416600187018452828420935b8181106104515750916001939185600297969410610438575b505050811b016001840155610322565b015160001960f88460031b161c19169055388080610428565b9293602060018192878601518155019501930161040f565b634e487b7160e01b8f52604160045260248ffd5b634e487b7160e01b8f52602160045260248ffd5b634be9251d60e11b8852600488fd5b6001600160401b036006939293541681111561080e576104c2828783886132b8565b865b8181106105ba575050600580546001600160f81b0316600160f81b17905550506040517f429d165d6b6555ff1fd586b9aeb68cb9499a92aa606cf0e2b9a5edf27b12202a9350915081905061051881612424565b0390a180805461055161053f8261052d611750565b6005546001600160a01b03169061380e565b61054b8461052d611719565b906117f3565b6005549091906001600160a01b0316803b156105b557604484926040519485938492630d66d6c160e41b845260048401528560248401525af180156105aa5761059957505080f35b816105a3916115de565b6100f65780f35b6040513d84823e3d90fd5b505050fd5b6105c86101d8828688613007565b6001600160a01b036105de6101f484868b613048565b166001600160a01b0390911603610491576106056106006101f483858a613048565b613e7d565b6107ff5761062b61061a6101f483858a613048565b610625838789613007565b91612005565b61064e61063c6101f483858a613048565b61064783868b613048565b3590613f1e565b61065c6101f4828489613048565b61066782858a613048565b35906106a061067784888a613007565b6040519461068486611577565b85526001600160a01b039093166020850190815292369161161a565b6040830190815260608301918b8352601e54600160401b8110156107d7578060016106d09201601e55601e6120e0565b9490946107eb57518455516001840180546001600160a01b0319166001600160a01b039290921691909117905551805160028401916001600160401b0382116107d757610727826107218554611681565b856116d2565b6020908d601f841160011461076d579280600395936107609360019a999896926103f25750508160011b916000199060031b1c19161790565b90555b51910155016104c4565b9190601f198416858452828420935b8181106107bf575092600198979694919289938360039896106107a7575b505050811b019055610763565b015160001983881b60f8161c1916905538808061079a565b9293602060018192878601518155019501930161077c565b634e487b7160e01b8d52604160045260248dfd5b634e487b7160e01b8d5260048d905260248dfd5b630472b35360e41b8852600488fd5b63031480b160e51b8752600487fd5b637e65935960e01b8752600487fd5b610858610837612598565b60405163015538b160e01b81526020600482015291829160248301906119b1565b0390fd5b634e487b7160e01b88526021600452602488fd5b8580fd5b8380fd5b50346100f657806003193601126100f65760016000805160206148ac83398151915254146108de5760016000805160206148ac833981519152556108ba611bbb565b6108c2611bf7565b6108ca6119d6565b806000805160206148ac8339815191525580f35b6329f745a760e01b8152600490fd5b5060203660031901126100f657600435610905611bbb565b61090d611bf7565b610915612607565b8015610a0b57336000908152600d60205260409020600201541561099657336000908152600d6020526040902061095b906002015461095483826117f3565b90336129fb565b61096c81610967611719565b611c17565b5060055460f81c61098c57610981903361217f565b6109896124b8565b80f35b6109899033611de0565b50506108586040516109a96060826115de565b602e81527f4d6574686f64206e6f7420616c6c6f7765642069662076616c696461746f722060208201526d1a185cc81b9bdd081a9bda5b995960921b604082015260405191829163015538b160e01b83526020600484015260248301906119b1565b635a78c58160e11b8252600482fd5b5060203660031901126100f657610a2f611bbb565b610a37611bf7565b8073__$903f19875093401f8d119fd5a50910a076$__60055460f81c813b15610a935782906064604051809481936303ab60fb60e61b83526004356004840152346024840152151560448301525af480156105aa576105995750f35b5050fd5b50346100f65760203660031901126100f65760043560016000805160206148ac8339815191525414610b945760016000805160206148ac833981519152558015610b855760055460f81c610b7657610af881610af1611750565b3390612dbb565b5050338252601f60205280604083205410610b6757610b3190338352601f60205260408320610b28828254611787565b90558254611787565b8155338152601f602052604081205415610b5957806000805160206148ac8339815191525580f35b610b6233612ee7565b6108ca565b63569d45cf60e11b8252600482fd5b631b39f2f360e11b8252600482fd5b631036b5ad60e31b8252600482fd5b6329f745a760e01b8252600482fd5b50346100f65760203660031901126100f65760016000805160206148ac83398151915254146108de5760016000805160206148ac83398151915255610be6611bbb565b610bee611bf7565b6108ca600435611800565b5060203660031901126100f6576004358015610b855760055460f81c610b7657610c2581610967611750565b50338252601f602052604082205415610c62575b610c5d90338352601f60205260408320610c548282546117f3565b905582546117f3565b815580f35b602054600160401b811015610cad5790610ca6610c88836001610c5d95016020556117aa565b81546001600160a01b0360039290921b91821b19163390911b179055565b9050610c39565b634e487b7160e01b83526041600452602483fd5b50346100f657806003193601126100f657610cda611bf7565b61ffff6011541661ffff600e54160161ffff8111610d765761ffff16610d67576005548060f81c15610d58576006805468ff00000000000000001916600160401b17905581906001600160a01b0316803b15610d55578180916004604051809481936341c0e1b560e01b83525af180156105aa576105995750f35b50fd5b63dfd06d8f60e01b8252600482fd5b636b62255160e11b8152600490fd5b634e487b7160e01b82526011600452602482fd5b50346100f65760203660031901126100f65760043560016000805160206148ac8339815191525414610b945760016000805160206148ac83398151915255610dd0611bbb565b610dd8611bf7565b8015610f6a57336000908152600d602052604090206002015415610f5757610dfe612607565b336000908152600d6020526040902060020154604051631886157b60e01b815233600482015260208160248173__$58801a7a4e78cbbcd9d24532392b6c9267$__5af4908115610f4c578491610f15575b5082821115610f0757610e628383611787565b906019549081810291811591830414811715610ef357159182610ee9575b5050610eda578061095483610e9493611787565b60055460f81c610ed05780610eac610eba9233612c87565b33610eb5611719565b612dbb565b5050806000805160206148ac8339815191525580f35b610b629033612aae565b63164fc4b360e11b8352600483fd5b1090503880610e80565b634e487b7160e01b86526011600452602486fd5b62d11df360e61b8452600484fd5b90506020813d602011610f44575b81610f30602093836115de565b81010312610f3f575138610e4f565b600080fd5b3d9150610f23565b6040513d86823e3d90fd5b633b4f6e2b60e21b825233600452602482fd5b63c79cad7b60e01b8252600482fd5b5060603660031901126100f657600435906001600160401b0382116100f657366023830112156100f65781600401356001600160401b0381116100f257602483019260248236920101116100f2576024356044359160016000805160206148ac833981519152541461140d5760016000805160206148ac83398151915255610fff611bbb565b611007611bf7565b60055460f81c611400575b81156113f157336000908152600d602052604090206002015461137a576041810361136b57336001600160a01b0361104a83886130fb565b160361135c57839461105c833361287c565b61106883610967611719565b5060055460f81c6110f45761108892916110829133612005565b3361217f565b73__$26f40b5d0ea586b7f80823d45b7ee0265b$__803b15610a9357604051632477197560e21b815233600482015260248101929092528290829060449082905af480156105aa576110df575b50506108ca6124b8565b816110e9916115de565b6100f65780386110d5565b9192935061110336828461161a565b6001600160401b0360155416906040519061111d826115c3565b60028252602082019081526040820190338252838952601660205260408920925160068110156113485760ff801985541691161783556001830190518051906001600160401b03821161133457611178826107218554611681565b6020908b601f84116001146112cc5760029594936111ac939092836103f25750508160011b916000199060031b1c19161790565b90555b51910180546001600160a01b0319166001600160a01b0392909216919091179055600181016001600160401b0381116112b857916112469493916001600160401b0360008051602061484c83398151915294166001600160401b0319601554161760155561123760405193849360028552336020860152608060408601526080850191613137565b9060608301520390a133611de0565b8173__$26f40b5d0ea586b7f80823d45b7ee0265b$__803b156100f257604051638ddb52fb60e01b815233600482015260248101939093528190839060449082905af480156112ab5761129b575b50506108ca565b6112a4916115de565b3881611294565b50604051903d90823e3d90fd5b634e487b7160e01b87526011600452602487fd5b50838c52818c209190601f1984168d5b81811061131c575091600193918560029897969410611303575b505050811b0190556111af565b015160001960f88460031b161c191690553880806112f6565b929360206001819287860151815501950193016112dc565b634e487b7160e01b8b52604160045260248bfd5b634e487b7160e01b8a52602160045260248afd5b634be9251d60e11b8452600484fd5b6318dca5e960e21b8452600484fd5b61085860405161138b6060826115de565b603281527f4d6574686f64206e6f7420616c6c6f7765642069662076616c696461746f72206020820152711a185cc8185b1c9958591e481a9bda5b995960721b604082015260405191829163015538b160e01b83526020600484015260248301906119b1565b635a78c58160e11b8452600484fd5b611408612607565b611012565b6329f745a760e01b8452600484fd5b50346100f65760203660031901126100f6576004356001600160401b0381116100f257366023820112156100f25761145e90369060248160040135910161161a565b90611467611bbb565b338152600f60205261ffff604082205416156115645781511561155557338152601a6020526040812082516001600160401b038111610cad576114b4816114ae8454611681565b846116d2565b6020601f82116001146114f457819084956114e49495926103f25750508160011b916000199060031b1c19161790565b90555b6114f03361306c565b5080f35b82845280842090601f198316855b81811061153d57509583600195969710611524575b505050811b0190556114e7565b015160001960f88460031b161c19169055388080611517565b9192602060018192868b015181550194019201611502565b637138356f60e01b8152600490fd5b633b4f6e2b60e21b815233600452602490fd5b608081019081106001600160401b0382111761159257604052565b634e487b7160e01b600052604160045260246000fd5b604081019081106001600160401b0382111761159257604052565b606081019081106001600160401b0382111761159257604052565b90601f801991011681019081106001600160401b0382111761159257604052565b6001600160401b03811161159257601f01601f191660200190565b929192611626826115ff565b9161163460405193846115de565b829481845281830111610f3f578281602093846000960137010152565b9181601f84011215610f3f578235916001600160401b038311610f3f576020808501948460051b010111610f3f57565b90600182811c921680156116b1575b602083101461169b57565b634e487b7160e01b600052602260045260246000fd5b91607f1691611690565b8181106116c6575050565b600081556001016116bb565b9190601f81116116e157505050565b61170d926000526020600020906020601f840160051c8301931061170f575b601f0160051c01906116bb565b565b9091508190611700565b60405190611726826115a8565b8160085460ff81169060028210156103c85790825260081c6001600160a01b031660209190910152565b6040519061175d826115a8565b8160075460ff81169060028210156103c85790825260081c6001600160a01b031660209190910152565b9190820391821161179457565b634e487b7160e01b600052601160045260246000fd5b6020548110156117c557602060005260206000200190600090565b634e487b7160e01b600052603260045260246000fd5b80548210156117c55760005260206000200190600090565b9190820180921161179457565b611808612607565b6000908015610f6a57604051631886157b60e01b815233600482015260208160248173__$58801a7a4e78cbbcd9d24532392b6c9267$__5af4908115611983578391611951575b50801561193e5781101561192f5760055460f81c156118ce5773__$26f40b5d0ea586b7f80823d45b7ee0265b$__803b156118ca5760405163071bfc3160e11b815233600482015260248101929092528290829060449082905af480156105aa576118b8575050565b6118c38280926115de565b6100f65750565b8280fd5b73__$26f40b5d0ea586b7f80823d45b7ee0265b$__803b156118ca57604051637964e08160e11b81523360048201526024810192909252829082908180604481015b03915af480156105aa57611922575050565b8161192c916115de565b50565b631871c2dd60e01b8252600482fd5b633b4f6e2b60e21b835233600452602483fd5b90506020813d60201161197b575b8161196c602093836115de565b810103126118ca57513861184f565b3d915061195f565b6040513d85823e3d90fd5b60005b8381106119a15750506000910152565b8181015183820152602001611991565b906020916119ca8151809281855285808601910161198e565b601f01601f1916010190565b60055460009060f81c611bae575b336000908152600d6020526040902060020154604051631886157b60e01b81523360048201529060208260248173__$58801a7a4e78cbbcd9d24532392b6c9267$__5af4918215611983578392611b7a575b5080158015611b72575b61193e57611a4e8133612959565b611a57336131fd565b50338352601a6020528260408120611a6f8154611681565b80611b30575b50505060055460f81c15611ad357611a8d9033612aae565b73__$26f40b5d0ea586b7f80823d45b7ee0265b$__803b156118ca5760405163071bfc3160e11b8152336004820152602481019290925282908290818060448101611910565b611afa90611b0493338152601f602052604081205480611b09575b5050610eac8133612c87565b5050601454611787565b601455565b611b2b91338152601f602052611b20828254611787565b9055610eac33612ee7565b611aee565b601f8111600114611b465750555b823880611a75565b81835260208320611b6291601f0160051c8101906001016116bb565b8082528160208120915555611b3e565b508115611a40565b9091506020813d602011611ba6575b81611b96602093836115de565b810103126118ca57519038611a36565b3d9150611b89565b611bb6612607565b6119e4565b60ff7fc451c9429c27db68f286ab8a68f311f1dccab703ba9423aed29cd397ae63f8635416611be657565b63d93c066560e01b60005260046000fd5b60ff60065460401c16611c0657565b63248c8efb60e11b60005260046000fd5b9081519160028310156103c857600092600103611d99576020908101516040516370a0823160e01b8152306004820152926001600160a01b039091169183602481855afa928315610f4c578493611d64575b50602491611ca8602092604051906323b872dd60e01b858301523386830152306044830152606482015260648152611ca26084826115de565b82613404565b6040516370a0823160e01b815230600482015292839182905afa928315611d58578093611d21575b505080821115611ce657611ce391611787565b90565b60405162461bcd60e51b81526020600482015260136024820152724e6f2062616c616e636520696e63726561736560681b6044820152606490fd5b909192506020823d602011611d50575b81611d3e602093836115de565b810103126100f6575051903880611cd0565b3d9150611d31565b604051903d90823e3d90fd5b9092506020813d602011611d91575b81611d80602093836115de565b810103126108745751916024611c69565b3d9150611d73565b508091503410611da65790565b60405162461bcd60e51b8152602060048201526012602482015271496e73756666696369656e742066756e647360701b6044820152606490fd5b91906040519281602085015260208452611dfb6040856115de565b6001600160401b036015541660405194611e14866115c3565b60009586815260208101908282526040810160018060a01b03861692838252858a52601660205260408a2092516006811015611ff15760ff801985541691161783556001830190518051906001600160401b038211611fdd57611e7b826107218554611681565b6020908c601f8411600114611f76576002959493611eaf939092836103f25750508160011b916000199060031b1c19161790565b90555b51910180546001600160a01b0319166001600160a01b0392909216919091179055600183016001600160401b038111611f62576001600160401b03166001600160401b03196015541617601555604051966006811015611f4e5792611f408893849360008051602061484c8339815191529661170d9a9b5260208501526080604085015260808401906119b1565b9060608301520390a1613158565b634e487b7160e01b81526021600452602490fd5b634e487b7160e01b88526011600452602488fd5b9190601f198416858452828420935b818110611fc5575091600193918560029897969410611fac575b505050811b019055611eb2565b015160001960f88460031b161c19169055388080611f9f565b92936020600181928786015181550195019301611f85565b634e487b7160e01b8c52604160045260248cfd5b634e487b7160e01b8b52602160045260248bfd5b6001600160a01b03166000908152600d6020526040902090929190600301906001600160401b03811161159257612040816114ae8454611681565b6000601f82116001146120805781906120719394956000926120755750508160011b916000199060031b1c19161790565b9055565b013590503880610307565b601f198216948382526020822091805b8781106120c85750836001959697106120ae575b505050811b019055565b0135600019600384901b60f8161c191690553880806120a4565b90926020600181928686013581550194019101612090565b80548210156117c55760005260206000209060021b0190600090565b6000929181549161210c83611681565b8083529260018116908115612162575060011461212857505050565b60009081526020812093945091925b838310612148575060209250010190565b600181602092949394548385870101520191019190612137565b915050602093945060ff929192191683830152151560051b010190565b906121ed9061218e8184613158565b6121e46121ba8260016121b38760018060a01b0316600052600d602052604060002090565b01546117f3565b918260016121da8760018060a01b0316600052600d602052604060002090565b0155600c546117f3565b600c5582613472565b60055460f81c156121fb5750565b601e5460009080825b8281106123b2575b505050156122175750565b6001600160a01b0381166000908152600d602052604090206001810154919061226b90612272906003016040519461224e86611577565b8552602085019360018060a01b03168452604051928380926120fc565b03826115de565b60408301908152606083019160008352601e54600160401b811015611592578060016122a39201601e55601e6120e0565b94909461239c57518455516001840180546001600160a01b0319166001600160a01b039290921691909117905551805160028401916001600160401b038211611592576122f4826107218554611681565b602090601f83116001146123325791806123299260039695946000926103f25750508160011b916000199060031b1c19161790565b90555b51910155565b90601f1983169184600052816000209260005b81811061238457509160019391856003989796941061236c575b505050811b01905561232c565b015160001983881b60f8161c1916905538808061235f565b92936020600181928786015181550195019301612345565b634e487b7160e01b600052600060045260246000fd5b60008282101561241057601e90527f50bb669a95c7b50b7e8a6f09454034b2b14cf2b85c730dca9a539ca82cb6e351600282901b01546001600160a01b0386811691161461240257600101612204565b50505050600138808061220c565b634e487b7160e01b81526032600452602490fd5b6020810160208252601e54809152604082019060408160051b84010192601e6000526020600020926000915b83831061245f57505050505090565b909192939460206004600192603f1985820301865288548152838060a01b03848a015416838201526080604082015261249e6080820160028b016120fc565b90606060038b015491015297019301930191939290612450565b600c546002548110156124c85750565b61ffff600e54166001600160401b036006541611156124e45750565b600580546001600160f81b0316600160f81b1790556040517f429d165d6b6555ff1fd586b9aeb68cb9499a92aa606cf0e2b9a5edf27b12202a908061252881612424565b0390a160009081549061254c6125408361052d611750565b61054b8361052d611719565b6005546001600160a01b03169290833b15612594578492916044916040519586948593630d66d6c160e41b8552600485015260248401525af180156105aa57611922575b5050565b8480fd5b604051906125a76080836115de565b6045825264185c1c195960da1b6060837f4d6574686f64206e6f7420616c6c6f776564206966207065726d697373696f6e60208201527f656420697320656e61626c656420616e64207375626e657420626f6f7473747260408201520152565b60ff600b541660038110156103c85761082c57565b60405190612629826115a8565b6009546001600160401b03168252604051600a805480835260009182528491839160208301917fc65a7bb8d6351c1cf70c95a316cc6a92839c986682d98bc35f958f4883f9d2a891905b818110612690575050506020929161268c9103846115de565b0152565b82546001600160a01b0316845286945060209093019260019283019201612673565b602081830312610f3f578051906001600160401b038211610f3f570190604082820312610f3f57604051916126e6836115a8565b80516001600160401b0381168103610f3f5783526020810151906001600160401b038211610f3f570181601f82011215610f3f578051916001600160401b038311611592578260051b916040519361274160208501866115de565b8452602080850193820101918211610f3f57602001915b81831061276a57505050602082015290565b82516001600160a01b0381168103610f3f57815260209283019201612758565b9092919260408252602060808301916001600160401b0381511660408501520151604060608401528051809252602060a0840191019160005b8181106127de575050602091509360018060a01b0316910152565b83516001600160a01b03168352602093840193909201916001016127c3565b919493929060808352602060c08401916001600160401b038151166080860152015190604060a08501528151809152602060e0850192019060005b81811061285d575050506001600160a01b039095166020830152604082015260600152565b82516001600160a01b0316845260209384019390920191600101612838565b60215460009291906001600160a01b031615612954576128bb908361289f61261c565b6040518094819263aa5106cb60e01b835230906004840161278a565b038173__$3fbe32418a9ca7804328967972fb037388$__5af4918215610f4c578492612930575b506021546001600160a01b031691823b15612594579184929183809361291e604051978896879586946307fa355f60e51b8652600486016127fd565b03925af180156105aa57611922575050565b61294d9192503d8086833e61294581836115de565b8101906126b2565b90386128e2565b505050565b60215460009291906001600160a01b0316156129545761297c908361289f61261c565b038173__$3fbe32418a9ca7804328967972fb037388$__5af4918215610f4c5784926129df575b506021546001600160a01b031691823b15612594579184939184809461291e604051978896879586946307fa355f60e51b8652600486016127fd565b6129f49192503d8086833e61294581836115de565b90386129a3565b6021546000939291906001600160a01b031615612aa857612a1f908461289f61261c565b038173__$3fbe32418a9ca7804328967972fb037388$__5af4918215612a9d578592612a81575b506021546001600160a01b031691823b156108705790858094939261291e604051978896879586946307fa355f60e51b8652600486016127fd565b612a969192503d8087833e61294581836115de565b9038612a46565b6040513d87823e3d90fd5b50505050565b91906040519281602085015260208452612ac96040856115de565b6001600160401b036015541660405194612ae2866115c3565b6000956001815260208101908282526040810160018060a01b03861692838252858a52601660205260408a2092516006811015611ff15760ff801985541691161783556001830190518051906001600160401b038211611fdd57612b4a826107218554611681565b6020908c601f8411600114612c20576002959493612b7e939092836103f25750508160011b916000199060031b1c19161790565b90555b51910180546001600160a01b0319166001600160a01b0392909216919091179055600183016001600160401b038111611f62576001600160401b03166001600160401b0319601554161760155560405196600660011015611f4e57509560008051602061484c83398151915292612c12829361170d98996001855260208501526080604085015260808401906119b1565b9060608301520390a161317b565b9190601f198416858452828420935b818110612c6f575091600193918560029897969410612c56575b505050811b019055612b81565b015160001960f88460031b161c19169055388080612c49565b92936020600181928786015181550195019301612c2f565b90612d40612d4892612c99838261317b565b612cc2836001612cbb8460018060a01b0316600052600d602052604060002090565b0154611787565b906002612ce18260018060a01b0316600052600d602052604060002090565b015482159081612db2575b5015612d8f576001600160a01b0381166000908152600d6020526040812060059082815582600182015582600282015560038101612d2a8154611681565b9081612d4d575b505082600482015501556139bf565b600c54611787565b600c55565b81601f869311600114612d645750555b3880612d31565b81835260208320612d7f91601f01861c8101906001016116bb565b8082528160208120915555612d5d565b6001600160a01b0381166000908152600d602052604090208290600101556139bf565b90501538612cec565b9291906000606085519560028710156103c857600096612e1f57505050814710612e105783918291829182916001600160a01b03165af1612dfa6131cd565b5060405192612e0a6020856115de565b83529190565b63569d45cf60e11b8452600484fd5b8096939195949296516002811015612ebf57600114612e3e5750505050565b602090810151604080516001600160a01b03948516938101938452808201959095528452949650929450849316918390612e796060846115de565b612eb260246040518093612ea1602083019763a9059cbb60e01b89525180928585019061198e565b81010301601f1981018352826115de565b51925af190611ce36131cd565b634e487b7160e01b85526021600452602485fd5b61ffff60019116019061ffff821161179457565b60205460005b818110612ef957505050565b612f02816117aa565b905460039190911b1c6001600160a01b0390811690841614612f2657600101612eed565b6000198201925090821161179457612f5b612f43612f7f936117aa565b905460039190911b1c6001600160a01b0316916117aa565b81546001600160a01b0393841660039290921b91821b9390911b1916919091179055565b6020548015612fad5760001901612f95816117aa565b81549060018060a01b039060031b1b19169055602055565b634e487b7160e01b600052603160045260246000fd5b7f806e0cbb9fce296bbc336a48f42bf1dbc69722d18d90d6fe705b7582c2bb4bd5546001600160a01b03163303612ff657565b6330cd747160e01b60005260046000fd5b91908110156117c55760051b81013590601e1981360301821215610f3f5701908135916001600160401b038311610f3f576020018236038113610f3f579190565b91908110156117c55760051b0190565b356001600160a01b0381168103610f3f5790565b80600052601c602052604060002054156000146130d857601b54600160401b811015611592576130bf6130a8826001859401601b55601b6117db565b819391549060031b91821b91600019901b19161790565b9055601b5490600052601c602052604060002055600190565b50600090565b156130e557565b634e487b7160e01b600052600160045260246000fd5b90613108604182146130de565b80600111610f3f57613123913691600019019060010161161a565b80516020909101206001600160a01b031690565b908060209392818452848401376000828201840152601f01601f1916010190565b60018060a01b0316600052600d60205261207160026040600020019182546117f3565b6001600160a01b03166000818152600d602052604090206002015490918082106131bc576131a891611787565b90600052600d602052600260406000200155565b63ac69360360e01b60005260046000fd5b3d156131f8573d906131de826115ff565b916131ec60405193846115de565b82523d6000602084013e565b606090565b6000818152601c602052604090205480156132b157600019810181811161179457601b5460001981019190821161179457818103613277575b505050601b548015612fad576000190161325181601b6117db565b8154906000199060031b1b19169055601b55600052601c60205260006040812055600190565b6132996132886130a893601b6117db565b90549060031b1c928392601b6117db565b9055600052601c602052604060002055388080613236565b5050600090565b602154929391926001600160a01b031615612aa8576132f79160006132db61261c565b6040518095819263aa5106cb60e01b835230906004840161278a565b038173__$3fbe32418a9ca7804328967972fb037388$__5af49283156133c3576000936133cf575b506021546001600160a01b03169060005b8581106133405750505050505050565b6133516106006101f4838988613048565b906133606101f4828988613048565b61336b82858b613048565b3592853b15610f3f5760009161339660405195869384936307fa355f60e51b85528c600486016127fd565b038183885af19182156133c3576001926133b2575b5001613330565b60006133bd916115de565b386133ab565b6040513d6000823e3d90fd5b6133e59193503d806000833e61294581836115de565b913861331f565b90816020910312610f3f57518015158103610f3f5790565b60008061342d9260018060a01b03169360208151910182865af16134266131cd565b9083614724565b8051908115159182613457575b50506134435750565b635274afe760e01b60005260045260246000fd5b61346a92506020809183010191016133ec565b15388061343a565b9060018060a01b038216600052600f60205261ffff6040600020541661364c5761ffff600b5460081c1661ffff600e54161061362f576134b2600e614492565b600160005260106020527f8c6065603763fec3f5742441d3833f3f43b982453612d76adb39a885e3006b5f546001600160a01b0316816134f382600b613ecc565b106135a057506001600160a01b03821660009081526012602052604090205461ffff1661356d57816135497f19fe3ca603e87854a0747cc10abf06bac64d61bac73d6d15f2fd3ca448f1526493600b60116141cb565b604080516001600160a01b039092168252602082019290925290819081015b0390a1565b8161354961358b6000805160206148cc83398151915294601161434b565b61359683600b613ecc565b90600b601161463a565b60008051602061488c8339815191529291506135be600b600e614027565b6001600160a01b03821660009081526012602052604090205461ffff1661361d575b6135ed82600b600e613f68565b6135fa81600b60116141cb565b604080516001600160a01b03928316815292909116602083015281908101613568565b61362a82600b6011614129565b6135e0565b816135496000805160206148ec83398151915293600b600e613f68565b8161354961366a60008051602061486c83398151915294600e61434b565b61367583600b613ecc565b90600b600e614397565b6001600160a01b038216600090815260048201602052604090205490929190600384019061ffff166137df5761ffff845460081c1661ffff825416106137c557806136cb858593613fe2565b929092106137585750506001600160a01b0381166000908152600784016020526040902054600684019061ffff1661372957817f19fe3ca603e87854a0747cc10abf06bac64d61bac73d6d15f2fd3ca448f1526494613549926141cb565b806000805160206148cc83398151915294613747846135499461434b565b906137528582613ecc565b9261463a565b8192935090848261377b60008051602061488c833981519152976135fa95614027565b6001600160a01b038616600090815260078301602052604090205460068301916137b0918891859161ffff166137b557613f68565b6141cb565b6137c0838387614129565b613f68565b816000805160206148ec8339815191529461354992613f68565b8060008051602061486c833981519152946137fd846135499461434b565b906138088582613ecc565b92614397565b60009181519160028310156103c85760009261382b575050505090565b809491929394516002811015612ebf5760011461384a575b5050505090565b602090810151604051636eb1769f60e11b81523060048201526001600160a01b03858116602483015295965093941692919082604481865afa8015612a9d578590613989575b61389a92506117f3565b60405163095ea7b360e01b602082019081526001600160a01b03851660248301526044808301939093529181529190849081906138d86064866115de565b84519082855af16138e76131cd565b8161395a575b5080613950575b15613906575b50505038808080613843565b60405163095ea7b360e01b60208201526001600160a01b039093166024840152604480840185905283526139489261394390611ca26064826115de565b613404565b3880806138fa565b50803b15156138f4565b805180159250821561396f575b5050386138ed565b61398292506020809183010191016133ec565b3880613967565b50906020813d6020116139b7575b816139a4602093836115de565b81010312612594579061389a9151613890565b3d9150613997565b9060018060a01b038216600052601260205261ffff60406000205416613c06576001600160a01b0382166000908152600f602052604090205461ffff1615613bf5578015613b3157613a2a613a1583600e61434b565b613a2084600b613ecc565b90600b600e61442e565b61ffff601154161561259057613a40600e614492565b600160005260106020527f8c6065603763fec3f5742441d3833f3f43b982453612d76adb39a885e3006b5f546001600160a01b031691613a8183600b613ecc565b613a8b6011614492565b600160005260136020527f4155c2f711f2cdd34f8262ab8fb9b7020a700fe7b6948222152f7670d1fdf34d546001600160a01b031690613acc82600b613ecc565b11613b065750604080516001600160a01b039092168252602082019290925260008051602061486c83398151915292509081908101613568565b91505060008051602061488c83398151915291613b25600b600e614027565b6135e0600b6011614284565b50602081613b637f4a4c5d1a281180eea1e99d8177fa4798b9f7e019d5c57e7d8d73c6a22199aa5b93600b600e6141e2565b6040516001600160a01b039091168152a161ffff60115416613b8157565b613b8b6011614492565b600160005260136020527f4155c2f711f2cdd34f8262ab8fb9b7020a700fe7b6948222152f7670d1fdf34d546000805160206148ec833981519152906001600160a01b0316613bdb81600b613ecc565b90613be8600b6011614284565b61354981600b600e613f68565b632a55ca5360e01b60005260046000fd5b8015613c3f5781613549613c2a6000805160206148cc83398151915294601161434b565b613c3583600b613ecc565b90600b6011614698565b50602081613c717f3168ba660eed6ef1dc2258b2247cc05fd0f2f350d39e6ad2e2ebc76a8000b40b93600b6011614129565b6040516001600160a01b039091168152a1565b6001600160a01b0382166000908152600782016020526040902054600682019392919061ffff16613e18576001600160a01b038216600090815260048201602052604090205460038201949061ffff1615613bf5578315613d9957613cfe613cec848761434b565b613cf68585613ecc565b90848861442e565b61ffff81541615613d9257613d138286613fe2565b929091613d208282613fe2565b909410613d60575050604080516001600160a01b03909416845260208401949094525060008051602061486c833981519152935090918291508101613568565b8395508294506137b06135fa948389613d888260008051602061488c8339815191529c614027565b6137c08286614284565b5050505050565b9181935080613dcc6020927f4a4c5d1a281180eea1e99d8177fa4798b9f7e019d5c57e7d8d73c6a22199aa5b94886141e2565b6040516001600160a01b039091168152a161ffff815416613dec57505050565b61354981836000805160206148ec83398151915295613e0e826137c096613fe2565b9681969194614284565b8215613e4d578361354991613e3c846000805160206148cc8339815191529761434b565b90613e478582613ecc565b92614698565b6020925081613c71917f3168ba660eed6ef1dc2258b2247cc05fd0f2f350d39e6ad2e2ebc76a8000b40b95614129565b60ff600b541660038110156103c857600103613eae576001600160a01b03166000908152600d602052604090205490565b6001600160a01b03166000908152600d602052604090206001015490565b60ff8154169160038310156103c857600292600103613f00576001600160a01b031660009081529101602052604090205490565b6001600160a01b031660009081529101602052604090206001015490565b6001600160a01b0381166000908152600d60205260409020805490839055909190808203613f4b57505050565b811115613f5d5761170d91600b61367f565b61170d91600b613c84565b909161170d92613fdc613f7f61ffff855416612ed3565b6001600160a01b03841660008181526001870160209081526040808320805461ffff871661ffff19918216811790925581855260028b01909352922080546001600160a01b03191690931790925586549091161785559282613ecc565b9261442e565b600290929192613ff181614492565b600160005201602052611ce360018060a01b03604060002054168093613ecc565b61ffff6000199116019061ffff821161179457565b61403081614492565b61406061ffff82541661404381846144af565b61ffff61404f82614012565b1661ffff19845416178355826145f2565b6002810192600160005283602052614086604060002060018060a01b0390541684613ecc565b926001946140946001614380565b61ffff855416905b61ffff811682811161411e57828110156140f45750806140be6140c692612ed3565b908588614785565b9790975b8711156140ea576140dc908887614552565b6140e587614380565b61409c565b5050505092505050565b600090815260208490526040902054909790614119906001600160a01b031685613ecc565b6140ca565b505050505092505050565b9091614135908261434b565b61ffff825416614146818385614552565b61ffff61415282614012565b1661ffff1984541617835561416781846145f2565b61ffff8216146129545761170d926002830161ffff8316600052806020526141a86141a0604060002060018060a01b0390541684613ecc565b84848761463a565b61ffff8316600052602052613e47604060002060018060a01b0390541682613ecc565b909161170d92613752613f7f61ffff855416612ed3565b90916141ee908261434b565b61ffff8254166141ff818385614552565b61ffff61420b82614012565b1661ffff1984541617835561422081846145f2565b61ffff8216146129545761170d926002830161ffff831660005280602052614261614259604060002060018060a01b0390541684613ecc565b84848761442e565b61ffff8316600052602052613808604060002060018060a01b0390541682613ecc565b61428d81614492565b6142a061ffff82541661404381846144af565b60028101926001600052836020526142c6604060002060018060a01b0390541684613ecc565b92600194600261ffff855416905b61ffff811682811161411e57828110156143215750806142f66142fe92612ed3565b9085886147ec565b9790975b8710156140ea57614314908887614552565b61fffe8760011b166142d4565b600090815260208490526040902054909790614346906001600160a01b031685613ecc565b614302565b600191828060a01b03166000520160205261ffff6040600020541690811561436f57565b63f2755e3760e01b60005260046000fd5b60011b906201fffe61fffe83169216820361179457565b9193906143a385614380565b61ffff845416905b61ffff81168281116140ea57828110156144025750806143cd6143d592612ed3565b908487614785565b9690965b8611156143f9576143eb908786614552565b6143f486614380565b6143ab565b50505092505050565b6000908152600286016020526040902054909690614429906001600160a01b031684613ecc565b6143d9565b9092915b600161ffff8216116144445750505050565b600181901c617fff1660008181526002840160205260409020549091908490614476906001600160a01b031687613ecc565b111561448c57614487908284614552565b614432565b50612aa8565b5461ffff161561449e57565b6340d9b01160e01b60005260046000fd5b906144d261ffff8354166144c681600111156130de565b61ffff831611156130de565b600160008181526002840160208181526040808420805461ffff90971680865282862080546001600160a01b03998a168089529a89018652848820805461ffff1990811690941790559098168087529286208054909116871790559290915284546001600160a01b03199081169096179094559190528054909216179055565b919061ffff906145778285541661456d8185851611156130de565b83851611156130de565b811660008181526002850160208181526040808420805497871680865282862080546001600160a01b039a8b168089526001909c01865284882080549a199a8b1690931790925598168086529185208054909716861790965591905284546001600160a01b0319908116909617909455528054909216179055565b61ffff9091166000908152600282016020908152604080832080546001600160a01b031981169091556001600160a01b03168352600193909301905220805461ffff19169055565b9092915b600161ffff8216116146505750505050565b600181901c617fff1660008181526002840160205260409020549091908490614682906001600160a01b031687613ecc565b101561448c57614693908284614552565b61463e565b91939061fffe8560011b1661ffff845416905b61ffff81168281116140ea57828110156146f85750806146cd6146d592612ed3565b9084876147ec565b9690965b8610156143f9576146eb908786614552565b61fffe8660011b166146ab565b600090815260028601602052604090205490969061471f906001600160a01b031684613ecc565b6146d9565b9061474a575080511561473957805190602001fd5b630a12f52160e11b60005260046000fd5b8151158061477c575b61475b575090565b639996b31560e01b60009081526001600160a01b0391909116600452602490fd5b50803b15614753565b60026147d69195949395019161ffff8616600052826020526147b5604060002060018060a01b0390541682613ecc565b9261ffff8516600052602052604060002060018060a01b0390541690613ecc565b93848211156147e55750509190565b9350919050565b600261483d9195949295019461ffff84166000528560205261481c604060002060018060a01b0390541682613ecc565b9561ffff8416600052602052604060002060018060a01b0390541690613ecc565b908185106147e5575050919056fe1c593a2b803c3f9038e8b6743ba79fbc4276d2770979a01d2768ed12bea3243f143db27bc2036653dc6f962ff9d0b803163d4af50c256ca9e6927b3d6dcd0197faeb8de771b867cf357f6b459a7002b62ec45d544a8078a3ecd91200cc826d75691bb03ffc16c56fc96b82fd16cd1b3715f0bc3cdc6407005f49bb6205860095da148fac2e1063174be7bc0895576bdaba90fd14e575463fa26a967cb895cadd2e8038f5812f763c6ef0c5427cb5a05ce6d7064af2ba7d1d270bc02660b019fda26469706673582212208c5faf0db27580aec6c485ad641130fb4b02b8ad22611926372d2d74e063a41c64736f6c634300081a0033","linkReferences":{"contracts/lib/LibStorageStaking.sol":{"LibStorageStaking":[{"start":4261,"length":20},{"start":4708,"length":20},{"start":6277,"length":20},{"start":6379,"length":20},{"start":6826,"length":20}],"LibStorageStakingGetters":[{"start":3655,"length":20},{"start":6215,"length":20},{"start":6702,"length":20}],"LibStorageStakingOps":[{"start":2645,"length":20}]},"contracts/lib/SubnetIDHelper.sol":{"SubnetIDHelper":[{"start":10458,"length":20},{"start":10651,"length":20},{"start":10814,"length":20},{"start":13078,"length":20}]}}},"methodIdentifiers":{"addBootstrapNode(string)":"10fd4261","join(bytes,uint256,uint256)":"1ddee554","kill()":"41c0e1b5","leave()":"d66d9e19","preFund(uint256)":"4d9013a1","preRelease(uint256)":"66783c9b","setFederatedPower(address[],bytes[],uint256[])":"da5d09ee","setValidatorGater(address)":"dcda8973","stake(uint256)":"a694fc3a","stakeStorage(uint256)":"72427494","unstake(uint256)":"2e17de78","unstakeStorage(uint256)":"4f9a27e8"},"id":50}