{"abi":[{"type":"function","name":"addBootstrapNode","inputs":[{"name":"netAddress","type":"string","internalType":"string"}],"outputs":[],"stateMutability":"nonpayable"},{"type":"function","name":"join","inputs":[{"name":"publicKey","type":"bytes","internalType":"bytes"},{"name":"amount","type":"uint256","internalType":"uint256"},{"name":"storageCommitment","type":"uint256","internalType":"uint256"}],"outputs":[],"stateMutability":"payable"},{"type":"function","name":"kill","inputs":[],"outputs":[],"stateMutability":"nonpayable"},{"type":"function","name":"leave","inputs":[],"outputs":[],"stateMutability":"nonpayable"},{"type":"function","name":"preFund","inputs":[{"name":"amount","type":"uint256","internalType":"uint256"}],"outputs":[],"stateMutability":"payable"},{"type":"function","name":"preRelease","inputs":[{"name":"amount","type":"uint256","internalType":"uint256"}],"outputs":[],"stateMutability":"nonpayable"},{"type":"function","name":"setFederatedPower","inputs":[{"name":"validators","type":"address[]","internalType":"address[]"},{"name":"publicKeys","type":"bytes[]","internalType":"bytes[]"},{"name":"powers","type":"uint256[]","internalType":"uint256[]"}],"outputs":[],"stateMutability":"nonpayable"},{"type":"function","name":"setValidatorGater","inputs":[{"name":"gater","type":"address","internalType":"address"}],"outputs":[],"stateMutability":"nonpayable"},{"type":"function","name":"stake","inputs":[{"name":"amount","type":"uint256","internalType":"uint256"}],"outputs":[],"stateMutability":"payable"},{"type":"function","name":"stakeStorage","inputs":[{"name":"amount","type":"uint256","internalType":"uint256"}],"outputs":[],"stateMutability":"payable"},{"type":"function","name":"unstake","inputs":[{"name":"amount","type":"uint256","internalType":"uint256"}],"outputs":[],"stateMutability":"nonpayable"},{"type":"function","name":"unstakeStorage","inputs":[{"name":"amount","type":"uint256","internalType":"uint256"}],"outputs":[],"stateMutability":"nonpayable"},{"type":"event","name":"ActiveValidatorCollateralUpdated","inputs":[{"name":"validator","type":"address","indexed":false,"internalType":"address"},{"name":"newPower","type":"uint256","indexed":false,"internalType":"uint256"}],"anonymous":false},{"type":"event","name":"ActiveValidatorLeft","inputs":[{"name":"validator","type":"address","indexed":false,"internalType":"address"}],"anonymous":false},{"type":"event","name":"ActiveValidatorReplaced","inputs":[{"name":"oldValidator","type":"address","indexed":false,"internalType":"address"},{"name":"newValidator","type":"address","indexed":false,"internalType":"address"}],"anonymous":false},{"type":"event","name":"NewActiveValidator","inputs":[{"name":"validator","type":"address","indexed":false,"internalType":"address"},{"name":"power","type":"uint256","indexed":false,"internalType":"uint256"}],"anonymous":false},{"type":"event","name":"NewStakingChangeRequest","inputs":[{"name":"op","type":"uint8","indexed":false,"internalType":"enum StakingOperation"},{"name":"validator","type":"address","indexed":false,"internalType":"address"},{"name":"payload","type":"bytes","indexed":false,"internalType":"bytes"},{"name":"configurationNumber","type":"uint64","indexed":false,"internalType":"uint64"}],"anonymous":false},{"type":"event","name":"NewWaitingValidator","inputs":[{"name":"validator","type":"address","indexed":false,"internalType":"address"},{"name":"power","type":"uint256","indexed":false,"internalType":"uint256"}],"anonymous":false},{"type":"event","name":"Paused","inputs":[{"name":"account","type":"address","indexed":false,"internalType":"address"}],"anonymous":false},{"type":"event","name":"SubnetBootstrapped","inputs":[{"name":"","type":"tuple[]","indexed":false,"internalType":"struct Validator[]","components":[{"name":"weight","type":"uint256","internalType":"uint256"},{"name":"addr","type":"address","internalType":"address"},{"name":"metadata","type":"bytes","internalType":"bytes"},{"name":"storageAmount","type":"uint256","internalType":"uint256"}]}],"anonymous":false},{"type":"event","name":"Unpaused","inputs":[{"name":"account","type":"address","indexed":false,"internalType":"address"}],"anonymous":false},{"type":"event","name":"WaitingValidatorCollateralUpdated","inputs":[{"name":"validator","type":"address","indexed":false,"internalType":"address"},{"name":"newPower","type":"uint256","indexed":false,"internalType":"uint256"}],"anonymous":false},{"type":"event","name":"WaitingValidatorLeft","inputs":[{"name":"validator","type":"address","indexed":false,"internalType":"address"}],"anonymous":false},{"type":"error","name":"AddressEmptyCode","inputs":[{"name":"target","type":"address","internalType":"address"}]},{"type":"error","name":"AddressInsufficientBalance","inputs":[{"name":"account","type":"address","internalType":"address"}]},{"type":"error","name":"AddressShouldBeValidator","inputs":[]},{"type":"error","name":"CannotReleaseZero","inputs":[]},{"type":"error","name":"CollateralIsZero","inputs":[]},{"type":"error","name":"DuplicatedGenesisValidator","inputs":[]},{"type":"error","name":"EmptyAddress","inputs":[]},{"type":"error","name":"EnforcedPause","inputs":[]},{"type":"error","name":"ExpectedPause","inputs":[]},{"type":"error","name":"FailedInnerCall","inputs":[]},{"type":"error","name":"InvalidFederationPayload","inputs":[]},{"type":"error","name":"InvalidPublicKeyLength","inputs":[]},{"type":"error","name":"MethodNotAllowed","inputs":[{"name":"reason","type":"string","internalType":"string"}]},{"type":"error","name":"NotAllValidatorsHaveLeft","inputs":[]},{"type":"error","name":"NotEnoughBalance","inputs":[]},{"type":"error","name":"NotEnoughCollateral","inputs":[]},{"type":"error","name":"NotEnoughCollateralForStorageAmount","inputs":[]},{"type":"error","name":"NotEnoughFunds","inputs":[]},{"type":"error","name":"NotEnoughGenesisValidators","inputs":[]},{"type":"error","name":"NotEnoughStorageCommitment","inputs":[]},{"type":"error","name":"NotOwner","inputs":[]},{"type":"error","name":"NotOwnerOfPublicKey","inputs":[]},{"type":"error","name":"NotValidator","inputs":[{"name":"","type":"address","internalType":"address"}]},{"type":"error","name":"PQDoesNotContainAddress","inputs":[]},{"type":"error","name":"PQEmpty","inputs":[]},{"type":"error","name":"ReentrancyError","inputs":[]},{"type":"error","name":"SafeERC20FailedOperation","inputs":[{"name":"token","type":"address","internalType":"address"}]},{"type":"error","name":"SubnetAlreadyBootstrapped","inputs":[]},{"type":"error","name":"SubnetAlreadyKilled","inputs":[]},{"type":"error","name":"SubnetNotBootstrapped","inputs":[]},{"type":"error","name":"WithdrawExceedingCollateral","inputs":[]}],"bytecode":{"object":"0x6080604052348015600f57600080fd5b506147ec8061001f6000396000f3fe6080604052600436106100a75760003560e01c806366783c9b1161006457806366783c9b146101495780637242749414610169578063a694fc3a1461017c578063d66d9e191461018f578063da5d09ee146101a4578063dcda8973146101c457600080fd5b806310fd4261146100ac5780631ddee554146100ce5780632e17de78146100e157806341c0e1b5146101015780634d9013a1146101165780634f9a27e814610129575b600080fd5b3480156100b857600080fd5b506100cc6100c7366004613bb6565b6101e4565b005b6100cc6100dc366004613c4e565b610266565b3480156100ed57600080fd5b506100cc6100fc366004613ccd565b610438565b34801561010d57600080fd5b506100cc610634565b6100cc610124366004613ccd565b610708565b34801561013557600080fd5b506100cc610144366004613ccd565b61081a565b34801561015557600080fd5b506100cc610164366004613ccd565b610a36565b6100cc610177366004613ccd565b610b73565b6100cc61018a366004613ccd565b610c04565b34801561019b57600080fd5b506100cc610cfa565b3480156101b057600080fd5b506100cc6101bf366004613d2a565b610f9c565b3480156101d057600080fd5b506100cc6101df366004613de2565b61102f565b6101ec611061565b6101f7600b336110a6565b61021b57604051633b4f6e2b60e21b81523360048201526024015b60405180910390fd5b805160000361023d57604051637138356f60e01b815260040160405180910390fd5b336000908152601a602052604090206102568282613e7a565b50610262601b336110be565b5050565b600080516020614752833981519152805460001901610298576040516329f745a760e01b815260040160405180910390fd5b600181556102a4611061565b6102ac6110d3565b6102b78585856110fe565b60408051808201909152600880546103129286929091829060ff1660018111156102e3576102e3613f38565b60018111156102f4576102f4613f38565b8152905461010090046001600160a01b0316602090910152906111e1565b50600554600160f81b900460ff166103af5761032f338686611395565b61033933846113a4565b604051632477197560e21b815273__$26f40b5d0ea586b7f80823d45b7ee0265b$__906391dc65d4906103729033908690600401613f4e565b60006040518083038186803b15801561038a57600080fd5b505af415801561039e573d6000803e3d6000fd5b505050506103aa61158d565b61042e565b6103ba33868661161f565b6103c4338461162e565b604051638ddb52fb60e01b815273__$26f40b5d0ea586b7f80823d45b7ee0265b$__90638ddb52fb906103fd9033908690600401613f4e565b60006040518083038186803b15801561041557600080fd5b505af4158015610429573d6000803e3d6000fd5b505050505b6000905550505050565b60008051602061475283398151915280546000190161046a576040516329f745a760e01b815260040160405180910390fd5b60018155610476611061565b61047e6110d3565b8160000361049f5760405163c79cad7b60e01b815260040160405180910390fd5b6104a83361164a565b6104c757604051633b4f6e2b60e21b8152336004820152602401610212565b6104cf61166d565b336000908152600d6020526040812060020154604051631886157b60e01b815233600482015290915060009073__$58801a7a4e78cbbcd9d24532392b6c9267$__90631886157b90602401602060405180830381865af4158015610537573d6000803e3d6000fd5b505050506040513d601f19601f8201168201806040525081019061055b9190613f67565b905083821161057c5760405162d11df360e61b815260040160405180910390fd5b61058f6105898584613f96565b826116c5565b6105a3338361059e8782613f96565b611706565b600554600160f81b900460ff16610621576105be338561188e565b604080518082019091526008805461061a9233928892829060ff1660018111156105ea576105ea613f38565b60018111156105fb576105fb613f38565b8152905461010090046001600160a01b031660209091015291906118aa565b505061062b565b61062b338561191c565b50506000905550565b61063c6110d3565b610644611938565b61ffff161561066657604051636b62255160e11b815260040160405180910390fd5b600554600160f81b900460ff166106905760405163dfd06d8f60e01b815260040160405180910390fd5b6006805468ff00000000000000001916600160401b179055600554604080516341c0e1b560e01b815290516001600160a01b03909216916341c0e1b59160048082019260009290919082900301818387803b1580156106ee57600080fd5b505af1158015610702573d6000803e3d6000fd5b50505050565b8060000361072957604051631036b5ad60e31b815260040160405180910390fd5b600554600160f81b900460ff161561075457604051631b39f2f360e11b815260040160405180910390fd5b60408051808201909152600780546107809284929091829060ff1660018111156102e3576102e3613f38565b50336000908152601f602052604081205490036107da57602080546001810182556000919091527fc97bfaf2f8ee708c303a06d134f5ecd8389ae0432af62dc132a24118292866bb0180546001600160a01b031916331790555b336000908152601f6020526040812080548392906107f9908490613fa9565b9091555050600080548291908190610812908490613fa9565b909155505050565b60008051602061475283398151915280546000190161084c576040516329f745a760e01b815260040160405180910390fd5b60018155610858611061565b6108606110d3565b61086861166d565b816000036108895760405163c79cad7b60e01b815260040160405180910390fd5b604051631886157b60e01b815233600482015260009073__$58801a7a4e78cbbcd9d24532392b6c9267$__90631886157b90602401602060405180830381865af41580156108db573d6000803e3d6000fd5b505050506040513d601f19601f820116820180604052508101906108ff9190613f67565b90508060000361092457604051633b4f6e2b60e21b8152336004820152602401610212565b82811161094457604051631871c2dd60e01b815260040160405180910390fd5b600554600160f81b900460ff166109c457604051637964e08160e11b815273__$26f40b5d0ea586b7f80823d45b7ee0265b$__9063f2c9c1029061098e9033908790600401613f4e565b60006040518083038186803b1580156109a657600080fd5b505af41580156109ba573d6000803e3d6000fd5b5050505050610a2f565b60405163071bfc3160e11b815273__$26f40b5d0ea586b7f80823d45b7ee0265b$__90630e37f862906109fd9033908790600401613f4e565b60006040518083038186803b158015610a1557600080fd5b505af4158015610a29573d6000803e3d6000fd5b50505050505b6000905550565b600080516020614752833981519152805460001901610a68576040516329f745a760e01b815260040160405180910390fd5b600181556000829003610a8e57604051631036b5ad60e31b815260040160405180910390fd5b600554600160f81b900460ff1615610ab957604051631b39f2f360e11b815260040160405180910390fd5b6040805180820190915260078054610ae59233928692829060ff1660018111156105ea576105ea613f38565b5050336000908152601f6020526040902054821115610b175760405163569d45cf60e11b815260040160405180910390fd5b336000908152601f602052604081208054849290610b36908490613f96565b9091555050600080548391908190610b4f908490613f96565b9091555050336000908152601f60205260408120549003610a2f57610a2f3361195a565b610b7b611061565b610b836110d3565b6005546040516303ab60fb60e61b815260048101839052346024820152600160f81b90910460ff161515604482015273__$903f19875093401f8d119fd5a50910a076$__9063ead83ec09060640160006040518083038186803b158015610be957600080fd5b505af4158015610bfd573d6000803e3d6000fd5b5050505050565b610c0c611061565b610c146110d3565b610c1c61166d565b80600003610c3d57604051635a78c58160e11b815260040160405180910390fd5b610c463361164a565b610c7d576040518060600160405280602e8152602001614724602e913960405163015538b160e01b8152600401610212919061400c565b336000818152600d602052604090206002015490610ca0908261059e8582613fa9565b6040805180820190915260088054610ccc9285929091829060ff1660018111156102e3576102e3613f38565b50600554600160f81b900460ff16610cf057610ce833836113a4565b61026261158d565b610262338361162e565b600080516020614752833981519152805460001901610d2c576040516329f745a760e01b815260040160405180910390fd5b60018155610d38611061565b610d406110d3565b600554600160f81b900460ff1615610d5a57610d5a61166d565b336000908152600d6020526040812060020154604051631886157b60e01b815233600482015290915060009073__$58801a7a4e78cbbcd9d24532392b6c9267$__90631886157b90602401602060405180830381865af4158015610dc2573d6000803e3d6000fd5b505050506040513d601f19601f82011682018060405250810190610de69190613f67565b9050811580610df3575080155b15610e1357604051633b4f6e2b60e21b8152336004820152602401610212565b610e1f33836000611706565b610e2a601b33611a65565b50336000908152601a60205260408120610e4391613afa565b600554600160f81b900460ff16610f2057336000908152601f60205260409020548015610ec557336000908152601f60205280548291908190610e87908490613f96565b90915550610e9690503361195a565b6040805180820190915260088054610ec29233928592829060ff1660018111156105ea576105ea613f38565b50505b610ecf338461188e565b6040805180820190915260088054610efb9233928792829060ff1660018111156105ea576105ea613f38565b505060148054839190600090610f12908490613f96565b90915550610f969350505050565b610f2a338361191c565b60405163071bfc3160e11b815273__$26f40b5d0ea586b7f80823d45b7ee0265b$__90630e37f86290610f639033908590600401613f4e565b60006040518083038186803b158015610f7b57600080fd5b505af4158015610f8f573d6000803e3d6000fd5b5050505050505b60009055565b610fa46110d3565b610fac611a7a565b610fb4611ac7565b848114610fd457604051637e65935960e01b815260040160405180910390fd5b848314610ff457604051637e65935960e01b815260040160405180910390fd5b600554600160f81b900460ff161561101957611014868686868686611ad0565b611027565b611027868686868686611bef565b505050505050565b6110376110d3565b61103f611a7a565b602180546001600160a01b0319166001600160a01b0392909216919091179055565b7fc451c9429c27db68f286ab8a68f311f1dccab703ba9423aed29cd397ae63f8635460ff16156110a45760405163d93c066560e01b815260040160405180910390fd5b565b60006110b56003840183611f21565b90505b92915050565b60006110b5836001600160a01b038416611f47565b600654600160401b900460ff16156110a45760405163248c8efb60e11b815260040160405180910390fd5b600554600090600160f81b900460ff161561111b5761111b61166d565b8160000361113c57604051635a78c58160e11b815260040160405180910390fd5b6111453361164a565b1561117d576040518060600160405280603281526020016146d26032913960405163015538b160e01b8152600401610212919061400c565b6041831461119e576040516318dca5e960e21b815260040160405180910390fd5b60006111aa8585611f96565b90506001600160a01b03811633146111d557604051634be9251d60e11b815260040160405180910390fd5b610bfd33600085611706565b60006001835160018111156111f8576111f8613f38565b0361134a5760208301516040516370a0823160e01b81523060048201526000906001600160a01b038316906370a0823190602401602060405180830381865afa158015611249573d6000803e3d6000fd5b505050506040513d601f19601f8201168201806040525081019061126d9190613f67565b90506112846001600160a01b038316333087611fd6565b6040516370a0823160e01b81523060048201526000906001600160a01b038416906370a0823190602401602060405180830381865afa1580156112cb573d6000803e3d6000fd5b505050506040513d601f19601f820116820180604052508101906112ef9190613f67565b90508181116113365760405162461bcd60e51b81526020600482015260136024820152724e6f2062616c616e636520696e63726561736560681b6044820152606401610212565b6113408282613f96565b93505050506110b8565b8134101561138f5760405162461bcd60e51b8152602060048201526012602482015271496e73756666696369656e742066756e647360701b6044820152606401610212565b50919050565b6000610702600b85858561203d565b60006113b2600b8484612065565b6113c0600b8201848461209b565b6005810154600160f81b900460ff1661158857601e810154600090815b8181101561143757856001600160a01b031684601e0182815481106114045761140461401f565b60009182526020909120600160049092020101546001600160a01b03160361142f5760019250611437565b6001016113dd565b5081610bfd576001600160a01b0385166000818152600d8501602081815260408084206001810154825160808101845281815280850188905296865293909252600390910180549294929183019161148e90613dff565b80601f01602080910402602001604051908101604052809291908181526020018280546114ba90613dff565b80156115075780601f106114dc57610100808354040283529160200191611507565b820191906000526020600020905b8154815290600101906020018083116114ea57829003601f168201915b505050918352505060006020918201819052601e88018054600180820183559183529183902084516004909302019182559183015191810180546001600160a01b0319166001600160a01b03909316929092179091556040820151919250829160028201906115769082613e7a565b50606082015181600301555050505050505b505050565b60008061159861210e565b9050816002015481106102625760068201546001600160401b03166115bb61211b565b61ffff1610610262576005820180546001600160f81b0316600160f81b1790556040517f429d165d6b6555ff1fd586b9aeb68cb9499a92aa606cf0e2b9a5edf27b12202a9061160e90601e850190614035565b60405180910390a161026281612128565b6000610702601585858561223e565b600061163c601584846122ba565b611588600b82018484612065565b6001600160a01b0381166000908152600d602052604081206002015415156110b8565b6000805b600b82015460ff16600281111561168a5761168a613f38565b146116c2576040518060800160405280604581526020016147726045913960405163015538b160e01b8152600401610212919061400c565b50565b60195460009081906116d79084614146565b90506000831180156116e857508084105b156107025760405163164fc4b360e11b815260040160405180910390fd5b6021546000906001600160a01b031661171f5750505050565b6040805180820182526009830180546001600160401b03168252600a8401805484516020828102820181019096528181526000958086019391929083018282801561179357602002820191906000526020600020905b81546001600160a01b03168152600190910190602001808311611775575b50505091909252505060405163aa5106cb60e01b815273__$3fbe32418a9ca7804328967972fb037388$__9263aa5106cb92506117d491309060040161415d565b600060405180830381865af41580156117f1573d6000803e3d6000fd5b505050506040513d6000823e601f3d908101601f1916820160405261181991908101906141df565b602183015460405160016205caa160e51b031981529192506001600160a01b03169063ff46abe0906118559084908990899089906004016142ec565b600060405180830381600087803b15801561186f57600080fd5b505af1158015611883573d6000803e3d6000fd5b505050505050505050565b600061189c600b8484612315565b611588600b82018484612385565b6000606081855160018111156118c2576118c2613f38565b036118ea576118d1848461247a565b6040805160208101909152600081529092509050611914565b6001855160018111156118ff576118ff613f38565b036119145761190f8585856124fa565b915091505b935093915050565b600061192a601584846125ae565b611588600b82018484612315565b600e5460115460009182916119549161ffff9081169116614380565b91505090565b602054600090815b8181101561070257836001600160a01b03168360200182815481106119895761198961401f565b6000918252602090912001546001600160a01b031603611a5d57602083016119b2600184613f96565b815481106119c2576119c261401f565b9060005260206000200160009054906101000a90046001600160a01b03168360200182815481106119f5576119f561401f565b9060005260206000200160006101000a8154816001600160a01b0302191690836001600160a01b0316021790555082602001805480611a3657611a3661439a565b600082815260209020810160001990810180546001600160a01b0319169055019055610702565b600101611962565b60006110b5836001600160a01b038416612609565b7f806e0cbb9fce296bbc336a48f42bf1dbc69722d18d90d6fe705b7582c2bb4bd2600301546001600160a01b031633146110a4576040516330cd747160e01b815260040160405180910390fd5b60006001611671565b84611add87828585612703565b60005b81811015611be5576000611b16878784818110611aff57611aff61401f565b9050602002810190611b1191906143b0565b611f96565b9050888883818110611b2a57611b2a61401f565b9050602002016020810190611b3f9190613de2565b6001600160a01b0316816001600160a01b031614611b7057604051634be9251d60e11b815260040160405180910390fd5b611bdc898984818110611b8557611b8561401f565b9050602002016020810190611b9a9190613de2565b888885818110611bac57611bac61401f565b9050602002810190611bbe91906143b0565b888887818110611bd057611bd061401f565b905060200201356128fb565b50600101611ae0565b5050505050505050565b60065460009086906001600160401b03168111611c1f5760405163031480b160e51b815260040160405180910390fd5b611c2b88888686612703565b60005b81811015611ec4576000611c4d888884818110611aff57611aff61401f565b9050898983818110611c6157611c6161401f565b9050602002016020810190611c769190613de2565b6001600160a01b0316816001600160a01b031614611ca757604051634be9251d60e11b815260040160405180910390fd5b6000611cd88b8b85818110611cbe57611cbe61401f565b9050602002016020810190611cd39190613de2565b61290b565b1115611cf757604051630472b35360e41b815260040160405180910390fd5b611d4a8a8a84818110611d0c57611d0c61401f565b9050602002016020810190611d219190613de2565b898985818110611d3357611d3361401f565b9050602002810190611d4591906143b0565b611395565b611d928a8a84818110611d5f57611d5f61401f565b9050602002016020810190611d749190613de2565b878785818110611d8657611d8661401f565b90506020020135612920565b83601e016040518060800160405280888886818110611db357611db361401f565b9050602002013581526020018c8c86818110611dd157611dd161401f565b9050602002016020810190611de69190613de2565b6001600160a01b031681526020018a8a86818110611e0657611e0661401f565b9050602002810190611e1891906143b0565b8080601f016020809104026020016040519081016040528093929190818152602001838380828437600092018290525093855250505060209182018190528354600180820186559482529082902083516004909202019081559082015192810180546001600160a01b0319166001600160a01b039094169390931790925560408101519091906002820190611ead9082613e7a565b506060919091015160039091015550600101611c2e565b506005820180546001600160f81b0316600160f81b1790556040517f429d165d6b6555ff1fd586b9aeb68cb9499a92aa606cf0e2b9a5edf27b12202a90611f0f90601e850190614035565b60405180910390a1611be56000612128565b6001600160a01b038116600090815260018301602052604081205461ffff1615156110b5565b6000818152600183016020526040812054611f8e575081546001818101845560008481526020808220909301849055845484825282860190935260409020919091556110b8565b5060006110b8565b600060418214611fa857611fa86143f6565b6000611fb7836001818761440c565b604051611fc5929190614436565b604051908190039020949350505050565b6040516001600160a01b0384811660248301528381166044830152606482018390526107029186918216906323b872dd906084015b604051602081830303815290604052915060e01b6020820180516001600160e01b03838183161783525050505061292e565b6001600160a01b03831660009081526002850160205260409020600301610bfd828483614446565b6001600160a01b0382166000908152600280850160205260408220018054839290612091908490613fa9565b9091555050505050565b6001600160a01b03821660009081526002840160205260408120600101546120c4908390613fa9565b6001600160a01b0384166000908152600286016020526040812060019081018390558601805492935084929091906120fd908490613fa9565b909155506107029050848483612991565b600c546000908190611954565b600080611954600b612b9f565b6000805460055460408051808201909152600780548593612197936001600160a01b03909116928692829060ff16600181111561216757612167613f38565b600181111561217857612178613f38565b8152905461010090046001600160a01b03166020909101529190612bb0565b6121a19082613fa9565b6005840154604080518082019091526008860180549394506121e3936001600160a01b039093169288929190829060ff16600181111561216757612167613f38565b6121ed9082613fa9565b6005840154604051630d66d6c160e41b815260048101859052602481018790529192506001600160a01b03169063d66d6c109083906044016000604051808303818588803b15801561186f57600080fd5b60006122838585600286868080601f016020809104026020016040519081016040528093929190818152602001838380828437600092019190915250612c1092505050565b90506000805160206147048339815191526002858585856040516122ab959493929190614550565b60405180910390a15050505050565b6000816040516020016122cf91815260200190565b604051602081830303815290604052905060006122ef8585600085612c10565b905060008051602061470483398151915260008584846040516122ab949392919061459d565b6001600160a01b0382166000908152600280850160205260409091200154818110156123545760405163ac69360360e01b815260040160405180910390fd5b61235e8282613f96565b6001600160a01b039093166000908152600294850160205260409020909301919091555050565b6001600160a01b03821660009081526002840160205260408120600101546123ae908390613f96565b6001600160a01b0384166000908152600280870160205260409091200154909150811580156123db575080155b1561242e576001600160a01b038416600090815260028087016020526040822082815560018101839055908101829055906124196003830182613afa565b5060006004820181905560059091015561244f565b6001600160a01b038416600090815260028601602052604090206001018290555b61245a858584612d07565b8285600101600082825461246e9190613f96565b90915550505050505050565b60008147101561249d5760405163569d45cf60e11b815260040160405180910390fd5b6000836001600160a01b03168360405160006040518083038185875af1925050503d80600081146124ea576040519150601f19603f3d011682016040523d82523d6000602084013e6124ef565b606091505b509095945050505050565b6000606084602001516001600160a01b031663a9059cbb60e01b8585604051602001612527929190613f4e565b60408051601f198184030181529082905261254592916020016145e8565b60408051601f198184030181529082905261255f91614619565b6000604051808303816000865af19150503d806000811461259c576040519150601f19603f3d011682016040523d82523d6000602084013e6125a1565b606091505b5091509150935093915050565b6000816040516020016125c391815260200190565b604051602081830303815290604052905060006125e38585600185612c10565b905060008051602061470483398151915260018584846040516122ab949392919061459d565b600081815260018301602052604081205480156126f257600061262d600183613f96565b855490915060009061264190600190613f96565b90508082146126a65760008660000182815481106126615761266161401f565b90600052602060002001549050808760000184815481106126845761268461401f565b6000918252602080832090910192909255918252600188019052604090208390555b85548690806126b7576126b761439a565b6001900381819060005260206000200160009055905585600101600086815260200190815260200160002060009055600193505050506110b8565b60009150506110b8565b5092915050565b6021546000906001600160a01b031661271c5750610702565b6040805180820182526009830180546001600160401b03168252600a8401805484516020828102820181019096528181526000958086019391929083018282801561279057602002820191906000526020600020905b81546001600160a01b03168152600190910190602001808311612772575b50505091909252505060405163aa5106cb60e01b815273__$3fbe32418a9ca7804328967972fb037388$__9263aa5106cb92506127d191309060040161415d565b600060405180830381865af41580156127ee573d6000803e3d6000fd5b505050506040513d6000823e601f3d908101601f1916820160405261281691908101906141df565b60218301549091506001600160a01b03168560005b8181101561188357600061284a8a8a84818110611cbe57611cbe61401f565b9050836001600160a01b031663ff46abe0868c8c8681811061286e5761286e61401f565b90506020020160208101906128839190613de2565b848c8c888181106128965761289661401f565b905060200201356040518563ffffffff1660e01b81526004016128bc94939291906142ec565b600060405180830381600087803b1580156128d657600080fd5b505af11580156128ea573d6000803e3d6000fd5b50506001909301925061282b915050565b6000610bfd601586868686612f8d565b600080612919600b84612fea565b9392505050565b6000611588600b848461304d565b60006129436001600160a01b0384168361309d565b905080516000141580156129685750808060200190518101906129669190614635565b155b1561158857604051635274afe760e01b81526001600160a01b0384166004820152602401610212565b61299e6003840183611f21565b156129ef576129b16003840184846130ab565b7f143db27bc2036653dc6f962ff9d0b803163d4af50c256ca9e6927b3d6dcd019782826040516129e2929190613f4e565b60405180910390a1505050565b825461ffff610100909104166000612a0c600386015461ffff1690565b90508061ffff168261ffff161115612a5d57612a2c6003860186866130d3565b7f2e8038f5812f763c6ef0c5427cb5a05ce6d7064af2ba7d1d270bc02660b019fd84846040516122ab929190613f4e565b600080612a6d6003880188613159565b9150915084811015612b0f57612a86600388018861319b565b612a936006880187611f21565b15612aa657612aa66006880188886131f9565b612ab46003880188886130d3565b612ac2600688018884613289565b604080516001600160a01b038085168252881660208201527ffaeb8de771b867cf357f6b459a7002b62ec45d544a8078a3ecd91200cc826d7591015b60405180910390a150505050505050565b612b1c6006880187611f21565b15612b6057612b2f60068801888861330f565b7fda148fac2e1063174be7bc0895576bdaba90fd14e575463fa26a967cb895cadd8686604051612afe929190613f4e565b612b6e600688018888613289565b7f19fe3ca603e87854a0747cc10abf06bac64d61bac73d6d15f2fd3ca448f152648686604051612afe929190613f4e565b60006110b8826003015461ffff1690565b60008084516001811115612bc657612bc6613f38565b03612bd2575080612919565b600184516001811115612be757612be7613f38565b03612919576020840151612c056001600160a01b0382168585613329565b506000949350505050565b835460408051606081019091526001600160401b039091169080846005811115612c3c57612c3c613f38565b815260208082018590526001600160a01b0387166040928301526001600160401b03841660009081526001808a01909252919091208251815491929091839160ff1990911690836005811115612c9457612c94613f38565b021790555060208201516001820190612cad9082613e7a565b5060409190910151600290910180546001600160a01b0319166001600160a01b03909216919091179055612ce2816001614657565b855467ffffffffffffffff19166001600160401b039190911617909455509192915050565b612d146006840183611f21565b15612da75780600003612d6857612d2f6006840184846131f9565b6040516001600160a01b03831681527f3168ba660eed6ef1dc2258b2247cc05fd0f2f350d39e6ad2e2ebc76a8000b40b906020016129e2565b612d766006840184846133b3565b7fda148fac2e1063174be7bc0895576bdaba90fd14e575463fa26a967cb895cadd82826040516129e2929190613f4e565b612db46003840183611f21565b612dd157604051632a55ca5360e01b815260040160405180910390fd5b80600003612e9257612de76003840184846133db565b6040516001600160a01b03831681527f4a4c5d1a281180eea1e99d8177fa4798b9f7e019d5c57e7d8d73c6a22199aa5b9060200160405180910390a1600683015461ffff161561158857600080612e416006860186613159565b9092509050612e53600686018661346b565b612e616003860186846130d3565b7f2e8038f5812f763c6ef0c5427cb5a05ce6d7064af2ba7d1d270bc02660b019fd82826040516122ab929190613f4e565b612ea06003840184846134c9565b600683015461ffff16600003612eb557505050565b600080612ec56003860186613159565b9092509050600080612eda6006880188613159565b9150915080831015612f5c57612ef3600388018861319b565b612f00600688018861346b565b612f0e6003880188846130d3565b612f1c600688018886613289565b604080516001600160a01b038087168252841660208201527ffaeb8de771b867cf357f6b459a7002b62ec45d544a8078a3ecd91200cc826d759101612afe565b7f143db27bc2036653dc6f962ff9d0b803163d4af50c256ca9e6927b3d6dcd01978686604051612afe929190613f4e565b6000838383604051602001612fa493929190614676565b60405160208183030381529060405290506000612fc48787600385612c10565b90506000805160206147048339815191526003878484604051612afe949392919061459d565b60006001835460ff16600281111561300457613004613f38565b0361302a57506001600160a01b03811660009081526002830160205260409020546110b8565b506001600160a01b03166000908152600291909101602052604090206001015490565b6001600160a01b0382166000908152600284016020526040902080549082905581810361307a5750505050565b818110156130925761308d848484612991565b610702565b610702848484612d07565b60606110b5838360006134e3565b60006130b78483613580565b905060006130c58484612fea565b9050610bfd858584846135c0565b82546000906130e79061ffff166001614380565b6001600160a01b03831660008181526001870160209081526040808320805461ffff871661ffff19918216811790925581855260028b0190935290832080546001600160a01b031916909417909355875416909117865590915061314b8484612fea565b9050610bfd8585848461365a565b6000806131658461369e565b600160009081526002850160205260408120546001600160a01b03169061318c8583612fea565b919350909150505b9250929050565b6131a48261369e565b815461ffff166131b6836001836136c4565b6131c160018261469a565b835461ffff191661ffff919091161783556131dc8382613779565b60006131ea848460016137be565b905061070284846001846135c0565b60006132058483613580565b845490915061ffff166132198583836136c4565b61322460018261469a565b855461ffff191661ffff9190911617855561323f8582613779565b8161ffff168161ffff1603613255575050505050565b60006132628686856137be565b9050613270868685846137f0565b61327b8686856137be565b905061102786868584613834565b825460009061329d9061ffff166001614380565b6001600160a01b03831660008181526001870160209081526040808320805461ffff871661ffff19918216811790925581855260028b0190935290832080546001600160a01b03191690941790935587541690911786559091506133018484612fea565b9050610bfd858584846137f0565b600061331b8483613580565b905060006133018484612fea565b604051636eb1769f60e11b81523060048201526001600160a01b0383811660248301526000919085169063dd62ed3e90604401602060405180830381865afa158015613379573d6000803e3d6000fd5b505050506040513d601f19601f8201168201806040525081019061339d9190613f67565b905061070284846133ae8585613fa9565b6138bc565b60006133bf8483613580565b905060006133cd8484612fea565b9050610bfd85858484613834565b60006133e78483613580565b845490915061ffff166133fb8583836136c4565b61340660018261469a565b855461ffff191661ffff919091161785556134218582613779565b8161ffff168161ffff1603613437575050505050565b60006134448686856137be565b90506134528686858461365a565b61345d8686856137be565b9050611027868685846135c0565b6134748261369e565b815461ffff16613486836001836136c4565b61349160018261469a565b835461ffff191661ffff919091161783556134ac8382613779565b60006134ba848460016137be565b90506107028484600184613834565b60006134d58483613580565b9050600061314b8484612fea565b6060814710156135085760405163cd78605960e01b8152306004820152602401610212565b600080856001600160a01b031684866040516135249190614619565b60006040518083038185875af1925050503d8060008114613561576040519150601f19603f3d011682016040523d82523d6000602084013e613566565b606091505b509150915061357686838361394e565b9695505050505050565b6001600160a01b038116600090815260018301602052604081205461ffff16908190036110b85760405163f2755e3760e01b815260040160405180910390fd5b60006135cd8360026146b4565b855490915060009061ffff165b8061ffff168361ffff1611613651578061ffff168361ffff1610156136195761360f87878561360a816001614380565b6139aa565b9093509150613627565b6136248787856137be565b91505b838210156136515761363a8784876136c4565b82945084600261364a91906146b4565b92506135da565b50505050505050565b6000805b60018461ffff16111561102757617fff600185901c1691506136818686846137be565b905080831015611027576136968683866136c4565b81935061365e565b805461ffff166000036116c2576040516340d9b01160e01b815260040160405180910390fd5b825461ffff90811690831611156136dd576136dd6143f6565b825461ffff90811690821611156136f6576136f66143f6565b61ffff9182166000818152600285016020818152604080842080549690971680855281852080546001600160a01b039889168088526001909b018552838720805461ffff19908116909417905590971680865291852080549091168617905591905283546001600160a01b03199081169096179093555281549092169091179055565b61ffff166000908152600282016020908152604080832080546001600160a01b031981169091556001600160a01b031683526001909301905220805461ffff19169055565b61ffff811660009081526002840160205260408120546001600160a01b03166137e78482612fea565b95945050505050565b6000805b60018461ffff16111561102757617fff600185901c1691506138178686846137be565b9050808311156110275761382c8683866136c4565b8193506137f4565b83546201fffe600184901b169060009061ffff165b8061ffff168361ffff1611613651578061ffff168361ffff1610156138885761387e878785613879816001614380565b6139ec565b9093509150613896565b6138938787856137be565b91505b83821115613651576138a98784876136c4565b9193506201fffe600185901b1691613849565b6000836001600160a01b031663095ea7b384846040516024016138e0929190613f4e565b604051602081830303815290604052915060e01b6020820180516001600160e01b03838183161783525050505090506139198482613a2e565b6107025761394484856001600160a01b031663095ea7b386600060405160240161200b929190613f4e565b610702848261292e565b6060826139635761395e82613ad1565b612919565b815115801561397a57506001600160a01b0384163b155b156139a357604051639996b31560e01b81526001600160a01b0385166004820152602401610212565b5080612919565b600080806139b98787876137be565b905060006139c88888876137be565b90508181106139dc575084925090506139e3565b8493509150505b94509492505050565b600080806139fb8787876137be565b90506000613a0a8888876137be565b905081811115613a205784935091506139e39050565b509396939550929350505050565b6000806000846001600160a01b031684604051613a4b9190614619565b6000604051808303816000865af19150503d8060008114613a88576040519150601f19603f3d011682016040523d82523d6000602084013e613a8d565b606091505b5091509150818015613ab7575080511580613ab7575080806020019051810190613ab79190614635565b80156137e75750505050506001600160a01b03163b151590565b805115613ae15780518082602001fd5b604051630a12f52160e11b815260040160405180910390fd5b508054613b0690613dff565b6000825580601f10613b16575050565b601f0160209004906000526020600020908101906116c291905b80821115613b445760008155600101613b30565b5090565b634e487b7160e01b600052604160045260246000fd5b604080519081016001600160401b0381118282101715613b8057613b80613b48565b60405290565b604051601f8201601f191681016001600160401b0381118282101715613bae57613bae613b48565b604052919050565b600060208284031215613bc857600080fd5b81356001600160401b03811115613bde57600080fd5b8201601f81018413613bef57600080fd5b80356001600160401b03811115613c0857613c08613b48565b613c1b601f8201601f1916602001613b86565b818152856020838501011115613c3057600080fd5b81602084016020830137600091810160200191909152949350505050565b60008060008060608587031215613c6457600080fd5b84356001600160401b03811115613c7a57600080fd5b8501601f81018713613c8b57600080fd5b80356001600160401b03811115613ca157600080fd5b876020828401011115613cb357600080fd5b602091820198909750908601359560400135945092505050565b600060208284031215613cdf57600080fd5b5035919050565b60008083601f840112613cf857600080fd5b5081356001600160401b03811115613d0f57600080fd5b6020830191508360208260051b850101111561319457600080fd5b60008060008060008060608789031215613d4357600080fd5b86356001600160401b03811115613d5957600080fd5b613d6589828a01613ce6565b90975095505060208701356001600160401b03811115613d8457600080fd5b613d9089828a01613ce6565b90955093505060408701356001600160401b03811115613daf57600080fd5b613dbb89828a01613ce6565b979a9699509497509295939492505050565b6001600160a01b03811681146116c257600080fd5b600060208284031215613df457600080fd5b813561291981613dcd565b600181811c90821680613e1357607f821691505b60208210810361138f57634e487b7160e01b600052602260045260246000fd5b601f82111561158857806000526020600020601f840160051c81016020851015613e5a5750805b601f840160051c820191505b81811015610bfd5760008155600101613e66565b81516001600160401b03811115613e9357613e93613b48565b613ea781613ea18454613dff565b84613e33565b6020601f821160018114613edb5760008315613ec35750848201515b600019600385901b1c1916600184901b178455610bfd565b600084815260208120601f198516915b82811015613f0b5787850151825560209485019460019092019101613eeb565b5084821015613f295786840151600019600387901b60f8161c191681555b50505050600190811b01905550565b634e487b7160e01b600052602160045260246000fd5b6001600160a01b03929092168252602082015260400190565b600060208284031215613f7957600080fd5b5051919050565b634e487b7160e01b600052601160045260246000fd5b818103818111156110b8576110b8613f80565b808201808211156110b8576110b8613f80565b60005b83811015613fd7578181015183820152602001613fbf565b50506000910152565b60008151808452613ff8816020860160208601613fbc565b601f01601f19169290920160200192915050565b6020815260006110b56020830184613fe0565b634e487b7160e01b600052603260045260246000fd5b6000602082016020835280845480835260408501915060408160051b860101925085600052602060002060005b8281101561413a57868503603f190184528154855260018201546001600160a01b03166020860152608060408601526002820180546000906140a381613dff565b8060808a015260018216600081146140c257600181146140de57614112565b60ff19831660a08b015260a082151560051b8b01019350614112565b84600052602060002060005b838110156141095781548c820160a001526001909101906020016140ea565b8b0160a0019450505b5050506003840154606097909701969096525060209390930192600490910190600101614062565b50929695505050505050565b80820281158282048414176110b8576110b8613f80565b604081526000608082016001600160401b03855116604084015260208501516040606085015281815180845260a086019150602083019350600092505b808310156141c55783516001600160a01b03168252602093840193600193909301929091019061419a565b506001600160a01b03861660208601529250612919915050565b6000602082840312156141f157600080fd5b81516001600160401b0381111561420757600080fd5b82016040818503121561421957600080fd5b614221613b5e565b81516001600160401b038116811461423857600080fd5b815260208201516001600160401b0381111561425357600080fd5b80830192505084601f83011261426857600080fd5b81516001600160401b0381111561428157614281613b48565b8060051b61429160208201613b86565b918252602081850181019290810190888411156142ad57600080fd5b6020860195505b838610156142db57855192506142c983613dcd565b828252602095860195909101906142b4565b602085015250919695505050505050565b60808152600060c082016001600160401b0387511660808401526020870151604060a085015281815180845260e086019150602083019350600092505b808310156143545783516001600160a01b031682526020938401936001939093019290910190614329565b506001600160a01b0388166020860152925061436e915050565b60408201939093526060015292915050565b61ffff81811683821601908111156110b8576110b8613f80565b634e487b7160e01b600052603160045260246000fd5b6000808335601e198436030181126143c757600080fd5b8301803591506001600160401b038211156143e157600080fd5b60200191503681900382131561319457600080fd5b634e487b7160e01b600052600160045260246000fd5b6000808585111561441c57600080fd5b8386111561442957600080fd5b5050820193919092039150565b8183823760009101908152919050565b6001600160401b0383111561445d5761445d613b48565b6144718361446b8354613dff565b83613e33565b6000601f8411600181146144a5576000851561448d5750838201355b600019600387901b1c1916600186901b178355610bfd565b600083815260209020601f19861690835b828110156144d657868501358255602094850194600190920191016144b6565b50868210156144f35760001960f88860031b161c19848701351681555b505060018560011b0183555050505050565b6006811061452357634e487b7160e01b600052602160045260246000fd5b9052565b81835281816020850137506000828201602090810191909152601f909101601f19169091010190565b61455a8187614505565b6001600160a01b03851660208201526080604082018190526000906145829083018587614527565b90506001600160401b03831660608301529695505050505050565b6145a78186614505565b6001600160a01b03841660208201526080604082018190526000906145ce90830185613fe0565b90506001600160401b038316606083015295945050505050565b6001600160e01b031983168152815160009061460b816004850160208701613fbc565b919091016004019392505050565b6000825161462b818460208701613fbc565b9190910192915050565b60006020828403121561464757600080fd5b8151801515811461291957600080fd5b6001600160401b0381811683821601908111156110b8576110b8613f80565b60408152600061468a604083018587614527565b9050826020830152949350505050565b61ffff82811682821603908111156110b8576110b8613f80565b61ffff81811683821602908116908181146126fc576126fc613f8056fe4d6574686f64206e6f7420616c6c6f7765642069662076616c696461746f722068617320616c7265616479206a6f696e65641c593a2b803c3f9038e8b6743ba79fbc4276d2770979a01d2768ed12bea3243f4d6574686f64206e6f7420616c6c6f7765642069662076616c696461746f7220686173206e6f74206a6f696e6564691bb03ffc16c56fc96b82fd16cd1b3715f0bc3cdc6407005f49bb62058600954d6574686f64206e6f7420616c6c6f776564206966207065726d697373696f6e656420697320656e61626c656420616e64207375626e657420626f6f747374726170706564a2646970667358221220bcddf431ab73b0ec34c75b124ebd8a383ebbd0057cee78254cd5309c9d1ab3b164736f6c634300081a0033","linkReferences":{"contracts/lib/LibStorageStaking.sol":{"LibStorageStaking":[{"start":871,"length":20},{"start":1010,"length":20},{"start":2435,"length":20},{"start":2546,"length":20},{"start":3928,"length":20}],"LibStorageStakingGetters":[{"start":1308,"length":20},{"start":2240,"length":20},{"start":3495,"length":20}],"LibStorageStakingOps":[{"start":3027,"length":20}]},"contracts/lib/SubnetIDHelper.sol":{"SubnetIDHelper":[{"start":6090,"length":20},{"start":10183,"length":20}]}}},"methodIdentifiers":{"addBootstrapNode(string)":"10fd4261","join(bytes,uint256,uint256)":"1ddee554","kill()":"41c0e1b5","leave()":"d66d9e19","preFund(uint256)":"4d9013a1","preRelease(uint256)":"66783c9b","setFederatedPower(address[],bytes[],uint256[])":"da5d09ee","setValidatorGater(address)":"dcda8973","stake(uint256)":"a694fc3a","stakeStorage(uint256)":"72427494","unstake(uint256)":"2e17de78","unstakeStorage(uint256)":"4f9a27e8"},"id":50}