{"abi":[{"type":"function","name":"addBootstrapNode","inputs":[{"name":"netAddress","type":"string","internalType":"string"}],"outputs":[],"stateMutability":"nonpayable"},{"type":"function","name":"getSubnetTotalConfirmedStorage","inputs":[],"outputs":[{"name":"","type":"uint256","internalType":"uint256"}],"stateMutability":"view"},{"type":"function","name":"getTotalConfirmedStorage","inputs":[{"name":"validator","type":"address","internalType":"address"}],"outputs":[{"name":"","type":"uint256","internalType":"uint256"}],"stateMutability":"view"},{"type":"function","name":"getTotalStorage","inputs":[{"name":"validator","type":"address","internalType":"address"}],"outputs":[{"name":"","type":"uint256","internalType":"uint256"}],"stateMutability":"view"},{"type":"function","name":"hasStorage","inputs":[{"name":"validator","type":"address","internalType":"address"}],"outputs":[{"name":"","type":"bool","internalType":"bool"}],"stateMutability":"view"},{"type":"function","name":"isValidator","inputs":[{"name":"validator","type":"address","internalType":"address"}],"outputs":[{"name":"","type":"bool","internalType":"bool"}],"stateMutability":"view"},{"type":"function","name":"join","inputs":[{"name":"publicKey","type":"bytes","internalType":"bytes"},{"name":"amount","type":"uint256","internalType":"uint256"},{"name":"storageCommitment","type":"uint256","internalType":"uint256"}],"outputs":[],"stateMutability":"payable"},{"type":"function","name":"kill","inputs":[],"outputs":[],"stateMutability":"nonpayable"},{"type":"function","name":"leave","inputs":[],"outputs":[],"stateMutability":"nonpayable"},{"type":"function","name":"preFund","inputs":[{"name":"amount","type":"uint256","internalType":"uint256"}],"outputs":[],"stateMutability":"payable"},{"type":"function","name":"preRelease","inputs":[{"name":"amount","type":"uint256","internalType":"uint256"}],"outputs":[],"stateMutability":"nonpayable"},{"type":"function","name":"setActiveLimit","inputs":[{"name":"limit","type":"uint16","internalType":"uint16"}],"outputs":[],"stateMutability":"nonpayable"},{"type":"function","name":"setFederatedPower","inputs":[{"name":"validators","type":"address[]","internalType":"address[]"},{"name":"publicKeys","type":"bytes[]","internalType":"bytes[]"},{"name":"powers","type":"uint256[]","internalType":"uint256[]"}],"outputs":[],"stateMutability":"nonpayable"},{"type":"function","name":"setMinCollateral","inputs":[{"name":"amount","type":"uint16","internalType":"uint16"}],"outputs":[],"stateMutability":"nonpayable"},{"type":"function","name":"setStorageCollateralRatio","inputs":[{"name":"amount","type":"uint16","internalType":"uint16"}],"outputs":[],"stateMutability":"nonpayable"},{"type":"function","name":"setValidatorGater","inputs":[{"name":"gater","type":"address","internalType":"address"}],"outputs":[],"stateMutability":"nonpayable"},{"type":"function","name":"stake","inputs":[{"name":"amount","type":"uint256","internalType":"uint256"}],"outputs":[],"stateMutability":"payable"},{"type":"function","name":"stakeStorage","inputs":[{"name":"amount","type":"uint256","internalType":"uint256"}],"outputs":[],"stateMutability":"payable"},{"type":"function","name":"unstake","inputs":[{"name":"amount","type":"uint256","internalType":"uint256"}],"outputs":[],"stateMutability":"nonpayable"},{"type":"function","name":"unstakeStorage","inputs":[{"name":"amount","type":"uint256","internalType":"uint256"}],"outputs":[],"stateMutability":"nonpayable"},{"type":"event","name":"ActiveValidatorCollateralUpdated","inputs":[{"name":"validator","type":"address","indexed":false,"internalType":"address"},{"name":"newPower","type":"uint256","indexed":false,"internalType":"uint256"}],"anonymous":false},{"type":"event","name":"ActiveValidatorLeft","inputs":[{"name":"validator","type":"address","indexed":false,"internalType":"address"}],"anonymous":false},{"type":"event","name":"ActiveValidatorReplaced","inputs":[{"name":"oldValidator","type":"address","indexed":false,"internalType":"address"},{"name":"newValidator","type":"address","indexed":false,"internalType":"address"}],"anonymous":false},{"type":"event","name":"NewActiveValidator","inputs":[{"name":"validator","type":"address","indexed":false,"internalType":"address"},{"name":"power","type":"uint256","indexed":false,"internalType":"uint256"}],"anonymous":false},{"type":"event","name":"NewStakingChangeRequest","inputs":[{"name":"op","type":"uint8","indexed":false,"internalType":"enum StakingOperation"},{"name":"validator","type":"address","indexed":false,"internalType":"address"},{"name":"payload","type":"bytes","indexed":false,"internalType":"bytes"},{"name":"configurationNumber","type":"uint64","indexed":false,"internalType":"uint64"}],"anonymous":false},{"type":"event","name":"NewWaitingValidator","inputs":[{"name":"validator","type":"address","indexed":false,"internalType":"address"},{"name":"power","type":"uint256","indexed":false,"internalType":"uint256"}],"anonymous":false},{"type":"event","name":"Paused","inputs":[{"name":"account","type":"address","indexed":false,"internalType":"address"}],"anonymous":false},{"type":"event","name":"SubnetBootstrapped","inputs":[{"name":"","type":"tuple[]","indexed":false,"internalType":"struct Validator[]","components":[{"name":"weight","type":"uint256","internalType":"uint256"},{"name":"addr","type":"address","internalType":"address"},{"name":"metadata","type":"bytes","internalType":"bytes"},{"name":"storageAmount","type":"uint256","internalType":"uint256"}]}],"anonymous":false},{"type":"event","name":"Unpaused","inputs":[{"name":"account","type":"address","indexed":false,"internalType":"address"}],"anonymous":false},{"type":"event","name":"WaitingValidatorCollateralUpdated","inputs":[{"name":"validator","type":"address","indexed":false,"internalType":"address"},{"name":"newPower","type":"uint256","indexed":false,"internalType":"uint256"}],"anonymous":false},{"type":"event","name":"WaitingValidatorLeft","inputs":[{"name":"validator","type":"address","indexed":false,"internalType":"address"}],"anonymous":false},{"type":"error","name":"AddressEmptyCode","inputs":[{"name":"target","type":"address","internalType":"address"}]},{"type":"error","name":"AddressInsufficientBalance","inputs":[{"name":"account","type":"address","internalType":"address"}]},{"type":"error","name":"AddressShouldBeValidator","inputs":[]},{"type":"error","name":"CannotReleaseZero","inputs":[]},{"type":"error","name":"CollateralIsZero","inputs":[]},{"type":"error","name":"DuplicatedGenesisValidator","inputs":[]},{"type":"error","name":"EmptyAddress","inputs":[]},{"type":"error","name":"EnforcedPause","inputs":[]},{"type":"error","name":"ExpectedPause","inputs":[]},{"type":"error","name":"FailedInnerCall","inputs":[]},{"type":"error","name":"InvalidFederationPayload","inputs":[]},{"type":"error","name":"InvalidPublicKeyLength","inputs":[]},{"type":"error","name":"MethodNotAllowed","inputs":[{"name":"reason","type":"string","internalType":"string"}]},{"type":"error","name":"NotAllValidatorsHaveLeft","inputs":[]},{"type":"error","name":"NotEnoughBalance","inputs":[]},{"type":"error","name":"NotEnoughCollateral","inputs":[]},{"type":"error","name":"NotEnoughCollateralForStorageAmount","inputs":[]},{"type":"error","name":"NotEnoughFunds","inputs":[]},{"type":"error","name":"NotEnoughGenesisValidators","inputs":[]},{"type":"error","name":"NotEnoughStorageCommitment","inputs":[]},{"type":"error","name":"NotOwner","inputs":[]},{"type":"error","name":"NotOwnerOfPublicKey","inputs":[]},{"type":"error","name":"NotValidator","inputs":[{"name":"","type":"address","internalType":"address"}]},{"type":"error","name":"PQDoesNotContainAddress","inputs":[]},{"type":"error","name":"PQEmpty","inputs":[]},{"type":"error","name":"ReentrancyError","inputs":[]},{"type":"error","name":"SafeERC20FailedOperation","inputs":[{"name":"token","type":"address","internalType":"address"}]},{"type":"error","name":"SubnetAlreadyBootstrapped","inputs":[]},{"type":"error","name":"SubnetAlreadyKilled","inputs":[]},{"type":"error","name":"SubnetNotBootstrapped","inputs":[]},{"type":"error","name":"WithdrawExceedingCollateral","inputs":[]}],"bytecode":{"object":"0x60808060405234601557614b5a908161001b8239f35b600080fdfe6080604052600436101561001257600080fd5b6000803560e01c80630e00a0a91461173a57806310fd4261146115df5780631ddee554146111365780632837e240146110fc5780632e17de7814610f1257806341c0e1b514610e495780634d9013a114610d815780634f9a27e814610d2b578063567fd6d114610cdb57806366783c9b14610bcf5780637242749414610b525780638a8c9ff914610ab3578063a694fc3a14610986578063a920e63a14610933578063c11fc8601461087f578063c18db5f514610858578063d66d9e19146107e3578063da5d09ee146101a4578063dcda8973146101525763facd743b146100f957600080fd5b3461014f57602036600319011261014f576004356001600160a01b038116810361014b5761013f6002916020935060018060a01b0316600052600d602052604060002090565b01541515604051908152f35b5080fd5b80fd5b503461014f57602036600319011261014f576004356001600160a01b0381169081900361014b57610181611df9565b6101896131f4565b6bffffffffffffffffffffffff60a01b602154161760215580f35b503461014f57606036600319011261014f576004356001600160401b03811161014b576101d590369060040161183b565b906024356001600160401b0381116107df576101f590369060040161183b565b6044356001600160401b0381116107db5761021490369060040161183b565b91909461021f611df9565b6102276131f4565b60ff600b541660038110156107c75760010361079757828103610788578181036107885760055460f81c1561054b57610262838783886134e9565b865b818110610275575050505050505080f35b610289610283828588613238565b9061332c565b6001600160a01b036102a461029f84868b613279565b613289565b166001600160a01b039091160361053c57806102c761029f61030f93858a613279565b6102d2828689613238565b6102e084898d979497613279565b356102fb604051968793604060208601526060850191613368565b90604083015203601f1981018552846117c8565b6001600160401b036015541692604051610328816117ad565b60038152602081019082825260018060a01b0384166040820152858d52601660205260408d2091815160068110156105285760ff80198554169116178355518051906001600160401b038211610514578e906103948361038b600188015461186b565b600188016118bc565b602091601f84116001146104a857600294936103c79390928361049d575b50508160011b916000199060031b1c19161790565b60018401555b60400151910180546001600160a01b0319166001600160a01b0392909216919091179055600184016001600160401b038111610489576001600160401b03166001600160401b0319601554161760155560405190600660031015610473576001946104648392600080516020614a658339815191529560038552888060a01b03166020850152608060408501526080840190611bb3565b9060608301520390a101610264565b634e487b7160e01b600052602160045260246000fd5b634e487b7160e01b8c52601160045260248cfd5b0151905038806103b2565b9190601f198416600187018452828420935b8181106104fc57509160019391856002979694106104e3575b505050811b0160018401556103cd565b015160001960f88460031b161c191690553880806104d3565b929360206001819287860151815501950193016104ba565b634e487b7160e01b8f52604160045260248ffd5b634e487b7160e01b8f52602160045260248ffd5b634be9251d60e11b8852600488fd5b6001600160401b036006969496939293541681111561077957610570828583886134e9565b865b818110610668575050600580546001600160f81b0316600160f81b17905550506040517f429d165d6b6555ff1fd586b9aeb68cb9499a92aa606cf0e2b9a5edf27b12202a935091508190506105c681612655565b0390a18080546105ff6105ed826105db61193a565b6005546001600160a01b031690613a27565b6105f9846105db611903565b906119dd565b6005549091906001600160a01b0316803b1561066357604484926040519485938492630d66d6c160e41b845260048401528560248401525af180156106585761064757505080f35b81610651916117c8565b61014f5780f35b6040513d84823e3d90fd5b505050fd5b61067661028382868a613238565b6001600160a01b0361068c61029f84868b613279565b166001600160a01b039091160361053c576106b36106ae61029f83858a613279565b614096565b61076a57806107648861075488610730858a610729828f61072361029f8f929d8f60019f6106fa8e6106f4858c6106ee61029f838989613279565b93613238565b916121fb565b61071e8c610717858961071161029f838989613279565b93613279565b3590614137565b613279565b96613279565b3595613238565b90916040519461073f86611761565b8552878060a01b031660208501523691611804565b60408201528a6060820152612359565b01610572565b630472b35360e41b8852600488fd5b63031480b160e51b8752600487fd5b637e65935960e01b8752600487fd5b6107c36107a26127c9565b60405163015538b160e01b8152602060048201529182916024830190611bb3565b0390fd5b634e487b7160e01b88526021600452602488fd5b8580fd5b8380fd5b503461014f578060031936011261014f576001600080516020614ac58339815191525414610849576001600080516020614ac583398151915255610825611dbd565b61082d611df9565b610835611bd8565b80600080516020614ac58339815191525580f35b6329f745a760e01b8152600490fd5b503461014f57602036600319011261014f5760043561ffff811680910361014b5760025580f35b503461014f57602036600319011261014f576004356001600160a01b038116919082900361014f5760405191631886157b60e01b8352600483015260208260248173__$58801a7a4e78cbbcd9d24532392b6c9267$__5af490811561092757906108ef575b602090604051908152f35b506020813d60201161091f575b81610909602093836117c8565b8101031261091a57602090516108e4565b600080fd5b3d91506108fc565b604051903d90823e3d90fd5b503461014f578060031936011261014f57604051634adb90af60e11b81529060208260048173__$58801a7a4e78cbbcd9d24532392b6c9267$__5af490811561092757906108ef57602090604051908152f35b50602036600319011261014f5760043561099e611dbd565b6109a6611df9565b6109ae612838565b8015610aa457336000908152600d602052604090206002015415610a2f57336000908152600d602052604090206109f490600201546109ed83826119dd565b9033612c2c565b610a0581610a00611903565b611e19565b5060055460f81c610a2557610a1a90336124d2565b610a226126e9565b80f35b610a229033611fd6565b50506107c3604051610a426060826117c8565b602e81527f4d6574686f64206e6f7420616c6c6f7765642069662076616c696461746f722060208201526d1a185cc81b9bdd081a9bda5b995960921b604082015260405191829163015538b160e01b8352602060048401526024830190611bb3565b635a78c58160e11b8252600482fd5b503461014f57602036600319011261014f576004356001600160a01b0381169081900361014b5760405190638a8c9ff960e01b8252600482015260208160248173__$58801a7a4e78cbbcd9d24532392b6c9267$__5af49081156106585760209291610b25575b506040519015158152f35b610b459150823d8411610b4b575b610b3d81836117c8565b810190611b78565b38610b1a565b503d610b33565b50602036600319011261014f57610b67611dbd565b610b6f611df9565b8073__$903f19875093401f8d119fd5a50910a076$__60055460f81c813b15610bcb5782906064604051809481936303ab60fb60e61b83526004356004840152346024840152151560448301525af48015610658576106475750f35b5050fd5b503461014f57602036600319011261014f576004356001600080516020614ac58339815191525414610ccc576001600080516020614ac5833981519152558015610cbd5760055460f81c610cae57610c3081610c2961193a565b3390612fec565b5050338252601f60205280604083205410610c9f57610c6990338352601f60205260408320610c60828254611971565b90558254611971565b8155338152601f602052604081205415610c915780600080516020614ac58339815191525580f35b610c9a33613118565b610835565b63569d45cf60e11b8252600482fd5b631b39f2f360e11b8252600482fd5b631036b5ad60e31b8252600482fd5b6329f745a760e01b8252600482fd5b503461014f57602036600319011261014f57600435906001600160a01b038216820361014f5760206005610d218460018060a01b0316600052600d602052604060002090565b0154604051908152f35b503461014f57602036600319011261014f576001600080516020614ac58339815191525414610849576001600080516020614ac583398151915255610d6e611dbd565b610d76611df9565b6108356004356119ea565b50602036600319011261014f576004358015610cbd5760055460f81c610cae57610dad81610a0061193a565b50338252601f602052604082205415610dea575b610de590338352601f60205260408320610ddc8282546119dd565b905582546119dd565b815580f35b602054600160401b811015610e355790610e2e610e10836001610de59501602055611994565b81546001600160a01b0360039290921b91821b19163390911b179055565b9050610dc1565b634e487b7160e01b83526041600452602483fd5b503461014f578060031936011261014f57610e62611df9565b61ffff6011541661ffff600e54160161ffff8111610efe5761ffff16610eef576005548060f81c15610ee0576006805468ff00000000000000001916600160401b17905581906001600160a01b0316803b15610edd578180916004604051809481936341c0e1b560e01b83525af18015610658576106475750f35b50fd5b63dfd06d8f60e01b8252600482fd5b636b62255160e11b8152600490fd5b634e487b7160e01b82526011600452602482fd5b503461014f57602036600319011261014f576004356001600080516020614ac58339815191525414610ccc576001600080516020614ac583398151915255610f58611dbd565b610f60611df9565b80156110ed57336000908152600d6020526040902060020154156110da57610f86612838565b336000908152600d6020526040902060020154604051631886157b60e01b815233600482015260208160248173__$58801a7a4e78cbbcd9d24532392b6c9267$__5af49081156110cf57849161109d575b508282111561108f57610fea8383611971565b90601954908181029181159183041481171561107b57159182611071575b505061106257806109ed8361101c93611971565b60055460f81c61105857806110346110429233612eb8565b3361103d611903565b612fec565b505080600080516020614ac58339815191525580f35b610c9a9033612cdf565b63164fc4b360e11b8352600483fd5b1090503880611008565b634e487b7160e01b86526011600452602486fd5b62d11df360e61b8452600484fd5b90506020813d6020116110c7575b816110b8602093836117c8565b8101031261091a575138610fd7565b3d91506110ab565b6040513d86823e3d90fd5b633b4f6e2b60e21b825233600452602482fd5b63c79cad7b60e01b8252600482fd5b503461014f57602036600319011261014f5760043561ffff8116810361014b5762ffff00600b549160081b169062ffff00191617600b5580f35b50606036600319011261014f57600435906001600160401b03821161014f573660238301121561014f5781600401356001600160401b03811161014b576024830192602482369201011161014b57602435604435916001600080516020614ac583398151915254146115d0576001600080516020614ac5833981519152556111bc611dbd565b6111c4611df9565b60055460f81c6115c3575b81156115b457336000908152600d602052604090206002015461153d576041810361152e57336001600160a01b03611207838861332c565b160361151f5783946112198333612aad565b61122583610a00611903565b5060055460f81c6112b157611245929161123f91336121fb565b336124d2565b73__$26f40b5d0ea586b7f80823d45b7ee0265b$__803b15610bcb57604051632477197560e21b815233600482015260248101929092528290829060449082905af480156106585761129c575b50506108356126e9565b816112a6916117c8565b61014f578038611292565b919293506112c0368284611804565b6001600160401b036015541690604051906112da826117ad565b600282526020820190815260408201903382528389526016602052604089209251600681101561150b5760ff801985541691161783556001830190518051906001600160401b0382116114f75761133b82611335855461186b565b856118bc565b6020908b601f841160011461148f57600295949361136f9390928361049d5750508160011b916000199060031b1c19161790565b90555b51910180546001600160a01b0319166001600160a01b0392909216919091179055600181016001600160401b03811161147b57916114099493916001600160401b03600080516020614a6583398151915294166001600160401b031960155416176015556113fa60405193849360028552336020860152608060408601526080850191613368565b9060608301520390a133611fd6565b8173__$26f40b5d0ea586b7f80823d45b7ee0265b$__803b1561014b57604051638ddb52fb60e01b815233600482015260248101939093528190839060449082905af4801561146e5761145e575b5050610835565b611467916117c8565b3881611457565b50604051903d90823e3d90fd5b634e487b7160e01b87526011600452602487fd5b50838c52818c209190601f1984168d5b8181106114df5750916001939185600298979694106114c6575b505050811b019055611372565b015160001960f88460031b161c191690553880806114b9565b9293602060018192878601518155019501930161149f565b634e487b7160e01b8b52604160045260248bfd5b634e487b7160e01b8a52602160045260248afd5b634be9251d60e11b8452600484fd5b6318dca5e960e21b8452600484fd5b6107c360405161154e6060826117c8565b603281527f4d6574686f64206e6f7420616c6c6f7765642069662076616c696461746f72206020820152711a185cc8185b1c9958591e481a9bda5b995960721b604082015260405191829163015538b160e01b8352602060048401526024830190611bb3565b635a78c58160e11b8452600484fd5b6115cb612838565b6111cf565b6329f745a760e01b8452600484fd5b503461014f57602036600319011261014f576004356001600160401b03811161014b573660238201121561014b57611621903690602481600401359101611804565b9061162a611dbd565b338152600f60205261ffff604082205416156117275781511561171857338152601a6020526040812082516001600160401b038111610e355761167781611671845461186b565b846118bc565b6020601f82116001146116b757819084956116a794959261049d5750508160011b916000199060031b1c19161790565b90555b6116b33361329d565b5080f35b82845280842090601f198316855b818110611700575095836001959697106116e7575b505050811b0190556116aa565b015160001960f88460031b161c191690553880806116da565b9192602060018192868b0151815501940192016116c5565b637138356f60e01b8152600490fd5b633b4f6e2b60e21b815233600452602490fd5b503461014f57602036600319011261014f5760043561ffff811680910361014b5760195580f35b608081019081106001600160401b0382111761177c57604052565b634e487b7160e01b600052604160045260246000fd5b604081019081106001600160401b0382111761177c57604052565b606081019081106001600160401b0382111761177c57604052565b90601f801991011681019081106001600160401b0382111761177c57604052565b6001600160401b03811161177c57601f01601f191660200190565b929192611810826117e9565b9161181e60405193846117c8565b82948184528183011161091a578281602093846000960137010152565b9181601f8401121561091a578235916001600160401b03831161091a576020808501948460051b01011161091a57565b90600182811c9216801561189b575b602083101461188557565b634e487b7160e01b600052602260045260246000fd5b91607f169161187a565b8181106118b0575050565b600081556001016118a5565b9190601f81116118cb57505050565b6118f7926000526020600020906020601f840160051c830193106118f9575b601f0160051c01906118a5565b565b90915081906118ea565b6040519061191082611792565b8160085460ff81169060028210156104735790825260081c6001600160a01b031660209190910152565b6040519061194782611792565b8160075460ff81169060028210156104735790825260081c6001600160a01b031660209190910152565b9190820391821161197e57565b634e487b7160e01b600052601160045260246000fd5b6020548110156119af57602060005260206000200190600090565b634e487b7160e01b600052603260045260246000fd5b80548210156119af5760005260206000200190600090565b9190820180921161197e57565b6119f2612838565b60009080156110ed57604051631886157b60e01b815233600482015260208160248173__$58801a7a4e78cbbcd9d24532392b6c9267$__5af4908115611b6d578391611b3b575b508015611b2857811015611b195760055460f81c15611ab85773__$26f40b5d0ea586b7f80823d45b7ee0265b$__803b15611ab45760405163071bfc3160e11b815233600482015260248101929092528290829060449082905af4801561065857611aa2575050565b611aad8280926117c8565b61014f5750565b8280fd5b73__$26f40b5d0ea586b7f80823d45b7ee0265b$__803b15611ab457604051637964e08160e11b81523360048201526024810192909252829082908180604481015b03915af4801561065857611b0c575050565b81611b16916117c8565b50565b631871c2dd60e01b8252600482fd5b633b4f6e2b60e21b835233600452602483fd5b90506020813d602011611b65575b81611b56602093836117c8565b81010312611ab4575138611a39565b3d9150611b49565b6040513d85823e3d90fd5b9081602091031261091a5751801515810361091a5790565b60005b838110611ba35750506000910152565b8181015183820152602001611b93565b90602091611bcc81518092818552858086019101611b90565b601f01601f1916010190565b60055460009060f81c611db0575b336000908152600d6020526040902060020154604051631886157b60e01b81523360048201529060208260248173__$58801a7a4e78cbbcd9d24532392b6c9267$__5af4918215611b6d578392611d7c575b5080158015611d74575b611b2857611c508133612b8a565b611c593361342e565b50338352601a6020528260408120611c71815461186b565b80611d32575b50505060055460f81c15611cd557611c8f9033612cdf565b73__$26f40b5d0ea586b7f80823d45b7ee0265b$__803b15611ab45760405163071bfc3160e11b8152336004820152602481019290925282908290818060448101611afa565b611cfc90611d0693338152601f602052604081205480611d0b575b50506110348133612eb8565b5050601454611971565b601455565b611d2d91338152601f602052611d22828254611971565b905561103433613118565b611cf0565b601f8111600114611d485750555b823880611c77565b81835260208320611d6491601f0160051c8101906001016118a5565b8082528160208120915555611d40565b508115611c42565b9091506020813d602011611da8575b81611d98602093836117c8565b81010312611ab457519038611c38565b3d9150611d8b565b611db8612838565b611be6565b60ff7fc451c9429c27db68f286ab8a68f311f1dccab703ba9423aed29cd397ae63f8635416611de857565b63d93c066560e01b60005260046000fd5b60ff60065460401c16611e0857565b63248c8efb60e11b60005260046000fd5b90815191600283101561047357600092600103611f8f576020908101516040516370a0823160e01b8152306004820152926001600160a01b039091169183602481855afa9283156110cf578493611f5a575b50602491611eaa602092604051906323b872dd60e01b858301523386830152306044830152606482015260648152611ea46084826117c8565b8261361d565b6040516370a0823160e01b815230600482015292839182905afa928315610927578093611f23575b505080821115611ee857611ee591611971565b90565b60405162461bcd60e51b81526020600482015260136024820152724e6f2062616c616e636520696e63726561736560681b6044820152606490fd5b909192506020823d602011611f52575b81611f40602093836117c8565b8101031261014f575051903880611ed2565b3d9150611f33565b9092506020813d602011611f87575b81611f76602093836117c8565b810103126107df5751916024611e6b565b3d9150611f69565b508091503410611f9c5790565b60405162461bcd60e51b8152602060048201526012602482015271496e73756666696369656e742066756e647360701b6044820152606490fd5b91906040519281602085015260208452611ff16040856117c8565b6001600160401b03601554166040519461200a866117ad565b60009586815260208101908282526040810160018060a01b03861692838252858a52601660205260408a20925160068110156121e75760ff801985541691161783556001830190518051906001600160401b0382116121d35761207182611335855461186b565b6020908c601f841160011461216c5760029594936120a59390928361049d5750508160011b916000199060031b1c19161790565b90555b51910180546001600160a01b0319166001600160a01b0392909216919091179055600183016001600160401b038111612158576001600160401b03166001600160401b03196015541617601555604051966006811015612144579261213688938493600080516020614a65833981519152966118f79a9b526020850152608060408501526080840190611bb3565b9060608301520390a1613389565b634e487b7160e01b81526021600452602490fd5b634e487b7160e01b88526011600452602488fd5b9190601f198416858452828420935b8181106121bb5750916001939185600298979694106121a2575b505050811b0190556120a8565b015160001960f88460031b161c19169055388080612195565b9293602060018192878601518155019501930161217b565b634e487b7160e01b8c52604160045260248cfd5b634e487b7160e01b8b52602160045260248bfd5b6001600160a01b03166000908152600d6020526040902090929190600301906001600160401b03811161177c5761223681611671845461186b565b6000601f821160011461227657819061226793949560009261226b5750508160011b916000199060031b1c19161790565b9055565b0135905038806103b2565b601f198216948382526020822091805b8781106122be5750836001959697106122a4575b505050811b019055565b0135600019600384901b60f8161c1916905538808061229a565b90926020600181928686013581550194019101612286565b600092918154916122e68361186b565b808352926001811690811561233c575060011461230257505050565b60009081526020812093945091925b838310612322575060209250010190565b600181602092949394548385870101520191019190612311565b915050602093945060ff929192191683830152151560051b010190565b601e54600160401b81101561177c5760018101601e556000601e548210156124be57601e905260021b7f50bb669a95c7b50b7e8a6f09454034b2b14cf2b85c730dca9a539ca82cb6e350019060008151835560208201516001840180546001600160a01b0319166001600160a01b039290921691909117905560408201518051600285019290916001600160401b0383116124aa57612402836123fc865461186b565b866118bc565b602091601f84116001146124425792806060959361243893600398969261049d5750508160011b916000199060031b1c19161790565b90555b0151910155565b9190601f198416858452828420935b818110612492575092600192859260039896606098961061247a575b505050811b01905561243b565b015160001983891b60f8161c1916905538808061246d565b92936020600181928786015181550195019301612451565b634e487b7160e01b82526041600452602482fd5b634e487b7160e01b81526032600452602490fd5b90612540906124e18184613389565b61253761250d8260016125068760018060a01b0316600052600d602052604060002090565b01546119dd565b9182600161252d8760018060a01b0316600052600d602052604060002090565b0155600c546119dd565b600c558261368b565b60055460f81c1561254e5750565b601e5460009080825b8281106125f7575b5050501561256a5750565b806125df6125e660016125926118f79560018060a01b0316600052600d602052604060002090565b01549260036125b38260018060a01b0316600052600d602052604060002090565b0190604051946125c286611761565b85526001600160a01b0316602085015260405192839182906122d6565b03826117c8565b604082015260006060820152612359565b6000828210156124be57601e90527f50bb669a95c7b50b7e8a6f09454034b2b14cf2b85c730dca9a539ca82cb6e351600282901b01546001600160a01b0386811691161461264757600101612557565b50505050600138808061255f565b6020810160208252601e54809152604082019060408160051b84010192601e6000526020600020926000915b83831061269057505050505090565b909192939460206004600192603f1985820301865288548152838060a01b03848a01541683820152608060408201526126cf6080820160028b016122d6565b90606060038b015491015297019301930191939290612681565b600c546002548110156126f95750565b61ffff600e54166001600160401b036006541611156127155750565b600580546001600160f81b0316600160f81b1790556040517f429d165d6b6555ff1fd586b9aeb68cb9499a92aa606cf0e2b9a5edf27b12202a908061275981612655565b0390a160009081549061277d612771836105db61193a565b6105f9836105db611903565b6005546001600160a01b03169290833b156127c5578492916044916040519586948593630d66d6c160e41b8552600485015260248401525af1801561065857611b0c575b5050565b8480fd5b604051906127d86080836117c8565b6045825264185c1c195960da1b6060837f4d6574686f64206e6f7420616c6c6f776564206966207065726d697373696f6e60208201527f656420697320656e61626c656420616e64207375626e657420626f6f7473747260408201520152565b60ff600b541660038110156104735761079757565b6040519061285a82611792565b6009546001600160401b03168252604051600a805480835260009182528491839160208301917fc65a7bb8d6351c1cf70c95a316cc6a92839c986682d98bc35f958f4883f9d2a891905b8181106128c157505050602092916128bd9103846117c8565b0152565b82546001600160a01b03168452869450602090930192600192830192016128a4565b60208183031261091a578051906001600160401b03821161091a57019060408282031261091a576040519161291783611792565b80516001600160401b038116810361091a5783526020810151906001600160401b03821161091a570181601f8201121561091a578051916001600160401b03831161177c578260051b916040519361297260208501866117c8565b845260208085019382010191821161091a57602001915b81831061299b57505050602082015290565b82516001600160a01b038116810361091a57815260209283019201612989565b9092919260408252602060808301916001600160401b0381511660408501520151604060608401528051809252602060a0840191019160005b818110612a0f575050602091509360018060a01b0316910152565b83516001600160a01b03168352602093840193909201916001016129f4565b919493929060808352602060c08401916001600160401b038151166080860152015190604060a08501528151809152602060e0850192019060005b818110612a8e575050506001600160a01b039095166020830152604082015260600152565b82516001600160a01b0316845260209384019390920191600101612a69565b60215460009291906001600160a01b031615612b8557612aec9083612ad061284d565b6040518094819263aa5106cb60e01b83523090600484016129bb565b038173__$3fbe32418a9ca7804328967972fb037388$__5af49182156110cf578492612b61575b506021546001600160a01b031691823b156127c55791849291838093612b4f604051978896879586946307fa355f60e51b865260048601612a2e565b03925af1801561065857611b0c575050565b612b7e9192503d8086833e612b7681836117c8565b8101906128e3565b9038612b13565b505050565b60215460009291906001600160a01b031615612b8557612bad9083612ad061284d565b038173__$3fbe32418a9ca7804328967972fb037388$__5af49182156110cf578492612c10575b506021546001600160a01b031691823b156127c55791849391848094612b4f604051978896879586946307fa355f60e51b865260048601612a2e565b612c259192503d8086833e612b7681836117c8565b9038612bd4565b6021546000939291906001600160a01b031615612cd957612c509084612ad061284d565b038173__$3fbe32418a9ca7804328967972fb037388$__5af4918215612cce578592612cb2575b506021546001600160a01b031691823b156107db57908580949392612b4f604051978896879586946307fa355f60e51b865260048601612a2e565b612cc79192503d8087833e612b7681836117c8565b9038612c77565b6040513d87823e3d90fd5b50505050565b91906040519281602085015260208452612cfa6040856117c8565b6001600160401b036015541660405194612d13866117ad565b6000956001815260208101908282526040810160018060a01b03861692838252858a52601660205260408a20925160068110156121e75760ff801985541691161783556001830190518051906001600160401b0382116121d357612d7b82611335855461186b565b6020908c601f8411600114612e51576002959493612daf9390928361049d5750508160011b916000199060031b1c19161790565b90555b51910180546001600160a01b0319166001600160a01b0392909216919091179055600183016001600160401b038111612158576001600160401b03166001600160401b0319601554161760155560405196600660011015612144575095600080516020614a6583398151915292612e4382936118f79899600185526020850152608060408501526080840190611bb3565b9060608301520390a16133ac565b9190601f198416858452828420935b818110612ea0575091600193918560029897969410612e87575b505050811b019055612db2565b015160001960f88460031b161c19169055388080612e7a565b92936020600181928786015181550195019301612e60565b90612f71612f7992612eca83826133ac565b612ef3836001612eec8460018060a01b0316600052600d602052604060002090565b0154611971565b906002612f128260018060a01b0316600052600d602052604060002090565b015482159081612fe3575b5015612fc0576001600160a01b0381166000908152600d6020526040812060059082815582600182015582600282015560038101612f5b815461186b565b9081612f7e575b50508260048201550155613bd8565b600c54611971565b600c55565b81601f869311600114612f955750555b3880612f62565b81835260208320612fb091601f01861c8101906001016118a5565b8082528160208120915555612f8e565b6001600160a01b0381166000908152600d60205260409020829060010155613bd8565b90501538612f1d565b92919060006060855195600287101561047357600096613050575050508147106130415783918291829182916001600160a01b03165af161302b6133fe565b506040519261303b6020856117c8565b83529190565b63569d45cf60e11b8452600484fd5b80969391959492965160028110156130f05760011461306f5750505050565b602090810151604080516001600160a01b039485169381019384528082019590955284529496509294508493169183906130aa6060846117c8565b6130e3602460405180936130d2602083019763a9059cbb60e01b895251809285850190611b90565b81010301601f1981018352826117c8565b51925af190611ee56133fe565b634e487b7160e01b85526021600452602485fd5b61ffff60019116019061ffff821161197e57565b60205460005b81811061312a57505050565b61313381611994565b905460039190911b1c6001600160a01b03908116908416146131575760010161311e565b6000198201925090821161197e5761318c6131746131b093611994565b905460039190911b1c6001600160a01b031691611994565b81546001600160a01b0393841660039290921b91821b9390911b1916919091179055565b60205480156131de57600019016131c681611994565b81549060018060a01b039060031b1b19169055602055565b634e487b7160e01b600052603160045260246000fd5b7f806e0cbb9fce296bbc336a48f42bf1dbc69722d18d90d6fe705b7582c2bb4bd5546001600160a01b0316330361322757565b6330cd747160e01b60005260046000fd5b91908110156119af5760051b81013590601e198136030182121561091a5701908135916001600160401b03831161091a57602001823603811361091a579190565b91908110156119af5760051b0190565b356001600160a01b038116810361091a5790565b80600052601c6020526040600020541560001461330957601b54600160401b81101561177c576132f06132d9826001859401601b55601b6119c5565b819391549060031b91821b91600019901b19161790565b9055601b5490600052601c602052604060002055600190565b50600090565b1561331657565b634e487b7160e01b600052600160045260246000fd5b906133396041821461330f565b8060011161091a576133549136916000190190600101611804565b80516020909101206001600160a01b031690565b908060209392818452848401376000828201840152601f01601f1916010190565b60018060a01b0316600052600d60205261226760026040600020019182546119dd565b6001600160a01b03166000818152600d602052604090206002015490918082106133ed576133d991611971565b90600052600d602052600260406000200155565b63ac69360360e01b60005260046000fd5b3d15613429573d9061340f826117e9565b9161341d60405193846117c8565b82523d6000602084013e565b606090565b6000818152601c602052604090205480156134e257600019810181811161197e57601b5460001981019190821161197e578181036134a8575b505050601b5480156131de576000190161348281601b6119c5565b8154906000199060031b1b19169055601b55600052601c60205260006040812055600190565b6134ca6134b96132d993601b6119c5565b90549060031b1c928392601b6119c5565b9055600052601c602052604060002055388080613467565b5050600090565b602154929391926001600160a01b031615612cd95761352891600061350c61284d565b6040518095819263aa5106cb60e01b83523090600484016129bb565b038173__$3fbe32418a9ca7804328967972fb037388$__5af49283156135f457600093613600575b506021546001600160a01b03169060005b8581106135715750505050505050565b6135826106ae61029f838988613279565b9061359161029f828988613279565b61359c82858b613279565b3592853b1561091a576000916135c760405195869384936307fa355f60e51b85528c60048601612a2e565b038183885af19182156135f4576001926135e3575b5001613561565b60006135ee916117c8565b386135dc565b6040513d6000823e3d90fd5b6136169193503d806000833e612b7681836117c8565b9138613550565b6000806136469260018060a01b03169360208151910182865af161363f6133fe565b908361493d565b8051908115159182613670575b505061365c5750565b635274afe760e01b60005260045260246000fd5b6136839250602080918301019101611b78565b153880613653565b9060018060a01b038216600052600f60205261ffff604060002054166138655761ffff600b5460081c1661ffff600e541610613848576136cb600e6146ab565b600160005260106020527f8c6065603763fec3f5742441d3833f3f43b982453612d76adb39a885e3006b5f546001600160a01b03168161370c82600b6140e5565b106137b957506001600160a01b03821660009081526012602052604090205461ffff1661378657816137627f19fe3ca603e87854a0747cc10abf06bac64d61bac73d6d15f2fd3ca448f1526493600b60116143e4565b604080516001600160a01b039092168252602082019290925290819081015b0390a1565b816137626137a4600080516020614ae5833981519152946011614564565b6137af83600b6140e5565b90600b6011614853565b600080516020614aa58339815191529291506137d7600b600e614240565b6001600160a01b03821660009081526012602052604090205461ffff16613836575b61380682600b600e614181565b61381381600b60116143e4565b604080516001600160a01b03928316815292909116602083015281908101613781565b61384382600b6011614342565b6137f9565b81613762600080516020614b0583398151915293600b600e614181565b81613762613883600080516020614a8583398151915294600e614564565b61388e83600b6140e5565b90600b600e6145b0565b6001600160a01b038216600090815260048201602052604090205490929190600384019061ffff166139f85761ffff845460081c1661ffff825416106139de57806138e48585936141fb565b929092106139715750506001600160a01b0381166000908152600784016020526040902054600684019061ffff1661394257817f19fe3ca603e87854a0747cc10abf06bac64d61bac73d6d15f2fd3ca448f1526494613762926143e4565b80600080516020614ae5833981519152946139608461376294614564565b9061396b85826140e5565b92614853565b81929350908482613994600080516020614aa58339815191529761381395614240565b6001600160a01b038616600090815260078301602052604090205460068301916139c9918891859161ffff166139ce57614181565b6143e4565b6139d9838387614342565b614181565b81600080516020614b058339815191529461376292614181565b80600080516020614a8583398151915294613a168461376294614564565b90613a2185826140e5565b926145b0565b600091815191600283101561047357600092613a44575050505090565b8094919293945160028110156130f057600114613a63575b5050505090565b602090810151604051636eb1769f60e11b81523060048201526001600160a01b03858116602483015295965093941692919082604481865afa8015612cce578590613ba2575b613ab392506119dd565b60405163095ea7b360e01b602082019081526001600160a01b0385166024830152604480830193909352918152919084908190613af16064866117c8565b84519082855af1613b006133fe565b81613b73575b5080613b69575b15613b1f575b50505038808080613a5c565b60405163095ea7b360e01b60208201526001600160a01b03909316602484015260448084018590528352613b6192613b5c90611ea46064826117c8565b61361d565b388080613b13565b50803b1515613b0d565b8051801592508215613b88575b505038613b06565b613b9b9250602080918301019101611b78565b3880613b80565b50906020813d602011613bd0575b81613bbd602093836117c8565b810103126127c55790613ab39151613aa9565b3d9150613bb0565b9060018060a01b038216600052601260205261ffff60406000205416613e1f576001600160a01b0382166000908152600f602052604090205461ffff1615613e0e578015613d4a57613c43613c2e83600e614564565b613c3984600b6140e5565b90600b600e614647565b61ffff60115416156127c157613c59600e6146ab565b600160005260106020527f8c6065603763fec3f5742441d3833f3f43b982453612d76adb39a885e3006b5f546001600160a01b031691613c9a83600b6140e5565b613ca460116146ab565b600160005260136020527f4155c2f711f2cdd34f8262ab8fb9b7020a700fe7b6948222152f7670d1fdf34d546001600160a01b031690613ce582600b6140e5565b11613d1f5750604080516001600160a01b0390921682526020820192909252600080516020614a8583398151915292509081908101613781565b915050600080516020614aa583398151915291613d3e600b600e614240565b6137f9600b601161449d565b50602081613d7c7f4a4c5d1a281180eea1e99d8177fa4798b9f7e019d5c57e7d8d73c6a22199aa5b93600b600e6143fb565b6040516001600160a01b039091168152a161ffff60115416613d9a57565b613da460116146ab565b600160005260136020527f4155c2f711f2cdd34f8262ab8fb9b7020a700fe7b6948222152f7670d1fdf34d54600080516020614b05833981519152906001600160a01b0316613df481600b6140e5565b90613e01600b601161449d565b61376281600b600e614181565b632a55ca5360e01b60005260046000fd5b8015613e585781613762613e43600080516020614ae5833981519152946011614564565b613e4e83600b6140e5565b90600b60116148b1565b50602081613e8a7f3168ba660eed6ef1dc2258b2247cc05fd0f2f350d39e6ad2e2ebc76a8000b40b93600b6011614342565b6040516001600160a01b039091168152a1565b6001600160a01b0382166000908152600782016020526040902054600682019392919061ffff16614031576001600160a01b038216600090815260048201602052604090205460038201949061ffff1615613e0e578315613fb257613f17613f058487614564565b613f0f85856140e5565b908488614647565b61ffff81541615613fab57613f2c82866141fb565b929091613f3982826141fb565b909410613f79575050604080516001600160a01b039094168452602084019490945250600080516020614a85833981519152935090918291508101613781565b8395508294506139c9613813948389613fa182600080516020614aa58339815191529c614240565b6139d9828661449d565b5050505050565b9181935080613fe56020927f4a4c5d1a281180eea1e99d8177fa4798b9f7e019d5c57e7d8d73c6a22199aa5b94886143fb565b6040516001600160a01b039091168152a161ffff81541661400557505050565b6137628183600080516020614b0583398151915295614027826139d9966141fb565b968196919461449d565b821561406657836137629161405584600080516020614ae583398151915297614564565b9061406085826140e5565b926148b1565b6020925081613e8a917f3168ba660eed6ef1dc2258b2247cc05fd0f2f350d39e6ad2e2ebc76a8000b40b95614342565b60ff600b54166003811015610473576001036140c7576001600160a01b03166000908152600d602052604090205490565b6001600160a01b03166000908152600d602052604090206001015490565b60ff81541691600383101561047357600292600103614119576001600160a01b031660009081529101602052604090205490565b6001600160a01b031660009081529101602052604090206001015490565b6001600160a01b0381166000908152600d6020526040902080549083905590919080820361416457505050565b811115614176576118f791600b613898565b6118f791600b613e9d565b90916118f7926141f561419861ffff855416613104565b6001600160a01b03841660008181526001870160209081526040808320805461ffff871661ffff19918216811790925581855260028b01909352922080546001600160a01b031916909317909255865490911617855592826140e5565b92614647565b60029092919261420a816146ab565b600160005201602052611ee560018060a01b036040600020541680936140e5565b61ffff6000199116019061ffff821161197e57565b614249816146ab565b61427961ffff82541661425c81846146c8565b61ffff6142688261422b565b1661ffff198454161783558261480b565b600281019260016000528360205261429f604060002060018060a01b03905416846140e5565b926001946142ad6001614599565b61ffff855416905b61ffff8116828111614337578281101561430d5750806142d76142df92613104565b90858861499e565b9790975b871115614303576142f590888761476b565b6142fe87614599565b6142b5565b5050505092505050565b600090815260208490526040902054909790614332906001600160a01b0316856140e5565b6142e3565b505050505092505050565b909161434e9082614564565b61ffff82541661435f81838561476b565b61ffff61436b8261422b565b1661ffff19845416178355614380818461480b565b61ffff821614612b85576118f7926002830161ffff8316600052806020526143c16143b9604060002060018060a01b03905416846140e5565b848487614853565b61ffff8316600052602052614060604060002060018060a01b03905416826140e5565b90916118f79261396b61419861ffff855416613104565b90916144079082614564565b61ffff82541661441881838561476b565b61ffff6144248261422b565b1661ffff19845416178355614439818461480b565b61ffff821614612b85576118f7926002830161ffff83166000528060205261447a614472604060002060018060a01b03905416846140e5565b848487614647565b61ffff8316600052602052613a21604060002060018060a01b03905416826140e5565b6144a6816146ab565b6144b961ffff82541661425c81846146c8565b60028101926001600052836020526144df604060002060018060a01b03905416846140e5565b92600194600261ffff855416905b61ffff8116828111614337578281101561453a57508061450f61451792613104565b908588614a05565b9790975b8710156143035761452d90888761476b565b61fffe8760011b166144ed565b60009081526020849052604090205490979061455f906001600160a01b0316856140e5565b61451b565b600191828060a01b03166000520160205261ffff6040600020541690811561458857565b63f2755e3760e01b60005260046000fd5b60011b906201fffe61fffe83169216820361197e57565b9193906145bc85614599565b61ffff845416905b61ffff8116828111614303578281101561461b5750806145e66145ee92613104565b90848761499e565b9690965b8611156146125761460490878661476b565b61460d86614599565b6145c4565b50505092505050565b6000908152600286016020526040902054909690614642906001600160a01b0316846140e5565b6145f2565b9092915b600161ffff82161161465d5750505050565b600181901c617fff166000818152600284016020526040902054909190849061468f906001600160a01b0316876140e5565b11156146a5576146a090828461476b565b61464b565b50612cd9565b5461ffff16156146b757565b6340d9b01160e01b60005260046000fd5b906146eb61ffff8354166146df816001111561330f565b61ffff8316111561330f565b600160008181526002840160208181526040808420805461ffff90971680865282862080546001600160a01b03998a168089529a89018652848820805461ffff1990811690941790559098168087529286208054909116871790559290915284546001600160a01b03199081169096179094559190528054909216179055565b919061ffff906147908285541661478681858516111561330f565b838516111561330f565b811660008181526002850160208181526040808420805497871680865282862080546001600160a01b039a8b168089526001909c01865284882080549a199a8b1690931790925598168086529185208054909716861790965591905284546001600160a01b0319908116909617909455528054909216179055565b61ffff9091166000908152600282016020908152604080832080546001600160a01b031981169091556001600160a01b03168352600193909301905220805461ffff19169055565b9092915b600161ffff8216116148695750505050565b600181901c617fff166000818152600284016020526040902054909190849061489b906001600160a01b0316876140e5565b10156146a5576148ac90828461476b565b614857565b91939061fffe8560011b1661ffff845416905b61ffff811682811161430357828110156149115750806148e66148ee92613104565b908487614a05565b9690965b8610156146125761490490878661476b565b61fffe8660011b166148c4565b6000908152600286016020526040902054909690614938906001600160a01b0316846140e5565b6148f2565b90614963575080511561495257805190602001fd5b630a12f52160e11b60005260046000fd5b81511580614995575b614974575090565b639996b31560e01b60009081526001600160a01b0391909116600452602490fd5b50803b1561496c565b60026149ef9195949395019161ffff8616600052826020526149ce604060002060018060a01b03905416826140e5565b9261ffff8516600052602052604060002060018060a01b03905416906140e5565b93848211156149fe5750509190565b9350919050565b6002614a569195949295019461ffff841660005285602052614a35604060002060018060a01b03905416826140e5565b9561ffff8416600052602052604060002060018060a01b03905416906140e5565b908185106149fe575050919056fe1c593a2b803c3f9038e8b6743ba79fbc4276d2770979a01d2768ed12bea3243f143db27bc2036653dc6f962ff9d0b803163d4af50c256ca9e6927b3d6dcd0197faeb8de771b867cf357f6b459a7002b62ec45d544a8078a3ecd91200cc826d75691bb03ffc16c56fc96b82fd16cd1b3715f0bc3cdc6407005f49bb6205860095da148fac2e1063174be7bc0895576bdaba90fd14e575463fa26a967cb895cadd2e8038f5812f763c6ef0c5427cb5a05ce6d7064af2ba7d1d270bc02660b019fda264697066735822122015cf5ff01ab8f424dc74ba09d55ef9b59bf4dacf0bfb4d9eefcb73e1a3c1449464736f6c634300081a0033","linkReferences":{"contracts/lib/LibStorageStaking.sol":{"LibStorageStaking":[{"start":4706,"length":20},{"start":5159,"length":20},{"start":6767,"length":20},{"start":6869,"length":20},{"start":7340,"length":20}],"LibStorageStakingGetters":[{"start":2269,"length":20},{"start":2421,"length":20},{"start":2832,"length":20},{"start":4047,"length":20},{"start":6705,"length":20},{"start":7216,"length":20}],"LibStorageStakingOps":[{"start":2957,"length":20}]},"contracts/lib/SubnetIDHelper.sol":{"SubnetIDHelper":[{"start":11019,"length":20},{"start":11212,"length":20},{"start":11375,"length":20},{"start":13639,"length":20}]}}},"methodIdentifiers":{"addBootstrapNode(string)":"10fd4261","getSubnetTotalConfirmedStorage()":"a920e63a","getTotalConfirmedStorage(address)":"567fd6d1","getTotalStorage(address)":"c11fc860","hasStorage(address)":"8a8c9ff9","isValidator(address)":"facd743b","join(bytes,uint256,uint256)":"1ddee554","kill()":"41c0e1b5","leave()":"d66d9e19","preFund(uint256)":"4d9013a1","preRelease(uint256)":"66783c9b","setActiveLimit(uint16)":"2837e240","setFederatedPower(address[],bytes[],uint256[])":"da5d09ee","setMinCollateral(uint16)":"c18db5f5","setStorageCollateralRatio(uint16)":"0e00a0a9","setValidatorGater(address)":"dcda8973","stake(uint256)":"a694fc3a","stakeStorage(uint256)":"72427494","unstake(uint256)":"2e17de78","unstakeStorage(uint256)":"4f9a27e8"},"id":125}