{
  "_format": "hh-sol-artifact-1",
  "contractName": "SubnetValidatorGater",
  "sourceName": "contracts/examples/SubnetValidatorGater.sol",
  "abi": [
    {
      "inputs": [],
      "stateMutability": "nonpayable",
      "type": "constructor"
    },
    {
      "inputs": [],
      "name": "InvalidSubnet",
      "type": "error"
    },
    {
      "inputs": [
        {
          "internalType": "address",
          "name": "",
          "type": "address"
        }
      ],
      "name": "NotAuthorized",
      "type": "error"
    },
    {
      "inputs": [
        {
          "internalType": "address",
          "name": "owner",
          "type": "address"
        }
      ],
      "name": "OwnableInvalidOwner",
      "type": "error"
    },
    {
      "inputs": [
        {
          "internalType": "address",
          "name": "account",
          "type": "address"
        }
      ],
      "name": "OwnableUnauthorizedAccount",
      "type": "error"
    },
    {
      "inputs": [],
      "name": "ValidatorPowerChangeDenied",
      "type": "error"
    },
    {
      "anonymous": false,
      "inputs": [
        {
          "indexed": true,
          "internalType": "address",
          "name": "previousOwner",
          "type": "address"
        },
        {
          "indexed": true,
          "internalType": "address",
          "name": "newOwner",
          "type": "address"
        }
      ],
      "name": "OwnershipTransferred",
      "type": "event"
    },
    {
      "inputs": [
        {
          "internalType": "address",
          "name": "",
          "type": "address"
        }
      ],
      "name": "allowed",
      "outputs": [
        {
          "internalType": "uint256",
          "name": "min",
          "type": "uint256"
        },
        {
          "internalType": "uint256",
          "name": "max",
          "type": "uint256"
        }
      ],
      "stateMutability": "view",
      "type": "function"
    },
    {
      "inputs": [
        {
          "internalType": "address",
          "name": "validator",
          "type": "address"
        },
        {
          "internalType": "uint256",
          "name": "minPower",
          "type": "uint256"
        },
        {
          "internalType": "uint256",
          "name": "maxPower",
          "type": "uint256"
        }
      ],
      "name": "approve",
      "outputs": [],
      "stateMutability": "nonpayable",
      "type": "function"
    },
    {
      "inputs": [
        {
          "components": [
            {
              "internalType": "uint64",
              "name": "root",
              "type": "uint64"
            },
            {
              "internalType": "address[]",
              "name": "route",
              "type": "address[]"
            }
          ],
          "internalType": "struct SubnetID",
          "name": "id",
          "type": "tuple"
        },
        {
          "internalType": "address",
          "name": "validator",
          "type": "address"
        },
        {
          "internalType": "uint256",
          "name": "",
          "type": "uint256"
        },
        {
          "internalType": "uint256",
          "name": "newPower",
          "type": "uint256"
        }
      ],
      "name": "interceptPowerDelta",
      "outputs": [],
      "stateMutability": "view",
      "type": "function"
    },
    {
      "inputs": [
        {
          "internalType": "address",
          "name": "validator",
          "type": "address"
        },
        {
          "internalType": "uint256",
          "name": "power",
          "type": "uint256"
        }
      ],
      "name": "isAllow",
      "outputs": [
        {
          "internalType": "bool",
          "name": "",
          "type": "bool"
        }
      ],
      "stateMutability": "view",
      "type": "function"
    },
    {
      "inputs": [],
      "name": "owner",
      "outputs": [
        {
          "internalType": "address",
          "name": "",
          "type": "address"
        }
      ],
      "stateMutability": "view",
      "type": "function"
    },
    {
      "inputs": [],
      "name": "renounceOwnership",
      "outputs": [],
      "stateMutability": "nonpayable",
      "type": "function"
    },
    {
      "inputs": [
        {
          "internalType": "address",
          "name": "validator",
          "type": "address"
        }
      ],
      "name": "revoke",
      "outputs": [],
      "stateMutability": "nonpayable",
      "type": "function"
    },
    {
      "inputs": [
        {
          "components": [
            {
              "internalType": "uint64",
              "name": "root",
              "type": "uint64"
            },
            {
              "internalType": "address[]",
              "name": "route",
              "type": "address[]"
            }
          ],
          "internalType": "struct SubnetID",
          "name": "id",
          "type": "tuple"
        }
      ],
      "name": "setSubnet",
      "outputs": [],
      "stateMutability": "nonpayable",
      "type": "function"
    },
    {
      "inputs": [],
      "name": "subnet",
      "outputs": [
        {
          "internalType": "uint64",
          "name": "root",
          "type": "uint64"
        }
      ],
      "stateMutability": "view",
      "type": "function"
    },
    {
      "inputs": [
        {
          "internalType": "address",
          "name": "newOwner",
          "type": "address"
        }
      ],
      "name": "transferOwnership",
      "outputs": [],
      "stateMutability": "nonpayable",
      "type": "function"
    }
  ],
  "bytecode": "0x6080806040523461007a5733156100645760008054336001600160a01b03198216811783556040519290916001600160a01b0316907f8be0079c531659141344cd1fd0a4f28419497f9722a3daafe3b4186f6b6457e09080a36108a890816100808239f35b631e4fbdf760e01b815260006004820152602490fd5b600080fdfe60406080815260048036101561001457600080fd5b600091823560e01c8063426a8493146106dc578063715018a61461067f5783816374a8f1031461063e575080638da5cb5b14610616578063ad305aa9146104be578063c3b165a01461048c578063caf2ebf214610463578063d63a8e111461041d578063f2fde38b146103965763ff46abe01461009057600080fd5b346103925760031960803682011261038e57823567ffffffffffffffff80821161038a578383833603011261038a578351906100cb82610752565b8286013581811681036103825782526024928381013590828211610386570190366023830112156103825786820135818111610370578060051b9260209388519261011886830185610784565b835286858401918301019136831161036c578701905b82821061034957505050838301528335946001600160a01b0393848716870361031c5787519261015d84610752565b60019060015416845288518080928d88600254948581520191600282527f405787fa12a823e0f2b7631cc41b3ba8828b3321ca811111fa75cd3aa3bb5ace915b8a86821061033157505050506101b592500382610784565b8484015283888a61020573__$3fbe32418a9ca7804328967972fb037388$__956101f68451968795869563c836244d60e01b875286015260448501906107ed565b90838203018b840152876107ed565b0381855af4908115610327578a916102ed575b50156102dd5786516304e384ff60e21b8152808901849052918391839182908190610246908a8301906107ed565b03915af49182156102d3578892610298575b5050163303610285575061026f90606435906107a6565b15610278578280f35b5163511c7c3960e11b8152fd5b8251634a0bfec160e01b81523381860152fd5b90809250813d83116102cc575b6102af8183610784565b810103126102c8575181811681036102c8573880610258565b8680fd5b503d6102a5565b86513d8a823e3d90fd5b86516303b5db8360e11b81528890fd5b90508381813d8311610320575b6103048183610784565b8101031261031c5751801515810361031c5738610218565b8980fd5b503d6102fa565b88513d8c823e3d90fd5b83548d1685528795509093019291810191810161019d565b81356001600160a01b038116810361036857815290850190850161012e565b8c80fd5b8b80fd5b634e487b7160e01b8952604188528489fd5b8780fd5b8880fd5b8580fd5b8380fd5b8280fd5b509034610392576020366003190112610392576103b1610737565b906103ba610846565b6001600160a01b0391821692831561040757505082546001600160a01b0319811683178455167f8be0079c531659141344cd1fd0a4f28419497f9722a3daafe3b4186f6b6457e08380a380f35b51631e4fbdf760e01b8152908101849052602490fd5b83823461045f57602036600319011261045f579081906001600160a01b03610443610737565b1681526003602052206001815491015482519182526020820152f35b5080fd5b83823461045f578160031936011261045f5760209067ffffffffffffffff600154169051908152f35b83823461045f578060031936011261045f576020906104b56104ac610737565b602435906107a6565b90519015158152f35b5034610392576020600319926020843601126106125780359367ffffffffffffffff938486116102c8578536039182011261038a576104fb610846565b84820135948486168096036102c8576001805467ffffffffffffffff19169096178655602481013591602219018212156102c857018181013593841161038a57602401908360051b3603821361038a576801000000000000000084116105ff5750600254836002558084106105bd575b5084905b83821061057a578580f35b8035916001600160a01b03831683036102c8578386920192817f405787fa12a823e0f2b7631cc41b3ba8828b3321ca811111fa75cd3aa3bb5ace0155019061056f565b84847f405787fa12a823e0f2b7631cc41b3ba8828b3321ca811111fa75cd3aa3bb5ace92830192015b8281106105f457505061056b565b8781550185906105e6565b634e487b7160e01b865260419052602485fd5b8480fd5b83823461045f578160031936011261045f57905490516001600160a01b039091168152602090f35b80833461067c57602036600319011261067c5760019061065c610737565b610664610846565b828060a01b0316835260036020528220828155015580f35b50fd5b83346106d957806003193601126106d957610698610846565b80546001600160a01b03198116825581906001600160a01b03167f8be0079c531659141344cd1fd0a4f28419497f9722a3daafe3b4186f6b6457e08280a380f35b80fd5b83823461045f57606036600319011261045f5760016106f9610737565b610701610846565b82519261070d84610752565b602435845260208401916044358352838060a01b0316855260036020528420925183555191015580f35b600435906001600160a01b038216820361074d57565b600080fd5b6040810190811067ffffffffffffffff82111761076e57604052565b634e487b7160e01b600052604160045260246000fd5b90601f8019910116810190811067ffffffffffffffff82111761076e57604052565b60018060a01b0316600052600360205260208160406000206040516107ca81610752565b600182549283835201549384910152111591826107e657505090565b1115919050565b6040820167ffffffffffffffff82511683526020606081809401519460408382015285518094520193019160005b828110610829575050505090565b83516001600160a01b03168552938101939281019260010161081b565b6000546001600160a01b0316330361085a57565b60405163118cdaa760e01b8152336004820152602490fdfea2646970667358221220b1b2f6eaffdae7474fd56209469dac124f6f16d2d3d2b4d3a22c20f458abe70064736f6c63430008170033",
  "linkReferences": {
    "contracts/lib/SubnetIDHelper.sol": {
      "SubnetIDHelper": [
        {
          "length": 20,
          "start": 577
        }
      ]
    }
  },
  "deployedLinkReferences": {
    "contracts/lib/SubnetIDHelper.sol": {
      "SubnetIDHelper": [
        {
          "length": 20,
          "start": 449
        }
      ]
    }
  }
}