{"abi":[{"type":"function","name":"resolveSelectors","inputs":[{"name":"facetName","type":"string","internalType":"string"}],"outputs":[{"name":"facetSelectors","type":"bytes4[]","internalType":"bytes4[]"}],"stateMutability":"pure"}],"bytecode":{"object":"0x60808060405234601957611452908161001f823930815050f35b600080fdfe6080604052600436101561001257600080fd5b60003560e01c6366e2898c1461002757600080fd5b60203660031901126100f45760043567ffffffffffffffff81116100f457366023820112156100f457806004013567ffffffffffffffff81116100f9576040519061007c601f8201601f19166020018361010f565b80825236602482850101116100f45760208160009260246100a5960183860137830101526101e9565b60405180916020820160208352815180915260206040840192019060005b8181106100d1575050500390f35b82516001600160e01b0319168452859450602093840193909201916001016100c3565b600080fd5b634e487b7160e01b600052604160045260246000fd5b90601f8019910116810190811067ffffffffffffffff8211176100f957604052565b60005b8381106101445750506000910152565b8181015183820152602001610134565b6020818303126100f45780519067ffffffffffffffff82116100f4570181601f820112156100f45780519167ffffffffffffffff83116100f9578260051b91604051936101a4602085018661010f565b84526020808501938201019182116100f457602001915b8183106101c85750505090565b82516001600160e01b0319811681036100f4578152602092830192016101bb565b606091604051926020840183519461021d6020828188019861020c81878c610131565b81010301601f19810183528261010f565b51902060405160208101906d13dddb995c9cda1a5c119858d95d60921b8252600e815261024b602e8261010f565b519020146113d15750604051602081019061026f602082865161020c81878b610131565b51902060405160208101906e111a585b5bdb9910dd5d119858d95d608a1b8252600f815261029e602f8261010f565b519020146113935760405160208101906102c1602082865161020c81878b610131565b519020604051602081019070111a585b5bdb99131bdd5c19519858d95d607a1b8252601181526102f260318261010f565b5190201461131d576040516020810190610315602082865161020c81878b610131565b51902060405160208101907111d85d195dd85e51d95d1d195c919858d95d60721b82526012815261034760328261010f565b5190201461112057604051602081019061036a602082865161020c81878b610131565b51902060405160208101907211d85d195dd85e53585b9859d95c919858d95d606a1b82526013815261039d60338261010f565b5190201461108e5760405160208101906103c0602082865161020c81878b610131565b51902060405160208101907411d85d195dd85e53595cdcd95b99d95c919858d95d605a1b8252601581526103f560358261010f565b51902014611043576040516020810190610418602082865161020c81878b610131565b51902060405160208101907110da1958dadc1bda5b9d1a5b99d19858d95d60721b82526012815261044a60328261010f565b51902014610fda57604051602081019061046d602082865161020c81878b610131565b519020604051602081019073151bdc111bdddb919a5b985b1a5d1e519858d95d60621b8252601481526104a160348261010f565b51902014610f715760405160208101906104c4602082865161020c81878b610131565b519020604051602081019071161b995d13595cdcd859da5b99d19858d95d60721b8252601281526104f660328261010f565b51902014610f33576040516020810190610519602082865161020c81878b610131565b51902060405160208101907514dd589b995d1058dd1bdc91d95d1d195c919858d95d60521b82526016815261054f60368261010f565b51902014610d19576040516020810190610572602082865161020c81878b610131565b51902060405160208101907f5375626e65744163746f724d616e6167657246616365740000000000000000008252601781526105af60378261010f565b51902014610c415760405160208101906105d2602082865161020c81878b610131565b51902060405160208101907414dd589b995d1058dd1bdc94185d5cd9519858d95d605a1b82526015815261060760358261010f565b51902014610be957604051602081019061062a602082865161020c81878b610131565b51902060405160208101907514dd589b995d1058dd1bdc94995dd85c99119858d95d60521b82526016815261066060368261010f565b51902014610bab576040516020810190610683602082865161020c81878b610131565b51902060405160208101907f5375626e65744163746f72436865636b706f696e74696e6746616365740000008252601d81526106c0603d8261010f565b51902014610b605760405160208101906106e3602082865161020c81878b610131565b519020604051602081019072149959da5cdd195c94dd589b995d119858d95d606a1b82526013815261071660338261010f565b51902014610b22576040516020810190610739602082865161020c81878b610131565b51902060405160208101907014dd589b995d11d95d1d195c919858d95d607a1b82526011815261076a60318261010f565b51902014610a2057604051602081019061078d602082865161020c81878b610131565b51902060405160208101906e5375626e65744163746f724d6f636b60881b8252600f81526107bc602f8261010f565b519020146108e65760405160208101906107df602082865161020c81878b610131565b51902060405160208101906e417373657448656c7065724d6f636b60881b8252600f815261080e602f8261010f565b519020146108a5576108976044848461086f603f604051809461085e60208301957f53656c6563746f7273206e6f7420666f756e6420666f722066616365743a2000875251809285850190610131565b81010301601f19810184528361010f565b60405193849262461bcd60e51b84526020600485015251809281602486015285850190610131565b601f01601f19168101030190fd5b9150506108e36040516108b960808261010f565b60608152608060208201916020835260016040820152630f7e4af560e31b60608201520190610154565b90565b9150506108e36102c0604051906108fd818361010f565b6102a08083526020808401908152601360408501526310fd426160e01b6060850152634e71d92d60e01b608085015263c7ebdaef60e01b60a0850152630777b95560e21b60c08501526341c0e1b560e01b60e085015263d66d9e1960e01b610100850152638456cb5960e01b610120850152635c975abb60e01b610140850152634d9013a160e01b6101608501526366783c9b60e01b610180850152636d2e84f760e11b6101a085015263dcda897360e01b6101c085015263534a7e1d60e11b6101e0850152631c909d2560e21b6102008501526379979f5760e01b610220850152631fa5d41d60e11b6102408501526305c2fbcf60e31b6102608501526309f344fd60e31b61028085015263cc2dc2b960e01b91840191909152910190610154565b9150506108e361024060405190610a37818361010f565b6102208083526020808401908152600f60408501526342bf3cc160e01b60608501526362c9d7fb60e01b608085015263967ba53760e01b60a0850152630be0611160e01b60c0850152631b0766c360e01b60e0850152630a372bf360e41b610100850152630f5849d160e01b61012085015263135c454560e21b6101408501526389bba29960e01b610160850152632a05ad6b60e11b6101808501526354a4eddb60e01b6101a0850152639836b75f60e01b6101c085015263030f605160e01b6101e0850152631163dca560e01b61020085015263a46d044d60e01b91840191909152910190610154565b9150506108e3604051610b3660808261010f565b6060815260806020820191602083526001604082015263c7939ffd60e01b60608201520190610154565b9150506108e3604051610b7460a08261010f565b6080815260a0602082019160208352600260408201526379979f5760e01b606082015263cc2dc2b960e01b60808201520190610154565b9150506108e3604051610bbf60808261010f565b60608152608060208201916020835260016040820152634e71d92d60e01b60608201520190610154565b9150506108e3604051610bfd60c08261010f565b60a0815260c060208201916020835260036040820152638456cb5960e01b6060820152635c975abb60e01b6080820152631fa5d41d60e11b60a08201520190610154565b9150506108e36101e060405190610c58818361010f565b6101c08083526020808401908152600c60408501526310fd426160e01b6060850152630777b95560e21b60808501526341c0e1b560e01b60a085015263d66d9e1960e01b60c0850152634d9013a160e01b60e08501526366783c9b60e01b610100850152636d2e84f760e11b61012085015263dcda897360e01b61014085015263534a7e1d60e11b610160850152631c909d2560e21b6101808501526305c2fbcf60e31b6101a08501526309f344fd60e31b91840191909152910190610154565b9150506108e36104c060405190610d30818361010f565b6104a0808352602080840190815260236040850152633354c3e160e01b6060850152630d450b2360e21b60808501526306c4685360e01b60a0850152632593d53960e11b60c08501526325834a7160e11b60e0850152632d9e5f4f60e21b610100850152638ef3f76160e01b61012085015263e02d971b60e01b610140850152630903e69360e41b61016085015263948628a960e01b610180850152636c97478960e11b6101a08501526363e6d3b160e11b6101c0850152634baa594f60e11b6101e08501526338a210b360e01b6102008501526380f7602160e01b610220850152631776451f60e21b610240850152630d6eb59160e41b61026085015263332a5ac960e01b610280850152634adb90af60e11b6102a0850152630acbdfbf60e11b6102c08501526383873aeb60e01b6102e08501526352d182d160e01b610300850152630c825d9760e11b6103208501526333f28a0960e21b610340850152631015428760e21b61036085015263d081be0360e01b610380850152631f3a0e4160e01b6103a0850152630396850760e51b6103c085015263599c7bd160e01b6103e0850152634f19de8160e11b61040085015263c5ab224160e01b610420850152637867b64b60e11b6104408501526356c0f26b60e11b6104608501526380875df760e01b61048085015263b42c905b60e01b91840191909152910190610154565b9150506108e3604051610f4760808261010f565b60608152608060208201916020835260016040820152636ec18cf760e11b60608201520190610154565b9150506108e3604051610f8560e08261010f565b60c0808252602080830190815260046040840152630df1446160e01b60608401526304465a5d60e21b60808401526323ef82df60e21b60a084015263e49a547d60e01b9183019190915260e090910190610154565b9150506108e3604051610fee60e08261010f565b60c08082526020808301908152600460408401526353b4e7bf60e01b606084015263fba0fa4d60e01b608084015263dc749b0560e01b60a084015263ac81837960e01b9183019190915260e090910190610154565b9150506108e360405161105760a08261010f565b6080815260a0602082019160208352600260408201526312df86db60e11b6060820152633eeb723f60e01b60808201520190610154565b9150506108e3610140604051906110a5818361010f565b61012080835260208084019081526007604085015263eb4f16b560e01b606085015263018f44b760e41b608085015263028bf0d560e11b60a08501526341c0e1b560e01b60c0850152630d66d6c160e41b60e0850152636b2c1eef60e01b6101008501526345f5448560e01b91840191909152910190610154565b9150506108e361048060405190611137818361010f565b610460808352602080840190815260216040850152638789f83b60e01b60608501526306c4685360e01b60808501526316d2bca560e11b60a085015263dd81b5cf60e01b60c0850152630836d45d60e31b60e0850152631c6b349960e11b610100850152632ceacfdd60e21b61012085015263ac12d76360e01b610140850152634aa8f8a560e01b610160850152636520eae760e11b61018085015263444ead5160e01b6101a085015263d6c5c39760e01b6101c085015263544dddff60e01b6101e08501526306ad21bb60e41b61020085015263a517218f60e01b610220850152634b8213b360e11b610240850152630b1ba49b60e41b61026085015263f322913160e01b610280850152630338150f60e01b6102a08501526394074b0360e01b6102c0850152633f6f564960e11b6102e085015263032b960d60e11b61030085015263c66c66a160e01b610320850152633594c3c160e01b610340850152639d3070b560e01b61036085015263211cc54d60e11b610380850152623e8d2960ea1b6103a0850152635d02968560e01b6103c085015263599c7bd160e01b6103e08501526305aff0b360e01b610400850152638cfd78e760e01b61042085015263017187cd60e11b610440850152631456ce2b60e31b91840191909152910190610154565b9150506108e361010060405190611334818361010f565b60e08083526020808401908152600560408501526366ffd66360e11b60608501526314bbdacb60e21b60808501526356fe50af60e11b60a0850152637a0ed62760e01b60c08501526301ffc9a760e01b91840191909152910190610154565b9150506108e36040516113a760808261010f565b606081526080602082019160208352600160408201526307e4c70760e21b60608201520190610154565b9092506108e3915060a06040516113e8828261010f565b6080815260208101926020845260026040830152638da5cb5b60e01b9082015263f2fde38b60e01b6080820152019061015456fea26469706673582212202f668f75623c0e33d0ae66e7487c448a18bea406d803c4fb33a6df3c1c456f8864736f6c634300081a0033","linkReferences":{}},"methodIdentifiers":{"resolveSelectors(string)":"66e2898c"},"id":133}