{
  "_format": "hh-sol-artifact-1",
  "contractName": "RegisterSubnetFacet",
  "sourceName": "contracts/subnetregistry/RegisterSubnetFacet.sol",
  "abi": [
    {
      "inputs": [],
      "name": "NotOwner",
      "type": "error"
    },
    {
      "inputs": [],
      "name": "ReentrancyError",
      "type": "error"
    },
    {
      "inputs": [],
      "name": "WrongGateway",
      "type": "error"
    },
    {
      "anonymous": false,
      "inputs": [
        {
          "indexed": false,
          "internalType": "address",
          "name": "subnetAddr",
          "type": "address"
        }
      ],
      "name": "SubnetDeployed",
      "type": "event"
    },
    {
      "inputs": [
        {
          "components": [
            {
              "internalType": "uint256",
              "name": "minActivationCollateral",
              "type": "uint256"
            },
            {
              "internalType": "uint64",
              "name": "minValidators",
              "type": "uint64"
            },
            {
              "internalType": "uint64",
              "name": "bottomUpCheckPeriod",
              "type": "uint64"
            },
            {
              "internalType": "address",
              "name": "ipcGatewayAddr",
              "type": "address"
            },
            {
              "internalType": "uint16",
              "name": "activeValidatorsLimit",
              "type": "uint16"
            },
            {
              "internalType": "uint8",
              "name": "majorityPercentage",
              "type": "uint8"
            },
            {
              "internalType": "enum ConsensusType",
              "name": "consensus",
              "type": "uint8"
            },
            {
              "internalType": "int8",
              "name": "powerScale",
              "type": "int8"
            },
            {
              "internalType": "enum PermissionMode",
              "name": "permissionMode",
              "type": "uint8"
            },
            {
              "components": [
                {
                  "internalType": "enum AssetKind",
                  "name": "kind",
                  "type": "uint8"
                },
                {
                  "internalType": "address",
                  "name": "tokenAddress",
                  "type": "address"
                }
              ],
              "internalType": "struct Asset",
              "name": "supplySource",
              "type": "tuple"
            },
            {
              "components": [
                {
                  "internalType": "enum AssetKind",
                  "name": "kind",
                  "type": "uint8"
                },
                {
                  "internalType": "address",
                  "name": "tokenAddress",
                  "type": "address"
                }
              ],
              "internalType": "struct Asset",
              "name": "collateralSource",
              "type": "tuple"
            },
            {
              "components": [
                {
                  "internalType": "uint64",
                  "name": "root",
                  "type": "uint64"
                },
                {
                  "internalType": "address[]",
                  "name": "route",
                  "type": "address[]"
                }
              ],
              "internalType": "struct SubnetID",
              "name": "parentId",
              "type": "tuple"
            },
            {
              "internalType": "address",
              "name": "validatorGater",
              "type": "address"
            }
          ],
          "internalType": "struct SubnetActorDiamond.ConstructorParams",
          "name": "_params",
          "type": "tuple"
        }
      ],
      "name": "newSubnetActor",
      "outputs": [
        {
          "internalType": "address",
          "name": "subnetAddr",
          "type": "address"
        }
      ],
      "stateMutability": "nonpayable",
      "type": "function"
    }
  ],
  "bytecode": "0x6080806040523461001657612877908161001c8239f35b600080fdfe60808060405260043610156200001457600080fd5b60003560e01c6384716146146200002a57600080fd5b3462000b455760031960203682011262000b45576001600160401b036004351162000b45576101e0906004353603011262000b455760017f691bb03ffc16c56fc96b82fd16cd1b3715f0bc3cdc6407005f49bb62058600955414620010dd5760017f691bb03ffc16c56fc96b82fd16cd1b3715f0bc3cdc6407005f49bb620586009555606460043501356001600160a01b0381169081900362000b45576000546001600160a01b031603620010cb57620000e362001255565b60405161012081018181106001600160401b0382111762000be2576040526008815260005b61010081106200109c5750600154604051906001600160a01b03166200012e82620010ec565b81526000602082015260405180816020600954928381520160096000527f6e1540171b6c0c960b71a7020d9f60077f6af931a8bbf590da0223dacf75c7af926000905b8060078301106200102657620001d294549181811062000ccc575b81811062000cac575b81811062000c8c575b81811062000c6c575b81811062000c4c575b81811062000c2c575b81811062000c0e575b1062000bf8575b50038262001108565b6040820152620001e2826200114b565b52620001ee816200114b565b50600254604051906001600160a01b03166200020a82620010ec565b81526000602082015260405180816020600a549283815201600a6000527fc65a7bb8d6351c1cf70c95a316cc6a92839c986682d98bc35f958f4883f9d2a8926000905b80600783011062000fb057620002a694549181811062000ccc5781811062000cac5781811062000c8c5781811062000c6c5781811062000c4c5781811062000c2c5781811062000c0e571062000bf85750038262001108565b6040820152620002b6826200116f565b52620002c2816200116f565b50600354604051906001600160a01b0316620002de82620010ec565b81526000602082015260405180816020600b549283815201600b6000527f0175b7a638427703f0dbe7bb9bbf987a2551717b34e79f33b5b1008d1fa01db9926000905b80600783011062000f3a576200037a94549181811062000ccc5781811062000cac5781811062000c8c5781811062000c6c5781811062000c4c5781811062000c2c5781811062000c0e571062000bf85750038262001108565b60408201526200038a8262001180565b52620003968162001180565b50600454604051906001600160a01b0316620003b282620010ec565b81526000602082015260405180816020600c549283815201600c6000527fdf6966c971051c3d54ec59162606531493a51404a002842f56009d7e5cf4a8c7926000905b80600783011062000ec4576200044e94549181811062000ccc5781811062000cac5781811062000c8c5781811062000c6c5781811062000c4c5781811062000c2c5781811062000c0e571062000bf85750038262001108565b60408201526200045e8262001191565b526200046a8162001191565b50600554604051906001600160a01b03166200048682620010ec565b81526000602082015260405180816020600d549283815201600d6000527fd7b6990105719101dabeb77144f2a3385c8033acd3af97e9423a695e81ad1eb5926000905b80600783011062000e4e576200052294549181811062000ccc5781811062000cac5781811062000c8c5781811062000c6c5781811062000c4c5781811062000c2c5781811062000c0e571062000bf85750038262001108565b60408201526200053282620011a2565b526200053e81620011a2565b50600654604051906001600160a01b03166200055a82620010ec565b81526000602082015260405180816020600e549283815201600e6000527fbb7b4a454dc3493923482f07822329ed19e8244eff582cc204f8554c3620c3fd926000905b80600783011062000dd857620005f694549181811062000ccc5781811062000cac5781811062000c8c5781811062000c6c5781811062000c4c5781811062000c2c5781811062000c0e571062000bf85750038262001108565b60408201526200060682620011b3565b526200061281620011b3565b50600754604051906001600160a01b03166200062e82620010ec565b81526000602082015260405180816020600f549283815201600f6000527f8d1108e10bcb7c27dddfc02ed9d693a074039d026cf4ea4240b40f7d581ac802926000905b80600783011062000d6257620006ca94549181811062000ccc5781811062000cac5781811062000c8c5781811062000c6c5781811062000c4c5781811062000c2c5781811062000c0e571062000bf85750038262001108565b6040820152620006da82620011c4565b52620006e681620011c4565b50600854604051906001600160a01b03166200070282620010ec565b81526000602082015260405180816020601054928381520160106000527f1b6847dc741a1b0cd08d278845f9d819d87b734759afb55fe2de5cb82a9ae672926000905b80600783011062000cec576200079e94549181811062000ccc5781811062000cac5781811062000c8c5781811062000c6c5781811062000c4c5781811062000c2c5781811062000c0e571062000bf85750038262001108565b6040820152620007ae82620011d5565b52620007ba81620011d5565b506040518061158d8101106001600160401b0361158d8301111762000be25761158d620012b58239606061158d820181815283519181018290526080600583901b82018101946020019291600091015b82821062000b4a57858561158d81018203602061158d830101526004356004013582526001600160401b0362000845602460043501620011e7565b1660208301526001600160401b0362000863604460043501620011e7565b1660408301526001600160a01b0362000881600435606401620011fc565b1660608301526084600435013561ffff811680910362000b4557608083015260a4600435013560ff811680910362000b455760a083015260c46004350135600181101562000b455760c083015260e460043501358060000b80910362000b455760e08301526101046004350135600381101562000b455762000903816200112a565b6101008301526200091f6101208301610124600435016200121c565b620009356101608301610164600435016200121c565b6004356101a48101359036036042190181121562000b4557600435016101e06101a08401526102208301906001600160401b036200097660048301620011e7565b166101e085015260248101356022198236030181121562000b45570192602460048501359401916001600160401b03851162000b45578460051b3603831362000b455784906040610200840152526102408101916000945b80861062000b1857509293508392506101c06001600160a01b03620009f96004356101c401620011fc565b1691015233604061158d8401015203906000f0801562000b0c5733600090815260126020526040902080546001600160401b03808216936001600160a01b0316929190841462000af6576001600160401b0360016020950116906001600160401b03191617905533600052601182526040600020601283526001600160401b036040600020541660005282526040600020816bffffffffffffffffffffffff60a01b8254161790557f0431ea4d93af299b92f2c606ddcaf4b31cb0013c5ed1fdea837b8a912347c96582604051838152a160007f691bb03ffc16c56fc96b82fd16cd1b3715f0bc3cdc6407005f49bb620586009555604051908152f35b634e487b7160e01b600052601160045260246000fd5b6040513d6000823e3d90fd5b909260019060209081906001600160a01b0362000b3588620011fc565b16815201940195019490620009ce565b600080fd5b90919294607f1961158d860182030182528551602060806040606085019360018060a01b0381511686528381015162000b83816200112a565b84870152015193606060408201528451809452019201906000905b80821062000bbe575050506020806001929701920192019092916200080a565b82516001600160e01b03191684526020938401939092019160019091019062000b9e565b634e487b7160e01b600052604160045260246000fd5b6001600160e01b031916815260200186620001c9565b602083811b6001600160e01b031916855290930192600101620001c2565b604083901b6001600160e01b0319168452602090930192600101620001b9565b606083901b6001600160e01b0319168452602090930192600101620001b0565b608083901b6001600160e01b0319168452602090930192600101620001a7565b60a083901b6001600160e01b03191684526020909301926001016200019e565b60c083901b6001600160e01b031916845260209093019260010162000195565b60e083901b6001600160e01b03191684526020909301926001016200018c565b916008919350610100600191865463ffffffff60e01b90818160e01b16835260c08282821b16602085015260a08383821b166040860152606084846080928282851b16818a01521b1690860152838360401b1690850152828260201b16908401521660e082015201940192018492939162000745565b916008919350610100600191865463ffffffff60e01b90818160e01b16835260c08282821b16602085015260a08383821b166040860152606084846080928282851b16818a01521b1690860152838360401b1690850152828260201b16908401521660e082015201940192018492939162000671565b916008919350610100600191865463ffffffff60e01b90818160e01b16835260c08282821b16602085015260a08383821b166040860152606084846080928282851b16818a01521b1690860152838360401b1690850152828260201b16908401521660e08201520194019201849293916200059d565b916008919350610100600191865463ffffffff60e01b90818160e01b16835260c08282821b16602085015260a08383821b166040860152606084846080928282851b16818a01521b1690860152838360401b1690850152828260201b16908401521660e0820152019401920184929391620004c9565b916008919350610100600191865463ffffffff60e01b90818160e01b16835260c08282821b16602085015260a08383821b166040860152606084846080928282851b16818a01521b1690860152838360401b1690850152828260201b16908401521660e0820152019401920184929391620003f5565b916008919350610100600191865463ffffffff60e01b90818160e01b16835260c08282821b16602085015260a08383821b166040860152606084846080928282851b16818a01521b1690860152838360401b1690850152828260201b16908401521660e082015201940192018492939162000321565b916008919350610100600191865463ffffffff60e01b90818160e01b16835260c08282821b16602085015260a08383821b166040860152606084846080928282851b16818a01521b1690860152838360401b1690850152828260201b16908401521660e08201520194019201849293916200024d565b916008919350610100600191865463ffffffff60e01b90818160e01b16835260c08282821b16602085015260a08383821b166040860152606084846080928282851b16818a01521b1690860152838360401b1690850152828260201b16908401521660e082015201940192018492939162000171565b602090604051620010ad81620010ec565b60008152600083820152606060408201528282850101520162000108565b604051633bed049960e01b8152600490fd5b6329f745a760e01b8152600490fd5b606081019081106001600160401b0382111762000be257604052565b90601f801991011681019081106001600160401b0382111762000be257604052565b600311156200113557565b634e487b7160e01b600052602160045260246000fd5b805115620011595760200190565b634e487b7160e01b600052603260045260246000fd5b805160011015620011595760400190565b805160021015620011595760600190565b805160031015620011595760800190565b805160041015620011595760a00190565b805160051015620011595760c00190565b805160061015620011595760e00190565b80516007101562001159576101000190565b35906001600160401b038216820362000b4557565b35906001600160a01b038216820362000b4557565b600211156200113557565b803590600282101562000b4557816200123760209362001211565b83526001600160a01b03906200124f908301620011fc565b16910152565b60ff60135416620012668162001211565b15620012b2577f806e0cbb9fce296bbc336a48f42bf1dbc69722d18d90d6fe705b7582c2bb4bd5546001600160a01b03163303620012a057565b6040516330cd747160e01b8152600490fd5b56fe6080604052346107ab5761158d803803809161001c826080611189565b608039606081126107ab576080516001600160401b0381116107ab5760808201609f820112156107ab57806080015190610055826111ac565b916100636040519384611189565b8083526020830180928560800160208460051b836080010101116107ab5760a08101915b60a0600585901b830101831061102c57505060a051949150506001600160401b0384116107ab576101e0848203126107ab57604051936101a085016001600160401b0381118682101761088157604052608081015185526100ea60a082016111d7565b60208601526100fb60c082016111d7565b604086015261010c60e082016111c3565b606086015261010081015161ffff811681036107ab57608086015261012081015160ff811681036107ab5760a086015261014081015160018110156107ab5760c0860152610160810151600081900b81036107ab5760e086015261018081015160038110156107ab5761010086015261018c608083016101a083016111eb565b6101208601526101a3608083016101e083016111eb565b610140860152610220810151906001600160401b0382116107ab576101d76101c0926101e694608001908360800101611226565b610160870152608001016111c3565b6101808401526101f660c06111c3565b60608401516001600160a01b03161561101a5760408401516001600160401b03161561100857600161010085015161022d816112c9565b610236816112c9565b141580610fff575b610fed5760ff60a08501511660338110908115610fe2575b50610fd057601260e085015160000b13610fbe576101208401518051600281101561076b57600114610f02575b507f806e0cbb9fce296bbc336a48f42bf1dbc69722d18d90d6fe705b7582c2bb4bd580546001600160a01b039283166001600160a01b0319821681179092556040805193909116835260208301919091527f8be0079c531659141344cd1fd0a4f28419497f9722a3daafe3b4186f6b6457e091a16040516001600160401b036020820190811190821117610881576020810160405260008152825160005b8181106108f65750506040519260608401906060855251809152608084019060808160051b86010193916000905b8282106108a057877f8faa70878671ccd212d20771b795c50af8fd3ff6cf27f4bde57e5d4de0aeb67388806103938a8a600060208501528382036040850152611392565b0390a17f806e0cbb9fce296bbc336a48f42bf1dbc69722d18d90d6fe705b7582c2bb4bd46020527f7dfd48dd9def002fa9b4a05bd6b726a6c313c362d3f3e8413d7a7520f0090d258054600160ff1991821681179092557f4d7f4c8a2fb5b35ca3c277c93888b47f0f2229bdcccf66504d1ba48e88b8816480548216831790556348e2b09360e01b6000527f59ba4db4a213e8161de597b8c10db0e7e7ba5ace5c268e36379e249a6d2d42c9805490911682179055610100820151610457816112c9565b610460816112c9565b14610897575b6101608101518051600980546001600160401b0319166001600160401b039283161790556020919091015180519182116108815768010000000000000000821161088157600a5482600a5580831061084c575b50602001600a600052602060002060005b83811061082f57606085015160055460c087015187926001600160a01b031690600181101561076b57835160025560018060401b0360208501511660018060401b0319600654161760065560018060401b0360408501511660035560ff60e01b60a085015160e01b169160e085015160e81b60ff60e81b1693600160a01b63ff00000160e01b0316179060ff60f01b9060f01b1617171760055560405161057081611153565b6009546001600160401b03168152604051600a8054808352600091825260008051602061152d83398151915291839160208301915b81811061080d5750506105ba92500382611189565b60208201526105fc600073__$3fbe32418a9ca7804328967972fb037388$__926040518093819263aa5106cb60e01b83526040600484015260448301906112d3565b3060248301520381855af49081156107b8576000916107c4575b506020906106409260405180809581946390ba52cf60e01b835286600484015260248301906112d3565b03915af49081156107b857600091610781575b50600455610100810151610666816112c9565b61066f816112c9565b600b54600560a11b600160a01b600160e01b0319600554161760055560ff62ffff00608085015160081b1692169062ffffff19161717600b556801000000000000000160018060801b03196014541617601455610120810151805190600282101561076b5760209160ff9160075490610100600160a81b03948591015160081b169160018060a81b0319938491169116171760075561014083015190815192600284101561076b5760ff90602060085494015160081b1693169116171760085561018060018060a01b039101511680610751575b60405160eb90816114428239f35b601f80546001600160a01b03191691909117905580610743565b634e487b7160e01b600052602160045260246000fd5b90506020813d6020116107b0575b8161079c60209383611189565b810103126107ab575182610653565b600080fd5b3d915061078f565b6040513d6000823e3d90fd5b90503d806000833e6107d68183611189565b8101916020828403126107ab578151916001600160401b0383116107ab57610640936020936108059201611226565b915091610616565b84546001600160a01b03168352600194850194869450602090930192016105a5565b82516001600160a01b0316818301556020909201916001016104ca565b600a60005260008051602061152d833981519152908382015b81830181106108755750506104b9565b60008155600101610865565b634e487b7160e01b600052604160045260246000fd5b60008152610466565b909192946020806108e8600193607f198b8203018652606060408b51878060a01b038151168452858101516108d4816112c9565b868501520151918160408201520190611354565b97019201920190929161034f565b6040610902828761132a565b5101516001600160a01b03610917838861132a565b51511690805115610ee957602061092e848961132a565b51015161093a816112c9565b610943816112c9565b80610b4557508115610b1c5761ffff60008051602061154d8339815191525416916109ad6040516109738161116e565b602181527f6469616d6f6e644375743a2041646420666163657420686173206e6f20636f646020820152606560f81b604082015282611402565b8151916000935b8385106109ca5750505050506001905b01610321565b6001600160e01b03196109dd868461132a565b5116600081815260008051602061156d83398151915260205260409020546001600160a01b0316610b0457610a73604051610a1781611153565b85815261ffff84166020808301918252600085815260008051602061156d833981519152909152604090209151825491516001600160b01b03199092166001600160a01b03919091161760a09190911b61ffff60a01b16179055565b60008051602061154d83398151915254906801000000000000000082101561088157610ab5826001610ad2940160008051602061154d833981519152556113d2565b90919063ffffffff83549160031b9260e01c831b921b1916179055565b61ffff80821614610aee57600161ffff819216019401936109b4565b634e487b7160e01b600052601160045260246000fd5b6024906040519063ebbf5d0760e01b82526004820152fd5b6040516302b8da0760e21b815260206004820152908190610b41906024830190611354565b0390fd5b610b4e816112c9565b60018103610cb557508115610c9057610bad604051610b6c8161116e565b602881527f4c69624469616d6f6e644375743a205265706c61636520666163657420686173602082015267206e6f20636f646560c01b604082015283611402565b80519060005b828110610bc657505050506001906109c4565b6001600160e01b0319610bd9828461132a565b5116600081815260008051602061156d83398151915260205260409020546001600160a01b0316308114610c7757858114610c5e5715610c4657600090815260008051602061156d8339815191526020526040902080546001600160a01b03191685179055600101610bb3565b60249060405190637479f93960e01b82526004820152fd5b604051631ac6ce8d60e11b815260048101839052602490fd5b604051632901806d60e11b815260048101839052602490fd5b60405163cd98a96f60e01b815260206004820152908190610b41906024830190611354565b610cbe816112c9565b60028103610ec9575060008051602061154d833981519152549180610eb1575080519060005b828110610cf757505050506001906109c4565b6001600160e01b0319610d0a828461132a565b5116908160005260008051602061156d83398151915260205260406000209460405195610d3687611153565b546001600160a01b03811680885260a09190911c61ffff16602088015215610e985785516001600160a01b03163014610e7f578015610aee5760001901948561ffff60208301511603610e04575b5060008051602061154d83398151915254918215610dee5760019260001901610dac816113d2565b63ffffffff82549160031b1b1916905560008051602061154d8339815191525560005260008051602061156d8339815191526020526000604081205501610ce4565b634e487b7160e01b600052603160045260246000fd5b610e799061ffff6020610e16896113d2565b90549060031b1c60e01b92610e3384610ab58585850151166113d2565b01516001600160e01b0319909216600090815260008051602061156d83398151915260205260409020805461ffff60a01b19169190921660a01b61ffff60a01b16179055565b38610d84565b604051630df5fd6160e31b815260048101849052602490fd5b604051637a08a22d60e01b815260048101849052602490fd5b6024906040519063d091bc8160e01b82526004820152fd5b604051633ff4d20f60e11b8152602491610ee2816112c9565b6004820152fd5b60405163e767f91f60e01b815260048101839052602490fd5b60208101516001600160a01b031615610f79576020908101516040516370a0823160e01b8152600060048201529190829060249082906001600160a01b03165afa80156107b8571561028357602090813d8311610f72575b610f648183611189565b810103126107ab5738610283565b503d610f5a565b60405162461bcd60e51b815260206004820152601560248201527f496e76616c6964204552433230206164647265737300000000000000000000006044820152606490fd5b6040516378b177e560e11b8152600490fd5b6040516375c3b42760e01b8152600490fd5b606491501138610256565b6040516368f7a67560e11b8152600490fd5b5083511561023e565b60405163312f8e0560e01b8152600490fd5b604051638b3ddc3360e01b8152600490fd5b82516001600160401b0381116107ab57820160808101906060908903601f1901126107ab5760405190606082016001600160401b0381118382101761113e5760405261107a602082016111c3565b8252604081015160038110156107ab57602083015260608101516001600160401b0381116107ab5789608001603f8284010112156107ab57602081830101516110c2816111ac565b926110d06040519485611189565b81845260208401908c60800160408460051b8684010101116107ab57604084820101915b60408460051b8684010101831061111d5750505050506040820152815260209283019201610087565b82516001600160e01b0319811681036107ab578152602092830192016110f4565b60246000634e487b7160e01b81526041600452fd5b604081019081106001600160401b0382111761088157604052565b606081019081106001600160401b0382111761088157604052565b601f909101601f19168101906001600160401b0382119082101761088157604052565b6001600160401b0381116108815760051b60200190565b51906001600160a01b03821682036107ab57565b51906001600160401b03821682036107ab57565b91908260409103126107ab5760405161120381611153565b809280519060028210156107ab5760206112219181938552016111c3565b910152565b91906040838203126107ab576040519261123f84611153565b83611249826111d7565b815260208281015190926001600160401b0382116107ab57019280601f850112156107ab578351611279816111ac565b946112876040519687611189565b818652848087019260051b8201019283116107ab5784809101915b8383106112b157505050500152565b81906112bc846111c3565b81520191019084906112a2565b6003111561076b57565b6040820160018060401b0382511683526020606081809401519460408382015285518094520193019160005b82811061130d575050505090565b83516001600160a01b0316855293810193928101926001016112ff565b805182101561133e5760209160051b010190565b634e487b7160e01b600052603260045260246000fd5b90815180825260208080930193019160005b828110611374575050505090565b83516001600160e01b03191685529381019392810192600101611366565b919082519283825260005b8481106113be575050826000602080949584010152601f8019910116010190565b60208183018101518483018201520161139d565b9060008051602061154d833981519152805483101561133e57600052601c60206000208360031c019260021b1690565b803b1561140d575050565b6040805163919834b960e01b81526001600160a01b0390921660048301526024820152908190610b4190604483019061139256fe60806040523615609157600080356001600160e01b0319168082527f806e0cbb9fce296bbc336a48f42bf1dbc69722d18d90d6fe705b7582c2bb4bd260205260408220546001600160a01b0316908115606f5750818091368280378136915af43d82803e15606b573d90f35b3d90fd5b630a82dd7360e31b6080526001600160e01b031916608452607f1960a4016080fd5b6005546001600160a01b0316330360a457005b63e7e601db60e01b60805260046080fdfea2646970667358221220c30846df07507f2f948cb857ee9a4398aaaad9cd540063cb44fb99841d5b762f64736f6c63430008170033c65a7bb8d6351c1cf70c95a316cc6a92839c986682d98bc35f958f4883f9d2a8806e0cbb9fce296bbc336a48f42bf1dbc69722d18d90d6fe705b7582c2bb4bd3806e0cbb9fce296bbc336a48f42bf1dbc69722d18d90d6fe705b7582c2bb4bd2a26469706673582212207e36da79a7f2b98569564b3fcba89604ebc1c8852a2f6f18695a3873eb6278b364736f6c63430008170033",
  "linkReferences": {
    "contracts/lib/SubnetIDHelper.sol": {
      "SubnetIDHelper": [
        {
          "length": 20,
          "start": 6295
        }
      ]
    }
  },
  "deployedLinkReferences": {
    "contracts/lib/SubnetIDHelper.sol": {
      "SubnetIDHelper": [
        {
          "length": 20,
          "start": 6267
        }
      ]
    }
  }
}