{
  "_format": "hh-sol-artifact-1",
  "contractName": "SubnetActorManagerFacet",
  "sourceName": "contracts/subnet/SubnetActorManagerFacet.sol",
  "abi": [
    {
      "inputs": [
        {
          "internalType": "address",
          "name": "target",
          "type": "address"
        }
      ],
      "name": "AddressEmptyCode",
      "type": "error"
    },
    {
      "inputs": [
        {
          "internalType": "address",
          "name": "account",
          "type": "address"
        }
      ],
      "name": "AddressInsufficientBalance",
      "type": "error"
    },
    {
      "inputs": [],
      "name": "AddressShouldBeValidator",
      "type": "error"
    },
    {
      "inputs": [],
      "name": "CannotReleaseZero",
      "type": "error"
    },
    {
      "inputs": [],
      "name": "CollateralIsZero",
      "type": "error"
    },
    {
      "inputs": [],
      "name": "DuplicatedGenesisValidator",
      "type": "error"
    },
    {
      "inputs": [],
      "name": "EmptyAddress",
      "type": "error"
    },
    {
      "inputs": [],
      "name": "EnforcedPause",
      "type": "error"
    },
    {
      "inputs": [],
      "name": "ExpectedPause",
      "type": "error"
    },
    {
      "inputs": [],
      "name": "FailedInnerCall",
      "type": "error"
    },
    {
      "inputs": [],
      "name": "InvalidFederationPayload",
      "type": "error"
    },
    {
      "inputs": [],
      "name": "InvalidPublicKeyLength",
      "type": "error"
    },
    {
      "inputs": [
        {
          "internalType": "string",
          "name": "reason",
          "type": "string"
        }
      ],
      "name": "MethodNotAllowed",
      "type": "error"
    },
    {
      "inputs": [],
      "name": "NotAllValidatorsHaveLeft",
      "type": "error"
    },
    {
      "inputs": [],
      "name": "NotEnoughBalance",
      "type": "error"
    },
    {
      "inputs": [],
      "name": "NotEnoughCollateral",
      "type": "error"
    },
    {
      "inputs": [],
      "name": "NotEnoughFunds",
      "type": "error"
    },
    {
      "inputs": [],
      "name": "NotEnoughGenesisValidators",
      "type": "error"
    },
    {
      "inputs": [],
      "name": "NotOwner",
      "type": "error"
    },
    {
      "inputs": [],
      "name": "NotOwnerOfPublicKey",
      "type": "error"
    },
    {
      "inputs": [
        {
          "internalType": "address",
          "name": "",
          "type": "address"
        }
      ],
      "name": "NotValidator",
      "type": "error"
    },
    {
      "inputs": [],
      "name": "PQDoesNotContainAddress",
      "type": "error"
    },
    {
      "inputs": [],
      "name": "PQEmpty",
      "type": "error"
    },
    {
      "inputs": [],
      "name": "ReentrancyError",
      "type": "error"
    },
    {
      "inputs": [
        {
          "internalType": "address",
          "name": "token",
          "type": "address"
        }
      ],
      "name": "SafeERC20FailedOperation",
      "type": "error"
    },
    {
      "inputs": [],
      "name": "SubnetAlreadyBootstrapped",
      "type": "error"
    },
    {
      "inputs": [],
      "name": "SubnetAlreadyKilled",
      "type": "error"
    },
    {
      "inputs": [],
      "name": "SubnetNotBootstrapped",
      "type": "error"
    },
    {
      "inputs": [],
      "name": "WithdrawExceedingCollateral",
      "type": "error"
    },
    {
      "anonymous": false,
      "inputs": [
        {
          "indexed": false,
          "internalType": "address",
          "name": "validator",
          "type": "address"
        },
        {
          "indexed": false,
          "internalType": "uint256",
          "name": "newPower",
          "type": "uint256"
        }
      ],
      "name": "ActiveValidatorCollateralUpdated",
      "type": "event"
    },
    {
      "anonymous": false,
      "inputs": [
        {
          "indexed": false,
          "internalType": "address",
          "name": "validator",
          "type": "address"
        }
      ],
      "name": "ActiveValidatorLeft",
      "type": "event"
    },
    {
      "anonymous": false,
      "inputs": [
        {
          "indexed": false,
          "internalType": "address",
          "name": "oldValidator",
          "type": "address"
        },
        {
          "indexed": false,
          "internalType": "address",
          "name": "newValidator",
          "type": "address"
        }
      ],
      "name": "ActiveValidatorReplaced",
      "type": "event"
    },
    {
      "anonymous": false,
      "inputs": [
        {
          "indexed": false,
          "internalType": "address",
          "name": "validator",
          "type": "address"
        },
        {
          "indexed": false,
          "internalType": "uint256",
          "name": "power",
          "type": "uint256"
        }
      ],
      "name": "NewActiveValidator",
      "type": "event"
    },
    {
      "anonymous": false,
      "inputs": [
        {
          "indexed": false,
          "internalType": "enum StakingOperation",
          "name": "op",
          "type": "uint8"
        },
        {
          "indexed": false,
          "internalType": "address",
          "name": "validator",
          "type": "address"
        },
        {
          "indexed": false,
          "internalType": "bytes",
          "name": "payload",
          "type": "bytes"
        },
        {
          "indexed": false,
          "internalType": "uint64",
          "name": "configurationNumber",
          "type": "uint64"
        }
      ],
      "name": "NewStakingChangeRequest",
      "type": "event"
    },
    {
      "anonymous": false,
      "inputs": [
        {
          "indexed": false,
          "internalType": "address",
          "name": "validator",
          "type": "address"
        },
        {
          "indexed": false,
          "internalType": "uint256",
          "name": "power",
          "type": "uint256"
        }
      ],
      "name": "NewWaitingValidator",
      "type": "event"
    },
    {
      "anonymous": false,
      "inputs": [
        {
          "indexed": false,
          "internalType": "address",
          "name": "account",
          "type": "address"
        }
      ],
      "name": "Paused",
      "type": "event"
    },
    {
      "anonymous": false,
      "inputs": [
        {
          "components": [
            {
              "internalType": "uint256",
              "name": "weight",
              "type": "uint256"
            },
            {
              "internalType": "address",
              "name": "addr",
              "type": "address"
            },
            {
              "internalType": "bytes",
              "name": "metadata",
              "type": "bytes"
            }
          ],
          "indexed": false,
          "internalType": "struct Validator[]",
          "name": "",
          "type": "tuple[]"
        }
      ],
      "name": "SubnetBootstrapped",
      "type": "event"
    },
    {
      "anonymous": false,
      "inputs": [
        {
          "indexed": false,
          "internalType": "address",
          "name": "account",
          "type": "address"
        }
      ],
      "name": "Unpaused",
      "type": "event"
    },
    {
      "anonymous": false,
      "inputs": [
        {
          "indexed": false,
          "internalType": "address",
          "name": "validator",
          "type": "address"
        },
        {
          "indexed": false,
          "internalType": "uint256",
          "name": "newPower",
          "type": "uint256"
        }
      ],
      "name": "WaitingValidatorCollateralUpdated",
      "type": "event"
    },
    {
      "anonymous": false,
      "inputs": [
        {
          "indexed": false,
          "internalType": "address",
          "name": "validator",
          "type": "address"
        }
      ],
      "name": "WaitingValidatorLeft",
      "type": "event"
    },
    {
      "inputs": [
        {
          "internalType": "string",
          "name": "netAddress",
          "type": "string"
        }
      ],
      "name": "addBootstrapNode",
      "outputs": [],
      "stateMutability": "nonpayable",
      "type": "function"
    },
    {
      "inputs": [
        {
          "internalType": "bytes",
          "name": "publicKey",
          "type": "bytes"
        },
        {
          "internalType": "uint256",
          "name": "amount",
          "type": "uint256"
        }
      ],
      "name": "join",
      "outputs": [],
      "stateMutability": "payable",
      "type": "function"
    },
    {
      "inputs": [],
      "name": "kill",
      "outputs": [],
      "stateMutability": "nonpayable",
      "type": "function"
    },
    {
      "inputs": [],
      "name": "leave",
      "outputs": [],
      "stateMutability": "nonpayable",
      "type": "function"
    },
    {
      "inputs": [
        {
          "internalType": "uint256",
          "name": "amount",
          "type": "uint256"
        }
      ],
      "name": "preFund",
      "outputs": [],
      "stateMutability": "payable",
      "type": "function"
    },
    {
      "inputs": [
        {
          "internalType": "uint256",
          "name": "amount",
          "type": "uint256"
        }
      ],
      "name": "preRelease",
      "outputs": [],
      "stateMutability": "nonpayable",
      "type": "function"
    },
    {
      "inputs": [
        {
          "internalType": "address[]",
          "name": "validators",
          "type": "address[]"
        },
        {
          "internalType": "bytes[]",
          "name": "publicKeys",
          "type": "bytes[]"
        },
        {
          "internalType": "uint256[]",
          "name": "powers",
          "type": "uint256[]"
        }
      ],
      "name": "setFederatedPower",
      "outputs": [],
      "stateMutability": "nonpayable",
      "type": "function"
    },
    {
      "inputs": [
        {
          "internalType": "address",
          "name": "gater",
          "type": "address"
        }
      ],
      "name": "setValidatorGater",
      "outputs": [],
      "stateMutability": "nonpayable",
      "type": "function"
    },
    {
      "inputs": [
        {
          "internalType": "uint256",
          "name": "amount",
          "type": "uint256"
        }
      ],
      "name": "stake",
      "outputs": [],
      "stateMutability": "payable",
      "type": "function"
    },
    {
      "inputs": [
        {
          "internalType": "uint256",
          "name": "amount",
          "type": "uint256"
        }
      ],
      "name": "unstake",
      "outputs": [],
      "stateMutability": "nonpayable",
      "type": "function"
    }
  ],
  "bytecode": "0x6080806040523461001657614e5e908161001c8239f35b600080fdfe6080604052600436101561001257600080fd5b6000803560e01c816310fd426182146112315781632e17de78146111415781633ae2471314610d7557816341c0e1b514610c935781634d9013a114610bcb57816366783c9b14610ae6578163a694fc3a146109bd578163d66d9e1914610960578163da5d09ee146100e0575063dcda89731461008d57600080fd5b346100dd5760203660031901126100dd576004356001600160a01b038116908190036100d9576100bb61180d565b6100c3612d69565b6001600160601b0360a01b601f541617601f5580f35b5080fd5b80fd5b9050346100d95760603660031901126100d9576004356001600160401b0381116105eb57610112903690600401611487565b91906024356001600160401b03811161095c57610133903690600401611487565b9290916044356001600160401b03811161095857610155903690600401611487565b909561015f61180d565b610167612d69565b60ff600b54166003811015610944576001036109145781810361090257858103610902576005805460f81c1561047657506101a482888386613019565b875b8181106101b857505050505050505080f35b6101cc6101c6828989612dae565b90612297565b6001600160a01b036101e76101e2848689612def565b612dff565b166001600160a01b0390911603610464578786610253856102248561021c818e6102166101e2838f8e90612def565b97612dae565b939096612def565b3561023f604051958693604060208601526060850191612eff565b90604083015203601f19810184528361140f565b6001600160401b036014541660405161026b816113be565b6003815283602082015260018060a01b0383166040820152818952601560205260408920815160048110156104505760ff8019835416911617815560208201518051906001600160401b03821161043c576102d6826102cd60018601546114b7565b60018601611508565b6020908c601f84116001146103cb576002949361030a939092836103c0575b50508160011b916000199060031b1c19161790565b60018201555b0190604060018060a01b03910151166001600160601b0360a01b8254161790556001600160401b0360018201116103ac5791600080516020614d6983398151915291836001600160401b03600180979601166001600160401b0319601454161760145561039d60405193849360809060038652898060a01b03166020860152806040860152840190611619565b9060608301520390a1016101a6565b634e487b7160e01b88526011600452602488fd5b0151905038806102f5565b5090600184018d5260208d20918d5b601f1985168110610424575091839160019360029695601f1981161061040b575b505050811b016001820155610310565b015160001960f88460031b161c191690553880806103fb565b919260206001819286850151815501940192016103da565b634e487b7160e01b8c52604160045260248cfd5b634e487b7160e01b8b52602160045260248bfd5b604051634be9251d60e11b8152600490fd5b9592909397966001600160401b03600696939654168511156108f05761049e86828785613019565b875b8581106107f157505085546001600160f81b038116600160f81b178755604080516020808252601c8054828401819052908d52909b9850929650945081881b8501810193507f0e4562a10381dec21b205ed72637e6b1b523bdd0e4d4d50af5cd23dd4500a2119250869085015b8a8383106107a957505050505090807f4914d88063275a25a13b2df37125e216745d812f94c56504be4bd78cf60c9593920390a1815490610561826105506115bf565b6001600160a01b0393841690613d67565b610569611572565b9682865416859189516002811015610795576105ef575050508361059392939495969750906116c2565b93541690813b156105eb5790604483926040519586938492630d66d6c160e41b845260048401528560248401525af19081156105df57506105d3575b5080f35b6105dc90611395565b80f35b604051903d90823e3d90fd5b8280fd5b89939293519960028b1015610795576001869798999a9b14610619575b50505061059392506116c2565b810151604051636eb1769f60e11b81523060048201526001600160a01b038416602482015298939592945090929116908288604481855afa978815610788578198610753575b5060405163095ea7b360e01b8482018181526001600160a01b038716602484015260448084019b909b529982529198610593969594919392919060009081906106a960648861140f565b86519082875af16106b8612ecf565b81610723575b5080610719575b156106dc575b50505050506000908392388061060c565b61070f9461070a926040519283015260248201526000604482015260448152610704816113f4565b826138f5565b6138f5565b38808080806106cb565b50823b15156106c5565b8051801592508390831561073b575b505050386106be565b61074b93508201810191016138dd565b388281610732565b9097508281813d8311610781575b61076b818361140f565b8101031261077d57519661059361065f565b8780fd5b503d610761565b50604051903d90823e3d90fd5b634e487b7160e01b88526021600452602488fd5b60036107e3606060019495969798603f198b820301875289548152858060a01b03868b015416858201528160408201520160028901612766565b96019201920190929161050d565b6107ff6101c6828787612dae565b6001600160a01b03919082806108196101e2858c8a612def565b16911603610464576108376108326101e2838a88612def565b613f22565b6108de576108d86001926108636108526101e2858c8a612def565b61085d858b8b612dae565b91612680565b6108866108746101e2858c8a612def565b61087f858d89612def565b3590613f71565b6108ce6108976101e2858c8a612def565b6108a2858d89612def565b35926108af868c8c612dae565b919092604051956108bf876113be565b8652166020850152369161144b565b60408201526127fc565b016104a0565b604051630472b35360e41b8152600490fd5b60405163031480b160e51b8152600490fd5b604051637e65935960e01b8152600490fd5b61094061091f61182e565b60405163015538b160e01b8152602060048201529182916024830190611619565b0390fd5b634e487b7160e01b89526021600452602489fd5b8680fd5b8480fd5b82346100dd57806003193601126100dd57600080516020614dc983398151915260018154146109ab578060018392556109976117d0565b61099f61180d565b6109a76116cf565b5580f35b6040516329f745a760e01b8152600490fd5b8260203660031901126100dd576004356109d56117d0565b6109dd61180d565b6109e561189b565b8015610ad457336000908152600d602052604090206002015415610a6357336000908152600d60205260409020610a2b9060020154610a2483826116c2565b9033611d66565b610a3c81610a37611572565b6122d3565b5060055460f81c610a5957610a519033612976565b6105dc612ae4565b6105dc9033612497565b610940604051610a72816113be565b602e81527f4d6574686f64206e6f7420616c6c6f7765642069662076616c696461746f722060208201526d1a185cc81b9bdd081a9bda5b995960921b604082015260405191829163015538b160e01b8352602060048401526024830190611619565b604051635a78c58160e11b8152600490fd5b82346100dd5760203660031901126100dd57600435600080516020614dc983398151915260018154146109ab57600181558115610bb95760055460f81c610ba757610b3a82610b336115bf565b339061214e565b5050338352601d60205281604084205410610b9557610b748392338452601d60205260408420610b6b82825461154f565b9055835461154f565b8255338252601d602052604082205415610b8c575580f35b6109a733612c97565b60405163569d45cf60e11b8152600490fd5b604051631b39f2f360e11b8152600490fd5b604051631036b5ad60e31b8152600490fd5b8260203660031901126100dd576004358015610bb95760055460f81c610ba757610bf781610a376115bf565b50338252601d602052604082205415610c34575b610c2f90338352601d60205260408320610c268282546116c2565b905582546116c2565b815580f35b601e54600160401b811015610c7f5790610c78610c5a836001610c2f9501601e5561163e565b81546001600160a01b0360039290921b91821b19163390911b179055565b9050610c0b565b634e487b7160e01b83526041600452602483fd5b9050346100dd57806003193601126100dd57610cad61180d565b61ffff806011541681600e541601818111610d615716610d4f576005548060f81c15610d3d576006805468ff00000000000000001916600160401b1790556001600160a01b0316803b156100d9578180916004604051809481936341c0e1b560e01b83525af18015610d3257610d21578280f35b610d2c919250611395565b38808280f35b6040513d84823e3d90fd5b60405163dfd06d8f60e01b8152600490fd5b604051636b62255160e11b8152600490fd5b634e487b7160e01b83526011600452602483fd5b60403660031901126100dd576004356001600160401b0381116100d957366023820112156100d9576001600160401b038160040135116100d9573660248260040135830101116100d957602435906001600080516020614dc983398151915254146109ab576001600080516020614dc983398151915255610df46117d0565b610dfc61180d565b60055460f81c611134575b8115610ad457336000908152600d60205260409020600201546110bf5760418160040135036110ad57336001600160a01b03610e4a600484013560248501612297565b160361046457610e5a8233611afc565b610e6682610a37611572565b5060055460f81c610eaa5790610e88826024610e8e9460040135910133612680565b33612976565b610e96612ae4565b80600080516020614dc98339815191525580f35b610ebc3682600401356024840161144b565b6001600160401b03601454169060405190610ed6826113be565b600282526020820190815233604083015282865260156020526040862090825160048110156107955760ff80198454169116178255518051906001600160401b03821161109957610f2e826102cd60018601546114b7565b602090601f8311600114611029579180610f6192600295948b9261101e5750508160011b916000199060031b1c19161790565b60018201555b0190604060018060a01b03910151166001600160601b0360a01b825416179055600181016001600160401b03811161100a576110059392600080516020614d69833981519152926001600160401b03610ff693166001600160401b0319601454161760145560405192839260028452336020850152608060408501526080840190602481600401359101612eff565b9060608301520390a133612497565b610e96565b634e487b7160e01b85526011600452602485fd5b015190508a806102f5565b906001840189526020892091895b601f1985168110611081575091839160019360029695601f19811610611068575b505050811b016001820155610f67565b015160001960f88460031b161c19169055898080611058565b91926020600181928685015181550194019201611037565b634e487b7160e01b88526041600452602488fd5b6040516318dca5e960e21b8152600490fd5b6109406040516110ce816113be565b603281527f4d6574686f64206e6f7420616c6c6f7765642069662076616c696461746f72206020820152711a185cc8185b1c9958591e481a9bda5b995960721b604082015260405191829163015538b160e01b8352602060048401526024830190611619565b61113c61189b565b610e07565b346100dd5760203660031901126100dd57600435600080516020614dc983398151915260018154146109ab57600181556111796117d0565b61118161180d565b61118961189b565b811561121f57336000908152600d602052604090206002015491821561120757808311156111f6576111c083610a2483879661154f565b60055460f81c6111ec57806111d86111e69233612028565b336111e1611572565b61214e565b50505580f35b6109a79033611e3e565b60405162d11df360e61b8152600490fd5b604051633b4f6e2b60e21b8152336004820152602490fd5b60405163c79cad7b60e01b8152600490fd5b346100dd57602090816003193601126100dd576001600160401b03916004358381116105eb57366023820112156105eb5761127690369060248160040135910161144b565b9261127f6117d0565b338352600f825261ffff604084205416156112075783511561138357338352601882526040832091845191821161136f576112c4826112be85546114b7565b85611508565b80601f831160011461130b5750819084956112f49495926113005750508160011b916000199060031b1c19161790565b90555b6105cf33612e13565b0151905085806102f5565b90601f198316958486528286209286905b8882106113575750508360019596971061133e575b505050811b0190556112f7565b015160001960f88460031b161c19169055848080611331565b8060018596829496860151815501950193019061131c565b634e487b7160e01b84526041600452602484fd5b604051637138356f60e01b8152600490fd5b6001600160401b0381116113a857604052565b634e487b7160e01b600052604160045260246000fd5b606081019081106001600160401b038211176113a857604052565b604081019081106001600160401b038211176113a857604052565b608081019081106001600160401b038211176113a857604052565b90601f801991011681019081106001600160401b038211176113a857604052565b6001600160401b0381116113a857601f01601f191660200190565b92919261145782611430565b91611465604051938461140f565b829481845281830111611482578281602093846000960137010152565b600080fd5b9181601f84011215611482578235916001600160401b038311611482576020808501948460051b01011161148257565b90600182811c921680156114e7575b60208310146114d157565b634e487b7160e01b600052602260045260246000fd5b91607f16916114c6565b8181106114fc575050565b600081556001016114f1565b9190601f811161151757505050565b611543926000526020600020906020601f840160051c83019310611545575b601f0160051c01906114f1565b565b9091508190611536565b9190820391821161155c57565b634e487b7160e01b600052601160045260246000fd5b6040519061157f826113d9565b8160085460ff81169060028210156115a95790825260081c6001600160a01b031660209190910152565b634e487b7160e01b600052602160045260246000fd5b604051906115cc826113d9565b8160075460ff81169060028210156115a95790825260081c6001600160a01b031660209190910152565b60005b8381106116095750506000910152565b81810151838201526020016115f9565b90602091611632815180928185528580860191016115f6565b601f01601f1916010190565b601e5481101561167557601e6000527f50bb669a95c7b50b7e8a6f09454034b2b14cf2b85c730dca9a539ca82cb6e3500190600090565b634e487b7160e01b600052603260045260246000fd5b6019548110156116755760196000527f944998273e477b495144fb8794c914197f3ccb46be2900f4698fd0ef743c96950190600090565b9190820180921161155c57565b60055460f81c6117c3575b336000908152600d60205260409020600201548015611207576116fd8133611c52565b61170633612f43565b506000903382526018602052816040812061172181546114b7565b80611786575b50505060055460f81c1561174057611543915033611e3e565b61176391338152601d602052604081205480611767575b50506111d88133612028565b5050565b8161177682611781945461154f565b90556111d833612c97565b611757565b82601f821160011461179e575050555b813880611727565b90918082526117bc601f60208420940160051c8401600185016114f1565b5555611796565b6117cb61189b565b6116da565b60ff7fc451c9429c27db68f286ab8a68f311f1dccab703ba9423aed29cd397ae63f86354166117fb57565b60405163d93c066560e01b8152600490fd5b60ff60065460401c1661181c57565b60405163248c8efb60e11b8152600490fd5b6040519061183b826113f4565b6045825264185c1c195960da1b6060837f4d6574686f64206e6f7420616c6c6f776564206966207065726d697373696f6e60208201527f656420697320656e61626c656420616e64207375626e657420626f6f7473747260408201520152565b60ff600b541660038110156115a95761091457565b604051906118bd826113d9565b816001600160401b03600954168152604051809182600a5492838152602080910193600a6000527fc65a7bb8d6351c1cf70c95a316cc6a92839c986682d98bc35f958f4883f9d2a8916000905b828210611927575050505061192390602093038461140f565b0152565b83546001600160a01b03168752958601958794506001938401939091019061190a565b602080828403126114825781516001600160401b03928382116114825701926040848203126114825760405193611980856113d9565b805184811681036114825785528281015190848211611482570181601f820112156114825780519384116113a8578360051b90604051946119c38584018761140f565b85528380860192820101928311611482578301905b8282106119e85750505082015290565b81516001600160a01b03811681036114825781529083019083016119d8565b9092919260408252608082016001600160401b03825116604084015260208092015190604060608501528151809152602060a0850192019260005b828110611a5e57505050602091509360018060a01b0316910152565b84516001600160a01b031684529381019392810192600101611a42565b91949392906080835260c08301906001600160401b03815116608085015260208091015191604060a08601528251809152602060e0860193019160005b828110611adf575050505090606092919560018060a01b0316602083015260408201520152565b83516001600160a01b031685529381019392810192600101611ab8565b601f549091906001600160a01b0390811615611c4d57611b3f91611b1e6118b0565b906040519163aa5106cb60e01b835282806000968793309060048401611a07565b038173__$3fbe32418a9ca7804328967972fb037388$__5af4918215611c42578492611c1e575b5082601f541692833b1561095c5794918493916040519687946307fa355f60e51b86526080600487015260c48601936001600160401b03815116608488015260208091015194604060a48901528551809152602060e48901960191895b828110611c02575050505016602485015260448401859052606484015282900390829084905af19081156105df5750611bf95750565b61154390611395565b8351861688528b9a508c99509681019692810192600101611bc3565b611c3b9192503d8086833e611c33818361140f565b81019061194a565b9038611b66565b6040513d86823e3d90fd5b505050565b601f549091906001600160a01b0390811615611c4d57611c7491611b1e6118b0565b038173__$3fbe32418a9ca7804328967972fb037388$__5af4918215611c42578492611d4a575b5082601f541692833b1561095c5794918493916040519687946307fa355f60e51b86526080600487015260c48601936001600160401b03815116608488015260208091015194604060a48901528551809152602060e48901960191895b828110611d2e575050505016602485015260448401526064830184905282900390829084905af19081156105df5750611bf95750565b8351861688528b9a508c99509681019692810192600101611cf8565b611d5f9192503d8086833e611c33818361140f565b9038611c9b565b601f546001600160a01b039493929190851615611e375790611dab91611d8a6118b0565b956040519663aa5106cb60e01b885287806000968793309060048401611a07565b038173__$3fbe32418a9ca7804328967972fb037388$__5af4968715611c42578497611e1b575b50601f541690813b15611e17578380959697611e04604051988996879586946307fa355f60e51b865260048601611a7b565b03925af19081156105df5750611bf95750565b8380fd5b611e309197503d8086833e611c33818361140f565b9538611dd2565b5050509050565b91906040519260208281860152808552611e57856113d9565b6001600160401b039485601454169060405196611e73886113be565b600188528388018281526040890160018060a01b038088169a8b83526000938785526015895260408520915160048110156120145760ff8019845416911617825560018201905180519087821161200057611ed2826112be85546114b7565b8a90601f8311600114611f98579180611f059260029695948a926103c05750508160011b916000199060031b1c19161790565b90555b019151166001600160601b0360a01b8254161790556001840190828211611f845750600080516020614d69833981519152949261154398999492611f7692166001600160401b0319601454161760145560405194859460018652850152608060408501526080840190611619565b9060608301520390a1612e7c565b634e487b7160e01b81526011600452602490fd5b8388528b88209190601f198416898e5b828210611fe957505091600193918560029897969410611fd0575b505050811b019055611f08565b015160001960f88460031b161c19169055388080611fc3565b60018596829396860151815501950193018e611fa8565b634e487b7160e01b87526041600452602487fd5b634e487b7160e01b86526021600452602486fd5b906120d86120e09261203a8382612e7c565b61206383600161205c8460018060a01b0316600052600d602052604060002090565b015461154f565b9060026120828260018060a01b0316600052600d602052604060002090565b015482159081612145575b5015612122576001600160a01b0381166000908152600d602052604090206003600091828155826001820155826002820155016120ca81546114b7565b806120e5575b50505061315a565b600c5461154f565b600c55565b82601f82116001146120fd575050555b3880806120d0565b909180825261211b601f60208420940160051c8401600185016114f1565b55556120f5565b6001600160a01b0381166000908152600d6020526040902082906001015561315a565b9050153861208d565b9291906000809460609080516002811015610795576121c457505050814710610b955783918291829182916001600160a01b03165af161218c612ecf565b5060405192602084018481106001600160401b038211176121b05760405283529190565b634e487b7160e01b82526041600452602482fd5b8096939195949296516002811015612266576001146121e35750505050565b602090810151604080516001600160a01b0394851693810193845280820195909552845294965092945084931691839061221e60608461140f565b61225660246040518093612246602083019763a9059cbb60e01b8952518092858501906115f6565b810103600481018452018261140f565b51925af190612263612ecf565b90565b634e487b7160e01b85526021600452602485fd5b1561228157565b634e487b7160e01b600052600160045260246000fd5b906122a46041821461227a565b80600111611482576122bf913691600019019060010161144b565b80516020909101206001600160a01b031690565b9190825160028110156115a957600103612450576020928360018060a01b03910151166040938451926370a0823160e01b8085523060048601528285602481875afa94851561244557600095612416575b508651916323b872dd60e01b8484015233602484015230604484015260648301526064825260a082018281106001600160401b038211176113a857839261236d918952856138f5565b602487518095819382523060048301525afa91821561240b576000926123dc575b50828211156123a3575061226392935061154f565b60649085519062461bcd60e51b8252600482015260136024820152724e6f2062616c616e636520696e63726561736560681b6044820152fd5b9080925081813d8311612404575b6123f4818361140f565b810103126114825751903861238e565b503d6123ea565b85513d6000823e3d90fd5b9094508281813d831161243e575b61242e818361140f565b8101031261148257519338612324565b503d612424565b87513d6000823e3d90fd5b80919250341061245d5790565b60405162461bcd60e51b8152602060048201526012602482015271496e73756666696369656e742066756e647360701b6044820152606490fd5b9190604092835193826020860152602085526124b2856113d9565b6001600160401b03601454168151956124ca876113be565b6000968781526020810182815260018060a01b03861685830152838952601560205284892090825160048110156104505760ff80198454169116178255518051906001600160401b03821161266c5761252a826102cd60018601546114b7565b6020908b601f84116001146125fb576002949361255d939092836103c05750508160011b916000199060031b1c19161790565b60018201555b01908460018060a01b03910151166001600160601b0360a01b825416179055600182016001600160401b0381116103ac57916125ed6115439798926001600160401b03600080516020614d698339815191529695166001600160401b0319601454161760145560808551958695865260018060a01b03891660208701528501526080840190611619565b9060608301520390a1612f20565b5090600184018c5260208c20918c5b601f1985168110612654575091839160019360029695601f1981161061263b575b505050811b016001820155612563565b015160001960f88460031b161c1916905538808061262b565b9192602060018192868501518155019401920161260a565b634e487b7160e01b8b52604160045260248bfd5b6001600160a01b03166000908152600d6020526040902090929190600301906001600160401b0381116113a8576126c1816126bb84546114b7565b84611508565b6000601f82116001146127015781906126f29394956000926126f65750508160011b916000199060031b1c19161790565b9055565b0135905038806102f5565b601f19821694838252602091602081209281905b88821061274e57505083600195969710612734575b505050811b019055565b0135600019600384901b60f8161c1916905538808061272a565b80600184968294958701358155019501920190612715565b805460009392612775826114b7565b918282526020936001916001811690816000146127dd575060011461279c575b5050505050565b90939495506000929192528360002092846000945b8386106127c957505050500101903880808080612795565b8054858701830152940193859082016127b1565b60ff19168685015250505090151560051b010191503880808080612795565b90601c5491600160401b8310156113a857600180840180601c55841015611675576003600094601c865202938251857f0e4562a10381dec21b205ed72637e6b1b523bdd0e4d4d50af5cd23dd4500a211015560407f0e4562a10381dec21b205ed72637e6b1b523bdd0e4d4d50af5cd23dd4500a2137f0e4562a10381dec21b205ed72637e6b1b523bdd0e4d4d50af5cd23dd4500a21287019660209760018060a01b036020880151166001600160601b0360a01b82541617905501930151908151926001600160401b0384116121b0576128e0846128da87546114b7565b87611508565b602096601f85116001146129135750509482916126f2949596926103c05750508160011b916000199060031b1c19161790565b96919290601f198516978685526020852094915b89831061295f575050508360019596971061294657505050811b019055565b015160001960f88460031b161c1916905538808061272a565b838501518655948501949381019391810191612927565b906129818183612f20565b6129e66001916129dd6129b38260016129ac8860018060a01b0316600052600d602052604060002090565b01546116c2565b918260016129d38860018060a01b0316600052600d602052604060002090565b0155600c546116c2565b600c5583613967565b60055460f81c156129f5575050565b601c80546000929183805b838110612a91575b505050505015612a155750565b80612a8a6108ce6001612a3d6115439560018060a01b0316600052600d602052604060002090565b0154926003612a5e8260018060a01b0316600052600d602052604060002090565b019060405194612a6d866113be565b85526001600160a01b031660208501526040519283918290612766565b038261140f565b828252600381027f0e4562a10381dec21b205ed72637e6b1b523bdd0e4d4d50af5cd23dd4500a21201546001600160a01b03888116911614612ad4578401612a00565b5050505090503880808080612a08565b600c54600290600254811015612af8575050565b61ffff600e54166001600160401b03600654161115612b15575050565b60055491600160f81b60018060f81b038416176005556040918251602080820160208352601c5480915285830190868160051b85010192600096601c88527f0e4562a10381dec21b205ed72637e6b1b523bdd0e4d4d50af5cd23dd4500a2119388915b8a858410612c37575050505050505090807f4914d88063275a25a13b2df37125e216745d812f94c56504be4bd78cf60c9593920390a18154612bed612bd082612bbf6115bf565b6001600160a01b0398891690613d67565b612be784612bdc611572565b896005541690613d67565b906116c2565b946005541694853b15611e175783929160449186519788948593630d66d6c160e41b8552600485015260248401525af1918215612c2d575050611bf95750565b51903d90823e3d90fd5b936003612c746001939495968398999a603f198d8203018852606080928d5483528d88808060a01b03910154168784015282015201858b01612766565b9801930193019194939290612b78565b90600161ffff8093160191821161155c57565b601e90601e549160005b838110612caf575b50505050565b612cb88161163e565b90546003916001600160a01b039190831b1c811685821614612cde575050600101612ca1565b929350936000199182820191821161155c57612d0d84612d00612d2b9461163e565b905490891b1c169161163e565b90919060018060a01b038084549260031b9316831b921b1916179055565b82548015612d53570192612d3e8461163e565b81939154921b1b191690555538808080612ca9565b634e487b7160e01b600052603160045260246000fd5b7f806e0cbb9fce296bbc336a48f42bf1dbc69722d18d90d6fe705b7582c2bb4bd5546001600160a01b03163303612d9c57565b6040516330cd747160e01b8152600490fd5b91908110156116755760051b81013590601e19813603018212156114825701908135916001600160401b038311611482576020018236038113611482579190565b91908110156116755760051b0190565b356001600160a01b03811681036114825790565b6000818152601a6020526040812054612e7757601954600160401b8110156121b0579082612e63612e4c8460016040960160195561168b565b819391549060031b91821b91600019901b19161790565b9055601954928152601a6020522055600190565b905090565b6001600160a01b03166000818152600d60205260409020600201549091808210612ebd57612ea99161154f565b90600052600d602052600260406000200155565b60405163ac69360360e01b8152600490fd5b3d15612efa573d90612ee082611430565b91612eee604051938461140f565b82523d6000602084013e565b606090565b908060209392818452848401376000828201840152601f01601f1916010190565b60018060a01b0316600052600d6020526126f260026040600020019182546116c2565b6000818152601a60205260408120549091908015613014576000199080820181811161100a576019549083820191821161300057818103612fcc575b5050506019548015612fb857810190612f978261168b565b909182549160031b1b191690556019558152601a6020526040812055600190565b634e487b7160e01b84526031600452602484fd5b612fea612fdb612e4c9361168b565b90549060031b1c92839261168b565b90558452601a6020526040842055388080612f7f565b634e487b7160e01b86526011600452602486fd5b505090565b601f546001600160a01b03949293919291908516156127955761303a6118b0565b916040926040519063aa5106cb60e01b8252600097888380613063600495309060048401611a07565b038173__$3fbe32418a9ca7804328967972fb037388$__5af492831561314f578993613133575b50601f541692885b8881106130a55750505050505050505050565b6130b66108326101e2838c8c612def565b6130c46101e2838c8c612def565b906130d083858a612def565b3591873b1561312f57908c916130f98b5194859384936307fa355f60e51b85528b8b8601611a7b565b0381838a5af18015613125579060019291613116575b5001613092565b61311f90611395565b3861310f565b88513d8d823e3d90fd5b8c80fd5b6131489193503d808b833e611c33818361140f565b913861308a565b6040513d8b823e3d90fd5b9160018060a01b0392838116926000938085526020956012875261ffff60409281848920541661358b57808852600f89528184892054161561357a5784156133f457506131a6856147d3565b976131b086613f22565b985b60018084831611156133e55781617fff911c1690818a52601083528a6131dc86888d205416613f22565b11156131f1576131ec9082614940565b6131b2565b505091939597509193955b8260115416156133dc5761320e614c4f565b6001808252601083528486832054169361322785613f22565b95613230614c41565b828452601393601386528189822054169761324a89613f22565b1161328a57505095516001600160a01b03909816885250505050602084019290925250600080516020614d8983398151915291905080604081015b0390a1565b9193959850919395985061329c6144a6565b826011541680156133cb57806132bd6132d9929b9a99989b979695976147f8565b866132c782613fb5565b1661ffff1960115416176011556149cf565b828152601389526132ee828783205416613f22565b9383998460028860115416915b613350575b505050505050505050600080516020614da983398151915293506132859061332784614437565b6133308361472d565b516001600160a01b03928316815292909116602083015281906040820190565b8881168281116133c557828110156133aa57508061337061337692612c84565b90614c5d565b9890985b8810156133a557613391899a9b9c9d88999a6148b1565b61fffe8a881b169098979c9b9a999c6132fb565b613300565b85999199528383526133c0868b87205416613f22565b61337a565b50613300565b87516340d9b01160e01b8152600490fd5b50505050505050565b505091939597509193956131fc565b8894506134277f4a4c5d1a281180eea1e99d8177fa4798b9f7e019d5c57e7d8d73c6a22199aa5b93979992989496614178565b8551908152a184601154169384159586156134455750505050505050565b61344d614c41565b60019160018452601393601386528187822054169761346b89613f22565b996133cb57806132bd613486929b9a99989b979695976147f8565b600181526013895261349c828783205416613f22565b936001998460028860115416915b613505575b505050505050505050600080516020614e0983398151915293506134f6906134d683614437565b516001600160a01b03909216825260208201929092529081906040820190565b0390a1388080808080806133dc565b888116828111613574578281101561355957508061337061352592612c84565b9890985b88101561355457613540899a9b9c9d88999a6148b1565b61fffe8a881b169098979c9b9a999c6134aa565b6134af565b859991995283835261356f868b87205416613f22565b613529565b506134af565b8351632a55ca5360e01b8152600490fd5b84969791929398941561367f575091926135a48561479c565b936135ae86613f22565b93859261fffe968795600196879260011b168160115416925b61360a575b50509a516001600160a01b03909816885250505050602084019490945250929350600080516020614de9833981519152925090508060408101613285565b818116838111613679578e908085111561365d5750508061337061362d92612c84565b9690965b8910156136585790613648889695949392886148b1565b8987871b169091929394956135c7565b6135cc565b865260138552852054909690613674908716613f22565b613631565b506135cc565b949150507f3168ba660eed6ef1dc2258b2247cc05fd0f2f350d39e6ad2e2ebc76a8000b40b95969294506136b39150613fc9565b51908152a1565b6001600160a01b0380821660008181526012602090815260408083205490969594919361ffff91821661387357808452600f8552818885205416156138625786156137cf575061371b61370c866147d3565b61371587613f22565b90614b48565b60115416156137c75761372c614c4f565b60018252601083528581818420541692601361374785613f22565b95613750614c41565b60018352522054169161376283613f22565b1161379757505091516001600160a01b0390921682526020820152600080516020614d89833981519152908060408101613285565b91509150613285600080516020614da9833981519152936137b66145f1565b6137be614329565b61332784614437565b505050505050565b8491939796506138007f4a4c5d1a281180eea1e99d8177fa4798b9f7e019d5c57e7d8d73c6a22199aa5b9396614203565b8651908152a1601154166138145750505050565b600080516020614e098339815191529360138492613830614c41565b600183525220541661385661384482613f22565b9261384d614329565b6134d683614437565b0390a138808080612ca9565b8751632a55ca5360e01b8152600490fd5b96939250505083156138b05750600080516020614de98339815191529350613285906134d66138a18461479c565b6138aa85613f22565b90614aa8565b92506136b37f3168ba660eed6ef1dc2258b2247cc05fd0f2f350d39e6ad2e2ebc76a8000b40b9492614054565b90816020910312611482575180151581036114825790565b60008061391e9260018060a01b03169360208151910182865af1613917612ecf565b9083614d05565b805190811515918261394c575b50506139345750565b60249060405190635274afe760e01b82526004820152fd5b61395f92506020809183010191016138dd565b15388061392b565b919060018060a01b0392838116600094818652602091600f835261ffff91604097838982205416613b145783600b5460081c1684600e541610613af2576139ac614c4f565b6001926001825260108652828a83205416886139c782613f22565b10613aa85750815260128552838982205416613a115750505050506132857f19fe3ca603e87854a0747cc10abf06bac64d61bac73d6d15f2fd3ca448f1526493946134d68361472d565b613a1a8661479c565b92613a2487613f22565b935b8186821611613a6a575b505097516001600160a01b039095168552505050506020810191909152909150600080516020614de9833981519152908060408101613285565b8085613a8986617fff8f95871c169485885260138c5287205416613f22565b1015613aa25790613a9b8392826148b1565b9050613a26565b50613a30565b96975089949350600080516020614da98339815191529899925061328595601291613ad16144a6565b835252205416613ae45761332784614437565b613aed84613fc9565b6137be565b5050505050613285600080516020614e0983398151915293946134d683614437565b97929150613b2585949796956147d3565b97613b2f85613f22565b97613b398a614b97565b84600e5416905b858116828111613be05782811015613bc4575080613b60613b6692612c84565b90614cb5565b9b909b5b8b1115613b8957613b7b908c614940565b613b848b614b97565b613b40565b505093516001600160a01b039095168552505050506020810191909152909250600080516020614d8983398151915291508060408101613285565b849c919c5260108352613bdb858886205416613f22565b613b6a565b505050505050506132859192939550600080516020614d8983398151915294506134d6565b6001600160a01b038082166000818152600f6020526040808220549095949361ffff93918416613d355783600b5460081c1684600e541610613d1557613c49614c4f565b600183526010602052868320541685613c6182613f22565b10613cd35750815260126020528490205416613ca5576132857f19fe3ca603e87854a0747cc10abf06bac64d61bac73d6d15f2fd3ca448f15264936134d68361472d565b613285600080516020614de9833981519152936134d6613cc48461479c565b613ccd85613f22565b90614a53565b9394509185600080516020614da9833981519152969261328594613cf56145f1565b81526012602052205416613d0c5761332784614437565b613aed84614054565b50505050613285600080516020614e09833981519152936134d683614437565b50505050613285600080516020614d89833981519152936134d6613d58846147d3565b613d6185613f22565b90614bae565b60009160009180516002811015613f0e57613d83575050505090565b909192938151600281101561226657600114613da1575b5050505090565b602091820151604051636eb1769f60e11b81523060048201526001600160a01b03858116602483015295965093949390841692918282604481875afa8015613f03578790613ed2575b613df492506116c2565b60405163095ea7b360e01b8382018181526001600160a01b0388166024840152604480840194909452928252909490929187908190613e3460648961140f565b87519082885af1613e43612ecf565b81613ea2575b5080613e98575b15613e65575b50505050505038808080613d9a565b613e8d9561070a936040519384015216602482015285604482015260448152610704816113f4565b388080808080613e56565b50833b1515613e50565b80518015925084908315613eba575b50505038613e49565b613eca93508201810191016138dd565b388381613eb1565b50908281813d8311613efc575b613ee9818361140f565b810103126109585790613df49151613dea565b503d613edf565b6040513d89823e3d90fd5b634e487b7160e01b84526021600452602484fd5b60ff600b541660038110156115a957600103613f53576001600160a01b03166000908152600d602052604090205490565b6001600160a01b03166000908152600d602052604090206001015490565b9060018060a01b038216600052600d60205260406000208181549155818114600014613f9c57505050565b811115613fac5761154391613c05565b611543916136ba565b61ffff908116600019019190821161155c57565b613fd29061479c565b61ffff90816011541691613fe683836148b1565b80613ff084613fb5565b1661ffff196011541617601155614006836149cf565b8116809214611763576138aa8261154393600052601360205260018060a01b039061404061403a8360406000205416613f22565b85614a53565b600052601360205260406000205416613f22565b61405d9061479c565b61ffff80601154169161407083826148b1565b8161407a84613fb5565b1661ffff196011541617601155614090836149cf565b818116809314611c4d576000918383526013602094601360205260018060a01b03906040906140cd6140c78460408a205416613f22565b87614a53565b865260136020526140e382604088205416613f22565b95859361fffe988997600198899160011b168860115416915b61410f575b505050505050505050505050565b888116828111614172578281101561415757508061337061412f92612c84565b9890985b8b1015614152576141458a988a6148b1565b979687811b8c16906140fc565b614101565b859991995283835261416d878787205416613f22565b614133565b50614101565b614181906147d3565b61ffff9081600e5416916141958383614940565b8061419f84613fb5565b1661ffff19600e541617600e556141b583614a11565b811680921461176357613d618261154393600052601060205260018060a01b03906141ef6141e98360406000205416613f22565b85614b48565b600052601060205260406000205416613f22565b61420c906147d3565b9061ffff9081600e5416906142218285614940565b8261422b83613fb5565b1661ffff19600e541617600e5561424182614a11565b82841680921461432357600092919291838352601092602094601060205260018060a01b039160409161428261427c85604085205416613f22565b8a614b48565b8152601060205261429883604083205416613f22565b956142a289614b97565b9785600e5416985b8681168a8111614315578a8110156142fa575080613b606142ca92612c84565b9a909a5b8911156142ed576142df908b614940565b6142e88a614b97565b6142aa565b5050505050505092505050565b849b919b52828252614310868686205416613f22565b6142ce565b505050505050505092505050565b92505050565b61ffff80601154168015614425578061434461434e926147f8565b826132c782613fb5565b60016000818152601360208181527f4155c2f711f2cdd34f8262ab8fb9b7020a700fe7b6948222152f7670d1fdf34d5491939290916001600160a01b039160409161439a908416613f22565b956001948660028a60115416915b6143ba575b5050505050505050505050565b8a811682811161441f57828110156144045750806133706143da92612c84565b9a909a5b8a10156143ff576143f089988c6148b1565b999687811b61fffe16906143a8565b6143ad565b859b919b5283835261441a878787205416613f22565b6143de565b506143ad565b6040516340d9b01160e01b8152600490fd5b6115439061371561ffff9161444f83600e5416612c84565b9260018060a01b0382169081600052600f60205260406000209085169161ffff199183838254161790558260005260106020526040600020906001600160601b0360a01b825416179055600e541617600e55613f22565b61ffff80600e541690811561442557906001906144c58183111561227a565b6000828152601060208181526040808420805486865282862080546001600160a01b03928316808952600f8752858920805461ffff199081168c17909155918416808a52868a20805484168d17905588885283546001600160a01b03199081169092179093558a89528454169091179092559295879593949293929161455f91908a61455083613fb5565b1690600e541617600e55614a11565b8482526010602052614575848484205416613f22565b958598600281600e5416995b614592575050505050505050505050565b8181168a811161441f578a8110156145d6575080613b606145b292612c84565b9a909a5b8911156143ff576145c7908b614940565b6145d08a614b97565b87614581565b859b919b528383526145ec878787205416613f22565b6145b6565b61ffff80600e541690811561442557906001906146108183111561227a565b6000828152601060208181526040808420805486865282862080546001600160a01b03928316808952600f8752858920805461ffff199081168c17909155918416808a52868a20805484168d17905588885283546001600160a01b03199081169092179093558a89528454169091179092559295879593949293929161469b91908a61455083613fb5565b84825260106020526146b1848484205416613f22565b958598600281600e5416995b6146ce575050505050505050505050565b8181168a811161441f578a811015614712575080613b606146ee92612c84565b9a909a5b8911156143ff57614703908b614940565b61470c8a614b97565b876146bd565b859b919b52838352614728878787205416613f22565b6146f2565b61154390613ccd61ffff916147458360115416612c84565b9260018060a01b0382169081600052601260205260406000209085169161ffff199183838254161790558260005260136020526040600020906001600160601b0360a01b8254161790556011541617601155613f22565b6001600160a01b031660009081526012602052604090205461ffff169081156147c157565b60405163f2755e3760e01b8152600490fd5b6001600160a01b03166000908152600f602052604090205461ffff169081156147c157565b61481b61ffff806011541692614811846001111561227a565b169182111561227a565b601360208181527f4155c2f711f2cdd34f8262ab8fb9b7020a700fe7b6948222152f7670d1fdf34d80546000858152604080822080546001600160a01b0394851680855260128852838520805461ffff19908116909b1790559416808452918320805490981660019081179098559590945284546001600160a01b03199081169092179094559390925281549092169091179055565b6148cc61ffff8080601154169316936148118486111561227a565b6000828152601360208181526040808420805486865282862080546001600160a01b0392831680895260128752858920805461ffff19908116909b1790559216808852938720805490981689179097559390925284546001600160a01b031990811690931790945593909152825416179055565b61495b61ffff8080600e54169316936148118486111561227a565b6000828152601060208181526040808420805486865282862080546001600160a01b03928316808952600f8752858920805461ffff19908116909b1790559216808852938720805490981689179097559390925284546001600160a01b031990811690931790945593909152825416179055565b61ffff16600090815260136020908152604080832080546001600160a01b031981169091556001600160a01b0316835260129091529020805461ffff19169055565b61ffff16600090815260106020908152604080832080546001600160a01b031981169091556001600160a01b03168352600f9091529020805461ffff19169055565b9190915b60018061ffff83161115614aa25781617fff911c169083614a8d60008481526013602052604060018060a01b0391205416613f22565b1015614aa257614a9d90826148b1565b614a57565b50509050565b9061fffe91600190838160011b169060008361ffff938460115416915b614ad4575b5050505050505050565b848116828111614b425782811015614b1c575080613370614af492612c84565b9490945b871015614b1757614b0a8694866148b1565b939283811b881690614ac5565b614aca565b835260136020526040832054909490614b3d906001600160a01b0316613f22565b614af8565b50614aca565b9190915b60018061ffff83161115614aa25781617fff911c169083614b8260008481526010602052604060018060a01b0391205416613f22565b1115614aa257614b929082614940565b614b4c565b60011b906201fffe61fffe83169216820361155c57565b91614bb883614b97565b600061ffff9182600e5416905b838116828111614c375782811015614c11575080613b60614be592612c84565b9690965b861115614c0857614bfa9087614940565b614c0386614b97565b614bc5565b50505050915050565b835260106020526040832054909690614c32906001600160a01b0316613f22565b614be9565b5050505050915050565b61ffff601154161561442557565b61ffff600e54161561442557565b91909161ffff928382166000526013602052614ca060018060a01b03614c898160406000205416613f22565b958316600052601360205260406000205416613f22565b90818510614cae5750509190565b9350919050565b919061ffff8084166000526010602052614cf660018060a01b03614cdf8160406000205416613f22565b928416600052601060205260406000205416613f22565b9384821115614cae5750509190565b90614d2c5750805115614d1a57805190602001fd5b604051630a12f52160e11b8152600490fd5b81511580614d5f575b614d3d575090565b604051639996b31560e01b81526001600160a01b039091166004820152602490fd5b50803b15614d3556fe1c593a2b803c3f9038e8b6743ba79fbc4276d2770979a01d2768ed12bea3243f143db27bc2036653dc6f962ff9d0b803163d4af50c256ca9e6927b3d6dcd0197faeb8de771b867cf357f6b459a7002b62ec45d544a8078a3ecd91200cc826d75691bb03ffc16c56fc96b82fd16cd1b3715f0bc3cdc6407005f49bb6205860095da148fac2e1063174be7bc0895576bdaba90fd14e575463fa26a967cb895cadd2e8038f5812f763c6ef0c5427cb5a05ce6d7064af2ba7d1d270bc02660b019fda26469706673582212206613ea1871d01b378c8eeaa4d57ca54708db7ba9ca32b7dfe5df5dd5aa27823264736f6c63430008170033",
  "linkReferences": {
    "contracts/lib/SubnetIDHelper.sol": {
      "SubnetIDHelper": [
        {
          "length": 20,
          "start": 7007
        },
        {
          "length": 20,
          "start": 7316
        },
        {
          "length": 20,
          "start": 7627
        },
        {
          "length": 20,
          "start": 12419
        }
      ]
    }
  },
  "deployedLinkReferences": {
    "contracts/lib/SubnetIDHelper.sol": {
      "SubnetIDHelper": [
        {
          "length": 20,
          "start": 6979
        },
        {
          "length": 20,
          "start": 7288
        },
        {
          "length": 20,
          "start": 7599
        },
        {
          "length": 20,
          "start": 12391
        }
      ]
    }
  }
}