{
  "_format": "hh-sol-artifact-1",
  "contractName": "SubnetActorGetterFacet",
  "sourceName": "contracts/subnet/SubnetActorGetterFacet.sol",
  "abi": [
    {
      "inputs": [],
      "name": "activeValidatorsLimit",
      "outputs": [
        {
          "internalType": "uint16",
          "name": "",
          "type": "uint16"
        }
      ],
      "stateMutability": "view",
      "type": "function"
    },
    {
      "inputs": [],
      "name": "bootstrapped",
      "outputs": [
        {
          "internalType": "bool",
          "name": "",
          "type": "bool"
        }
      ],
      "stateMutability": "view",
      "type": "function"
    },
    {
      "inputs": [],
      "name": "bottomUpCheckPeriod",
      "outputs": [
        {
          "internalType": "uint256",
          "name": "",
          "type": "uint256"
        }
      ],
      "stateMutability": "view",
      "type": "function"
    },
    {
      "inputs": [
        {
          "internalType": "uint256",
          "name": "epoch",
          "type": "uint256"
        }
      ],
      "name": "bottomUpCheckpointAtEpoch",
      "outputs": [
        {
          "internalType": "bool",
          "name": "exists",
          "type": "bool"
        },
        {
          "components": [
            {
              "components": [
                {
                  "internalType": "uint64",
                  "name": "root",
                  "type": "uint64"
                },
                {
                  "internalType": "address[]",
                  "name": "route",
                  "type": "address[]"
                }
              ],
              "internalType": "struct SubnetID",
              "name": "subnetID",
              "type": "tuple"
            },
            {
              "internalType": "uint256",
              "name": "blockHeight",
              "type": "uint256"
            },
            {
              "internalType": "bytes32",
              "name": "blockHash",
              "type": "bytes32"
            },
            {
              "internalType": "uint64",
              "name": "nextConfigurationNumber",
              "type": "uint64"
            },
            {
              "components": [
                {
                  "internalType": "enum IpcMsgKind",
                  "name": "kind",
                  "type": "uint8"
                },
                {
                  "components": [
                    {
                      "components": [
                        {
                          "internalType": "uint64",
                          "name": "root",
                          "type": "uint64"
                        },
                        {
                          "internalType": "address[]",
                          "name": "route",
                          "type": "address[]"
                        }
                      ],
                      "internalType": "struct SubnetID",
                      "name": "subnetId",
                      "type": "tuple"
                    },
                    {
                      "components": [
                        {
                          "internalType": "uint8",
                          "name": "addrType",
                          "type": "uint8"
                        },
                        {
                          "internalType": "bytes",
                          "name": "payload",
                          "type": "bytes"
                        }
                      ],
                      "internalType": "struct FvmAddress",
                      "name": "rawAddress",
                      "type": "tuple"
                    }
                  ],
                  "internalType": "struct IPCAddress",
                  "name": "to",
                  "type": "tuple"
                },
                {
                  "components": [
                    {
                      "components": [
                        {
                          "internalType": "uint64",
                          "name": "root",
                          "type": "uint64"
                        },
                        {
                          "internalType": "address[]",
                          "name": "route",
                          "type": "address[]"
                        }
                      ],
                      "internalType": "struct SubnetID",
                      "name": "subnetId",
                      "type": "tuple"
                    },
                    {
                      "components": [
                        {
                          "internalType": "uint8",
                          "name": "addrType",
                          "type": "uint8"
                        },
                        {
                          "internalType": "bytes",
                          "name": "payload",
                          "type": "bytes"
                        }
                      ],
                      "internalType": "struct FvmAddress",
                      "name": "rawAddress",
                      "type": "tuple"
                    }
                  ],
                  "internalType": "struct IPCAddress",
                  "name": "from",
                  "type": "tuple"
                },
                {
                  "internalType": "uint64",
                  "name": "nonce",
                  "type": "uint64"
                },
                {
                  "internalType": "uint256",
                  "name": "value",
                  "type": "uint256"
                },
                {
                  "internalType": "bytes",
                  "name": "message",
                  "type": "bytes"
                }
              ],
              "internalType": "struct IpcEnvelope[]",
              "name": "msgs",
              "type": "tuple[]"
            }
          ],
          "internalType": "struct BottomUpCheckpoint",
          "name": "checkpoint",
          "type": "tuple"
        }
      ],
      "stateMutability": "view",
      "type": "function"
    },
    {
      "inputs": [
        {
          "internalType": "uint256",
          "name": "epoch",
          "type": "uint256"
        }
      ],
      "name": "bottomUpCheckpointHashAtEpoch",
      "outputs": [
        {
          "internalType": "bool",
          "name": "",
          "type": "bool"
        },
        {
          "internalType": "bytes32",
          "name": "",
          "type": "bytes32"
        }
      ],
      "stateMutability": "view",
      "type": "function"
    },
    {
      "inputs": [],
      "name": "collateralSource",
      "outputs": [
        {
          "components": [
            {
              "internalType": "enum AssetKind",
              "name": "kind",
              "type": "uint8"
            },
            {
              "internalType": "address",
              "name": "tokenAddress",
              "type": "address"
            }
          ],
          "internalType": "struct Asset",
          "name": "supply",
          "type": "tuple"
        }
      ],
      "stateMutability": "view",
      "type": "function"
    },
    {
      "inputs": [],
      "name": "consensus",
      "outputs": [
        {
          "internalType": "enum ConsensusType",
          "name": "",
          "type": "uint8"
        }
      ],
      "stateMutability": "view",
      "type": "function"
    },
    {
      "inputs": [
        {
          "components": [
            {
              "internalType": "enum IpcMsgKind",
              "name": "kind",
              "type": "uint8"
            },
            {
              "components": [
                {
                  "components": [
                    {
                      "internalType": "uint64",
                      "name": "root",
                      "type": "uint64"
                    },
                    {
                      "internalType": "address[]",
                      "name": "route",
                      "type": "address[]"
                    }
                  ],
                  "internalType": "struct SubnetID",
                  "name": "subnetId",
                  "type": "tuple"
                },
                {
                  "components": [
                    {
                      "internalType": "uint8",
                      "name": "addrType",
                      "type": "uint8"
                    },
                    {
                      "internalType": "bytes",
                      "name": "payload",
                      "type": "bytes"
                    }
                  ],
                  "internalType": "struct FvmAddress",
                  "name": "rawAddress",
                  "type": "tuple"
                }
              ],
              "internalType": "struct IPCAddress",
              "name": "to",
              "type": "tuple"
            },
            {
              "components": [
                {
                  "components": [
                    {
                      "internalType": "uint64",
                      "name": "root",
                      "type": "uint64"
                    },
                    {
                      "internalType": "address[]",
                      "name": "route",
                      "type": "address[]"
                    }
                  ],
                  "internalType": "struct SubnetID",
                  "name": "subnetId",
                  "type": "tuple"
                },
                {
                  "components": [
                    {
                      "internalType": "uint8",
                      "name": "addrType",
                      "type": "uint8"
                    },
                    {
                      "internalType": "bytes",
                      "name": "payload",
                      "type": "bytes"
                    }
                  ],
                  "internalType": "struct FvmAddress",
                  "name": "rawAddress",
                  "type": "tuple"
                }
              ],
              "internalType": "struct IPCAddress",
              "name": "from",
              "type": "tuple"
            },
            {
              "internalType": "uint64",
              "name": "nonce",
              "type": "uint64"
            },
            {
              "internalType": "uint256",
              "name": "value",
              "type": "uint256"
            },
            {
              "internalType": "bytes",
              "name": "message",
              "type": "bytes"
            }
          ],
          "internalType": "struct IpcEnvelope[]",
          "name": "messages",
          "type": "tuple[]"
        }
      ],
      "name": "crossMsgsHash",
      "outputs": [
        {
          "internalType": "bytes32",
          "name": "",
          "type": "bytes32"
        }
      ],
      "stateMutability": "pure",
      "type": "function"
    },
    {
      "inputs": [],
      "name": "genesisBalances",
      "outputs": [
        {
          "internalType": "address[]",
          "name": "",
          "type": "address[]"
        },
        {
          "internalType": "uint256[]",
          "name": "",
          "type": "uint256[]"
        }
      ],
      "stateMutability": "view",
      "type": "function"
    },
    {
      "inputs": [],
      "name": "genesisCircSupply",
      "outputs": [
        {
          "internalType": "uint256",
          "name": "",
          "type": "uint256"
        }
      ],
      "stateMutability": "view",
      "type": "function"
    },
    {
      "inputs": [],
      "name": "genesisValidators",
      "outputs": [
        {
          "components": [
            {
              "internalType": "uint256",
              "name": "weight",
              "type": "uint256"
            },
            {
              "internalType": "address",
              "name": "addr",
              "type": "address"
            },
            {
              "internalType": "bytes",
              "name": "metadata",
              "type": "bytes"
            }
          ],
          "internalType": "struct Validator[]",
          "name": "",
          "type": "tuple[]"
        }
      ],
      "stateMutability": "view",
      "type": "function"
    },
    {
      "inputs": [],
      "name": "getActiveValidatorsNumber",
      "outputs": [
        {
          "internalType": "uint16",
          "name": "",
          "type": "uint16"
        }
      ],
      "stateMutability": "view",
      "type": "function"
    },
    {
      "inputs": [],
      "name": "getBootstrapNodes",
      "outputs": [
        {
          "internalType": "string[]",
          "name": "",
          "type": "string[]"
        }
      ],
      "stateMutability": "view",
      "type": "function"
    },
    {
      "inputs": [],
      "name": "getConfigurationNumbers",
      "outputs": [
        {
          "internalType": "uint64",
          "name": "",
          "type": "uint64"
        },
        {
          "internalType": "uint64",
          "name": "",
          "type": "uint64"
        }
      ],
      "stateMutability": "view",
      "type": "function"
    },
    {
      "inputs": [],
      "name": "getParent",
      "outputs": [
        {
          "components": [
            {
              "internalType": "uint64",
              "name": "root",
              "type": "uint64"
            },
            {
              "internalType": "address[]",
              "name": "route",
              "type": "address[]"
            }
          ],
          "internalType": "struct SubnetID",
          "name": "",
          "type": "tuple"
        }
      ],
      "stateMutability": "view",
      "type": "function"
    },
    {
      "inputs": [
        {
          "internalType": "address",
          "name": "validator",
          "type": "address"
        }
      ],
      "name": "getPower",
      "outputs": [
        {
          "internalType": "uint256",
          "name": "",
          "type": "uint256"
        }
      ],
      "stateMutability": "view",
      "type": "function"
    },
    {
      "inputs": [],
      "name": "getTotalCollateral",
      "outputs": [
        {
          "internalType": "uint256",
          "name": "",
          "type": "uint256"
        }
      ],
      "stateMutability": "view",
      "type": "function"
    },
    {
      "inputs": [],
      "name": "getTotalConfirmedCollateral",
      "outputs": [
        {
          "internalType": "uint256",
          "name": "",
          "type": "uint256"
        }
      ],
      "stateMutability": "view",
      "type": "function"
    },
    {
      "inputs": [
        {
          "internalType": "address",
          "name": "validator",
          "type": "address"
        }
      ],
      "name": "getTotalValidatorCollateral",
      "outputs": [
        {
          "internalType": "uint256",
          "name": "",
          "type": "uint256"
        }
      ],
      "stateMutability": "view",
      "type": "function"
    },
    {
      "inputs": [],
      "name": "getTotalValidatorsNumber",
      "outputs": [
        {
          "internalType": "uint16",
          "name": "",
          "type": "uint16"
        }
      ],
      "stateMutability": "view",
      "type": "function"
    },
    {
      "inputs": [
        {
          "internalType": "address",
          "name": "validatorAddress",
          "type": "address"
        }
      ],
      "name": "getValidator",
      "outputs": [
        {
          "components": [
            {
              "internalType": "uint256",
              "name": "federatedPower",
              "type": "uint256"
            },
            {
              "internalType": "uint256",
              "name": "confirmedCollateral",
              "type": "uint256"
            },
            {
              "internalType": "uint256",
              "name": "totalCollateral",
              "type": "uint256"
            },
            {
              "internalType": "bytes",
              "name": "metadata",
              "type": "bytes"
            }
          ],
          "internalType": "struct ValidatorInfo",
          "name": "validator",
          "type": "tuple"
        }
      ],
      "stateMutability": "view",
      "type": "function"
    },
    {
      "inputs": [],
      "name": "ipcGatewayAddr",
      "outputs": [
        {
          "internalType": "address",
          "name": "",
          "type": "address"
        }
      ],
      "stateMutability": "view",
      "type": "function"
    },
    {
      "inputs": [
        {
          "internalType": "address",
          "name": "validator",
          "type": "address"
        }
      ],
      "name": "isActiveValidator",
      "outputs": [
        {
          "internalType": "bool",
          "name": "",
          "type": "bool"
        }
      ],
      "stateMutability": "view",
      "type": "function"
    },
    {
      "inputs": [
        {
          "internalType": "address",
          "name": "validator",
          "type": "address"
        }
      ],
      "name": "isWaitingValidator",
      "outputs": [
        {
          "internalType": "bool",
          "name": "",
          "type": "bool"
        }
      ],
      "stateMutability": "view",
      "type": "function"
    },
    {
      "inputs": [],
      "name": "killed",
      "outputs": [
        {
          "internalType": "bool",
          "name": "",
          "type": "bool"
        }
      ],
      "stateMutability": "view",
      "type": "function"
    },
    {
      "inputs": [],
      "name": "lastBottomUpCheckpointHeight",
      "outputs": [
        {
          "internalType": "uint256",
          "name": "",
          "type": "uint256"
        }
      ],
      "stateMutability": "view",
      "type": "function"
    },
    {
      "inputs": [],
      "name": "majorityPercentage",
      "outputs": [
        {
          "internalType": "uint8",
          "name": "",
          "type": "uint8"
        }
      ],
      "stateMutability": "view",
      "type": "function"
    },
    {
      "inputs": [],
      "name": "minActivationCollateral",
      "outputs": [
        {
          "internalType": "uint256",
          "name": "",
          "type": "uint256"
        }
      ],
      "stateMutability": "view",
      "type": "function"
    },
    {
      "inputs": [],
      "name": "minValidators",
      "outputs": [
        {
          "internalType": "uint64",
          "name": "",
          "type": "uint64"
        }
      ],
      "stateMutability": "view",
      "type": "function"
    },
    {
      "inputs": [],
      "name": "permissionMode",
      "outputs": [
        {
          "internalType": "enum PermissionMode",
          "name": "",
          "type": "uint8"
        }
      ],
      "stateMutability": "view",
      "type": "function"
    },
    {
      "inputs": [],
      "name": "powerScale",
      "outputs": [
        {
          "internalType": "int8",
          "name": "",
          "type": "int8"
        }
      ],
      "stateMutability": "view",
      "type": "function"
    },
    {
      "inputs": [],
      "name": "supplySource",
      "outputs": [
        {
          "components": [
            {
              "internalType": "enum AssetKind",
              "name": "kind",
              "type": "uint8"
            },
            {
              "internalType": "address",
              "name": "tokenAddress",
              "type": "address"
            }
          ],
          "internalType": "struct Asset",
          "name": "supply",
          "type": "tuple"
        }
      ],
      "stateMutability": "view",
      "type": "function"
    }
  ],
  "bytecode": "0x60808060405234610016576116f9908161001c8239f35b600080fdfe60808060405260048036101561001457600080fd5b60003560e01c91826306c4685314610cf9575081631597bf7e14610cb55781631904bb2e14610be15781631f3a0e4114610bbb578163332a5ac9146104be5781633354c3e114610b9657816335142c8c14610b7357816338a210b314610b4357816340550a1c14610b035781634b0694e214610aac5781634b27aa7214610a7257816352d182d114610a29578163599c7bd114610a055781635dd9147c1461099357816372d0a0e01461097557816380875df71461090f57816380f760211461084d5781638ef3f76114610809578163903e6930146106d1578163948628a9146106b35781639754b29e146106365781639e33bd0214610618578163ad81e4d6146105f4578163b6797d3c14610575578163c5ab22411461054e578163c7cda7621461052c578163cfca282414610503578163d081be03146104c3578163d6eb5910146104be578163d92e8f1214610354578163e02d971b146101b0575063f0cf6c961461018157600080fd5b346101ab5760003660031901126101ab57602060ff600b5416604051906101a781610dee565b8152f35b600080fd5b346101ab57602090816003193601126101ab576001600160401b038135116101ab5736602382350112156101ab576001600160401b038135820135116101ab57803581013560051b3660248284350101116101ab576040518092604082018580840152813582013590526060808301938301019060248135019360005b8235830135811061025c5750505061024e925003601f198101835282610ff3565b818151910120604051908152f35b868403605f19018252919350918435908435360360e219018212156101ab576003602486358401013510156101ab578761034260019382936102a460248a3584010135610dee565b883582016024810180358352610334916102fc916102db916102cb9160449091019061155f565b60c08886015260c08501906115d9565b6102ef8c358601606481019060240161155f565b84820360408601526115d9565b926001600160401b0361031460848d35840101611573565b1660608401528a350160a4810135608084015260c4810190602401611587565b9160a08185039101526115b8565b9601930191019085939194929461022d565b346101ab5760003660031901126101ab57601c546103718161116c565b9161037f6040519384610ff3565b818352601c6000908152602092838501927f0e4562a10381dec21b205ed72637e6b1b523bdd0e4d4d50af5cd23dd4500a21190845b83851061043a57604080518881528951818a01819052600092600582901b83018101918a918c9085015b8287106103eb5785850386f35b90919293828061042a600193603f198a82030186528851604060609180518452878060a01b038682015116868501520151918160408201520190610d2a565b96019201960195929190926103de565b604097969751606081018181106001600160401b038211176104a9576040908152845482526001858101546001600160a01b03168b840152905190926003928b926104938161048c8160028c01611014565b0382610ff3565b60408201528152019301940193919695966103b4565b604184634e487b7160e01b6000525260246000fd5b610d6a565b346101ab5760203660031901126101ab576001600160a01b036104e4610d14565b166000526012602052602061ffff604060002054161515604051908152f35b346101ab5760003660031901126101ab576005546040516001600160a01b039091168152602090f35b346101ab5760003660031901126101ab57602061ffff600e5416604051908152f35b346101ab5760003660031901126101ab5760206001600160401b0360065416604051908152f35b346101ab5760003660031901126101ab576000602060405161059681610fbd565b82815201526040516105a781610fbd565b60085460ff811660028110156105df57825260081c6001600160a01b03166020820152604051915081906105db9082610f64565b0390f35b602184634e487b7160e01b6000525260246000fd5b346101ab5760003660031901126101ab57602060055460e81c60000b604051908152f35b346101ab5760003660031901126101ab576020600254604051908152f35b346101ab5760003660031901126101ab5761064f611447565b60405160209160208201926020835281518094526040830193602060408260051b8601019301916000955b8287106106875785850386f35b9091929382806106a3600193603f198a82030186528851610d2a565b960192019601959291909261067a565b346101ab5760003660031901126101ab576020600054604051908152f35b346101ab5760003660031901126101ab57601e80546106ef8161116c565b906106fd6040519283610ff3565b8082526107098161116c565b601f1991602091830136858401376107208161116c565b9461072e6040519687610ff3565b81865261073a8261116c565b868401940136853760005b8281106107a1575050506107689381604051958695604087526040870190610d88565b9185830382870152519182815201929160005b82811061078a57505050500390f35b83518552869550938101939281019260010161077b565b60008290527f50bb669a95c7b50b7e8a6f09454034b2b14cf2b85c730dca9a539ca82cb6e35081015495969495600191906001600160a01b0316806107e6838b61141d565b52600052601d85526040600020546107fe828861141d565b520195949395610745565b346101ab5760003660031901126101ab5760ff60055460f01c1660405190600181101561083857602092508152f35b602183634e487b7160e01b6000525260246000fd5b346101ab5760003660031901126101ab576108666110d1565b5060405161087381610fbd565b6001600160401b036009541681526040519081600a5492838152602080910193600a6000527fc65a7bb8d6351c1cf70c95a316cc6a92839c986682d98bc35f958f4883f9d2a8916000905b8282106108ef576105db86866108d6818b0382610ff3565b6020820152604051918291602083526020830190610dc5565b83546001600160a01b0316875295860195600193840193909101906108be565b346101ab5760003660031901126101ab576000602060405161093081610fbd565b828152015260405161094181610fbd565b60075460ff811660028110156105df57825260081c6001600160a01b03166020820152604051915081906105db9082610f64565b346101ab5760003660031901126101ab576020600154604051908152f35b346101ab5760203660031901126101ab5760206109ae610d14565b600160ff600b54166109bf81610dee565b036109e5576001600160a01b03166000908152600d60205260409020545b604051908152f35b6001600160a01b03166000908152600d60205260409020600101546109dd565b346101ab5760003660031901126101ab57602060ff60055460e01c16604051908152f35b346101ab5760003660031901126101ab5761ffff806011541681600e54160190808211610a5d576020925060405191168152f35b601183634e487b7160e01b6000525260246000fd5b346101ab5760203660031901126101ab57610a8d90356111d3565b906105db60405192839215158352604060208401526040830190610e4a565b346101ab5760203660031901126101ab57610ac9604091356111d3565b8251610af281610ae460208201946020865287830190610e4a565b03601f198101835282610ff3565b519020825191151582526020820152f35b346101ab5760203660031901126101ab576001600160a01b03610b24610d14565b16600052600f602052602061ffff604060002054161515604051908152f35b346101ab5760003660031901126101ab5760406014546001600160401b038251918181168352831c166020820152f35b346101ab5760003660031901126101ab57602060055460f81c6040519015158152f35b346101ab5760003660031901126101ab57602061ffff600b5460081c16604051908152f35b346101ab5760003660031901126101ab57602060ff60065460401c166040519015158152f35b346101ab5760203660031901126101ab57610c38610bfd610d14565b606080604051610c0c81610f8c565b600081526000602082015260006040820152015260018060a01b0316600052600d602052604060002090565b604051610c4481610f8c565b815481526105db600360018401549360208401948552610c8160028201549160408601928352610c7a6040518095819301611014565b0383610ff3565b60608401918252604051948594602086525160208601525160408501525160608401525160808084015260a0830190610d2a565b346101ab5760203660031901126101ab5760206002610cef610cd5610d14565b6001600160a01b03166000908152600d6020526040902090565b0154604051908152f35b346101ab5760003660031901126101ab576020906003548152f35b600435906001600160a01b03821682036101ab57565b919082519283825260005b848110610d56575050826000602080949584010152601f8019910116010190565b602081830181015184830182015201610d35565b346101ab5760003660031901126101ab576020600c54604051908152f35b90815180825260208080930193019160005b828110610da8575050505090565b83516001600160a01b031685529381019392810192600101610d9a565b9060406020610deb936001600160401b0381511684520151918160208201520190610d88565b90565b60031115610df857565b634e487b7160e01b600052602160045260246000fd5b60406020610deb9381610e28855185845285840190610dc5565b940151908281860391015260ff81511684520151918160208201520190610d2a565b60a090610e60815160a0855260a0850190610dc5565b91602080830151818601526040936040840151604087015260609360608101516001600160401b0380911660608901526080809201519760808185039101528751948584528484019285808860051b8701019a01976000955b888710610ece57505050505050505050505090565b909192939495969798999b9a8880610f4d8f6001948f610f2b8b918e601f198b86030190525193610f1960c08651610f0581610dee565b86528887015190808a880152860190610e0e565b90808601519085830390860152610e0e565b928c8a820151168a8401528a8101518b8401520151908a818403910152610d2a565b9d9e9c019a99989190910196019493929190610eb9565b81516040820193926002821015610df8579082526020908101516001600160a01b0316910152565b608081019081106001600160401b03821117610fa757604052565b634e487b7160e01b600052604160045260246000fd5b604081019081106001600160401b03821117610fa757604052565b60a081019081106001600160401b03821117610fa757604052565b90601f801991011681019081106001600160401b03821117610fa757604052565b80546000939260018083169383821c9385156110c7575b60209586861081146110b1578585529081156110925750600114611051575b5050505050565b90939495506000929192528360002092846000945b83861061107e5750505050010190388080808061104a565b805485870183015294019385908201611066565b60ff19168685015250505090151560051b01019150388080808061104a565b634e487b7160e01b600052602260045260246000fd5b93607f169361102b565b604051906110de82610fbd565b6060602083600081520152565b90604051916110f983610fbd565b826001600160401b0382541681526001809201916040519283849282548083526020809301936000526020600020926000905b82821061114b57505050505060209291611147910384610ff3565b0152565b84546001600160a01b0316865288965094850194938301939083019061112c565b6001600160401b038111610fa75760051b60200190565b906040519161119183610fbd565b60208361119d836110eb565b815260036111cb604051946111b186610fbd565b60ff600282015416865261048c6040518094819301611014565b828401520152565b90604080516111e181610fd8565b6111e96110d1565b815260009060208281830152828483015260609583606084015260606080809401528352601b81528383209584519661122188610fd8565b61122a816110eb565b88526002810154838901526003810154868901526001600160401b03936004918560048201541660608b01526005809101908154926112688461116c565b956112758b519788610ff3565b848752878701938a52878a20928a945b86861061138257505050505050505091819260808801528187518651948591630c133d1360e31b835281600484015260648301948151166024840152015187604483015280518094528260848301910193875b81811061136057505081929350038173__$3fbe32418a9ca7804328967972fb037388$__5af493841561135757508293611315575b505050159190565b9080929350813d8311611350575b61132d8183610ff3565b8101031261134c5751908115158203611349575038808061130d565b80fd5b5080fd5b503d611323565b513d84823e3d90fd5b85516001600160a01b03168352948401948694889450909201916001016112d8565b8c5160c081018181108d82111761140a576001928f92600b8f8f9461048c876113f7938e93600c9a5260ff8454166113b981610dee565b87526113c68b8501611183565b898801526113d58c8501611183565b828801526009840154168c870152600a8301548d870152518094819301611014565b60a0820152815201950195019493611285565b634e487b7160e01b8e5260418a5260248efd5b80518210156114315760209160051b010190565b634e487b7160e01b600052603260045260246000fd5b6019546114538161116c565b9060406114636040519384610ff3565b818352601f196114728361116c565b0160005b81811061154e5750508115611549576040518083825260208092016019600052817f944998273e477b495144fb8794c914197f3ccb46be2900f4698fd0ef743c96959160005b858882106115335750506114d292500382610ff3565b60005b8481106114e457505050505090565b6001906001600160a01b036114f9828561141d565b51166000526018845261048c61151786600020875192838092611014565b611521828961141d565b5261152c818861141d565b50016114d5565b84548352600194850194869450920191016114bc565b505090565b806060602080938801015201611476565b9035603e19823603018112156101ab570190565b35906001600160401b03821682036101ab57565b9035601e19823603018112156101ab5701602081359101916001600160401b0382116101ab5781360383136101ab57565b908060209392818452848401376000828201840152601f01601f1916010190565b906115e4828061155f565b906040815260808101926001600160401b03938461160185611573565b16604084015260209384810135601e19823603018112156101ab57019084823592019582116101ab578160051b360386136101ab578190604060608601525260a08301949060005b81811061169b57505050808361166092019061155f565b908281850391015280359060ff82168092036101ab578361168e604093928493610deb975285810190611587565b93909482015201916115b8565b90919586359060018060a01b0382168092036101ab579081528501958501919060010161164956fea2646970667358221220a2b3f65dd0bc2f349c8056a83be5d8346ce2569c424744f6987dd4954bda531b64736f6c63430008170033",
  "linkReferences": {
    "contracts/lib/SubnetIDHelper.sol": {
      "SubnetIDHelper": [
        {
          "length": 20,
          "start": 4869
        }
      ]
    }
  },
  "deployedLinkReferences": {
    "contracts/lib/SubnetIDHelper.sol": {
      "SubnetIDHelper": [
        {
          "length": 20,
          "start": 4841
        }
      ]
    }
  }
}