{"abi":[{"type":"constructor","inputs":[],"stateMutability":"nonpayable"},{"type":"function","name":"allowed","inputs":[{"name":"","type":"address","internalType":"address"}],"outputs":[{"name":"min","type":"uint256","internalType":"uint256"},{"name":"max","type":"uint256","internalType":"uint256"}],"stateMutability":"view"},{"type":"function","name":"approve","inputs":[{"name":"validator","type":"address","internalType":"address"},{"name":"minPower","type":"uint256","internalType":"uint256"},{"name":"maxPower","type":"uint256","internalType":"uint256"}],"outputs":[],"stateMutability":"nonpayable"},{"type":"function","name":"interceptPowerDelta","inputs":[{"name":"id","type":"tuple","internalType":"struct SubnetID","components":[{"name":"root","type":"uint64","internalType":"uint64"},{"name":"route","type":"address[]","internalType":"address[]"}]},{"name":"validator","type":"address","internalType":"address"},{"name":"","type":"uint256","internalType":"uint256"},{"name":"newPower","type":"uint256","internalType":"uint256"}],"outputs":[],"stateMutability":"view"},{"type":"function","name":"isAllow","inputs":[{"name":"validator","type":"address","internalType":"address"},{"name":"power","type":"uint256","internalType":"uint256"}],"outputs":[{"name":"","type":"bool","internalType":"bool"}],"stateMutability":"view"},{"type":"function","name":"owner","inputs":[],"outputs":[{"name":"","type":"address","internalType":"address"}],"stateMutability":"view"},{"type":"function","name":"renounceOwnership","inputs":[],"outputs":[],"stateMutability":"nonpayable"},{"type":"function","name":"revoke","inputs":[{"name":"validator","type":"address","internalType":"address"}],"outputs":[],"stateMutability":"nonpayable"},{"type":"function","name":"setSubnet","inputs":[{"name":"id","type":"tuple","internalType":"struct SubnetID","components":[{"name":"root","type":"uint64","internalType":"uint64"},{"name":"route","type":"address[]","internalType":"address[]"}]}],"outputs":[],"stateMutability":"nonpayable"},{"type":"function","name":"subnet","inputs":[],"outputs":[{"name":"root","type":"uint64","internalType":"uint64"}],"stateMutability":"view"},{"type":"function","name":"transferOwnership","inputs":[{"name":"newOwner","type":"address","internalType":"address"}],"outputs":[],"stateMutability":"nonpayable"},{"type":"event","name":"OwnershipTransferred","inputs":[{"name":"previousOwner","type":"address","indexed":true,"internalType":"address"},{"name":"newOwner","type":"address","indexed":true,"internalType":"address"}],"anonymous":false},{"type":"error","name":"InvalidSubnet","inputs":[]},{"type":"error","name":"NotAuthorized","inputs":[{"name":"","type":"address","internalType":"address"}]},{"type":"error","name":"OwnableInvalidOwner","inputs":[{"name":"owner","type":"address","internalType":"address"}]},{"type":"error","name":"OwnableUnauthorizedAccount","inputs":[{"name":"account","type":"address","internalType":"address"}]},{"type":"error","name":"ValidatorPowerChangeDenied","inputs":[]}],"bytecode":{"object":"0x608080604052346075573315605f5760008054336001600160a01b0319821681178355916001600160a01b03909116907f8be0079c531659141344cd1fd0a4f28419497f9722a3daafe3b4186f6b6457e09080a36108ae908161007b8239f35b631e4fbdf760e01b600052600060045260246000fd5b600080fdfe6080604052600436101561001257600080fd5b60003560e01c8063426a8493146106fe578063715018a6146106a557806374a8f103146106645780638da5cb5b1461063b578063ad305aa9146104cb578063c3b165a01461049a578063caf2ebf214610473578063d63a8e1114610430578063f2fde38b146103a75763ff46abe01461008a57600080fd5b3461036c57608036600319011261036c576004356001600160401b03811161036c576040600319823603011261036c57604051906100c782610774565b80600401356001600160401b038116810361036c5782526024810135906001600160401b03821161036c57013660238201121561036c576004810135906001600160401b038211610391578160051b9060405192610128602084018561078f565b8352602083019181016024019036821161036c57602401915b818310610371575050506020820152602435906001600160a01b038216820361036c576040519061017182610774565b6001600160401b03600154168252604051808160206002549283815201600260005260206000209260005b81811061034a5750506101b19250038261078f565b602083015261020960206101f773__$3fbe32418a9ca7804328967972fb037388$__93604051938492839263c836244d60e01b84526040600485015260448401906107f7565b828103600319016024840152876107f7565b0381855af49081156102f25760009161030f575b50156102fe5761024c9160209160405180809581946304e384ff60e21b835286600484015260248301906107f7565b03915af49081156102f2576000916102a9575b506001600160a01b031633036102945761027c90606435906107b0565b1561028357005b63511c7c3960e11b60005260046000fd5b634a0bfec160e01b6000523360045260246000fd5b6020813d6020116102ea575b816102c26020938361078f565b810103126102e65751906001600160a01b03821682036102e357503861025f565b80fd5b5080fd5b3d91506102b5565b6040513d6000823e3d90fd5b6303b5db8360e11b60005260046000fd5b6020813d602011610342575b816103286020938361078f565b810103126102e657519081151582036102e357503861021d565b3d915061031b565b84546001600160a01b031683526001948501948694506020909301920161019c565b600080fd5b82356001600160a01b038116810361036c57815260209283019201610141565b634e487b7160e01b600052604160045260246000fd5b3461036c57602036600319011261036c576103c061075e565b6103c861084f565b6001600160a01b0316801561041a57600080546001600160a01b03198116831782556001600160a01b0316907f8be0079c531659141344cd1fd0a4f28419497f9722a3daafe3b4186f6b6457e09080a3005b631e4fbdf760e01b600052600060045260246000fd5b3461036c57602036600319011261036c576001600160a01b0361045161075e565b1660005260036020526040806000206001815491015482519182526020820152f35b3461036c57600036600319011261036c5760206001600160401b0360015416604051908152f35b3461036c57604036600319011261036c5760206104c16104b861075e565b602435906107b0565b6040519015158152f35b3461036c57602036600319011261036c576004356001600160401b03811161036c5780360390604060031983011261036c5761050561084f565b80600401356001600160401b03811680910361036c576001600160401b031960015416176001556024810135916022190182121561036c57016004810135906001600160401b03821161036c57602401908060051b3603821361036c5760009168010000000000000000821161062757600254826002558083106105e3575b50600283527f405787fa12a823e0f2b7631cc41b3ba8828b3321ca811111fa75cd3aa3bb5ace919083905b8282106105ba578480f35b8035916001600160a01b03831683036105df57602060019201928186015501906105af565b8580fd5b600284527f405787fa12a823e0f2b7631cc41b3ba8828b3321ca811111fa75cd3aa3bb5ace9081019083015b81811061061c5750610584565b84815560010161060f565b634e487b7160e01b83526041600452602483fd5b3461036c57600036600319011261036c576000546040516001600160a01b039091168152602090f35b3461036c57602036600319011261036c5761067d61075e565b61068561084f565b6001600160a01b0316600090815260036020526040812081815560010155005b3461036c57600036600319011261036c576106be61084f565b600080546001600160a01b0319811682556001600160a01b03167f8be0079c531659141344cd1fd0a4f28419497f9722a3daafe3b4186f6b6457e08280a3005b3461036c57606036600319011261036c5761071761075e565b61071f61084f565b60016040519161072e83610774565b602435835260208301906044358252828060a01b0316600052600360205260406000209251835551910155600080f35b600435906001600160a01b038216820361036c57565b604081019081106001600160401b0382111761039157604052565b90601f801991011681019081106001600160401b0382111761039157604052565b60018060a01b0316600052600360205260208160406000206040516107d481610774565b600182549283835201549384910152111591826107f057505090565b1115919050565b602060608160408501936001600160401b03815116865201519360408382015284518094520192019060005b8181106108305750505090565b82516001600160a01b0316845260209384019390920191600101610823565b6000546001600160a01b0316330361086357565b63118cdaa760e01b6000523360045260246000fdfea26469706673582212209c4ca42113f2a5baebffd7ca239ff52b20c5f81c0326e1c01b094d11acb76a9464736f6c634300081a0033","linkReferences":{"contracts/lib/SubnetIDHelper.sol":{"SubnetIDHelper":[{"start":571,"length":20}]}}},"methodIdentifiers":{"allowed(address)":"d63a8e11","approve(address,uint256,uint256)":"426a8493","interceptPowerDelta((uint64,address[]),address,uint256,uint256)":"ff46abe0","isAllow(address,uint256)":"c3b165a0","owner()":"8da5cb5b","renounceOwnership()":"715018a6","revoke(address)":"74a8f103","setSubnet((uint64,address[]))":"ad305aa9","subnet()":"caf2ebf2","transferOwnership(address)":"f2fde38b"},"id":10}