{
  "_format": "hh-sol-artifact-1",
  "contractName": "SubnetActorCheckpointingFacet",
  "sourceName": "contracts/subnet/SubnetActorCheckpointingFacet.sol",
  "abi": [
    {
      "inputs": [
        {
          "internalType": "address",
          "name": "target",
          "type": "address"
        }
      ],
      "name": "AddressEmptyCode",
      "type": "error"
    },
    {
      "inputs": [
        {
          "internalType": "address",
          "name": "account",
          "type": "address"
        }
      ],
      "name": "AddressInsufficientBalance",
      "type": "error"
    },
    {
      "inputs": [],
      "name": "AddressShouldBeValidator",
      "type": "error"
    },
    {
      "inputs": [],
      "name": "BottomUpCheckpointAlreadySubmitted",
      "type": "error"
    },
    {
      "inputs": [],
      "name": "CannotConfirmFutureChanges",
      "type": "error"
    },
    {
      "inputs": [],
      "name": "CannotSubmitFutureCheckpoint",
      "type": "error"
    },
    {
      "inputs": [],
      "name": "EnforcedPause",
      "type": "error"
    },
    {
      "inputs": [],
      "name": "ExpectedPause",
      "type": "error"
    },
    {
      "inputs": [],
      "name": "FailedInnerCall",
      "type": "error"
    },
    {
      "inputs": [],
      "name": "InvalidCheckpointEpoch",
      "type": "error"
    },
    {
      "inputs": [
        {
          "internalType": "uint8",
          "name": "",
          "type": "uint8"
        }
      ],
      "name": "InvalidSignatureErr",
      "type": "error"
    },
    {
      "inputs": [],
      "name": "MaxMsgsPerBatchExceeded",
      "type": "error"
    },
    {
      "inputs": [
        {
          "internalType": "address",
          "name": "",
          "type": "address"
        }
      ],
      "name": "NotValidator",
      "type": "error"
    },
    {
      "inputs": [],
      "name": "PQDoesNotContainAddress",
      "type": "error"
    },
    {
      "inputs": [],
      "name": "PQEmpty",
      "type": "error"
    },
    {
      "inputs": [],
      "name": "ReentrancyError",
      "type": "error"
    },
    {
      "inputs": [
        {
          "internalType": "address",
          "name": "token",
          "type": "address"
        }
      ],
      "name": "SafeERC20FailedOperation",
      "type": "error"
    },
    {
      "anonymous": false,
      "inputs": [
        {
          "indexed": false,
          "internalType": "address",
          "name": "validator",
          "type": "address"
        },
        {
          "indexed": false,
          "internalType": "uint256",
          "name": "newPower",
          "type": "uint256"
        }
      ],
      "name": "ActiveValidatorCollateralUpdated",
      "type": "event"
    },
    {
      "anonymous": false,
      "inputs": [
        {
          "indexed": false,
          "internalType": "address",
          "name": "validator",
          "type": "address"
        }
      ],
      "name": "ActiveValidatorLeft",
      "type": "event"
    },
    {
      "anonymous": false,
      "inputs": [
        {
          "indexed": false,
          "internalType": "address",
          "name": "oldValidator",
          "type": "address"
        },
        {
          "indexed": false,
          "internalType": "address",
          "name": "newValidator",
          "type": "address"
        }
      ],
      "name": "ActiveValidatorReplaced",
      "type": "event"
    },
    {
      "anonymous": false,
      "inputs": [
        {
          "indexed": false,
          "internalType": "uint64",
          "name": "number",
          "type": "uint64"
        }
      ],
      "name": "ConfigurationNumberConfirmed",
      "type": "event"
    },
    {
      "anonymous": false,
      "inputs": [
        {
          "indexed": false,
          "internalType": "address",
          "name": "validator",
          "type": "address"
        },
        {
          "indexed": false,
          "internalType": "uint256",
          "name": "power",
          "type": "uint256"
        }
      ],
      "name": "NewActiveValidator",
      "type": "event"
    },
    {
      "anonymous": false,
      "inputs": [
        {
          "indexed": false,
          "internalType": "address",
          "name": "validator",
          "type": "address"
        },
        {
          "indexed": false,
          "internalType": "uint256",
          "name": "amount",
          "type": "uint256"
        },
        {
          "indexed": false,
          "internalType": "uint256",
          "name": "releaseBlock",
          "type": "uint256"
        }
      ],
      "name": "NewCollateralRelease",
      "type": "event"
    },
    {
      "anonymous": false,
      "inputs": [
        {
          "indexed": false,
          "internalType": "address",
          "name": "validator",
          "type": "address"
        },
        {
          "indexed": false,
          "internalType": "uint256",
          "name": "power",
          "type": "uint256"
        }
      ],
      "name": "NewWaitingValidator",
      "type": "event"
    },
    {
      "anonymous": false,
      "inputs": [
        {
          "indexed": false,
          "internalType": "address",
          "name": "account",
          "type": "address"
        }
      ],
      "name": "Paused",
      "type": "event"
    },
    {
      "anonymous": false,
      "inputs": [
        {
          "indexed": false,
          "internalType": "address",
          "name": "account",
          "type": "address"
        }
      ],
      "name": "Unpaused",
      "type": "event"
    },
    {
      "anonymous": false,
      "inputs": [
        {
          "indexed": false,
          "internalType": "address",
          "name": "validator",
          "type": "address"
        },
        {
          "indexed": false,
          "internalType": "uint256",
          "name": "newPower",
          "type": "uint256"
        }
      ],
      "name": "WaitingValidatorCollateralUpdated",
      "type": "event"
    },
    {
      "anonymous": false,
      "inputs": [
        {
          "indexed": false,
          "internalType": "address",
          "name": "validator",
          "type": "address"
        }
      ],
      "name": "WaitingValidatorLeft",
      "type": "event"
    },
    {
      "inputs": [
        {
          "components": [
            {
              "components": [
                {
                  "internalType": "uint64",
                  "name": "root",
                  "type": "uint64"
                },
                {
                  "internalType": "address[]",
                  "name": "route",
                  "type": "address[]"
                }
              ],
              "internalType": "struct SubnetID",
              "name": "subnetID",
              "type": "tuple"
            },
            {
              "internalType": "uint256",
              "name": "blockHeight",
              "type": "uint256"
            },
            {
              "internalType": "bytes32",
              "name": "blockHash",
              "type": "bytes32"
            },
            {
              "internalType": "uint64",
              "name": "nextConfigurationNumber",
              "type": "uint64"
            },
            {
              "components": [
                {
                  "internalType": "enum IpcMsgKind",
                  "name": "kind",
                  "type": "uint8"
                },
                {
                  "components": [
                    {
                      "components": [
                        {
                          "internalType": "uint64",
                          "name": "root",
                          "type": "uint64"
                        },
                        {
                          "internalType": "address[]",
                          "name": "route",
                          "type": "address[]"
                        }
                      ],
                      "internalType": "struct SubnetID",
                      "name": "subnetId",
                      "type": "tuple"
                    },
                    {
                      "components": [
                        {
                          "internalType": "uint8",
                          "name": "addrType",
                          "type": "uint8"
                        },
                        {
                          "internalType": "bytes",
                          "name": "payload",
                          "type": "bytes"
                        }
                      ],
                      "internalType": "struct FvmAddress",
                      "name": "rawAddress",
                      "type": "tuple"
                    }
                  ],
                  "internalType": "struct IPCAddress",
                  "name": "to",
                  "type": "tuple"
                },
                {
                  "components": [
                    {
                      "components": [
                        {
                          "internalType": "uint64",
                          "name": "root",
                          "type": "uint64"
                        },
                        {
                          "internalType": "address[]",
                          "name": "route",
                          "type": "address[]"
                        }
                      ],
                      "internalType": "struct SubnetID",
                      "name": "subnetId",
                      "type": "tuple"
                    },
                    {
                      "components": [
                        {
                          "internalType": "uint8",
                          "name": "addrType",
                          "type": "uint8"
                        },
                        {
                          "internalType": "bytes",
                          "name": "payload",
                          "type": "bytes"
                        }
                      ],
                      "internalType": "struct FvmAddress",
                      "name": "rawAddress",
                      "type": "tuple"
                    }
                  ],
                  "internalType": "struct IPCAddress",
                  "name": "from",
                  "type": "tuple"
                },
                {
                  "internalType": "uint64",
                  "name": "nonce",
                  "type": "uint64"
                },
                {
                  "internalType": "uint256",
                  "name": "value",
                  "type": "uint256"
                },
                {
                  "internalType": "bytes",
                  "name": "message",
                  "type": "bytes"
                }
              ],
              "internalType": "struct IpcEnvelope[]",
              "name": "msgs",
              "type": "tuple[]"
            }
          ],
          "internalType": "struct BottomUpCheckpoint",
          "name": "checkpoint",
          "type": "tuple"
        },
        {
          "internalType": "address[]",
          "name": "signatories",
          "type": "address[]"
        },
        {
          "internalType": "bytes[]",
          "name": "signatures",
          "type": "bytes[]"
        }
      ],
      "name": "submitCheckpoint",
      "outputs": [],
      "stateMutability": "nonpayable",
      "type": "function"
    },
    {
      "inputs": [
        {
          "internalType": "address[]",
          "name": "signatories",
          "type": "address[]"
        },
        {
          "internalType": "bytes32",
          "name": "hash",
          "type": "bytes32"
        },
        {
          "internalType": "bytes[]",
          "name": "signatures",
          "type": "bytes[]"
        }
      ],
      "name": "validateActiveQuorumSignatures",
      "outputs": [],
      "stateMutability": "view",
      "type": "function"
    }
  ],
  "bytecode": "0x6080806040523461001657613915908161001c8239f35b600080fdfe608080604052600436101561001357600080fd5b600090813560e01c90816379979f57146100b9575063cc2dc2b91461003757600080fd5b346100b65760603660031901126100b6576001600160401b036004358181116100b257366023820112156100b2576100799036906024816004013591016109dd565b6044359182116100b257366023830112156100b2576100a56100af923690602481600401359101610a4e565b9060243590611031565b80f35b8280fd5b80fd5b82346100b657600319606036820112610344576001600160401b03600435116103445760a090600435360301126100b6576024356001600160401b03811161034457610109903690600401610918565b6044356001600160401b03811161091457610128903690600401610918565b92909460ff7fc451c9429c27db68f286ab8a68f311f1dccab703ba9423aed29cd397ae63f863541661090557506101b193946101a36101ab9261016f6004356004016111b1565b60405160208101906101988161018a60043560040185610ca0565b03601f198101835282610991565b5190209436916109dd565b933691610a4e565b91611031565b6004803560248101358352601b6020526040832091610200916101d5910180610e1e565b6001600160401b036101e682610e33565b166001600160401b03198454161783556020810190610e47565b906001600160401b0382116108cc5761021c8260018501610ebc565b90600183018452602084209184905b8282106108e05785856024600435013560028201556044600435013560038201556001600160401b03610262606460043501610e33565b166001600160401b031960048301541617600482015561028c608460043501600435600401610e47565b91600160401b83116108cc576005810154836005830155808410610840575b506005018352602083208391805b848410610348576004356024013560015560055486906001600160a01b0316803b156103445781604051809263fba0fa4d60e01b825281838161030460043560040160048301610ca0565b03925af180156103395761032a575b506100af610325606460043501610e33565b61141e565b6103339061094d565b81610313565b6040513d84823e3d90fd5b5080fd5b803560be198336030181121561083c57600381840135101561083c5761037081840135610bc5565b60ff1984541660ff8285013516178455600184016103cf610398602084870101848701610e1e565b916103a38380610e1e565b906001600160401b036103b583610e33565b166001600160401b03198254161790556020810190610e47565b906001600160401b03821161078a576103eb8260028901610ebc565b90600287018a5260208a20918a905b8282106108175750505050806020610413920190610e1e565b80359060ff8216820361075d5760ff610440921660ff196003880154161760038701556020810190610fba565b906001600160401b03821161074957610469826104606004890154610ef2565b60048901610fec565b8890601f83116001146107a95761049892918a918361079e575b50508160011b916000199060031b1c19161790565b60048501555b600584016104b56103988584016040810190610e1e565b906001600160401b03821161078a576104d18260068901610ebc565b90600687018a5260208a20918a905b82821061076157505050508060206104f9920190610e1e565b80359060ff8216820361075d5760ff610526921660ff196007880154161760078701556020810190610fba565b906001600160401b0382116107495761054f826105466008890154610ef2565b60088901610fec565b8890601f83116001146106d8579180610582926105ca95948c926106cd5750508160011b916000199060031b1c19161790565b60088601555b600985016001600160401b036105a2606084880101610e33565b825467ffffffffffffffff1916911617905583016080810135600a86015560a0810190610fba565b906001600160401b0382116106b9576105f3826105ea600b880154610ef2565b600b8801610fec565b8790601f8311600114610646579261062983600c946020946001978d9261063b5750508160011b916000199060031b1c19161790565b600b8701555b019301930192916102b9565b013590508c80610483565b600b860189526020892091895b601f19851681106106a1575083602093600196938793600c97601f19811610610687575b505050811b01600b87015561062f565b0135600019600384901b60f8161c191690558b8080610677565b90926020600181928686013581550194019101610653565b634e487b7160e01b88526041600452602488fd5b013590508b80610483565b600887018a5260208a20918a5b601f198516811061073157509183916001936105ca9695601f19811610610717575b505050811b016008860155610588565b0135600019600384901b60f8161c191690558a8080610707565b909260206001819286860135815501940191016106e5565b634e487b7160e01b89526041600452602489fd5b8880fd5b8035916001600160a01b038316830361078657602060019201928186015501906104e0565b8c80fd5b634e487b7160e01b8a52604160045260248afd5b013590508a80610483565b600487939293018a5260208a20908a935b601f19841685106107ff576001945083601f198116106107e5575b505050811b01600485015561049e565b0135600019600384901b60f8161c191690558980806107d5565b818101358355602094850194600190930192016107ba565b8035916001600160a01b038316830361078657602060019201928186015501906103fa565b8680fd5b600c8181020481036108b857600c8481020484036108b8576005820185526020852084600c0281015b82600c028201811061087c5750506102ab565b8087600c925561088e60018201610f75565b61089a60058201610f75565b87600982015587600a8201556108b2600b8201610f2c565b01610869565b634e487b7160e01b85526011600452602485fd5b634e487b7160e01b84526041600452602484fd5b8035916001600160a01b038316830361083c576020600192019281860155019061022b565b63d93c066560e01b8152600490fd5b8380fd5b9181601f84011215610948578235916001600160401b038311610948576020808501948460051b01011161094857565b600080fd5b6001600160401b03811161096057604052565b634e487b7160e01b600052604160045260246000fd5b604081019081106001600160401b0382111761096057604052565b90601f801991011681019081106001600160401b0382111761096057604052565b6001600160401b0381116109605760051b60200190565b35906001600160a01b038216820361094857565b92916109e8826109b2565b916109f66040519384610991565b829481845260208094019160051b810192831161094857905b828210610a1c5750505050565b838091610a28846109c9565b815201910190610a0f565b6001600160401b03811161096057601f01601f191660200190565b92919092610a5b846109b2565b91604094610a6c6040519485610991565b839581855260208095019160051b8401938385116109485780925b858410610a975750505050505050565b83356001600160401b03811161094857820185601f8201121561094857803591610ac083610a33565b610acc86519182610991565b838152878a85850101116109485760008a858196828097018386013783010152815201930192610a87565b9035603e1982360301811215610948570190565b35906001600160401b038216820361094857565b9035601e19823603018112156109485701602081359101916001600160401b038211610948578160051b3603831361094857565b60408201916001600160401b03610b6983610b0b565b1681526060610b7e6020936020810190610b1f565b83919560406020839601525201929160005b828110610b9e575050505090565b909192938280600192838060a01b03610bb6896109c9565b16815201950193929101610b90565b60031115610bcf57565b634e487b7160e01b600052602160045260246000fd5b9035601e19823603018112156109485701602081359101916001600160401b03821161094857813603831361094857565b908060209392818452848401376000828201840152601f01601f1916010190565b610c60610c55610c478380610af7565b604085526040850190610b53565b916020810190610af7565b91602081830391015281359160ff831680930361094857610c8d604091610c9d9484526020810190610be5565b9190928160208201520191610c16565b90565b60209182825260c090610cb38180610af7565b93610cca60a09560a08387015260c0860190610b53565b60409282810135604087015260609460408201356060880152610cef60608301610b0b565b94610d106080936001600160401b0380981660808b01526080810190610b1f565b969099601f199960a08b8289030191015287865286860193878960051b8801019b809b6000985b8b8a10610d4f57505050505050505050505050505090565b909192939495969798999a9b9c9d8e83838303018a523560be1985360301811215610948578401908135906003821015610948578f8e9383610d918695610bc5565b8352610d9f81850182610af7565b8985850152898401610db091610c37565b610dbc828e0183610af7565b848203858f0152610dcd9190610c37565b918b610dda838301610b0b565b16908401528d8082013590840152898101610df491610be5565b90928a818403910152610e0692610c16565b9f019d9c9b9a60010199980196959493929190610d37565b903590603e1981360301821215610948570190565b356001600160401b03811681036109485790565b903590601e198136030182121561094857018035906001600160401b03821161094857602001918160051b3603831361094857565b81810292918115918404141715610e8f57565b634e487b7160e01b600052601160045260246000fd5b818110610eb0575050565b60008155600101610ea5565b90600160401b811161096057815490808355818110610eda57505050565b610ef09260005260206000209182019101610ea5565b565b90600182811c92168015610f22575b6020831014610f0c57565b634e487b7160e01b600052602260045260246000fd5b91607f1691610f01565b610f368154610ef2565b9081610f40575050565b81601f60009311600114610f52575055565b908083918252610f71601f60208420940160051c840160018501610ea5565b5555565b6003610ef091600081556001810180546000825580610f9e575b50506000600282015501610f2c565b610fb391600052602060002090810190610ea5565b3880610f8f565b903590601e198136030182121561094857018035906001600160401b0382116109485760200191813603831361094857565b9190601f8111610ffb57505050565b610ef0926000526020600020906020601f840160051c83019310611027575b601f0160051c0190610ea5565b909150819061101a565b929190835193611040856109b2565b604061104f6040519283610991565b86825261105b876109b2565b60209790601f190136848a013760005b81811061113457505060009661ffff80600e541660019283916001945b6110e1575b50505050505060646110ac6110b3969760ff60055460e01c1690610e7c565b0491611cf0565b90156110bc5750565b6006811015610bcf5760405163282ef1c160e01b815260ff9091166004820152602490fd5b90919293949a84861682811161112d576000908152601084528c90205484939291869185916111229161111c906001600160a01b0316611e36565b90611ce3565b9d9701169493611088565b509a61108d565b9197916001600160a01b038061114a8388611cb9565b5116600052600f845261ffff8a60002054161561118d57906111796001926111728389611cb9565b5116611e36565b6111838287611cb9565b520197919761106b565b899061119b60249388611cb9565b519151633b4f6e2b60e21b815291166004820152fd5b6001600160401b03908160055460a01c16916080820190836111d38385610e47565b90501161127c57600154600354906020850135928184111561126a57821561125457829116049060018201809211610e8f5761120e91610e7c565b90818111611242571461123d5761122491610e47565b905014610ef05760405163fae4eadb60e01b8152600490fd5b505050565b60405163dd88982f60e01b8152600490fd5b634e487b7160e01b600052601260045260246000fd5b60405163d6bb62dd60e01b8152600490fd5b60405163351c700760e01b8152600490fd5b60041115610bcf57565b906040519182600082546112ab81610ef2565b9081845260209460019160018116908160001461131957506001146112da575b505050610ef092500383610991565b600090815285812095935091905b818310611301575050610ef093508201013880806112cb565b855488840185015294850194879450918301916112e8565b92505050610ef094925060ff191682840152151560051b8201013880806112cb565b9080821461141a5761134d8154610ef2565b906001600160401b038211610960576113708261136a8554610ef2565b85610fec565b600090601f83116001146113af576113a09291600091836113a45750508160011b916000199060031b1c19161790565b9055565b015490503880610483565b815260208082208483528183209291601f1985169083905b8282106114015750509084600195949392106113e8575b505050811b019055565b015460001960f88460031b161c191690553880806113de565b84958192958501548155600180910196019401906113c7565b5050565b6014546001600160401b03808216908316106114465760405163040aaa0560e11b8152600490fd5b6001600160401b038160401c166001600160401b0383161061141a5760401c6001600160401b03165b6001600160401b0382166001600160401b0382161115611503575060016001600160401b038216016001600160401b038111610e8f577f246f00b61ce672242f33bb680a47147cd54d3dfd04dbb76956ba42f88087bf639160209167ffffffffffffffff60401b6014549160401b169067ffffffffffffffff60401b1916176014556001600160401b0360405191168152a1565b611520816001600160401b03166000526015602052604060002090565b600281015481549192916001600160a01b039182169160ff918216906115458261128e565b600282036115c05750505061158490600361157e60016001600160401b0396019260018060a01b0316600052600d602052604060002090565b0161133b565b6115a1816001600160401b03166000526015602052604060002090565b90600080835560026001936115b7858201610f2c565b0155011661146f565b6115cd829693959661128e565b600394828603611792575050506115e76001809201611298565b9283519060209185019460408184880197031261094857828101516001600160401b03811161094857810186603f8201121561094857838101519061162b82610a33565b97611639604051998a610991565b828952604083830101116109485790849160005b82811061177d5750506040929160009189010152015194816116818660018060a01b0316600052600d602052604060002090565b01938151936001600160401b038511610960576116a8856116a28854610ef2565b88610fec565b8093601f861160011461170157505050826116f195936001600160401b03989795936116ea936000926116f65750508160011b916000199060031b1c19161790565b9055611df2565b611584565b015190503880610483565b9194939092601f1985168760005284600020946000905b828210611766575050918593916001600160401b039b9a98966116f19a9896941061174c575b50505050811b019055611df2565b01519060f884600019921b161c191690553880808061173e565b808986988294978701518155019701940190611718565b818101604001518a820185015286930161164d565b9260016117a59197969295939701611298565b6020818051810103126109485760200151938060055416966117c68161128e565b600181036119c05750508192506117ff8460016117f86118689560018060a01b0316600052600d602052604060002090565b0154611de5565b90600261181e8560018060a01b0316600052600d602052604060002090565b0154821590816119b7575b5015611993576001600160a01b0384166000908152600d6020526040902061186291906000808255806001830155600282015501610f2c565b82612310565b600c611875838254611de5565b905561188360165443611ce3565b906040519061189182610976565b82825283602083015280600052601760205260406000209283549361ffff85169361ffff85818860101c160111610e8f576119198561ffff9283606098817f083b080788e20bd0930c2bca2ae4fbc51a59ced08c1b5992271f8cb439498a639b60101c1601166000526001850160205260016020604060002092805184550151910155612848565b1661ffff198254161790556040519182528460208301526040820152a1823b15610948576000926024849260405195869384926345f5448560e01b845260048401525af1918215611987576001600160401b0392611978575b50611584565b6119819061094d565b38611972565b6040513d6000823e3d90fd5b506001600160a01b0383166000908152600d60205260409020819060010155611862565b90501538611829565b909291506119cd8161128e565b611c7457806119fe8560016119f7611a349560018060a01b0316600052600d602052604060002090565b0154611ce3565b90816001611a1e8360018060a01b0316600052600d602052604060002090565b0155600c611a2d878254611ce3565b9055611ec1565b604051611a4081610976565b6008918254938416936002851015611c5f576020938584521c1691829101526000918015600014611ab05750505080925b803b15610948576024600092604051958693849263eb4f16b560e01b845260048401525af1918215611987576001600160401b03926119785750611584565b919491600114611ac1575b50611a71565b604051636eb1769f60e11b8152306004808301919091526001600160a01b03841660248301529295929190602081604481855afa8015611c545785908590611c1e575b611b0e9250611ce3565b60405163095ea7b360e01b602082018181526001600160a01b038a1660248085019190915260448085019590955293835291949092909186908190611b54606489610991565b87519082885af1611b6361369a565b81611bef575b5080611be5575b15611b82575b50505050509238611abb565b604051926020840152888184015260448681850152835260808301918383106001600160401b03841117611bd4575050611bca939291611bc591604052826136e2565b6136e2565b3880808080611b76565b634e487b7160e01b87526041905285fd5b50833b1515611b70565b8051801592508215611c04575b505038611b69565b611c1792506020809183010191016136ca565b3880611bfc565b50506020813d602011611c4c575b81611c3960209383610991565b810103126109145784611b0e9151611b04565b3d9150611c2c565b6040513d86823e3d90fd5b60246000634e487b7160e01b81526021600452fd5b60405162461bcd60e51b815260206004820152601960248201527f556e6b6e6f776e207374616b696e67206f7065726174696f6e000000000000006044820152606490fd5b8051821015611ccd5760209160051b010190565b634e487b7160e01b600052603260045260246000fd5b91908201809211610e8f57565b84519294600094908415611dd85782518514801590611dcd575b611dc0579392919085945b848610611d38575050505050501015611d3057600090600590565b600190600090565b909192939495611d52611d4b8884611cb9565b5184611e85565b50611d5c8161128e565b611daf576001600160a01b0380611d738a88611cb9565b5116911603611d9f57611d93600191611d8c8988611cb9565b5190611ce3565b96019493929190611d15565b5050505050505050600090600390565b505050505050505050600090600490565b5050505050905090600190565b508351851415611d0a565b5050505050905090600290565b91908203918211610e8f57565b9060018060a01b038216600052600d60205260406000208181549155818114600014611e1d57505050565b811115611e2d57610ef0916121ae565b610ef09161264b565b600160ff600b5416611e4781610bc5565b03611e67576001600160a01b03166000908152600d602052604090205490565b6001600160a01b03166000908152600d602052604090206001015490565b8151919060418303611eb657611eaf92506020820151906060604084015193015160001a9061285b565b9192909190565b505060009160029190565b919060018060a01b0392838116600094818652602091600f835261ffff916040978389822054166120bd5783600b5460081c1684600e54161061209b57611f066133c6565b6001926001825260108652828a8320541688611f2182611e36565b106120275750815260128552838982205416611f90575050505050611f8b7f19fe3ca603e87854a0747cc10abf06bac64d61bac73d6d15f2fd3ca448f152649394611f6b83612dc7565b516001600160a01b03909216825260208201929092529081906040820190565b0390a1565b611f99866132a2565b92611fa387611e36565b935b8186821611611fe9575b505097516001600160a01b0390951685525050505060208101919091529091506000805160206138a0833981519152908060408101611f8b565b808561200886617fff8f95871c169485885260138c5287205416611e36565b1015612021579061201a839282613498565b9050611fa5565b50611faf565b9697508994935060008051602061388083398151915298999250611f8b95601291612050612973565b83525220541661208d575b612064846128eb565b61206d83612dc7565b516001600160a01b03928316815292909116602083015281906040820190565b61209684612c18565b61205b565b5050505050611f8b6000805160206138c08339815191529394611f6b836128eb565b979291506120ce859497969561326b565b976120d885611e36565b976120e28a6132c7565b84600e5416905b858116828111612189578281101561216d57508061210961210f92612848565b90613754565b9b909b5b8b111561213257612124908c6133ff565b61212d8b6132c7565b6120e9565b505093516001600160a01b03909516855250505050602081019190915290925060008051602061386083398151915291508060408101611f8b565b849c919c5260108352612184858886205416611e36565b612113565b50505050505050611f8b91929395506000805160206138608339815191529450611f6b565b6001600160a01b038082166000818152600f6020526040808220549095949361ffff939184166122de5783600b5460081c1684600e5416106122be576121f26133c6565b60018352601060205286832054168561220a82611e36565b1061227c575081526012602052849020541661224e57611f8b7f19fe3ca603e87854a0747cc10abf06bac64d61bac73d6d15f2fd3ca448f1526493611f6b83612dc7565b611f8b6000805160206138a083398151915293611f6b61226d846132a2565b61227685611e36565b906135ab565b93945091856000805160206138808339815191529692611f8b9461229e612adc565b815260126020522054166122b557612064846128eb565b61209684612ca3565b50505050611f8b6000805160206138c083398151915293611f6b836128eb565b50505050611f8b60008051602061386083398151915293611f6b6123018461326b565b61230a85611e36565b906132de565b909160018060a01b03928383169060009382855260206012815261ffff9560409487868320541661251557808252600f83528786832054161561250457841561246d575061235d8361326b565b9761236784611e36565b985b6001808a8316111561245e5781617fff911c1690818452601085528a612393848a87205416611e36565b11156123a8576123a390826133ff565b612369565b505091939597509193955b6011541615612456576123c46133c6565b6001825260108352858181842054169260136123df85611e36565b956123e86133d4565b6001835252205416916123fa83611e36565b1161242f57505091516001600160a01b0390921682526020820152600080516020613860833981519152908060408101611f8b565b91509150611f8b6000805160206138808339815191529361244e612973565b61205b612fec565b505050505050565b505091939597509193956123b3565b8294506124a17f4a4c5d1a281180eea1e99d8177fa4798b9f7e019d5c57e7d8d73c6a22199aa5b9392989499969799612e3b565b8651908152a1601154166124b6575b50505050565b6000805160206138c083398151915293601384926124d26133d4565b60018352522054166124f86124e682611e36565b926124ef612fec565b611f6b836128eb565b0390a1388080806124b0565b8551632a55ca5360e01b8152600490fd5b849697929498939598156126105750919261252f856132a2565b9361253986611e36565b93859261fffe968795600196879260011b168160115416925b612595575b50509a516001600160a01b039098168852505050506020840194909452509293506000805160206138a0833981519152925090508060408101611f8b565b81811683811161260a578e90808511156125ee575050806125b86125be92612848565b906137ab565b9690965b8910156125e957906125d988969594939288613498565b8987871b16909192939495612552565b612557565b865260138552852054909690612605908716611e36565b6125c2565b50612557565b949150507f3168ba660eed6ef1dc2258b2247cc05fd0f2f350d39e6ad2e2ebc76a8000b40b95969294506126449150612c18565b51908152a1565b6001600160a01b0380821660008181526012602090815260408083205490969594919361ffff9182166127de57808452600f8552818885205416156127cd57861561274f57506126ac61269d8661326b565b6126a687611e36565b90613371565b6011541615612456576126bd6133c6565b6001825260108352858181842054169260136126d885611e36565b956126e16133d4565b6001835252205416916126f383611e36565b1161272857505091516001600160a01b0390921682526020820152600080516020613860833981519152908060408101611f8b565b91509150611f8b60008051602061388083398151915293612747612adc565b61205b613133565b8491939796506127807f4a4c5d1a281180eea1e99d8177fa4798b9f7e019d5c57e7d8d73c6a22199aa5b9396612ec6565b8651908152a1601154166127945750505050565b6000805160206138c083398151915293601384926127b06133d4565b60018352522054166124f86127c482611e36565b926124ef613133565b8751632a55ca5360e01b8152600490fd5b969392505050831561281b57506000805160206138a08339815191529350611f8b90611f6b61280c846132a2565b61281585611e36565b906135fa565b92506126447f3168ba660eed6ef1dc2258b2247cc05fd0f2f350d39e6ad2e2ebc76a8000b40b9492612ca3565b90600161ffff80931601918211610e8f57565b91907f7fffffffffffffffffffffffffffffff5d576e7357a4501ddfe92f46681b20a084116128df57926020929160ff608095604051948552168484015260408301526060820152600092839182805260015afa156128d35780516001600160a01b038116156128ca57918190565b50809160019190565b604051903d90823e3d90fd5b50505060009160039190565b610ef0906126a661ffff9161290383600e5416612848565b9260018060a01b0382169081600052600f60205260406000209085169161ffff199183838254161790558260005260106020526040600020906bffffffffffffffffffffffff60a01b825416179055600e541617600e55611e36565b61ffff9081166000190191908211610e8f57565b61ffff80600e5416908115612aca5790600190612992818311156133e2565b6000828152601060208181526040808420805486865282862080546001600160a01b03928316808952600f8752858920805461ffff199081168c17909155918416808a52868a20805484168d17905588885283546001600160a01b03199081169092179093558a895284541690911790925592958795939492939291612a2c91908a612a1d8361295f565b1690600e541617600e55613527565b8482526010602052612a42848484205416611e36565b958598600281600e5416995b612a60575b5050505050505050505050565b8181168a8111612ac4578a811015612aa9575080612109612a8092612848565b9a909a5b891115612aa457612a95908b6133ff565b612a9e8a6132c7565b87612a4e565b612a53565b859b919b52838352612abf878787205416611e36565b612a84565b50612a53565b6040516340d9b01160e01b8152600490fd5b61ffff80600e5416908115612aca5790600190612afb818311156133e2565b6000828152601060208181526040808420805486865282862080546001600160a01b03928316808952600f8752858920805461ffff199081168c17909155918416808a52868a20805484168d17905588885283546001600160a01b03199081169092179093558a895284541690911790925592958795939492939291612b8691908a612a1d8361295f565b8482526010602052612b9c848484205416611e36565b958598600281600e5416995b612bb9575050505050505050505050565b8181168a8111612ac4578a811015612bfd575080612109612bd992612848565b9a909a5b891115612aa457612bee908b6133ff565b612bf78a6132c7565b87612ba8565b859b919b52838352612c13878787205416611e36565b612bdd565b612c21906132a2565b61ffff90816011541691612c358383613498565b80612c3f8461295f565b1661ffff196011541617601155612c5583613569565b811680921461141a5761281582610ef093600052601360205260018060a01b0390612c8f612c898360406000205416611e36565b856135ab565b600052601360205260406000205416611e36565b612cac906132a2565b61ffff806011541691612cbf8382613498565b81612cc98461295f565b1661ffff196011541617601155612cdf83613569565b81811680931461123d576000918383526013602094601360205260018060a01b0390604090612d1c612d168460408a205416611e36565b876135ab565b86526013602052612d3282604088205416611e36565b95859361fffe988997600198899160011b168860115416915b612d5e575b505050505050505050505050565b888116828111612dc15782811015612da65750806125b8612d7e92612848565b9890985b8b1015612da157612d948a988a613498565b979687811b8c1690612d4b565b612d50565b8599919952838352612dbc878787205416611e36565b612d82565b50612d50565b610ef09061227661ffff91612ddf8360115416612848565b9260018060a01b0382169081600052601260205260406000209085169161ffff199183838254161790558260005260136020526040600020906bffffffffffffffffffffffff60a01b8254161790556011541617601155611e36565b612e449061326b565b61ffff9081600e541691612e5883836133ff565b80612e628461295f565b1661ffff19600e541617600e55612e7883613527565b811680921461141a5761230a82610ef093600052601060205260018060a01b0390612eb2612eac8360406000205416611e36565b85613371565b600052601060205260406000205416611e36565b612ecf9061326b565b9061ffff9081600e541690612ee482856133ff565b82612eee8361295f565b1661ffff19600e541617600e55612f0482613527565b828416809214612fe657600092919291838352601092602094601060205260018060a01b0391604091612f45612f3f85604085205416611e36565b8a613371565b81526010602052612f5b83604083205416611e36565b95612f65896132c7565b9785600e5416985b8681168a8111612fd8578a811015612fbd575080612109612f8d92612848565b9a909a5b891115612fb057612fa2908b6133ff565b612fab8a6132c7565b612f6d565b5050505050505092505050565b849b919b52828252612fd3868686205416611e36565b612f91565b505050505050505092505050565b92505050565b61ffff8060115416908115612aca5790600161300a828211156133e2565b6000818152601360208181526040808420805487865282862080546001600160a01b0392831680895260128752858920805461ffff199081168d17909155918416808a52868a20805484168c17905588885283546001600160a01b031990811690921790935589895284541690911790925593969294919261309f91896130908361295f565b16906011541617601155613569565b84815260136020526130b5838383205416611e36565b9585948660028a60115416915b6130d3575050505050505050505050565b8a8116828111612ac457828110156131185750806125b86130f392612848565b9a909a5b8a1015612aa45761310989988c613498565b999687811b61fffe16906130c2565b859b919b5283835261312e878787205416611e36565b6130f7565b61ffff8060115416908115612aca57906001613151828211156133e2565b6000818152601360208181526040808420805487865282862080546001600160a01b0392831680895260128752858920805461ffff199081168d17909155918416808a52868a20805484168c17905588885283546001600160a01b03199081169092179093558989528454169091179092559396929491926131d791896130908361295f565b84815260136020526131ed838383205416611e36565b9585948660028a60115416915b61320b575050505050505050505050565b8a8116828111612ac457828110156132505750806125b861322b92612848565b9a909a5b8a1015612aa45761324189988c613498565b999687811b61fffe16906131fa565b859b919b52838352613266878787205416611e36565b61322f565b6001600160a01b03166000908152600f602052604090205461ffff1690811561329057565b60405163f2755e3760e01b8152600490fd5b6001600160a01b031660009081526012602052604090205461ffff1690811561329057565b60011b906201fffe61fffe831692168203610e8f57565b916132e8836132c7565b600061ffff9182600e5416905b838116828111613367578281101561334157508061210961331592612848565b9690965b8611156133385761332a90876133ff565b613333866132c7565b6132f5565b50505050915050565b835260106020526040832054909690613362906001600160a01b0316611e36565b613319565b5050505050915050565b9190915b60018061ffff831611156133c05781617fff911c1690836133ab60008481526010602052604060018060a01b0391205416611e36565b11156133c0576133bb90826133ff565b613375565b50509050565b61ffff600e541615612aca57565b61ffff6011541615612aca57565b156133e957565b634e487b7160e01b600052600160045260246000fd5b61342461ffff8080600e541693169361341a848611156133e2565b16918211156133e2565b6000828152601060208181526040808420805486865282862080546001600160a01b03928316808952600f8752858920805461ffff19908116909b1790559216808852938720805490981689179097559390925284546001600160a01b031990811690931790945593909152825416179055565b6134b361ffff80806011541693169361341a848611156133e2565b6000828152601360208181526040808420805486865282862080546001600160a01b0392831680895260128752858920805461ffff19908116909b1790559216808852938720805490981689179097559390925284546001600160a01b031990811690931790945593909152825416179055565b61ffff16600090815260106020908152604080832080546001600160a01b031981169091556001600160a01b03168352600f9091529020805461ffff19169055565b61ffff16600090815260136020908152604080832080546001600160a01b031981169091556001600160a01b0316835260129091529020805461ffff19169055565b9190915b60018061ffff831611156133c05781617fff911c1690836135e560008481526013602052604060018060a01b0391205416611e36565b10156133c0576135f59082613498565b6135af565b9061fffe91600190838160011b169060008361ffff938460115416915b613626575b5050505050505050565b848116828111613694578281101561366e5750806125b861364692612848565b9490945b8710156136695761365c869486613498565b939283811b881690613617565b61361c565b83526013602052604083205490949061368f906001600160a01b0316611e36565b61364a565b5061361c565b3d156136c5573d906136ab82610a33565b916136b96040519384610991565b82523d6000602084013e565b606090565b90816020910312610948575180151581036109485790565b60008061370b9260018060a01b03169360208151910182865af161370461369a565b90836137fc565b8051908115159182613739575b50506137215750565b60249060405190635274afe760e01b82526004820152fd5b61374c92506020809183010191016136ca565b153880613718565b919061ffff808416600052601060205261379560018060a01b0361377e8160406000205416611e36565b928416600052601060205260406000205416611e36565b93848211156137a45750509190565b9350919050565b91909161ffff9283821660005260136020526137ee60018060a01b036137d78160406000205416611e36565b958316600052601360205260406000205416611e36565b908185106137a45750509190565b90613823575080511561381157805190602001fd5b604051630a12f52160e11b8152600490fd5b81511580613856575b613834575090565b604051639996b31560e01b81526001600160a01b039091166004820152602490fd5b50803b1561382c56fe143db27bc2036653dc6f962ff9d0b803163d4af50c256ca9e6927b3d6dcd0197faeb8de771b867cf357f6b459a7002b62ec45d544a8078a3ecd91200cc826d75da148fac2e1063174be7bc0895576bdaba90fd14e575463fa26a967cb895cadd2e8038f5812f763c6ef0c5427cb5a05ce6d7064af2ba7d1d270bc02660b019fda2646970667358221220047990df41976dc187e696319720176eca8f02d5f8860933b64549a439b8300164736f6c63430008170033",
  "linkReferences": {},
  "deployedLinkReferences": {}
}