{"abi":[{"type":"function","name":"submitCheckpoint","inputs":[{"name":"checkpoint","type":"tuple","internalType":"struct BottomUpCheckpoint","components":[{"name":"subnetID","type":"tuple","internalType":"struct SubnetID","components":[{"name":"root","type":"uint64","internalType":"uint64"},{"name":"route","type":"address[]","internalType":"address[]"}]},{"name":"blockHeight","type":"uint256","internalType":"uint256"},{"name":"blockHash","type":"bytes32","internalType":"bytes32"},{"name":"nextConfigurationNumber","type":"uint64","internalType":"uint64"},{"name":"msgs","type":"tuple[]","internalType":"struct IpcEnvelope[]","components":[{"name":"kind","type":"uint8","internalType":"enum IpcMsgKind"},{"name":"to","type":"tuple","internalType":"struct IPCAddress","components":[{"name":"subnetId","type":"tuple","internalType":"struct SubnetID","components":[{"name":"root","type":"uint64","internalType":"uint64"},{"name":"route","type":"address[]","internalType":"address[]"}]},{"name":"rawAddress","type":"tuple","internalType":"struct FvmAddress","components":[{"name":"addrType","type":"uint8","internalType":"uint8"},{"name":"payload","type":"bytes","internalType":"bytes"}]}]},{"name":"from","type":"tuple","internalType":"struct IPCAddress","components":[{"name":"subnetId","type":"tuple","internalType":"struct SubnetID","components":[{"name":"root","type":"uint64","internalType":"uint64"},{"name":"route","type":"address[]","internalType":"address[]"}]},{"name":"rawAddress","type":"tuple","internalType":"struct FvmAddress","components":[{"name":"addrType","type":"uint8","internalType":"uint8"},{"name":"payload","type":"bytes","internalType":"bytes"}]}]},{"name":"nonce","type":"uint64","internalType":"uint64"},{"name":"value","type":"uint256","internalType":"uint256"},{"name":"message","type":"bytes","internalType":"bytes"}]}]},{"name":"signatories","type":"address[]","internalType":"address[]"},{"name":"signatures","type":"bytes[]","internalType":"bytes[]"}],"outputs":[],"stateMutability":"nonpayable"},{"type":"function","name":"validateActiveQuorumSignatures","inputs":[{"name":"signatories","type":"address[]","internalType":"address[]"},{"name":"hash","type":"bytes32","internalType":"bytes32"},{"name":"signatures","type":"bytes[]","internalType":"bytes[]"}],"outputs":[],"stateMutability":"view"},{"type":"event","name":"ActiveValidatorCollateralUpdated","inputs":[{"name":"validator","type":"address","indexed":false,"internalType":"address"},{"name":"newPower","type":"uint256","indexed":false,"internalType":"uint256"}],"anonymous":false},{"type":"event","name":"ActiveValidatorLeft","inputs":[{"name":"validator","type":"address","indexed":false,"internalType":"address"}],"anonymous":false},{"type":"event","name":"ActiveValidatorReplaced","inputs":[{"name":"oldValidator","type":"address","indexed":false,"internalType":"address"},{"name":"newValidator","type":"address","indexed":false,"internalType":"address"}],"anonymous":false},{"type":"event","name":"ConfigurationNumberConfirmed","inputs":[{"name":"number","type":"uint64","indexed":false,"internalType":"uint64"}],"anonymous":false},{"type":"event","name":"NewActiveValidator","inputs":[{"name":"validator","type":"address","indexed":false,"internalType":"address"},{"name":"power","type":"uint256","indexed":false,"internalType":"uint256"}],"anonymous":false},{"type":"event","name":"NewCollateralRelease","inputs":[{"name":"validator","type":"address","indexed":false,"internalType":"address"},{"name":"amount","type":"uint256","indexed":false,"internalType":"uint256"},{"name":"releaseBlock","type":"uint256","indexed":false,"internalType":"uint256"}],"anonymous":false},{"type":"event","name":"NewWaitingValidator","inputs":[{"name":"validator","type":"address","indexed":false,"internalType":"address"},{"name":"power","type":"uint256","indexed":false,"internalType":"uint256"}],"anonymous":false},{"type":"event","name":"Paused","inputs":[{"name":"account","type":"address","indexed":false,"internalType":"address"}],"anonymous":false},{"type":"event","name":"Unpaused","inputs":[{"name":"account","type":"address","indexed":false,"internalType":"address"}],"anonymous":false},{"type":"event","name":"WaitingValidatorCollateralUpdated","inputs":[{"name":"validator","type":"address","indexed":false,"internalType":"address"},{"name":"newPower","type":"uint256","indexed":false,"internalType":"uint256"}],"anonymous":false},{"type":"event","name":"WaitingValidatorLeft","inputs":[{"name":"validator","type":"address","indexed":false,"internalType":"address"}],"anonymous":false},{"type":"error","name":"AddressEmptyCode","inputs":[{"name":"target","type":"address","internalType":"address"}]},{"type":"error","name":"AddressInsufficientBalance","inputs":[{"name":"account","type":"address","internalType":"address"}]},{"type":"error","name":"AddressShouldBeValidator","inputs":[]},{"type":"error","name":"BottomUpCheckpointAlreadySubmitted","inputs":[]},{"type":"error","name":"CannotConfirmFutureChanges","inputs":[]},{"type":"error","name":"CannotSubmitFutureCheckpoint","inputs":[]},{"type":"error","name":"EnforcedPause","inputs":[]},{"type":"error","name":"ExpectedPause","inputs":[]},{"type":"error","name":"FailedInnerCall","inputs":[]},{"type":"error","name":"InvalidCheckpointEpoch","inputs":[]},{"type":"error","name":"InvalidSignatureErr","inputs":[{"name":"","type":"uint8","internalType":"uint8"}]},{"type":"error","name":"MaxMsgsPerBatchExceeded","inputs":[]},{"type":"error","name":"NotValidator","inputs":[{"name":"","type":"address","internalType":"address"}]},{"type":"error","name":"PQDoesNotContainAddress","inputs":[]},{"type":"error","name":"PQEmpty","inputs":[]},{"type":"error","name":"ReentrancyError","inputs":[]},{"type":"error","name":"SafeERC20FailedOperation","inputs":[{"name":"token","type":"address","internalType":"address"}]}],"bytecode":{"object":"0x60808060405234601557613323908161001b8239f35b600080fdfe6080604052600436101561001257600080fd5b6000803560e01c806379979f57146100c05763cc2dc2b91461003357600080fd5b346100bd5760603660031901126100bd576004356001600160401b0381116100b957366023820112156100b9576100749036906024816004013591016109cc565b604435906001600160401b0382116100b557366023830112156100b5576100a86100b2923690602481600401359101610a3b565b906024359061100b565b80f35b8280fd5b5080fd5b80fd5b50346100bd5760603660031901126100bd576004356001600160401b0381116100b9578060040160a060031983360301126100b5576024356001600160401b0381116109165761011490369060040161091a565b6044356001600160401b0381116109125761013390369060040161091a565b9260ff7fc451c9429c27db68f286ab8a68f311f1dccab703ba9423aed29cd397ae63f8635416610903576101b09392916101a26101aa9261017388611179565b6040516020810190610197816101898c85610c83565b03601f198101835282610980565b5190209436916109cc565b933691610a3b565b9161100b565b6024820135808452601d60205260408420926101cc8380610de8565b6001600160401b036101dd82610dfd565b166001600160401b03198654161785556101ff60018601916020810190610e11565b906001600160401b0382116108ef576102188284610e86565b918752602087209187905b8282106108c657505050508160028501556044810135600385015561027960846005606484019661025388610dfd565b6001600160401b036004830191166001600160401b031982541617905501920184610e11565b91600160401b83116108b2578054838255808410610818575b509186949392829086526020862090869360be1981360301915b8486106103375750505050505060015560018060a01b036005541690813b156100b55782916102f19160405194858094819363fba0fa4d60e01b835260048301610c83565b03925af1801561032c57610312575b5061030d6100b291610dfd565b6113da565b826103246100b2939461030d93610980565b929150610300565b6040513d85823e3d90fd5b809192939495969798503583811215610814578201803560038110156108105761036081610ba8565b60ff801987541691161785556103796020820182610de8565b6103838180610de8565b61038c81610dfd565b6001600160401b036001890191166001600160401b03198254161790556103bb60028801916020810190610e11565b91906001600160401b038311610772578e9291906103d98383610e86565b9083526020832092905b8282106107eb575050505061040060038701916020810190610de8565b90813560ff81168091036107445760ff1982541617905561042960048701916020810190610f8a565b906001600160401b03821161073057908d9161044f826104498654610ebc565b86610fbc565b82601f83116001146107865761047c93909183610641575b50508160011b916000199060031b1c19161790565b90555b61048c6040820182610de8565b6104968180610de8565b61049f81610dfd565b6001600160401b036005890191166001600160401b03198254161790556104ce60068801916020810190610e11565b91906001600160401b038311610772578e9291906104ec8383610e86565b9083526020832092905b828210610748575050505061051360078701916020810190610de8565b90813560ff81168091036107445760ff1982541617905561053c60088701916020810190610f8a565b906001600160401b03821161073057908d9161055c826104498654610ebc565b82601f83116001146106cb57610588939091836106415750508160011b916000199060031b1c19161790565b90555b61059760608201610dfd565b6001600160401b036009870191166001600160401b03198254161790556080810135600a8601556105d0600b86019160a0810190610f8a565b906001600160401b0382116106b7576105f3826105ed8554610ebc565b85610fbc565b8c908d601f841160011461064c578360209460019794600c979461062b94926106415750508160011b916000199060031b1c19161790565b90555b01940195019392908997969592916102ac565b013590503880610467565b91601f19841685845260208420935b81811061069f57509360019693600c969388938360209810610685575b505050811b01905561062e565b0135600019600384901b60f8161c19169055388080610678565b9193602060018192878701358155019501920161065b565b634e487b7160e01b8d52604160045260248dfd5b9192601f19841685845260208420935b81811061071857509084600195949392106106fe575b505050811b01905561058b565b0135600019600384901b60f8161c191690553880806106f1565b919360206001819287870135815501950192016106db565b634e487b7160e01b8e52604160045260248efd5b8d80fd5b8035916001600160a01b038316830361076d57602060019201928186015501906104f6565b508f80fd5b634e487b7160e01b8f52604160045260248ffd5b9192601f19841685845260208420935b8181106107d357509084600195949392106107b9575b505050811b01905561047f565b0135600019600384901b60f8161c191690553880806107ac565b91936020600181928787013581550195019201610796565b8035916001600160a01b038316830361076d57602060019201928186015501906103e3565b8b80fd5b8a80fd5b80600c0290600c82040361089e5783600c02600c8104850361088a578289526020892091820191015b81811061084e5750610292565b8089600c925561086060018201610f45565b61086c60058201610f45565b89600982015589600a820155610884600b8201610ef6565b01610841565b634e487b7160e01b89526011600452602489fd5b634e487b7160e01b88526011600452602488fd5b634e487b7160e01b87526041600452602487fd5b8035916001600160a01b03831683036108eb5760206001920192818601550190610223565b8980fd5b634e487b7160e01b88526041600452602488fd5b63d93c066560e01b8752600487fd5b8580fd5b8380fd5b9181601f8401121561094a578235916001600160401b03831161094a576020808501948460051b01011161094a57565b600080fd5b604081019081106001600160401b0382111761096a57604052565b634e487b7160e01b600052604160045260246000fd5b90601f801991011681019081106001600160401b0382111761096a57604052565b6001600160401b03811161096a5760051b60200190565b35906001600160a01b038216820361094a57565b9291906109d8816109a1565b936109e66040519586610980565b602085838152019160051b810192831161094a57905b828210610a0857505050565b60208091610a15846109b8565b8152019101906109fc565b6001600160401b03811161096a57601f01601f191660200190565b92919092610a48846109a1565b93610a566040519586610980565b602085828152019060051b82019183831161094a5780915b838310610a7c575050505050565b82356001600160401b03811161094a57820185601f8201121561094a57803591610aa583610a20565b610ab26040519182610980565b838152876020858501011161094a5760006020858196828097018386013783010152815201920191610a6e565b9035603e198236030181121561094a570190565b35906001600160401b038216820361094a57565b9035601e198236030181121561094a5701602081359101916001600160401b03821161094a578160051b3603831361094a57565b906060610b6460408301936001600160401b03610b5782610af3565b1684526020810190610b07565b604060208501529384905291019160005b818110610b825750505090565b909192602080600192838060a01b03610b9a886109b8565b168152019401929101610b75565b60031115610bb257565b634e487b7160e01b600052602160045260246000fd5b9035601e198236030181121561094a5701602081359101916001600160401b03821161094a57813603831361094a57565b908060209392818452848401376000828201840152601f01601f1916010190565b610c43610c38610c2a8380610adf565b604085526040850190610b3b565b916020810190610adf565b91602081830391015281359160ff831680930361094a57610c70604091610c809484526020810190610bc8565b9190928160208201520191610bf9565b90565b60208152610ce1610ca8610c978480610adf565b60a0602085015260c0840190610b3b565b9260208101356040840152604081013560608401526001600160401b03610cd160608301610af3565b1660808401526080810190610b07565b909160a0601f1982860301910152808352602083019060208160051b850101938360009160be1982360301905b848410610d1f575050505050505090565b90919293949596601f1982820301875287358381121561094a578401803591600383101561094a57610dd9602092839285610d5b600197610ba8565b8152610dcb610d9c610d82610d7287860186610adf565b60c08886015260c0850190610c1a565b610d8f6040860186610adf565b8482036040860152610c1a565b926001600160401b03610db160608301610af3565b1660608401526080810135608084015260a0810190610bc8565b9160a0818503910152610bf9565b99019701959401929190610d0e565b903590603e198136030182121561094a570190565b356001600160401b038116810361094a5790565b903590601e198136030182121561094a57018035906001600160401b03821161094a57602001918160051b3603831361094a57565b81810292918115918404141715610e5957565b634e487b7160e01b600052601160045260246000fd5b818110610e7a575050565b60008155600101610e6f565b90600160401b811161096a57815490808355818110610ea457505050565b610eba9260005260206000209182019101610e6f565b565b90600182811c92168015610eec575b6020831014610ed657565b634e487b7160e01b600052602260045260246000fd5b91607f1691610ecb565b610f008154610ebc565b9081610f0a575050565b81601f60009311600114610f1c575055565b81835260208320610f3891601f0160051c810190600101610e6f565b8082528160208120915555565b6003610eba91600081556001810180546000825580610f6e575b50506000600282015501610ef6565b610f8391600052602060002090810190610e6f565b3880610f5f565b903590601e198136030182121561094a57018035906001600160401b03821161094a5760200191813603831361094a57565b9190601f8111610fcb57505050565b610eba926000526020600020906020601f840160051c83019310610ff7575b601f0160051c0190610e6f565b9091508190610fea565b60061115610bb257565b90919281519361101a856109a1565b946110286040519687610980565b808652601f19611037826109a1565b0136602088013760005b8181106110f557505060009361ffff600e5416936001955b61ffff87168681116110a15760009081526010602052604090205461ffff916001916110989190611092906001600160a01b0316611ee4565b90611cbb565b97011695611059565b506110cb96506064919395506110c4909792949760ff60055460e01c1690610e46565b0491611cc8565b90156110d45750565b806110e060ff92611001565b63282ef1c160e01b6000521660045260246000fd5b61ffff60406001600160a01b0361110c8489611c91565b51166000908152600f602052205416156111505760019061113f6001600160a01b036111388389611c91565b5116611ee4565b611149828a611c91565b5201611041565b6001600160a01b03906111639086611c91565b5116633b4f6e2b60e21b60005260045260246000fd5b6001600160401b0360055460a01c169060808101826111988284610e11565b905011611245576001546003546020840135918083111561123457811561121e576001600160401b03829116049060018201809211610e59576111da91610e46565b9081811161120d5714611208576111f091610e11565b905014610eba5763fae4eadb60e01b60005260046000fd5b505050565b63dd88982f60e01b60005260046000fd5b634e487b7160e01b600052601260045260246000fd5b63d6bb62dd60e01b60005260046000fd5b63351c700760e01b60005260046000fd5b906040519182600082549261126a84610ebc565b80845293600181169081156112d6575060011461128f575b50610eba92500383610980565b90506000929192526020600020906000915b8183106112ba575050906020610eba9282010138611282565b60209193508060019154838589010152019101909184926112a1565b905060209250610eba94915060ff191682840152151560051b82010138611282565b9190918281146113d55761130c8354610ebc565b6001600160401b03811161096a5761132e816113288454610ebc565b84610fbc565b600093601f821160011461136f5761136092939482916000926113645750508160011b916000199060031b1c19161790565b9055565b015490503880610467565b845260208085208386529085209094601f198316815b8181106113bd575095836001959697106113a4575b505050811b019055565b015460001960f88460031b161c1916905538808061139a565b9192600180602092868b015481550194019201611385565b509050565b6015546001600160401b0391821691811682106114025763040aaa0560e11b60005260046000fd5b6001600160401b038160401c168210611c8d576005546001600160a01b03169060401c6001600160401b03165b826001600160401b03821611156114b1575050600181016001600160401b038111610e5957601580546fffffffffffffffff00000000000000001916604092831b6fffffffffffffffff000000000000000016179055519081527f246f00b61ce672242f33bb680a47147cd54d3dfd04dbb76956ba42f88087bf6390602090a1565b6114ce816001600160401b03166000526016602052604060002090565b60018060a01b036002820154169060ff8154166114ea81611001565b600281036115615750916115296001926003611523856001600160401b0397019260018060a01b0316600052600d602052604060002090565b016112f8565b6000600261154a836001600160401b03166000526016602052604060002090565b828155611558858201610ef6565b0155011661142f565b61156a81611001565b600381036117205750600161157f9101611256565b9081518201916040816020850194031261094a5760208101516001600160401b03811161094a57810183603f8201121561094a576020810151906115c282610a20565b946115d06040519687610980565b8286526040828401011161094a5760005b82811061170957505090600060206040938601015201519160036116178360018060a01b0316600052600d602052604060002090565b01908051906001600160401b03821161096a57611638826105ed8554610ebc565b602090601f8311600114611691579261167a83600197946001600160401b03999794611681976000926116865750508160011b916000199060031b1c19161790565b9055611e9a565b611529565b015190503880610467565b90601f1983169184600052816000209260005b8181106116f15750936001600160401b0398969361168196936001999693838b95106116d8575b505050811b019055611e9a565b015160001960f88460031b161c191690553880806116cb565b929360206001819287860151815501950193016116a4565b8060208080938501010151828289010152016115e1565b929190611731600160209201611256565b818151818301938491600094010103126100bd5750519261175181611001565b600181036119285750806117dc61178a85600161178361ffff9660018060a01b0316600052600d602052604060002090565b0154611dca565b6001600160a01b0383166000908152600d60205260409020600201548115908161191f575b50156118fc576001600160a01b0383166000908152600d602052604090206117d690611dd7565b8261235c565b6117e884600c54611dca565b600c556117f760175443611cbb565b90604051916118058361094f565b808352602083018681526040600084815260186020522090815486811696879160101c16019061ffff8211610e59577f083b080788e20bd0930c2bca2ae4fbc51a59ced08c1b5992271f8cb439498a6396606096600161188093604061ffff968760009116815283890160205220925183555191015561281a565b1661ffff198254161790556040519182528560208301526040820152a1823b1561094a57604051916345f5448560e01b8352600483015260008260248183875af19081156118f0576001600160401b03926001926118df575b50611529565b60006118ea91610980565b386118d9565b6040513d6000823e3d90fd5b6001600160a01b0383166000908152600d602052604090208190600101556117d6565b905015386117af565b61193181611001565b80611ba757508061196484600161195d61199a9560018060a01b0316600052600d602052604060002090565b0154611cbb565b908160016119848360018060a01b0316600052600d602052604060002090565b015561199285600c54611cbb565b600c55611fc0565b6040516119a68161094f565b60085460ff8116916002831015610bb257828152602081019160018060a01b039060081c16825260009215600014611a1f57505050815b833b1561094a5760009060246040518095819363eb4f16b560e01b83526004830152875af19081156118f0576001600160401b03926001926118df5750611529565b93919351906002821015610bb257600160009214611a3f575b50506119dd565b51604051636eb1769f60e11b81523060048201526001600160a01b03878116602483015293955091921690602081604481855afa801561032c5785908490611b72575b611a8c9250611cbb565b60405163095ea7b360e01b602082019081526001600160a01b03881660248301526044808301939093529181529083908190611ac9606485610980565b83519082865af1611ad8613090565b81611b43575b5080611b39575b15611af5575b5050913880611a38565b611b3291611b2d60405163095ea7b360e01b602082015288602482015285604482015260448152611b27606482610980565b826130d8565b6130d8565b3880611aeb565b50813b1515611ae5565b8051801592508215611b58575b505038611ade565b611b6b92506020809183010191016130c0565b3880611b50565b50506020813d8211611b9f575b81611b8c60209383610980565b810103126100b55784611a8c9151611a82565b3d9150611b7f565b919291611bb381611001565b60048103611c20575091611c1882846005611c0e611bf26001978361195d6001600160401b039b60018060a01b0316600052600d602052604060002090565b6001600160a01b039093166000908152600d6020526040902090565b0155601454611cbb565b601455611529565b909290600590611c2f81611001565b03611c48576116816001926001600160401b0394611e01565b60405162461bcd60e51b815260206004820152601960248201527f556e6b6e6f776e207374616b696e67206f7065726174696f6e000000000000006044820152606490fd5b5050565b8051821015611ca55760209160051b010190565b634e487b7160e01b600052603260045260246000fd5b91908201809211610e5957565b84519294600094908415611dbb5782518514801590611db0575b611da157939291906000945b848610611d11575050505050501015611d0957600090600590565b600190600090565b909192939495611d2b611d248884611c91565b5184611f84565b506004811015610bb257611d90576001600160a01b03611d4b8987611c91565b51166001600160a01b0390911603611d8057611d74600191611d6d8988611c91565b5190611cbb565b96019493929190611cee565b5050505050505050600090600390565b505050505050505050600090600490565b50505050505050600090600190565b508351851415611ce2565b50505050505050600090600290565b91908203918211610e5957565b6005600091828155826001820155826002820155611df760038201610ef6565b8260048201550155565b611e0d82601454611dca565b6014556001600160a01b03166000818152600d6020526040902060058101546004909101549192811580611e92575b611e8c57611e4991611dca565b9081159081611e83575b5015611e6f5750600052600d602052610eba6040600020611dd7565b90600052600d602052600560406000200155565b90501538611e53565b50505050565b508215611e3c565b6001600160a01b0381166000908152600d60205260409020805490839055909190808203611ec757505050565b811115611ed957610eba91600b6121cd565b610eba91600b612621565b600160ff600b5416611ef581610ba8565b03611f15576001600160a01b03166000908152600d602052604090205490565b6001600160a01b03166000908152600d602052604090206001015490565b600291600160ff835416611f4681610ba8565b03611f66576001600160a01b031660009081529101602052604090205490565b6001600160a01b031660009081529101602052604090206001015490565b8151919060418303611fb557611fae92506020820151906060604084015193015160001a9061282e565b9192909190565b505060009160029190565b9060018060a01b038216600052600f60205261ffff6040600020541661219a5761ffff600b5460081c1661ffff600e54161061217d57612000600e612de1565b600160005260106020527f8c6065603763fec3f5742441d3833f3f43b982453612d76adb39a885e3006b5f546001600160a01b03168161204182600b611f33565b106120ee57506001600160a01b03821660009081526012602052604090205461ffff166120bb57816120977f19fe3ca603e87854a0747cc10abf06bac64d61bac73d6d15f2fd3ca448f1526493600b6011612b1a565b604080516001600160a01b039092168252602082019290925290819081015b0390a1565b816120976120d96000805160206132ae833981519152946011612c9a565b6120e483600b611f33565b90600b6011612fa6565b60008051602061328e83398151915292915061210c600b600e612976565b6001600160a01b03821660009081526012602052604090205461ffff1661216b575b61213b82600b600e6128b7565b61214881600b6011612b1a565b604080516001600160a01b039283168152929091166020830152819081016120b6565b61217882600b6011612a78565b61212e565b816120976000805160206132ce83398151915293600b600e6128b7565b816120976121b860008051602061326e83398151915294600e612c9a565b6121c383600b611f33565b90600b600e612ce6565b6001600160a01b038216600090815260048201602052604090205490929190600384019061ffff1661232d5761ffff845460081c1661ffff825416106123135780612219858593612931565b929092106122a65750506001600160a01b0381166000908152600784016020526040902054600684019061ffff1661227757817f19fe3ca603e87854a0747cc10abf06bac64d61bac73d6d15f2fd3ca448f152649461209792612b1a565b806000805160206132ae833981519152946122958461209794612c9a565b906122a08582611f33565b92612fa6565b819293509084826122c960008051602061328e8339815191529761214895612976565b6001600160a01b038616600090815260078301602052604090205460068301916122fe918891859161ffff16612303576128b7565b612b1a565b61230e838387612a78565b6128b7565b816000805160206132ce83398151915294612097926128b7565b8060008051602061326e8339815191529461234b8461209794612c9a565b906123568582611f33565b92612ce6565b9060018060a01b038216600052601260205261ffff604060002054166125a3576001600160a01b0382166000908152600f602052604090205461ffff16156125925780156124ce576123c76123b283600e612c9a565b6123bd84600b611f33565b90600b600e612d7d565b61ffff6011541615611c8d576123dd600e612de1565b600160005260106020527f8c6065603763fec3f5742441d3833f3f43b982453612d76adb39a885e3006b5f546001600160a01b03169161241e83600b611f33565b6124286011612de1565b600160005260136020527f4155c2f711f2cdd34f8262ab8fb9b7020a700fe7b6948222152f7670d1fdf34d546001600160a01b03169061246982600b611f33565b116124a35750604080516001600160a01b039092168252602082019290925260008051602061326e833981519152925090819081016120b6565b91505060008051602061328e833981519152916124c2600b600e612976565b61212e600b6011612bd3565b506020816125007f4a4c5d1a281180eea1e99d8177fa4798b9f7e019d5c57e7d8d73c6a22199aa5b93600b600e612b31565b6040516001600160a01b039091168152a161ffff6011541661251e57565b6125286011612de1565b600160005260136020527f4155c2f711f2cdd34f8262ab8fb9b7020a700fe7b6948222152f7670d1fdf34d546000805160206132ce833981519152906001600160a01b031661257881600b611f33565b90612585600b6011612bd3565b61209781600b600e6128b7565b632a55ca5360e01b60005260046000fd5b80156125dc57816120976125c76000805160206132ae833981519152946011612c9a565b6125d283600b611f33565b90600b6011613004565b5060208161260e7f3168ba660eed6ef1dc2258b2247cc05fd0f2f350d39e6ad2e2ebc76a8000b40b93600b6011612a78565b6040516001600160a01b039091168152a1565b6001600160a01b0382166000908152600782016020526040902054600682019392919061ffff166127b5576001600160a01b038216600090815260048201602052604090205460038201949061ffff16156125925783156127365761269b6126898487612c9a565b6126938585611f33565b908488612d7d565b61ffff8154161561272f576126b08286612931565b9290916126bd8282612931565b9094106126fd575050604080516001600160a01b03909416845260208401949094525060008051602061326e8339815191529350909182915081016120b6565b8395508294506122fe6121489483896127258260008051602061328e8339815191529c612976565b61230e8286612bd3565b5050505050565b91819350806127696020927f4a4c5d1a281180eea1e99d8177fa4798b9f7e019d5c57e7d8d73c6a22199aa5b9488612b31565b6040516001600160a01b039091168152a161ffff81541661278957505050565b61209781836000805160206132ce833981519152956127ab8261230e96612931565b9681969194612bd3565b82156127ea5783612097916127d9846000805160206132ae83398151915297612c9a565b906127e48582611f33565b92613004565b602092508161260e917f3168ba660eed6ef1dc2258b2247cc05fd0f2f350d39e6ad2e2ebc76a8000b40b95612a78565b61ffff60019116019061ffff8211610e5957565b91907f7fffffffffffffffffffffffffffffff5d576e7357a4501ddfe92f46681b20a084116128ab579160209360809260ff60009560405194855216868401526040830152606082015282805260015afa156118f0576000516001600160a01b0381161561289f5790600090600090565b50600090600190600090565b50505060009160039190565b9091610eba9261292b6128ce61ffff85541661281a565b6001600160a01b03841660008181526001870160209081526040808320805461ffff871661ffff19918216811790925581855260028b01909352922080546001600160a01b03191690931790925586549091161785559282611f33565b92612d7d565b60029092919261294081612de1565b600160005201602052610c8060018060a01b03604060002054168093611f33565b61ffff6000199116019061ffff8211610e5957565b61297f81612de1565b6129af61ffff8254166129928184612e1b565b61ffff61299e82612961565b1661ffff1984541617835582612f5e565b60028101926001600052836020526129d5604060002060018060a01b0390541684611f33565b926001946129e36001612ccf565b61ffff855416905b61ffff8116828111612a6d5782811015612a43575080612a0d612a159261281a565b908588613146565b9790975b871115612a3957612a2b908887612ebe565b612a3487612ccf565b6129eb565b5050505092505050565b600090815260208490526040902054909790612a68906001600160a01b031685611f33565b612a19565b505050505092505050565b9091612a849082612c9a565b61ffff825416612a95818385612ebe565b61ffff612aa182612961565b1661ffff19845416178355612ab68184612f5e565b61ffff82161461120857610eba926002830161ffff831660005280602052612af7612aef604060002060018060a01b0390541684611f33565b848487612fa6565b61ffff83166000526020526127e4604060002060018060a01b0390541682611f33565b9091610eba926122a06128ce61ffff85541661281a565b9091612b3d9082612c9a565b61ffff825416612b4e818385612ebe565b61ffff612b5a82612961565b1661ffff19845416178355612b6f8184612f5e565b61ffff82161461120857610eba926002830161ffff831660005280602052612bb0612ba8604060002060018060a01b0390541684611f33565b848487612d7d565b61ffff8316600052602052612356604060002060018060a01b0390541682611f33565b612bdc81612de1565b612bef61ffff8254166129928184612e1b565b6002810192600160005283602052612c15604060002060018060a01b0390541684611f33565b92600194600261ffff855416905b61ffff8116828111612a6d5782811015612c70575080612c45612c4d9261281a565b9085886131ad565b9790975b871015612a3957612c63908887612ebe565b61fffe8760011b16612c23565b600090815260208490526040902054909790612c95906001600160a01b031685611f33565b612c51565b600191828060a01b03166000520160205261ffff60406000205416908115612cbe57565b63f2755e3760e01b60005260046000fd5b60011b906201fffe61fffe831692168203610e5957565b919390612cf285612ccf565b61ffff845416905b61ffff8116828111612a395782811015612d51575080612d1c612d249261281a565b908487613146565b9690965b861115612d4857612d3a908786612ebe565b612d4386612ccf565b612cfa565b50505092505050565b6000908152600286016020526040902054909690612d78906001600160a01b031684611f33565b612d28565b9092915b600161ffff821611612d935750505050565b600181901c617fff1660008181526002840160205260409020549091908490612dc5906001600160a01b031687611f33565b1115612ddb57612dd6908284612ebe565b612d81565b50611e8c565b5461ffff1615612ded57565b6340d9b01160e01b60005260046000fd5b15612e0557565b634e487b7160e01b600052600160045260246000fd5b90612e3e61ffff835416612e328160011115612dfe565b61ffff83161115612dfe565b600160008181526002840160208181526040808420805461ffff90971680865282862080546001600160a01b03998a168089529a89018652848820805461ffff1990811690941790559098168087529286208054909116871790559290915284546001600160a01b03199081169096179094559190528054909216179055565b919061ffff90612ee382855416612ed9818585161115612dfe565b8385161115612dfe565b811660008181526002850160208181526040808420805497871680865282862080546001600160a01b039a8b168089526001909c01865284882080549a199a8b1690931790925598168086529185208054909716861790965591905284546001600160a01b0319908116909617909455528054909216179055565b61ffff9091166000908152600282016020908152604080832080546001600160a01b031981169091556001600160a01b03168352600193909301905220805461ffff19169055565b9092915b600161ffff821611612fbc5750505050565b600181901c617fff1660008181526002840160205260409020549091908490612fee906001600160a01b031687611f33565b1015612ddb57612fff908284612ebe565b612faa565b91939061fffe8560011b1661ffff845416905b61ffff8116828111612a3957828110156130645750806130396130419261281a565b9084876131ad565b9690965b861015612d4857613057908786612ebe565b61fffe8660011b16613017565b600090815260028601602052604090205490969061308b906001600160a01b031684611f33565b613045565b3d156130bb573d906130a182610a20565b916130af6040519384610980565b82523d6000602084013e565b606090565b9081602091031261094a5751801515810361094a5790565b6000806131019260018060a01b03169360208151910182865af16130fa613090565b908361320c565b805190811515918261312b575b50506131175750565b635274afe760e01b60005260045260246000fd5b61313e92506020809183010191016130c0565b15388061310e565b60026131979195949395019161ffff861660005282602052613176604060002060018060a01b0390541682611f33565b9261ffff8516600052602052604060002060018060a01b0390541690611f33565b93848211156131a65750509190565b9350919050565b60026131fe9195949295019461ffff8416600052856020526131dd604060002060018060a01b0390541682611f33565b9561ffff8416600052602052604060002060018060a01b0390541690611f33565b908185106131a65750509190565b90613232575080511561322157805190602001fd5b630a12f52160e11b60005260046000fd5b81511580613264575b613243575090565b639996b31560e01b60009081526001600160a01b0391909116600452602490fd5b50803b1561323b56fe143db27bc2036653dc6f962ff9d0b803163d4af50c256ca9e6927b3d6dcd0197faeb8de771b867cf357f6b459a7002b62ec45d544a8078a3ecd91200cc826d75da148fac2e1063174be7bc0895576bdaba90fd14e575463fa26a967cb895cadd2e8038f5812f763c6ef0c5427cb5a05ce6d7064af2ba7d1d270bc02660b019fda26469706673582212201ffd1d6107b36ddef50bae4f7a4dd0705d267995e177306410ab172ec49fcbb564736f6c634300081a0033","linkReferences":{}},"methodIdentifiers":{"submitCheckpoint(((uint64,address[]),uint256,bytes32,uint64,(uint8,((uint64,address[]),(uint8,bytes)),((uint64,address[]),(uint8,bytes)),uint64,uint256,bytes)[]),address[],bytes[])":"79979f57","validateActiveQuorumSignatures(address[],bytes32,bytes[])":"cc2dc2b9"},"id":48}