{
  "_format": "hh-sol-artifact-1",
  "contractName": "TopDownFinalityFacet",
  "sourceName": "contracts/gateway/router/TopDownFinalityFacet.sol",
  "abi": [
    {
      "inputs": [],
      "name": "AddressShouldBeValidator",
      "type": "error"
    },
    {
      "inputs": [],
      "name": "CannotConfirmFutureChanges",
      "type": "error"
    },
    {
      "inputs": [],
      "name": "InvalidConfigurationNumber",
      "type": "error"
    },
    {
      "inputs": [],
      "name": "NotSystemActor",
      "type": "error"
    },
    {
      "inputs": [],
      "name": "OldConfigurationNumber",
      "type": "error"
    },
    {
      "inputs": [],
      "name": "PQDoesNotContainAddress",
      "type": "error"
    },
    {
      "inputs": [],
      "name": "PQEmpty",
      "type": "error"
    },
    {
      "inputs": [],
      "name": "ParentFinalityAlreadyCommitted",
      "type": "error"
    },
    {
      "anonymous": false,
      "inputs": [
        {
          "indexed": false,
          "internalType": "address",
          "name": "validator",
          "type": "address"
        },
        {
          "indexed": false,
          "internalType": "uint256",
          "name": "newPower",
          "type": "uint256"
        }
      ],
      "name": "ActiveValidatorCollateralUpdated",
      "type": "event"
    },
    {
      "anonymous": false,
      "inputs": [
        {
          "indexed": false,
          "internalType": "address",
          "name": "validator",
          "type": "address"
        }
      ],
      "name": "ActiveValidatorLeft",
      "type": "event"
    },
    {
      "anonymous": false,
      "inputs": [
        {
          "indexed": false,
          "internalType": "address",
          "name": "oldValidator",
          "type": "address"
        },
        {
          "indexed": false,
          "internalType": "address",
          "name": "newValidator",
          "type": "address"
        }
      ],
      "name": "ActiveValidatorReplaced",
      "type": "event"
    },
    {
      "anonymous": false,
      "inputs": [
        {
          "components": [
            {
              "components": [
                {
                  "internalType": "uint256",
                  "name": "weight",
                  "type": "uint256"
                },
                {
                  "internalType": "address",
                  "name": "addr",
                  "type": "address"
                },
                {
                  "internalType": "bytes",
                  "name": "metadata",
                  "type": "bytes"
                }
              ],
              "internalType": "struct Validator[]",
              "name": "validators",
              "type": "tuple[]"
            },
            {
              "internalType": "uint64",
              "name": "configurationNumber",
              "type": "uint64"
            }
          ],
          "indexed": false,
          "internalType": "struct Membership",
          "name": "",
          "type": "tuple"
        }
      ],
      "name": "MembershipUpdated",
      "type": "event"
    },
    {
      "anonymous": false,
      "inputs": [
        {
          "indexed": false,
          "internalType": "address",
          "name": "validator",
          "type": "address"
        },
        {
          "indexed": false,
          "internalType": "uint256",
          "name": "power",
          "type": "uint256"
        }
      ],
      "name": "NewActiveValidator",
      "type": "event"
    },
    {
      "anonymous": false,
      "inputs": [
        {
          "indexed": false,
          "internalType": "address",
          "name": "validator",
          "type": "address"
        },
        {
          "indexed": false,
          "internalType": "uint256",
          "name": "power",
          "type": "uint256"
        }
      ],
      "name": "NewWaitingValidator",
      "type": "event"
    },
    {
      "anonymous": false,
      "inputs": [
        {
          "indexed": false,
          "internalType": "address",
          "name": "validator",
          "type": "address"
        },
        {
          "indexed": false,
          "internalType": "uint256",
          "name": "newPower",
          "type": "uint256"
        }
      ],
      "name": "WaitingValidatorCollateralUpdated",
      "type": "event"
    },
    {
      "anonymous": false,
      "inputs": [
        {
          "indexed": false,
          "internalType": "address",
          "name": "validator",
          "type": "address"
        }
      ],
      "name": "WaitingValidatorLeft",
      "type": "event"
    },
    {
      "inputs": [],
      "name": "applyFinalityChanges",
      "outputs": [
        {
          "internalType": "uint64",
          "name": "",
          "type": "uint64"
        }
      ],
      "stateMutability": "nonpayable",
      "type": "function"
    },
    {
      "inputs": [
        {
          "components": [
            {
              "internalType": "uint256",
              "name": "height",
              "type": "uint256"
            },
            {
              "internalType": "bytes32",
              "name": "blockHash",
              "type": "bytes32"
            }
          ],
          "internalType": "struct ParentFinality",
          "name": "finality",
          "type": "tuple"
        }
      ],
      "name": "commitParentFinality",
      "outputs": [
        {
          "internalType": "bool",
          "name": "hasCommittedBefore",
          "type": "bool"
        },
        {
          "components": [
            {
              "internalType": "uint256",
              "name": "height",
              "type": "uint256"
            },
            {
              "internalType": "bytes32",
              "name": "blockHash",
              "type": "bytes32"
            }
          ],
          "internalType": "struct ParentFinality",
          "name": "previousFinality",
          "type": "tuple"
        }
      ],
      "stateMutability": "nonpayable",
      "type": "function"
    },
    {
      "inputs": [],
      "name": "getTrackerConfigurationNumbers",
      "outputs": [
        {
          "internalType": "uint64",
          "name": "",
          "type": "uint64"
        },
        {
          "internalType": "uint64",
          "name": "",
          "type": "uint64"
        }
      ],
      "stateMutability": "view",
      "type": "function"
    },
    {
      "inputs": [
        {
          "components": [
            {
              "components": [
                {
                  "internalType": "enum StakingOperation",
                  "name": "op",
                  "type": "uint8"
                },
                {
                  "internalType": "bytes",
                  "name": "payload",
                  "type": "bytes"
                },
                {
                  "internalType": "address",
                  "name": "validator",
                  "type": "address"
                }
              ],
              "internalType": "struct StakingChange",
              "name": "change",
              "type": "tuple"
            },
            {
              "internalType": "uint64",
              "name": "configurationNumber",
              "type": "uint64"
            }
          ],
          "internalType": "struct StakingChangeRequest[]",
          "name": "changeRequests",
          "type": "tuple[]"
        }
      ],
      "name": "storeValidatorChanges",
      "outputs": [],
      "stateMutability": "nonpayable",
      "type": "function"
    }
  ],
  "bytecode": "0x6080806040523461001657612eca908161001c8239f35b600080fdfe604060a08152600436101561001357600080fd5b600090813560e01c9081630df144611461019b57816311196974146100e35781638fbe0b7c146100b4575063e49a547d1461004d57600080fd5b346100b15760203660031901126100b1576004356001600160401b038082116100ad57366023830112156100ad5781600401359081116100ad573660248260051b840101116100ad5760246100aa926100a461055e565b0161117d565b80f35b8280fd5b80fd5b82346100b157806003193601126100b15750601d546001600160401b038251918181168352831c166020820152f35b905034610197578060031936011261019757805190610101826101fe565b8282528260208093015261011361055e565b82828251610120816101fe565b8281520152825492600435928385101561018657606094825280805282822093600184519561014e876101fe565b805487520154928286019384528181528280528481208281556001602435910155558351151593835194855251908401525190820152f35b825163153ad84160e11b8152600490fd5b5080fd5b9050346101975781600319360112610197576020906101b861055e565b6001600160401b036101c8610398565b915191168152f35b9060016001600160401b03809316019182116101e857565b634e487b7160e01b600052601160045260246000fd5b604081019081106001600160401b0382111761021957604052565b634e487b7160e01b600052604160045260246000fd5b606081019081106001600160401b0382111761021957604052565b90601f801991011681019081106001600160401b0382111761021957604052565b6001600160401b0381116102195760051b60200190565b80518210156102965760209160051b010190565b634e487b7160e01b600052603260045260246000fd5b919082018092116101e857565b90600182811c921680156102e9575b60208310146102d357565b634e487b7160e01b600052602260045260246000fd5b91607f16916102c8565b90604051918260008254610306816102b9565b908184526020946001916001811690816000146103765750600114610337575b5050506103359250038361024a565b565b600090815285812095935091905b81831061035e5750506103359350820101388080610326565b85548884018501529485019487945091830191610345565b9250505061033594925060ff191682840152151560051b820101388080610326565b601d546001600160401b03808216600019018181116101e8576103ba816101d0565b8280604095861c16911614610556576103d28161077c565b61ffff928360175416916103e58361026b565b956103f28351978861024a565b8387526103fe8461026b565b60209290601f19908101368a86013760015b888116878111610452576000908152601986528690205489916001916001600160a01b031661044a8d8561044385610b6d565b1690610282565b520116610410565b5050945094919290955086516104678161026b565b946104748351968761024a565b8186526104808261026b565b018460005b82811061052d5750505060005b8181106104bd5750506104ba9495965051926104ad846101fe565b8352841690820152610dab565b90565b6001906001600160a01b036104d2828c610282565b5116806000526016875261050d6003866000206104f4868201548254906102ac565b938851946105018661022f565b85528a850152016102f3565b8582015261051b8289610282565b526105268188610282565b5001610492565b84516105388161022f565b6000815260008382015260608682015282828a010152018590610485565b505050600090565b604051635d3f8a6960e01b815233600482015260208160248173__$32813765d87f0bbc231ef494a6a627f37b$__5af49081156105f2576000916105b7575b50156105a557565b60405163f0d97f3b60e01b8152600490fd5b6020813d6020116105ea575b816105d06020938361024a565b8101031261019757519081151582036100b157503861059d565b3d91506105c3565b6040513d6000823e3d90fd5b6001600160401b03811161021957601f01601f191660200190565b60005b83811061062c5750506000910152565b818101518382015260200161061c565b818110610647575050565b6000815560010161063c565b9190601f811161066257505050565b610335926000526020600020906020601f840160051c8301931061068e575b601f0160051c019061063c565b9091508190610681565b90808214610778576106aa81546102b9565b906001600160401b038211610219576106cd826106c785546102b9565b85610653565b600090601f831160011461070d576106fe929160009183610702575b50508160011b916000199060031b1c19161790565b9055565b0154905038806106e9565b815260208082208483528183209291601f1985169083905b82821061075f575050908460019594939210610746575b505050811b019055565b015460001960f88460031b161c1916905538808061073c565b8495819295850154815560018091019601940190610725565b5050565b90601d546001600160401b0381166001600160401b03841610156000146107af5760405163040aaa0560e11b8152600490fd5b6001600160401b038160401c166001600160401b03841610610b685760401c6001600160401b03165b6001600160401b0383166001600160401b03821611610b34576001600160401b038116600052601e60205260406000209060018060a01b036002830154169160ff8154166004811015610b1e576002810361088357506001610853916001600160401b03946000526016602052016003604060002001610698565b818116600052601e602052604060002090600082556000600260019361087a858201610c17565b015501166107d8565b91929160038103610a1b5750600161089b91016102f3565b90815182019160408160208501940312610a16576020810151906001600160401b038211610a165783603f838301011215610a165760208282010151916108e1836105fe565b946108ef604051968761024a565b838652604084838501010111610a165760409261091491846020880191850101610619565b0151918160005260166020526003604060002001908051906001600160401b03821161021957610948826106c785546102b9565b602090601f831160011461099f578261098f95936001600160401b0398979593610988936000926109945750508160011b916000199060031b1c19161790565b90556113d3565b610853565b0151905038806106e9565b90601f198316918460005260206000209260005b8181106109fe575092600192859261098f98966001600160401b039b9a9896106109e5575b505050811b0190556113d3565b015160001960f88460031b161c191690553880806109d8565b929360206001819287860151815501950193016109b3565b600080fd5b90610a2c60019493948092016102f3565b93602085805181010312610a16578160206001600160401b039601519314600014610ada579081610ab49260005260169182602052610a728582604060002001546113c6565b92826000526020526040600020600281019184835481159081610ad1575b5015610ac85750906000610aaf93816003948185558401555501610c17565b6119fb565b610ac160159182546113c6565b9055610853565b925001556119fb565b90501538610a90565b61098f9281600052601680602052610af98285604060002001546102ac565b9384918460005260205260406000200155610b1760159182546102ac565b90556114cd565b634e487b7160e01b600052602160045260246000fd5b5090610b3f906101d0565b67ffffffffffffffff60401b601d549160401b169067ffffffffffffffff60401b191617601d55565b509050565b61ffff90811660001901919082116101e857565b908082519081815260208091019281808460051b8301019501936000915b848310610baf5750505050505090565b9091929394958480600192601f1990818682030187528a5191601f606084518452878060a01b03868601511686850152806040809601519585015284518091850152610c0381608096888888019101610619565b011601019801930193019194939290610b9f565b610c2181546102b9565b9081610c2b575050565b81601f60009311600114610c3d575055565b908083918252610c5c601f60208420940160051c84016001850161063c565b5555565b600754811015610296576003906007600052027fa66cc928b5edb82af9bd49922954155ab7b0942694bea4ce44661d9a8736c6880190600090565b929190610d95578051835560019260406002600183019260209360018060a01b036020870151166001600160601b0360a01b82541617905501920151938451916001600160401b03831161021957610cfd83610cf786546102b9565b86610653565b602091601f8411600114610d3157505081906106fe9394956000926109945750508160011b916000199060031b1c19161790565b600085815260208120601f1986169890949390925b898310610d7e5750505083600195969710610d6557505050811b019055565b015160001960f88460031b161c1916905538808061073c565b838501518655948501949381019391810191610d46565b634e487b7160e01b600052600060045260246000fd5b6040805191602091828452610dca825182858701526060860190610b81565b927f7ecdac482334c36fccbe374318cfe74ea0c8181394890ddec894a10f0fcc748181840195808751966001600160401b03809816868301520390a183600854169081611086575b5050506007908154936801000000000000000093848611610219576009548660095580871061100c575b5060096000908152957f6e1540171b6c0c960b71a7020d9f60077f6af931a8bbf590da0223dacf75c7af877fa66cc928b5edb82af9bd49922954155ab7b0942694bea4ce44661d9a8736c6885b838210610fb757505050508060085416916001600160401b03199283600a541617600a5583515193855496885b868110610f44575050505116906008541617600855808311610ed9575b50505050565b82811015610ed35781548015610f30576000190190610ef782610c60565b929092610f1c57858355610f146002600194888682015501610c17565b835501610ed9565b634e487b7160e01b86526004869052602486fd5b634e487b7160e01b85526031600452602485fd5b88811015610f735780610f6d610f5d6001938651610282565b51610f6783610c60565b90610c9b565b01610eb6565b610f7e818451610282565b51885483811015610fa35760019291610f678285610f9e94018d55610c60565b610f6d565b634e487b7160e01b8c52604160045260248cfd5b806001918403610fd2575b6003809101930191019091610e89565b805484558180850190838060a01b0390830154166001600160601b0360a01b8254161790556110076002808301908601610698565b610fc2565b600390806003029060038204036101e857876003026003810489036101e85760009060096000527f6e1540171b6c0c960b71a7020d9f60077f6af931a8bbf590da0223dacf75c7af92830192015b82811061106957505050610e3c565b808285925582600182015561108060028201610c17565b0161105a565b8486511685600a5416908181146111735710611162578251926110a8846101fe565b6007546110b48161026b565b916110c18151938461024a565b8183528383019060076000527fa66cc928b5edb82af9bd49922954155ab7b0942694bea4ce44661d9a8736c688906000925b84841061112057505050918552505082015261110f9082611417565b61111b57388080610e12565b505050565b60038760019284516111318161022f565b86548152848060a01b03858801541683820152611150600288016102f3565b868201528152019301930192916110f3565b8251633746be2560e11b8152600490fd5b5050505050505050565b81156107785760005b82811061119257505050565b8060051b820135603e1983360301811215610a16578201604090816111b782806114b8565b6001600160a01b03608081905291013590811690819003610a16576111dc82806114b8565b35916004831015610a16576111f181806114b8565b906020918281013590601e1981360301821215610a165701928335946001600160401b0395868111610a16578486018136038113610a1657611232826105fe565b9661123f8a51988961024a565b82885286833692010111610a1657816000928792838a01378701015285601d54169487519161126d8361022f565b825284820190815287820192835285600052601e85528760002091516004811015610b1e5760ff80198454169116178255600182019051805190888211610219576112bc826106c785546102b9565b8690601f83116001146113525791806112f09260029695946000926109945750508160011b916000199060031b1c19161790565b90555b01906080519051166001600160601b0360a01b82541617905583611316846101d0565b166001600160401b0319601d541617601d550135918216809203610a1657036113425750600101611186565b51631aba532960e21b8152600490fd5b90601f9e9d9c9b9e1983169184600052886000209260005b8181106113af5750919e9f9c9d9e600193918560029897969410611396575b505050811b0190556112f3565b015160001960f88460031b161c19169055388080611389565b92938a60018192878601518155019501930161136a565b919082039182116101e857565b9060018060a01b0382166000526016602052604060002081815491558181146000146113fe57505050565b81111561140e5761033591611899565b61033591611e21565b6001600160401b0390602091808383015116908385015116036105565761143d81612026565b61144684612026565b036105565751805183515103610556576114b16114a5916040519081611476868201928784526040830190610b81565b039161148a601f199384810183528261024a565b51902094516040519384918683019687526040830190610b81565b0390810183528261024a565b5190201490565b903590605e1981360301821215610a16570190565b919060018060a01b03928381166000948186526020916018835261ffff916040978389822054166117ae578360145460081c1684601754161061178c576115126129ea565b6001928382526019808752838b84205416908961152e8361289c565b106116355750508152601b855283898220541661159e5750505050506115997f19fe3ca603e87854a0747cc10abf06bac64d61bac73d6d15f2fd3ca448f152649394611579836123a1565b516001600160a01b03909216825260208201929092529081906040820190565b0390a1565b6115a786612877565b926115b18761289c565b935b81868216116115f7575b505097516001600160a01b039095168552505050506020810191909152909150600080516020612e55833981519152908060408101611599565b808561161686617fff8f95871c1694858852601c8c528720541661289c565b101561162f5790611628839282612b6b565b90506115b3565b506115bd565b92958097959198995060179492945416801561177b578061165861167492612a23565b8861166282610b6d565b1661ffff196017541617601755612bfa565b80865260198552611689828c8820541661289c565b9181938260028a60175416915b611708575b505050505050509682601b6115999593600080516020612e35833981519152999a849652522054166116fa575b6116d184612076565b6116da836123a1565b516001600160a01b03928316815292909116602083015281906040820190565b611703846121f2565b6116c8565b8a8116828111611775578f908381101561175a5750508061172b61173192612063565b90612d6c565b9690965b861115611755576117469087612adc565b61174f866128eb565b84611696565b61169b565b8b52838a528a205490969061177090851661289c565b611735565b5061169b565b8b516340d9b01160e01b8152600490fd5b5050505050611599600080516020612e75833981519152939461157983612076565b979291506117bf8594979695612840565b976117c98561289c565b976117d38a6128eb565b8460175416905b858116828111611874578281101561185857508061172b6117fa92612063565b9b909b5b8b111561181d5761180f908c612adc565b6118188b6128eb565b6117da565b505093516001600160a01b039095168552505050506020810191909152909250600080516020612e1583398151915291508060408101611599565b849c919c526019835261186f85888620541661289c565b6117fe565b505050505050506115999192939550600080516020612e158339815191529450611579565b6001600160a01b03808216600081815260186020526040808220549095949361ffff939184166119c9578360145460081c168460175416106119a9576118dd6129ea565b6001835260196020528683205416856118f58261289c565b1061196757508152601b6020528490205416611939576115997f19fe3ca603e87854a0747cc10abf06bac64d61bac73d6d15f2fd3ca448f1526493611579836123a1565b611599600080516020612e558339815191529361157961195884612877565b6119618561289c565b90612c7e565b9394509185600080516020612e358339815191529692611599946119896120e5565b8152601b6020522054166119a0576116d184612076565b6117038461227d565b50505050611599600080516020612e758339815191529361157983612076565b50505050611599600080516020612e15833981519152936115796119ec84612840565b6119f58561289c565b90612902565b919060018060a01b039182841691600094838652602094601b865261ffff96604095888783205416611cec578082526018885288878320541615611cdb578415611c465750611a4983612840565b97611a538461289c565b985b6001808383161115611c375781617fff911c169081845260198a528a611a7f868b8720541661289c565b1115611a9457611a8f9082612adc565b611a55565b505091939597509193955b81601a541615611c2d57611ab16129ea565b6001916001845260199460198352808a8620541694611acf8661289c565b96611ad86129f8565b60018252601c8552828c8320541697611af08961289c565b11611b3157505098516001600160a01b039096168652505050506020820192909252919250600080516020612e158339815191529190508060408101611599565b9193959750918094969850601754168015611c1c5780611b56611b6092989698612a23565b8761166282610b6d565b6001825260198552611b76838b8420541661289c565b948460019760028160175416925b611baf575b50505050505050505050611599600080516020612e3583398151915293946116c86125c1565b818116838111611c16578e9080851115611bfb5750508061172b611bd292612063565b9990995b891115611bf657611be7908a612adc565b611bf0896128eb565b87611b84565b611b89565b8752858552862054909990611c1190881661289c565b611bd6565b50611b89565b8a516340d9b01160e01b8152600490fd5b5050505050509050565b50509193959750919395611a9f565b879450611c797f4a4c5d1a281180eea1e99d8177fa4798b9f7e019d5c57e7d8d73c6a22199aa5b93969994989298612410565b8651908152a1601a5416611c8d5750505050565b600080516020612e7583398151915293601c8492611ca96129f8565b6001835252205416611ccf611cbd8261289c565b92611cc66125c1565b61157983612076565b0390a138808080610ed3565b8651632a55ca5360e01b8152600490fd5b849698929395979415611de657509192611d0585612877565b93611d0f8661289c565b93859261fffe968795600196879260011b1681601a5416925b611d6b575b50509a516001600160a01b03909816885250505050602084019490945250929350600080516020612e55833981519152925090508060408101611599565b818116838111611de0578e9080851115611dc457505080611d8e611d9492612063565b90612dc3565b9690965b891015611dbf5790611daf88969594939288612b6b565b8987871b16909192939495611d28565b611d2d565b8652601c8552852054909690611ddb90871661289c565b611d98565b50611d2d565b949150507f3168ba660eed6ef1dc2258b2247cc05fd0f2f350d39e6ad2e2ebc76a8000b40b9596929450611e1a91506121f2565b51908152a1565b6001600160a01b038082166000818152601b602090815260408083205490969594919361ffff918216611fbc578084526018855281888520541615611fab578615611f2d5750611e82611e7386612840565b611e7c8761289c565b90612995565b601a541615611f2557611e936129ea565b60018252601983528581818420541692601c611eae8561289c565b95611eb76129f8565b600183525220541691611ec98361289c565b11611efe57505091516001600160a01b0390921682526020820152600080516020612e15833981519152908060408101611599565b91509150611599600080516020612e3583398151915293611f1d6120e5565b6116c8612708565b505050505050565b849193979650611f5e7f4a4c5d1a281180eea1e99d8177fa4798b9f7e019d5c57e7d8d73c6a22199aa5b939661249b565b8651908152a1601a5416611f725750505050565b600080516020612e7583398151915293601c8492611f8e6129f8565b6001835252205416611ccf611fa28261289c565b92611cc6612708565b8751632a55ca5360e01b8152600490fd5b9693925050508315611ff95750600080516020612e55833981519152935061159990611579611fea84612877565b611ff38561289c565b90612ccd565b9250611e1a7f3168ba660eed6ef1dc2258b2247cc05fd0f2f350d39e6ad2e2ebc76a8000b40b949261227d565b805151906000916000915b81831061203e5750505090565b90919261205a600191612052868551610282565b5151906102ac565b93019190612031565b90600161ffff809316019182116101e857565b61033590611e7c61ffff9161208e8360175416612063565b9260018060a01b0382169081600052601860205260406000209085169161ffff199183838254161790558260005260196020526040600020906001600160601b0360a01b825416179055601754161760175561289c565b61ffff806017541680156121e0578061210061210a92612a23565b8261166282610b6d565b60016000818152601960208181527ffc941c3961fb6541da34150022cddf959da0fb2353866a6bfbd249c2da09291454909284926001600160a01b0392604092919061215790851661289c565b9560019860028160175416995b612176575b5050505050505050505050565b8181168a81116121da578a8110156121bf57508061172b61219692612063565b9a909a5b8911156121ba576121ab908b612adc565b6121b48a6128eb565b87612164565b612169565b859b919b528383526121d587878720541661289c565b61219a565b50612169565b6040516340d9b01160e01b8152600490fd5b6121fb90612877565b61ffff9081601a54169161220f8383612b6b565b8061221984610b6d565b1661ffff19601a541617601a5561222f83612c3c565b811680921461077857611ff38261033593600052601c60205260018060a01b0390612269612263836040600020541661289c565b85612c7e565b600052601c6020526040600020541661289c565b61228690612877565b61ffff80601a5416916122998382612b6b565b816122a384610b6d565b1661ffff19601a541617601a556122b983612c3c565b81811680931461111b57600091838352601c602094601c60205260018060a01b03906040906122f66122f08460408a20541661289c565b87612c7e565b8652601c60205261230c8260408820541661289c565b95859361fffe988997600198899160011b1688601a5416915b612338575b505050505050505050505050565b88811682811161239b5782811015612380575080611d8e61235892612063565b9890985b8b101561237b5761236e8a988a612b6b565b979687811b8c1690612325565b61232a565b859991995283835261239687878720541661289c565b61235c565b5061232a565b6103359061196161ffff916123b983601a5416612063565b9260018060a01b0382169081600052601b60205260406000209085169161ffff1991838382541617905582600052601c6020526040600020906001600160601b0360a01b825416179055601a541617601a5561289c565b61241990612840565b61ffff9081601754169161242d8383612adc565b8061243784610b6d565b1661ffff19601754161760175561244d83612bfa565b8116809214610778576119f58261033593600052601960205260018060a01b0390612487612481836040600020541661289c565b85612995565b60005260196020526040600020541661289c565b6124a490612840565b9061ffff908160175416906124b98285612adc565b826124c383610b6d565b1661ffff1960175416176017556124d982612bfa565b8284168092146125bb57600092919291838352601992602094601960205260018060a01b039160409161251a6125148560408520541661289c565b8a612995565b815260196020526125308360408320541661289c565b9561253a896128eb565b978560175416985b8681168a81116125ad578a81101561259257508061172b61256292612063565b9a909a5b89111561258557612577908b612adc565b6125808a6128eb565b612542565b5050505050505092505050565b849b919b528282526125a886868620541661289c565b612566565b505050505050505092505050565b92505050565b61ffff80601a54169081156121e0579060016125df82821115612a06565b6000818152601c60208181526040808420805487865282862080546001600160a01b03928316808952601b8752858920805461ffff199081168d17909155918416808a52868a20805484168c17905588885283546001600160a01b0319908116909217909355898952845416909117909255939692949192612674918961266583610b6d565b1690601a541617601a55612c3c565b848152601c60205261268a83838320541661289c565b9585948660028a601a5416915b6126a8575050505050505050505050565b8a81168281116121da57828110156126ed575080611d8e6126c892612063565b9a909a5b8a10156121ba576126de89988c612b6b565b999687811b61fffe1690612697565b859b919b5283835261270387878720541661289c565b6126cc565b61ffff80601a54169081156121e05790600161272682821115612a06565b6000818152601c60208181526040808420805487865282862080546001600160a01b03928316808952601b8752858920805461ffff199081168d17909155918416808a52868a20805484168c17905588885283546001600160a01b03199081169092179093558989528454169091179092559396929491926127ac918961266583610b6d565b848152601c6020526127c283838320541661289c565b9585948660028a601a5416915b6127e0575050505050505050505050565b8a81168281116121da5782811015612825575080611d8e61280092612063565b9a909a5b8a10156121ba5761281689988c612b6b565b999687811b61fffe16906127cf565b859b919b5283835261283b87878720541661289c565b612804565b6001600160a01b031660009081526018602052604090205461ffff1690811561286557565b60405163f2755e3760e01b8152600490fd5b6001600160a01b03166000908152601b602052604090205461ffff1690811561286557565b60ff601454166003811015610b1e576001036128cd576001600160a01b031660009081526016602052604090205490565b6001600160a01b031660009081526016602052604090206001015490565b60011b906201fffe61fffe8316921682036101e857565b9161290c836128eb565b600061ffff918260175416905b83811682811161298b578281101561296557508061172b61293992612063565b9690965b86111561295c5761294e9087612adc565b612957866128eb565b612919565b50505050915050565b835260196020526040832054909690612986906001600160a01b031661289c565b61293d565b5050505050915050565b9190915b60018061ffff831611156129e45781617fff911c1690836129cf60008481526019602052604060018060a01b039120541661289c565b11156129e4576129df9082612adc565b612999565b50509050565b61ffff60175416156121e057565b61ffff601a5416156121e057565b15612a0d57565b634e487b7160e01b600052600160045260246000fd5b612a4661ffff806017541692612a3c8460011115612a06565b1691821115612a06565b601960208181527ffc941c3961fb6541da34150022cddf959da0fb2353866a6bfbd249c2da09291480546000858152604080822080546001600160a01b0394851680855260188852838520805461ffff19908116909b1790559416808452918320805490981660019081179098559590945284546001600160a01b03199081169092179094559390925281549092169091179055565b612af761ffff808060175416931693612a3c84861115612a06565b6000828152601960208181526040808420805486865282862080546001600160a01b0392831680895260188752858920805461ffff19908116909b1790559216808852938720805490981689179097559390925284546001600160a01b031990811690931790945593909152825416179055565b612b8661ffff8080601a5416931693612a3c84861115612a06565b6000828152601c60208181526040808420805486865282862080546001600160a01b03928316808952601b8752858920805461ffff19908116909b1790559216808852938720805490981689179097559390925284546001600160a01b031990811690931790945593909152825416179055565b61ffff16600090815260196020908152604080832080546001600160a01b031981169091556001600160a01b0316835260189091529020805461ffff19169055565b61ffff166000908152601c6020908152604080832080546001600160a01b031981169091556001600160a01b03168352601b9091529020805461ffff19169055565b9190915b60018061ffff831611156129e45781617fff911c169083612cb86000848152601c602052604060018060a01b039120541661289c565b10156129e457612cc89082612b6b565b612c82565b9061fffe91600190838160011b169060008361ffff9384601a5416915b612cf8575050505050505050565b848116828111612d665782811015612d40575080611d8e612d1892612063565b9490945b871015612d3b57612d2e869486612b6b565b939283811b881690612cea565b611173565b8352601c6020526040832054909490612d61906001600160a01b031661289c565b612d1c565b50611173565b919061ffff8084166000526019602052612dad60018060a01b03612d96816040600020541661289c565b92841660005260196020526040600020541661289c565b9384821115612dbc5750509190565b9350919050565b91909161ffff92838216600052601c602052612e0660018060a01b03612def816040600020541661289c565b958316600052601c6020526040600020541661289c565b90818510612dbc575050919056fe143db27bc2036653dc6f962ff9d0b803163d4af50c256ca9e6927b3d6dcd0197faeb8de771b867cf357f6b459a7002b62ec45d544a8078a3ecd91200cc826d75da148fac2e1063174be7bc0895576bdaba90fd14e575463fa26a967cb895cadd2e8038f5812f763c6ef0c5427cb5a05ce6d7064af2ba7d1d270bc02660b019fda2646970667358221220aacc82969bb0357ec5dadde27bd9df6e73163f22a0c5405fc3437ea86b131d5764736f6c63430008170033",
  "linkReferences": {
    "contracts/lib/AccountHelper.sol": {
      "AccountHelper": [
        {
          "length": 20,
          "start": 1429
        }
      ]
    }
  },
  "deployedLinkReferences": {
    "contracts/lib/AccountHelper.sol": {
      "AccountHelper": [
        {
          "length": 20,
          "start": 1401
        }
      ]
    }
  }
}