{"abi":[{"type":"function","name":"commonParent","inputs":[{"name":"subnet1","type":"tuple","internalType":"struct SubnetID","components":[{"name":"root","type":"uint64","internalType":"uint64"},{"name":"route","type":"address[]","internalType":"address[]"}]},{"name":"subnet2","type":"tuple","internalType":"struct SubnetID","components":[{"name":"root","type":"uint64","internalType":"uint64"},{"name":"route","type":"address[]","internalType":"address[]"}]}],"outputs":[{"name":"","type":"tuple","internalType":"struct SubnetID","components":[{"name":"root","type":"uint64","internalType":"uint64"},{"name":"route","type":"address[]","internalType":"address[]"}]}],"stateMutability":"pure"},{"type":"function","name":"createSubnetId","inputs":[{"name":"subnet","type":"tuple","internalType":"struct SubnetID","components":[{"name":"root","type":"uint64","internalType":"uint64"},{"name":"route","type":"address[]","internalType":"address[]"}]},{"name":"actor","type":"address","internalType":"address"}],"outputs":[{"name":"newSubnet","type":"tuple","internalType":"struct SubnetID","components":[{"name":"root","type":"uint64","internalType":"uint64"},{"name":"route","type":"address[]","internalType":"address[]"}]}],"stateMutability":"pure"},{"type":"function","name":"down","inputs":[{"name":"subnet1","type":"tuple","internalType":"struct SubnetID","components":[{"name":"root","type":"uint64","internalType":"uint64"},{"name":"route","type":"address[]","internalType":"address[]"}]},{"name":"subnet2","type":"tuple","internalType":"struct SubnetID","components":[{"name":"root","type":"uint64","internalType":"uint64"},{"name":"route","type":"address[]","internalType":"address[]"}]}],"outputs":[{"name":"","type":"tuple","internalType":"struct SubnetID","components":[{"name":"root","type":"uint64","internalType":"uint64"},{"name":"route","type":"address[]","internalType":"address[]"}]}],"stateMutability":"pure"},{"type":"function","name":"equals","inputs":[{"name":"subnet1","type":"tuple","internalType":"struct SubnetID","components":[{"name":"root","type":"uint64","internalType":"uint64"},{"name":"route","type":"address[]","internalType":"address[]"}]},{"name":"subnet2","type":"tuple","internalType":"struct SubnetID","components":[{"name":"root","type":"uint64","internalType":"uint64"},{"name":"route","type":"address[]","internalType":"address[]"}]}],"outputs":[{"name":"","type":"bool","internalType":"bool"}],"stateMutability":"pure"},{"type":"function","name":"getActor","inputs":[{"name":"subnet","type":"tuple","internalType":"struct SubnetID","components":[{"name":"root","type":"uint64","internalType":"uint64"},{"name":"route","type":"address[]","internalType":"address[]"}]}],"outputs":[{"name":"","type":"address","internalType":"address"}],"stateMutability":"pure"},{"type":"function","name":"getAddress","inputs":[{"name":"subnet","type":"tuple","internalType":"struct SubnetID","components":[{"name":"root","type":"uint64","internalType":"uint64"},{"name":"route","type":"address[]","internalType":"address[]"}]}],"outputs":[{"name":"","type":"address","internalType":"address"}],"stateMutability":"pure"},{"type":"function","name":"getParentSubnet","inputs":[{"name":"subnet","type":"tuple","internalType":"struct SubnetID","components":[{"name":"root","type":"uint64","internalType":"uint64"},{"name":"route","type":"address[]","internalType":"address[]"}]}],"outputs":[{"name":"","type":"tuple","internalType":"struct SubnetID","components":[{"name":"root","type":"uint64","internalType":"uint64"},{"name":"route","type":"address[]","internalType":"address[]"}]}],"stateMutability":"pure"},{"type":"function","name":"isEmpty","inputs":[{"name":"subnetId","type":"tuple","internalType":"struct SubnetID","components":[{"name":"root","type":"uint64","internalType":"uint64"},{"name":"route","type":"address[]","internalType":"address[]"}]}],"outputs":[{"name":"","type":"bool","internalType":"bool"}],"stateMutability":"pure"},{"type":"function","name":"isRoot","inputs":[{"name":"subnet","type":"tuple","internalType":"struct SubnetID","components":[{"name":"root","type":"uint64","internalType":"uint64"},{"name":"route","type":"address[]","internalType":"address[]"}]}],"outputs":[{"name":"","type":"bool","internalType":"bool"}],"stateMutability":"pure"},{"type":"function","name":"toHash","inputs":[{"name":"subnet","type":"tuple","internalType":"struct SubnetID","components":[{"name":"root","type":"uint64","internalType":"uint64"},{"name":"route","type":"address[]","internalType":"address[]"}]}],"outputs":[{"name":"","type":"bytes32","internalType":"bytes32"}],"stateMutability":"pure"},{"type":"function","name":"toString","inputs":[{"name":"subnet","type":"tuple","internalType":"struct SubnetID","components":[{"name":"root","type":"uint64","internalType":"uint64"},{"name":"route","type":"address[]","internalType":"address[]"}]}],"outputs":[{"name":"","type":"string","internalType":"string"}],"stateMutability":"pure"},{"type":"error","name":"DifferentRootNetwork","inputs":[]},{"type":"error","name":"EmptySubnet","inputs":[]},{"type":"error","name":"InvalidRoute","inputs":[]},{"type":"error","name":"NoAddressForRoot","inputs":[]},{"type":"error","name":"NoParentForSubnet","inputs":[]},{"type":"error","name":"StringsInsufficientHexLength","inputs":[{"name":"value","type":"uint256","internalType":"uint256"},{"name":"length","type":"uint256","internalType":"uint256"}]}],"bytecode":{"object":"0x60808060405234601957610f56908161001f823930815050f35b600080fdfe6080604052600436101561001257600080fd5b60003560e01c8063089032d51461075f578063118e84ee146106b3578063138e13fc1461065f578063399912661461063e57806359feac42146106195780636099e898146105d3578063862a88f81461058b57806390ba52cf14610570578063aa5106cb1461046a578063c836244d1461044c5763e4ebe92c1461009557600080fd5b61009e36610ad6565b6001600160401b036100af82610b46565b168060009172184f03e93ff9f4daa797ed6e38ed64bf6a1f0160401b821015610429575b806d04ee2d6d415b85acef8100000000600a92101561040e575b662386f26fc100008110156103fa575b6305f5e1008110156103e9575b6127108110156103da575b60648110156103cc575b10156103c2575b6001820190600a602161015161013b85610f05565b9461014960405196876109aa565b808652610f05565b602085019590601f19013687378401015b60001901916f181899199a1a9b1b9c1cb0b131b232b360811b8282061a83530490811561019157600a90610162565b846101b96101ca602286886040519485926117b960f11b602085015251809285850190610b09565b81010301601f1981018352826109aa565b9060208101906101da8282610b5a565b6000939091506040906060905b8386106102205786604080518092602082526102128151809281602086015260208686019101610b09565b601f01601f19168101030190f35b909192939495604051906102616001602084816102468183019687815193849201610b09565b8101602f60f81b838201520301601e198101855201836109aa565b87610286610281610272868b610b5a565b6001600160a01b039491610b8f565b610b9f565b6040519116918261029787846109aa565b602a83526020830193883686378351156103ac57603085538351600110156103ac576078602185015360295b60018111610338575061031f57509260206102f4936103139361030360019760405197889651809287890190610b09565b85019151809385840190610b09565b010103601f1981018352826109aa565b960194939291906101e7565b63e22e27eb60e01b600052600452601460245260446000fd5b90600f811660108110156103ac576000865184101561039857506f181899199a1a9b1b9c1cb0b131b232b360811b901a8583016020015360041c90801561038257600019016102c3565b634e487b7160e01b600052601160045260246000fd5b634e487b7160e01b81526032600452602490fd5b634e487b7160e01b600052603260045260246000fd5b9060010190610126565b60646002910493019261011f565b61271060049104930192610115565b6305f5e1006008910493019261010a565b662386f26fc10000601091049301926100fd565b6d04ee2d6d415b85acef8100000000602091049301926100ed565b506040915072184f03e93ff9f4daa797ed6e38ed64bf6a1f0160401b81046100d3565b602061046061045a366108c3565b90610ea8565b6040519015158152f35b604036600319011261056b576004356001600160401b03811161056b5780600401906040600319823603011261056b576024356001600160a01b038116929083900361056b5760246104ba610b2c565b926001600160401b036104cc84610b46565b168452016104da8183610b5a565b91905060018201808311610382576104f190610bb3565b926020850193845260005b838110610536575050505051918251926000198401938411610382576105329361052591610be5565b526040519182918261091a565b0390f35b8061055061028160019361054a8787610b5a565b90610b8f565b61055b828851610be5565b90838060a01b03169052016104fc565b600080fd5b602061058361057e36610ad6565b610de5565b604051908152f35b602061059636610ad6565b6105a282820182610b5a565b90501590816105b7575b506040519015158152f35b6001600160401b0391506105ca90610b46565b161515826105ac565b60206105de36610ad6565b6105ea82820182610b5a565b90501590816105fe57506040519015158152f35b6001600160401b03915061061190610b46565b1615826105ac565b602061062c61062736610ad6565b610d96565b6040516001600160a01b039091168152f35b61053261065361064d366108c3565b90610bf9565b6040519182918261091a565b602061066a36610a0a565b018051519081156106a257516000198201918211610382576020916001600160a01b03916106989190610be5565b5116604051908152f35b63142b83b360e31b60005260046000fd5b6106bc36610a0a565b6106c4610b2c565b5060208101908151511561074e578151516000198101908111610382576106ea90610bb3565b90815160005b81811061072757610532846001600160401b03855116906040519161071483610979565b825260208201526040519182918261091a565b600190818060a01b0361073b828851610be5565b51166107478287610be5565b52016106f0565b632f10c6c160e01b60005260046000fd5b610768366108c3565b610770610b2c565b5061077a82610b46565b6001600160401b038061078c84610b46565b169116036108b25760208201916107a38382610b5a565b6020840191506107b38285610b5a565b91905011156108a1576000926107c98282610b5a565b9490505b8481108061086b575b156107e3576001016107cd565b8386916000198114610382576001016107fb81610bb3565b9260005b82811061083d576105328561081386610b46565b906001600160401b036040519261082984610979565b16825260208201526040519182918261091a565b8061085161028160019361054a8689610b5a565b61085b8288610be5565b90838060a01b03169052016107ff565b5061087d6102818261054a8988610b5a565b8161088e6102816102728787610b5a565b6001600160a01b039092169116146107d6565b63427282e960e11b60005260046000fd5b637185935560e01b60005260046000fd5b90604060031983011261056b576004356001600160401b03811161056b576040818403600319011261056b5760040191602435906001600160401b03821161056b57604090829003600319011261056b5760040190565b9060208252602060808160608501936001600160401b038151168287015201519360408082015284518094520192019060005b81811061095a5750505090565b82516001600160a01b031684526020938401939092019160010161094d565b604081019081106001600160401b0382111761099457604052565b634e487b7160e01b600052604160045260246000fd5b90601f801991011681019081106001600160401b0382111761099457604052565b35906001600160401b038216820361056b57565b6001600160401b0381116109945760051b60200190565b35906001600160a01b038216820361056b57565b602060031982011261056b57600435906001600160401b03821161056b576040828203600319011261056b5760405191610a4383610979565b610a4f816004016109cb565b83526024810135906001600160401b03821161056b5701908060238301121561056b576004820135610a80816109df565b92610a8e60405194856109aa565b818452602060048186019360051b8301010192831161056b57602401905b828210610abe57505050602082015290565b60208091610acb846109f6565b815201910190610aac565b602060031982011261056b57600435906001600160401b03821161056b57604090829003600319011261056b5760040190565b60005b838110610b1c5750506000910152565b8181015183820152602001610b0c565b60405190610b3982610979565b6060602083600081520152565b356001600160401b038116810361056b5790565b903590601e198136030182121561056b57018035906001600160401b03821161056b57602001918160051b3603831361056b57565b91908110156103ac5760051b0190565b356001600160a01b038116810361056b5790565b90610bbd826109df565b610bca60405191826109aa565b8281528092610bdb601f19916109df565b0190602036910137565b80518210156103ac5760209160051b010190565b90610c02610b2c565b50610c0c82610b46565b6001600160401b0380610c1e84610b46565b16911603610d65579060208101906000610c388383610b5a565b60208601959150610c498683610b5a565b9390505b81811080610d5c575b80610d26575b15610c6957600101610c4d565b939495505050508015610ce557610c7f81610bb3565b9260005b828110610cb757505050610c9690610b46565b906001600160401b0360405192610cac84610979565b168252602082015290565b80610ccb61028160019361054a8689610b5a565b610cd58288610be5565b90838060a01b0316905201610c83565b50610cf09150610b46565b6040516020610cff81836109aa565b6000825260003681376001600160401b0360405193610d1d85610979565b16835282015290565b50610d386102818261054a8989610b5a565b81610d496102816102728b88610b5a565b6001600160a01b03909216911614610c5c565b50838110610c56565b50506020604051610d7682826109aa565b60008152600036813760405191610d8c83610979565b6000835282015290565b6020810190610da58282610b5a565b905015610dde57610dc1610db98383610b5a565b939092610b5a565b60001981019150811161038257610ddb9261028192610b8f565b90565b5050600090565b60405160208101916020835260808201906001600160401b03610e07826109cb565b1660408401526020810135601e198236030181121561056b5701602081359101916001600160401b03821161056b578160051b3603831361056b5760406060850152819052829060a082019060005b818110610e78575050610e72925003601f1981018352826109aa565b51902090565b9092509060019060209081906001600160a01b03610e95886109f6565b1681520194019101918492939193610e56565b610eb181610b46565b6001600160401b0380610ec385610b46565b16911603610dde57610ed86020820182610b5a565b9050610ee76020840184610b5a565b91905003610dde57610efb610f0191610de5565b91610de5565b1490565b6001600160401b03811161099457601f01601f19166020019056fea26469706673582212206a9bcf15f113af1ac2c86ee7dbcb4ecd797ed083e10604929da0225b47e1df7164736f6c634300081a0033","linkReferences":{}},"methodIdentifiers":{"commonParent(SubnetID,SubnetID)":"39991266","createSubnetId(SubnetID,address)":"aa5106cb","down(SubnetID,SubnetID)":"089032d5","equals(SubnetID,SubnetID)":"c836244d","getActor(SubnetID)":"59feac42","getAddress(SubnetID)":"138e13fc","getParentSubnet(SubnetID)":"118e84ee","isEmpty(SubnetID)":"6099e898","isRoot(SubnetID)":"862a88f8","toHash(SubnetID)":"90ba52cf","toString(SubnetID)":"e4ebe92c"},"id":40}