{
  "_format": "hh-sol-artifact-1",
  "contractName": "FvmAddressHelper",
  "sourceName": "contracts/lib/FvmAddressHelper.sol",
  "abi": [
    {
      "inputs": [],
      "name": "NotDelegatedEvmAddress",
      "type": "error"
    },
    {
      "inputs": [],
      "name": "DELEGATED",
      "outputs": [
        {
          "internalType": "uint8",
          "name": "",
          "type": "uint8"
        }
      ],
      "stateMutability": "view",
      "type": "function"
    },
    {
      "inputs": [],
      "name": "EAM_ACTOR",
      "outputs": [
        {
          "internalType": "uint64",
          "name": "",
          "type": "uint64"
        }
      ],
      "stateMutability": "view",
      "type": "function"
    },
    {
      "inputs": [],
      "name": "PAYLOAD_HASH_LEN",
      "outputs": [
        {
          "internalType": "uint8",
          "name": "",
          "type": "uint8"
        }
      ],
      "stateMutability": "view",
      "type": "function"
    },
    {
      "inputs": [],
      "name": "SECP256K1",
      "outputs": [
        {
          "internalType": "uint8",
          "name": "",
          "type": "uint8"
        }
      ],
      "stateMutability": "view",
      "type": "function"
    }
  ],
  "bytecode": "0x608080604052346100195760db908161001f823930815050f35b600080fdfe6080806040526004361015601257600080fd5b600090813560e01c9081635279ff9914608c575080639c6e06c0146076578063ab528f211460605763cf8e4a6e14604857600080fd5b80600319360112605d57602060405160148152f35b80fd5b5080600319360112605d57602060405160018152f35b5080600319360112605d57602060405160048152f35b90508160031936011260a15780600a60209252f35b5080fdfea2646970667358221220775d6a848e67129dfea0fb0d49fdb54ae632d9846c552a6085d67d574e7b45d764736f6c63430008170033",
  "linkReferences": {},
  "deployedLinkReferences": {}
}