{"abi":[{"type":"constructor","inputs":[{"name":"_gw","type":"address","internalType":"contract GatewayDiamond"}],"stateMutability":"nonpayable"},{"type":"receive","stateMutability":"payable"},{"type":"function","name":"register","inputs":[{"name":"amount","type":"uint256","internalType":"uint256"}],"outputs":[],"stateMutability":"nonpayable"},{"type":"function","name":"stake","inputs":[{"name":"amount","type":"uint256","internalType":"uint256"}],"outputs":[],"stateMutability":"nonpayable"}],"bytecode":{"object":"0x608080604052346100eb57600090602081610587803803809161002282856100f0565b8339810103126100e757516001600160a01b038116908190036100e757600f80546001600160a01b031916919091179055737109709ecfa91a80626ff3989d68f67f5b1dd12d3b156100e45760405163c88a5e6d60e01b81523060048201526a6b31bffa03c1c535c000006024820152818160448183737109709ecfa91a80626ff3989d68f67f5b1dd12d5af180156100d9576100c9575b60405161045d908161012a8239f35b816100d3916100f0565b386100ba565b6040513d84823e3d90fd5b80fd5b5080fd5b600080fd5b601f909101601f19168101906001600160401b0382119082101761011357604052565b634e487b7160e01b600052604160045260246000fdfe6080604052600436101561001b575b361561001957600080fd5b005b6000803560e01c8063a694fc3a146100c35763f207564e1461003d575061000e565b346100b15760203660031901126100b1578061005a600435610176565b600f546001600160a01b031690813b156100bf578291604483926040519485938492630d66d6c160e41b845260048401528160248401525af180156100b4576100a05750f35b816100aa9161013e565b6100b15780f35b80fd5b6040513d84823e3d90fd5b5050fd5b50346100b15760203660031901126100b1576100e0600435610176565b600f5482906001600160a01b0316803b1561013a57819060246040518095819363eb4f16b560e01b83528160048401525af1801561012d5761011f5780f35b6101289161013e565b388180f35b50604051903d90823e3d90fd5b5080fd5b90601f8019910116810190811067ffffffffffffffff82111761016057604052565b634e487b7160e01b600052604160045260246000fd5b6801a055690d9db80000600061018b9261029a565b906040516040810181811067ffffffffffffffff82111761016057604052600c81526b109bdd5b990814995cdd5b1d60a21b60208201526040516020810191632d839cb360e21b83526040602483015280519081606484015260005b82811061023457505091816102216084828660008381998299010152896044830152601f801991011681010301601f19810183528261013e565b51906a636f6e736f6c652e6c6f675afa50565b80602080928401015160848287010152016101e7565b9190820391821161025757565b634e487b7160e01b600052601160045260246000fd5b9190820180921161025757565b8115610284570690565b634e487b7160e01b600052601260045260246000fd5b6000908383116103bc57828110918215806103b2575b6103aa576102be848661024a565b9260018401809411610257576003831115806103a1575b6103925760031983101580610388575b610374578583111561032b57505090610301846103069361024a565b61027a565b90811561032657610317925061026d565b60001981019081116102575790565b505090565b95949291909561033c575b50505050565b839495506103019061034e939461024a565b9081156103265761035f925061024a565b60018101809111610257579038808080610336565b50509050610385929150199061024a565b90565b50821984116102e5565b5050919050610385925061026d565b508284116102d5565b509250505090565b50848211156102b0565b60405162461bcd60e51b815260206004820152603e60248201527f5374645574696c7320626f756e642875696e743235362c75696e743235362c7560448201527f696e74323536293a204d6178206973206c657373207468616e206d696e2e00006064820152608490fdfea2646970667358221220b7c29fe60b0d4a373edac6babcdf7bde5ff038ca84d4790a0074a9a10fc850e864736f6c634300081a0033","linkReferences":{}},"methodIdentifiers":{"register(uint256)":"f207564e","stake(uint256)":"a694fc3a"},"id":139}