{
  "_format": "hh-sol-artifact-1",
  "contractName": "SubnetActorRewardFacet",
  "sourceName": "contracts/subnet/SubnetActorRewardFacet.sol",
  "abi": [
    {
      "inputs": [],
      "name": "EnforcedPause",
      "type": "error"
    },
    {
      "inputs": [],
      "name": "ExpectedPause",
      "type": "error"
    },
    {
      "inputs": [],
      "name": "NoCollateralToWithdraw",
      "type": "error"
    },
    {
      "inputs": [],
      "name": "NotEnoughBalance",
      "type": "error"
    },
    {
      "inputs": [],
      "name": "ReentrancyError",
      "type": "error"
    },
    {
      "anonymous": false,
      "inputs": [
        {
          "indexed": false,
          "internalType": "address",
          "name": "validator",
          "type": "address"
        },
        {
          "indexed": false,
          "internalType": "uint256",
          "name": "amount",
          "type": "uint256"
        }
      ],
      "name": "CollateralClaimed",
      "type": "event"
    },
    {
      "anonymous": false,
      "inputs": [
        {
          "indexed": false,
          "internalType": "address",
          "name": "account",
          "type": "address"
        }
      ],
      "name": "Paused",
      "type": "event"
    },
    {
      "anonymous": false,
      "inputs": [
        {
          "indexed": false,
          "internalType": "address",
          "name": "account",
          "type": "address"
        }
      ],
      "name": "Unpaused",
      "type": "event"
    },
    {
      "inputs": [],
      "name": "claim",
      "outputs": [],
      "stateMutability": "nonpayable",
      "type": "function"
    }
  ],
  "bytecode": "0x60808060405234610016576104ae908161001c8239f35b600080fdfe608060408181526004918236101561001657600080fd5b600091823560e01c634e71d92d1461002d57600080fd5b346102715782600319360112610271576001907f691bb03ffc16c56fc96b82fd16cd1b3715f0bc3cdc6407005f49bb62058600959282845414610263575081835560ff7fc451c9429c27db68f286ab8a68f311f1dccab703ba9423aed29cd397ae63f86354166102545733600090815260176020526040902080549261ffff9081851694851561024457918091939260101c16908590848997818601915b6101a2575b505063ffff000094508354911693849260101b169063ffffffff1916171790551561018b575b8051338152602081018390527f197c586353eaed0a1c53e6e540445b94befab8f932c8115d112115ecbeeed51490604090a181610135575b8380845580f35b5161013f81610275565b60085460ff8116600281101561017857825260081c6001600160a01b031660208201529293508392610173919033906102c9565b61012e565b634e487b7160e01b865260218752602486fd5b3360009081526017602052604090208490556100f6565b90919294959383811698828a10156102375788908a8d528c6020928391878352208b516101ce81610275565b8982549283835201549283910152431061022857810180911161021457998c52839052878b208b815585018b9055939594938601831693600019018316929190866100cb565b50634e487b7160e01b8c5260118d5260248cfd5b509950509386959392506100d0565b98509386959392506100d0565b84516364b0557f60e01b81528990fd5b5163d93c066560e01b81528490fd5b6329f745a760e01b81528590fd5b8280fd5b6040810190811067ffffffffffffffff82111761029157604052565b634e487b7160e01b600052604160045260246000fd5b90601f8019910116810190811067ffffffffffffffff82111761029157604052565b929190600080946060908051600281101561042457610352575050508147106103405783918291829182916001600160a01b03165af1610307610438565b50604051926020840184811067ffffffffffffffff82111761032c5760405283529190565b634e487b7160e01b82526041600452602482fd5b60405163569d45cf60e11b8152600490fd5b8096929695949195516002811015610410576001146103715750505050565b602090810151604080516001600160a01b039687168185015280820194909452835291965093945090929116906103a96060866102a7565b60405194602086019163a9059cbb60e01b8352815191855b8381106103fc57505050856103ec6024828798999488950185838201520360048101845201826102a7565b51925af1906103f9610438565b90565b8181018301518982016024015282016103c1565b634e487b7160e01b84526021600452602484fd5b634e487b7160e01b88526021600452602488fd5b3d15610473573d9067ffffffffffffffff82116102915760405191610467601f8201601f1916602001846102a7565b82523d6000602084013e565b60609056fea26469706673582212207cbcee5250a7b99537c05723d024a2bd4e261d5b528bd3e8ae21f3c8f8ca99cb64736f6c63430008170033",
  "linkReferences": {},
  "deployedLinkReferences": {}
}