{"abi":[{"type":"function","name":"applyMsg","inputs":[{"name":"arrivingFrom","type":"tuple","internalType":"struct SubnetID","components":[{"name":"root","type":"uint64","internalType":"uint64"},{"name":"route","type":"address[]","internalType":"address[]"}]},{"name":"crossMsg","type":"tuple","internalType":"struct IpcEnvelope","components":[{"name":"kind","type":"uint8","internalType":"enum IpcMsgKind"},{"name":"to","type":"tuple","internalType":"struct IPCAddress","components":[{"name":"subnetId","type":"tuple","internalType":"struct SubnetID","components":[{"name":"root","type":"uint64","internalType":"uint64"},{"name":"route","type":"address[]","internalType":"address[]"}]},{"name":"rawAddress","type":"tuple","internalType":"struct FvmAddress","components":[{"name":"addrType","type":"uint8","internalType":"uint8"},{"name":"payload","type":"bytes","internalType":"bytes"}]}]},{"name":"from","type":"tuple","internalType":"struct IPCAddress","components":[{"name":"subnetId","type":"tuple","internalType":"struct SubnetID","components":[{"name":"root","type":"uint64","internalType":"uint64"},{"name":"route","type":"address[]","internalType":"address[]"}]},{"name":"rawAddress","type":"tuple","internalType":"struct FvmAddress","components":[{"name":"addrType","type":"uint8","internalType":"uint8"},{"name":"payload","type":"bytes","internalType":"bytes"}]}]},{"name":"nonce","type":"uint64","internalType":"uint64"},{"name":"value","type":"uint256","internalType":"uint256"},{"name":"message","type":"bytes","internalType":"bytes"}]}],"outputs":[],"stateMutability":"nonpayable"},{"type":"function","name":"getNextBottomUpMsgBatch","inputs":[],"outputs":[{"name":"batch","type":"tuple","internalType":"struct BottomUpMsgBatch","components":[{"name":"subnetID","type":"tuple","internalType":"struct SubnetID","components":[{"name":"root","type":"uint64","internalType":"uint64"},{"name":"route","type":"address[]","internalType":"address[]"}]},{"name":"blockHeight","type":"uint256","internalType":"uint256"},{"name":"msgs","type":"tuple[]","internalType":"struct IpcEnvelope[]","components":[{"name":"kind","type":"uint8","internalType":"enum IpcMsgKind"},{"name":"to","type":"tuple","internalType":"struct IPCAddress","components":[{"name":"subnetId","type":"tuple","internalType":"struct SubnetID","components":[{"name":"root","type":"uint64","internalType":"uint64"},{"name":"route","type":"address[]","internalType":"address[]"}]},{"name":"rawAddress","type":"tuple","internalType":"struct FvmAddress","components":[{"name":"addrType","type":"uint8","internalType":"uint8"},{"name":"payload","type":"bytes","internalType":"bytes"}]}]},{"name":"from","type":"tuple","internalType":"struct IPCAddress","components":[{"name":"subnetId","type":"tuple","internalType":"struct SubnetID","components":[{"name":"root","type":"uint64","internalType":"uint64"},{"name":"route","type":"address[]","internalType":"address[]"}]},{"name":"rawAddress","type":"tuple","internalType":"struct FvmAddress","components":[{"name":"addrType","type":"uint8","internalType":"uint8"},{"name":"payload","type":"bytes","internalType":"bytes"}]}]},{"name":"nonce","type":"uint64","internalType":"uint64"},{"name":"value","type":"uint256","internalType":"uint256"},{"name":"message","type":"bytes","internalType":"bytes"}]}]}],"stateMutability":"view"},{"type":"function","name":"registerSubnet","inputs":[{"name":"subnet","type":"tuple","internalType":"struct SubnetID","components":[{"name":"root","type":"uint64","internalType":"uint64"},{"name":"route","type":"address[]","internalType":"address[]"}]}],"outputs":[],"stateMutability":"nonpayable"},{"type":"function","name":"setSubnet","inputs":[{"name":"subnet","type":"tuple","internalType":"struct SubnetID","components":[{"name":"root","type":"uint64","internalType":"uint64"},{"name":"route","type":"address[]","internalType":"address[]"}]},{"name":"bottomUpPeriod","type":"uint256","internalType":"uint256"}],"outputs":[],"stateMutability":"nonpayable"},{"type":"event","name":"NewBottomUpMsgBatch","inputs":[{"name":"epoch","type":"uint256","indexed":true,"internalType":"uint256"}],"anonymous":false},{"type":"event","name":"NewTopDownMessage","inputs":[{"name":"subnet","type":"address","indexed":true,"internalType":"address"},{"name":"message","type":"tuple","indexed":false,"internalType":"struct IpcEnvelope","components":[{"name":"kind","type":"uint8","internalType":"enum IpcMsgKind"},{"name":"to","type":"tuple","internalType":"struct IPCAddress","components":[{"name":"subnetId","type":"tuple","internalType":"struct SubnetID","components":[{"name":"root","type":"uint64","internalType":"uint64"},{"name":"route","type":"address[]","internalType":"address[]"}]},{"name":"rawAddress","type":"tuple","internalType":"struct FvmAddress","components":[{"name":"addrType","type":"uint8","internalType":"uint8"},{"name":"payload","type":"bytes","internalType":"bytes"}]}]},{"name":"from","type":"tuple","internalType":"struct IPCAddress","components":[{"name":"subnetId","type":"tuple","internalType":"struct SubnetID","components":[{"name":"root","type":"uint64","internalType":"uint64"},{"name":"route","type":"address[]","internalType":"address[]"}]},{"name":"rawAddress","type":"tuple","internalType":"struct FvmAddress","components":[{"name":"addrType","type":"uint8","internalType":"uint8"},{"name":"payload","type":"bytes","internalType":"bytes"}]}]},{"name":"nonce","type":"uint64","internalType":"uint64"},{"name":"value","type":"uint256","internalType":"uint256"},{"name":"message","type":"bytes","internalType":"bytes"}]}],"anonymous":false},{"type":"error","name":"CannotSendCrossMsgToItself","inputs":[]},{"type":"error","name":"InvalidXnetMessage","inputs":[{"name":"reason","type":"uint8","internalType":"enum InvalidXnetMessageReason"}]},{"type":"error","name":"MethodNotAllowed","inputs":[{"name":"reason","type":"string","internalType":"string"}]},{"type":"error","name":"NotRegisteredSubnet","inputs":[]}],"bytecode":{"object":"0x60808060405234601557612b0d908161001b8239f35b600080fdfe608080604052600436101561001357600080fd5b60003560e01c9081634b8e4e8f146104a157508063830238c31461039757806397c2cd8b146102595763c8251fe81461004b57600080fd5b34610205576040366003190112610205576004356001600160401b0381116102055761007b903690600401610808565b6001600160401b038151166001600160401b03196012541617601255602081019081518051906001600160401b0382116101c457600160401b82116101c4576020906013548360135580841061023b575b50016013600052602060002060005b83811061021e578585602435600155604051906390ba52cf60e01b8252602060048301526020828061011060248201856105fd565b038173__$3fbe32418a9ca7804328967972fb037388$__5af48015610212576000906101da575b60059250600052602080526001600160401b0360406000209151166001600160401b036004830191166001600160401b03198254161790550190518051906001600160401b0382116101c4576020906101908385610beb565b019160005260206000209160005b8281106101a757005b81516001600160a01b03168185015560209091019060010161019e565b634e487b7160e01b600052604160045260246000fd5b506020823d60201161020a575b816101f4602093836107bc565b810103126102055760059151610137565b600080fd5b3d91506101e7565b6040513d6000823e3d90fd5b82516001600160a01b0316818301556020909201916001016100db565b61025390601360005284846000209182019101610bd4565b386100cc565b34610205576020366003190112610205576004356001600160401b03811161020557610289903690600401610808565b6040516390ba52cf60e01b815260206004820181905281806102ae60248201866105fd565b038173__$3fbe32418a9ca7804328967972fb037388$__5af490811561021257600091610365575b50600052602080526020600560406000206001600160401b038451166001600160401b036004830191166001600160401b0319825416179055019101518051906001600160401b0382116101c4576020906103318385610beb565b019160005260206000209160005b82811061034857005b81516001600160a01b03168185015560209091019060010161033f565b90506020813d60201161038f575b81610380602093836107bc565b810103126102055751826102d6565b3d9150610373565b34610205576040366003190112610205576004356001600160401b038111610205576103c7903690600401610808565b602435906001600160401b0382116102055760c0600319833603011261020557604051906103f482610786565b8260040135600381101561020557825260248301356001600160401b038111610205576104279060043691860101610915565b602083015260448301356001600160401b0381116102055761044f9060043691860101610915565b6040830152610460606484016107dd565b60608301526084830135608083015260a48301356001600160401b0381116102055761049f93600461049592369201016108ce565b60a0830152611263565b005b34610205576000366003190112610205576040816104c060609361076b565b6104c86109b2565b81526000602082015201526104df60015443610c1f565b60005260246020526040600020604051906104f98261076b565b610502816109cc565b825260036002820154916020840192835201805461051f816107f1565b9161052d60405193846107bc565b818352602083019060005260206000206000915b8383106105df576105718787876040830190815260405193849360208552516060602086015260808501906105fd565b915160408401525190601f19838203016060840152815180825260208201916020808360051b8301019401926000915b8383106105ae5786860387f35b9193955091936020806105cd600193601f1986820301875289516106fc565b970193019301909286959492936105a1565b600c60206001926105ef85610b64565b815201920192019190610541565b602060608160408501936001600160401b03815116865201519360408382015284518094520192019060005b8181106106365750505090565b82516001600160a01b0316845260209384019390920191600101610629565b6003111561065f57565b634e487b7160e01b600052602160045260246000fd5b60005b8381106106885750506000910152565b8181015183820152602001610678565b906020916106b181518092818552858086019101610675565b601f01601f1916010190565b604060206106f993816106d78551858452858401906105fd565b940151908281860391015260ff81511684520151918160208201520190610698565b90565b6106f991815161070b81610655565b815260a061073d61072b602085015160c0602086015260c08501906106bd565b604085015184820360408601526106bd565b926001600160401b0360608201511660608401526080810151608084015201519060a0818403910152610698565b606081019081106001600160401b038211176101c457604052565b60c081019081106001600160401b038211176101c457604052565b604081019081106001600160401b038211176101c457604052565b90601f801991011681019081106001600160401b038211176101c457604052565b35906001600160401b038216820361020557565b6001600160401b0381116101c45760051b60200190565b919060408382031261020557604051610820816107a1565b809361082b816107dd565b82526020810135906001600160401b03821161020557019180601f840112156102055782359061085a826107f1565b9361086860405195866107bc565b82855260208086019360051b82010191821161020557602001915b8183106108935750505060200152565b82356001600160a01b038116810361020557815260209283019201610883565b6001600160401b0381116101c457601f01601f191660200190565b81601f82011215610205578035906108e5826108b3565b926108f360405194856107bc565b8284526020838301011161020557816000926020809301838601378301015290565b9190604083820312610205576040519061092e826107a1565b819380356001600160401b038111610205578261094c918301610808565b83526020810135906001600160401b038211610205570191604083830312610205576040519261097b846107a1565b803560ff811681036102055784526020810135926001600160401b038411610205576020936109aa92016108ce565b828401520152565b604051906109bf826107a1565b6060602083600081520152565b906040516109d9816107a1565b600181936001600160401b0381541683520190604051809283916020825491828152019160005260206000209060005b818110610a265750505060209291610a229103846107bc565b0152565b82546001600160a01b0316845286945060209093019260019283019201610a09565b90600182811c92168015610a78575b6020831014610a6257565b634e487b7160e01b600052602260045260246000fd5b91607f1691610a57565b9060405191826000825492610a9684610a48565b8084529360018116908115610b045750600114610abd575b50610abb925003836107bc565b565b90506000929192526020600020906000915b818310610ae8575050906020610abb9282010138610aae565b6020919350806001915483858901015201910190918492610acf565b905060209250610abb94915060ff191682840152151560051b82010138610aae565b9060405191610b34836107a1565b602083610b40836109cc565b81526109aa600360405194610b54866107a1565b60ff600282015416865201610a82565b90604051610b7181610786565b60a0610bcf600b839560ff815416610b8881610655565b8552610b9660018201610b26565b6020860152610ba760058201610b26565b60408601526001600160401b036009820154166060860152600a810154608086015201610a82565b910152565b818110610bdf575050565b60008155600101610bd4565b90600160401b81116101c457815490808355818110610c0957505050565b610abb9260005260206000209182019101610bd4565b8115610c65576001600160401b038291160460018101809111610c4f57818102918183041490151715610c4f5790565b634e487b7160e01b600052601160045260246000fd5b634e487b7160e01b600052601260045260246000fd5b5190811515820361020557565b60405190610c95826107a1565b60006020838281520152565b90816020910312610205575160028110156102055790565b6060600160408401926001600160401b0381541685520192604060208201528354809352019160005260206000209060005b818110610cf85750505090565b82546001600160a01b0316845260209093019260019283019201610ceb565b610d2c6106f9926040835260408301906106fc565b9060208183039101526012610cb9565b6002111561065f57565b6001600160401b036001911601906001600160401b038211610c4f57565b51906001600160a01b038216820361020557565b908160409103126102055760405190610d90826107a1565b80516002811015610205578252610da990602001610d64565b602082015290565b610d2c6106f9926040835260408301906105fd565b9190918251610dd481610655565b610ddd81610655565b60ff80198354169116178155602083015180516001600160401b038151166001600160401b036001850191166001600160401b0319825416179055602060028401910151908151916001600160401b0383116101c457602090610e408484610beb565b0190600052602060002060005b83811061124657505050506020600383019101519060ff82511660ff198254161790556020600483019101518051906001600160401b0382116101c457610e948354610a48565b601f8111611214575b50602090601f83116001146111ad57610ecf929160009183611047575b50508160011b916000199060031b1c19161790565b90555b60408301518051805160058401805467ffffffffffffffff19166001600160401b0392831617905560209091015180519160068501919083116101c457602090610f1c8484610beb565b0190600052602060002060005b83811061119057505050506020600783019101519060ff82511660ff198254161790556020600883019101518051906001600160401b0382116101c457610f708354610a48565b601f811161115e575b50602090601f83116001146110f1578260a09593600b9593610fb1936000926110475750508160011b916000199060031b1c19161790565b90555b6001600160401b036060860151166001600160401b036009830191166001600160401b03198254161790556080850151600a820155019201519182516001600160401b0381116101c4576110088254610a48565b601f81116110b4575b506020601f82116001146110525781906110439394956000926110475750508160011b916000199060031b1c19161790565b9055565b015190503880610eba565b601f1982169083600052806000209160005b81811061109c57509583600195969710611083575b505050811b019055565b015160001960f88460031b161c19169055388080611079565b9192602060018192868b015181550194019201611064565b6110e190836000526020600020601f840160051c810191602085106110e7575b601f0160051c0190610bd4565b38611011565b90915081906110d4565b90601f1983169184600052816000209260005b818110611146575092600192859260a09896600b98961061112d575b505050811b019055610fb4565b015160001960f88460031b161c19169055388080611120565b92936020600181928786015181550195019301611104565b61118a90846000526020600020601f850160051c810191602086106110e757601f0160051c0190610bd4565b38610f79565b82516001600160a01b031681830155602090920191600101610f29565b90601f1983169184600052816000209260005b8181106111fc57509084600195949392106111e3575b505050811b019055610ed2565b015160001960f88460031b161c191690553880806111d6565b929360206001819287860151815501950193016111c0565b61124090846000526020600020601f850160051c810191602086106110e757601f0160051c0190610bd4565b38610e9d565b82516001600160a01b031681830155602090920191600101610e4d565b6020820190815151906112a8602073__$3fbe32418a9ca7804328967972fb037388$__9360405180938192630c133d1360e31b835284600484015260248301906105fd565b0381865af4908115610212576000916116e1575b506116b35760405160006112cf826107a1565b808252602082015260405163855f7e4560e01b8152602081806112f58960048301610d17565b038173__$c0560e63386df2470ca6214f90e7038fc9$__5af490811561021257600091611684575b5061132781610d3c565b600181036115a257505061133a90611b1b565b901561159c57600381016001600160401b03815460401c166001600160401b0360608701511603611568576113b260046113d393836113876001600160401b036020965460401c16610d46565b67ffffffffffffffff60401b82549160401b169067ffffffffffffffff60401b1916179055016109cc565b60405180938192632cff562160e11b835284600484015260248301906105fd565b0381855af490811561021257600091611529575b50604080516380875df760e01b815291829060049082906001600160a01b03165afa91821561021257611440926020926000916114fa575b50935b515190604051808095819463c836244d60e01b835260048301610db1565b03915af4908115610212576000916114c0575b501561147b576114639082611c2e565b901561147257610abb91611aae565b610abb91611a40565b50610abb906040516020810190602082526114ab8161149d60408201866106fc565b03601f1981018352826107bc565b51902060005260226020526040600020610dc6565b90506020813d6020116114f2575b816114db602093836107bc565b81010312610205576114ec90610c7b565b38611453565b3d91506114ce565b61151c915060403d604011611522575b61151481836107bc565b810190610d78565b3861141f565b503d61150a565b90506020813d602011611560575b81611544602093836107bc565b81010312610205576040611559600492610d64565b91506113e7565b3d9150611537565b50505050610abb906040519063bc0f01cf60e01b602083015260026024830152602482526115976044836107bc565b6118a8565b50505050565b909391506115af81610d3c565b156115c1575b61144091602091611422565b91506001600160401b0360035460401c166001600160401b03606085015116036116575760206114409161162e6116056001600160401b0360035460401c16610d46565b67ffffffffffffffff60401b6003549160401b169067ffffffffffffffff60401b191617600355565b611636610c88565b50604051611643816107a1565b6000815260008382015293915091506115b5565b5050610abb906040519063bc0f01cf60e01b602083015260026024830152602482526115976044836107bc565b6116a6915060203d6020116116ac575b61169e81836107bc565b810190610ca1565b3861131d565b503d611694565b505050610abb906040519063bc0f01cf60e01b602083015260016024830152602482526115976044836107bc565b90506020813d602011611713575b816116fc602093836107bc565b810103126102055761170d90610c7b565b386112bc565b3d91506116ef565b51906001600160401b038216820361020557565b919060408382031261020557604051611747816107a1565b80936117528161171b565b82526020810151906001600160401b03821161020557019180601f84011215610205578251611780816107f1565b9361178e60405195866107bc565b81855260208086019260051b82010192831161020557602001905b8282106117b95750505060200152565b602080916117c684610d64565b8152019101906117a9565b81601f820112156102055780516117e7816108b3565b926117f560405194856107bc565b81845260208284010111610205576106f99160208085019101610675565b9190604083820312610205576040519061182c826107a1565b819380516001600160401b038111610205578261184a91830161172f565b83526020810151906001600160401b0382116102055701916040838303126102055760405192611879846107a1565b805160ff811681036102055784526020810151926001600160401b038411610205576020936109aa92016117d1565b906118b282611d2a565b611a3c57600282516118c381610655565b6118cc81610655565b14611a3c57604051634dbefc2d60e11b815260606004820152916118f49060648401906106fc565b9082611916600093829360016024850152600319848303016044850152610698565b038173__$c0560e63386df2470ca6214f90e7038fc9$__5af49081156102125760009161194b575b5061194890611d79565b50565b3d8083833e61195a81836107bc565b810190602081830312611a34578051906001600160401b038211611a3857019160c083830312611a31576040519261199184610786565b80516003811015611a3457845260208101516001600160401b038111611a3457836119bd918301611813565b602085015260408101516001600160401b038111611a3457836119e1918301611813565b60408501526119f26060820161171b565b60608501526080810151608085015260a0810151916001600160401b038311611a31575091611a26916119489493016117d1565b60a08201529061193e565b80fd5b8280fd5b8380fd5b5050565b90611a4a82611d2a565b611a3c5760028251611a5b81610655565b611a6481610655565b14611a3c57604051634dbefc2d60e11b81526060600482015291611a8c9060648401906106fc565b9082611916600093829360026024850152600319848303016044850152610698565b90611ab882611d2a565b611a3c5760028251611ac981610655565b611ad281610655565b14611a3c57604051634dbefc2d60e11b81526060600482015291611afa9060648401906106fc565b90826119166000938293856024850152600319848303016044850152610698565b611b57602073__$3fbe32418a9ca7804328967972fb037388$__92604051809381926390ba52cf60e01b835284600484015260248301906105fd565b0381855af490811561021257600091611bfc575b5060005260208052611bad6020604060002092611b8a600485016109cc565b906040518080958194630c133d1360e31b835286600484015260248301906105fd565b03915af490811561021257600091611bc457501591565b90506020813d602011611bf4575b81611bdf602093836107bc565b8101031261020557611bf090610c7b565b1591565b3d9150611bd2565b90506020813d602011611c26575b81611c17602093836107bc565b81010312610205575138611b6b565b3d9150611c0a565b600091908291611c906040518092611c5f60208301956307ee9e3160e31b87526060602485015260848401906106fc565b908051611c6b81610d3c565b6044840152602001516001600160a01b0316606483015203601f1981018352826107bc565b519073__$c0560e63386df2470ca6214f90e7038fc9$__5af4903d15611d22573d91611cbb836108b3565b92611cc960405194856107bc565b83523d6000602085013e5b8281611cdf57509190565b9250508151820160408382031261020557611cfc60208401610c7b565b926040810151916001600160401b038311610205576106f99260208092019201016117d1565b606091611cd4565b8051611d3581610655565b611d3e81610655565b15611d4c5760a00151511590565b608001511590565b906020828203126102055781516001600160401b038111610205576106f9920161172f565b6020810180515173__$3fbe32418a9ca7804328967972fb037388$__90604051630c133d1360e31b81526020600482015260208180611dbb60248201866105fd565b0381865af4908115610212576000916124fc575b506124e65760405163c836244d60e01b815260208180611df28560048301610db1565b0381865af4908115610212576000916124ac575b5061249b5760408481015151905163855f7e4560e01b81529060208280611e308960048301610d17565b038173__$c0560e63386df2470ca6214f90e7038fc9$__5af49182156102125760009261247a575b5060405192631ccc893360e11b84526040600485015260008480611e94611e8260448301866105fd565b828103600319016024840152866105fd565b0381885af493841561021257611eca9460209160009161245f575b506040518096819263c836244d60e01b835260048301610db1565b0381885af493841561021257600094612423575b50600090611eeb84610d3c565b600184036123185750506040516308c7427760e11b8152602060048201529060008280611f1b60248201856105fd565b0381885af491821561021257611f51926020916000916122fd575b506040518094819263c836244d60e01b835260048301610db1565b0381885af4918215610212576000926122c1575b508161223a575b505b61219e575b611f7c81610d3c565b15908115612196575b50611f9f57505080611f9860809261275f565b0151151590565b6001600160401b0360035460401c166001600160401b038114610c4f5761200e92611ff260016000930167ffffffffffffffff60401b6003549160401b169067ffffffffffffffff60401b191617600355565b51516040518094819263089032d560e01b835260048301610db1565b0381845af491821561021257600092612171575b5061202c82611b1b565b92901561216057600383016001600160401b0361205181835416806060890152610d46565b166001600160401b0319825416179055600260808501519301918254938401809411610c4f576120a1936020935560405180809581946304e384ff60e21b835286600484015260248301906105fd565b03915af490811561021257600091612101575b5060405160208082526001600160a01b03909216927ffdd39ce2560484814971f663392e78ae37dc62ba184b3370d830371dd271a8b79282916120f9918301906106fc565b0390a2600090565b90506020813d602011612158575b8161211c602093836107bc565b81010312610205576120f96121517ffdd39ce2560484814971f663392e78ae37dc62ba184b3370d830371dd271a8b792610d64565b91506120b4565b3d915061210f565b630e991abd60e41b60005260046000fd5b61218f9192503d806000833e61218781836107bc565b810190611d54565b9038612022565b905038611f85565b84516121a981610655565b6121b281610655565b611f735760405163015538b160e01b815260206004820152604f60248201527f70726f7061676174696f6e206f6620605472616e7366657260206d657373616760448201527f6573206e6f742073757070706f7274656420666f72207375626e65747320776960648201526e746820455243323020737570706c7960881b608482015260a490fd5b612263915060209060405180938192632cff562160e11b835284600484015260248301906105fd565b0381875af4801561021257600090612286575b6122809150612536565b38611f6c565b506020813d6020116122b9575b816122a0602093836107bc565b81010312610205576122b461228091610d64565b612276565b3d9150612293565b9091506020813d6020116122f5575b816122dd602093836107bc565b81010312610205576122ee90610c7b565b9038611f65565b3d91506122d0565b61231291503d806000833e61218781836107bc565b38611f36565b90915061232483610d3c565b818315612333575b5050611f6e565b60405163089032d560e01b815291829081906123529060048301610db1565b0381885af490811561241857829160209161238f94916123fe575b5060405180948192632cff562160e11b835284600484015260248301906105fd565b0381885af49081156123f25780916123b4575b506123ad9150612536565b388161232c565b90506020823d6020116123ea575b816123cf602093836107bc565b81010312611a3157506123e46123ad91610d64565b386123a2565b3d91506123c2565b604051903d90823e3d90fd5b61241291503d8085833e61218781836107bc565b3861236d565b6040513d84823e3d90fd5b9093506020813d602011612457575b8161243f602093836107bc565b810103126102055761245090610c7b565b9238611ede565b3d9150612432565b61247491503d806000833e61218781836107bc565b38611eaf565b61249491925060203d6020116116ac5761169e81836107bc565b9038611e58565b632f3335ff60e21b60005260046000fd5b90506020813d6020116124de575b816124c7602093836107bc565b81010312610205576124d890610c7b565b38611e06565b3d91506124ba565b63bc0f01cf60e01b600052600160045260246000fd5b90506020813d60201161252e575b81612517602093836107bc565b810103126102055761252890610c7b565b38611dcf565b3d915061250a565b604080516380875df760e01b815291829060049082906001600160a01b03165afa90811561021257600091612581575b505161257181610d3c565b8061257d600192610d3c565b1490565b61259a915060403d6040116115225761151481836107bc565b38612566565b6013811461194857601354906001600160401b0382116101c4576125c48282610beb565b6000908152602081207f66de8ffda797e3de9c05e8fc57b3bf0ec28a930d40b0d285d93c06501cf6a09080545b8484106125ff575050505050565b600191820180546001600160a01b03909216848601559390910192906125f1565b805482101561263c57600052600c602060002091020190600090565b634e487b7160e01b600052603260045260246000fd5b8054600160401b8110156101c45761266f91600182018155612620565b91909161267f57610abb91610dc6565b634e487b7160e01b600052600060045260246000fd5b604051906126a2826107a1565b816126ab6109b2565b81526020610bcf6109b2565b805182101561263c5760209160051b010190565b6126d58154610a48565b90816126df575050565b81601f600093116001146126f1575055565b8183526020832061270d91601f0160051c810190600101610bd4565b8082528160208120915555565b6003610abb91600081556001810180546000825580612743575b505060006002820155016126cb565b61275891600052602060002090810190610bd4565b3880612734565b61276b60015443610c1f565b6001600160401b036127868160035416806060860152610d46565b166001600160401b0319600354161760035580600052602460205260406000209060028201805415612a9057505060030190815460035460c01c14600014612a875781546127d3816107f1565b916127e160405193846107bc565b818352601f196127f0836107f1565b0160005b818110612a3a5750506040519361280a8561076b565b604051612816816107a1565b6001600160401b03601254168152604051808160206013549283815201601360005260206000209260005b818110612a18575050612856925003826107bc565b6020820152855260208501924384526040860194855260005b8181106129e45750437f4ecfe3c1ed32ef0a63d3801d51eb20214db90b14dc5fd1ca58a9de54f16f46a6600080a2600082558061297c575b50906128b291612652565b80516000526024602052604060002092516001600160401b0380825116166001600160401b0319855416178455602060018501910151908151916001600160401b0383116101c45760209061290a8484989798610beb565b0190600052602060002060005b83811061295f575050505051600282015581515191600360009201915b8381106129415750505050565b8061295961295260019385516126b7565b5185612652565b01612934565b82516001600160a01b031681830155602090920191600101612917565b80600c0290600c820403610c4f57816000526020600020908101905b8181106129a557506128a7565b806000600c92556129b86001820161271a565b6129c46005820161271a565b600060098201556000600a8201556129de600b82016126cb565b01612998565b80612a11816129f560019487612620565b50612a018a5191610b64565b612a0b83836126b7565b526126b7565b500161286f565b84546001600160a01b0316835260019485019486945060209093019201612841565b602090604051612a4981610786565b60008152612a55612695565b83820152612a61612695565b60408201526000606082015260006080820152606060a0820152828288010152016127f4565b610abb91612652565b91600391610abb949360128303612aa9575b5501612652565b6001600160401b038060125416166001600160401b0319845416178355612ad2600184016125a0565b612aa256fea2646970667358221220e014c1cb67cce8e052a00bdaf97c533b35ac4da90e404a643a431412faa8fdf964736f6c634300081a0033","linkReferences":{"contracts/lib/CrossMsgHelper.sol":{"CrossMsgHelper":[{"start":4884,"length":20},{"start":6453,"length":20},{"start":7343,"length":20},{"start":7759,"length":20}]},"contracts/lib/SubnetIDHelper.sol":{"SubnetIDHelper":[{"start":303,"length":20},{"start":717,"length":20},{"start":4750,"length":20},{"start":6973,"length":20},{"start":7581,"length":20}]}}},"methodIdentifiers":{"applyMsg((uint64,address[]),(uint8,((uint64,address[]),(uint8,bytes)),((uint64,address[]),(uint8,bytes)),uint64,uint256,bytes))":"830238c3","getNextBottomUpMsgBatch()":"4b8e4e8f","registerSubnet((uint64,address[]))":"97c2cd8b","setSubnet((uint64,address[]),uint256)":"c8251fe8"},"id":143}