{"abi":[{"type":"function","name":"performCall","inputs":[{"name":"supplySource","type":"tuple","internalType":"struct Asset","components":[{"name":"kind","type":"uint8","internalType":"enum AssetKind"},{"name":"tokenAddress","type":"address","internalType":"address"}]},{"name":"target","type":"address","internalType":"address payable"},{"name":"data","type":"bytes","internalType":"bytes"},{"name":"value","type":"uint256","internalType":"uint256"}],"outputs":[{"name":"success","type":"bool","internalType":"bool"},{"name":"ret","type":"bytes","internalType":"bytes"}],"stateMutability":"nonpayable"},{"type":"error","name":"NotEnoughBalance","inputs":[]}],"bytecode":{"object":"0x608080604052346015576103e7908161001b8239f35b600080fdfe6080604052600436101561001257600080fd5b60003560e01c637bf257a81461002757600080fd5b346100b157366003190160a081126100b1576040136100b15761004a60c0604052565b60043560028110156100b157608052602435610065816100f3565b60a052610070610104565b6064359067ffffffffffffffff82116100b15761009461009d92369060040161012f565b608435916101ee565b906100ad60405192839283610199565b0390f35b600080fd5b634e487b7160e01b600052604160045260246000fd5b90601f8019910116810190811067ffffffffffffffff8211176100ee57604052565b6100b6565b6001600160a01b038116036100b157565b60443590610111826100f3565b565b67ffffffffffffffff81116100ee57601f01601f191660200190565b81601f820112156100b15780359061014682610113565b9261015460405194856100cc565b828452602083830101116100b157816000926020809301838601378301015290565b60005b8381106101895750506000910152565b8181015183820152602001610179565b909160609215158252604060208301526101c28151809281604086015260208686019101610176565b601f01601f1916010190565b600211156101d857565b634e487b7160e01b600052602160045260246000fd5b6060939291906000831561031c5760805160028110156101d857610211816101ce565b61022f575092935061022b926001600160a01b0316610380565b9091565b9291906001608051610240816101ce565b610249816101ce565b14610256575b5050509190565b60a051604080516001600160a01b0393841660208201818152828401979097529181529097509294506000938493919092169183906102966060846100cc565b6102cf602460405180936102be602083019763a9059cbb60e01b895251809285850190610176565b81010301601f1981018352826100cc565b51925af1906102dc610335565b9382610305575b505080156102f35738808061024f565b8251838161030057600080fd5b602001fd5b909150610313929350610365565b919038806102e3565b5092935061022b929091506001600160a01b0316610365565b3d15610360573d9061034682610113565b9161035460405193846100cc565b82523d6000602084013e565b606090565b600091829182602083519301915af19061037d610335565b90565b91908147106103a0576000928392602083519301915af19061037d610335565b63569d45cf60e11b60005260046000fdfea264697066735822122039fc78065fb1e4ac494cb786b84c22b9952e5bc5b7628cd0afc679c5ec9ae3ba64736f6c634300081a0033","linkReferences":{}},"methodIdentifiers":{"performCall((uint8,address),address,bytes,uint256)":"7bf257a8"},"id":123}